:100000000C9434020C9463020C9463020C9463020B
:100010000C9463020C9463020C9463020C946302CC
:100020000C9463020C9463020C9463020C946302BC
:100030000C9463020C9463020C9463020C946302AC
:100040000C9463020C9463020C9463020C9463029C
:100050000C9463020C9463020C9463020C94261BB0
:100060000C9463020C947F1F0C94B51F0C946302D4
:100070000C9463020C9463020C9463020C9463026C
:100080000C9463020C9463020C9463020C9463025C
:100090000C9463020C9463020C9463020C94F217A8
:1000A0000C9463020C9463020C9463020C9463023C
:1000B0000C9463020C9463020C9463020C9463022C
:1000C0000C9463020C9463020C9463020C9463021C
:1000D0000C9463020C9463020C9463020C9463020C
:1000E0000C9463022B0FFE0E020F060F2B0F0A0F4C
:1000F0000E0F120F160F180F1D0F1F0F240F260FB4
:100100002B0FAB19AE198A198A198D1990199319E9
:100110009319991999199619961999199919AB1949
:100120007F1C841C891C931C9D1C161DA71CAF1CC6
:10013000B71CC11CCB1CD51CE41CEE1C161DF81CE6
:10014000021D0C1D381D3B1D2A1D2E1D341D721D48
:100150003F1D431D491D4D1D511D571D5B1D5F1D3D
:10016000721D651D691D6D1D0953746F72656420D4
:100170003D20007363616C65466163746F725A2041
:100180003D20000953746F726564203D200073693F
:10019000676D615A203D20000953746F72656420B9
:1001A0003D2000426961735A203D20005072696E03
:1001B00074696E672063616C63756C61746564203B
:1001C000616E642073746F7265642076616C75650E
:1001D000732E2E2E005363616C6520466163746F2D
:1001E00072203D20004D617820416E676C65203D96
:1001F0002000446F6E652100526F74617465206247
:1002000061636B20746F207374617274696E672010
:10021000706F736974696F6E2E005A3D20005369C8
:10022000676D613A005A3D200041766572616765ED
:1002300020426961733A00476574426C6F636B28B2
:10024000292072657475726E6564204241445F4274
:100250004C4F434B2E005269676874204D6F746F8A
:10026000722063757272656E743A20004C65667414
:10027000204D6F746F722063757272656E743A20D0
:10028000006D6F746F7220647269766572206661AA
:10029000756C74004552524F522D20496E76616C38
:1002A00069642070726F6772616D2063686F696343
:1002B000653A2000095363616C6520466163746F81
:1002C000723A2000095369676D613A200042696102
:1002D000733A20004661696C656420746F20617513
:1002E000746F646574656374206779726F207479C4
:1002F0007065210009546F74616C203D2000094233
:100300006F74204C696E65203D20000943656E7452
:100310006572203D20000959203D20005369672067
:100320003D20004552524F522D20496E76616C6936
:10033000642070726F6772616D2063686F696365B6
:100340003A200000000A0B02090C0D0E08070304F6
:10035000010000000000000000000000000000009C
:10036000000000000000000000000000000000127B
:10037000111000000000000000000000000000005C
:10038000000000000000000000010210202008080A
:1003900010204010204080020102010804020101E7
:1003A00002040810204080804020100804020180D0
:1003B0000402018040201008040201080402010127
:1003C000020408102040800102040810204080052B
:1003D000050505070508080808020202020A0A08BE
:1003E00008040404040101010101010101030303E4
:1003F0000303030303040707070C0C0C0C0C0C0C81
:100400000C0202020206060606060606060B0B0B87
:100410000B0B0B0B0B000020002300260029002CE7
:10042000002F003200000100000301060109010055
:10043000002200250028002B002E0031003400028D
:10044000010000050108010B010000210024002724
:10045000002A002D003000330001010000040107D4
:10046000010A01001017E91F11241FBECFEFD1E2CE
:10047000DEBFCDBF13E0A0E0B2E0E0E0F5E500E0D4
:100480000BBF02C007900D92A035B107D9F724E049
:10049000A0E5B3E001C01D92A83FB207E1F714E068
:1004A000C8E6D4E000E006C022970109FE010BBFB8
:1004B0000E946725C436D10780E00807A9F70E948B
:1004C0002D200C947E2A0C940000CF93DF93EC0136
:1004D000E881F981848195810E949807E881F981FA
:1004E000118E81E0828F10A2178EDF91CF91089537
:1004F000EF92FF920F931F93CF93DF93CDB7DEB7A9
:100500002C970FB6F894DEBF0FBECDBF7C010D83D4
:100510001E832F83388749875A876B877C878C0196
:10052000085F1F4FC8010E943A168D899E89AF89C6
:10053000B88DF70184879587A687B787898D9A8DAF
:10054000AB8DBC8D808B918BA28BB38B4D8D5E8DD3
:100550006F8D78A1448B558B668B778B89A1808FAB
:100560008D819E81918380838F81988593838283FF
:1005700089859A85958384838B859C8597838683DB
:10058000118E81E0828F138E148E158E168E2CA103
:100590004BA16AA1CE0101960E941916BE016F5FA0
:1005A0007F4FC8010E9402152C960FB6F894DEBF4B
:1005B0000FBECDBFDF91CF911F910F91FF90EF90B4
:1005C00008954F925F926F927F928F929F92AF9217
:1005D000BF92CF92DF92EF92FF920F931F93CF9330
:1005E000DF93CDB7DEB72E970FB6F894DEBF0FBE00
:1005F000CDBF4C01B62E142FFC0182819381F3E014
:100600006F1309C060E070E00E944B122B013C01A7
:1006100062E070E008C061E070E00E944B122B01C4
:100620003C0163E070E0F401828193810E944B12EF
:100630006B017C019E868D86F12FF470AF2E12FF28
:100640000EC0F401808191810E94C710F4012489B9
:100650003589468957890E941A2387FD57C0F12F93
:10066000F170AF2E10FF28C0F401818D811116C0EA
:100670002485358546855785C301B2010E946924CA
:10068000181664F4F401A18EA28E868197810E94CF
:100690006011F401638F748F858F968FF401818DC3
:1006A000882351F02485358546855785C701B601D5
:1006B0000E946924181654F1F12FF270AF2E11FF29
:1006C0002CC0F40160817181CE0101960E94C1139A
:1006D000C980DA80EB80FC800D811E812F813885F6
:1006E00049855A856B857C85F401808191810E94C2
:1006F000DD0FF401882379F0878D90A1019690A3F6
:10070000878F208D30E0821793073CF0CE010D9645
:100710000E9465024CC010A2178EF401828D8823BE
:1007200031F0848195810E946306F401128EF401F8
:10073000218D84819581222351F0438D548D658DC7
:10074000768D00E010E098010E9463082FC0F4014C
:100750004089518962897389F1E0BF1210C01F92EC
:100760001F921F921F92812C912C5401C12CD12CCD
:1007700030E8E32E3FE3F32E9301820111C01F9274
:100780001F921F921F92812C912C5401C12CD12CAD
:1007900020E8E22E2FE3F22E8A019B01B301A20191
:1007A0000E9477060F900F900F900F90A12C8A2D2A
:1007B0002E960FB6F894DEBF0FBECDBFDF91CF915E
:1007C0001F910F91FF90EF90DF90CF90BF90AF906F
:1007D0009F908F907F906F905F904F900895FC0155
:1007E00083E090E0908787831386128614860895AD
:1007F000EF92FF921F93CF93DF931F92CDB7DEB797
:100800007C01162FFC01618580E893E049830E94FA
:10081000F016612F80E893E00E9497164981642FBB
:1008200080E893E00E94971680E893E00E940D17FD
:10083000F70186830F90DF91CF911F91FF90EF908A
:100840000895CF93DF93EC018F819885029729F467
:1008500040E069E3CE010E94F80340E063E2CE018C
:100860000E94F8034FE660E2CE01DF91CF910C9435
:10087000F8039F92AF92BF92CF92DF92EF92FF92D6
:100880000F931F93CF93DF93EC01698580E893E08A
:100890000E94F016E0918003F09181030190F081B5
:1008A000E02D68EA80E893E0099580E893E00E94F3
:1008B0000D1746E0698580E893E00E94ED160E94DE
:1008C000701B7B0180E893E00E943F16069784F43A
:1008D0008A859B85892BB1F30E94701B6E197F0955
:1008E0008A859B858617970768F781E08C872CC0DF
:1008F00080E893E00E944716A82E80E893E00E94CB
:100900004716982E80E893E00E944716E82E80E86C
:1009100093E00E944716B82E80E893E00E944716A5
:10092000F82E80E893E00E944716D92CC12CCA28E3
:10093000D982C8821B2D00E00E291B830A83982FC1
:1009400088278F299D838C83DF91CF911F910F91F1
:10095000FF90EF90DF90CF90BF90AF909F90089561
:100960001F93CF93DF931F92CDB7DEB7162F80E88A
:1009700093E049830E94F0164981642F80E893E058
:100980000E94971680E893E00E940D17811114C011
:1009900041E0612F80E893E00E94ED1680E893E04B
:1009A0000E943F16892B41F080E893E00F90DF9181
:1009B000CF911F910C9447168FEF9FEF0F90DF910F
:1009C000CF911F910895EF92FF920F931F93CF93B2
:1009D000DF937C01EB018A016330710521F0423025
:1009E000510509F051C0CE010197039758F5011543
:1009F000110581F04FE050E06BE6C7010E94B004A2
:100A00008F3F2FEF920719F001E010E013C0013083
:100A1000110551F04FE050E06AE6C7010E94B004B2
:100A20008F3FEFEF9E0721F4C330D10569F027C057
:100A300000E010E0C330D10529F4873D9105F1F5C0
:100A4000C2E0D0E02097D9F40115110561F04FE024
:100A500050E069E6C7010E94B004833D910589F129
:100A60000130110549F04FE050E068E6C7010E94EF
:100A7000B004833D910541F1C330D10519F0023036
:100A8000110511F480E025C0F701D087C7832097B6
:100A900059F0D7FD11C023977CF40130110511F4F2
:100AA0008BE608C08AE606C00130110511F489E61C
:100AB00001C088E6F701818781E00BC0C1E0D0E08A
:100AC000C1CF01E010E002C000E010E0C0E0D0E0E3
:100AD000D6CFDF91CF911F910F91FF90EF900895A6
:100AE000EF92FF920F931F93CF93DF93CDB7DEB7B3
:100AF00028970FB6F894DEBF0FBECDBF7C01FC0176
:100B000060837183802F028313832483358346831C
:100B1000578360E00E94731D60E0F70183810E94AB
:100B2000731D60E0F70184810E94731D60E0F7018E
:100B300085810E94731D60E0F70186810E94731D0C
:100B400060E0F70187810E94731D61E0F7018081F9
:100B50000E94731D60E0F70181810E94731D61E0B6
:100B6000F701808128960FB6F894DEBF0FBECDBF87
:100B7000DF91CF911F910F91FF90EF900C94AC1DDE
:100B80000F931F93CF93DF93EC0177FF05C071950F
:100B90006195710981E001C080E08B016F3F7105B3
:100BA00019F014F00FEF10E0811107C0B8018A812D
:100BB0000E94591C60E070E006C060E070E08A812D
:100BC0000E94591CB8018B81DF91CF911F910F9129
:100BD0000C94591C0F931F93CF93DF93EC0177FF75
:100BE00005C071956195710981E001C080E08B01BC
:100BF0006F3F710519F014F00FEF10E0811107C07D
:100C0000B8018D810E94591C60E070E006C060E070
:100C100070E08D810E94591CB8018E81DF91CF91C7
:100C20001F910F910C94591C0F931F93CF93DF9337
:100C3000EC018A010E94C005B801CE01DF91CF917D
:100C40001F910F910C94EA05FC0184810E94341CD1
:100C500029E0AC01249FC001259F900D1124089527
:100C6000FC0187810E94341C29E0AC01249FC00153
:100C7000259F900D11240895FC0181810E94E21DA1
:100C800021E0892B09F020E0822F0895FC011682D3
:100C9000178210861186128613861486158616868C
:100CA0001786108A118A128A138A148A158A168A5C
:100CB000178A108E118E128E718360833383228384
:100CC000558344830895CF93DF93EC011B8A1C8ADC
:100CD0001D8A1E8A1F86188A198A1A8A0E947C1BFE
:100CE0006B877C878D879E87DF91CF9108952F92A8
:100CF0003F924F925F926F927F928F929F92AF92AC
:100D0000BF92CF92DF92EF92FF920F931F93CF93F8
:100D1000DF93CDB7DEB764970FB6F894DEBF0FBE92
:100D2000CDBF1C0149835A836B837C83098B1A8B4B
:100D30002B8B3C8B49A45AA46BA47CA449865A866D
:100D40006B867C860E947C1BD1011B962D913D9168
:100D50004D915C911E972B013C01421A530A640A83
:100D6000750A4D825E826F8278861B966D937D93A5
:100D70008D939C931E97411451046104710409F4EE
:100D8000ABC029893A894B895C8969817A818B81D9
:100D90009C810E94B52269837A838B839C83C301E3
:100DA000B2010E94B9236D837E838F83988720E0F0
:100DB00034E244E759E40E941E239B01AC0169819F
:100DC0007A818B819C810E946D24F1012389348971
:100DD000458956890E94B6222B013C01D1015396C8
:100DE0006D937D938D939C93569729813A814B8186
:100DF0005C81C701B6010E946D246B017C01A301D7
:100E00009201C501B4010E946D249B01AC01C70190
:100E1000B6010E94B6224B015C01F10127853089A1
:100E20004189528969817A818B819C810E94B52296
:100E30002B013C012D813E814F81588560E074E299
:100E400084E799E40E941E239B01AC01C301B20117
:100E50000E946D249B01AC0169857A858B859C85F8
:100E60000E946D249B01AC01C501B4010E94B62211
:100E70000E94862349805A806B807C80D1011F9616
:100E80004D925D926D927C92529711962C91119792
:100E900030E0A901461B570B620F731F12968D910C
:100EA0009C91139764960FB6F894DEBF0FBECDBF2A
:100EB000DF91CF911F910F91FF90EF90DF90CF9036
:100EC000BF90AF909F908F907F906F905F904F906A
:100ED0003F902F900C94140664960FB6F894DEBFE2
:100EE0000FBECDBFDF91CF911F910F91FF90EF907B
:100EF000DF90CF90BF90AF909F908F907F906F903A
:100F00005F904F903F902F90089570E0FC01828198
:100F10009381413029F444275527461B570B06C0BF
:100F200022273327261B370BAB01B9010C9414067B
:100F300040E050E060E070E0FC01828193810C941D
:100F400014068F929F92AF92BF92CF92DF92EF9250
:100F5000FF921F93CF93DF93EC01162F8C819D811D
:100F60000E9460114B015C018E8181113BC01130E8
:100F700029F420E030E044EB52E404C020E030E00B
:100F800044EB52ECC501B4010E94B6226B017C0116
:100F900020E030E044EB53E40E94692487FD09C05F
:100FA00020E030E044EB53E4C701B6010E94B522D3
:100FB00015C0CF82D886E986FA8620E030E0A90104
:100FC000C701B6010E941A2387FF0CC020E030E061
:100FD00044EB53E4C701B6010E94B6226F837887C1
:100FE00089879A87A50194016F81788589859A857B
:100FF0000E94B5226B017C0120E030E044E353E421
:101000000E94692418164CF420E030E044EB53E4CD
:10101000C701B6010E94B52212C020E030E044E3CF
:1010200053ECC701B6010E941A2387FF0AC020E0D3
:1010300030E044EB53E4C701B6010E94B6226B01D5
:101040007C0120E030E0A901C701B6010E946924BB
:1010500046015701181624F0B7FAB094B7F8B094C7
:10106000688170E080E090E00E94B9239B01AC01B0
:10107000C501B4010E941A2387FF06C0CE010E9459
:1010800098071E8281E013C020E030E0A901C7016B
:10109000B6010E946924181614F441E001C043E02F
:1010A0006981CE010E94850781E08E8380E0DF9117
:1010B000CF911F91FF90EF90DF90CF90BF90AF90B6
:1010C0009F908F9008958F929F92AF92BF92CF92F0
:1010D000DF92EF92FF920F931F93CF93DF93EC0178
:1010E0004A015B01680179010115110521053105EE
:1010F00019F18F89988DA98DBA8D892B8A2B8B2B0D
:1011000031F40E947C1B6F8B788F898F9A8F0E949D
:101110007C1B0F89188D298D3A8D601B710B820BFA
:10112000930BC616D706E806F90630F41F8A188E08
:10113000198E1A8E81E04BC08C819D810E946011B6
:101140009B01AC01C501B4010E94B5226B017C0179
:1011500020E030E044E353E40E94692418164CF484
:1011600020E030E044EB53E4C701B6010E94B52211
:1011700012C020E030E044E353ECC701B6010E9406
:101180001A2387FF0AC020E030E044EB53E4C70194
:10119000B6010E94B6226B017C019701860130588E
:1011A0001F921F921F921F92812C912C5401C12CCF
:1011B000D12C80E8E82E8FE3F82EB501A401CE01F2
:1011C0000E9477060F900F900F900F9080E0DF91B4
:1011D000CF911F910F91FF90EF90DF90CF90BF9034
:1011E000AF909F908F900895FF920F931F93CF938E
:1011F000DF93EC018B01F42EE881F98184859585DC
:101200000E943C06882339F061E872E087E594E0AB
:101210000E94AE20FFCFEC81FD81B80184859585C9
:10122000FF2019F00E94C00502C00E94EA05C80113
:1012300017FF03C091958195910962E370E00E94C8
:101240002B25892B39F5FF2069F06CE672E087E5E4
:1012500094E00E947C20EA81FB81848595850E9430
:1012600024060CC066E572E087E594E00E947C20CD
:10127000EA81FB81848595850E9430064AE050E032
:10128000BC0187E594E0DF91CF911F910F91FF9012
:101290000C949F21DF91CF911F910F91FF900895A2
:1012A0006F927F928F929F92AF92BF92CF92DF9276
:1012B000EF92FF920F931F93CF93DF93CDB7DEB7DB
:1012C0002C970FB6F894DEBF0FBECDBF3C01842F24
:1012D00089829A82AB82BC82CD82DE82EF82F886DE
:1012E00009871A872B873C8729813A81F301338349
:1012F00022832B813C81358324832D813E8137835A
:1013000026832F8138853187208729853A85338741
:1013100022872B853C85358724874083668762E05A
:101320000E94731DF30111822C960FB6F894DEBF54
:101330000FBECDBFDF91CF911F910F91FF90EF9026
:10134000DF90CF90BF90AF909F908F907F906F90E5
:1013500008950F931F93CF93DF9300D000D000D058
:10136000CDB7DEB79A8389839C838B839E838D83DD
:1013700000E010E041E0B801CE0101960E94F408BF
:101380006FE070E080E090E00E949F1B0F5F1F4FB6
:10139000011581E0180771F70FEF10E041E0B80187
:1013A000CE0101960E94F4086FE070E080E090E0CA
:1013B0000E949F1B0150110901158FEF180771F74B
:1013C00001E01FEF41E0B801CE0101960E94F40850
:1013D0006FE070E080E090E00E949F1B0F5F1F4F66
:1013E0000130110579F700E010E040E0B801CE01CE
:1013F00001960E94F4086FE070E080E090E00E94A7
:101400009F1B0F5F1F4F011581E0180771F70FEF4A
:1014100010E040E0B801CE0101960E94F4086FE0B0
:1014200070E080E090E00E949F1B015011090115BF
:101430008FEF180771F701E01FEF40E0B801CE0110
:1014400001960E94F4086FE070E080E090E00E9456
:101450009F1B0F5F1F4F0130110579F780E0269623
:101460000FB6F894DEBF0FBECDBFDF91CF911F91B5
:101470000F91089560910702FC01828593850E9477
:10148000A107882329F0809176038F5F80937603EC
:1014900080917603843059F410927603809107028C
:1014A000813011F483E001C081E08093070280E085
:1014B00008950F931F93CF93DF93EC0180917703EF
:1014C00081110FC0888599850E9460116093720315
:1014D00070937303809374039093750381E08093FA
:1014E000770380910602882331F08A859B850E94CC
:1014F000630610920602409172035091730360914B
:1015000074037091750300E41BE42CE430E08A85D9
:101510009B850E946308882321F081E08093060266
:1015200001C080E0DF91CF911F910F910895AF929C
:10153000BF92CF92DF92EF92FF920F931F93CF93C0
:10154000DF93CDB7DEB7C259D1090FB6F894DEBF2D
:101550000FBECDBF8C01FC0164817581CE018F5718
:101560009F4F0E94C113CD57DF4FA881C358D04071
:10157000CC57DF4FB881C458D040CB57DF4FF880ED
:10158000C558D040CA57DF4FE880C658D040C95729
:10159000DF4FD880C758D040C857DF4FC880C858E1
:1015A000D040C757DF4FB880C958D040C657DF4F2B
:1015B000A880CA58D040CF57DF4F28813981C15801
:1015C000D040F80184819581FC0183899489281792
:1015D000390739F467E372E087E594E00E94AE20B2
:1015E0006EC02830310508F44AC080E090E0E0E0A9
:1015F0004CE050E0B901042E02C0769567950A943C
:10160000E2F7677011F4EE2351F0EDE8F0E0EC0F33
:10161000FD1FE80FF91F605D60830196E1E0435014
:1016200051094D3FFFEF5F0729F7AE0143575F4F69
:10163000FA01E80FF91F1082C457DF4F8881CC5898
:10164000D0408F93C557DF4F8881CB58D0408F93C0
:10165000AF92BF92CF92DF92EF92FF92BF93AF9380
:101660003F932F935F934F9381E492E09F938F93E7
:10167000CE0101969F938F930E94982714C0AF923A
:10168000BF92CF92DF92EF92FF92BF93AF933F93BF
:101690002F938BE892E09F938F93CE0101969F93B7
:1016A0008F930E9498270FB6F894DEBF0FBECDBF70
:1016B000BE016F5F7F4F87E594E00E94A12080E02C
:1016C000CE56DF4F0FB6F894DEBF0FBECDBFDF9111
:1016D000CF911F910F91FF90EF90DF90CF90BF902F
:1016E000AF9008954F925F926F927F928F929F92E8
:1016F000AF92BF92CF92DF92EF92FF920F931F9320
:10170000CF93DF93CDB7DEB769970FB6F894DEBFFE
:101710000FBECDBF7C010E947C1B209170033091D5
:1017200071032130310509F437C12230310509F444
:10173000E9C0232B09F0FAC280906C0390906D03EE
:10174000A0906E03B0906F0389288A288B2841F4FB
:1017500060936C0370936D0380936E0390936F039B
:1017600080906C0390906D03A0906E03B0906F0317
:10177000DC01CB0188199909AA09BB09A0906A0369
:10178000B0906B0388389341A105B10508F05EC0A5
:1017900085010F5F1F4F10936B0300936A03D701FE
:1017A0001896ED91FC91199760857185882777FDD2
:1017B0008095982F0E94B9232B013C0180906603ED
:1017C00090906703A0906803B0906903A50194010D
:1017D0000E94B5226B017C01B80180E090E00E947C
:1017E000B7239B01AC01C701B6010E941E239B01D8
:1017F000AC01C501B4010E94B6229B01AC0160930B
:101800006603709367038093680390936903C30131
:10181000B2010E94B5229B01AC01C701B6010E9432
:101820006D249B01AC016091620370916303809110
:101830006403909165030E94B622609362037093E3
:101840006303809364039093650370C2B501615094
:10185000710980E090E00E94B7239B01AC01609188
:1018600062037091630380916403909165030E9409
:101870001E230E94D42460935E0370935F038093C1
:1018800060039093610369E272E087E594E00E944F
:10189000AE2065E272E087E594E00E947C204091F2
:1018A000660350916703609168037091690322E0B9
:1018B00030E087E594E00E94A2226EE172E087E5C5
:1018C00094E00E94AE206AE172E087E594E00E9415
:1018D0007C2040915E0350915F03609160037091A2
:1018E000610322E030E087E594E00E94A22210929A
:1018F0006C0310926D0310926E0310926F0382E0DE
:1019000090E045C065EB72E087E594E00E94A1207D
:1019100022E030E040E050E064EB73E487E594E0DF
:101920000E94A0226EED72E087E594E00E94C02044
:101930006DEF72E087E594E00E94C0206CE271E0F8
:1019400080E090E00E949F1B62E073E087E594E0F6
:101950000E94C0206CE271E080E090E00E949F1B3A
:1019600067E073E087E594E00E94C0206CE271E0DC
:1019700080E090E00E949F1B6CE073E087E594E0BC
:101980000E94C02081E080935D0381E090E090930D
:10199000710380937003CAC180906C0390906D03B3
:1019A000A0906E03B0906F0389288A288B2841F499
:1019B00060936C0370936D0380936E0390936F0339
:1019C00080906C0390906D03A0906E03B0906F03B5
:1019D0002B013C01481859086A087B08D701189662
:1019E000ED91FC91199760857185882777FD809529
:1019F000982F0E94B923209166033091670340918C
:101A00006803509169030E94B52229E23CE54FE04A
:101A10005CE30E946D246B017C01C301B2010E9452
:101A2000B7239B01AC01C701B6010E946D2420E0E1
:101A300034E244E759E40E941E2320915903309177
:101A40005A0340915B0350915C030E94B6224B0104
:101A50005C016093590370935A0380935B039093E6
:101A60005C032091550330915603409157035091E8
:101A700058030E946924181644F4809255039092EA
:101A80005603A0925703B0925803B8EB4B16BBE035
:101A90005B066104710408F449C120E030E0A9014B
:101AA000C701B6010E94692418165CF42DEC3CECC9
:101AB0004CEC5DE3C701B6010E941A2387FF36C1D3
:101AC0000BC02DEC3CEC4CEC5DEBC701B6010E9469
:101AD000692418160CF02AC180915403811112C098
:101AE00068EF71E087E594E00E94AE2010926C03ED
:101AF00010926D0310926E0310926F0381E0809339
:101B0000540314C12091550330915603409157035B
:101B10005091580360E070E084EB93E40E941E2330
:101B200029E23CE54FE05CE30E946D2460935003A2
:101B300070935103809352039093530362EF71E0CB
:101B400087E594E00E94AE2065EE71E087E594E0C1
:101B50000E947C2040915503509156036091570399
:101B60007091580322E030E087E594E00E94A222C1
:101B700065ED71E087E594E00E947C204091500380
:101B800050915103609152037091530322E030E071
:101B900087E594E00E94A2228091660390916703FA
:101BA000A0916803B09169038D879E87AF87B88B3A
:101BB0008091500390915103A0915203B09153032F
:101BC0008D8B9E8BAF8BB88F80915E0390915F035E
:101BD000A0916003B0916103898B9A8BAB8BBC8B16
:101BE0006E01EDE0CE0ED11CE12CF12CD6016D91F1
:101BF0006D01C701698F0E94C229698D681719F0AC
:101C0000C7010E94CA29BFEFEB1AFB0AECE0EE16EF
:101C1000F10461F78E010F5F1F4FE12CF12CC7011A
:101C20000E94C229D8018D938D01BFEFEB1AFB0AE8
:101C3000ECE0EE16F10499F749805A806B807C80C5
:101C40008D809E80AF80B884C984DA84EB84FC8464
:101C50006CEA71E087E594E00E94AE2063EA71E0EF
:101C600087E594E00E947C204091660350916703D1
:101C7000609168037091690322E030E087E594E0A9
:101C80000E94A02268E971E087E594E00E947C2030
:101C900022E030E0B301A20187E594E00E94A22295
:101CA0006EE871E087E594E00E947C2040915E033D
:101CB00050915F03609160037091610322E030E016
:101CC00087E594E00E94A02263E871E087E594E054
:101CD0000E947C2022E030E0B501A40187E594E079
:101CE0000E94A22263E771E087E594E00E947C20D5
:101CF00040915003509151036091520370915303EE
:101D000022E030E087E594E00E94A02268E671E0DE
:101D100087E594E00E947C2022E030E0B701A60134
:101D200087E594E00E94A22281E001C080E06996EC
:101D30000FB6F894DEBF0FBECDBFDF91CF911F91DC
:101D40000F91FF90EF90DF90CF90BF90AF909F905A
:101D50008F907F906F905F904F900895FC018085E9
:101D600091850E946011AB01BC0122E030E087E563
:101D700094E00E94A22280E0089544E0FC01828168
:101D800093810E94E10291E0843009F090E0892F74
:101D9000089541E0FC01828193810E94E10291E07B
:101DA000813009F090E0892F089542E0FC018281A2
:101DB00093810E94E10291E0823009F090E0892F46
:101DC0000895CF93DF93EC0188810E94E21D892B57
:101DD00009F452C0898181114FC088859985009787
:101DE00011F00E949D114E8550E0FA013197EF30BD
:101DF000F10598F5EE58FF4F0C946125CE010E9435
:101E0000A90939C0CE010E943A0A35C0CE010E940C
:101E1000590A31C0CE010E94970A2DC0CE010E94FE
:101E2000720B29C0CE010E94AE0E25C063E001C036
:101E300061E0CE010E94BD0E1EC063E001C061E002
:101E4000CE010E94C90E17C063E001C061E0CE015F
:101E50000E94D50E10C019820FC064E972E087E5B8
:101E600094E00E947C204AE050E06E8587E594E093
:101E70000E94822181E089838981DF91CF91089539
:101E80008EBD00000DB407FEFDCF8EB508951F93E3
:101E9000CF93DF93FC0123A92223A1F085A991E030
:101EA000980F95ABDF01A80FB11DA80FB11D539678
:101EB0004C91539754963C91215023AB903199F417
:101EC00015AA11C080898823F9F0228991E0920F28
:101ED000928BDF01A20FB11D1C918150808B90313C
:101EE00029F4128A03C0842F932F15C08BE50E941A
:101EF000400F282F30E0D22FCC27812F0E94400F97
:101F00009E01282BC90107C08AE50E94400F282F97
:101F100030E010E0F0CFDF91CF911F9108950F9343
:101F20001F93CF93DF93CDB7DEB78C018CE0EAE04F
:101F3000F2E0D801539601900D928A95E1F7F801ED
:101F400011AA12AA13AAEC5AFF4F108231961082DE
:101F50003196108231961082339611821082329619
:101F60008EE190E09183808388E691E00E947F2556
:101F7000F80190A3878FE25AFF4F118210823296A8
:101F80001182108283E1FE013796D80101900D92F3
:101F90008A95E1F70E94AA148CB58C7F81608CBD74
:101FA0008DB58E7F8DBDF801EE59FF4F81E08083A6
:101FB000DF91CF911F910F910895CF92DF92EF9211
:101FC000FF920F931F93CF93DF93CDB7DEB72C977C
:101FD0000FB6F894DEBF0FBECDBFC982DA82298169
:101FE0003A812150310981E02230310508F080E04A
:101FF0002C960FB6F894DEBF0FBECDBFDF91CF9108
:102000001F910F91FF90EF90DF90CF9008953F9236
:102010004F925F926F927F928F929F92AF92BF92F8
:10202000CF92DF92EF92FF920F931F93CF93DF93A4
:10203000CDB7DEB72C970FB6F894DEBF0FBECDBF7D
:102040004C01C982DA82EB82FC820D831E834987B0
:102050005A873A2C0D811E81FC01618172818B812E
:102060009C81681B790B77FF03C07195619571099D
:10207000882777FD8095982F0E94B923F40123814A
:102080003481458156810E946D242B013C01898554
:102090009A8597FD0196BC0175956795600F711F34
:1020A000882777FD8095982F0E94B923F401278116
:1020B0003085418552850E946D244B015C01A3014E
:1020C00092010E94B5226B017C01332009F445C0C6
:1020D0006CE173E087E594E00E947C2069817A815D
:1020E0004AE050E087E594E00E94992166E173E0C0
:1020F00087E594E00E947C204AE050E0B80187E543
:1021000094E00E9499216BE073E087E594E00E94DF
:102110007C2022E030E0B301A20187E594E00E9438
:10212000A0226EEF72E087E594E00E947C2022E01E
:1021300030E0B501A40187E594E00E94A02264EF9D
:1021400072E087E594E00E947C2022E030E0B70155
:10215000A60187E594E00E94A222C701B6012C9651
:102160000FB6F894DEBF0FBECDBFDF91CF911F91A8
:102170000F91FF90EF90DF90CF90BF90AF909F9026
:102180008F907F906F905F904F903F900895FC01EB
:1021900080810E94341C83319105B4F0BC018827F2
:1021A00077FD8095982F0E94B9232FED3FE443E9F6
:1021B00051E40E94B5229B01AC016AE979EA86E10B
:1021C00095E40E941E23089560E070EC89E794E492
:1021D0000895EF92FF920F931F93CF93DF93EC013B
:1021E0008C010C5F1F4FC8010E94EF0380E893E051
:1021F0000E94D61642E050E063E070E0C8010E9401
:10220000E304811107C064ED72E087E594E00E9469
:10221000AE20FFCFC8010E9421041D8A1E8A1F8A9A
:10222000188E198A1A8A1B8A1C8A188219821A82A5
:102230001B827E0189E1E80EF11C00E010E0C8017C
:102240000E94C229F70181937F010F5F1F4F0C305D
:102250001105A9F76DEC72E087E594E00E947C20FF
:10226000498D5A8D6B8D7C8D22E030E087E594E0BE
:102270000E94A02264EC72E087E594E00E947C203A
:102280004D8D5E8D6F8D78A122E030E087E594E082
:102290000E94A02264EB72E087E594E00E947C201B
:1022A00049A15AA16BA17CA122E030E087E594E02E
:1022B000DF91CF911F910F91FF90EF900C94A2228C
:1022C000CF92DF92EF92FF92FC0120813181428117
:1022D000538161897289838994890E94B6226B0136
:1022E0007C0120E030E044EB53E40E94692418169E
:1022F00054F420E030E044EB53E4C701B6010E94FF
:10230000B5226B017C0120E030E0A901C701B601D4
:102310000E941A2387FF0AC020E030E044EB53E418
:10232000C701B6010E94B6226B017C01C701B6014C
:10233000FF90EF90DF90CF9008954F925F926F9251
:102340007F928F929F92AF92BF92CF92DF92EF9245
:10235000FF92CF93DF93EC0104960E9439040E9410
:102360007C1BCD88DE88EF88F88C2B013C014C1853
:102370005D086E087F086D8B7E8B8F8B988F6885CC
:102380007985882777FD8095982F0E94B923298D1C
:102390003A8D4B8D5C8D0E94B5226B017C0120E053
:1023A00030E0A9010E94692446015701181624F063
:1023B000B7FAB094B7F8B09420E030E040E450E4CD
:1023C0006D8D7E8D8F8D98A10E946D249B01AC0137
:1023D000C501B4010E941A2387FF03C0C12CD12C70
:1023E0007601C301B2010E94B7239B01AC01C70172
:1023F000B6010E946D2420E034E244E759E40E94D3
:102400001E2329A13AA14BA15CA10E946D24298918
:102410003A894B895C890E94B6226B017C0120E0DD
:1024200030E0A9010E941A2320E030E044EB53E49D
:1024300087FF05C0C701B6010E94B62213C0C701BD
:10244000B6010E94692487FF05C0C98ADA8AEB8A2F
:10245000FC8A0CC020E030E044EB53E4C701B60135
:102460000E94B522698B7A8B8B8B9C8BDF91CF91ED
:10247000FF90EF90DF90CF90BF90AF909F908F90A4
:102480007F906F905F904F900895FC01408351833F
:10249000628373830895CF92DF92EF92FF92FC01E3
:1024A0006130710569F024F4672BC9F480810BC099
:1024B0006230710539F06330710589F4838103C09E
:1024C000818101C082810E94341CBC01882777FD74
:1024D0008095982F0E94B9236B017C0103C0C12C09
:1024E000D12C760120E030E048E951E4C701B60183
:1024F0000E941A2387FD11C02FED3FE443E951E408
:10250000C701B6010E94B5229B01AC016AE979EAD4
:1025100086E195E40E941E2304C060E070EC89E728
:1025200094E4FF90EF90DF90CF9008953F924F9208
:102530005F926F927F928F929F92AF92BF92CF9253
:10254000DF92EF92FF920F931F93CF93DF9300D010
:102550001F92CDB7DEB7AC015B01FC0180AD8111EC
:102560004AC0EE24EA94FE2C6A01F2E0CF0ED11CA0
:10257000C6014A835B830E94470F8C014A815B81BD
:10258000009759F4EF2811F07801F2CF8AE090E03B
:102590000E94C71B80E090E0DFC085352AEA9207E1
:1025A00049F485E5E8168AEAF80671F7FA0112AEF1
:1025B00011AE23C08635FAEA9F0759F425E5E216E5
:1025C0002AEAF20609F781E090E0FA0192AF81AFC2
:1025D00014C08A3AF5E59F07B9F66FE073E087E526
:1025E00094E04A835B830E94C02080E00E94400FF9
:1025F0004A815B81C9CFFA0110AEFA0114AE13AE65
:102600006A01F2E0CF0ED11C6CE0362E8824839450
:10261000912CFA0183AD94AD8A159B0508F09CC0FE
:102620008238910508F098C0C6014A835B830E94F6
:10263000470F8C014A815B81FA0123AD34AD8535AA
:10264000FAEA9F0731F481E0FA0180AF12AE11AED1
:102650000BC08635FAEA9F0749F481E0FA0180AFA2
:1026600081E090E092AF81AFC90176C00097E1F3BD
:10267000FA0185AD96AD8217930798F44E9696AF02
:1026800085AF389EB001399E700D112480819181F3
:102690004A835B830E94A6264A815B81FA0191836B
:1026A0008083FA0123AD34AD329EC001339E900D7C
:1026B0001124E080F180E80EF91E3701412C512CE5
:1026C00020E0FA0181AD92AD892B31F4253021F45F
:1026D000F7011386128612C0C60129834A835B83E1
:1026E0000E94470F480E591EF301819391933F01B9
:1026F00029812F5F4A815B81263019F70415150562
:1027000039F4FA0183AD94AD019694AF83AF0AC05A
:1027100067E173E087E594E04A835B830E94C02011
:102720005B814A81C6014A835B830E94470F4A81CD
:102730005B818535FAEA9F0721F4FA0112AE11AEEA
:1027400068CF86359A4A21F4FA0192AE81AE61CF04
:10275000FA0183AD94AD00C00F900F900F90DF9100
:10276000CF911F910F91FF90EF90DF90CF90BF908E
:10277000AF909F908F907F906F905F904F903F9021
:1027800008952F923F924F925F926F927F928F9215
:102790009F92AF92BF92CF92DF92EF92FF920F93F0
:1027A0001F93CF93DF93CDB7DEB762970FB6F89440
:1027B000DEBF0FBECDBF3C014B018CE0FB01739629
:1027C000D30101900D928A95E1F78B01015E1F4FB5
:1027D00068EE73E0C8010E9496122C0168EE73E067
:1027E000C8010E949612480E591E212C312C1E86BB
:1027F0001D8680EF8F8793E2988BE4E7E98BF9ECF5
:10280000FA8BED85FE85E415F5050CF062C0F40148
:10281000878D90A1820D931DFC01DE0111962CE0A5
:1028200001900D922A95E1F7FC01E080F18006818C
:102830001781A084B184C7010197029708F040C0B6
:102840000A9DB0010B9D700D1A9D700D112480E042
:1028500090E00E94B723F40127853089418952898D
:102860000E946924181664F5CE2CFA82E982202F82
:1028700018870F834A2DBA86A986A12CDA80EB80AF
:10288000FC800D811E8138855A856B857C85C4014D
:102890000E9407107B018C012F85388949895A894C
:1028A0000E94692487FD0CC0FE013196D3018CE0A3
:1028B00001900D928A95E1F7EF86F88A098B1A8BC1
:1028C0008D859E8501969E878D879CE0290E311C03
:1028D00098CFF40123853485458556856F857889A1
:1028E00089899A890E946924181694F4F3018081D9
:1028F00091810197880F991F880D991DFC01E25A5B
:10290000FF4F208131812F5F3F4F3183208308C0EB
:102910008CE0F4017396D30101900D928A95E1F752
:10292000C30162960FB6F894DEBF0FBECDBFDF9134
:10293000CF911F910F91FF90EF90DF90CF90BF90BC
:10294000AF909F908F907F906F905F904F903F904F
:102950002F900895CF93CFB7F89480917F03811182
:1029600027C0E4E0F4E08491EEEBF3E09491E82FEB
:10297000F0E0EE0FFF1FE75BFB4FA591B4918C9148
:10298000892321F461E085E30E94AC1D61E085E3C9
:102990000E94731D8CB580618CBD8CB580648CBD2C
:1029A00061E084E30E94731D61E083E30E94731D74
:1029B00080917F038F5F80937F03CFBFCF91089576
:1029C000DC01ED91FC91119712968D919C911397DA
:1029D0008F71992741E050E060E070E004C0440F3F
:1029E000551F661F771F8A95D2F780819181A2813A
:1029F000B381842B952BA62BB72B80839183A28345
:102A0000B3830895FB014081518162817381FC0190
:102A1000408351836283738308950F931F93CF93F1
:102A2000DF9300D000D0CDB7DEB78C016130E1F08C
:102A300080F0623021F1633009F040C09A838983CD
:102A400087E090E09C838B83CE0101960E94E01486
:102A50002BC0FC0180819181A281B3818F7380831F
:102A60009183A283B3832AC0FC014081518162819A
:102A700073814F77408351836283738315C09A8338
:102A8000898387E090E09C838B83CE0101960E942E
:102A9000E014F80140815181628173814F7B408352
:102AA0005183628373830AC01A83098386E090E0AE
:102AB0009C838B83CE0101960E94E0140F900F90AF
:102AC0000F900F90DF91CF911F910F910895FF927A
:102AD0000F931F93CF93DF9300D000D0CDB7DEB715
:102AE0008C01F62E62FF0BC09A83898385E090E00B
:102AF0009C838B83CE0101960E94E0140AC0FC01E6
:102B000080819181A281B3818F7D80839183A28313
:102B1000B383F1FE0BC01A83098384E090E09C83A9
:102B20008B83CE0101960E94E0140AC0F801408117
:102B30005181628173814F7E4083518362837383AD
:102B4000F0FE0BC01A83098383E090E09C838B83A3
:102B5000CE0101960E94E0140AC0F8014081518123
:102B600062817381477F40835183628373830F90B7
:102B70000F900F900F90DF91CF911F910F91FF90C9
:102B80000895FF920F931F93CF93DF9300D000D04F
:102B9000CDB7DEB78C01F62E62FF0BC09A83898316
:102BA00082E090E09C838B83CE0101960E94E0142A
:102BB0000AC0FC0180819181A281B3818B7F8083D7
:102BC0009183A283B383F1FE0BC01A83098381E052
:102BD00090E09C838B83CE0101960E94E0140AC092
:102BE000F80140815181628173814D7F408351831F
:102BF00062837383F0FE09C01A8309831C821B82DF
:102C0000CE0101960E94E0140AC0F8014081518172
:102C1000628173814E7F40835183628373830F90FF
:102C20000F900F900F90DF91CF911F910F91FF9018
:102C300008950F931F93CF93DF9300D0CDB7DEB7E6
:102C40008C01FC0110821182128213822A83498333
:102C50000E940D154981642FC8010E9467152A81C1
:102C6000622FC8010F900F90DF91CF911F910F91AC
:102C70000C94C11520E040E061E00C94191680919D
:102C8000B00390E02091B103821B91090895209137
:102C9000B1038091B003281750F4E22FF0E0EE5416
:102CA000FC4F808190E02F5F2093B10308958FEF58
:102CB0009FEF0895E091B1038091B003E81730F4DD
:102CC000F0E0EE54FC4F808190E008958FEF9FEF8D
:102CD00008950895CF92DF92EF92FF920F931F9382
:102CE000CF93DF937C01CB018A0120918C032223B7
:102CF00089F0EB016B01C40ED51ECC15DD0569F022
:102D00006991D701ED91FC910190F081E02DC7010F
:102D10000995F3CF642F0E94C917C801DF91CF91A5
:102D20001F910F91FF90EF90DF90CF900895CF9378
:102D3000DF931F92CDB7DEB7698320918C032223E6
:102D4000D1F020918D03203240F021E030E0FC01F1
:102D50003383228380E090E015C080918E03E82FBA
:102D6000F0E0E157FC4F998190838F5F80938E0351
:102D700080938D0305C061E0CE0101960E94C917C2
:102D800081E090E00F90DF91CF910895FC011382D4
:102D9000128248EE53E060E070E04483558366831E
:102DA000778384E293E09183808308951092B10346
:102DB0001092B00310928E0310928D030C9414178E
:102DC000862F413208F040E262EB73E00E94321736
:102DD0001092B1038093B003089521E00C94E016A3
:102DE00081E080938C036093AF0310928E03109266
:102DF0008D0308950F93062F21E040918D036FE816
:102E000073E08091AF030E94761710928E031092A8
:102E10008D0310928C030F91089561E00C94FA16C3
:102E200080E893E00C94C61610923F0481E08093F2
:102E30003D0410923C0461E084E10E94AC1D61E01D
:102E400085E10E94AC1DE9EBF0E080818E7F8083FC
:102E500080818D7F808388E48093B80085E48093AF
:102E6000BC000895413208F03FC090913F04911199
:102E7000FCCF91E090933F0420933D042FEF2093EB
:102E8000D20310921704240F2093160490933E044B
:102E900090913E04880F892B80933E0480913C04DE
:102EA000813041F410923C0480913E048093BB0039
:102EB00085EC01C085EE8093BC0080913F04813099
:102EC000E1F380911704841710F44091170428E16E
:102ED00034E0FB01D9018A2F821B841718F48D91ED
:102EE0008193F9CF842F089580E008950F934132A4
:102EF00008F046C090913F049111FCCF92E090936E
:102F00003F0400933D049FEF9093D2031092170467
:102F100040931604FB0168E174E0DB019A2F961BD5
:102F2000941718F491919D93F9CF10923E049091CB
:102F30003E04880F892B80933E0480913C048130AD
:102F400041F410923C0480913E048093BB0085ECD8
:102F500001C085EE8093BC00222321F080913F04C4
:102F60008230E1F38091D2038F3F61F08091D203F0
:102F7000803251F08091D203803341F483E007C066
:102F800081E005C080E003C082E001C084E00F91D1
:102F90000895613298F420913F04243089F46093BD
:102FA000F403FC0186EF93E0DC012A2F281B26178F
:102FB00018F421912D93F9CF80E0089581E00895D0
:102FC00082E0089585ED8093BC008091BC0084FD73
:102FD000FCCF10923F04089585EC8093BC001092C2
:102FE0003F0408951F920F920FB60F9211240BB653
:102FF0000F922F933F934F935F936F937F938F9392
:103000009F93AF93BF93EF93FF938091B900887F15
:10301000803609F49CC068F5883209F45BC090F4EE
:10302000803109F454C038F4882309F4F5C088309D
:1030300009F44DC0F5C0883109F44CC0803209F460
:103040005DC0EEC0803409F468C048F4803309F4F0
:1030500055C0883309F0E4C08093D203A8C08035FE
:1030600009F44FC0883509F45DC0883409F0D8C030
:10307000D5C0883909F4C6C0A8F4883709F467C0F8
:1030800038F4883609F463C0803709F460C0C8C0DA
:10309000883809F4B7C0803909F45FC0803809F076
:1030A000BFC05BC0803B09F485C038F4803A09F4A6
:1030B00066C0883A09F47EC0B3C0803C09F4A6C05B
:1030C000883C09F4A3C0883B09F489C0A9C0809159
:1030D0003E0410C09091170480911604981770F563
:1030E000E091170481E08E0F80931704F0E0E85E12
:1030F000FB4F80818093BB0085EC85C08093D20319
:103100008DC0E091170481E08E0F809317048091A9
:10311000BB00F0E0E85EFB4F808390911704809144
:1031200016046DC0E091170481E08E0F80931704A0
:103130008091BB00F0E0E85EFB4F808380913D040E
:1031400081116CC081E080933C0484EA60C083E01C
:1031500080933F041092D303CFCF8091D30380326A
:1031600008F050C0E091D30381E08E0F8093D30329
:103170008091BB00F0E0EC52FC4F8083BDCF80918A
:10318000D303803230F4E091D303F0E0EC52FC4FF3
:1031900010820E94E2176091D30370E0E09138043E
:1031A000F091390484ED93E009951092D3030E94C5
:1031B000EC1736C084E080933F041092F503109220
:1031C000F403E0913A04F0913B0409958091F403F3
:1031D000811105C081E08093F4031092F603E09121
:1031E000F50381E08E0F8093F503F0E0EA50FC4F89
:1031F00080818093BB009091F5038091F403981730
:1032000008F47ACF85E88093BC000AC085EC8093EF
:10321000BC0010923F0404C01092D2030E94E21737
:10322000FF91EF91BF91AF919F918F917F916F919E
:103230005F914F913F912F910F900BBE0F900FBE5A
:103240000F901F9018952F923F925F926F927F92EE
:103250008F929F92AF92BF92CF92DF92EF92FF92A6
:103260000F931F93CF93DF93CDB7DEB7CC56D10921
:103270000FB6F894DEBF0FBECDBF20904C04309047
:103280004D048090460490904704A0904404B09070
:103290004504C0904204D0904304E0904A04F0906A
:1032A0004B048091480490914904AD969FAF8EAF36
:1032B000AD9780E1E6E1F2E0DE01D79601900D9254
:1032C0008A95E1F788E0E6E2F2E0DE01AD59BF4F12
:1032D00001900D928A95E1F783E1EEE2F2E0DE01E2
:1032E000549601900D928A95E1F726E040E855E268
:1032F00060E070E087E594E00E941D1F8091080265
:1033000090E0FC013197EF30F105B0F4EF57FF4F3B
:103310000C9461256CE1562E23C059E1552E20C036
:10332000552453941DC044E0542E1AC03EE3532E3E
:1033300017C02BE3522E14C063E273E087E594E0DC
:103340000E947C204AE050E06091080287E594E00A
:103350000E948221FFCF9FE3592E02C088E0582EA1
:10336000852D807209F455C06D969FAE8EAE6D9717
:103370006F96BFAEAEAE6F97A196FFAEEEAEA197C1
:10338000A396DFAECEAEA39780E1FE01F796DE01F5
:10339000979601900D928A95E1F781E290E00E9464
:1033A0003C203C018DB79EB740970FB6F8949EBF66
:1033B0000FBE8DBFADB7BEB7119680E1FE01B796C7
:1033C00001900D928A95E1F76C960FAD6C976D9612
:1033D0001FAD6D976E962FAD6E976F963FAD6F9741
:1033E000A0964FADA097A1965FADA197A2966FADA5
:1033F000A297A3967FADA397C3010E947802709213
:103400004D0460924C040FB6F894DEBF0FBECDBFE2
:1034100004C010924D0410924C0454FE16C08BE16F
:1034200090E00E943C203C012091480430914904E6
:10343000409142045091430465E074E60E944606C0
:1034400070924B0460924A0404C010924B04109294
:103450004A0453FE2FC088E0FE01ED59FF4FDE0104
:10346000AD5ABF4F01900D928A95E1F788E090E048
:103470000E943C203C0164960FAD649765961FAD99
:10348000659766962FAD669767963FAD6797689686
:103490004FAD689769965FAD69976A966FAD6A9709
:1034A0006B967FAD6B970E94700570924904609295
:1034B000480404C0109249041092480450FE2DC0E4
:1034C00083E1FE017496DE01119601900D928A95BA
:1034D000E1F783E690E00E943C203C018DB79EB767
:1034E00043970FB6F8949EBF0FBE8DBFADB7BEB762
:1034F000119683E1FE01319601900D928A95E1F7D4
:10350000C3010E948F0F70924704609246040FB669
:10351000F894DEBF0FBECDBF04C0109247041092D6
:10352000460451FE10C084E090E00E943C203C0123
:1035300041E052E063E074E00E944512709245045D
:103540006092440404C0109245041092440452FE58
:103550000CC085E290E00E943C203C010E94E910F2
:10356000709243046092420404C01092430410928B
:10357000420429963FAE2EAE29972B969FAE8EAE73
:103580002B972D96BFAEAEAE2D972F96DFAECEAE5B
:103590002F976196FFAEEEAE6197AD968EAD9FAD63
:1035A000AD9763969FAF8EAF63978FE090E00E94D8
:1035B0003C203C0128968FAC289729969FAC2997F0
:1035C0002A96AFAC2A972B96BFAC2B972C96CFACF4
:1035D0002C972D96DFAC2D972E96EFAC2E972F962D
:1035E000FFAC2F9760960FAD609761961FAD619706
:1035F00062962FAD629763963FAD639745E4609105
:1036000008020E9450097092410460924004C4591B
:10361000DF4F0FB6F894DEBF0FBECDBFDF91CF9165
:103620001F910F91FF90EF90DF90CF90BF90AF90E0
:103630009F908F907F906F905F903F902F90089514
:1036400080914004909141040C94E10E1F920F92DE
:103650000FB60F9211242F933F938F939F93AF93A5
:10366000BF9380914F0490915004A0915104B09168
:10367000520430914E0423E0230F2D3720F401969D
:10368000A11DB11D05C026E8230F0296A11DB11D85
:1036900020934E0480934F0490935004A0935104C0
:1036A000B09352048091530490915404A091550416
:1036B000B09156040196A11DB11D809353049093BF
:1036C0005404A0935504B0935604BF91AF919F91B9
:1036D0008F913F912F910F900FBE0F901F901895D3
:1036E0002FB7F89460914F04709150048091510469
:1036F000909152042FBF08953FB7F89480915304DE
:1037000090915404A0915504B091560426B5A89BFD
:1037100005C02F3F19F00196A11DB11D3FBF6627BF
:10372000782F892F9A2F620F711D811D911D42E004
:10373000660F771F881F991F4A95D1F70895CF927A
:10374000DF92EF92FF92CF93DF936B017C010E9497
:103750007C1BEB01C114D104E104F10489F00E9447
:10376000B4220E947C1B6C1B7D0B683E734090F35F
:1037700081E0C81AD108E108F108C851DC4FEACF4E
:10378000DF91CF91FF90EF90DF90CF90089582303E
:10379000910538F0880F991F880F991F0597019799
:1037A000F1F70895789484B5826084BD84B5816012
:1037B00084BD85B5826085BD85B5816085BDEEE639
:1037C000F0E0808181608083E1E8F0E01082808118
:1037D00082608083808181608083E0E8F0E0808186
:1037E00081608083E1EBF0E0808184608083E0EBA6
:1037F000F0E0808181608083E1E9F0E08081826097
:103800008083808181608083E0E9F0E08081816055
:103810008083E1EAF0E08081826080838081816042
:103820008083E0EAF0E0808181608083E1E2F1E082
:10383000808182608083808181608083E0E2F1E02A
:10384000808181608083EAE7F0E08081846080830A
:1038500080818260808380818160808380818068B4
:1038600080831092C1000895863308F0865320911A
:103870007B00982F9870277F922B90937B00877006
:103880002091090290E4299F90011124822B8093BA
:103890007C0080917A00806480937A0080917A0025
:1038A00086FDFCCF809178002091790090E0922BEA
:1038B00008951F93CF93DF93182FEB0161E00E94CF
:1038C000731D209711F460E004C0CF3FD10539F497
:1038D00061E0812FDF91CF911F910C94AC1DE12FFE
:1038E000F0E0ED5BFC4F449150E0FA013197E2319A
:1038F000F10508F09BC0E057FF4F0C94612584B59B
:10390000806884BDC7BD97C084B5806284BDC8BDD2
:1039100092C080918000806880938000D09389005D
:10392000C093880088C0809180008062809380006E
:10393000D0938B00C0938A007EC080918000886005
:1039400080938000D0938D00C0938C0074C08091D0
:10395000B00080688093B000C093B3006CC08091C9
:10396000B00080628093B000C093B40064C08091C6
:103970009000806880939000D0939900C093980045
:103980005AC080919000806280939000D0939B00F9
:10399000C0939A0050C080919000886080939000FE
:1039A000D0939D00C0939C0046C08091A000806889
:1039B0008093A0008091A0008F7B8093A000D09383
:1039C000A900C093A80037C08091A00080628093B6
:1039D000A000D093AB00C093AA002DC08091A0009E
:1039E00088608093A000D093AD00C093AC0023C04A
:1039F00080912001806880932001D0932901C09399
:103A0000280119C080912001806280932001D09309
:103A10002B01C0932A010FC0809120018860809300
:103A20002001D0932D01C0932C0105C0C038D105D1
:103A30000CF04ECF48CFDF91CF911F91089590E0C9
:103A4000FC013197E231F10508F04CC0EE55FF4F13
:103A50000C946125809180008F7703C08091800055
:103A60008F7D80938000089580918000877FF9CFBB
:103A700084B58F7702C084B58F7D84BD0895809111
:103A8000B0008F7703C08091B0008F7D8093B0002D
:103A90000895809190008F7707C0809190008F7D6E
:103AA00003C080919000877F80939000089580915B
:103AB000A0008F7707C08091A0008F7D03C0809108
:103AC000A000877F8093A0000895809120018F77C8
:103AD00007C0809120018F7D03C080912001877FE6
:103AE000809320010895CF93DF9390E0FC01E75786
:103AF000FC4F2491FC01E153FC4F8491882349F150
:103B000090E0880F991FFC01E75BFB4FA591B491F2
:103B1000815D9B4FFC01C591D4919FB7611108C095
:103B2000F8948C91209582238C93888182230AC0FB
:103B3000623051F4F8948C91322F309583238C931A
:103B40008881822B888304C0F8948C91822B8C937B
:103B50009FBFDF91CF9108950F931F93CF93DF9372
:103B60001F92CDB7DEB7282F30E0F901ED5BFC4F97
:103B70008491F901E757FC4F1491F901E153FC4F8F
:103B800004910023C9F0882321F069830E941F1D3E
:103B90006981E02FF0E0EE0FFF1FE15DFB4FA59183
:103BA000B4919FB7F8948C91611103C01095812353
:103BB00001C0812B8C939FBF0F90DF91CF911F91FC
:103BC0000F910895CF93DF93282F30E0F901ED5B3B
:103BD000FC4F8491F901E757FC4FD491F901E1536F
:103BE000FC4FC491CC2391F081110E941F1DEC2F3A
:103BF000F0E0EE0FFF1FEB5EFB4FA591B4912C910F
:103C00002D2381E090E021F480E002C080E090E08C
:103C1000DF91CF910895FC01818D228D90E0805C31
:103C20009F4F821B91098F7399270895FC01918DF5
:103C3000828D981731F0828DE80FF11D858D90E00F
:103C400008958FEF9FEF0895FC01918D828D981755
:103C500061F0828DDF01A80FB11D5D968C91928D70
:103C60009F5F9F73928F90E008958FEF9FEF08956D
:103C70008FED9FE1892B41F080E090E0892B21F0CE
:103C80000E94DF1F811125C080E090E0892B41F068
:103C900080E090E0892B21F00E94000081111CC07F
:103CA00080E090E0892B41F080E090E0892B21F0CA
:103CB0000E940000811113C080E090E0892BA1F0E8
:103CC00080E090E0892B81F00E94000081110AC001
:103CD00008950E940000D8CF0E940000E1CF0E940A
:103CE0000000EACF0C9400000895FC01848DDF01F0
:103CF000A80FB11DA35ABF4F2C91848D90E001965F
:103D00008F739927848FA689B7892C93A089B1894D
:103D10008C9180648C93938D848D981306C0028857
:103D2000F389E02D80818F7D80830895CF93DF9389
:103D3000EC01888D8823C9F0EA89FB89808185FDA3
:103D400005C0A889B9898C9186FD0FC00FB607FC04
:103D5000F5CF808185FFF2CFA889B9898C9185FF45
:103D6000EDCFCE010E94751EE7CFDF91CF91089570
:103D7000CF92DF92FF920F931F93CF93DF931F9207
:103D8000CDB7DEB76C0181E0D60158968C93589779
:103D90005B969C915B975C968C915C97981307C09F
:103DA0005096ED91FC915197808185FD2EC0F601D2
:103DB000038D10E00F5F1F4F0F731127F02EF601D8
:103DC000848DF81211C00FB607FCF9CFD6015096BA
:103DD000ED91FC915197808185FFF1CFC6016983F8
:103DE0000E94751E6981EBCF838DE80FF11DE35AA8
:103DF000FF4F6083D6015B960C935B975296ED91D3
:103E0000FC915397808180620CC0D6015696ED914B
:103E1000FC91579760835096ED91FC91519780816A
:103E20008064808381E090E00F90DF91CF911F91BB
:103E30000F91FF90DF90CF900895BF92CF92DF92C5
:103E4000EF92FF92CF93DF93EC016A017B01B22ED8
:103E5000E889F98982E08083411581EE5807610580
:103E60007105A1F060E079E08DE390E0A701960193
:103E70000E943F2521503109410951095695479526
:103E800037952795211580E1380798F0E889F98959
:103E9000108260E874E88EE190E0A70196010E942C
:103EA0003F252150310941095109569547953795CC
:103EB0002795EC85FD853083EE85FF852083188E60
:103EC000EC89FD89B082EA89FB89808180618083E9
:103ED000EA89FB89808188608083EA89FB89808107
:103EE00080688083EA89FB8980818F7D8083DF9170
:103EF000CF91FF90EF90DF90CF90BF9008951F92E9
:103F00000F920FB60F9211240BB60F922F938F932F
:103F10009F93EF93FF93E0916704F0916804808191
:103F2000E0916D04F0916E0482FD12C09081809149
:103F300070048F5F8F7320917104821751F0E091AC
:103F40007004F0E0E95AFB4F958F8093700401C034
:103F50008081FF91EF919F918F912F910F900BBED8
:103F60000F900FBE0F901F9018951F920F920FB6D3
:103F70000F9211240BB60F922F933F934F935F93A1
:103F80006F937F938F939F93AF93BF93EF93FF9321
:103F900087E594E00E94751EFF91EF91BF91AF916C
:103FA0009F918F917F916F915F914F913F912F9151
:103FB0000F900BBE0F900FBE0F901F90189587E5C6
:103FC00094E00E940B1E21E0892B09F420E0822F4F
:103FD000089510925A041092590488EE93E0A0E0DC
:103FE000B0E080935B0490935C04A0935D04B09375
:103FF0005E0484E393E0909358048093570485EC27
:1040000090E0909364048093630484EC90E0909338
:1040100066048093650480EC90E09093680480933C
:10402000670481EC90E090936A048093690482ECC9
:1040300090E090936C0480936B0486EC90E09093F6
:104040006E0480936D0410927004109271041092AB
:10405000720410927304089508950E94D21B0E9466
:104060002C200E942319C8E3DEE10E94201B209728
:10407000E1F30E94381EF9CF0C947F25CF92DF9296
:10408000EF92FF920F931F93CF93DF936C017A010E
:10409000EB01E60EF71E00E010E0CE15DF0561F043
:1040A0006991D601ED91FC910190F081E02DC6015E
:1040B0000995080F191FF1CFC801DF91CF911F910A
:1040C0000F91FF90EF90DF90CF90089561157105EB
:1040D00081F0DB010D900020E9F7AD01415051095D
:1040E000461B570BDC01ED91FC910280F381E02D22
:1040F000099480E090E00895EF92FF920F931F9350
:10410000CF93DF938C01FB01C0E0D0E064917F018D
:104110008FEFE81AF80A662361F0D801ED91FC915F
:104120000190F081E02DC8010995C80FD91FF70152
:10413000EDCFCE01DF91CF911F910F91FF90EF90C6
:1041400008950C946620DC01ED91FC910190F081C2
:10415000E02D099460E473E00C9466200F931F93A4
:10416000CF93DF93EC010E947C208C01CE010E9452
:10417000AA20800F911FDF91CF911F910F91089579
:104180000F931F93CF93DF93EC010E9466208C0165
:10419000CE010E94AA20800F911FDF91CF911F9125
:1041A0000F9108958F929F92AF92BF92CF92DF921C
:1041B000EF92FF920F931F93CF93DF93CDB7DEB7AC
:1041C000A1970FB6F894DEBF0FBECDBF7C01C42E01
:1041D000E52FCB01D22E19A221E02D1510F02AE0F7
:1041E000D22E8E010F5D1F4F8D2C912CA12CB12C46
:1041F0006C2D7E2FA50194010E943F258C2DD29E0F
:1042000080191124015011098A3014F4805D01C015
:10421000895CF8018083211531054105510521F0A4
:10422000C22EE32FCA01E4CFB801C7010E94662065
:10423000A1960FB6F894DEBF0FBECDBFDF91CF9130
:104240001F910F91FF90EF90DF90CF90BF90AF90B4
:104250009F908F900895CF92DF92EF92FF920F93ED
:104260001F93CF93DF93EC016A017B012115310588
:1042700079F4E881F9810190F081E02D642FDF91DC
:10428000CF911F910F91FF90EF90DF90CF90099405
:104290002A303105E9F477FF1AC06DE20E94A320AD
:1042A0008C0144275527BA014C195D096E097F0915
:1042B0002AE0CE010E94D220800F911FDF91CF9182
:1042C0001F910F91FF90EF90DF90CF9008952AE01B
:1042D000B701A601CE01DF91CF911F910F91FF9001
:1042E000EF90DF90CF900C94D2202115310541F44E
:1042F000DC01ED91FC910190F081E02D642F099497
:104300000C94D2200F931F93CF93DF93EC019A016B
:10431000462F50E060E070E00E9475218C01CE01D4
:104320000E94AA20800F911FDF91CF911F910F91C2
:1043300008959A01AB0160E070E00C9475210F9331
:104340001F93CF93DF93EC019A01AB0160E070E023
:104350000E9475218C01CE010E94AA20800F911F1E
:10436000DF91CF911F910F9108954F925F926F92BD
:104370007F928F929F92AF92BF92CF92DF92EF92F5
:10438000FF920F931F93CF93DF93EC016A017B01A0
:10439000B22E9A01AB01C701B6010E9412258823F3
:1043A00019F063E473E027C026013701E89477F839
:1043B0002FEF3FEF4FE75FE7C301B2010E941225E5
:1043C00081110DC02FEF3FEF4FE75FE7C301B2014F
:1043D0000E941A2318161CF467E473E00CC02FEF38
:1043E0003FEF4FE75FE4C701B6010E94692418164A
:1043F000ACF46BE473E0CE01DF91CF911F910F918C
:10440000FF90EF90DF90CF90BF90AF909F908F90F4
:104410007F906F905F904F900C9466202FEF3FEF4E
:104420004FE75FECC701B6010E941A2387FDE1CF79
:1044300020E030E0A901C701B6010E941A2387FFDE
:104440000AC06DE2CE010E94A3208C01F7FAF0941D
:10445000F7F8F09402C000E010E0A12C60E070E0FA
:1044600080E09FE3AB1441F020E030E040E251E413
:104470000E941E23A394F6CF9B01AC01C701B60195
:104480000E94B6226B017C010E948B232B013C0110
:104490000E94B7239B01AC01C701B6010E94B5225F
:1044A0006B017C012AE0B301A201CE010E94D2205F
:1044B000080F191FBB2039F06AE073E0CE010E949B
:1044C0006620080F191F7B2C772041F120E030E097
:1044D00040E251E4C701B6010E946D246B017C01EA
:1044E0000E9486234B01AA2497FCA094BA2C2AE0B0
:1044F00030E0B501A401CE010E942B21080F191F45
:10450000C501B4010E94B9239B01AC01C701B601EA
:104510000E94B5226B017C017A94D6CFC801DF914D
:10452000CF911F910F91FF90EF90DF90CF90BF90B0
:10453000AF909F908F907F906F905F904F90089575
:104540000C94B5210F931F93CF93DF93EC010E943E
:10455000B5218C01CE010E94AA20800F911FDF910E
:10456000CF911F910F91089508955058BB27AA2706
:104570000ED075C166D130F06BD120F031F49F3F81
:1045800011F41EF45BC10EF4E095E7FB51C1E92F75
:1045900077D180F3BA17620773078407950718F07D
:1045A00071F49EF58FC10EF4E0950B2EBA2FA02D5D
:1045B0000B01B90190010C01CA01A0011124FF27D0
:1045C000591B99F0593F50F4503E68F11A16F040CB
:1045D000A22F232F342F4427585FF3CF46953795CA
:1045E0002795A795F0405395C9F77EF41F16BA0B8F
:1045F000620B730B840BBAF09150A1F0FF0FBB1F3D
:10460000661F771F881FC2F70EC0BA0F621F731F85
:10461000841F48F4879577956795B795F7959E3FE2
:1046200008F0B3CF9395880F08F09927EE0F979570
:1046300087950895D9D008F481E008950CD00FC172
:1046400007D140F0FED030F021F45F3F19F0F0C008
:10465000511139C1F3C014D198F39923C9F35523EB
:10466000B1F3951B550BBB27AA2762177307840765
:1046700038F09F5F5F4F220F331F441FAA1FA9F31B
:1046800033D00E2E3AF0E0E830D091505040E6950D
:10469000001CCAF729D0FE2F27D0660F771F881F6E
:1046A000BB1F261737074807AB07B0E809F0BB0B5D
:1046B000802DBF01FF2793585F4F2AF09E3F510581
:1046C00068F0B6C000C15F3FECF3983EDCF386951E
:1046D00077956795B795F7959F5FC9F7880F911DF7
:1046E0009695879597F90895E1E0660F771F881FE3
:1046F000BB1F621773078407BA0720F0621B730B96
:10470000840BBA0BEE1F88F7E095089504D06894E7
:10471000B111D9C00895BCD088F09F5790F0B92F3F
:104720009927B751A0F0D1F0660F771F881F991F06
:104730001AF0BA95C9F712C0B13081F0C3D0B1E018
:104740000895C0C0672F782F8827B85F39F0B93F28
:10475000CCF3869577956795B395D9F73EF4909508
:104760008095709561957F4F8F4F9F4F0895E89486
:1047700009C097FB3EF490958095709561957F4FA9
:104780008F4F9F4F9923A9F0F92F96E9BB27939557
:10479000F695879577956795B795F111F8CFFAF467
:1047A000BB0F11F460FF1BC06F5F7F4F8F4F9F4F98
:1047B00016C0882311F096E911C0772321F09EE8F6
:1047C000872F762F05C0662371F096E8862F70E05C
:1047D00060E02AF09A95660F771F881FDAF7880F36
:1047E0009695879597F90895990F0008550FAA0B8C
:1047F000E0E8FEEF16161706E807F907C0F01216F4
:104800001306E407F50798F0621B730B840B950BF6
:1048100039F40A2661F0232B242B252B21F408954B
:104820000A2609F4A140A6958FEF811D811D0895E8
:1048300097F99F6780E870E060E008959FEF80EC53
:10484000089500240A9416161706180609060895F6
:1048500000240A9412161306140605060895092E5C
:104860000394000C11F4882352F0BB0F40F4BF2BCB
:1048700011F460FF04C06F5F7F4F8F4F9F4F08950B
:1048800057FD9058440F551F59F05F3F71F0479501
:10489000880F97FB991F61F09F3F79F087950895E6
:1048A000121613061406551FF2CF4695F1DF08C005
:1048B000161617061806991FF1CF86957105610522
:1048C00008940895E894BB2766277727CB0197F9CA
:1048D00008958ADF08F48FEF08950BD0C0CFB1DFC1
:1048E00028F0B6DF18F0952309F0A2CFA7CF112446
:1048F000EACFC6DFA0F3959FD1F3950F50E0551F87
:10490000629FF001729FBB27F00DB11D639FAA2724
:10491000F00DB11DAA1F649F6627B00DA11D661F73
:10492000829F2227B00DA11D621F739FB00DA11D94
:10493000621F839FA00D611D221F749F3327A00D4E
:10494000611D231F849F600D211D822F762F6A2FEA
:1049500011249F5750408AF0E1F088234AF0EE0F6F
:10496000FF1FBB1F661F771F881F91505040A9F77C
:104970009E3F510570F05CCFA6CF5F3FECF3983EB1
:10498000DCF3869577956795B795F795E7959F5FE3
:10499000C1F7FE2B880F911D9695879597F908957D
:1049A00011F40EF44BCF42C073DFD0F39923D9F347
:1049B000CEF39F57550B87FF47D00024A0E640EA6F
:1049C000900180585695979528F4805C660F771F64
:1049D000881F20F026173707480730F4621B730B37
:1049E000840B202931294A2BA6951794079420255A
:1049F00031254A2758F7660F771F881F20F02617A2
:104A00003707480730F4620B730B840B200D311D00
:104A1000411DA09581F7B901842F9158880F969573
:104A200087950895E1DE880B990B08959F3F31F03B
:104A3000915020F4879577956795B795880F911DCC
:104A40009695879597F9089591505040660F771F76
:104A5000881FD2F7089597FB072E16F4009407D00D
:104A600077FD09D00E946B2507FC05D03EF4909598
:104A700081959F4F0895709561957F4F0895A1E2AC
:104A80001A2EAA1BBB1BFD010DC0AA1FBB1FEE1FC8
:104A9000FF1FA217B307E407F50720F0A21BB30B13
:104AA000E40BF50B661F771F881F991F1A9469F78F
:104AB00060957095809590959B01AC01BD01CF01EB
:104AC0000895EE0FFF1F0590F491E02D09940790D3
:104AD000F691E02D0994AA1BBB1B51E107C0AA1F48
:104AE000BB1FA617B70710F0A61BB70B881F991F8F
:104AF0005A95A9F780959095BC01CD010895CF9363
:104B0000DF938230910510F482E090E0E091F604AA
:104B1000F091F70420E030E0A0E0B0E0309739F108
:104B20004081518148175907B8F04817590771F467
:104B300082819381109729F013969C938E931297FC
:104B40002CC09093F7048093F60427C021153105FB
:104B500031F04217530718F0A901DB0101C0EF0142
:104B60009A01BD01DF010280F381E02DD7CF21152D
:104B70003105F9F0281B390B2430310580F48A8186
:104B80009B816115710521F0FB019383828304C031
:104B90009093F7048093F604FE01329644C0FE0120
:104BA000E20FF31F819391932250310939832883B7
:104BB0003AC02091F4043091F504232B41F4209164
:104BC0000202309103023093F5042093F404209103
:104BD0000002309101022115310541F42DB73EB795
:104BE0004091040250910502241B350BE091F4041E
:104BF000F091F504E217F307A0F42E1B3F0B2817E2
:104C0000390778F0AC014E5F5F4F2417350748F045
:104C10004E0F5F1F5093F5044093F40481939193DA
:104C200002C0E0E0F0E0CF01DF91CF910895CF9393
:104C3000DF93009709F487C0FC0132971382128238
:104C4000C091F604D091F704209781F4208131813E
:104C5000280F391F8091F4049091F504821793076F
:104C600079F5F093F504E093F4046DC0DE0120E0E3
:104C700030E0AE17BF0750F412964D915C91139738
:104C80009D014115510509F1DA01F3CFB383A283E8
:104C900040815181840F951F8A179B0771F48D9174
:104CA0009C911197840F951F029691838083129691
:104CB0008D919C911397938382832115310529F45B
:104CC000F093F704E093F6043EC0D9011396FC93E9
:104CD000EE9312974D915D91A40FB51FEA17FB0754
:104CE00079F480819181840F951F0296D9011196E4
:104CF0009C938E938281938113969C938E931297AB
:104D0000E0E0F0E08A819B81009719F0FE01EC0160
:104D1000F9CFCE01029628813981820F931F20910D
:104D2000F4043091F5042817390769F4309729F411
:104D30001092F7041092F60402C013821282D093EC
:104D4000F504C093F404DF91CF9108956F927F92A0
:104D50008F929F92AF92BF92CF92DF92EF92FF928B
:104D60000F931F93CF93DF93EC01CB01209781F436
:104D7000DF91CF911F910F91FF90EF90DF90CF9037
:104D8000BF90AF909F908F907F906F900C947F25F5
:104D9000FE01E60FF71F9E0122503109E217F307CB
:104DA00008F4ACC0D9010D911C9111970617170793
:104DB000B8F00530110508F49FC0A801445051090E
:104DC0004617570708F498C002501109061B170B25
:104DD000019311936D937C93CF010E9417268CC091
:104DE0005B01A01AB10A4E01800E911EA091F6043B
:104DF000B091F704612C712C60E070E0109709F419
:104E000049C0A815B905C9F5ED90FC901197670147
:104E100042E0C40ED11CCA14DB0478F147018A18A1
:104E20009B08640142E0C40ED11C1296BC901297FC
:104E30001396AC91B5E0CB16D10440F0B282A383B7
:104E400091828082D9018D939C9309C00E5F1F4F80
:104E50000E0D1F1DF90111830083EB2DFA2F611533
:104E6000710531F0DB011396FC93EE93129744C069
:104E7000F093F704E093F6043FC06D917C91119795
:104E80006616770608F43B01BD0112960D90BC91A1
:104E9000A02DB4CF6091F4047091F50468157905E4
:104EA000E9F468167906D0F44091000250910102AD
:104EB0004115510541F44DB75EB760910402709100
:104EC0000502461B570BE417F507C0F4F093F504F1
:104ED000E093F404F901918380830EC00E947F2542
:104EE0007C01009759F0A801BE010E948F27CE01D6
:104EF0000E941726C70104C0CE0102C080E090E0E6
:104F0000DF91CF911F910F91FF90EF90DF90CF90A5
:104F1000BF90AF909F908F907F906F900895FB010E
:104F2000DC0102C001900D9241505040D8F7089525
:104F30000F931F93CF93DF93CDB7DEB72E970FB6A6
:104F4000F894DEBF0FBECDBF0D891E8986E08C832D
:104F50001A8309838FEF9FE79E838D83AE01475E9F
:104F60005F4F6F89788DCE0101960E94C727EF8130
:104F7000F885E00FF11F10822E960FB6F894DEBF71
:104F80000FBECDBFDF91CF911F910F9108952F924A
:104F90003F924F925F926F927F928F929F92AF92C9
:104FA000BF92CF92DF92EF92FF920F931F93CF9316
:104FB000DF93CDB7DEB72C970FB6F894DEBF0FBEE8
:104FC000CDBF7C016B018A01FC01178216828381AF
:104FD00081FFBDC1CE0101964C01F7019381F6011D
:104FE00093FD859193FF81916F01882309F4ABC1F3
:104FF000853239F493FD859193FF81916F0185325C
:1050000029F4B70190E00E94EE29E7CF512C312C12
:1050100020E02032A0F48B3269F030F4803259F075
:10502000833269F420612CC08D3239F0803339F439
:10503000216026C02260246023C0286021C027FD93
:1050400027C030ED380F3A3078F426FF06C0FAE07A
:105050005F9E300D1124532E13C08AE0389E300D10
:105060001124332E20620CC08E3221F426FD6BC138
:10507000206406C08C3611F4206802C0883641F4E2
:10508000F60193FD859193FF81916F018111C1CF4D
:10509000982F9F7D9554933028F40C5F1F4FFFE3AA
:1050A000F9830DC0833631F0833771F0833509F011
:1050B0005BC022C0F801808189830E5F1F4F4424AA
:1050C0004394512C540115C03801F2E06F0E711C4D
:1050D000F801A080B18026FF03C0652D70E002C0FA
:1050E0006FEF7FEFC5012C870E94E3292C0183011C
:1050F0002C852F77222E17C03801F2E06F0E711C1D
:10510000F801A080B18026FF03C0652D70E002C0C9
:105110006FEF7FEFC5012C870E94D8292C012C85C9
:105120002068222E830123FC1BC0832D90E04816AB
:105130005906B0F4B70180E290E00E94EE293A945B
:10514000F4CFF50127FC859127FE81915F01B7011E
:1051500090E00E94EE2931103A94F1E04F1A510884
:105160004114510471F7E5C0843611F0893639F5E0
:10517000F80127FF07C060817181828193810C5FF4
:105180001F4F08C060817181882777FD8095982F17
:105190000E5F1F4F2F76B22E97FF09C09095809516
:1051A000709561957F4F8F4F9F4F2068B22E2AE0F8
:1051B00030E0A4010E94202AA82EA81844C08537F8
:1051C00029F42F7EB22E2AE030E025C0F22FF97F9D
:1051D000BF2E8F36C1F018F4883579F0B4C080370F
:1051E00019F0883721F0AFC02F2F2061B22EB4FE06
:1051F0000DC08B2D8460B82E09C024FF0AC09F2FDC
:105200009660B92E06C028E030E005C020E130E00D
:1052100002C020E132E0F801B7FE07C06081718171
:10522000828193810C5F1F4F06C06081718180E095
:1052300090E00E5F1F4FA4010E94202AA82EA818FC
:10524000FB2DFF77BF2EB6FE0BC02B2D2E7FA51496
:1052500050F4B4FE0AC0B2FC08C02B2D2E7E05C04F
:105260007A2C2B2D03C07A2C01C0752C24FF0DC085
:10527000FE01EA0DF11D8081803311F4297E09C001
:1052800022FF06C07394739404C0822F867809F0BD
:10529000739423FD13C020FF06C05A2C731418F416
:1052A000530C5718732C731468F4B70180E290E024
:1052B0002C870E94EE2973942C85F5CF731410F47B
:1052C000371801C0312C24FF12C0B70180E390E0F1
:1052D0002C870E94EE292C8522FF17C021FF03C0D6
:1052E00088E590E002C088E790E0B7010CC0822F0B
:1052F000867859F021FD02C080E201C08BE227FDD3
:105300008DE2B70190E00E94EE29A51438F4B701B0
:1053100080E390E00E94EE295A94F7CFAA94F4011A
:10532000EA0DF11D8081B70190E00E94EE29A110E5
:10533000F5CF332009F451CEB70180E290E00E940E
:10534000EE293A94F6CFF7018681978102C08FEF5C
:105350009FEF2C960FB6F894DEBF0FBECDBFDF9146
:10536000CF911F910F91FF90EF90DF90CF90BF9062
:10537000AF909F908F907F906F905F904F903F90F5
:105380002F900895F999FECF92BD81BDF89A992783
:1053900080B50895262FF999FECF1FBA92BD81BD21
:1053A00020BD0FB6F894FA9AF99A0FBE01960895A7
:1053B000FC010590615070400110D8F780959095E0
:1053C0008E0F9F1F0895FC016150704001900110E5
:1053D000D8F7809590958E0F9F1F08950F931F9378
:1053E000CF93DF93182F092FEB018B8181FD03C031
:1053F0008FEF9FEF20C082FF10C04E815F812C8114
:105400003D81421753077CF4E881F9819F012F5FAA
:105410003F4F39832883108306C0E885F985812FA3
:105420000995892B29F72E813F812F5F3F4F3F83BD
:105430002E83812F902FDF91CF911F910F9108958F
:10544000FA01AA27283051F1203181F1E8946F93B5
:105450006E7F6E5F7F4F8F4F9F4FAF4FB1E03ED05B
:10546000B4E03CD0670F781F891F9A1FA11D680FF9
:10547000791F8A1F911DA11D6A0F711D811D911D2C
:10548000A11D20D009F468943F912AE0269F1124A1
:105490003019305D3193DEF6CF010895462F477005
:1054A000405D4193B3E00FD0C9F7F6CF462F4F7060
:1054B000405D4A3318F0495D31FD4052419302D0BE
:1054C000A9F7EACFB4E0A695979587957795679564
:1054D000BA95C9F700976105710508959B01AC0164
:1054E0000A2E06945795479537952795BA95C9F78B
:1054F000620F731F841F951FA01D0895F894FFCF9E
:105500000000F804800001010201FFFFFFFFFFFF20
:10551000FFFFFFFFFFFF000020410000A040000050
:1055200040400A010000050636090A37080B05A0AD
:10553000000000803F0000803F0000C84200007073
:1055400041434320626C6F636B21207369673A208B
:1055500025732028256420646563696D616C2920AA
:10556000783A20256420793A20256420776964748C
:10557000683A202564206865696768743A20256464
:1055800020616E676C652025640A007369673A20A4
:10559000256420783A20256420793A2025642077F4
:1055A000696474683A202564206865696768743A9C
:1055B0002025640A00526F7461746520736C6F77E4
:1055C0006C7920627574207374656164696C7920EC
:1055D000636C6F636B7769736520746F2000206163
:1055E0006E64206261636B20746F20696E697469F8
:1055F000616C20706F736974696F6E2E00332E2E8C
:105600002E00322E2E2E00312E2E2E00474F0072ED
:10561000656F72646572006373206572726F7200E9
:105620000000000097166A163F1647165A166916AC
:1056300000000000B81E3E200B1E241E161E961EE3
:105640000D0A006E616E00696E66006F766600007E
:00000001FF
