:100000000C9476020C94A5020C94A5020C94A50203
:100010000C94A5020C94A5020C94A5020C94A502C4
:100020000C94A5020C94A5020C94A5020C94A502B4
:100030000C94A5020C94A5020C94A5020C94A502A4
:100040000C94A5020C94EA2A0C94A5020C94A50227
:100050000C94A5020C94A5020C94A5020C94E53412
:100060000C94A5020C9440390C9476390C94A5029A
:100070000C94A5020C94A5020C94A5020C94A50264
:100080000C94182B0C94A5020C94A5020C94A502B8
:100090000C94A5020C94A5020C94A5020C94CA30F1
:1000A0000C94A5020C94A5020C94462B0C94A5026A
:1000B0000C94A5020C94A5020C94A5020C94742B2C
:1000C0000C94A5020C94A5020C94A5020C94A50214
:1000D0000C94A5020C94A5020C94A5020C94A50204
:1000E0000C94A5020B240D241124152419241D247D
:1000F0002124252429242B24302432243724392474
:100100003E244224A432AB327F32813283328532A4
:10011000873289328F3291328B328D328F329132E7
:10012000A43293323E364336483652365C36D536A4
:1001300066366E36763680368A369436A336AD36D7
:10014000D536B736C136CB36F736FA36E936ED3620
:10015000F3363137FE36023708370C37103716378B
:100160001A371E373137243728372C37474F20545A
:100170004F2056494354494D00545057204C454652
:10018000540054505720524947485400524F54414C
:100190005445204C45465400524F5441544520523A
:1001A00049474854004572726F723A20476F546F46
:1001B0004C6F636174696F6E2072657475726E65E1
:1001C0006420736F6D657468696E67206E6F74204C
:1001D000657870656374656420666F722074686901
:1001E0007320746573742072756E2E000953746FDA
:1001F000726564203D20007363616C6546616374C1
:100200006F725A203D20000953746F726564203D5F
:1002100020007369676D615A203D20000953746F97
:10022000726564203D2000426961735A203D2000C0
:100230005072696E74696E672063616C63756C617E
:1002400074656420616E642073746F7265642076D7
:10025000616C7565732E2E2E005363616C652046AC
:100260006163746F72203D20004D617820416E679C
:100270006C65203D2000446F6E652100526F7461F3
:100280007465206261636B20746F20737461727493
:10029000696E6720706F736974696F6E2E005A3DC6
:1002A00020005369676D613A005A3D200041766530
:1002B0007261676520426961733A00476574426CF8
:1002C0006F636B28292072657475726E65642042B5
:1002D00041445F424C4F434B2E0052696768742083
:1002E0004D6F746F722063757272656E743A200080
:1002F0004C656674204D6F746F7220637572726501
:100300006E743A20006D6F746F7220647269766546
:1003100072206661756C74004552524F522D20490F
:100320006E76616C69642070726F6772616D2063B4
:10033000686F6963653A2000095363616C65204604
:100340006163746F723A2000095369676D613A20E6
:1003500000426961733A20004661696C65642074EB
:100360006F206175746F646574656374206779725A
:100370006F2074797065210009546F74616C203DA1
:10038000200009426F74204C696E65203D200009F1
:1003900043656E746572203D20000959203D2000A0
:1003A000536967203D20004552524F522D20496E1F
:1003B00076616C69642070726F6772616D2063682A
:1003C0006F6963653A200000000A0B02090C0D0EEC
:1003D0000807030401000000000000000000000006
:1003E000000000000000000000000000000000000D
:1003F00000000012111000000000000000000000CA
:1004000000000000000000000000000000010210D9
:10041000202008081020401020408002010201081E
:1004200004020101020408102040808040201008CE
:100430000402018004020180402010080402010827
:100440000402010102040810204080010204081087
:100450002040800505050507050808080802020276
:10046000020A0A080804040404010101010101014F
:10047000010303030303030303040707070C0C0C26
:100480000C0C0C0C0C0202020206060606060606FE
:10049000060B0B0B0B0B0B0B0B0000200023002695
:1004A0000029002C002F003200000100000301068B
:1004B00001090100002200250028002B002E003138
:1004C00000340002010000050108010B01000021B9
:1004D00000240027002A002D003000330001010015
:1004E00000040107010A0100E82FAA3911241FBEE8
:1004F000CFEFD1E2DEBFCDBF14E0A0E0B2E0E0EE8E
:10050000F8E800E00BBF02C007900D92A431B107DC
:10051000D9F726E0A4E1B4E001C01D92A436B207E9
:10052000E1F714E0CCEED4E000E006C02297010928
:10053000FE010BBF0E944D3FC83ED10780E0080777
:10054000A9F70E94F1390C946E440C940000FC0150
:1005500011821082138212821582148281E08087B8
:1005600008950F931F93CF93DF93EC0108811981B6
:100570008A819B810817190739F0F80181919191BF
:100580008F010E94023AF4CF888199812C813D81AC
:10059000281B390B35952795232B31F0DF91CF910F
:1005A0001F910F910C94E93FDF91CF911F910F9113
:1005B0000895FC0181E046815781228133814217F1
:1005C000530709F080E00895FC01268137812E5FF2
:1005D0003F4F378326830895DC011696ED91FC91F9
:1005E0001797808191810895CF93DF93EB01BC0130
:1005F00082E090E00E94FB3128813981FC01318347
:100600002083DF91CF910895CF93DF93EC01CE014A
:100610000E94513F009761F4E0911404F091150499
:10062000309721F480E090E00E946E440995EFCF6E
:10063000DF91CF9108950F931F93CF93DF93EB0139
:100640008A01C81BD90BCE7FAE01BC01C8010E9434
:100650006F41C8018C0F9D1FDF91CF911F910F91AA
:1006600008958F929F92AF92BF92CF92DF92EF92B6
:10067000FF920F931F93CF93DF9300D0CDB7DEB7D8
:100680008C017A836983FC01E280F3808481958107
:10069000E816F90669F0BE016F5F7F4FC7010E943F
:1006A000F402F801828193810296938382834FC082
:1006B000F801808191816701C81AD90AD594C7943D
:1006C000C114D10439F0FAE0CF0ED11CC114D10409
:1006D00021F40AC0CC24C394D12CC601880F991FE1
:1006E0000E9404035C0104C0C12CD12CA12CB12CAC
:1006F000A501B701F801808191810E941B034C0183
:10070000BE016F5F7F4F0E94F402A4014E5F5F4FF6
:10071000F80162817381C7010E941B037C01F8010B
:100720008081918124813581281B390B359527954E
:10073000232B11F00E94E93FF801B182A082F382DD
:10074000E282CC0CDD1CCA0CDB1CD582C482F80111
:100750008085882329F01086808191819783868304
:100760000F900F90DF91CF911F910F91FF90EF901D
:10077000DF90CF90BF90AF909F908F900895AF92F1
:10078000BF92CF92DF92EF92FF920F931F93CF937E
:10079000DF9300D0CDB7DEB75C018B016817790716
:1007A00009F47CC0DB0112966D917C911397ED905A
:1007B000FC90FB01EE19FF09F595E795DC014D91E1
:1007C0005C91119714968D919C911597841B950BB4
:1007D000959587956F01CC0CDD1C8E179F0748F50A
:1007E000EF2B49F0C60169837A830E9404038C01D0
:1007F00069817A8102C000E010E0A801C7010E946F
:100800001B03F5018081918124813581281B390BDF
:1008100035952795232B11F00E94E93FD5011196BC
:100820001C930E930C0D1D1D15961C930E9314977F
:100830002BC0D50112962D913C911397241B350B9B
:10084000359527952E173F0710F0C7011BC0B9013A
:10085000660F771F6E0D7F1DC7010E941B03F501F8
:1008600042815381D80112966D917C9113978081BA
:100870009181FA01E81BF90BCF018E7F2D913C91FC
:10088000820F931F0E941B03D5018D919C9111979C
:100890008C0D9D1D13969C938E931297C5010F90FE
:1008A0000F90DF91CF911F910F91FF90EF90DF900C
:1008B000CF90BF90AF900895CF93DF93EC01861750
:1008C000970751F0FB0180858887868197819F83F8
:1008D0008E83CE010E94BF03CE01DF91CF91089598
:1008E0008F929F92AF92BF92CF92DF92EF92FF9240
:1008F0000F931F93CF93DF93CDB7DEB7C054D109C9
:100900000FB6F894DEBF0FBECDBF6C0182FB22276D
:1009100020F930E0220F331F81FB442740F950E0DB
:10092000240F351F220F331F81709927280F391F7D
:100930002115310541F4C3FE03C068E971E0D6C05A
:100940006CE871E0D3C02130310541F4C3FE03C02F
:1009500062E871E0CBC069E771E0C8C022303105C0
:1009600009F0BFC067E972E0CE0101960E948141A3
:100970007601EF2CFF24E694E69422E0E222FF24A5
:10098000C601892F99278695869581709927E80E4B
:10099000F91EEE0CFF1CC601892F992786958170E0
:1009A0009927E80EF91E0D2D112701701127000F50
:1009B000111FC7FA882480F8912C080D191D000F0B
:1009C000111FC6FAAA24A0F8B12C0A0D1B1DC3FEE4
:1009D00008C06FE972E0CE0108960E9481418CE068
:1009E00007C065EA72E0CE0108960E9481418BE063
:1009F000C82ED12C6AEA72E081E090E08C0F9D1F36
:100A00008C0D9D1D0E948141C6010A96011511059C
:100A100019F465EB72E023C00130110561F46BEB52
:100A200072E021E030E02C0F3D1F820F931F0E94E7
:100A300081418EE01DC00430110561F460EC72E06C
:100A400021E030E02C0F3D1F820F931F0E94814157
:100A500080E10EC00230110561F467EC72E021E024
:100A600030E02C0F3D1F820F931F0E9481418FE0C9
:100A70008C0DC82ED12C6DEC72E081E090E08C0FD3
:100A80009D1F8C0D9D1D0E948141C6010696E1149B
:100A9000F10419F464ED72E014C031E0E316F104DE
:100AA00019F469ED72E00DC034E0E316F10419F4B5
:100AB0006DED72E006C032E0E316F10451F463EE2E
:100AC00072E021E030E02C0F3D1F820F931F0E9447
:100AD0008141BE016F5F7F4F83EC95E00E94673AD2
:100AE00009C02330310531F46CE671E083EC95E008
:100AF0000E94743AC05CDF4F0FB6F894DEBF0FBEA1
:100B0000CDBFDF91CF911F910F91FF90EF90DF90BC
:100B1000CF90BF90AF909F908F900895833019F43D
:100B200080E090E0089588E090E00895833019F423
:100B300081E090E0089589E090E00895DF92EF92DF
:100B4000FF920F931F93CF93DF9300D0CDB7DEB703
:100B50007C01162FD42E0E944A2D00E02D2D412F0E
:100B6000682FCE0101960E941C2D4D2D612FCE01C4
:100B70000C960E94F42D882329F061E0CE010196A5
:100B80000E94112D81E0F7014081518129813A8134
:100B90004217530709F080E00F900F90DF91CF913B
:100BA0001F910F91FF90EF90DF9008950F931F9387
:100BB000CF93DF93EC018B010E94B32CF80182816B
:100BC00093819B838A8384818C83CE01DF91CF9133
:100BD0001F910F910895BF92CF92DF92EF92FF92F3
:100BE0000F931F93CF93DF9300D000D01F92CDB708
:100BF000DEB77C01DC0114962D913C911597862F70
:100C0000992787FD909512960D90BC91A02D4423B5
:100C100021F0D62EF901C08003C0DC90C62ED90188
:100C20002C91821B910997FF03C0919581959109A1
:100C3000B82E4C2D6D2DF701808591850E94012ED7
:100C4000182F811102C011E09EC01B1484F4D7013B
:100C50001E96ED91FC911F9720814C2D6D2D1896BD
:100C60008D919C9119970E94D62D8111ECCFD701BF
:100C70001696ED91FC91179720814C2D6D2D1896AD
:100C80008D919C9119970E94D62D811178C0BB201F
:100C900009F478C0D7011696ED91FC9117978081E1
:100CA000813091F028F08230E1F0833039F16AC070
:100CB000B6E0BC150CF466C0D7011E96ED91FC9110
:100CC0001F97208141E017C0B6E0BD150CF45AC053
:100CD000D7011E96ED91FC911F9720814C2D61E06C
:100CE00018C01C140CF04EC0D7011E96ED91FC915B
:100CF0001F9720814FEF4C0D6D2D0CC01D140CF073
:100D000041C0D7011E96ED91FC911F9720814C2D7B
:100D10006FEF6D0D18968D919C9119970E94D62DAD
:100D2000882381F1D701ED91FC9100E02C2D4D2D10
:100D30006081CE0101960E941C2DD7011A96ED917B
:100D4000FC911B9780810E9496059C838B836B2D61
:100D5000772767FD7095872F972F0E947F3D9B0116
:100D6000AC010E94333E0E94513D6D83BE016F5F16
:100D70007F4FF701848595850E94D60504C0BB206E
:100D800011F0D0CF10E0812F0F900F900F900F90A7
:100D90000F90DF91CF911F910F91FF90EF90DF9017
:100DA000CF90BF900895BF92CF92DF92EF92FF92C3
:100DB0000F931F93CF93DF9300D000D01F92CDB736
:100DC000DEB77C01DC0114962D913C911597862F9E
:100DD000992787FD909512960D90BC91A02D4423E4
:100DE00021F0D62EF901B08003C0DC90B62ED901D7
:100DF0002C91821B910997FF03C0919581959109D0
:100E0000182F4B2D6D2DF701808591850E94012EA5
:100E1000C82ED70118968D919C9119974B2D6D2D49
:100E2000C1102AC00E94F42D882309F49DC0D70167
:100E3000ED91FC9100E02B2D4D2D6081CE010196AE
:100E40000E941C2DD7011A96ED91FC911B97808171
:100E5000833019F422E830E002C02AE830E03C8315
:100E60002B831F5F1D83BE016F5F7F4FF70184855A
:100E700095850E94D60578C00E94F42DD701ED918A
:100E8000FC918823B1F000E02B2D4D2D6081CE0127
:100E900001960E941C2DD7011A96ED91FC911B978B
:100EA0008081833019F422E830E051C02AE830E034
:100EB0004EC020814B2D6D2DD70118968D919C91A0
:100EC00019970E94D62DD7018823C1F0ED91FC918E
:100ED00000E02B2D4D2D6081CE0101960E941C2D2E
:100EE000D7011A96ED91FC911B978081833019F4FC
:100EF00022E030E02CC02AE030E029C01696ED91C7
:100F0000FC91179720814B2D6D2D18968D919C91FA
:100F100019970E94D62D81112AC0112349F1D701BA
:100F2000ED91FC9100E02B2D4D2D6081CE010196BD
:100F30000E941C2DD7011A96ED91FC911B97808180
:100F4000833019F422E430E002C02AE430E03C832C
:100F50002B831F5F1D83BE016F5F7F4FF701848569
:100F600095850E94D60504C0CC24C39401C0C12C31
:100F70008C2D0F900F900F900F900F90DF91CF91CD
:100F80001F910F91FF90EF90DF90CF90BF90089549
:100F9000CF92DF92EF92FF920F931F93CF93DF9345
:100FA00000D000D000D0CDB7DEB77C01142F69018E
:100FB0000E944A2D082FC7010E945C2D482FC701AF
:100FC0004E830E946E2D4E81133039F4002319F0A8
:100FD0006FEF600F05C063E003C061E0600F6370F6
:100FE0009E012F5F3F4F790195E0F90111929A958B
:100FF000E9F791E09D8300E0282FC7010E941C2D96
:10100000812F0E948E059C838B83B701C6010E94AD
:10101000D60581E026960FB6F894DEBF0FBECDBF91
:10102000DF91CF911F910F91FF90EF90DF90CF90C4
:1010300008958F929F92AF92BF92CF92DF92EF92DC
:10104000FF920F931F93CF93DF9300D000D01F9296
:10105000CDB7DEB78C017B016A010E944A2D882E34
:10106000C8010E945C2DA82EC8010E946E2D982EEA
:10107000482F6A2DC7010E94F42DB82E882329F02D
:10108000C8010E94802D882311F0B12C17C0CE0119
:1010900001967C0185E0F70111928A95E9F701E05C
:1010A000292D4A2D682DC7010E941C2D23E030E018
:1010B0003C832B83B701C6010E94D6058B2D0F9070
:1010C0000F900F900F900F90DF91CF911F910F9184
:1010D000FF90EF90DF90CF90BF90AF909F908F9058
:1010E00008950F931F93CF93DF93EC018B010E9420
:1010F000A92CF801828193819B838A8384818C83CC
:10110000DF91CF911F910F910895CF92DF92EF92CF
:10111000FF920F931F93CF93DF93CDB7DEB76B97FB
:101120000FB6F894DEBF0FBECDBF7C016B014B8FB5
:1011300089010E944A2D8A8FC7010E945C2D898FE8
:10114000C7010E946E2D888F9B8D8A8D933031F45C
:10115000882311F0815004C083E002C08F5F837048
:101160008F8B913019F48F5F837005C0882311F045
:10117000815001C083E08E8BCE014A969A83898389
:1011800001979C838B8301979E838D83019798871A
:101190008F83DA86C98604969C878B871E870D8786
:1011A0000597988B8F87B80105970E9471088A8DE3
:1011B0008130A9F030F0823001F18330B1F5F98C43
:1011C00032C0F88C87E08F1584F140E06F2DCE019E
:1011D00001960E94EB05811128C0F394F3CFF98C9E
:1011E000E7E0EF1514F141E06F2DCE0101960E946A
:1011F000EB0581111AC0F394F3CFF88CF7FC15C0FE
:1012000040E06F2DCE0101960E94EB0581110DC0CB
:10121000FA94F4CF41E06F2DCE0101960E94EB05C8
:10122000811103C0FA94F7FEF5CF81E0F801408107
:10123000518129893A894217530709F480E06B9656
:101240000FB6F894DEBF0FBECDBFDF91CF911F91D7
:101250000F91FF90EF90DF90CF900895CF92DF92A3
:10126000EF92FF920F931F93CF93DF93CDB7DEB72B
:1012700068970FB6F894DEBF0FBECDBF7C016B013F
:10128000488F89010E944A2D8F8BC7010E945C2DD7
:101290008E8BC7010E946E2D8D8B988D8F89933018
:1012A00031F4882311F0815004C083E002C08F5FC5
:1012B00083708C8BCE0147969A83898301979C8398
:1012C0008B8301979E838D83019798878F83DA861E
:1012D000C98604969C878B871E870D87B80109975E
:1012E0000E9471088F898130A9F030F0823001F1BD
:1012F0008330B1F5FE8832C0FD8887E08F1584F118
:1013000040E06F2DCE0101960E94D306811128C0C6
:10131000F394F3CFFE88E7E0EF1514F141E06F2D71
:10132000CE0101960E94D30681111AC0F394F3CF27
:10133000FD88F7FC15C040E06F2DCE0101960E949C
:10134000D30681110DC0FA94F4CF41E06F2DCE0188
:1013500001960E94D306811103C0FA94F7FEF5CFDF
:1013600081E0F801408151812F8538894217530768
:1013700009F480E068960FB6F894DEBF0FBECDBFCB
:10138000DF91CF911F910F91FF90EF90DF90CF9061
:101390000895EF92FF920F931F93CF93DF93CDB7F2
:1013A000DEB7E82EF62E8A01CA010E945C2D2E2D92
:1013B00030E0281B3109C8011216130624F40E94DC
:1013C0005C2DE81A04C00E945C2D8E19E82EC8011D
:1013D0000E946E2D2F2D30E0281B3109C8011216F6
:1013E00013062CF40E946E2DF81A8F2D03C00E9454
:1013F0006E2D8F198E0DDF91CF911F910F91FF9060
:10140000EF900895FC018081918124813581281B12
:10141000390B35952795232B11F00C94E93F08954E
:10142000CF93DF93EB01BC0185E090E00E94FB319C
:10143000BE01DF91CF910C947108CF93DF93EB0144
:10144000BC0182E090E00E94FB3128813981FC01DF
:1014500031832083DF91CF910895009721F0880F89
:10146000991F0C94040380E090E008956F927F929E
:101470008F929F92AF92BF92CF92DF92EF92FF92A4
:101480000F931F93CF93DF93EC016817790709F44B
:101490007AC0FB01A280B380008111817501E01A3E
:1014A000F10AF594E7946701E881F9818C819D81C7
:1014B0008E1B9F0B959587958E159F0538F5C70157
:1014C0000E942D0A4C013C010A151B0551F0B80180
:1014D000C3010E941D0A0E5F1F4FF2E06F0E711CC8
:1014E000F3CF888199812C813D81281B390B35955B
:1014F0002795232B11F00E94E93F99828882CC0C1A
:10150000DD1CC80CD91CDD82CC8235C08A809B8052
:10151000C4018E1B9F0B959587958E159F0560F0D6
:10152000D8011C141D043CF58D919D9181939193DC
:1015300081E0C81AD108F5CF880F991F6801C80E3D
:10154000D91E95958795D8011816190634F42D9152
:101550003D91219331930197F7CFCA14DB0459F0E1
:10156000B601C4010E941D0AE2E0CE0ED11CF2E0D9
:101570008F0E911CF2CFEE0CFF1C888199818E0D8D
:101580009F1D9B838A83CE01DF91CF911F910F9185
:10159000FF90EF90DF90CF90BF90AF909F908F9093
:1015A0007F906F900895CF92DF92EF92FF920F930A
:1015B000CF93DF9300D01F92CDB7DEB76C017A01D5
:1015C0002B8369837A830E94412DF6011382128254
:1015D000158214821782168269817A81C6010E945F
:1015E000B32CB701C60102960E94360A2B81F60180
:1015F0002087200F21870F900F900F90DF91CF91C0
:101600000F91FF90EF90DF90CF9008950F931F936D
:10161000CF93DF93EC018B010E94B32CB8016E5F76
:101620007F4FCE0102960E94360AF8018085888796
:1016300081858987CE01DF91CF911F910F91089508
:10164000BF92CF92DF92EF92FF920F931F93CF93AF
:10165000DF938C017A016901EB012197D7FDEB0142
:10166000D595C7959AE0B92EE616F706A4F02AE0BC
:10167000269FC001279F900D1124B601800F911F56
:10168000DF91CF911F910F91FF90EF90DF90CF905E
:10169000BF900C94060BBC9ED001BD9EB00D1124D2
:1016A000A00FB11F19969C911997F6018185891792
:1016B000F0F6B69EC001B79E900D1124BD01800FBB
:1016C000911F0E94060BCE01019797FDCE01BE012E
:1016D000EC01D595C795C8CFAF92BF92CF92DF925C
:1016E000EF92FF920F931F93CF93DF93EC016B0167
:1016F000FB01E280F38080819181E81AF90AF59478
:10170000E794198218821B821A821D821C82C701EB
:101710000E942D0A8C01998388839B838A83EE0C17
:10172000FF1CE80EF91EFD82EC82F601A280B38058
:10173000E080F180EA14FB0451F0B701C8010E9477
:101740001D0AF2E0EF0EF11C0E5F1F4FF3CF1B835B
:101750000A83DF91CF911F910F91FF90EF90DF905F
:10176000CF90BF90AF9008950F931F93CF93DF93C7
:10177000EC018B010E94A92CB8016E5F7F4FCE0156
:1017800002960E946C0BF801808588878185898785
:10179000DF91CF911F910F910895CF93DF93EB01CC
:1017A000BC018AE090E00E94FB31BE01DF91CF9145
:1017B0000C94B40B2F923F924F925F926F927F9254
:1017C0008F929F92AF92BF92CF92DF92EF92FF9251
:1017D0000F931F93CF93DF93CDB7DEB727970FB645
:1017E000F894DEBF0FBECDBF8C017B014A01FC0126
:1017F000828193812481358182179307C1F1BC01D5
:10180000655071090E94100AF80182819381059642
:1018100093838283B401CE0101960E947108F8017E
:10182000828193818C01055011090A978E199F09B5
:101830002DEC3CEC829F6001839FD00C929FD00CDA
:1018400011241C141D0464F4B8016A507109055078
:101850001109C8010E94D605F1E0CF1AD108F1CFD5
:10186000BE016F5F7F4FC7010E94D60586C0F80199
:1018700020813181821B930B2DEC3CEC829F500127
:10188000839FB00C929FB00C1124A114B10439F0C5
:10189000FAE0AF0EB11CA114B10421F40EC0AA24C9
:1018A000A394B12C85E0282F2A9DC0012B9D900D7B
:1018B00011240E9404036C0104C0A12CB12CC12C82
:1018C000D12CF80120803180260131016E147F0473
:1018D00059F0B301C2010E94100AF5E06F0E711CAD
:1018E00025E0420E511CF2CFFF82EE822701421802
:1018F00053084C0C5D1CB401C2010E94100A85E023
:10190000480E511CF801628073804201E614F7040E
:1019100059F0B701C4010E94100AF5E0EF0EF11C66
:1019200025E0820E911CF2CF8E819F81E81AF90A80
:10193000E40CF51CF8018081918124813581281BFC
:10194000390B6DEC7CEC269FA001279F500D369F34
:10195000500D1124452B11F00E94E93FF801D1826E
:10196000C082F382E28225E02A9DC0012B9D900D6A
:1019700011248C0D9D1D9583848327960FB6F894B2
:10198000DEBF0FBECDBFDF91CF911F910F91FF90B2
:10199000EF90DF90CF90BF90AF909F908F907F900F
:1019A0006F905F904F903F902F900895CF93DF936B
:1019B000EC018A819B812C813D818217930751F034
:1019C0000E94100A8A819B8105969B838A83DF91FE
:1019D000CF910895AB01BC01CE01DF91CF910C9462
:1019E000DA0BEF92FF920F931F93CF93DF9300D008
:1019F00000D01F92CDB7DEB78C017B01FC011182B4
:101A000010821382128215821482CE0101960E94E6
:101A1000412D1C821B82C7010E94802D811178C03C
:101A2000AE014F5F5F4FBE01625F7F4FC7010E94F3
:101A30001908882339F0BE016F5F7F4FC8010E94EB
:101A4000D60C66C09E012F5F3F4F41E0BE01625F32
:101A50007F4FC7010E94C807882331F0BE016F5F26
:101A60007F4FC8010E94D60C9E012F5F3F4F43E07D
:101A7000BE01625F7F4FC7010E94C807882331F013
:101A8000BE016F5F7F4FC8010E94D60C9E012F5F81
:101A90003F4F41E0BE01625F7F4FC7010E942E09A8
:101AA000882331F0BE016F5F7F4FC8010E94D60CC2
:101AB0009E012F5F3F4F43E0BE01625F7F4FC70132
:101AC0000E942E09882331F0BE016F5F7F4FC8014D
:101AD0000E94D60C9E012F5F3F4F41E0BE01625F26
:101AE0007F4FC7010E948508882331F0BE016F5FD8
:101AF0007F4FC8010E94D60C9E012F5F3F4F43E0ED
:101B0000BE01625F7F4FC7010E948508811193CF9C
:101B1000C8010F900F900F900F900F90DF91CF9111
:101B20001F910F91FF90EF9008954F925F926F92E7
:101B30007F928F929F92AF92BF92CF92DF92EF925D
:101B4000FF920F931F93CF93DF93CDB7DEB72A9702
:101B50000FB6F894DEBF0FBECDBF8C017B014A01EA
:101B6000FC0182819381248135818217930709F4D6
:101B70003FC0BC016A5071090E94CD0BF8018281FF
:101B800093810A9693838283B401CE0101960E94C9
:101B9000B40BF8012281338189010A5011092451C3
:101BA00031092E193F09359527958DEC9CEC289F1E
:101BB0006001299FD00C389FD00C11241C141D04E7
:101BC00064F4B801645171090A501109C8010E94F6
:101BD000060BF1E0CF1AD108F1CFBE016F5F7F4F46
:101BE000C7010E94060BCE0103960E94020A88C01C
:101BF000F80120813181821B930B959587952DECFF
:101C00003CEC829F3001839F700C929F700C1124DA
:101C10006114710439F0FAE06F0E711C61147104E3
:101C200021F40EC066246394712C8AE0282F269D2F
:101C3000C001279D900D11240E9404036C0104C073
:101C4000612C712CC12CD12CF80140805180C6012F
:101C50009C01265F3F4F59014E145F0441F0B201D1
:101C60000E94CD0BFAE04F0E511CC501F1CFB4011B
:101C70000E94CD0BF80182809380E814F90459F09A
:101C8000B701C5010E94CD0BFAE0EF0EF11C2AE06E
:101C9000A20EB11CF2CFF80182809380E080F18027
:101CA000E814F90441F0C70102960E94020AFAE022
:101CB000EF0EF11CF5CFF8018081918124813581EF
:101CC000281B390B359527956DEC7CEC269FA001E0
:101CD000279F500D369F500D1124452B11F00E9467
:101CE000E93FF801D182C082B382A2822AE0269D18
:101CF000C001279D900D11248C0D9D1D958384831B
:101D00002A960FB6F894DEBF0FBECDBFDF91CF91FC
:101D10001F910F91FF90EF90DF90CF90BF90AF9009
:101D20009F908F907F906F905F904F900895EF926B
:101D3000FF920F931F93CF93DF93CDB7DEB72A9710
:101D40000FB6F894DEBF0FBECDBF8C01FC018281BF
:101D50009381248135818217930749F00E94CD0B2E
:101D6000F801828193810A969383828305C0AB0137
:101D7000BC01C8010E94950DF801E280F38000814A
:101D80001181B7016A507109CE0101960E94B40B0E
:101D90009701201B310B359527958DEC9CEC289FE6
:101DA000B001299F700D389F700D11246150710989
:101DB0009E012F5F3F4F40E050E0C8010E94200B82
:101DC000CE0103960E94020A2A960FB6F894DEBF4F
:101DD0000FBECDBFDF91CF911F910F91FF90EF907C
:101DE00008952F923F924F925F926F927F928F92BF
:101DF0009F92AF92BF92CF92DF92EF92FF920F939A
:101E00001F93CF93DF93CDB7DEB7C255D1090FB67D
:101E1000F894DEBF0FBECDBF7C012E966FAF2E971C
:101E20002F964FAF2F978901CE01805C9F4F0E9464
:101E30000E2E1CAA1BAA1EAA1DAA18AE1FAA1A8221
:101E400019821C821B821E821D82B801CE010B9654
:101E50000E94A92C00E020E0AE014F5F5F4FBE0161
:101E6000655F7F4FCE0189960E94D30ACE0101960D
:101E70000E94020ABE01675D7F4FCE01C3960E9499
:101E8000970E56E4252E312C2C0E3D1E22E0220EFC
:101E9000311C6BA97CA98DA99EA96817790709F443
:101EA00007C2CE014F960E94B40BCBA8DCA80DA9A7
:101EB0001EA90A501109B801CE0145960E94B40B23
:101EC000B601C8010E94060BBE016B5E7F4FCE01BA
:101ED0000B960E94B40B0C191D09159507958DECF6
:101EE0009CEC089F4001099F900C189F900C1124B6
:101EF00002E010E0A12CB12C4AE0742E081519055F
:101F00003CF5709EF001719EF00D1124EC0DFD1D4D
:101F1000DF011A97918519968C91891710F4015059
:101F20001109709EB001719E700D11246C0D7D1D04
:101F30007A9CC0017B9C900D11248C0D9D1D0E94EC
:101F4000060BC801019658018C01000F111FD6CF56
:101F500008151905B9F42AE0209FB001219F700DE2
:101F600011246A5071096C0D7D1D2A9DC0012B9DA5
:101F7000900D11248C0D9D1D0E94060B580131E01F
:101F8000A31AB108BE01655F7F4FCE0101960E9482
:101F9000B40B9E012F5F3F4F40E050E0B501C601FA
:101FA0000E94200B8E010D5F1F4FC8010E94020A84
:101FB000CE010D960E94020ACE0147960E94020AA7
:101FC0008DA99EA99C012A5031093EAB2DAB0897E3
:101FD0000E94020ABE01615E7F4FCE0101960E94FF
:101FE000A92C8DB79EB7805491090FB6F8949EBF67
:101FF0000FBE8DBFADB7BEB7119680E4FE01E959A3
:10200000FF4F01900D928A95E1F72F964FAD2F97D4
:102010002E966FAD2E97CE0101960E949E050FB6AB
:10202000F894DEBF0FBECDBFBE01882351F06F5DB7
:102030007F4FC7010E946C0BCE0181960E94020A5D
:102040003EC1615E7F4FCE01805C9F4F0E94F02EAB
:10205000882309F428C1BE01615E7F4FCE0101963D
:102060000E94A92C2DB73EB7205431090FB6F89421
:102070003EBF0FBE2DBFADB7BEB7119680E4FE01C7
:10208000E959FF4F01900D928A95E1F7BE016F5F0C
:102090007F4FCE01CA960E94F10C4AAC5BAC8CAD6E
:1020A0009DAD61969FAF8EAF61970FB6F894DEBF7E
:1020B0000FBECDBF62960FAF629763961FAF639757
:1020C00061968EAD9FAD61974816590609F4D8C048
:1020D000B201CE018A5B9F4F0E947108BE016F5D05
:1020E0007F4FCE0145960E946C0B0F89188D898D0C
:1020F0009A8D0817190751F0B101C8010E941D0AF5
:102100008F89988D0296988F8F8B52C08D899E896A
:102110006801C81AD90AD594C794C114D10421F012
:10212000FAE0CF0ED11C03C0CC24C394D12CC6013D
:102130000E942D0A4C016D887E885C016016710634
:1021400059F0B301C5010E941D0A22E0620E711C04
:1021500032E0A30EB11CF2CFB101C5010E941D0AED
:1021600082E0A80EB11C6F88788C0615170551F017
:10217000B801C5010E941D0A0E5F1F4F92E0A90E13
:10218000B11CF3CF8D899E89298D3A8D281B390B7F
:1021900035952795232B11F00E94E93F9E8A8D8A61
:1021A000B88EAF8ACC0CDD1CC80CD91CDA8EC98E57
:1021B0008FA12B96CFAC2B97D12CC80ED11CBE0172
:1021C0006A5B7F4FCE0101960E94A92CEDB7FEB746
:1021D000E054F1090FB6F894FEBF0FBEEDBFADB7E6
:1021E000BEB71196FE01E959FF4F80E401900D92B0
:1021F0008A95E1F7AE014F5F5F4F2F966FAD2F9736
:102200002E968FAD2E970E94C909082F0FB6F8940D
:10221000DEBF0FBECDBFBE016B5E7F4FCE010B9602
:102220000E946C0BBE016A5B7F4FCE01855B9F4FA6
:102230000E94A92C2C2DAE01455F5F4FBE01655B4E
:102240007F4FCE0101960E94D30ACE010B960E94C9
:10225000020ABE016F5F7F4FCE01C3960E94970EA8
:1022600062968FAD629763969FAD63970E94020A54
:10227000CE0145960E94020A35E0430E511C20CF44
:102280008AAD9BAD2EAD3FAD281B390B6DEC7CECC0
:10229000269FA001279F500D369F500D1124452BDE
:1022A00011F00E94E93FCE0181960E94020AF1CD11
:1022B000F701118210821382128215821482CE01DC
:1022C0008B960E94020ACDA8DEA80BA91CA90C15AA
:1022D0001D0539F0C80102960E94020A065F1F4FD1
:1022E000F6CF8BA99CA92FA938AD281B390B3595A2
:1022F00027956DEC7CEC269FA001279F500D369F03
:10230000500D1124452B11F00E94E93F22968EAD0D
:102310009FAD229726962EAD3FAD2697281B390BF1
:1023200035952795232B11F00E94E93FC701CE5A1E
:10233000DF4F0FB6F894DEBF0FBECDBFDF91CF9158
:102340001F910F91FF90EF90DF90CF90BF90AF90D3
:102350009F908F907F906F905F904F903F902F90C5
:102360000895CF93DF93EC01E881F981EA5BFF4F99
:10237000808191810E942A1C88819981FC01E95AFF
:10238000FF4F1082319621E0208335961182108212
:10239000DF91CF91089586E194E00C94B1022F92E1
:1023A0003F924F925F926F927F928F929F92AF92E5
:1023B000BF92CF92DF92EF92FF920F931F93CF9332
:1023C000DF93CDB7DEB72D970FB6F894DEBF0FBE03
:1023D000CDBF4C015B017A010E94A702F701028088
:1023E000F381E02DFD87EC87F701208031803501F6
:1023F000F2E06F0E711C4C855D852416350609F4DC
:10240000CFC0F101E190F1901F01E2FACC24C0F8B5
:10241000D12CCC0CDD1CE1FAFF27F0F9FE831F82E2
:102420004E815F81C40ED51ECC0CDD1CC7018170AE
:102430009927C80ED91EE3FE02C011E001C013E0C7
:10244000CE0101960E94412D1C821B82C114D10431
:10245000B9F49E012F5F3F4F412FB301C5010E9488
:10246000C807882341F287E090E00E94003A7C018F
:10247000212FAE014F5F5F4FB5010E9407188BC03F
:1024800051E0C516D104C1F49E012F5F3F4F412F8B
:10249000B301C5010E948508882309F4ACCF87E009
:1024A00090E00E94003A7C01212FAE014F5F5F4F08
:1024B000B5010E94E3176FC082E0C816D10409F08D
:1024C00050C09E012F5F3F4F412FB301C5010E94B5
:1024D0002E09882309F48FCF89E090E00E94003A0A
:1024E0002C019701232F3327269526952270332719
:1024F000C701892F99278695869581709927280F7E
:10250000391F220F331FC701892F992786958170A4
:102510009927280F391F8F2D992781709927880FA8
:10252000991FE7FAEE27E0F9E8871986488559856B
:10253000840F951F880F991FE6FA552750F95A877F
:102540001B86EA85FB858E0F9F1FE22E082F212F09
:10255000AE014F5F5F4FB501C2010E94C517B201C6
:102560001BC0F3E0CF16D10409F045CFAE014F5F99
:102570005F4FB301C5010E941908882309F43BCFBE
:1025800086E090E00E94003A7C01AE014F5F5F4F11
:10259000B5010E94FB17B701C4010E9431032BCF84
:1025A000C4012D960FB6F894DEBF0FBECDBFDF91EC
:1025B000CF911F910F91FF90EF90DF90CF90BF9040
:1025C000AF909F908F907F906F905F904F903F90D3
:1025D0002F9008958F929F92AF92BF92CF92DF92E9
:1025E000EF92FF920F931F93CF93DF93CDB7DEB798
:1025F000C854D1090FB6F894DEBF0FBECDBF7C0121
:102600006E0181E4C80ED11CD6010C9323961FAF36
:10261000239724962FAF249725963FAF259726968C
:102620004FAF269727965FAF279728966FAF2897CB
:1026300029967FAF2997C7010E94412D5701B2E02B
:10264000AB0EB11CC5010E94842DF701E65BFF4F64
:102650006B968CAD9DADAEADBFAD6B978083918316
:10266000A283B38334966F968CAD9DADAEADBFADF6
:102670006F9780839183A283B3833496A3964CADE6
:102680005DAD6EAD7FADA39740835183628373834D
:102690003496A4968FADA49780837497D6018D91BC
:1026A0009C9191838083329625968EAD9FAD259720
:1026B00091838083329627968EAD9FAD2797918325
:1026C0008083329629968EAD9FAD29979183808322
:1026D0003F961082319681E080833196108211827C
:1026E0001282138200E0A7962FADA797A6964FAD52
:1026F000A697A5966FADA597FE0131964F01CF0124
:102700000E941C2DB401C7010E94B32CBE0169595F
:102710007F4FC4010E94A82D982D892DE92FF82FF5
:10272000CF010896D50121912D93E817F907D9F724
:1027300088E0A80EB11CEC15FD0519F09E2F8F2F17
:10274000EDCFC85BDF4F0FB6F894DEBF0FBECDBF35
:10275000DF91CF911F910F91FF90EF90DF90CF907D
:10276000BF90AF909F908F9008952F923F924F927D
:102770005F926F927F928F929F92AF92BF92CF9211
:10278000DF92EF92FF920F931F93CF93DF93CDB71A
:10279000DEB72F970FB6F894DEBF0FBECDBF4C014A
:1027A0006F87142F9C012C5B3F4F7901633061F4DC
:1027B00060E070E0F901808191810E94C2272B01C5
:1027C0003C0162E070E00BC061E070E0F9018081E3
:1027D00091810E94C2272B013C0163E070E0F70168
:1027E000808191810E94C2276B017C019E868D862B
:1027F000F12FF4703F2E12FF12C0F401EE5BFF4F79
:10280000808191810E942C26F401EE5AFF4F208195
:102810003181428153810E94E03C87FD6AC0212FB3
:102820002170322E10FF34C0540137E5A30EB11CC5
:10283000F501808181111BC03D972081318142814A
:102840005381C301B2010E942F3E181684F4F50192
:102850003082319630827097808191810E94D72694
:10286000F401E75AFF4F6083718382839383F501FC
:102870008081882369F0F401E65BFF4F208131817C
:1028800042815381C701B6010E942F3E18168CF178
:10289000F12FF2703F2E11FF33C0540122E4A20E3B
:1028A000B11CF50160817181CE0101960E94382929
:1028B000C980DA80EB80FC800D811E812F813885F4
:1028C00049855A856B857C85F501808191810E94BF
:1028D0003925F401E35AFF4F882381F080819181EB
:1028E0000196918380833797208130E08217930788
:1028F0003CF0CE010D960E94B1115FC01182108292
:102900008401085A1F4FF801808194012A5B3F4FD0
:102910001901882339F0F901808191810E94F71A09
:10292000F8011082F401E95AFF4F8081882371F089
:102930003296408151816281738100E010E09801FC
:10294000F101808191810E94F51C36C0F401E25BA7
:10295000FF4F2F852130A1F4408151816281738125
:102960001F921F921F921F92812C912C5401C12CF7
:10297000D12C90E8E92E9FE3F92E9301820113C038
:1029800000811181228133811F921F921F921F9219
:10299000812C912C5401C12CD12C80E8E82E8FE39E
:1029A000F82EB301A201F101808191810E940B1BDD
:1029B0000F900F900F900F90312C832D2F960FB604
:1029C000F894DEBF0FBECDBFDF91CF911F910F9165
:1029D000FF90EF90DF90CF90BF90AF909F908F903F
:1029E0007F906F905F904F903F902F9008952F921F
:1029F0003F925F926F927F928F929F92AF92BF921F
:102A0000CF92DF92EF92FF920F931F93CF93DF93BA
:102A1000CDB7DEB760970FB6F894DEBF0FBECDBF5F
:102A20005C011C0188E5280E311CF101808188239E
:102A300039F07297808191810E94F71AF10110821A
:102A40003501F2E46F0E711CF30160817181CE01DA
:102A500001960E943829C980DA80EB80FC800D81C4
:102A60001E812F81388549855A856B857C85F301C8
:102A7000808191810E943925582E811102C0512CEC
:102A80003EC06B817C8180E090E00E947D3D6D873F
:102A90007E878F87988BF301808191810E945A26CF
:102AA000BC01882777FD8095982F0E947F3DAB0160
:102AB000BC01F501EA5BFF4F1F921F921F921F920C
:102AC000812C912C5401C12CD12C20E8E22E2FE333
:102AD000F22E0D851E852F853889808191810E9477
:102AE0000B1BF301808191810E944E260F900F9065
:102AF0000F900F90882319F281E0F1018083852DDA
:102B000060960FB6F894DEBF0FBECDBFDF91CF91B8
:102B10001F910F91FF90EF90DF90CF90BF90AF90FB
:102B20009F908F907F906F905F903F902F9008952F
:102B30004F925F926F927F928F929F92AF92BF92CD
:102B4000CF92DF92EF92FF920F931F93CF93DF9379
:102B5000EC018C010C5B1F4F633061F460E070E0AE
:102B6000F801808191810E94C2272B013C0162E023
:102B700070E00BC061E070E0F801808191810E94FB
:102B8000C2272B013C0163E070E0F8018081918154
:102B90000E94C2274B015C018E01085A1F4FF801A9
:102BA0008081882361F07097808191810E94D7266F
:102BB000FE01E75AFF4F60837183828393837E0116
:102BC000F7E5EF0EF11CF701808181110EC03D97F2
:102BD0002081318142815381C301B2010E94E03CD6
:102BE00087FF03C081E0F7018083F7017080CE0189
:102BF0008A5B9F4F6C017720C1F0FE01E65BFF4FBF
:102C00002081318142815381C501B4010E94E03CA1
:102C100087FF0BC0F601808191810E942A1CF70179
:102C2000108281E0F80180831AC0F8018081882336
:102C300039F0F601808191810E94F71AF801108223
:102C4000C75ADF4F488159816A817B8100E010E0DB
:102C50009801F601808191810E94F51C712C872DCD
:102C6000DF91CF911F910F91FF90EF90DF90CF9068
:102C7000BF90AF909F908F907F906F905F904F909C
:102C800008958A5B9F4FFC01808191810C94331CD5
:102C9000AF92BF92CF92DF92EF92FF920F931F936A
:102CA000CF93DF93CDB7DEB766970FB6F894DEBF4C
:102CB0000FBECDBF7C01162F80911F0481110DC066
:102CC00086E194E04E8B0E94A70281E080931F046E
:102CD0008BEC91E10E94ED394E8980910A028823A4
:102CE00009F49AC0B701CE0101964E8B0E94A92C1F
:102CF0008DB79EB7805491090FB6F8949EBF0FBE52
:102D00008DBFADB7BEB7119680E4F7013296019042
:102D10000D928A95E1F79E012F5F3F4F4E89612FFB
:102D2000CE0140960E94F10E2A893B8988899989B3
:102D3000281B390B359527951B861A861D861C8600
:102D40001F861E860FB6F894DEBF0FBECDBF690189
:102D5000CC0CDD1C232B91F0C6010E94513F8C014D
:102D6000009771F4E0911404F0911504309721F468
:102D700080E090E00E946E440995EECF00E010E004
:102D80001B870A871D870C87C00ED11EDF86CE8663
:102D9000AA88BB88C888D988CA14DB0479F0B8012E
:102DA00082E090E00E94FB31F601219131916F01A8
:102DB000FC01318320830E5F1F4FEECF1D870C87F0
:102DC000AE01465F5F4FB701CE0101960E94CF1161
:102DD000BE016F5F7F4F86E194E00E945C04CE01EC
:102DE00001960E94B102CE010A960E94020A109238
:102DF0000A0286E194E00E94D902882349F081E02A
:102E000080930A02CE0140960E94020A88E024C004
:102E1000CE0140960E94020A86E194E00E94D90207
:102E2000882329F081E080930A0280E115C086E1C1
:102E300094E00E94EC020E94A917009761F0803193
:102E4000910529F486E194E00E94E40204C021E0A7
:102E500020930A0202C080E090E066960FB6F894D4
:102E6000DEBF0FBECDBFDF91CF911F910F91FF90BD
:102E7000EF90DF90CF90BF90AF900895CF93DF9306
:102E8000EC014F818885482B6E818C819D810E9449
:102E9000B513882351F09885982319F0282F30E036
:102EA00009C09F81982321F406C020E030E002C0D1
:102EB00020E130E0C901DF91CF910895FC016681E6
:102EC000848195810E949815882319F080E190E013
:102ED000089580E090E00895FC01848195810E942E
:102EE000F714882319F080E190E0089580E090E0E5
:102EF0000895FC016681848195810E944116882392
:102F000019F080E190E0089580E090E00895CF927C
:102F1000DF92EF92FF920F931F93CF93DF938C0179
:102F20006B017A01EC018CEE92E089939993CE01CA
:102F30000E94412DF801D582C482B701CE01DF91F4
:102F4000CF911F910F91FF90EF90DF90CF900C9455
:102F5000B32C0F931F93CF93DF93EC01E881F9819A
:102F60000190F081E02D09958C018031910539F4B3
:102F7000BE016E5F7F4F8C819D810E94B32CC80182
:102F8000DF91CF911F910F910895CF92DF92EF9231
:102F90000F93CF93DF931F92CDB7DEB76C012983D8
:102FA0000E94871782EF92E0F60191838083298146
:102FB00026830783E0860F90DF91CF910F91EF90EA
:102FC000DF90CF9008950F931F93CF93DF931F92BD
:102FD000CDB7DEB78C0129830E94871788EF92E076
:102FE000F80191838083298126830F90DF91CF910F
:102FF0001F910F910895CF93DF93EC010E948717E3
:103000008EEF92E099838883DF91CF9108950F939B
:103010001F93CF93DF931F92CDB7DEB78C01298327
:103020000E94871784E093E0F801918380832981CF
:1030300026830F90DF91CF911F910F910895FC018E
:1030400083E090E090878783138612861486089524
:10305000EF92FF921F93CF93DF931F92CDB7DEB70E
:103060007C01162FFC0161858CEE94E049830E945F
:10307000C82F612F8CEE94E00E946F2F4981642F3E
:103080008CEE94E00E946F2F8CEE94E00E94E52F6E
:10309000F70186830F90DF91CF911F91FF90EF9002
:1030A0000895CF93DF93EC018F819885029729F4DF
:1030B00040E069E3CE010E94281840E063E2CE01BF
:1030C0000E9428184FE660E2CE01DF91CF910C9468
:1030D00028189F92AF92BF92CF92DF92EF92FF9209
:1030E0000F931F93CF93DF93EC0169858CEE94E0EF
:1030F0000E94C82FE091EC04F091ED040190F08162
:10310000E02D68EA8CEE94E009958CEE94E00E9444
:10311000E52F46E069858CEE94E00E94C52F0E9461
:103120002F357B018CEE94E00E94172F069784F4D4
:103130008A859B85892BB1F30E942F356E197F09F3
:103140008A859B858617970768F781E08C872CC056
:103150008CEE94E00E941F2FA82E8CEE94E00E942B
:103160001F2F982E8CEE94E00E941F2FE82E8CEEDD
:1031700094E00E941F2FB82E8CEE94E00E941F2F27
:10318000F82E8CEE94E00E941F2FD92CC12CCA2857
:10319000D982C8821B2D00E00E291B830A83982F39
:1031A00088278F299D838C83DF91CF911F910F9169
:1031B000FF90EF90DF90CF90BF90AF909F900895D9
:1031C0001F93CF93DF931F92CDB7DEB7162F8CEEF0
:1031D00094E049830E94C82F4981642F8CEE94E0CB
:1031E0000E946F2F8CEE94E00E94E52F811114C095
:1031F00041E0612F8CEE94E00E94C52F8CEE94E0AC
:103200000E94172F892B41F08CEE94E00F90DF91F4
:10321000CF911F910C941F2F8FEF9FEF0F90DF9195
:10322000CF911F910895EF92FF920F931F93CF9329
:10323000DF937C01EB018A016330710521F042309C
:10324000510509F051C0CE010197039758F50115BA
:10325000110581F04FE050E06BE6C7010E94E018D5
:103260008F3F2FEF920719F001E010E013C00130FB
:10327000110551F04FE050E06AE6C7010E94E018E6
:103280008F3FEFEF9E0721F4C330D10569F027C0CF
:1032900000E010E0C330D10529F4873D9105F1F538
:1032A000C2E0D0E02097D9F40115110561F04FE09C
:1032B00050E069E6C7010E94E018833D910589F15D
:1032C0000130110549F04FE050E068E6C7010E9467
:1032D000E018833D910541F1C330D10519F002306A
:1032E000110511F480E025C0F701D087C78320972E
:1032F00059F0D7FD11C023977CF40130110511F46A
:103300008BE608C08AE606C00130110511F489E693
:1033100001C088E6F701818781E00BC0C1E0D0E001
:10332000C1CF01E010E002C000E010E0C0E0D0E05A
:10333000D6CFDF91CF911F910F91FF90EF9008951D
:10334000EF92FF920F931F93CF93DF93CDB7DEB72A
:1033500028970FB6F894DEBF0FBECDBF7C01FC01ED
:1033600060837183802F0283138324833583468394
:10337000578360E00E94323760E0F70183810E944A
:10338000323760E0F70184810E94323760E0F70154
:1033900085810E94323760E0F70186810E943237D2
:1033A00060E0F70187810E94323761E0F701808198
:1033B0000E94323760E0F70181810E94323761E07C
:1033C000F701808128960FB6F894DEBF0FBECDBFFF
:1033D000DF91CF911F910F91FF90EF900C946B377D
:1033E0000F931F93CF93DF93EC0177FF05C0719587
:1033F0006195710981E001C080E08B016F3F71052B
:1034000019F014F00FEF10E0811107C0B8018A81A4
:103410000E94183660E070E006C060E070E08A81CB
:103420000E941836B8018B81DF91CF911F910F91C7
:103430000C9418360F931F93CF93DF93EC0177FF13
:1034400005C071956195710981E001C080E08B0133
:103450006F3F710519F014F00FEF10E0811107C0F4
:10346000B8018D810E94183660E070E006C060E00F
:1034700070E08D810E941836B8018E81DF91CF9166
:103480001F910F910C9418360F931F93CF93DF93D6
:10349000EC018A010E94F019B801CE01DF91CF91B1
:1034A0001F910F910C941A1AFC0184810E94F3352C
:1034B00029E0AC01249FC001259F900D112408959F
:1034C000FC0187810E94F33529E0AC01249FC001F3
:1034D000259F900D11240895FC0181810E94A13740
:1034E00021E0892B09F020E0822F08958F929F928E
:1034F000AF92BF92CF92DF92EF92FF920F931F9302
:10350000CF93DF93CDB7DEB72A970FB6F894DEBF1F
:103510000FBECDBF4C01E982FA820B831C832D8341
:103520003E834F83588769877A87FC01148215820E
:1035300016821782108611861286138614861586C7
:1035400016861786108A118A128A138A148A158A97
:10355000168A178A108E7C01F7E2EF0EF11CC70164
:103560000E94A22B8401065D1F4FC8010E94A22B5E
:10357000F401B182A082D382C2828981818F8A8143
:10358000828F6B8170E0C7010E946D2C6C8170E0AE
:10359000C8010E946D2C8D81F401838F8E81848FF0
:1035A0008F81858F8885868F898590E0A0E0B0E047
:1035B000878F90A3A1A3B2A38A8590E0A0E0B0E09A
:1035C00083A394A3A5A3B6A32A960FB6F894DEBF4F
:1035D0000FBECDBFDF91CF911F910F91FF90EF9064
:1035E000DF90CF90BF90AF909F908F900895CF9332
:1035F000DF93EC01198A1A8A1B8A1C8A1D861E8693
:103600001F86188A0E943B3569877A878B879C873B
:10361000DF91CF9108952F923F924F925F926F92D8
:103620007F928F929F92AF92BF92CF92DF92EF9252
:10363000FF920F931F93CF93DF93CDB7DEB76497BD
:103640000FB6F894DEBF0FBECDBF1C0149835A836D
:103650006B837C83098B1A8B2B8B3C8B49A45AA4DC
:103660006BA47CA449865A866B867C860E943B3577
:10367000D10119962D913D914D915C911C972B0193
:103680003C01421A530A640A750A4D825E826F82B7
:10369000788619966D937D938D939C931C97411416
:1036A00051046104710409F4A9C029893A894B893C
:1036B0005C8969817A818B819C810E947B3C6983D2
:1036C0007A838B839C83C301B2010E947F3D6D830B
:1036D0007E838F83988720E034E244E759E40E9498
:1036E000E43C9B01AC0169817A818B819C810E94C1
:1036F000333EF10121893289438954890E947C3CFF
:103700002B013C01D10151966D937D938D939C9338
:10371000549729813A814B815C81C701B6010E948F
:10372000333E6B017C01A3019201C501B4010E94EB
:10373000333E9B01AC01C701B6010E947C3C4B01AA
:103740005C01F101258536854785508969817A813B
:103750008B819C810E947B3C2B013C012D813E8111
:103760004F81588560E074E284E799E40E94E43C6C
:103770009B01AC01C301B2010E94333E9B01AC012D
:1037800069857A858B859C850E94333E9B01AC01BF
:10379000C501B4010E947C3C0E944C3D49805A8086
:1037A0006B807C80D1011D964D925D926D927C92D2
:1037B00050975A962C915A9730E0A901461B570B07
:1037C000620F731F8D919C9164960FB6F894DEBFC3
:1037D0000FBECDBFDF91CF911F910F91FF90EF9062
:1037E000DF90CF90BF90AF909F908F907F906F9021
:1037F0005F904F903F902F900C94441A64960FB6B0
:10380000F894DEBF0FBECDBFDF91CF911F910F9116
:10381000FF90EF90DF90CF90BF90AF909F908F90F0
:103820007F906F905F904F903F902F90089570E041
:10383000FC0180819181413029F444275527461BA2
:10384000570B06C022273327261B370BAB01B901C4
:103850000C94441A40E050E060E070E0FC0180818C
:1038600091810C94441A8F929F92AF92BF92CF9203
:10387000DF92EF92FF921F93CF93DF93EC01162F0D
:103880008A819B810E94D7264B015C018C8181112A
:103890003BC0113029F420E030E044EB52E404C096
:1038A00020E030E044EB52ECC501B4010E947C3CC6
:1038B0006B017C0120E030E044EB53E40E942F3E9A
:1038C00087FD09C020E030E044EB53E4C701B601B6
:1038D0000E947B3C15C0CD82DE82EF82F88620E01C
:1038E00030E0A901C701B6010E94E03C87FF0CC08F
:1038F00020E030E044EB53E4C701B6010E947C3C79
:103900006D837E838F839887A50194016D817E816D
:103910008F8198850E947B3C6B017C0120E030E028
:1039200044E353E40E942F3E18164CF420E030E0AC
:1039300044EB53E4C701B6010E947B3C12C020E077
:1039400030E044E353ECC701B6010E94E03C87FF3E
:103950000AC020E030E044EB53E4C701B6010E9406
:103960007C3C6B017C0120E030E0A901C701B6017D
:103970000E942F3E46015701181624F0B7FAB09462
:10398000B7F8B094698D70E080E090E00E947F3DD0
:103990009B01AC01C501B4010E94E03C87FF06C059
:1039A000CE010E942A1C1C8281E013C020E030E07E
:1039B000A901C701B6010E942F3E181614F441E078
:1039C00001C043E06A8DCE010E94171C81E08C8308
:1039D00080E0DF91CF911F91FF90EF90DF90CF902B
:1039E000BF90AF909F908F9008958F929F92AF92CB
:1039F000BF92CF92DF92EF92FF920F931F93CF93DC
:103A0000DF93EC014A015B016801790101151105A1
:103A10002105310519F18D899E89AF89B88D892BD2
:103A20008A2B8B2B31F40E943B356D8B7E8B8F8BD9
:103A3000988F0E943B350D891E892F89388D601B18
:103A4000710B820B930BC616D706E806F90630F405
:103A50001D8A1E8A1F8A188E81E04BC08A819B8135
:103A60000E94D7269B01AC01C501B4010E947B3C9A
:103A70006B017C0120E030E044E353E40E942F3EE0
:103A800018164CF420E030E044EB53E4C701B601D3
:103A90000E947B3C12C020E030E044E353ECC701BD
:103AA000B6010E94E03C87FF0AC020E030E044EB12
:103AB00053E4C701B6010E947C3C6B017C01970175
:103AC000860130581F921F921F921F92812C912CB9
:103AD0005401C12CD12C80E8E82E8FE3F82EB501DB
:103AE000A401CE010E940B1B0F900F900F900F901E
:103AF00080E0DF91CF911F910F91FF90EF90DF90C9
:103B0000CF90BF90AF909F908F900895FF920F93AA
:103B10001F93CF93DF93EC018B01F42EE881F981A1
:103B2000848595850E946C1A882339F065E073E0DE
:103B300083EC95E00E94743AFFCFEC81FD81B801DF
:103B400084859585FF2019F00E94F01902C00E941B
:103B50001A1AC80117FF03C091958195910962E374
:103B600070E00E94113F892B39F5FF2069F060EF6A
:103B700072E083EC95E00E94423AEA81FB81848501
:103B800095850E94541A0CC06AED72E083EC95E0B2
:103B90000E94423AEA81FB81848595850E94601AE1
:103BA0004AE050E0BC0183EC95E0DF91CF911F919A
:103BB0000F91FF900C94653BDF91CF911F910F9176
:103BC000FF9008956F927F928F929F92AF92BF92D3
:103BD000CF92DF92EF92FF920F931F93CF93DF93D9
:103BE000CDB7DEB72C970FB6F894DEBF0FBECDBFB2
:103BF0003C01842F89829A82AB82BC82CD82DE8294
:103C0000EF82F88609871A872B873C8729813A81BA
:103C1000F301338322832B813C81358324832D81DF
:103C20003E81378326832F813885318720872985F8
:103C30003A85338722872B853C85358724874083C7
:103C4000668762E00E943237F30111822C960FB62C
:103C5000F894DEBF0FBECDBFDF91CF911F910F91C2
:103C6000FF90EF90DF90CF90BF90AF909F908F909C
:103C70007F906F9008950F931F93CF93DF9300D0A1
:103C800000D000D0CDB7DEB79A8389839C838B8325
:103C90009E838D8300E010E041E0B801CE010196E3
:103CA0000E94861D6FE070E080E090E00E945E352B
:103CB0000F5F1F4F011581E0180771F70FEF10E03C
:103CC00041E0B801CE0101960E94861D6FE070E0D0
:103CD00080E090E00E945E350150110901158FEFE0
:103CE000180771F701E01FEF41E0B801CE0101961E
:103CF0000E94861D6FE070E080E090E00E945E35DB
:103D00000F5F1F4F0130110579F700E010E040E030
:103D1000B801CE0101960E94861D6FE070E080E040
:103D200090E00E945E350F5F1F4F011581E018077C
:103D300071F70FEF10E040E0B801CE0101960E944C
:103D4000861D6FE070E080E090E00E945E350150DB
:103D5000110901158FEF180771F701E01FEF40E01F
:103D6000B801CE0101960E94861D6FE070E080E0F0
:103D700090E00E945E350F5F1F4F0130110579F70B
:103D800080E026960FB6F894DEBF0FBECDBFDF9160
:103D9000CF911F910F91089560910C02FC018285D3
:103DA00093850E94331C882329F080914D048F5FF6
:103DB00080934D0480914D04843059F410924D0449
:103DC00080910C02813011F483E001C081E0809386
:103DD0000C0280E008950F931F93CF93DF93EC01C3
:103DE00080914E0481110FC0888599850E94D72645
:103DF0006093490470934A0480934B0490934C045D
:103E000081E080934E0480910B02882331F08A85F3
:103E10009B850E94F71A10920B0240914904509121
:103E20004A0460914B0470914C0400E41BE42CE4C0
:103E300030E08A859B850E94F51C882321F081E073
:103E400080930B0201C080E0DF91CF911F910F9111
:103E50000895FC01828193810C94F714AF92BF9274
:103E6000CF92DF92EF92FF920F931F93CF93DF9346
:103E7000CDB7DEB7C259D1090FB6F894DEBF0FBE79
:103E8000CDBF8C01FC0164817581CE018F579F4F9E
:103E90000E943829CD57DF4FA881C358D040CC5756
:103EA000DF4FB881C458D040CB57DF4FF880C5589A
:103EB000D040CA57DF4FE880C658D040C957DF4FBF
:103EC000D880C758D040C857DF4FC880C858D040A6
:103ED000C757DF4FB880C958D040C657DF4FA880BA
:103EE000CA58D040CF57DF4F28813981C158D040C0
:103EF000F80184819581FC01828D938D2817390703
:103F000039F46BEB72E083EC95E00E94743A6EC07A
:103F10002830310508F44AC080E090E0E0E04CE051
:103F200050E0B901042E02C0769567950A94E2F735
:103F3000677011F4EE2351F0EDE8F0E0EC0FFD1F97
:103F4000E80FF91F605D60830196E1E0435051097D
:103F50004D3FFFEF5F0729F7AE0143575F4FFA016F
:103F6000E80FF91F1082C457DF4F8881CC58D0402A
:103F70008F93C557DF4F8881CB58D0408F93AF9236
:103F8000BF92CF92DF92EF92FF92BF93AF933F9396
:103F90002F935F934F9386E093E09F938F93CE018F
:103FA00001969F938F930E94884114C0AF92BF9255
:103FB000CF92DF92EF92FF92BF93AF933F932F93F5
:103FC00080E593E09F938F93CE0101969F938F930B
:103FD0000E9488410FB6F894DEBF0FBECDBFBE0170
:103FE0006F5F7F4F83EC95E00E94673A80E0CE568A
:103FF000DF4F0FB6F894DEBF0FBECDBFDF91CF917C
:104000001F910F91FF90EF90DF90CF90BF90AF90F6
:1040100008954F925F926F927F928F929F92AF928C
:10402000BF92CF92DF92EF92FF920F931F93CF93A5
:10403000DF93CDB7DEB769970FB6F894DEBF0FBE3A
:10404000CDBF7C010E943B3520914704309148044C
:104050002130310509F437C12230310509F4E9C0B6
:10406000232B09F0FAC28090430490904404A0905E
:104070004504B090460489288A288B2841F460932F
:1040800043047093440480934504909346048090C5
:10409000430490904404A0904504B0904604DC0191
:1040A000CB0188199909AA09BB09A0904104B090D5
:1040B000420488389341A105B10508F05EC085012E
:1040C0000F5F1F4F1093420400934104D7011896CD
:1040D000ED91FC91199760857185882777FD809512
:1040E000982F0E947F3D2B013C0180903D049090D1
:1040F0003E04A0903F04B0904004A50194010E94AA
:104100007B3C6B017C01B80180E090E00E947D3D2A
:104110009B01AC01C701B6010E94E43C9B01AC01CC
:10412000C501B4010E947C3C9B01AC0160933D043D
:1041300070933E0480933F0490934004C301B20106
:104140000E947B3C9B01AC01C701B6010E94333E3B
:104150009B01AC016091390470913A0480913B0459
:1041600090913C040E947C3C6093390470933A0423
:1041700080933B0490933C0470C2B5016150710977
:1041800080E090E00E947D3D9B01AC01609139048C
:1041900070913A0480913B0490913C040E94E43C6D
:1041A0000E949A3E609335047093360480933704DE
:1041B000909338046DEA72E083EC95E00E94743AC3
:1041C00069EA72E083EC95E00E94423A40913D0436
:1041D00050913E0460913F047091400422E030E031
:1041E00083EC95E00E94683C62EA72E083EC95E023
:1041F0000E94743A6EE972E083EC95E00E94423AC4
:104200004091350450913604609137047091380420
:1042100022E030E083EC95E00E94683C1092430479
:1042200010924404109245041092460482E090E0FB
:1042300045C06AE773E083EC95E00E94673A22E0AC
:1042400030E040E050E064EB73E483EC95E00E94E2
:10425000663C63EA73E083EC95E00E94863A62EC88
:1042600073E083EC95E00E94863A6CE271E080E0B6
:1042700090E00E945E3567EC73E083EC95E00E946D
:10428000863A6CE271E080E090E00E945E356CEC72
:1042900073E083EC95E00E94863A6CE271E080E086
:1042A00090E00E945E3561ED73E083EC95E00E9442
:1042B000863A81E08093340481E090E09093480452
:1042C00080934704CAC18090430490904404A09016
:1042D0004504B090460489288A288B2841F46093CD
:1042E0004304709344048093450490934604809063
:1042F000430490904404A0904504B09046042B01E0
:104300003C01481859086A087B08D7011896ED91B6
:10431000FC91199760857185882777FD8095982F86
:104320000E947F3D20913D0430913E0440913F0426
:10433000509140040E947B3C29E23CE54FE05CE365
:104340000E94333E6B017C01C301B2010E947D3D9E
:104350009B01AC01C701B6010E94333E20E034E26C
:1043600044E759E40E94E43C209130043091310448
:1043700040913204509133040E947C3C4B015C011B
:10438000609330047093310480933204909333042B
:1043900020912C0430912D0440912E0450912F0433
:1043A0000E942F3E181644F480922C0490922D0403
:1043B000A0922E04B0922F04B8EB4B16BBE05B0624
:1043C0006104710408F449C120E030E0A901C7018B
:1043D000B6010E942F3E18165CF42DEC3CEC4CEC20
:1043E0005DE3C701B6010E94E03C87FF36C10BC008
:1043F0002DEC3CEC4CEC5DEBC701B6010E942F3E6E
:1044000018160CF02AC180912B04811112C06CE7A0
:1044100072E083EC95E00E94743A1092430410928B
:104420004404109245041092460481E080932B04CA
:1044300014C120912C0430912D0440912E045091F0
:104440002F0460E070E084EB93E40E94E43C29E2F6
:104450003CE54FE05CE30E94333E60932704709399
:1044600028048093290490932A0466E772E083EC81
:1044700095E00E94743A69E672E083EC95E00E9450
:10448000423A40912C0450912D0460912E04709179
:104490002F0422E030E083EC95E00E94683C69E55F
:1044A00072E083EC95E00E94423A409127045091DB
:1044B00028046091290470912A0422E030E083EC02
:1044C00095E00E94683C80913D0490913E04A0914B
:1044D0003F04B09140048D879E87AF87B88B809151
:1044E000270490912804A0912904B0912A048D8B6F
:1044F0009E8BAF8BB88F8091350490913604A0913C
:104500003704B0913804898B9A8BAB8BBC8B6E01CE
:10451000EDE0CE0ED11CE12CF12CD6016D916D0198
:10452000C701698F0E94B243698D681719F0C701EE
:104530000E94BA43BFEFEB1AFB0AECE0EE16F1045F
:1045400061F78E010F5F1F4FE12CF12CC7010E9414
:10455000B243D8018D938D01BFEFEB1AFB0AECE05B
:10456000EE16F10499F749805A806B807C808D802B
:104570009E80AF80B884C984DA84EB84FC8460E3D5
:1045800072E083EC95E00E94743A67E272E083EC9B
:1045900095E00E94423A40913D0450913E04609162
:1045A0003F047091400422E030E083EC95E00E94EB
:1045B000663C6CE172E083EC95E00E94423A22E0B6
:1045C00030E0B301A20183EC95E00E94683C62E117
:1045D00072E083EC95E00E94423A4091350450919C
:1045E0003604609137047091380422E030E083ECA7
:1045F00095E00E94663C67E072E083EC95E00E94E3
:10460000423A22E030E0B501A40183EC95E00E943B
:10461000683C67EF71E083EC95E00E94423A40917C
:104620002704509128046091290470912A0422E003
:1046300030E083EC95E00E94663C6CEE71E083EC28
:1046400095E00E94423A22E030E0B701A60183ECF7
:1046500095E00E94683C81E001C080E069960FB659
:10466000F894DEBF0FBECDBFDF91CF911F910F91A8
:10467000FF90EF90DF90CF90BF90AF909F908F9082
:104680007F906F905F904F900895FC018085918599
:104690000E94D726AB01BC0122E030E083EC95E01C
:1046A0000E94683C80E0089544E0FC01828193818F
:1046B0000E94B51391E0843009F090E0892F0895AD
:1046C00041E0FC01828193810E94B51391E0813029
:1046D00009F090E0892F089542E0FC0182819381E6
:1046E0000E94B51391E0823009F090E0892F08957F
:1046F00041E063E0FC01828193810E9448160097AB
:1047000049F0409749F065EA71E083EC95E00E943A
:10471000743A02C080E0089581E00895EF92FF921C
:104720000F931F93CF93DF93CDB7DEB728970FB6C4
:10473000F894DEBF0FBECDBFFC0102811381B8012A
:10474000CE0107960E94A92C8DB79EB7805491097F
:104750000FB6F8949EBF0FBE8DBFADB7BEB7119612
:1047600080E4F801329601900D928A95E1F79E015E
:10477000295F3F4F41E067E0CE0101960E94F10EB4
:1047800009811A81EB80FC800FB6F894DEBF0FBE62
:10479000CDBF0E151F0539F0F801819191918F0160
:1047A0000E947004F6CF89819A812D813E81281B59
:1047B000390B35952795232B11F00E94E93F81E0B5
:1047C00028960FB6F894DEBF0FBECDBFDF91CF9114
:1047D0001F910F91FF90EF900895CF93DF93EC011D
:1047E00088810E94A137892B09F45FC089818111DA
:1047F0005CC088859985009711F00E9414274E852A
:1048000050E0FA013197E031F10508F03FC0EE5871
:10481000FF4F0C94473F198248C0CE010E943B1EB7
:1048200043C0CE010E94CC1E3FC0CE010E94EB1EB1
:104830003BC0CE010E94291F37C0CE010E942E1F0F
:1048400033C0CE010E9409202FC0CE010E94452313
:104850002BC063E001C061E0CE010E94542324C05C
:1048600063E001C061E0CE010E9460231DC063E0EF
:1048700001C061E0CE010E946C2316C0CE010E94EF
:10488000782312C0CE010E948E230EC068E173E02F
:1048900083EC95E00E94423A4AE050E06E8583EC5A
:1048A00095E00E94483B81E089838981DF91CF9127
:1048B00008958EBD00000DB407FEFDCF8EB508959E
:1048C0001F93CF93DF93FC0123A92223A1F085A995
:1048D00091E0980F95ABDF01A80FB11DA80FB11D96
:1048E00053964C91539754963C91215023AB903161
:1048F00099F415AA11C080898823F9F0228991E0E2
:10490000920F928BDF01A20FB11D1C918150808B01
:10491000903129F4128A03C0842F932F15C08BE5A0
:104920000E945924282F30E0D22FCC27812F0E94BB
:1049300059249E01282BC90107C08AE50E945924E9
:10494000282F30E010E0F0CFDF91CF911F91089534
:104950000F931F93CF93DF93CDB7DEB78C018CE01D
:10496000EFE0F2E0D8015A9601900D928A95E1F7B6
:10497000F80111AE12AE13AEE45AFF4F1082319619
:1049800010823196108231961082339611821082F5
:1049900032968EE190E09183808388E691E00E94D8
:1049A000513FF80190A787A3E358FF4F108211826F
:1049B00012821382349611821082329611821082F2
:1049C0007D97118210823296118210828F81F801B8
:1049D00086A3E559FF4F8885998591838083329618
:1049E0008A859B85AC85BD8580839183A283B383B3
:1049F00034968E859F85A889B98980839183A28307
:104A0000B38334968A899B89AC89BD8980839183DD
:104A1000A283B38334964E895F89688D798D4083F4
:104A20005183628373830E94732C8CB58C7F816069
:104A30008CBD8DB58E7F8DBDF801E659FF4F81E0AD
:104A400080837B968A8D9B8D9183808332964C8D5B
:104A50005D8D6E8D7F8D408351836283738388A1CA
:104A60003496808360E0DF91CF911F910F910C9479
:104A70003237CF92DF92EF92FF920F931F93CF9333
:104A8000DF93CDB7DEB72C970FB6F894DEBF0FBE1D
:104A9000CDBFC982DA8229813A812150310981E072
:104AA0002230310508F080E02C960FB6F894DEBF76
:104AB0000FBECDBFDF91CF911F910F91FF90EF906F
:104AC000DF90CF9008953F924F925F926F927F92C6
:104AD0008F929F92AF92BF92CF92DF92EF92FF920E
:104AE0000F931F93CF93DF93CDB7DEB72C970FB6FD
:104AF000F894DEBF0FBECDBF4C01C982DA82EB82D3
:104B0000FC820D831E8349875A873A2C0D811E81B2
:104B10007C018DE6E80EF11CF401E559FF4F608140
:104B200071818B819C81681B790B77FF03C0719524
:104B300061957109882777FD8095982F0E947F3DA8
:104B4000F70120813181428153810E94333E2B0144
:104B50003C01F1E78F0E911C89859A8597FD01969E
:104B6000BC0175956795600F711F882777FD80954B
:104B7000982F0E947F3DF401208131814281538131
:104B80000E94333E4B015C01A30192010E947B3CD9
:104B90006B017C01332009F445C060EA73E083ECCB
:104BA00095E00E94423A69817A814AE050E083ECC4
:104BB00095E00E945F3B6AE973E083EC95E00E9418
:104BC000423A4AE050E0B80183EC95E00E945F3B36
:104BD0006FE873E083EC95E00E94423A22E030E017
:104BE000B301A20183EC95E00E94663C62E873E0A9
:104BF00083EC95E00E94423A22E030E0B501A40146
:104C000083EC95E00E94663C68E773E083EC95E0F6
:104C10000E94423A22E030E0B701A60183EC95E021
:104C20000E94683CC701B6012C960FB6F894DEBF0F
:104C30000FBECDBFDF91CF911F910F91FF90EF90ED
:104C4000DF90CF90BF90AF909F908F907F906F90AC
:104C50005F904F903F900895FC0186A10E94F3352C
:104C600083319105B4F0BC01882777FD8095982F9A
:104C70000E947F3D2FED3FE443E951E40E947B3CDD
:104C80009B01AC016AE979EA86E195E40E94E43C83
:104C9000089560E070EC89E794E4089585579F4F8C
:104CA000FC0180810E94A13721E0892B09F420E0DA
:104CB000822F089585599F4FFC018081918108952D
:104CC000EF92FF920F931F93CF93DF93EC018C0130
:104CD0000C5F1F4FC8010E941F188CEE94E00E94C9
:104CE000AE2F42E050E063E070E0C8010E9413196B
:104CF000811107C068E573E083EC95E00E94743A87
:104D0000FFCFC8010E9451181D8A1E8A1F8A188E63
:104D1000198A1A8A1B8A1C8A188219821A821B8293
:104D20007E0189E1E80EF11C00E010E0C8010E945C
:104D3000B243F70181937F010F5F1F4F0C301105C4
:104D4000A9F761E573E083EC95E00E94423A498D52
:104D50005A8D6B8D7C8D22E030E083EC95E00E94D3
:104D6000663C68E473E083EC95E00E94423A4D8D26
:104D70005E8D6F8D78A122E030E083EC95E00E949B
:104D8000663C68E373E083EC95E00E94423A49A1F7
:104D90005AA16BA17CA122E030E083EC95E0DF9189
:104DA000CF911F910F91FF90EF900C94683CCF92A0
:104DB000DF92EF92FF92FC01208131814281538189
:104DC00061897289838994890E947C3C6B017C0192
:104DD00020E030E044EB53E40E942F3E181654F4D8
:104DE00020E030E044EB53E4C701B6010E947B3C75
:104DF0006B017C0120E030E0A901C701B6010E94EF
:104E0000E03C87FF0AC020E030E044EB53E4C701F8
:104E1000B6010E947C3C6B017C01C701B601FF908A
:104E2000EF90DF90CF9008954F925F926F927F92B4
:104E30008F929F92AF92BF92CF92DF92EF92FF92AA
:104E4000CF93DF93EC0104960E9469180E943B35D2
:104E5000CD88DE88EF88F88C2B013C014C185D086A
:104E60006E087F086D8B7E8B8F8B988F6885798518
:104E7000882777FD8095982F0E947F3D298D3A8D58
:104E80004B8D5C8D0E947B3C6B017C0120E030E00F
:104E9000A9010E942F3E46015701181624F0B7FAC7
:104EA000B094B7F8B09420E030E040E450E46D8D69
:104EB0007E8D8F8D98A10E94333E9B01AC01C50170
:104EC000B4010E94E03C87FF03C0C12CD12C7601C5
:104ED000C301B2010E947D3D9B01AC01C701B60137
:104EE0000E94333E20E034E244E759E40E94E43C6F
:104EF00029A13AA14BA15CA10E94333E29893A899C
:104F00004B895C890E947C3C6B017C0120E030E095
:104F1000A9010E94E03C20E030E044EB53E487FF2D
:104F200005C0C701B6010E947C3C13C0C701B60191
:104F30000E942F3E87FF05C0C98ADA8AEB8AFC8A65
:104F40000CC020E030E044EB53E4C701B6010E94FE
:104F50007B3C698B7A8B8B8B9C8BDF91CF91FF9005
:104F6000EF90DF90CF90BF90AF909F908F907F9009
:104F70006F905F904F900895FC014083518362834E
:104F800073830895CF92DF92EF92FF92FC0161301C
:104F9000710569F024F4672BC9F480810BC062307D
:104FA000710539F06330710589F4838103C0818113
:104FB00001C082810E94F335BC01882777FD80956E
:104FC000982F0E947F3D6B017C0103C0C12CD12C26
:104FD000760120E030E048E951E4C701B6010E94C3
:104FE000E03C87FD11C02FED3FE443E951E4C701E8
:104FF000B6010E947B3C9B01AC016AE979EA86E13B
:1050000095E40E94E43C04C060E070EC89E794E41D
:10501000FF90EF90DF90CF9008953F924F925F9274
:105020006F927F928F929F92AF92BF92CF92DF92B8
:10503000EF92FF920F931F93CF93DF9300D01F92B5
:10504000CDB7DEB7AC015B01FC0180AD81114AC078
:10505000EE24EA94FE2C6A01F2E0CF0ED11CC601C8
:105060004A835B830E9460248C014A815B810097A4
:1050700059F4EF2811F07801F2CF8AE090E00E9415
:10508000863580E090E0DFC085352AEA920749F452
:1050900085E5E8168AEAF80671F7FA0112AE11AE54
:1050A00023C08635FAEA9F0759F425E5E2162AEA75
:1050B000F20609F781E090E0FA0192AF81AF14C0E7
:1050C0008A3AF5E59F07B9F664ED73E083EC95E065
:1050D0004A835B830E94863A80E00E9459244A8179
:1050E0005B81C9CFFA0110AEFA0114AE13AE6A01AA
:1050F000F2E0CF0ED11C6CE0362E88248394912CE4
:10510000FA0183AD94AD8A159B0508F09CC08238E6
:10511000910508F098C0C6014A835B830E94602411
:105120008C014A815B81FA0123AD34AD8535FAEA01
:105130009F0731F481E0FA0180AF12AE11AE0BC0CF
:105140008635FAEA9F0749F481E0FA0180AF81E0F1
:1051500090E092AF81AFC90176C00097E1F3FA0108
:1051600085AD96AD8217930798F44E9696AF85AFAE
:10517000389EB001399E700D1124808191814A833F
:105180005B830E9478404A815B81FA01918380832E
:10519000FA0123AD34AD329EC001339E900D11242F
:1051A000E080F180E80EF91E3701412C512C20E0FF
:1051B000FA0181AD92AD892B31F4253021F4F7014C
:1051C0001386128612C0C60129834A835B830E941C
:1051D0006024480E591EF301819391933F01298168
:1051E0002F5F4A815B81263019F70415150539F4C4
:1051F000FA0183AD94AD019694AF83AF0AC06CED14
:1052000073E083EC95E04A835B830E94863A5B817E
:105210004A81C6014A835B830E9460244A815B8184
:105220008535FAEA9F0721F4FA0112AE11AE68CF74
:1052300086359A4A21F4FA0192AE81AE61CFFA0125
:1052400083AD94AD00C00F900F900F90DF91CF9180
:105250001F910F91FF90EF90DF90CF90BF90AF9094
:105260009F908F907F906F905F904F903F900895A8
:105270002F923F924F925F926F927F928F929F9266
:10528000AF92BF92CF92DF92EF92FF920F931F9354
:10529000CF93DF93CDB7DEB763970FB6F894DEBF39
:1052A0000FBECDBF3C014B018CE0FB017A96D301D0
:1052B00001900D928A95E1F78B01095D1F4F68EE11
:1052C00073E0C8010E940D282C0168EE73E0C8014C
:1052D0000E940D28480E591E1E861D86212C312C39
:1052E00020EF2F8733E2388BA4E7BA2E89EC898B25
:1052F000F401E758FF4FFB8BEA8BF40124143504CB
:105300000CF065C087A190A52D853E85820F931F67
:10531000FC01DE0111962CE001900D922A95E1F737
:10532000FC01E080F18006811781C084D184C7012F
:105330000197029708F041C00C9DB0010D9D700DC2
:105340001C9D700D112480E090E00E947D3DEA8953
:10535000FB8920813181428153810E942F3E1816A2
:1053600064F5FA82E982202F18870F834C2DDA86A4
:10537000C986A12CCE2CDA80EB80FC800D811E81A9
:1053800038855A856B857C85C4010E9463257B0125
:105390008C012F8538894B2D59890E942F3E87FD1E
:1053A0000CC0FE013196D3018CE001900D928A95DC
:1053B000E1F7EF86F88AB02E198BFFEF2F1A3F0A1C
:1053C0002D853E85245F3F4F3E872D8796CFEB5836
:1053D000FF4F20813181428153816F8578898B2DE8
:1053E00099890E942F3E181694F4F30180819181CF
:1053F0000197880F991F880D991DFC01EA59FF4FED
:10540000208131812F5F3F4F3183208308C08CE0A2
:10541000F4017A96D30101900D928A95E1F7C301C8
:1054200063960FB6F894DEBF0FBECDBFDF91CF916C
:105430001F910F91FF90EF90DF90CF90BF90AF90B2
:105440009F908F907F906F905F904F903F902F90A4
:105450000895CF92DF92EF92FF920F931F93CF9315
:10546000DF936C018B017A01EC01C95ADB4F888113
:1054700087FF04C0FB011182108223C02CE02C9D09
:10548000C0012D9D900D11242881AC01420F511DAA
:1054900027FD5A952091560430E0421753078CF4AB
:1054A0002881AC01420F511D27FD5A959A01FA013E
:1054B000EE0FFF1FE20FF31FE55AFB4F208126FD81
:1054C00019C088818F5F88838CE08C9D90018D9DB1
:1054D000300D11248881A901480F511D87FD5A956F
:1054E0008091560490E048175907B4F488818C30B5
:1054F0003CF112C02881820F911D27FD9A95FC0175
:10550000EE0FFF1FE80FF91FE55AFB4F808160E0A7
:105510008F730E946B37D5CFF801808191810496FB
:1055200080349C4918F480E49CE904C0F80180812F
:1055300091810496F701918380838FEF888341C026
:10554000F801808191814881B901640F711D47FD87
:105550007A95AB01FB01EE0FFF1FE40FF51FE55A33
:10556000FB4F41815281840F951FF7019183808306
:105570008881A901480F511D87FD5A95FA01EE0F48
:10558000FF1FE40FF51FE55AFB4F808186FF19C00E
:105590008881280F311D87FD3A95F901EE0FFF1F15
:1055A000E20FF31FE55AFB4F808161E08F73DF91BB
:1055B000CF911F910F91FF90EF90DF90CF900C94BF
:1055C0006B37DF91CF911F910F91FF90EF90DF909C
:1055D000CF9008951F920F920FB60F9211240BB621
:1055E0000F922F933F934F935F936F937F938F937C
:1055F0009F93AF93BF93EF93FF9348E850E064E825
:1056000070E081E090E00E94292AFF91EF91BF9124
:10561000AF919F918F917F916F915F914F913F914A
:105620002F910F900BBE0F900FBE0F901F901895EB
:105630001F920F920FB60F9211240BB60F922F9359
:105640003F934F935F936F937F938F939F93AF930A
:10565000BF93EF93FF9348E950E064E970E082E084
:1056600090E00E94292AFF91EF91BF91AF919F9105
:105670008F917F916F915F914F913F912F910F90FB
:105680000BBE0F900FBE0F901F9018951F920F9298
:105690000FB60F9211240BB60F922F933F934F9397
:1056A0005F936F937F938F939F93AF93BF93EF938A
:1056B000FF9348EA50E064EA70E083E090E00E94E3
:1056C000292AFF91EF91BF91AF919F918F917F9187
:1056D0006F915F914F913F912F910F900BBE0F9063
:1056E0000FBE0F901F9018951F920F920FB60F923A
:1056F00011240BB60F922F933F934F935F936F93A9
:105700007F938F939F93AF93BF93EF93FF9348E261
:1057100051E064E271E080E090E00E94292AFF916C
:10572000EF91BF91AF919F918F917F916F915F9119
:105730004F913F912F910F900BBE0F900FBE0F9086
:105740001F901895209156042033A0F431E0320FB9
:1057500030935604FC012083822F90E0FC01EE0F71
:10576000FF1FE80FF91FE55AFB4F88EB9BE0928380
:10577000818308952FEFFC0120830895DF92EF923B
:10578000FF920F931F93CF93DF93EC01D62E7A01F4
:1057900089018881803308F068C061E08D2D0E9406
:1057A00032378881A82FB0E0FD01EE0FFF1FEA0F0E
:1057B000FB1FE55AFB4F2D2D2F739081907C922B70
:1057C000908360E272E06E197F0977FF02C06D5F1F
:1057D0007F4F7595679575956795698340E659E0A4
:1057E000401B510B57FF02C04D5F5F4F55954795CA
:1057F000559547954A836CE00E94F13E9CE0899F55
:10580000B001112420E030E0A901460F571FFA0132
:10581000EE0FFF1FE40FF51FE55AFB4F908196FD39
:1058200018C02F5F3F4F2C30310571F790E0813069
:10583000910521F51092800082E080938100109202
:10584000850010928400B19A80916F0082608093ED
:105850006F00888190E0FC01EE0FFF1FE80FF91F39
:10586000E55AFB4F8081806480838881DF91CF91EE
:105870001F910F91FF90EF90DF9008958230910576
:1058800069F41092900082E080939100109295004C
:105890001092940088BB80937100DBCF8330910518
:1058A00069F41092A00082E08093A1001092A500FC
:1058B0001092A40089BB80937200CBCF892B49F64C
:1058C0001092200182E08093210110922501109214
:1058D00024018ABB80937300BCCF20E639E040E20C
:1058E00052E00C94BE2BCF93CFB7F8948091EB0489
:1058F000811127C0E8E8F4E08491E2E4F4E09491B7
:10590000E82FF0E0EE0FFF1FE353FB4FA591B4919A
:105910008C91892321F461E085E30E946B3761E07B
:1059200085E30E9432378CB580618CBD8CB5806474
:105930008CBD61E084E30E94323761E083E30E9422
:1059400032378091EB048F5F8093EB04CFBFCF9110
:105950000895FC0111821082FB0120813181FC013C
:10596000318320830895FB0120813181FC01318343
:1059700020830895FC01613051F028F0623061F01D
:10598000633079F00895808191818F730DC080819B
:1059900091818F77806408C0808191818F7B80683E
:1059A00003C080819181806C918380830895FC0184
:1059B0008081918162FF02C0806201C08F7D9183EE
:1059C00080838081918161FF02C0806101C08F7EF0
:1059D000918380838081918160FF02C0886001C0D3
:1059E000877F918380830895FC018081918162FF8C
:1059F00002C0846001C08B7F91838083808191810C
:105A000061FF02C0826001C08D7F918380838081AD
:105A1000918160FF02C0816001C08E7F918380838D
:105A20000895FC0180819181662311F0916001C08D
:105A30009E7F918380830895EF92FF920F93CF937F
:105A4000DF9300D0CDB7DEB77C01FC01118210825C
:105A50002A8349830E94BA2C4981642FC7010E947E
:105A6000D72C2A81622FC7010E94F42C602FC70116
:105A70000F900F90DF91CF910F91FF90EF900C94CA
:105A8000112D0F9300E020E040E061E00E941C2D0A
:105A90000F910895FC018081918187FF04C086FFEA
:105AA00009C083E0089526E0969587952A95E1F749
:105AB0008170089582E00895FC01908195FB222772
:105AC00020F994FB882780F9F2E02F9F800D1124A4
:105AD000880F93FB992790F9890F0895FC01208185
