:100000000C9474020C94CB390C94FC390C942D3A5A
:100010000C945E3A0C948F3A0C94C03A0C94F13ADA
:100020000C94223B0C94A3020C94A3020C94A30204
:100030000C94A3020C94A3020C94A3020C94A302AC
:100040000C94A3020C946D2E0C94A3020C94A302A6
:100050000C94A3020C94A3020C94A3020C94533BA3
:100060000C94A3020C94A23F0C94D83F0C94A302CE
:100070000C94A3020C94A3020C94A3020C94A3026C
:100080000C949B2E0C94A3020C94A3020C94A30238
:100090000C94A3020C94A3020C94A3020C9420359C
:1000A0000C94A3020C94A3020C94C92E0C94A302EA
:1000B0000C94A3020C94A3020C94A3020C94F72EAC
:1000C0000C94A3020C94A3020C94A3020C94A3021C
:1000D0000C94A3020C94A3020C94A3020C94A3020C
:1000E0000C94A3029C23A023A423A823AC23B02315
:1000F000B423B823BC23BE23C323C523CA23CC23E4
:10010000D123D52300370737DB36DD36DF36E1363E
:10011000E336E536EB36ED36E736E936EB36ED36E7
:100120000037EF36A5396F39773983399039B139CE
:10013000BE39A03CA53CAA3CB43CBE3C373DC83CC3
:10014000D03CD83CE23CEC3CF63C053D0F3D373D15
:10015000193D233D2D3D593D5C3D4B3D4F3D553DAA
:10016000933D603D643D6A3D6E3D723D783D7C3D12
:10017000803D933D863D8A3D8E3D474F20544F2024
:1001800056494354494D00545057204C454654005D
:1001900054505720524947485400524F54415445F7
:1001A000204C45465400524F544154452052494733
:1001B0004854004572726F723A20476F546F4C6F0B
:1001C000636174696F6E2072657475726E65642008
:1001D000736F6D657468696E67206E6F74206578E3
:1001E00070656374656420666F722074686973203B
:1001F000746573742072756E2E00476574426C6F5F
:10020000636B28292072657475726E6564204241A3
:10021000445F424C4F434B2E005269676874204D37
:100220006F746F722063757272656E743A20004C41
:10023000656674204D6F746F722063757272656E9F
:10024000743A20006D6F746F722064726976657203
:10025000206661756C74004552524F522D20496ED4
:1002600076616C69642070726F6772616D2063687B
:100270006F6963653A20000953746F726564203DAD
:1002800020007363616C65466163746F725A203D30
:1002900020000953746F726564203D200073696704
:1002A0006D615A203D20000953746F726564203DD2
:1002B0002000426961735A203D20005072696E74BB
:1002C000696E672063616C63756C6174656420613D
:1002D0006E642073746F7265642076616C756573EB
:1002E0002E2E2E005363616C6520466163746F721D
:1002F000203D20004D617820416E676C65203D20D7
:1003000000446F6E6521005A3D20005369676D619E
:100310003A005A3D20004176657261676520426966
:1003200061733A0043616C63756C6174696E672038
:100330004269617300095363616C652046616374AF
:100340006F723A2000095369676D613A2000426973
:1003500061733A20004661696C656420746F2061A6
:1003600075746F646574656374206779726F207447
:10037000797065210009546F74616C203D2000097B
:10038000426F74204C696E65203D20000943656E04
:10039000746572203D20000959203D200053696793
:1003A000203D20004552524F522D20496E76616CFF
:1003B00069642070726F6772616D2063686F696332
:1003C000653A200000000A0B02090C0D0E08070315
:1003D0000401000000000000000000000000000018
:1003E000000000000000000000000000000000000D
:1003F00012111000000000000000000000000000CA
:100400000000000000000000000001021020200891
:10041000081020401020408002010201080402015F
:1004200001020408102040808040201008040201CE
:100430008004020180402010080402010804020127
:1004400001020408102040800102040810204080AE
:1004500005050505070508080808020202020A0A40
:10046000080804040404010101010101010103035E
:10047000030303030303040707070C0C0C0C0C0C09
:100480000C0C0202020206060606060606060B0B06
:100490000B0B0B0B0B0B0000200023002600290088
:1004A0002C002F00320000010000030106010901A9
:1004B00000002200250028002B002E00310034000F
:1004C00002010000050108010B01000021002400C9
:1004D00027002A002D003000330001010000040134
:1004E00007010A013E340C4011241FBECFEFD1E2B8
:1004F000DEBFCDBF14E0A0E0B2E0E4ECF6E900E03E
:100500000BBF02C007900D92A432B107D9F726E0C5
:10051000A4E2B4E001C01D92A439B207E1F714E0EF
:10052000C8EED4E000E006C022970109FE010BBF2F
:100530000E943046C43ED10780E00807A9F70E9418
:1005400053400C94604B0C940000FC01118210820B
:10055000138212821582148281E0808708950F939E
:100560001F93CF93DF93EC01088119818A819B81CE
:100570000817190739F0F801819191918F010E94B4
:100580006440F4CF888199812C813D81281B390BEF
:1005900035952795232B31F0DF91CF911F910F9146
:1005A0000C94DB46DF91CF911F910F910895FC01D0
:1005B00081E046815781228133814217530709F038
:1005C00080E00895FC01268137812E5F3F4F3783FD
:1005D00026830895DC011696ED91FC911797808192
:1005E00091810895CF93DF93EB01BC0182E090E00D
:1005F0000E94573628813981FC0131832083DF91A5
:10060000CF910895CF93DF93EC01CE010E94434632
:10061000009761F4E0912404F0912504309721F4CF
:1006200080E090E00E94604B0995EFCFDF91CF9181
:1006300008950F931F93CF93DF93EB018A01C81B9B
:10064000D90BCE7FAE01BC01C8010E946148C80130
:100650008C0F9D1FDF91CF911F910F9108958F9265
:100660009F92AF92BF92CF92DF92EF92FF920F9341
:100670001F93CF93DF9300D0CDB7DEB78C017A8381
:100680006983FC01E280F38084819581E816F90694
:1006900069F0BE016F5F7F4FC7010E94F202F8014F
:1006A000828193810296938382834FC0F801808177
:1006B00091816701C81AD90AD594C794C114D1048D
:1006C00039F0FAE0CF0ED11CC114D10421F40AC0D4
:1006D000CC24C394D12CC601880F991F0E94020319
:1006E0005C0104C0C12CD12CA12CB12CA501B701F7
:1006F000F801808191810E9419034C01BE016F5F56
:100700007F4F0E94F202A4014E5F5F4FF8016281A9
:100710007381C7010E9419037C01F80180819181D6
:1007200024813581281B390B35952795232B11F012
:100730000E94DB46F801B182A082F382E282CC0CF7
:10074000DD1CCA0CDB1CD582C482F801808588239D
:1007500029F0108680819181978386830F900F9076
:10076000DF91CF911F910F91FF90EF90DF90CF908D
:10077000BF90AF909F908F900895AF92BF92CF920D
:10078000DF92EF92FF920F931F93CF93DF9300D0EE
:10079000CDB7DEB75C018B016817790709F47CC01F
:1007A000DB0112966D917C911397ED90FC90FB010B
:1007B000EE19FF09F595E795DC014D915C911197D4
:1007C00014968D919C911597841B950B9595879503
:1007D0006F01CC0CDD1C8E179F0748F5EF2B49F0FD
:1007E000C60169837A830E9402038C0169817A8140
:1007F00002C000E010E0A801C7010E941903F50142
:100800008081918124813581281B390B359527956D
:10081000232B11F00E94DB46D50111961C930E93F9
:100820000C0D1D1D15961C930E9314972BC0D5010E
:1008300012962D913C911397241B350B35952795D6
:100840002E173F0710F0C7011BC0B901660F771FB5
:100850006E0D7F1DC7010E941903F501428153816E
:10086000D80112966D917C91139780819181FA0144
:10087000E81BF90BCF018E7F2D913C91820F931FC6
:100880000E941903D5018D919C9111978C0D9D1D8E
:1008900013969C938E931297C5010F900F90DF9142
:1008A000CF911F910F91FF90EF90DF90CF90BF906D
:1008B000AF900895CF93DF93EC018617970751F01F
:1008C000FB0180858887868197819F838E83CE01F7
:1008D0000E94BD03CE01DF91CF9108958F929F9228
:1008E000AF92BF92CF92DF92EF92FF920F931F933E
:1008F000CF93DF93CDB7DEB7C054D1090FB6F894CC
:10090000DEBF0FBECDBF6C0182FB222720F930E095
:10091000220F331F81FB442740F950E0240F351F7D
:10092000220F331F81709927280F391F2115310598
:1009300041F4C3FE03C066EA71E0D6C06AE971E023
:10094000D3C02130310541F4C3FE03C060E971E03A
:10095000CBC067E871E0C8C02230310509F0BFC0E4
:1009600068E972E0CE0101960E9473487601EF2C8F
:10097000FF24E694E69422E0E222FF24C601892FB8
:1009800099278695869581709927E80EF91EEE0CB9
:10099000FF1CC601892F9927869581709927E80E3B
:1009A000F91E0D2D112701701127000F111FC7FA15
:1009B000882480F8912C080D191D000F111FC6FA0C
:1009C000AA24A0F8B12C0A0D1B1DC3FE08C060EAC2
:1009D00072E0CE0108960E9473488CE007C066EA78
:1009E00072E0CE0108960E9473488BE0C82ED12C8D
:1009F0006BEA72E081E090E08C0F9D1F8C0D9D1DD5
:100A00000E947348C6010A960115110519F466EB98
:100A100072E023C00130110561F46CEB72E021E05B
:100A200030E02C0F3D1F820F931F0E9473488EE011
:100A30001DC00430110561F461EC72E021E030E08A
:100A40002C0F3D1F820F931F0E94734880E10EC040
:100A50000230110561F468EC72E021E030E02C0F07
:100A60003D1F820F931F0E9473488FE08C0DC82E8C
:100A7000D12C6EEC72E081E090E08C0F9D1F8C0D0C
:100A80009D1D0E947348C6010696E114F10419F4F5
:100A900065ED72E014C031E0E316F10419F46AED7B
:100AA00072E00DC034E0E316F10419F46EED72E06B
:100AB00006C032E0E316F10451F464EE72E021E086
:100AC00030E02C0F3D1F820F931F0E947348BE0120
:100AD0006F5F7F4F83EF95E00E94C94009C02330CC
:100AE000310531F46AE771E083EF95E00E94D6406A
:100AF000C05CDF4F0FB6F894DEBF0FBECDBFDF91F5
:100B0000CF911F910F91FF90EF90DF90CF90BF900A
:100B1000AF909F908F900895833019F480E090E01B
:100B2000089588E090E00895833019F481E090E022
:100B3000089589E090E00895DF92EF92FF920F937D
:100B40001F93CF93DF9300D0CDB7DEB77C01162F74
:100B5000D42E2E96EEADFFAD2E97EF3F8FEFF80718
:100B600021F4C7010E94653101C08E2F00E02D2DB8
:100B7000412F682FCE0101960E9437314D2D612FF4
:100B8000CE010C960E940F32882329F061E0CE013D
:100B900001960E942C3181E0F70140815181298129
:100BA0003A814217530709F080E00F900F90DF91D0
:100BB000CF911F910F91FF90EF90DF9008950F93C9
:100BC0001F93CF93DF93EC018B010E94CE30F8018D
:100BD000828193819B838A8384818C83CE01DF9180
:100BE000CF911F910F910895BF92CF92DF92EF9214
:100BF000FF920F931F93CF93DF9300D000D01F92EB
:100C0000CDB7DEB77C01DC0114962D913C91159790
:100C1000862F992787FD909512960D90BC91A02D57
:100C2000442321F0D62EF901C08003C0DC90C62EEB
:100C3000D9012C91821B910997FF03C09195819551
:100C40009109B82E4C2D6D2DF701808591850E945C
:100C50001C32182F811102C011E09EC01B1484F4B5
:100C6000D7011E96ED91FC911F9720814C2D6D2D83
:100C700018968D919C9119970E94F1318111ECCFBA
:100C8000D7011696ED91FC91179720814C2D6D2D73
:100C900018968D919C9119970E94F131811178C01D
:100CA000BB2009F478C0D7011696ED91FC911797F7
:100CB0008081813091F028F08230E1F0833039F189
:100CC0006AC0B6E0BC150CF466C0D7011E96ED9163
:100CD000FC911F97208141E017C0B6E0BD150CF4D0
:100CE0005AC0D7011E96ED91FC911F9720814C2D83
:100CF00061E018C01C140CF04EC0D7011E96ED9197
:100D0000FC911F9720814FEF4C0D6D2D0CC01D14D1
:100D10000CF041C0D7011E96ED91FC911F972081E8
:100D20004C2D6FEF6D0D18968D919C9119970E9427
:100D3000F131882381F1D701ED91FC9100E02C2D58
:100D40004D2D6081CE0101960E943731D7011A9650
:100D5000ED91FC911B9780810E9494059C838B836D
:100D60006B2D772767FD7095872F972F0E9428445A
:100D70009B01AC010E94DC440E94FA436D83BE01DA
:100D80006F5F7F4FF701848595850E94DF0504C062
:100D9000BB2011F0D0CF10E0812F0F900F900F905B
:100DA0000F900F90DF91CF911F910F91FF90EF90D7
:100DB000DF90CF90BF900895BF92CF92DF92EF92D5
:100DC000FF920F931F93CF93DF9300D000D01F9219
:100DD000CDB7DEB77C01DC0114962D913C911597BF
:100DE000862F992787FD909512960D90BC91A02D86
:100DF000442321F0D62EF901B08003C0DC90B62E3A
:100E0000D9012C91821B910997FF03C0919581957F
:100E10009109182F4B2D6D2DF701808591850E942A
:100E20001C32C82ED70118968D919C9119974B2D85
:100E30006D2DC1102AC00E940F32882309F49DC075
:100E4000D701ED91FC9100E02B2D4D2D6081CE015D
:100E500001960E943731D7011A96ED91FC911B97AC
:100E60008081833019F422E830E002C02AE830E0C3
:100E70003C832B831F5F1D83BE016F5F7F4FF70194
:100E8000848595850E94DF0578C00E940F32D701C6
:100E9000ED91FC918823B1F000E02B2D4D2D608168
:100EA000CE0101960E943731D7011A96ED91FC913F
:100EB0001B978081833019F422E830E051C02AE882
:100EC00030E04EC020814B2D6D2DD70118968D91AD
:100ED0009C9119970E94F131D7018823C1F0ED91BF
:100EE000FC9100E02B2D4D2D6081CE0101960E94DA
:100EF0003731D7011A96ED91FC911B978081833091
:100F000019F422E030E02CC02AE030E029C0169627
:100F1000ED91FC91179720814B2D6D2D18968D9199
:100F20009C9119970E94F13181112AC0112349F136
:100F3000D701ED91FC9100E02B2D4D2D6081CE016C
:100F400001960E943731D7011A96ED91FC911B97BB
:100F50008081833019F422E430E002C02AE430E0DA
:100F60003C832B831F5F1D83BE016F5F7F4FF701A3
:100F7000848595850E94DF0504C0CC24C39401C0FC
:100F8000C12C8C2D0F900F900F900F900F90DF9130
:100F9000CF911F910F91FF90EF90DF90CF90BF9076
:100FA0000895CF92DF92EF92FF920F931F93CF930A
:100FB000DF9300D000D000D0CDB7DEB77C01142F76
:100FC00069010E946531082FC7010E947731482FBF
:100FD000C7014E830E9489314E81133039F40023BA
:100FE00019F06FEF600F05C063E003C061E0600FB0
:100FF00063709E012F5F3F4F790195E0F9011192D7
:101000009A95E9F791E09D8300E0282FC7010E949F
:101010003731812F0E948C059C838B83B701C601D9
:101020000E94DF0581E026960FB6F894DEBF0FBE62
:10103000CDBFDF91CF911F910F91FF90EF90DF9087
:10104000CF9008958F929F92AF92BF92CF92DF92EE
:10105000EF92FF920F931F93CF93DF9300D000D0B6
:101060001F92CDB7DEB78C017B016A010E9465310A
:10107000882EC8010E947731A82EC8010E948931AC
:10108000982E482F6A2DC7010E940F32B82E882350
:1010900029F0C8010E949B31882311F0B12C17C0A0
:1010A000CE0101967C0185E0F70111928A95E9F75E
:1010B00001E0292D4A2D682DC7010E94373123E018
:1010C00030E03C832B83B701C6010E94DF058B2DE6
:1010D0000F900F900F900F900F90DF91CF911F9175
:1010E0000F91FF90EF90DF90CF90BF90AF909F90C7
:1010F0008F9008950F931F93CF93DF93EC018B0193
:101100000E94C430F801828193819B838A83848109
:101110008C83DF91CF911F910F910895CF92DF9231
:10112000EF92FF920F931F93CF93DF93CDB7DEB76C
:101130006B970FB6F894DEBF0FBECDBF7C016B017D
:101140004B8F89010E9465318A8FC7010E947731D8
:10115000898FC7010E948931888F9B8D8A8D93303A
:1011600031F4882311F0815004C083E002C08F5F06
:1011700083708F8B913019F48F5F837005C0882343
:1011800011F0815001C083E08E8BCE014A969A8384
:10119000898301979C838B8301979E838D8301971D
:1011A00098878F83DA86C98604969C878B871E87EB
:1011B0000D870597988B8F87B80105970E947A084D
:1011C0008A8D8130A9F030F0823001F18330B1F5A1
:1011D000F98C32C0F88C87E08F1584F140E06F2DD8
:1011E000CE0101960E94F405811128C0F394F3CF3B
:1011F000F98CE7E0EF1514F141E06F2DCE01019677
:101200000E94F40581111AC0F394F3CFF88CF7FC17
:1012100015C040E06F2DCE0101960E94F4058111AA
:101220000DC0FA94F4CF41E06F2DCE0101960E94DB
:10123000F405811103C0FA94F7FEF5CF81E0F801BF
:101240004081518129893A894217530709F480E086
:101250006B960FB6F894DEBF0FBECDBFDF91CF9176
:101260001F910F91FF90EF90DF90CF900895CF9254
:10127000DF92EF92FF920F931F93CF93DF93CDB73F
:10128000DEB768970FB6F894DEBF0FBECDBF7C0106
:101290006B01488F89010E9465318F8BC7010E94C5
:1012A00077318E8BC7010E9489318D8B988D8F8904
:1012B000933031F4882311F0815004C083E002C0E0
:1012C0008F5F83708C8BCE0147969A8389830197B9
:1012D0009C838B8301979E838D83019798878F834F
:1012E000DA86C98604969C878B871E870D87B8018E
:1012F00009970E947A088F898130A9F030F08230F6
:1013000001F18330B1F5FE8832C0FD8887E08F158A
:1013100084F140E06F2DCE0101960E94DC06811120
:1013200028C0F394F3CFFE88E7E0EF1514F141E015
:101330006F2DCE0101960E94DC0681111AC0F39434
:10134000F3CFFD88F7FC15C040E06F2DCE0101966C
:101350000E94DC0681110DC0FA94F4CF41E06F2D9C
:10136000CE0101960E94DC06811103C0FA94F7FEBB
:10137000F5CF81E0F801408151812F8538894217EE
:10138000530709F480E068960FB6F894DEBF0FBEED
:10139000CDBFDF91CF911F910F91FF90EF90DF9024
:1013A000CF900895EF92FF920F931F93CF93DF9307
:1013B000CDB7DEB7E82EF62E8A01CA010E9477313A
:1013C0002E2D30E0281B3109C8011216130624F413
:1013D0000E947731E81A04C00E9477318E19E82EF6
:1013E000C8010E9489312F2D30E0281B3109C80126
:1013F000121613062CF40E948931F81A8F2D03C09F
:101400000E9489318F198E0DDF91CF911F910F911D
:10141000FF90EF900895FC018081918124813581B6
:10142000281B390B35952795232B11F00C94DB469F
:101430000895CF93DF93EB01BC0185E090E00E941B
:101440005736BE01DF91CF910C947A08CF93DF938A
:10145000EB01BC0182E090E00E945736288139817F
:10146000FC0131832083DF91CF910895009721F013
:10147000880F991F0C94020380E090E008956F920A
:101480007F928F929F92AF92BF92CF92DF92EF9214
:10149000FF920F931F93CF93DF93EC0168177907A7
:1014A00009F47AC0FB01A280B3800081118175012B
:1014B000E01AF10AF594E7946701E881F9818C81DB
:1014C0009D818E1B9F0B959587958E159F0538F5F1
:1014D000C7010E94360A4C013C010A151B0551F058
:1014E000B801C3010E94260A0E5F1F4FF2E06F0E83
:1014F000711CF3CF888199812C813D81281B390B88
:1015000035952795232B11F00E94DB46998288821E
:10151000CC0CDD1CC80CD91CDD82CC8235C08A8085
:101520009B80C4018E1B9F0B959587958E159F05FB
:1015300060F0D8011C141D043CF58D919D918193A0
:10154000919381E0C81AD108F5CF880F991F6801DF
:10155000C80ED91E95958795D8011816190634F42A
:101560002D913D91219331930197F7CFCA14DB045C
:1015700059F0B601C4010E94260AE2E0CE0ED11C49
:10158000F2E08F0E911CF2CFEE0CFF1C8881998146
:101590008E0D9F1D9B838A83CE01DF91CF911F917A
:1015A0000F91FF90EF90DF90CF90BF90AF909F9002
:1015B0008F907F906F900895CF92DF92EF92FF927D
:1015C0000F93CF93DF9300D01F92CDB7DEB76C019E
:1015D0007A012B8369837A830E945C31F60113823E
:1015E0001282158214821782168269817A81C6015D
:1015F0000E94CE30B701C60102960E943F0A2B819D
:10160000F6012087200F21870F900F900F90DF9118
:10161000CF910F91FF90EF90DF90CF9008950F93AF
:101620001F93CF93DF93EC018B010E94CE30B80162
:101630006E5F7F4FCE0102960E943F0AF8018085BF
:10164000888781858987CE01DF91CF911F910F9186
:101650000895BF92CF92DF92EF92FF920F931F9364
:10166000CF93DF938C017A016901EB012197D7FDBC
:10167000EB01D595C7959AE0B92EE616F706A4F0CA
:101680002AE0269FC001279F900D1124B601800FEC
:10169000911FDF91CF911F910F91FF90EF90DF90FD
:1016A000CF90BF900C940F0BBC9ED001BD9EB00D8F
:1016B0001124A00FB11F19969C911997F6018185ED
:1016C0008917F0F6B69EC001B79E900D1124BD019A
:1016D000800F911F0E940F0BCE01019797FDCE0145
:1016E000BE01EC01D595C795C8CFAF92BF92CF92FE
:1016F000DF92EF92FF920F931F93CF93DF93EC0152
:101700006B01FB01E280F38080819181E81AF90A84
:10171000F594E794198218821B821A821D821C821A
:10172000C7010E94360A8C01998388839B838A8330
:10173000EE0CFF1CE80EF91EFD82EC82F601A28081
:10174000B380E080F180EA14FB0451F0B701C801D6
:101750000E94260AF2E0EF0EF11C0E5F1F4FF3CF3E
:101760001B830A83DF91CF911F910F91FF90EF9020
:10177000DF90CF90BF90AF9008950F931F93CF93BA
:10178000DF93EC018B010E94C430B8016E5F7F4F84
:10179000CE0102960E94750BF801808588878185AD
:1017A0008987DF91CF911F910F910895CF93DF9398
:1017B000EB01BC018AE090E00E945736BE01DF9148
:1017C000CF910C94BD0B2F923F924F925F926F92EC
:1017D0007F928F929F92AF92BF92CF92DF92EF92C1
:1017E000FF920F931F93CF93DF93CDB7DEB7279769
:1017F0000FB6F894DEBF0FBECDBF8C017B014A014E
:10180000FC01828193812481358182179307C1F184
:10181000BC01655071090E94190AF8018281938107
:10182000059693838283B401CE0101960E947A08C3
:10183000F801828193818C01055011090A978E1954
:101840009F092DEC3CEC829F6001839FD00C929FFE
:10185000D00C11241C141D0464F4B8016A507109E1
:1018600005501109C8010E94DF05F1E0CF1AD10827
:10187000F1CFBE016F5F7F4FC7010E94DF0586C0B9
:10188000F80120813181821B930B2DEC3CEC829F6F
:101890005001839FB00C929FB00C1124A114B1048D
:1018A00039F0FAE0AF0EB11CA114B10421F40EC05E
:1018B000AA24A394B12C85E0282F2A9DC0012B9D3A
:1018C000900D11240E9402036C0104C0A12CB12CC4
:1018D000C12CD12CF80120803180260131016E14F9
:1018E0007F0459F0B301C2010E94190AF5E06F0E9E
:1018F000711C25E0420E511CF2CFFF82EE822701BF
:10190000421853084C0C5D1CB401C2010E94190A14
:1019100085E0480E511CF801628073804201E61494
:10192000F70459F0B701C4010E94190AF5E0EF0E5F
:10193000F11C25E0820E911CF2CF8E819F81E81A66
:10194000F90AE40CF51CF80180819181248135812C
:10195000281B390B6DEC7CEC269FA001279F500DB6
:10196000369F500D1124452B11F00E94DB46F801E3
:10197000D182C082F382E28225E02A9DC0012B9DA4
:10198000900D11248C0D9D1D9583848327960FB691
:10199000F894DEBF0FBECDBFDF91CF911F910F91A5
:1019A000FF90EF90DF90CF90BF90AF909F908F907F
:1019B0007F906F905F904F903F902F900895CF93BE
:1019C000DF93EC018A819B812C813D8182179307F3
:1019D00051F00E94190A8A819B8105969B838A8314
:1019E000DF91CF910895AB01BC01CE01DF91CF9182
:1019F0000C94E30BEF92FF920F931F93CF93DF931F
:101A000000D000D01F92CDB7DEB78C017B01FC0166
:101A1000118210821382128215821482CE010196E5
:101A20000E945C311C821B82C7010E949B31811184
:101A300078C0AE014F5F5F4FBE01625F7F4FC7014D
:101A40000E942208882339F0BE016F5F7F4FC801D2
:101A50000E94DF0C66C09E012F5F3F4F41E0BE0138
:101A6000625F7F4FC7010E94D107882331F0BE011A
:101A70006F5F7F4FC8010E94DF0C9E012F5F3F4FB9
:101A800043E0BE01625F7F4FC7010E94D1078823F8
:101A900031F0BE016F5F7F4FC8010E94DF0C9E01D5
:101AA0002F5F3F4F41E0BE01625F7F4FC7010E9441
:101AB0003709882331F0BE016F5F7F4FC8010E9454
:101AC000DF0C9E012F5F3F4F43E0BE01625F7F4FFF
:101AD000C7010E943709882331F0BE016F5F7F4F35
:101AE000C8010E94DF0C9E012F5F3F4F41E0BE0105
:101AF000625F7F4FC7010E948E08882331F0BE01CC
:101B00006F5F7F4FC8010E94DF0C9E012F5F3F4F28
:101B100043E0BE01625F7F4FC7010E948E088111C2
:101B200093CFC8010F900F900F900F900F90DF91FF
:101B3000CF911F910F91FF90EF9008954F925F9278
:101B40006F927F928F929F92AF92BF92CF92DF92CD
:101B5000EF92FF920F931F93CF93DF93CDB7DEB732
:101B60002A970FB6F894DEBF0FBECDBF8C017B0164
:101B70004A01FC0182819381248135818217930778
:101B800009F43FC0BC016A5071090E94D60BF801EC
:101B9000828193810A9693838283B401CE01019658
:101BA0000E94BD0BF8012281338189010A5011097D
:101BB000245131092E193F09359527958DEC9CEC60
:101BC000289F6001299FD00C389FD00C11241C1431
:101BD0001D0464F4B801645171090A501109C80167
:101BE0000E940F0BF1E0CF1AD108F1CFBE016F5F59
:101BF0007F4FC7010E940F0BCE0103960E940B0A74
:101C000088C0F80120813181821B930B95958795BF
:101C10002DEC3CEC829F3001839F700C929F700CE6
:101C200011246114710439F0FAE06F0E711C611413
:101C3000710421F40EC066246394712C8AE0282F6D
:101C4000269DC001279D900D11240E9402036C0166
:101C500004C0612C712CC12CD12CF8014080518022
:101C6000C6019C01265F3F4F59014E145F0441F0AD
:101C7000B2010E94D60BFAE04F0E511CC501F1CF04
:101C8000B4010E94D60BF80182809380E814F90415
:101C900059F0B701C5010E94D60BFAE0EF0EF11C16
:101CA0002AE0A20EB11CF2CFF80182809380E0807E
:101CB000F180E814F90441F0C70102960E940B0A72
:101CC000FAE0EF0EF11CF5CFF801808191812481BB
:101CD0003581281B390B359527956DEC7CEC269FBB
:101CE000A001279F500D369F500D1124452B11F058
:101CF0000E94DB46F801D182C082B382A2822AE030
:101D0000269DC001279D900D11248C0D9D1D95834E
:101D100084832A960FB6F894DEBF0FBECDBFDF9145
:101D2000CF911F910F91FF90EF90DF90CF90BF90D8
:101D3000AF909F908F907F906F905F904F9008959D
:101D4000EF92FF920F931F93CF93DF93CDB7DEB740
:101D50002A970FB6F894DEBF0FBECDBF8C01FC01F1
:101D600082819381248135818217930749F00E94F3
:101D7000D60BF801828193810A969383828305C0F2
:101D8000AB01BC01C8010E949E0DF801E280F38006
:101D900000811181B7016A507109CE0101960E943C
:101DA000BD0B9701201B310B359527958DEC9CECD5
:101DB000289FB001299F700D389F700D112461502C
:101DC00071099E012F5F3F4F40E050E0C8010E9423
:101DD000290BCE0103960E940B0A2A960FB6F8949F
:101DE000DEBF0FBECDBFDF91CF911F910F91FF904E
:101DF000EF9008952F923F924F925F926F927F9251
:101E00008F929F92AF92BF92CF92DF92EF92FF920A
:101E10000F931F93CF93DF93CDB7DEB7C455D1098E
:101E20000FB6F894DEBF0FBECDBF7C012E966FAF0C
:101E30002E972F964FAF2F978901C755DF4F2881D7
:101E4000C95AD04062962FAF6297C655DF4F38818E
:101E5000CA5AD04063963FAF6397CE01805C9F4FD4
:101E60000E9464321CAA1BAA1EAA1DAA18AE1FAA91
:101E70001A8219821C821B821E821D82B801CE0129
:101E80000B960E94C43000E020E0AE014F5F5F4F30
:101E9000BE01655F7F4FCE0189960E94DC0ACE01AC
:101EA00001960E940B0ABE01675D7F4FCE01C3966B
:101EB0000E94A00E56E4252E312C2C0E3D1E82E0F1
:101EC000280E311C6BA97CA98DA99EA968177907DA
:101ED00009F40FC2CE014F960E94BD0BCBA8DCA81F
:101EE0000DA91EA90A501109B801CE0145960E94FC
:101EF000BD0BB601C8010E940F0BBE016B5E7F4F88
:101F0000CE010B960E94BD0B0C191D091595079566
:101F10008DEC9CEC089F4001099F900C189F900C41
:101F2000112402E010E0A12CB12C4AE0742E081517
:101F300019053CF5709EF001719EF00D1124EC0D19
:101F4000FD1DDF011A97918519968C91891710F460
:101F500001501109709EB001719E700D11246C0D1D
:101F60007D1D7A9CC0017B9C900D11248C0D9D1DC4
:101F70000E940F0BC801019658018C01000F111F20
:101F8000D6CF08151905B9F42AE0209FB001219F8A
:101F9000700D11246A5071096C0D7D1D2A9DC001C0
:101FA0002B9D900D11248C0D9D1D0E940F0B58012F
:101FB00091E0A91AB108BE01655F7F4FCE0101967D
:101FC0000E94BD0B9E012F5F3F4F40E050E0B501E6
:101FD000C6010E94290B8E010D5F1F4FC8010E9490
:101FE0000B0ACE010D960E940B0ACE0147960E9465
:101FF0000B0A8DA99EA99C012A5031093EAB2DAB3D
:1020000008970E940B0ABE01615E7F4FCE010196C8
:102010000E94C4306396EFAD6397EF936296FFAD75
:102020006297FF932DB73EB7205431090FB6F8944D
:102030003EBF0FBE2DBFADB7BEB7119680E4FE0107
:10204000E759FF4F01900D928A95E1F72F964FAD1A
:102050002F972E966FAD2E97CE0101960E949C056C
:102060000FB6F894DEBF0FBECDBFBE01882351F07E
:102070006F5D7F4FC7010E94750BCE0181960E9454
:102080000B0A3EC1615E7F4FCE01805C9F4F0E9474
:102090004633882309F428C1BE01615E7F4FCE011B
:1020A00001960E94C4302DB73EB7205431090FB6B7
:1020B000F8943EBF0FBE2DBFADB7BEB7119680E4FA
:1020C000FE01E759FF4F01900D928A95E1F7BE019D
:1020D0006F5F7F4FCE01CA960E94FA0C4AAC5BAC90
:1020E0008CAD9DAD61969FAF8EAF61970FB6F894A2
:1020F000DEBF0FBECDBF64960FAF649765961FAF6E
:10210000659761968EAD9FAD61974816590609F4A3
:10211000D8C0B201CE018A5B9F4F0E947A08BE01EF
:102120006F5D7F4FCE0145960E94750B0F89188D0C
:10213000898D9A8D0817190751F0B101C8010E94C5
:10214000260A8F89988D0296988F8F8B52C08D8921
:102150009E896801C81AD90AD594C794C114D104BC
:1021600021F0FAE0CF0ED11C03C0CC24C394D12CB3
:10217000C6010E94360A4C016D887E885C0160169B
:10218000710659F0B301C5010E94260A22E0620ED1
:10219000711C32E0A30EB11CF2CFB101C5010E9447
:1021A000260A82E0A80EB11C6F88788C06151705E8
:1021B00051F0B801C5010E94260A0E5F1F4F92E040
:1021C000A90EB11CF3CF8D899E89298D3A8D281BCC
:1021D000390B35952795232B11F00E94DB469E8AFB
:1021E0008D8AB88EAF8ACC0CDD1CC80CD91CDA8E57
:1021F000C98E8FA12B96CFAC2B97D12CC80ED11C9A
:10220000BE016A5B7F4FCE0101960E94C430EDB7DC
:10221000FEB7E054F1090FB6F894FEBF0FBEEDBF54
:10222000ADB7BEB71196FE01E759FF4F80E40190AC
:102230000D928A95E1F7AE014F5F5F4F2F966FAD1C
:102240002F972E968FAD2E970E94D209082F0FB68A
:10225000F894DEBF0FBECDBFBE016B5E7F4FCE01D7
:102260000B960E94750BBE016A5B7F4FCE01855BAA
:102270009F4F0E94C4302C2DAE01455F5F4FBE01C1
:10228000655B7F4FCE0101960E94DC0ACE010B9662
:102290000E940B0ABE016F5F7F4FCE01C3960E9462
:1022A000A00E64968FAD649765969FAD65970E946A
:1022B0000B0ACE0145960E940B0A35E0430E511CD5
:1022C00020CF8AAD9BAD2EAD3FAD281B390B6DECF9
:1022D0007CEC269FA001279F500D369F500D1124A6
:1022E000452B11F00E94DB46CE0181960E940B0A1D
:1022F000E9CDF701118210821382128215821482B5
:10230000CE018B960E940B0ACDA8DEA80BA91CA9B2
:102310000C151D0539F0C80102960E940B0A065FD4
:102320001F4FF6CF8BA99CA92FA938AD281B390BBD
:10233000359527956DEC7CEC269FA001279F500DCD
:10234000369F500D1124452B11F00E94DB4622963A
:102350008EAD9FAD229726962EAD3FAD2697281BBA
:10236000390B35952795232B11F00E94DB46C701C9
:10237000CC5ADF4F0FB6F894DEBF0FBECDBFDF9152
:10238000CF911F910F91FF90EF90DF90CF90BF9072
:10239000AF909F908F907F906F905F904F903F9005
:1023A0002F900895CF93DF93EC01E881F981E65BEC
:1023B000FF4F808191810E94AF1C88819981FC012F
:1023C000E55AFF4F1082319621E020833596118225
:1023D0001082DF91CF91089586E294E00C94AF02D1
:1023E0002F923F924F925F926F927F928F929F9225
:1023F000AF92BF92CF92DF92EF92FF920F931F9313
:10240000CF93DF93CDB7DEB72D970FB6F894DEBF2D
:102410000FBECDBF4C015B017A010E94A502F701FE
:102420000280F381E02DFD87EC87F7012080318069
:102430003501F2E06F0E711C4C855D852416350662
:1024400009F4CFC0F101E190F1901F01E2FACC2430
:10245000C0F8D12CCC0CDD1CE1FAFF27F0F9FE838B
:102460001F824E815F81C40ED51ECC0CDD1CC701BE
:1024700081709927C80ED91EE3FE02C011E001C089
:1024800013E0CE0101960E945C311C821B82C114B4
:10249000D104B9F49E012F5F3F4F412FB301C50115
:1024A0000E94D107882341F287E090E00E946240B9
:1024B0007C01212FAE014F5F5F4FB5010E94401894
:1024C0008BC051E0C516D104C1F49E012F5F3F4F70
:1024D000412FB301C5010E948E08882309F4ACCFB7
:1024E00087E090E00E9462407C01212FAE014F5FA7
:1024F0005F4FB5010E941C186FC082E0C816D1045E
:1025000009F050C09E012F5F3F4F412FB301C5011D
:102510000E943709882309F48FCF89E090E00E9458
:1025200062402C019701232F332726952695227090
:102530003327C701892F992786958695817099271A
:10254000280F391F220F331FC701892F992786951E
:1025500081709927280F391F8F2D9927817099270E
:10256000880F991FE7FAEE27E0F9E8871986488572
:102570005985840F951F880F991FE6FA552750F942
:102580005A871B86EA85FB858E0F9F1FE22E082F38
:10259000212FAE014F5F5F4FB501C2010E94FE17B0
:1025A000B2011BC0F3E0CF16D10409F045CFAE0154
:1025B0004F5F5F4FB301C5010E942208882309F4D1
:1025C0003BCF86E090E00E9462407C01AE014F5F0D
:1025D0005F4FB5010E943418B701C4010E942F0358
:1025E0002BCFC4012D960FB6F894DEBF0FBECDBF22
:1025F000DF91CF911F910F91FF90EF90DF90CF90DF
:10260000BF90AF909F908F907F906F905F904F9012
:102610003F902F9008958F929F92AF92BF92CF924A
:10262000DF92EF92FF920F931F93CF93DF93CDB77B
:10263000DEB7C854D1090FB6F894DEBF0FBECDBFC8
:102640007C016E0181E4C80ED11CD6010C93239647
:102650001FAF239724962FAF249725963FAF25973A
:1026600026964FAF269727965FAF279728966FAF8E
:10267000289729967FAF2997C7010E945C3157019F
:10268000B2E0AB0EB11CC5010E949F31F701E25BC5
:10269000FF4F6B968CAD9DADAEADBFAD6B9780839C
:1026A0009183A283B38334966F968CAD9DADAEAD0E
:1026B000BFAD6F9780839183A283B3833496A39633
:1026C0004CAD5DAD6EAD7FADA3974083518362830A
:1026D00073833496A4968FADA49780837497D601A4
:1026E0008D919C9191838083329625968EAD9FAD7E
:1026F000259791838083329627968EAD9FAD27973D
:1027000091838083329629968EAD9FAD29979183D0
:1027100080833F961082319681E0808331961082CB
:102720001182128213827997108232971082319629
:1027300010823296108200E0A7962FADA797A6963A
:102740004FADA697A5966FADA597FE0131964F01A7
:10275000CF010E943731B401C7010E94CE30BE01C3
:1027600069597F4FC4010E94C331982D892DE92FEB
:10277000F82FCF010896D50121912D93E817F9077D
:10278000D9F788E0A80EB11CEC15FD0519F09E2FB5
:102790008F2FEDCFC85BDF4F0FB6F894DEBF0FBEB3
:1027A000CDBFDF91CF911F910F91FF90EF90DF9000
:1027B000CF90BF90AF909F908F9008952F923F92AF
:1027C0004F925F926F927F928F929F92AF92BF9241
:1027D000CF92DF92EF92FF920F931F93CF93DF93ED
:1027E000CDB7DEB72F970FB6F894DEBF0FBECDBFC3
:1027F0004C016F87142F9C01285B3F4F7901633098
:1028000061F460E070E0F901808191810E94C72A43
:102810002B013C0162E070E00BC061E070E0F90167
:10282000808191810E94C72A2B013C0163E070E006
:10283000F701808191810E94C72A6B017C019E86ED
:102840008D86F12FF4703F2E12FF12C0F401EA5B67
:10285000FF4F808191810E94F525F401EA5AFF4FD4
:1028600020813181428153810E94894387FD6AC062
:10287000212F2170322E10FF34C054013BE5A30EEE
:10288000B11CF501808181111BC03D9720813181F0
:1028900042815381C301B2010E94D844181684F4C6
:1028A000F5013082319630827097808191810E944B
:1028B0004B27F401E35AFF4F608371838283938334
:1028C000F5018081882369F0F401E25BFF4F2081EC
:1028D000318142815381C701B6010E94D844181644
:1028E0008CF1F12FF2703F2E11FF33C0540126E41A
:1028F000A20EB11CF50160817181CE0101960E948A
:102900003D2CC980DA80EB80FC800D811E812F81F7
:10291000388549855A856B857C85F5018081918153
:102920000E94E524F401EF59FF4F882381F0808154
:1029300091810196918380833797208130E08217BF
:1029400093073CF0CE010D960E94D2115FC0118218
:1029500010828401045A1F4FF80180819401265B84
:102960003F4F1901882339F0F901808191810E943C
:102970007C1BF8011082F401E55AFF4F8081882307
:1029800071F03296408151816281738100E010E0E4
:102990009801F101808191810E947A1D36C0F40175
:1029A000EE5AFF4F2F852130A1F440815181628181
:1029B00073811F921F921F921F92812C912C5401A0
:1029C000C12CD12C90E8E92E9FE3F92E93018201CE
:1029D00013C000811181228133811F921F921F92A7
:1029E0001F92812C912C5401C12CD12C80E8E82E0F
:1029F0008FE3F82EB301A201F101808191810E9441
:102A0000901B0F900F900F900F90312C832D2F96CD
:102A10000FB6F894DEBF0FBECDBFDF91CF911F91EF
:102A20000F91FF90EF90DF90CF90BF90AF909F906D
:102A30008F907F906F905F904F903F902F90089570
:102A40002F923F924F925F926F927F928F929F92BE
:102A5000AF92BF92CF92DF92EF92FF920F931F93AC
:102A6000CF93DF93CDB7DEB761970FB6F894DEBF93
:102A70000FBECDBF3C011C018CE5280E311CF101BD
:102A80008081882339F07297808191810E947C1B1C
:102A9000F10110822301F6E44F0E511CF201608116
:102AA0007181CE0101960E943D2CC980DA80EB80B5
:102AB000FC800D811E812F81388549855A856B8563
:102AC0007C85F201808191810E94E5248D878111AE
:102AD00002C01D8648C06B817C8180E090E00E942E
:102AE00026446E877F87888B998BF2018081918144
:102AF0000E942326BC01882777FD8095982F0E948D
:102B00002844AB01BC011F921F921F921F92812C7F
:102B1000912C5401C12CD12C20E8E22E2FE3F22E6F
:102B20000E851F8528893989F301E65BFF4F808177
:102B300091810E94901BF201808191810E94172651
:102B40000F900F900F900F90882319F261E0F2011F
:102B5000808191810E94D825F301EB5BFF4F808338
:102B600081E0F10180838D8561960FB6F894DEBF18
:102B70000FBECDBFDF91CF911F910F91FF90EF90CE
:102B8000DF90CF90BF90AF909F908F907F906F908D
:102B90005F904F903F902F9008954F925F926F9269
:102BA0007F928F929F92AF92BF92CF92DF92EF92DD
:102BB000FF920F931F93CF93DF93EC018C01085B7F
:102BC0001F4F633061F460E070E0F8018081918113
:102BD0000E94C72A2B013C0162E070E00BC061E05B
:102BE00070E0F801808191810E94C72A2B013C018D
:102BF00063E070E0F801808191810E94C72A4B0157
:102C00005C018E01045A1F4FF8018081882361F016
:102C10007097808191810E944B27FE01E35AFF4FFC
:102C200060837183828393837E01FBE5EF0EF11C49
:102C3000F701808181110EC03D9720813181428151
:102C40005381C301B2010E94894387FF03C081E021
:102C5000F7018083F7017080CE01865B9F4F6C0186
:102C60007720C1F0FE01E25BFF4F2081318142817C
:102C70005381C501B4010E94894387FF0BC0F6014F
:102C8000808191810E94AF1CF701108281E0F801E0
:102C900080831AC0F8018081882339F0F601808191
:102CA00091810E947C1BF8011082C35ADF4F48813A
:102CB00059816A817B8100E010E09801F6018081F2
:102CC00091810E947A1D712C872DDF91CF911F91E8
:102CD0000F91FF90EF90DF90CF90BF90AF909F90BB
:102CE0008F907F906F905F904F900895865B9F4F7D
:102CF000FC01808191810C94B81CAF92BF92CF925D
:102D0000DF92EF92FF920F931F93CF93DF93CDB794
:102D1000DEB766970FB6F894DEBF0FBECDBF7C015D
:102D2000162F022FD32E80912F0481110DC086E221
:102D300094E04E8B0E94A50281E080932F048CEEDC
:102D400091E10E944F404E8980910A02882309F444
:102D50009CC0B701CE0101964E8B0E94C430DF9219
:102D60000F938DB79EB7805491090FB6F8949EBF0C
:102D70000FBE8DBFADB7BEB7119680E4F701329696
:102D800001900D928A95E1F79E012F5F3F4F4E898A
:102D9000612FCE0140960E94FA0E2A893B898889CC
:102DA0009989281B390B359527951B861A861D8610
:102DB0001C861F861E860FB6F894DEBF0FBECDBFE1
:102DC0006901CC0CDD1C232B91F0C6010E94434607
:102DD0008C01009771F4E0912404F0912504309760
:102DE00021F480E090E00E94604B0995EECF00E076
:102DF00010E01B870A871D870C87C00ED11EDF8657
:102E0000CE86AA88BB88C888D988CA14DB0479F022
:102E1000B80182E090E00E945736F601219131918D
:102E20006F01FC01318320830E5F1F4FEECF1D87A2
:102E30000C87AE01465F5F4FB701CE0101960E943D
:102E4000F011BE016F5F7F4F86E294E00E945A044A
:102E5000CE0101960E94AF02CE010A960E940B0A93
:102E600010920A0286E294E00E94D702882349F079
:102E700081E080930A02CE0140960E940B0A88E00E
:102E800024C0CE0140960E940B0A86E294E00E9484
:102E9000D702882329F081E080930A0280E115C0DF
:102EA00086E294E00E94EA020E94E217009761F035
:102EB0008031910529F486E294E00E94E20204C088
:102EC00021E020930A0202C080E090E066960FB6EF
:102ED000F894DEBF0FBECDBFDF91CF911F910F9150
:102EE000FF90EF90DF90CF90BF90AF900895CF9379
:102EF000DF93EC014F818885482B6E818C819D8109
:102F00000E94DE13882351F09885982319F0282F0A
:102F100030E009C09F81982321F406C020E030E012
:102F200002C020E130E0C901DF91CF910895FC019A
:102F30006681848195810E94CD15882319F080E1F6
:102F400090E0089580E090E00895FC0184819581EF
:102F50000E942015882319F080E190E0089580E018
:102F600090E00895FC016681848195810E94761627
:102F7000882319F080E190E0089580E090E00895C2
:102F8000CF92DF92EF92FF920F931F93CF93DF9335
:102F90008C016B017A01EC018DEE92E0899399939B
:102FA000CE010E945C31F801D582C482B701CE0106
:102FB000DF91CF911F910F91FF90EF90DF90CF9015
:102FC0000C94CE300F931F93CF93DF93EC01E881E5
:102FD000F9810190F081E02D09958C0180319105F6
:102FE00039F4BE016E5F7F4F8C819D810E94CE308F
:102FF000C801DF91CF911F910F910895CF92DF9279
:10300000EF920F93CF93DF931F92CDB7DEB76C0192
:1030100029830E94C01783EF92E0F6019183808399
:10302000298126830783E0860F90DF91CF910F914E
:10303000EF90DF90CF9008950F931F93CF93DF937E
:103040001F92CDB7DEB78C0129830E94C01789EF8C
:1030500092E0F80191838083298126830F90DF918C
:10306000CF911F910F910895CF93DF93EC010E94B0
:10307000C0178FEF92E099838883DF91CF910895F5
:103080000F931F93CF93DF931F92CDB7DEB78C01C1
:1030900029830E94C01785E093E0F8019183808323
:1030A000298126830F90DF91CF911F910F91089571
:1030B000FC01148283E090E0978386831286118658
:1030C00013860895EF92FF921F93CF93DF931F9281
:1030D000CDB7DEB77C01162FFC0160858CE095E052
:1030E00049830E941E34612F8CE095E00E94C53315
:1030F0004981642F8CE095E00E94C5338CE095E017
:103100000E943B34F70185830F90DF91CF911F918F
:10311000FF90EF9008951F93CF93DF93EC01162F4C
:103120008E819F81029729F440E069E3CE010E94DD
:103130006218412F406C6EE2CE010E94621844E09A
:1031400062E2CE010E94621840E464E2CE010E9475
:10315000621840E063E2CE010E9462184CE660E231
:10316000CE01DF91CF911F910C9462181F93CF93E2
:10317000DF93EC01162F68858CE095E00E941E34E9
:10318000612F8CE095E00E94C5338CE095E00E94B1
:103190003B348D8341E068858CE095E00E941B34D0
:1031A0008CE095E00E947533C82F8CE095E00E947A
:1031B0003B348C2FDF91CF911F910895BF92CF9216
:1031C000DF92EF92FF920F931F93CF93DF93EC0167
:1031D0006FE20E94B618082F0F7109F461C010E069
:1031E000C12CD12C760168858CE095E00E941E34BC
:1031F000E0910C05F0910D050190F081E02D6CEA55
:103200008CE095E009958CE095E00E943B3442E02B
:1032100068858CE095E00E941B348823B1F08CE037
:1032200095E00E947533B82E8CE095E00E947533CE
:10323000982F88278B29AC01662757FD6095762F3C
:10324000C40ED51EE61EF71E06C067E073E083EFCE
:1032500095E00E94E8401F5F1013C5CFC701B6017B
:103260000E94284429E23CE54FE05CE30E94DC44F4
:103270006B017C01612F70E080E090E00E942844A7
:103280009B01AC01C701B6010E948D43AB01BC019B
:103290007058488359836A837B831C8281E001C014
:1032A00080E0DF91CF911F910F91FF90EF90DF9021
:1032B000CF90BF9008951F93CF93DF931F92CDB708
:1032C000DEB7162F8CE095E049830E941E344981B9
:1032D000642F8CE095E00E94C5338CE095E00E945D
:1032E0003B34811114C041E0612F8CE095E00E94D5
:1032F0001B348CE095E00E946D33892B41F08CE00B
:1033000095E00F90DF91CF911F910C9475338FEF63
:103310009FEF0F90DF91CF911F910895EF92FF9251
:103320000F931F93CF93DF937C01EB018A016330EE
:10333000710521F04230510509F051C0CE010197CD
:10334000039758F50115110581F04FE050E06BE649
:10335000C7010E945B198F3F2FEF920719F001E020
:1033600010E013C00130110551F04FE050E06AE663
:10337000C7010E945B198F3FEFEF9E0721F4C33016
:10338000D10569F027C000E010E0C330D10529F471
:10339000873D9105F1F5C2E0D0E02097D9F4011501
:1033A000110561F04FE050E069E6C7010E945B192A
:1033B000833D910589F10130110549F04FE050E05E
:1033C00068E6C7010E945B19833D910541F1C33056
:1033D000D10519F00230110511F480E025C0F70184
:1033E000D783C683209759F0D7FD11C023977CF46B
:1033F0000130110511F48BE608C08AE606C00130E1
:10340000110511F489E601C088E6F701808781E0A3
:103410000BC0C1E0D0E0C1CF01E010E002C000E08D
:1034200010E0C0E0D0E0D6CFDF91CF911F910F9197
:10343000FF90EF900895EF92FF920F931F93CF9319
:10344000DF93CDB7DEB728970FB6F894DEBF0FBE77
:10345000CDBF7C01FC0160837183802F02831383C5
:10346000248335834683578360E00E94943D60E067
:10347000F70183810E94943D60E0F70184810E94FE
:10348000943D60E0F70185810E94943D60E0F70182
:1034900086810E94943D60E0F70187810E94943DFF
:1034A00061E0F70180810E94943D60E0F701818135
:1034B0000E94943D61E0F701808128960FB6F89450
:1034C000DEBF0FBECDBFDF91CF911F910F91FF9057
:1034D000EF900C94CD3D0F931F93CF93DF93EC01AE
:1034E00077FF05C071956195710981E001C080E0A9
:1034F0008B016F3F710519F014F00FEF10E081118F
:1035000007C0B8018A810E947A3C60E070E006C082
:1035100060E070E08A810E947A3CB8018B81DF9183
:10352000CF911F910F910C947A3C0F931F93CF93DF
:10353000DF93EC0177FF05C071956195710981E01A
:1035400001C080E08B016F3F710519F014F00FEF9F
:1035500010E0811107C0B8018D810E947A3C60E0C3
:1035600070E006C060E070E08D810E947A3CB80196
:103570008E81DF91CF911F910F910C947A3C0F9324
:103580001F93CF93DF93EC018A010E946B1AB8015D
:10359000CE01DF91CF911F910F910C94951AFC01F0
:1035A00084810E94553C2DE5AC01249FC001259FDC
:1035B000900D11246AE070E00E94CA45CB01089585
:1035C000FC0187810E94553C2DE5AC01249FC00180
:1035D000259F900D11246AE070E00E94CA45CB013E
:1035E0000895FC0181810E94033E21E0892B09F0AE
:1035F00020E0822F08958F929F92AF92BF92CF9238
:10360000DF92EF92FF920F931F93CF93DF93CDB78B
:10361000DEB72A970FB6F894DEBF0FBECDBF4C01C0
:10362000E982FA820B831C832D833E834F83588764
:1036300069877A87FC0114821582168217821086A8
:103640001186128613861486158616861786108AAA
:10365000118A128A138A148A158A168A178A108E7A
:103660007C01F7E2EF0EF11CC7010E94252F8401B7
:10367000065D1F4FC8010E94252FF401B182A08270
:10368000D382C2828981818F8A81828F6B8170E02F
:10369000C7010E94F02F6C8170E0C8010E94F02FDA
:1036A0008D81F401838F8E81848F8F81858F8885B2
:1036B000868F898590E0A0E0B0E0878F90A3A1A3DA
:1036C000B2A38A8590E0A0E0B0E083A394A3A5A371
:1036D000B6A32A960FB6F894DEBF0FBECDBFDF911A
:1036E000CF911F910F91FF90EF90DF90CF90BF90FF
:1036F000AF909F908F900895CF93DF93EC01198A3C
:103700001A8A1B8A1C8A1D861E861F86188A0E949A
:103710009D3B69877A878B879C87DF91CF9108953E
:103720002F923F924F925F926F927F928F929F92D1
:10373000AF92BF92CF92DF92EF92FF920F931F93BF
:10374000CF93DF93CDB7DEB764970FB6F894DEBFA3
:103750000FBECDBF1C0149835A836B837C83098BC9
:103760001A8B2B8B3C8B49A45AA46BA47CA449864E
:103770005A866B867C860E949D3BD10119962D91BD
:103780003D914D915C911C972B013C01421A530ACB
:10379000640A750A4D825E826F82788619966D93EF
:1037A0007D938D939C931C97411451046104710483
:1037B00009F4A9C029893A894B895C8969817A8190
:1037C0008B819C810E94244369837A838B839C83B1
:1037D000C301B2010E9428446D837E838F83988742
:1037E00020E034E244E759E40E948D439B01AC01A0
:1037F00069817A818B819C810E94DC44F10121895D
:103800003289438954890E9425432B013C01D1010F
:1038100051966D937D938D939C93549729813A8112
:103820004B815C81C701B6010E94DC446B017C01C5
:10383000A3019201C501B4010E94DC449B01AC01CB
:10384000C701B6010E9425434B015C01F1012585AA
:1038500036854785508969817A818B819C810E9458
:1038600024432B013C012D813E814F81588560E02E
:1038700074E284E799E40E948D439B01AC01C3018B
:10388000B2010E94DC449B01AC0169857A858B857D
:103890009C850E94DC449B01AC01C501B4010E94DF
:1038A00025430E94F54349805A806B807C80D1017A
:1038B0001D964D925D926D927C9250975A962C91E6
:1038C0005A9730E0A901461B570B620F731F8D9169
:1038D0009C9164960FB6F894DEBF0FBECDBFDF910A
:1038E000CF911F910F91FF90EF90DF90CF90BF90FD
:1038F000AF909F908F907F906F905F904F903F9090
:103900002F900C94BF1A64960FB6F894DEBF0FBECA
:10391000CDBFDF91CF911F910F91FF90EF90DF907E
:10392000CF90BF90AF909F908F907F906F905F905F
:103930004F903F902F90089570E0FC01808191811D
:10394000413029F444275527461B570B06C0222730
:103950003327261B370BAB01B9010C94BF1A40E08B
:1039600050E060E070E0FC01808191810C94BF1A0E
:103970008F929F92AF92BF92CF92DF92EF92FF927F
:103980001F93CF93DF93EC01162F8A819B810E94B6
:103990004B274B015C018C8181113BC0113029F414
:1039A00020E030E044EB52E404C020E030E044EB9F
:1039B00052ECC501B4010E9425436B017C0120E05B
:1039C00030E044EB53E40E94D84487FD09C020E076
:1039D00030E044EB53E4C701B6010E94244315C014
:1039E000CD82DE82EF82F88620E030E0A901C701B7
:1039F000B6010E94894387FF0CC020E030E044EB11
:103A000053E4C701B6010E9425436D837E838F83F3
:103A10009887A50194016D817E818F8198850E9490
:103A200024436B017C0120E030E044E353E40E9436
:103A3000D84418164CF420E030E044EB53E4C701BE
:103A4000B6010E94244312C020E030E044E353EC6E
:103A5000C701B6010E94894387FF0AC020E030E019
:103A600044EB53E4C701B6010E9425436B017C017E
:103A700020E030E0A901C701B6010E94D844460108
:103A80005701181624F0B7FAB094B7F8B094698DBE
:103A900070E080E090E00E9428449B01AC01C501E9
:103AA000B4010E94894387FF06C0CE010E94AF1C6B
:103AB0001C8281E013C020E030E0A901C701B601FB
:103AC0000E94D844181614F441E001C043E06A8D06
:103AD000CE010E949C1C81E08C8380E0DF91CF911D
:103AE0001F91FF90EF90DF90CF90BF90AF909F908D
:103AF0008F9008958F929F92AF92BF92CF92DF9254
:103B0000EF92FF920F931F93CF93DF93EC014A0143
:103B10005B0168017901011511052105310519F1D4
:103B20008D899E89AF89B88D892B8A2B8B2B31F497
:103B30000E949D3B6D8B7E8B8F8B988F0E949D3B4F
:103B40000D891E892F89388D601B710B820B930B99
:103B5000C616D706E806F90630F41D8A1E8A1F8AA3
:103B6000188E81E04BC08A819B810E944B279B016C
:103B7000AC01C501B4010E9424436B017C0120E02B
:103B800030E044E353E40E94D84418164CF420E09B
:103B900030E044EB53E4C701B6010E94244312C055
:103BA00020E030E044E353ECC701B6010E948943B2
:103BB00087FF0AC020E030E044EB53E4C701B601C0
:103BC0000E9425436B017C019701860130581F92AA
:103BD0001F921F921F92812C912C5401C12CD12C29
:103BE00080E8E82E8FE3F82EB501A401CE010E94F3
:103BF000901B0F900F900F900F9080E0DF91CF916E
:103C00001F910F91FF90EF90DF90CF90BF90AF90FA
:103C10009F908F900895CF92DF92EF92FF92CF9373
:103C2000DF93EC010E949D3B6B017C014D895E8915
:103C30006F89788D452B462B472B81F4CD8ADE8A00
:103C4000EF8AF88E6B8D70E0CE0187960E94293046
:103C50006C8D70E0CE018A960E9429304D895E8974
:103C60006F89788DC41AD50AE60AF70A4F8D58A1D4
:103C700069A17AA14C155D056E057F0530F41D8A9A
:103C80001E8A1F8A188E81E001C080E0DF91CF91EB
:103C9000FF90EF90DF90CF900895CF92DF92EF9258
:103CA000FF92CF93DF93EC010E949D3B6B017C015F
:103CB0004D895E896F89788D452B462B472B81F482
:103CC000CD8ADE8AEF8AF88E6D8D70E0CE01879600
:103CD0000E9429306E8D70E0CE018A960E942930B4
:103CE0004D895E896F89788DC41AD50AE60AF70A6C
:103CF0004BA15CA16DA17EA14C155D056E057F05F4
:103D000030F41D8A1E8A1F8A188E81E001C080E06F
:103D1000DF91CF91FF90EF90DF90CF900895DC017D
:103D2000ED91FC9182819381FC01EB5BFF4F20813F
:103D3000213029F42FEF3FEF41E060E004C02FEF86
:103D40003FEF40E067E00E947D16892B11F480E090
:103D5000089581E00895FF920F931F93CF93DF930F
:103D6000EC018B01F42EE881F981848595850E9410
:103D7000F11A882339F064E472E083EF95E00E9441
:103D8000D640FFCFEC81FD81B80184859585FF2069
:103D900019F00E946B1A02C00E94951AC80117FF01
:103DA00003C091958195910962E370E00E94CA4534
:103DB000892B39F5FF2069F06FE272E083EF95E01F
:103DC0000E94A440EA81FB81848595850E94CF1AD8
:103DD0000CC069E172E083EF95E00E94A440EA81A3
:103DE000FB81848595850E94E01A4AE050E0BC0181
:103DF00083EF95E0DF91CF911F910F91FF900C948D
:103E0000C741DF91CF911F910F91FF9008956F925D
:103E10007F928F929F92AF92BF92CF92DF92EF925A
:103E2000FF920F931F93CF93DF93CDB7DEB72C97FD
:103E30000FB6F894DEBF0FBECDBF3C01842F898240
:103E40009A82AB82BC82CD82DE82EF82F8860987BD
:103E50001A872B873C8729813A81F3013383228398
:103E60002B813C81358324832D813E8137832683BA
:103E70002F8138853187208729853A8533872287A6
:103E80002B853C85358724874083668762E00E94C6
:103E9000943DF30111822C960FB6F894DEBF0FBE4D
:103EA000CDBFDF91CF911F910F91FF90EF90DF90E9
:103EB000CF90BF90AF909F908F907F906F9008951C
:103EC000EF92FF920F931F93CF93DF9300D000D018
:103ED000CDB7DEB77C019C838B83DC0112968D917C
:103EE0009C911397FC01ED5BFF4F0081023009F4B8
:103EF000A0C028F4002351F0013031F178C1033023
:103F000009F4F8C0043009F468C171C1FC01EE5B2A
:103F1000FF4F208132961081211136C1111105C049
:103F20002FEF3FEF41E067E002C1F7018285938503
:103F30000E940B1E882309F45AC1D70112968D9155
:103F40009C91139741E0D4C020910D02FC01EC5BE1
:103F5000FF4F222359F11081111105C023E030E0F9
:103F600043E063E030C0F701848195810E942E2DEB
:103F7000882341F0813009F03AC1F70182819381B1
:103F800062E006C0D70112968D919C91139760E074
:103F900002960E944032D7011296ED91FC91139740
:103FA000EC5BFF4F108210920D0221C1DC01AE5B71
:103FB000BF4F2C91108121112AC011110CC02FEF7D
:103FC0003FEF42E060E00E947D16009709F410C1C7
:103FD000409731F10AC1F701828593850E940B1E3B
:103FE000882309F404C1D70112968D919C911397EF
:103FF00042E060E002960E945732F701828193818D
:10400000FC01EC5BFF4F108232970083F0C011116E
:10401000CDC0CE0103960E948F1E882309F4E7C00D
:10402000D7011296ED91FC911397EC5BFF4F008343
:10403000DFC0FC01EE5BFF4F208132961081211121
:10404000A3C0111140C020913C04222329F02FEF7E
:104050003FEF47E065E004C02FEF3FEF45E067E04A
:104060000E947D1682FF1DC000E027E047E060E06F
:10407000CE0101960E943731BE016F5F7F4FF7017D
:10408000828193810E94CE30D70112968D919C91AE
:10409000139760E002960E94293281E080933C04ED
:1040A000A7C0009709F4A4C0409709F09EC0809172
:1040B0003C04811171C0F7018281938162E0029614
:1040C0000E94293269C0F701828593850E940B1EE8
:1040D000882309F48CC020913C04D70112968D915D
:1040E0009C911397222319F047E065E03BC045E01F
:1040F00067E038C0FC01EE5BFF4F2081211140C01A
:1041000043E060E002960E940F32082FF70182819F
:104110009381FC01EC5BFF4F1081111110C02FEF58
:104120003FEF002311F043E001C045E060E00E9452
:104130007D16009709F45CC0409771F156C0F701F5
:10414000828593850E940B1E882309F450C0D701F5
:1041500012968D919C911397002311F043E001C0BA
:1041600045E060E002960E945732F7018281938118
:10417000FC01EC5BFF4F1082329721E0208337C0B7
:10418000FC01EC5BFF4F1081111110C0CE010396B2
:104190000E948F1E882359F1D7011296ED91FC9150
:1041A0001397EC5BFF4F81E0808322C0F70182858B
:1041B00093850E944D1E8823D1F0D70112968D91D0
:1041C0009C911397FC01EC5BFF4F10823297108299
:1041D000319680818F5F80830AC02FEF3FEF40E0F0
:1041E00060E00E947D16409711F411E001C010E0DC
:1041F000812F0F900F900F900F90DF91CF911F9113
:104200000F91FF90EF9008950F931F93CF93DF933B
:1042100000D000D000D0CDB7DEB79A8389839C83CD
:104220008B839E838D8300E010E041E0B801CE01D6
:1042300001960E94AB1E6FE070E080E090E00E946B
:10424000C03B0F5F1F4F011581E0180771F70FEF9B
:1042500010E041E0B801CE0101960E94AB1E6FE074
:1042600070E080E090E00E94C03B01501109011510
:104270008FEF180771F701E01FEF41E0B801CE01A1
:1042800001960E94AB1E6FE070E080E090E00E941B
:10429000C03B0F5F1F4F0130110579F700E010E0C0
:1042A00040E0B801CE0101960E94AB1E6FE070E0C5
:1042B00080E090E00E94C03B0F5F1F4F011581E03E
:1042C000180771F70FEF10E040E0B801CE0101963A
:1042D0000E94AB1E6FE070E080E090E00E94C03B67
:1042E0000150110901158FEF180771F701E01FEF59
:1042F00040E0B801CE0101960E94AB1E6FE070E075
:1043000080E090E00E94C03B0F5F1F4F013011051D
:1043100079F780E026960FB6F894DEBF0FBECDBFCA
:10432000DF91CF911F910F91089560910C02FC01D4
:10433000828593850E94B81C882329F080913B04D4
:104340008F5F80933B0480913B04843059F410923A
:104350003B0480910C02813011F483E001C081E0C4
:1043600080930C0280E008950F931F93CF93DF9307
:10437000EC0180913D0481110FC0888599850E94D0
:104380004B276093370470933804809339049093DB
:104390003A0481E080933D0480910B02882331F040
:1043A0008A859B850E947C1B10920B0240913704EA
:1043B000509138046091390470913A0400E41BE490
:1043C0002CE430E08A859B850E947A1D882321F0A9
:1043D00081E080930B0201C080E0DF91CF911F91BB
:1043E0000F910895FC01828193810C942015AF9266
:1043F000BF92CF92DF92EF92FF920F931F93CF93D2
:10440000DF93CDB7DEB7C259D1090FB6F894DEBF3E
:104410000FBECDBF8C01FC0164817581CE018F5729
:104420009F4F0E943D2CCD57DF4FA881C358D040ED
:10443000CC57DF4FB881C458D040CB57DF4FF880FE
:10444000C558D040CA57DF4FE880C658D040C9573A
:10445000DF4FD880C758D040C857DF4FC880C858F2
:10446000D040C757DF4FB880C958D040C657DF4F3C
:10447000A880CA58D040CF57DF4F28813981C15812
:10448000D040F80184819581FC01828D938D28179D
:10449000390739F46AEF71E083EF95E00E94D64066
:1044A0006EC02830310508F44AC080E090E0E0E0BA
:1044B0004CE050E0B901042E02C0769567950A944D
:1044C000E2F7677011F4EE2351F0EDE8F0E0EC0F45
:1044D000FD1FE80FF91F605D60830196E1E0435026
:1044E00051094D3FFFEF5F0729F7AE0143575F4F7B
:1044F000FA01E80FF91F1082C457DF4F8881CC58AA
:10450000D0408F93C557DF4F8881CB58D0408F93D1
:10451000AF92BF92CF92DF92EF92FF92BF93AF9391
:104520003F932F935F934F9385E193E09F938F93F6
:10453000CE0101969F938F930E947A4814C0AF9248
:10454000BF92CF92DF92EF92FF92BF93AF933F93D0
:104550002F938FE593E09F938F93CE0101969F93C6
:104560008F930E947A480FB6F894DEBF0FBECDBF7E
:10457000BE016F5F7F4F83EF95E00E94C94080E0EE
:10458000CE56DF4F0FB6F894DEBF0FBECDBFDF9122
:10459000CF911F910F91FF90EF90DF90CF90BF9040
:1045A000AF900895FC01808591850C945F27FC01F4
:1045B000808591850E944B27AB01BC0122E030E051
:1045C00083EF95E00E94CA4280E0089544E0FC0138
:1045D000828193810E94DE1391E0843009F090E0A3
:1045E000892F089541E0FC01828193810E94DE13AE
:1045F00091E0813009F090E0892F089542E0FC01BC
:10460000828193810E94DE1391E0823009F090E074
:10461000892F08952FEF3FEF41E063E0FC01828195
:1046200093810E947D16009749F0409749F063EB13
:1046300071E083EF95E00E94D64002C080E00895CB
:1046400081E00895EF92FF920F931F93CF93DF9332
:10465000CDB7DEB728970FB6F894DEBF0FBECDBF3B
:10466000FC0102811381B801CE0107960E94C4307B
:104670008FEF8F938F938DB79EB7805491090FB6AC
:10468000F8949EBF0FBE8DBFADB7BEB7119680E444
:10469000F801329601900D928A95E1F79E01295F0B
:1046A0003F4F41E067E0CE0101960E94FA0E09817A
:1046B0001A81EB80FC800FB6F894DEBF0FBECDBF31
:1046C0000E151F0539F0F801819191918F010E941B
:1046D0006E04F6CF89819A812D813E81281B390B8A
:1046E00035952795232B11F00E94DB4681E0289613
:1046F0000FB6F894DEBF0FBECDBFDF91CF911F91F3
:104700000F91FF90EF900895CF93DF93EC01888194
:104710000E94033E892B09F45BC08981811158C036
:104720004E8550E0FA013197E031F10508F041C0C3
:10473000EE58FF4F0C941F46CE010E94601F47C0E9
:10474000CE010E94042143C0CE010E9495213FC0AA
:10475000CE010E94B4213BC0CE010E94F22137C09D
:10476000CE010E94F72133C0CE010E94D2222FC079
:10477000CE010E94D7222BC063E001C061E0CE01D0
:104780000E94E62224C063E001C061E0CE010E94E5
:10479000F2221DC063E001C061E0CE010E94FE2252
:1047A00016C0CE010E940A2312C0CE010E9422230D
:1047B0000EC067E572E083EF95E00E94A4404AE0F6
:1047C00050E06E8583EF95E00E94AA4181E08983E5
:1047D0008981DF91CF910895EF92FF920F931F93FC
:1047E000CF93DF937C01C82FDF2D00E010E0C801DC
:1047F0000E94A44A89930F5F1F4F0C301105B9F72F
:10480000C701DF91CF911F910F91FF90EF90089515
:104810008EBD00000DB407FEFDCF8EB508951F9329
:10482000CF93DF93FC0123A92223A1F085A991E076
:10483000980F95ABDF01A80FB11DA80FB11D5396BE
:104840004C91539754963C91215023AB903199F45D
:1048500015AA11C080898823F9F0228991E0920F6E
:10486000928BDF01A20FB11D1C918150808B903182
:1048700029F4128A03C0842F932F15C08BE50E9460
:104880000824282F30E0D22FCC27812F0E94082423
:104890009E01282BC90107C08AE50E940824282F01
:1048A00030E010E0F0CFDF91CF911F9108950F938A
:1048B0001F93CF93DF93CDB7DEB78C018CE0E0E19F
:1048C000F2E0D8015A9601900D928A95E1F7F8012D
:1048D00011AE12AE13AEE45AFF4F10823196108221
:1048E0003196108231961082339611821082329660
:1048F0008EE190E09183808388E691E00E944346B8
:10490000F80190A787A3E458FF4F1082118212820A
:1049100013823496118210823296118210827C9713
:10492000118210823296118210828F81F80186A343
:10493000E659FF4F888599859183808332968A85D1
:104940009B85AC85BD8580839183A283B383349698
:104950008E859F85A889B98980839183A283B3833B
:1049600034968A899B89AC89BD8980839183A2838F
:10497000B38334964E895F89688D798D40835183E6
:10498000628373830E948E308CB58C7F81608CBD76
:104990008DB58E7F8DBDF801EC57FF4F8A8D9B8DB5
:1049A0009183808332964C8D5D8D6E8D7F8D40839B
:1049B00051836283738388A13496808360E0DF91A2
:1049C000CF911F910F910C94943DCF92DF92EF9273
:1049D000FF920F931F93CF93DF93CDB7DEB72C9742
:1049E0000FB6F894DEBF0FBECDBFC982DA8229812F
:1049F0003A812150310981E02230310508F080E010
:104A00002C960FB6F894DEBF0FBECDBFDF91CF91CD
:104A10001F910F91FF90EF90DF90CF9008953F92FC
:104A20004F925F926F927F928F929F92AF92BF92BE
:104A3000CF92DF92EF92FF920F931F93CF93DF936A
:104A4000CDB7DEB72C970FB6F894DEBF0FBECDBF43
:104A50004C01C982DA82EB82FC820D831E83498776
:104A60005A873A2C0D811E817C018CE6E80EF11CE0
:104A7000F401E659FF4F608171818B819C81681B35
:104A8000790B77FF03C0719561957109882777FDD0
:104A90008095982F0E942844F7012081318142811E
:104AA00053810E94DC442B013C01F0E78F0E911CE6
:104AB00089859A8597FD0196BC0175956795600F6C
:104AC000711F882777FD8095982F0E942844F40154
:104AD00020813181428153810E94DC444B015C0181
:104AE000A30192010E9424436B017C01332009F44D
:104AF00045C06DE973E083EF95E00E94A4406981B1
:104B00007A814AE050E083EF95E00E94C14167E975
:104B100073E083EF95E00E94A4404AE050E0B801C2
:104B200083EF95E00E94C1416CE873E083EF95E06C
:104B30000E94A44022E030E0B301A20183EF95E09F
:104B40000E94C8426FE773E083EF95E00E94A440A3
:104B500022E030E0B501A40183EF95E00E94C84255
:104B600065E773E083EF95E00E94A44022E030E027
:104B7000B701A60183EF95E00E94CA42C701B601C2
:104B80002C960FB6F894DEBF0FBECDBFDF91CF914C
:104B90001F910F91FF90EF90DF90CF90BF90AF905B
:104BA0009F908F907F906F905F904F903F9008956F
:104BB000FC01EA59FF4F2081318137FF02C020E01C
:104BC00030E0662311F011821082FC01E859FF4F9A
:104BD000808191818217930714F082E001C081E007
:104BE000662311F0118210820895FC0186A10E94B3
:104BF000553C83319105B4F0BC01882777FD809541
:104C0000982F0E9428442FED3FE443E951E40E948D
:104C100024439B01AC016AE979EA86E195E40E94AC
:104C20008D43089560E070EC89E794E40895865719
:104C30009F4FFC0180810E94033E21E0892B09F4F3
:104C400020E0822F089586599F4FFC018081918139
:104C50000895FF920F931F93CF93DF93EC01F62EED
:104C60008C010C5F1F4FC8010E9458188CE095E022
:104C70000E94043442E050E063E070E0C8010E940A
:104C80008E19811107C065E573E083EF95E00E94FE
:104C9000D640FFCF6F2DC8010E948B181C8A1D8A39
:104CA0001E8A1F8A188E198E1A8E1B8E188A198AD0
:104CB0001A8A1B8A188219821A821B82CE014C968C
:104CC0000E94EC236EE473E083EF95E00E94A44021
:104CD0004C8D5D8D6E8D7F8D22E030E083EF95E011
:104CE0000E94C84265E473E083EF95E00E94A4400F
:104CF00048A159A16AA17BA122E030E083EF95E0B1
:104D00000E94C84265E373E083EF95E00E94A440EF
:104D10004CA15DA16EA17FA122E030E083EF95E080
:104D2000DF91CF911F910F91FF900C94CA424F9247
:104D30005F926F927F928F929F92AF92BF92CF922B
:104D4000DF92EF92FF92CF93DF93EC0104960E94E3
:104D5000DE180E949D3BCC88DD88EE88FF884B01E1
:104D60005C018C189D08AE08BF08888E998EAA8EAB
:104D7000BB8E6C8B7D8B8E8B9F8B2C8D3D8D4E8D4A
:104D80005F8D6C817D818E819F810E9424436B01A8
:104D90007C0120E030E0A9010E94D84426013701BF
:104DA000181624F077FA709477F8709420E030E0C9
:104DB00040E850E468A179A18AA19BA10E94DC444B
:104DC0009B01AC01C301B2010E94894387FF03C06C
:104DD000C12CD12C7601C501B4010E94264420E0EB
:104DE00034E244E759E40E948D439B01AC01C701C2
:104DF000B6010E94DC442CA13DA14EA15FA10E94FE
:104E0000DC449B01AC01688979898A899B890E946D
:104E10002543688B798B8A8B9B8BC888D988EA88D5
:104E2000FB8820E030E0A901C701B6010E94894358
:104E300087FF07C020E030E044EB53E4C701B60130
:104E4000E6CFC888D988EA88FB8820E030E044EBC8
:104E500053E4C701B6010E94D84487FD0DC020E08D
:104E600030E044EB53E4C701B6010E942443688B51
:104E7000798B8A8B9B8BE5CFDF91CF91FF90EF9061
:104E8000DF90CF90BF90AF909F908F907F906F906A
:104E90005F904F900895CF93DF93EC01888588232E
:104EA00019F0CE010E949726688979898A899B89A1
:104EB000DF91CF91089521E0FC01208708952F9282
:104EC0003F924F925F926F927F928F929F92AF929A
:104ED000BF92CF92DF92EF92FF920F931F93CF93E7
:104EE000DF93CDB7DEB72D970FB6F894DEBF0FBEB8
:104EF000CDBF8C010E949D3B6B017C0180916E04B3
:104F000081110BC0C0926A04D0926B04E0926C04D1
:104F1000F0926D0481E080936E0440906A0450909A
:104F20006B0460906C0470906D04C80104960E943C
:104F3000DE18B82EC0926A04D0926B04E0926C0422
:104F4000F0926D048091680490916904813091051C
:104F500009F45CC18230910509F404C1892B09F080
:104F6000F6C28091640490916504A0916604B091AA
:104F70006704892B8A2B8B2B71F464E273E083EF37
:104F800095E00E94D640C0926404D0926504E092FD
:104F90006604F09267048091640490916504A09186
:104FA0006604B0916704C81AD90AEA0AFB0A80E4C9
:104FB000C8168BE4D8068CE4E806F10408F05DC05E
:104FC000BB2009F4C4C22090620430906304EFEF68
:104FD0002E1A3E0A3092630420926204F801448043
:104FE00055806680778080905E0490905F04A090EA
:104FF0006004B0906104A5019401C301B2010E9454
:1050000024436B017C01B10180E090E00E942644C2
:105010009B01AC01C701B6010E948D439B01AC010D
:10502000C501B4010E9425439B01AC0160935E045D
:1050300070935F048093600490936104C301B20194
:105040000E9424439B01AC01C701B6010E94DC44CD
:105050009B01AC0160915A0470915B0480915C04E7
:1050600090915D040E94254360935A0470935B0401
:1050700080935C0490935D046AC2609162047091B5
:1050800063046150710980E090E00E9426449B0116
:10509000AC0160915A0470915B0480915C04909122
:1050A0005D040E948D430E944345609356047093B3
:1050B0005704809358049093590420E030E040E076
:1050C0005FE30E94DC44AB01BC0140935204509367
:1050D0005304609354047093550422E030E083EF4E
:1050E00095E00E94CA4266E173E083EF95E00E947A
:1050F000D64062E173E083EF95E00E94A4404091C6
:105100005E0450915F04609160047091610422E03C
:1051100030E083EF95E00E94CA426BE073E083EFDA
:1051200095E00E94D64067E073E083EF95E00E942F
:10513000A4404091560450915704609158047091D6
:10514000590422E030E083EF95E00E94CA421092B9
:10515000640410926504109266041092670482E061
:1051600090E04FC069E873E083EF95E00E94C9408A
:1051700022E030E040E050E064EB73E483EF95E040
:105180000E94C84262EB73E083EF95E00E94E84022
:1051900061ED73E083EF95E00E94E8406CE271E01E
:1051A00080E090E00E94C03B66ED73E083EF95E005
:1051B0000E94E8406CE271E080E090E00E94C03B19
:1051C0006BED73E083EF95E00E94E8406CE271E0E4
:1051D00080E090E00E94C03B60EE73E083EF95E0DA
:1051E0000E94E84081E0809351040E949D3B6093BF
:1051F0006A0470936B0480936C0490936D0481E057
:1052000090E09093690480936804A1C14091640484
:10521000509165046091660470916704452B462B9C
:10522000472B41F4C0926404D0926504E092660476
:10523000F0926704BB2009F48AC120915E0430918A
:105240005F044091600450916104F80164817581AC
:10525000868197810E9424434B015C01C701B601FE
:1052600064197509860997090E94264420E034E2F2
:1052700044E759E40E948D439B01AC01C501B40190
:105280000E94DC4420914D0430914E0440914F0423
:10529000509150040E9425432B013C0160934D0422
:1052A00070934E0480934F049093500420914904CE
:1052B00030914A0440914B0450914C040E94D844D0
:1052C000181644F44092490450924A0460924B04E8
:1052D00070924C044091490450914A0460914B04EF
:1052E00070914C0422E030E083EF95E00E94CA42C6
:1052F0008091640490916504A0916604B091670464
:10530000C81AD90AEA0AFB0AF0ECCF16F6ECDF0657
:10531000FDE2EF06F10408F41AC120E030E0A90133
:10532000C501B4010E94D844181624F0C501B40187
:10533000905802C0C501B401209152043091530429
:1053400040915404509155040E94894387FFFFC047
:105350002091490430914A0440914B0450914C04EF
:1053600060E070E084EB93E40E948D436093450419
:1053700070934604809347049093480461E073E07F
:1053800083EF95E00E94D64064EF72E083EF95E0F2
:105390000E94A4404091490450914A0460914B04FA
:1053A00070914C0422E030E083EF95E00E94CA4205
:1053B00064EE72E083EF95E00E94A44040914504C2
:1053C00050914604609147047091480422E030E017
:1053D00083EF95E00E94CA4280915E0490915F0441
:1053E000A0916004B0916104F801848F958FA68F1D
:1053F000B78F8091450490914604A0914704B091E5
:10540000480484A395A3A6A3B7A3809156049091C2
:105410005704A0915804B091590480A391A3A2A36A
:10542000B3A3045E1F4FE12CF12CF80161918F01B1
:10543000C7016D870E94A44A6D85681719F0C701DE
:105440000E94AC4AFFEFEF1AFF0A8CE0E816F10465
:1054500061F7CE0101960E94EC2349805A806B804F
:105460007C808D809E80AF80B884C984DA84EB8490
:10547000FC846BEB72E083EF95E00E94D64062EB18
:1054800072E083EF95E00E94A44040915E04509149
:105490005F04609160047091610422E030E083EF6A
:1054A00095E00E94C84267EA72E083EF95E00E94AF
:1054B000A44022E030E0B301A20183EF95E00E9416
:1054C000CA426DE972E083EF95E00E94A4404091EA
:1054D000560450915704609158047091590422E089
:1054E00030E083EF95E00E94C84262E972E083EF0A
:1054F00095E00E94A44022E030E0B501A40183EFD2
:1055000095E00E94CA4262E872E083EF95E00E9453
:10551000A440409145045091460460914704709125
:10552000480422E030E083EF95E00E94C84267E73C
:1055300072E083EF95E00E94A44022E030E0B701E2
:10554000A60183EF95E00E94CA4281E001C080E09D
:105550002D960FB6F894DEBF0FBECDBFDF91CF9171
:105560001F910F91FF90EF90DF90CF90BF90AF9081
:105570009F908F907F906F905F904F903F902F9073
:105580000895FC0140835183628373830895CF9211
:10559000DF92EF92FF92FC016130710569F024F413
:1055A000672BC9F480810BC06230710539F063301C
:1055B000710589F4838103C0818101C082810E94C9
:1055C000553CBC01882777FD8095982F0E94284480
:1055D0006B017C0103C0C12CD12C760120E030E0AE
:1055E00048E951E4C701B6010E94894387FD11C013
:1055F0002FED3FE443E951E4C701B6010E94244383
:105600009B01AC016AE979EA86E195E40E948D4349
:1056100004C060E070EC89E794E4FF90EF90DF90C5
:10562000CF9008953F924F925F926F927F928F92A8
:105630009F92AF92BF92CF92DF92EF92FF920F9321
:105640001F93CF93DF9300D01F92CDB7DEB7AC018D
:105650005B01FC0180AD81114AC0EE24EA94FE2C6E
:105660006A01F2E0CF0ED11CC6014A835B830E941F
:105670000F248C014A815B81009759F4EF2811F0C7
:105680007801F2CF8AE090E00E94E83B80E090E071
:10569000DFC085352AEA920749F485E5E8168AEAEB
:1056A000F80671F7FA0112AE11AE23C08635FAEA98
:1056B0009F0759F425E5E2162AEAF20609F781E088
:1056C00090E0FA0192AF81AF14C08A3AF5E59F07E6
:1056D000B9F663EE73E083EF95E04A835B830E9443
:1056E000E84080E00E9408244A815B81C9CFFA012A
:1056F00010AEFA0114AE13AE6A01F2E0CF0ED11C67
:105700006CE0362E88248394912CFA0183AD94ADFD
:105710008A159B0508F09CC08238910508F098C056
:10572000C6014A835B830E940F248C014A815B81FE
:10573000FA0123AD34AD8535FAEA9F0731F481E0F3
:10574000FA0180AF12AE11AE0BC08635FAEA9F07A0
:1057500049F481E0FA0180AF81E090E092AF81AF3F
:10576000C90176C00097E1F3FA0185AD96AD8217C5
:10577000930798F44E9696AF85AF389EB001399E48
:10578000700D1124808191814A835B830E946A4756
:105790004A815B81FA0191838083FA0123AD34ADA4
:1057A000329EC001339E900D1124E080F180E80EFE
:1057B000F91E3701412C512C20E0FA0181AD92AD48
:1057C000892B31F4253021F4F7011386128612C09B
:1057D000C60129834A835B830E940F24480E591E09
:1057E000F301819391933F0129812F5F4A815B816E
:1057F000263019F70415150539F4FA0183AD94AD77
:10580000019694AF83AF0AC06BEE73E083EF95E02F
:105810004A835B830E94E8405B814A81C6014A83D8
:105820005B830E940F244A815B818535FAEA9F07DA
:1058300021F4FA0112AE11AE68CF86359A4A21F4EE
:10584000FA0192AE81AE61CFFA0183AD94AD00C092
:105850000F900F900F90DF91CF911F910F91FF90BC
:10586000EF90DF90CF90BF90AF909F908F907F9000
:105870006F905F904F903F9008952F923F924F927C
:105880005F926F927F928F929F92AF92BF92CF92D0
:10589000DF92EF92FF920F931F93CF93DF93CDB7D9
:1058A000DEB763970FB6F894DEBF0FBECDBF3C01E5
:1058B0004B018CE0FB017A96D30101900D928A9501
:1058C000E1F78B01095D1F4F68EE73E0C8010E948C
:1058D000122B2C0168EE73E0C8010E94122B480EB7
:1058E000591E1E861D86212C312C20EF2F8733E276
:1058F000388BA4E7BA2E89EC898BF401E858FF4F66
:10590000FB8BEA8BF401241435040CF065C087A1ED
:1059100090A52D853E85820F931FFC01DE01119617
:105920002CE001900D922A95E1F7FC01E080F180D6
:1059300006811781C084D184C7010197029708F0BE
:1059400041C00C9DB0010D9D700D1C9D700D11246A
:1059500080E090E00E942644EA89FB892081318121
:10596000428153810E94D844181664F5FA82E98274
:10597000202F18870F834C2DDA86C986A12CCE2CB8
:10598000DA80EB80FC800D811E8138855A856B851D
:105990007C85C4010E940F257B018C012F853889ED
:1059A0004B2D59890E94D84487FD0CC0FE013196C9
:1059B000D3018CE001900D928A95E1F7EF86F88A89
:1059C000B02E198BFFEF2F1A3F0A2D853E85245FDD
:1059D0003F4F3E872D8796CFEC58FF4F2081318176
:1059E000428153816F8578898B2D99890E94D84493
:1059F000181694F4F301808191810197880F991F03
:105A0000880D991DFC01EA59FF4F208131812F5FDC
:105A10003F4F3183208308C08CE0F4017A96D30194
:105A200001900D928A95E1F7C30163960FB6F89441
:105A3000DEBF0FBECDBFDF91CF911F910F91FF90C1
:105A4000EF90DF90CF90BF90AF909F908F907F901E
:105A50006F905F904F903F902F900895CF92DF927C
:105A6000EF92FF920F931F93CF93DF93CDB7DEB7E3
:105A70002C970FB6F894DEBF0FBECDBF8C010E94ED
:105A80009D3BF801E458FF4FC080D180E280F38055
:105A9000CD28CE28CF2821F460837183828393831D
:105AA000C080D180E280F3809B01AC012C193D09BC
:105AB0004E095F0969017A0198012A573F4FD901C0
:105AC0004D915D916D917C914C155D056E057F0545
:105AD000F0F4108211821282138226503109F801EB
