:100000000C943B020C94C21F0C94F31F0C942420FC
:100010000C9455200C9486200C94B7200C94E82066
:100020000C9419210C946A020C946A020C946A02D2
:100030000C946A020C946A020C946A020C946A0290
:100040000C946A020C94D2160C946A020C946A0204
:100050000C946A020C946A020C946A020C944A2171
:100060000C946A020C9497250C94CD250C946A028A
:100070000C946A020C946A020C946A020C946A0250
:100080000C9400170C946A020C946A020C946A0295
:100090000C946A020C946A020C946A020C942D1B54
:1000A0000C946A020C946A020C942E170C946A0247
:1000B0000C946A020C946A020C946A020C945C1709
:1000C0000C946A020C946A020C946A020C946A0200
:1000D0000C946A020C946A020C946A020C946A02F0
:1000E0000C946A02110DD50CD90CDD0C110DE10C2C
:1000F000E50CE90CED0CEF0CF40CF60CFB0CFD0C14
:10010000110D091D101DE61CE81CEA1CEC1CEE1C60
:10011000F01CF61CF81CF21CF41CF61CF81C091D43
:100120009C1F661F6E1F7A1F871FA81FB51F97226F
:100130009C22A122AB22B5222E23BF22C722CF228E
:10014000D922E322ED22FC2206232E2310231A2398
:10015000242350235323422346234C238A2357230B
:100160005B236123652369236F23732377238A230A
:100170007D2381238523476574426C6F636B282937
:100180002072657475726E6564204241445F424C12
:100190004F434B2E005269676874204D6F746F7225
:1001A0002063757272656E743A20004C6566742027
:1001B0004D6F746F722063757272656E743A2000B1
:1001C0006D6F746F722064726976657220666175F6
:1001D0006C74004552524F522D20496E76616C6905
:1001E000642070726F6772616D2063686F69636508
:1001F0003A20000953746F726564203D20007363D8
:10020000616C65466163746F725A203D200009532A
:10021000746F726564203D20007369676D615A20B8
:100220003D20000953746F726564203D20004269CF
:1002300061735A203D20005072696E74696E6720A8
:1002400063616C63756C6174656420616E642073B6
:10025000746F7265642076616C7565732E2E2E0046
:100260005363616C6520466163746F72203D2000AA
:100270004D617820416E676C65203D2000446F6EB3
:10028000652100526F74617465206261636B207434
:100290006F207374617274696E6720706F73697414
:1002A000696F6E2E005A3D20005369676D613A00F8
:1002B0005A3D20004176657261676520426961732D
:1002C0003A00095363616C6520466163746F723A4A
:1002D0002000095369676D613A2000426961733AF1
:1002E00020004661696C656420746F206175746FCD
:1002F000646574656374206779726F2074797065C2
:10030000210009546F74616C203D200009426F7414
:10031000204C696E65203D20000943656E7465724E
:10032000203D20000959203D2000536967203D20D1
:10033000004552524F522D20496E76616C696420FF
:1003400070726F6772616D2063686F6963653A20D0
:100350000000000A0B02090C0D0E0807030401003F
:10036000000000000000000000000000000000008D
:10037000000000000000000000000000001211104A
:10038000000000000000000000000000000000006D
:1003900000000000000000010210202008081020CA
:1003A0004010204080020102010804020101020401
:1003B00008102040808040201008040201800402C0
:1003C0000180402010080402010804020101020417
:1003D0000810204080010204081020408005050517
:1003E00005070508080808020202020A0A080804AC
:1003F00004040401010101010101010303030303DA
:10040000030303040707070C0C0C0C0C0C0C0C0268
:1004100002020206060606060606060B0B0B0B0B6F
:100420000B0B0B000020002300260029002C002FBE
:100430000032000001000003010601090100002252
:1004400000250028002B002E00310034000201009E
:1004500000050108010B0100002100240027002AEB
:10046000002D003000330001010000040107010AE3
:1004700001004B1A012611241FBECFEFD1E2DEBFCF
:10048000CDBF13E0A0E0B2E0E8E4F1E600E00BBF8E
:1004900002C007900D92A43AB107D9F725E0A4EA6B
:1004A000B3E001C01D92A13FB207E1F714E0C6E737
:1004B000D4E000E006C022970109FE010BBF0E94B4
:1004C0009F2BC237D10780E00807A9F70E94452675
:1004D0000C94A2300C940000CF93DF93EC01E881E0
:1004E000F981EA5BFF4F808191810E94AC0888818D
:1004F0009981FC01E95AFF4F1082319621E0208357
:10050000359611821082DF91CF9108958F929F923C
:10051000AF92BF92CF92DF92EF92FF920F931F9311
:10052000CF93DF93CDB7DEB7C854D1090FB6F89497
:10053000DEBF0FBECDBF7C016E0181E4C80ED11CB1
:10054000D6010C9323961FAF239724962FAF2497A1
:1005500025963FAF259726964FAF269727965FAFF4
:10056000279728966FAF289729967FAF2997C701BD
:100570000E941F195701B2E0AB0EB11CC5010E94C9
:100580002819F701E65BFF4F6B968CAD9DADAEADC4
:10059000BFAD6B9780839183A283B38334966F96AC
:1005A0008CAD9DADAEADBFAD6F9780839183A283BF
:1005B000B3833496A3964CAD5DAD6EAD7FADA3977E
:1005C00040835183628373833496A4968FADA4973E
:1005D00080837497D6018D919C919183808332960C
:1005E00025968EAD9FAD2597918380833296279671
:1005F0008EAD9FAD279791838083329629968EADDD
:100600009FAD2997918380833F961082319681E038
:1006100080833196108211821282138200E0A796A5
:100620002FADA797A6964FADA697A5966FADA597A8
:10063000FE0131964F01CF010E94FA18B401C701A3
:100640000E949118BE0169597F4FC4010E944C1944
:10065000982D892DE92FF82FCF010896D5012191EA
:100660002D93E817F907D9F788E0A80EB11CEC150F
:10067000FD0519F09E2F8F2FEDCFC85BDF4F0FB612
:10068000F894DEBF0FBECDBFDF91CF911F910F91C8
:10069000FF90EF90DF90CF90BF90AF909F908F90A2
:1006A00008952F923F924F925F926F927F928F9216
:1006B0009F92AF92BF92CF92DF92EF92FF920F93F1
:1006C0001F93CF93DF93CDB7DEB72F970FB6F89474
:1006D000DEBF0FBECDBF4C016F87142F9C012C5B7A
:1006E0003F4F7901633061F460E070E0F90180818F
:1006F00091810E94AA132B013C0162E070E00BC0C3
:1007000061E070E0F901808191810E94AA132B01C0
:100710003C0163E070E0F701808191810E94AA139F
:100720006B017C019E868D86F12FF4703F2E12FFA7
:1007300012C0F401EE5BFF4F808191810E94040F93
:10074000F401EE5AFF4F20813181428153810E9492
:10075000322987FD6AC0212F2170322E10FF34C04C
:10076000540137E5A30EB11CF501808181111BC036
:100770003D972081318142815381C301B2010E94A2
:10078000812A181684F4F5013082319630827097F0
:10079000808191810E943910F401E75AFF4F6083F4
:1007A000718382839383F5018081882369F0F4014A
:1007B000E65BFF4F2081318142815381C701B60141
:1007C0000E94812A18168CF1F12FF2703F2E11FF32
:1007D00033C0540122E4A20EB11CF5016081718185
:1007E000CE0101960E942015C980DA80EB80FC8042
:1007F0000D811E812F81388549855A856B857C85C1
:10080000F501808191810E94110EF401E35AFF4F9E
:10081000882381F08081918101969183808337972D
:10082000208130E0821793073CF0CE010D960E94A4
:100830006C025FC0118210828401085A1F4FF801B8
:10084000808194012A5B3F4F1901882339F0F90117
:10085000808191810E947907F8011082F401E95AA0
:10086000FF4F8081882371F03296408151816281EF
:10087000738100E010E09801F101808191810E9474
:10088000770936C0F401E25BFF4F2F852130A1F4D8
:1008900040815181628173811F921F921F921F922A
:1008A000812C912C5401C12CD12C90E8E92E9FE38E
:1008B000F92E9301820113C00081118122813381BD
:1008C0001F921F921F921F92812C912C5401C12CB8
:1008D000D12C80E8E82E8FE3F82EB301A201F101BC
:1008E000808191810E948D070F900F900F900F9043
:1008F000312C832D2F960FB6F894DEBF0FBECDBFDF
:10090000DF91CF911F910F91FF90EF90DF90CF90EB
:10091000BF90AF909F908F907F906F905F904F901F
:100920003F902F900895DC01ED91FC910190F081B2
:10093000E02D0994FC0183E090E094838383178287
:10094000168210860895DF92EF92FF920F931F9305
:10095000CF93DF93EC01198218828AE0E82EF12C04
:100960006D8189E694E00E942B1A6CEA70E089E6BA
:1009700094E00E94930489E694E00E94481A42E0C1
:100980006D8189E694E00E94281A882391F089E617
:1009900094E00E948219D82E89E694E00E94821980
:1009A000288139811D2D00E0082B200F311F39834C
:1009B000288381E0E81AF10899F6DF91CF911F9121
:1009C0000F91FF90EF90DF900895EF92FF921F93A9
:1009D000CF93DF931F92CDB7DEB77C01162FFC01BA
:1009E000658189E694E049830E942B1A612F89E68C
:1009F00094E00E94D2194981642F89E694E00E9414
:100A0000D21989E694E00E94481AF70182830F9078
:100A1000DF91CF911F91FF90EF900895CF93DF93D7
:100A2000EC018B819C81029729F440E069E3CE01BF
:100A30000E94E50440E464E2CE010E94E50448EC33
:100A40006EE2CE010E94E50444E062E2CE010E9423
:100A5000E50440E063E2CE010E94E5044CE660E27A
:100A6000CE010E94E5046D8189E694E00E942B1A74
:100A70006CEA70E089E694E00E94930489E694E0D1
:100A80000E94481A42E06D8189E694E00E94281A8B
:100A900089E694E00E947A190297D4F389E694E0FB
:100AA0000E94821989E694E0DF91CF910C9482191B
:100AB0001F93CF93DF931F92CDB7DEB7162F89E632
:100AC00094E049830E942B1A4981642F89E694E0BF
:100AD0000E94D21989E694E00E94481A811114C03C
:100AE00041E0612F89E694E00E94281A89E694E0AB
:100AF0000E947A19892B41F089E694E00F90DF91EA
:100B0000CF911F910C9482198FEF9FEF0F90DF917F
:100B1000CF911F910895EF92FF920F931F93CF9360
:100B2000DF937C01EB018A016330710521F04230D3
:100B3000510509F051C0CE010197039758F50115F1
:100B4000110581F04FE050E06BE6C7010E945805A7
:100B50008F3F2FEF920719F001E010E013C0013032
:100B6000110551F04FE050E06AE6C7010E945805B8
:100B70008F3FEFEF9E0721F4C330D10569F027C006
:100B800000E010E0C330D10529F4873D9105F1F56F
:100B9000C2E0D0E02097D9F40115110561F04FE0D3
:100BA00050E069E6C7010E945805833D910589F12F
:100BB0000130110549F04FE050E068E6C7010E949E
:100BC0005805833D910541F1C330D10519F002303C
:100BD000110511F480E025C0F701D483C383209769
:100BE00059F0D7FD11C023977CF40130110511F4A1
:100BF0008BE608C08AE606C00130110511F489E6CB
:100C000001C088E6F701858381E00BC0C1E0D0E038
:100C1000C1CF01E010E002C000E010E0C0E0D0E091
:100C2000D6CFDF91CF911F910F91FF90EF90089554
:100C3000EF92FF920F931F93CF93DF93CDB7DEB761
:100C400028970FB6F894DEBF0FBECDBF7C01FC0124
:100C500060837183802F02831383248335834683CB
:100C6000578360E00E948B2360E0F70183810E943C
:100C70008B2360E0F70184810E948B2360E0F70101
:100C800085810E948B2360E0F70186810E948B237F
:100C900060E0F70187810E948B2361E0F70180818A
:100CA0000E948B2360E0F70181810E948B2361E029
:100CB000F701808128960FB6F894DEBF0FBECDBF36
:100CC000DF91CF911F910F91FF90EF900C94C4236F
:100CD0000F931F93CF93DF93EC0177FF05C07195BE
:100CE0006195710981E001C080E08B016F3F710562
:100CF00019F014F00FEF10E0811107C0B8018A81DC
:100D00000E94712260E070E006C060E070E08A81BD
:100D10000E947122B8018B81DF91CF911F910F91B9
:100D20000C9471220F931F93CF93DF93EC0177FF05
:100D300005C071956195710981E001C080E08B016A
:100D40006F3F710519F014F00FEF10E0811107C02B
:100D5000B8018D810E94712260E070E006C060E001
:100D600070E08D810E947122B8018E81DF91CF9158
:100D70001F910F910C9471220F931F93CF93DF93C8
:100D8000EC018A010E946806B801CE01DF91CF9183
:100D90001F910F910C949206FC0184810E944C22B9
:100DA0002DE5AC01249FC001259F900D11246AE020
:100DB00070E00E94632BCB010895FC0187810E94A3
:100DC0004C222DE5AC01249FC001259F900D1124DC
:100DD0006AE070E00E94632BCB010895FC018181E1
:100DE0000E94FA2321E0892B09F020E0822F089548
:100DF0008F929F92AF92BF92CF92DF92EF92FF922B
:100E00000F931F93CF93DF93CDB7DEB72A970FB61B
:100E1000F894DEBF0FBECDBF4C01E982FA820B838E
:100E20001C832D833E834F83588769877A87FC0113
:100E300014821582168217821086118612861386F6
:100E40001486158616861786108A118A128A138AC6
:100E5000148A158A168A178A108E7C01F7E2EF0E23
:100E6000F11CC7010E948A178401065D1F4FC8014B
:100E70000E948A17F401B182A082D382C282898142
:100E8000818F8A81828F6B8170E0C7010E94551823
:100E90006C8170E0C8010E9455188D81F401838F28
:100EA0008E81848F8F81858F8885868F898590E05C
:100EB000A0E0B0E0878F90A3A1A3B2A38A8590E0C1
:100EC000A0E0B0E083A394A3A5A3B6A32A960FB68F
:100ED000F894DEBF0FBECDBFDF91CF911F910F9170
:100EE000FF90EF90DF90CF90BF90AF909F908F904A
:100EF0000895CF93DF93EC01198A1A8A1B8A1C8A02
:100F00001D861E861F86188A0E94942169877A870B
:100F10008B879C87DF91CF9108952F923F924F92BC
:100F20005F926F927F928F929F92AF92BF92CF9279
:100F3000DF92EF92FF920F931F93CF93DF93CDB782
:100F4000DEB764970FB6F894DEBF0FBECDBF1C01AD
:100F500049835A836B837C83098B1A8B2B8B3C8B45
:100F600049A45AA46BA47CA449865A866B867C86C5
:100F70000E949421D10119962D913D914D915C9142
:100F80001C972B013C01421A530A640A750A4D82D0
:100F90005E826F82788619966D937D938D939C9374
:100FA0001C97411451046104710409F4A9C02989F2
:100FB0003A894B895C8969817A818B819C810E9405
:100FC000CD2869837A838B839C83C301B2010E94FD
:100FD000D1296D837E838F83988720E034E244E7B4
:100FE00059E40E9436299B01AC0169817A818B8189
:100FF0009C810E94852AF101218932894389548983
:101000000E94CE282B013C01D10151966D937D9316
:101010008D939C93549729813A814B815C81C701C0
:10102000B6010E94852A6B017C01A3019201C501D2
:10103000B4010E94852A9B01AC01C701B6010E9440
:10104000CE284B015C01F101258536854785508905
:1010500069817A818B819C810E94CD282B013C0182
:101060002D813E814F81588560E074E284E799E4E8
:101070000E9436299B01AC01C301B2010E94852A5E
:101080009B01AC0169857A858B859C850E94852AA8
:101090009B01AC01C501B4010E94CE280E949E298B
:1010A00049805A806B807C80D1011D964D925D9263
:1010B0006D927C9250975A962C915A9730E0A901E4
:1010C000461B570B620F731F8D919C9164960FB650
:1010D000F894DEBF0FBECDBFDF91CF911F910F916E
:1010E000FF90EF90DF90CF90BF90AF909F908F9048
:1010F0007F906F905F904F903F902F900C94BC0624
:1011000064960FB6F894DEBF0FBECDBFDF91CF91CE
:101110001F910F91FF90EF90DF90CF90BF90AF9015
:101120009F908F907F906F905F904F903F902F9007
:10113000089570E0FC0180819181413029F44427B9
:101140005527461B570B06C022273327261B370B74
:10115000AB01B9010C94BC0640E050E060E070E0E7
:10116000FC01808191810C94BC068F929F92AF927A
:10117000BF92CF92DF92EF92FF921F93CF93DF93B4
:10118000EC01162F8A819B810E9439104B015C0172
:101190008C8181113BC0113029F420E030E044EB18
:1011A00052E404C020E030E044EB52ECC501B4014D
:1011B0000E94CE286B017C0120E030E044EB53E438
:1011C0000E94812A87FD09C020E030E044EB53E40F
:1011D000C701B6010E94CD2815C0CD82DE82EF8204
:1011E000F88620E030E0A901C701B6010E9432294B
:1011F00087FF0CC020E030E044EB53E4C701B601A8
:101200000E94CE286D837E838F839887A5019401E9
:101210006D817E818F8198850E94CD286B017C0134
:1012200020E030E044E353E40E94812A18164CF495
:1012300020E030E044EB53E4C701B6010E94CD2822
:1012400012C020E030E044E353ECC701B6010E9435
:10125000322987FF0AC020E030E044EB53E4C701A5
:10126000B6010E94CE286B017C0120E030E0A9018C
:10127000C701B6010E94812A46015701181624F0C1
:10128000B7FAB094B7F8B094698D70E080E090E060
:101290000E94D1299B01AC01C501B4010E943229F1
:1012A00087FF06C0CE010E94AC081C8281E013C0FB
:1012B00020E030E0A901C701B6010E94812A18167A
:1012C00014F441E001C043E06A8DCE010E94990808
:1012D00081E08C8380E0DF91CF911F91FF90EF90B0
:1012E000DF90CF90BF90AF909F908F9008958F9296
:1012F0009F92AF92BF92CF92DF92EF92FF920F93A5
:101300001F93CF93DF93EC014A015B0168017901E0
:10131000011511052105310519F18D899E89AF89C6
:10132000B88D892B8A2B8B2B31F40E9494216D8BE5
:101330007E8B8F8B988F0E9494210D891E892F8917
:10134000388D601B710B820B930BC616D706E8060F
:10135000F90630F41D8A1E8A1F8A188E81E04BC060
:101360008A819B810E9439109B01AC01C501B401A7
:101370000E94CD286B017C0120E030E044E353E47F
:101380000E94812A18164CF420E030E044EB53E42C
:10139000C701B6010E94CD2812C020E030E044E32E
:1013A00053ECC701B6010E94322987FF0AC020E032
:1013B00030E044EB53E4C701B6010E94CE286B0134
:1013C0007C019701860130581F921F921F921F9235
:1013D000812C912C5401C12CD12C80E8E82E8FE374
:1013E000F82EB501A401CE010E948D070F900F9039
:1013F0000F900F9080E0DF91CF911F910F91FF90A0
:10140000EF90DF90CF90BF90AF909F908F90089516
:10141000FF920F931F93CF93DF93EC018B01F42E78
:10142000E881F981848595850E94EE06882339F04C
:1014300060EC71E080E595E00E94C626FFCFEC816C
:10144000FD81B80184859585FF2019F00E9468060A
:1014500002C00E949206C80117FF03C091958195B2
:10146000910962E370E00E94632B892B39F5FF201C
:1014700069F06BEA71E080E595E00E949426EA81CC
:10148000FB81848595850E94CC060CC065E971E0DE
:1014900080E595E00E949426EA81FB81848595850C
:1014A0000E94DD064AE050E0BC0180E595E0DF9156
:1014B000CF911F910F91FF900C94B727DF91CF919F
:1014C0001F910F91FF9008956F927F928F929F923C
:1014D000AF92BF92CF92DF92EF92FF920F931F9342
:1014E000CF93DF93CDB7DEB72C970FB6F894DEBF5E
:1014F0000FBECDBF3C01842F89829A82AB82BC8211
:10150000CD82DE82EF82F88609871A872B873C8797
:1015100029813A81F301338322832B813C813583F6
:1015200024832D813E81378326832F81388531871F
:10153000208729853A85338722872B853C85358707
:1015400024874083668762E00E948B23F301118227
:101550002C960FB6F894DEBF0FBECDBFDF91CF91B2
:101560001F910F91FF90EF90DF90CF90BF90AF90C1
:101570009F908F907F906F9008950F931F93CF93BC
:10158000DF9300D000D000D0CDB7DEB79A83898337
:101590009C838B839E838D8300E010E041E0B80143
:1015A000CE0101960E94080A6FE070E080E090E0B2
:1015B0000E94B7210F5F1F4F011581E0180771F7D7
:1015C0000FEF10E041E0B801CE0101960E94080A39
:1015D0006FE070E080E090E00E94B72101501109B7
:1015E00001158FEF180771F701E01FEF41E0B80117
:1015F000CE0101960E94080A6FE070E080E090E062
:101600000E94B7210F5F1F4F0130110579F700E0ED
:1016100010E040E0B801CE0101960E94080A6FE098
:1016200070E080E090E00E94B7210F5F1F4F01152E
:1016300081E0180771F70FEF10E040E0B801CE012C
:1016400001960E94080A6FE070E080E090E00E943E
:10165000B7210150110901158FEF180771F701E04B
:101660001FEF40E0B801CE0101960E94080A6FE02A
:1016700070E080E090E00E94B7210F5F1F4F0130C3
:10168000110579F780E026960FB6F894DEBF0FBEFD
:10169000CDBFDF91CF911F910F91089560910B0203
:1016A000FC01828593850E94B508882329F08091EA
:1016B000A8038F5F8093A8038091A803843059F416
:1016C0001092A80380910B02813011F483E001C0D5
:1016D00081E080930B0280E008950F931F93CF93D6
:1016E000DF93EC018091A90381110FC08885998552
:1016F0000E9439106093A4037093A5038093A603FE
:101700009093A70381E08093A90380910A02882324
:1017100031F08A859B850E94790710920A024091D8
:10172000A4035091A5036091A6037091A70300E460
:101730001BE42CE430E08A859B850E94770988238E
:1017400021F081E080930A0201C080E0DF91CF9117
:101750001F910F910895AF92BF92CF92DF92EF92B7
:10176000FF920F931F93CF93DF93CDB7DEB7C2598C
:10177000D1090FB6F894DEBF0FBECDBF8C01FC01BE
:1017800064817581CE018F579F4F0E942015CD57E0
:10179000DF4FA881C358D040CC57DF4FB881C45821
:1017A000D040CB57DF4FF880C558D040CA57DF4FE5
:1017B000E880C658D040C957DF4FD880C758D040BE
:1017C000C857DF4FC880C858D040C757DF4FB880D0
:1017D000C958D040C657DF4FA880CA58D040CF570D
:1017E000DF4F28813981C158D040F801848195812B
:1017F000FC01828D938D2817390739F466E771E073
:1018000080E595E00E94C6266EC02830310508F4B8
:101810004AC080E090E0E0E04CE050E0B901042EE6
:1018200002C0769567950A94E2F7677011F4EE238B
:1018300051F0EDE8F0E0EC0FFD1FE80FF91F605DDF
:1018400060830196E1E0435051094D3FFFEF5F0790
:1018500029F7AE0143575F4FFA01E80FF91F1082D5
:10186000C457DF4F8881CC58D0408F93C557DF4F86
:101870008881CB58D0408F93AF92BF92CF92DF92A6
:10188000EF92FF92BF93AF933F932F935F934F934A
:1018900086E992E09F938F93CE0101969F938F9359
:1018A0000E94BC2D14C0AF92BF92CF92DF92EF92F4
:1018B000FF92BF93AF933F932F9380EE92E09F935D
:1018C0008F93CE0101969F938F930E94BC2D0FB6EC
:1018D000F894DEBF0FBECDBFBE016F5F7F4F80E5C6
:1018E00095E00E94B92680E0CE56DF4F0FB6F894FF
:1018F000DEBF0FBECDBFDF91CF911F910F91FF9043
:10190000EF90DF90CF90BF90AF900895FC0180855D
:1019100091850C947510FC01808591850E94391089
:10192000AB01BC0122E030E080E595E00E94BA28DE
:1019300080E0089544E0FC01828193810E9451037C
:1019400091E0843009F090E0892F089541E0FC0196
:10195000828193810E94510391E0813009F090E0EF
:10196000892F089542E0FC01828193810E945103F6
:1019700091E0823009F090E0892F0895CF93DF93B2
:10198000EC0188810E94FA23892B09F44AC08981DD
:10199000811147C04E8550E0FA013197EF30F105D3
:1019A00088F5EE58FF4F0C94992BCE010E94BD0A8A
:1019B00037C0CE010E944E0B33C0CE010E946D0B8A
:1019C0002FC0CE010E94AB0B2BC0CE010E94860C13
:1019D00027C0CE010E948B0C23C063E001C061E0F0
:1019E000CE010E949A0C1CC063E001C061E0CE01F0
:1019F0000E94A60C15C063E001C061E0CE010E9408
:101A0000B20C0EC063ED71E080E595E00E94942673
:101A10004AE050E06E8580E595E00E949A2781E0DB
:101A200089838981DF91CF910895EF92FF920F937F
:101A30001F93CF93DF937C01C82FDF2D00E010E0D0
:101A4000C8010E94E62F89930F5F1F4F0C301105CC
:101A5000B9F7C701DF91CF911F910F91FF90EF90E0
:101A600008958EBD00000DB407FEFDCF8EB508951C
:101A70001F93CF93DF93FC0123A92223A1F085A913
:101A800091E0980F95ABDF01A80FB11DA80FB11D14
:101A900053964C91539754963C91215023AB9031DF
:101AA00099F415AA11C080898823F9F0228991E060
:101AB000920F928BDF01A20FB11D1C918150808B80
:101AC000903129F4128A03C0842F932F15C08BE51F
:101AD0000E94310D282F30E0D22FCC27812F0E9479
:101AE000310D9E01282BC90107C08AE50E94310DE6
:101AF000282F30E010E0F0CFDF91CF911F910895B3
:101B00000F931F93CF93DF93CDB7DEB78C018CE09B
:101B1000EEE0F2E0D8015A9601900D928A95E1F735
:101B2000F80111AE12AE13AEE45AFF4F1082319697
:101B30001082319610823196108233961182108273
:101B400032968EE190E09183808388E691E00E9456
:101B5000A32BF80190A787A3E358FF4F10821182AF
:101B60001282138234961182108232961182108270
:101B70007D97118210823296118210828F81F80136
:101B800086A3E559FF4F8885998591838083329696
:101B90008A859B85AC85BD8580839183A283B38331
:101BA00034968E859F85A889B98980839183A28385
:101BB000B38334968A899B89AC89BD89808391835C
:101BC000A283B38334964E895F89688D798D408373
:101BD0005183628373830E945B188CB58C7F816014
:101BE0008CBD8DB58E7F8DBDF801E659FF4F81E02C
:101BF00080837B968A8D9B8D9183808332964C8DDA
:101C00005D8D6E8D7F8D408351836283738388A148
:101C10003496808360E0DF91CF911F910F910C94F7
:101C20008B23CF92DF92EF92FF920F931F93CF936C
:101C3000DF93CDB7DEB72C970FB6F894DEBF0FBE9B
:101C4000CDBFC982DA8229813A812150310981E0F0
:101C50002230310508F080E02C960FB6F894DEBFF4
:101C60000FBECDBFDF91CF911F910F91FF90EF90ED
:101C7000DF90CF9008953F924F925F926F927F9244
:101C80008F929F92AF92BF92CF92DF92EF92FF928C
:101C90000F931F93CF93DF93CDB7DEB72C970FB67B
:101CA000F894DEBF0FBECDBF4C01C982DA82EB8251
:101CB000FC820D831E8349875A873A2C0D811E8131
:101CC0007C018DE6E80EF11CF401E559FF4F6081BF
:101CD00071818B819C81681B790B77FF03C07195A3
:101CE00061957109882777FD8095982F0E94D129E9
:101CF000F70120813181428153810E94852A2B0185
:101D00003C01F1E78F0E911C89859A8597FD01961C
:101D1000BC0175956795600F711F882777FD8095C9
:101D2000982F0E94D129F401208131814281538171
:101D30000E94852A4B015C01A30192010E94CD28DB
:101D40006B017C01332009F445C06AE273E080E551
:101D500095E00E94942669817A814AE050E080E50E
:101D600095E00E94B12764E273E080E595E00E946F
:101D700094264AE050E0B80180E595E00E94B12742
:101D800069E173E080E595E00E94942622E030E06E
:101D9000B301A20180E595E00E94B8286CE073E0F1
:101DA00080E595E00E94942622E030E0B501A40190
:101DB00080E595E00E94B82862E073E080E595E058
:101DC0000E94942622E030E0B701A60180E595E06C
:101DD0000E94BA28C701B6012C960FB6F894DEBF50
:101DE0000FBECDBFDF91CF911F910F91FF90EF906C
:101DF000DF90CF90BF90AF909F908F907F906F902B
:101E00005F904F903F900895FC0186A10E944C2264
:101E100083319105B4F0BC01882777FD8095982F18
:101E20000E94D1292FED3FE443E951E40E94CD28DF
:101E30009B01AC016AE979EA86E195E40E943629C2
:101E4000089560E070EC89E794E408950F931F9380
:101E5000CF93DF93EC018C010C5F1F4FC8010E94F0
:101E60009A0489E694E00E94111A42E050E063E08F
:101E700070E0C8010E948B05811107C062EE72E01C
:101E800080E595E00E94C626FFCFC8010E940E059E
:101E9000198A1A8A1B8A1C8A1D8A1E8A1F8A188E12
:101EA0001D861E861F86188A188219821A821B8236
:101EB000198ECE014A960E94150D6BED72E080E5F9
:101EC00095E00E9494264A8D5B8D6C8D7D8D22E07D
:101ED00030E080E595E00E94B82862ED72E080E590
:101EE00095E00E9494264E8D5F8D68A179A122E035
:101EF00030E080E595E00E94B82862EC72E080E571
:101F000095E00E9494264AA15BA16CA17DA122E0EC
:101F100030E080E595E0DF91CF911F910F910C9417
:101F2000BA288F929F92AF92BF92CF92DF92EF9298
:101F3000FF92CF93DF93EC016C817D81882777FD41
:101F40008095982F0E94D1292A8D3B8D4C8D5D8DD7
:101F50000E94CD286B017C01198E20E030E0A901A0
:101F60000E94812A46015701181624F0B7FAB0944E
:101F7000B7F8B09420E030E040E850E46E8D7F8DFB
:101F800088A199A10E94852A9B01AC01C501B401D9
:101F90000E94322987FF03C0C12CD12C76016D89A4
:101FA0007E898F89988D8D849E84AF84B8880E94A5
:101FB000CF299B01AC01C701B6010E94852A20E010
:101FC00034E244E759E40E9436292AA13BA14CA1FE
:101FD0005DA10E94852A9B01AC01C501B4010E944C
:101FE000CE286D877E878F87988B8D859E85AF8560
:101FF000B8896D857E858F85988920E030E0A901BC
:102000000E94322987FF0FC06D857E858F85988954
:1020100020E030E044EB53E40E94CE286D877E87B9
:102020008F87988BE6CF6D857E858F85988920E098
:1020300030E044EB53E40E94812A87FD0FC06D8598
:102040007E858F85988920E030E044EB53E40E9440
:10205000CD286D877E878F87988BE5CFDF91CF91D5
:10206000FF90EF90DF90CF90BF90AF909F908F90B8
:102070000895CF93DF93EC01898D882319F0CE0169
:102080000E94910F6D857E858F859889DF91CF9114
:102090000895CF92DF92EF92FF920F931F93CF9309
:1020A000DF93EC010E94942109891A892B893C89CC
:1020B0006B017C01C01AD10AE20AF30ACD8ADE8ADA
:1020C000EF8AF88E698B7A8B8B8B9C8BCE01049672
:1020D0000E94A30481E0898FDF91CF911F910F911E
:1020E000FF90EF90DF90CF9008954F925F926F92A4
:1020F0007F928F929F92AF92BF92CF92DF92EF9298
:10210000FF92CF93DF93CDB7DEB76C970FB6F894FD
:10211000DEBF0FBECDBF7C010E9494212091D10370
:102120003091D2032130310509F440C1223031050C
:1021300009F4F2C0232B09F0F1C28090CD039090F6
:10214000CE03A090CF03B090D00389288A288B2893
:1021500041F46093CD037093CE038093CF039093AB
:10216000D0038090CD039090CE03A090CF03B09089
:10217000D003DC01CB0188199909AA09BB09C090D9
:10218000CB03D090CC0388389341A105B10508F06A
:1021900067C08FEFC81AD80AD092CC03C092CB0385
:1021A000F701648175814090C7035090C803609027
:1021B000C9037090CA03882777FD8095982F0E94E5
:1021C000D129A30192010E94CD284B015C01B601E7
:1021D00080E090E00E94CF299B01AC01C501B401D1
:1021E0000E9436299B01AC01C301B2010E94CE2896
:1021F0009B01AC016093C7037093C8038093C9032C
:102200009093CA03F70164817581882777FD8095D3
:10221000982F298F3A8F4B8F5C8F0E94D129298D5F
:102220003A8D4B8D5C8D0E94CD289B01AC01C50180
:10223000B4010E94852A9B01AC016091C303709197
:10224000C4038091C5039091C6030E94CE28609379
:10225000C3037093C4038093C5039093C6035EC207
:10226000B6016150710980E090E00E94CF299B0186
:10227000AC016091C3037091C4038091C503909138
:10228000C6030E9436290E94EC2A6093BF03709314
:10229000C0038093C1039093C20364EB72E080E5B6
:1022A00095E00E94C62660EB72E080E595E00E9412
:1022B00094264091C7035091C8036091C90370915F
:1022C000CA0322E030E080E595E00E94BA2869EA7E
:1022D00072E080E595E00E94C62665EA72E080E53E
:1022E00095E00E9494264091BF035091C0036091F5
:1022F000C1037091C20322E030E080E595E00E94C6
:10230000BA281092CD031092CE031092CF031092F0
:10231000D00382E090E045C06AE073E080E595E09C
:102320000E94B92622E030E040E050E064EB73E424
:1023300080E595E00E94B82863E373E080E595E0CE
:102340000E94D82662E573E080E595E00E94D826D9
:102350006CE271E080E090E00E94B72167E573E0F5
:1023600080E595E00E94D8266CE271E080E090E084
:102370000E94B7216CE573E080E595E00E94D826C5
:102380006CE271E080E090E00E94B72161E673E0CA
:1023900080E595E00E94D82681E08093BE0381E02D
:1023A00090E09093D2038093D103B8C18090CD0385
:1023B0009090CE03A090CF03B090D00389288A28B4
:1023C0008B2841F46093CD037093CE038093CF03A9
:1023D0009093D0038090CD039090CE03A090CF0334
:1023E000B090D0032B013C01481859086A087B08BB
:1023F000F70164817581882777FD8095982F0E9469
:10240000D1292091C7033091C8034091C90350914D
:10241000CA030E94CD2829E23CE54FE05CE30E941C
:10242000852A6B017C01C301B2010E94CF299B0167
:10243000AC01C701B6010E94852A20E034E244E7DE
:1024400059E40E9436292091BA033091BB03409190
:10245000BC035091BD030E94CE284B015C016093E8
:10246000BA037093BB038093BC039093BD03209188
:10247000B6033091B7034091B8035091B9030E945D
:10248000812A181644F48092B6039092B703A09262
:10249000B803B092B903F8EB4F16FBE05F06610496
:1024A000710408F43BC120E030E0A901C701B60186
:1024B0000E94812A18165CF42DEC3CEC4CEC5DE398
:1024C000C701B6010E94322987FF28C10BC02DEC3D
:1024D0003CEC4CEC5DEBC701B6010E94812A18165A
:1024E0000CF01CC18091B503811112C063E872E049
:1024F00080E595E00E94C6261092CD031092CE038F
:102500001092CF031092D00381E08093B50306C1EF
:102510002091B6033091B7034091B8035091B903AD
:1025200060E070E084EB93E40E94362929E23CE508
:102530004FE05CE30E94852A6093B1037093B2037D
:102540008093B3039093B4036DE772E080E595E068
:102550000E94C62660E772E080E595E00E9494261E
:102560004091B6035091B7036091B8037091B903DD
:1025700022E030E080E595E00E94BA2860E672E053
:1025800080E595E00E9494264091B1035091B203FA
:102590006091B3037091B40322E030E080E595E0F0
:1025A0000E94BA288091C7039091C803A091C903E3
:1025B000B091CA038D879E87AF87B88B8091B10396
:1025C0009091B203A091B303B091B4038D8B9E8B15
:1025D000AF8BB88F8091BF039091C003A091C103CE
:1025E000B091C203898B9A8BAB8BBC8B6E012DE0B3
:1025F000C20ED11CE12CF12CF60161916F01C701D3
:10260000698F0E94E62F698D681719F0C7010E9433
:10261000EE2FFFEFEF1AFF0A2CE0E216F10461F74C
:10262000CE0101960E94150D49805A806B807C80F6
:102630008D809E80AF80B884C984DA84EB84FC846A
:1026400067E372E080E595E00E94C6266EE272E0E4
:1026500080E595E00E9494264091C7035091C803FD
:102660006091C9037091CA0322E030E080E595E0F3
:102670000E94B82863E272E080E595E00E9494260B
:1026800022E030E0B301A20180E595E00E94BA2883
:1026900069E172E080E595E00E9494264091BF03D5
:1026A0005091C0036091C1037091C20322E030E0F9
:1026B00080E595E00E94B8286EE072E080E595E044
:1026C0000E94942622E030E0B501A40180E595E067
:1026D0000E94BA286EEF71E080E595E00E94942692
:1026E0004091B1035091B2036091B3037091B40370
:1026F00022E030E080E595E00E94B82863EF71E0C9
:1027000080E595E00E94942622E030E0B701A60122
:1027100080E595E00E94BA2881E001C080E06C96D7
:102720000FB6F894DEBF0FBECDBFDF91CF91FF9003
:10273000EF90DF90CF90BF90AF909F908F907F9061
:102740006F905F904F900895FC01408351836283A6
:1027500073830895CF92DF92EF92FF92FC01613074
:10276000710569F024F4672BC9F480810BC06230D5
:10277000710539F06330710589F4838103C081816B
:1027800001C082810E944C22BC01882777FD809580
:10279000982F0E94D1296B017C0103C0C12CD12C40
:1027A000760120E030E048E951E4C701B6010E941B
:1027B000322987FD11C02FED3FE443E951E4C70101
:1027C000B6010E94CD289B01AC016AE979EA86E155
:1027D00095E40E94362904C060E070EC89E794E437
:1027E000FF90EF90DF90CF9008953F924F925F92CD
:1027F0006F927F928F929F92AF92BF92CF92DF9211
:10280000EF92FF920F931F93CF93DF9300D01F920D
:10281000CDB7DEB7AC015B01FC0180AD81114AC0D0
:10282000EE24EA94FE2C6A01F2E0CF0ED11CC60120
:102830004A835B830E94380D8C014A815B8100973B
:1028400059F4EF2811F07801F2CF8AE090E00E946D
:10285000DF2180E090E0DFC085352AEA920749F465
:1028600085E5E8168AEAF80671F7FA0112AE11AEAC
:1028700023C08635FAEA9F0759F425E5E2162AEACD
:10288000F20609F781E090E0FA0192AF81AF14C03F
:102890008A3AF5E59F07B9F664E673E080E595E0CE
:1028A0004A835B830E94D82680E00E94310D4A81D2
:1028B0005B81C9CFFA0110AEFA0114AE13AE6A0102
:1028C000F2E0CF0ED11C6CE0362E88248394912C3C
:1028D000FA0183AD94AD8A159B0508F09CC082383F
:1028E000910508F098C0C6014A835B830E94380DA9
:1028F0008C014A815B81FA0123AD34AD8535FAEA5A
:102900009F0731F481E0FA0180AF12AE11AE0BC027
:102910008635FAEA9F0749F481E0FA0180AF81E049
:1029200090E092AF81AFC90176C00097E1F3FA0160
:1029300085AD96AD8217930798F44E9696AF85AF06
:10294000389EB001399E700D1124808191814A8397
:102950005B830E94CA2C4A815B81FA019183808348
:10296000FA0123AD34AD329EC001339E900D112487
:10297000E080F180E80EF91E3701412C512C20E057
:10298000FA0181AD92AD892B31F4253021F4F701A4
:102990001386128612C0C60129834A835B830E9474
:1029A000380D480E591EF301819391933F012981FF
:1029B0002F5F4A815B81263019F70415150539F41C
:1029C000FA0183AD94AD019694AF83AF0AC06CE673
:1029D00073E080E595E04A835B830E94D8265B81A3
:1029E0004A81C6014A835B830E94380D4A815B811C
:1029F0008535FAEA9F0721F4FA0112AE11AE68CFCD
:102A000086359A4A21F4FA0192AE81AE61CFFA017D
:102A100083AD94AD00C00F900F900F90DF91CF91D8
:102A20001F910F91FF90EF90DF90CF90BF90AF90EC
:102A30009F908F907F906F905F904F903F90089500
:102A40002F923F924F925F926F927F928F929F92BE
:102A5000AF92BF92CF92DF92EF92FF920F931F93AC
:102A6000CF93DF93CDB7DEB763970FB6F894DEBF91
:102A70000FBECDBF3C014B018CE0FB017A96D30128
:102A800001900D928A95E1F78B01095D1F4F68EE69
:102A900073E0C8010E94F5132C0168EE73E0C801D1
:102AA0000E94F513480E591E1E861D86212C312CBE
:102AB00020EF2F8733E2388BA4E7BA2E89EC898B7D
:102AC000F401E758FF4FFB8BEA8BF4012414350423
:102AD0000CF065C087A190A52D853E85820F931FC0
:102AE000FC01DE0111962CE001900D922A95E1F790
:102AF000FC01E080F18006811781C084D184C70188
:102B00000197029708F041C00C9DB0010D9D700D1A
:102B10001C9D700D112480E090E00E94CF29EA896D
:102B2000FB8920813181428153810E94812A1816BC
:102B300064F5FA82E982202F18870F834C2DDA86FC
:102B4000C986A12CCE2CDA80EB80FC800D811E8101
:102B500038855A856B857C85C4010E943B0E7B01BC
:102B60008C012F8538894B2D59890E94812A87FD38
:102B70000CC0FE013196D3018CE001900D928A9534
:102B8000E1F7EF86F88AB02E198BFFEF2F1A3F0A74
:102B90002D853E85245F3F4F3E872D8796CFEB588E
:102BA000FF4F20813181428153816F8578898B2D40
:102BB00099890E94812A181694F4F30180819181E9
:102BC0000197880F991F880D991DFC01EA59FF4F45
:102BD000208131812F5F3F4F3183208308C08CE0FB
:102BE000F4017A96D30101900D928A95E1F7C30121
:102BF00063960FB6F894DEBF0FBECDBFDF91CF91C5
:102C00001F910F91FF90EF90DF90CF90BF90AF900A
:102C10009F908F907F906F905F904F903F902F90FC
:102C20000895CF92DF92EF92FF920F931F93CF936D
:102C3000DF936C018B017A01EC01CC52DC4F88816F
:102C400087FF04C0FB011182108223C02CE02C9D61
:102C5000C0012D9D900D11242881AC01420F511D02
:102C600027FD5A952091D30330E0421753078CF487
:102C70002881AC01420F511D27FD5A959A01FA0196
:102C8000EE0FFF1FE20FF31FE852FC4F208126FDDD
:102C900019C088818F5F88838CE08C9D90018D9D09
:102CA000300D11248881A901480F511D87FD5A95C7
:102CB0008091D30390E048175907B4F488818C3091
:102CC0003CF112C02881820F911D27FD9A95FC01CD
:102CD000EE0FFF1FE80FF91FE852FC4F808160E004
:102CE0008F730E94C423D5CFF8018081918104960F
:102CF00080349C4918F480E49CE904C0F801808188
:102D000091810496F701918380838FEF888341C07E
:102D1000F801808191814881B901640F711D47FDDF
:102D20007A95AB01FB01EE0FFF1FE40FF51FE85290
:102D3000FC4F41815281840F951FF701918380835D
:102D40008881A901480F511D87FD5A95FA01EE0FA0
:102D5000FF1FE40FF51FE852FC4F808186FF19C06A
:102D60008881280F311D87FD3A95F901EE0FFF1F6D
:102D7000E20FF31FE852FC4F808161E08F73DF9117
:102D8000CF911F910F91FF90EF90DF90CF900C9417
:102D9000C423DF91CF911F910F91FF90EF90DF90AF
:102DA000CF9008951F920F920FB60F9211240BB679
:102DB0000F922F933F934F935F936F937F938F93D4
:102DC0009F93AF93BF93EF93FF9348E850E064E87D
:102DD00070E081E090E00E941116FF91EF91BF91A9
:102DE000AF919F918F917F916F915F914F913F91A3
:102DF0002F910F900BBE0F900FBE0F901F90189544
:102E00001F920F920FB60F9211240BB60F922F93B1
:102E10003F934F935F936F937F938F939F93AF9362
:102E2000BF93EF93FF9348E950E064E970E082E0DC
:102E300090E00E941116FF91EF91BF91AF919F9189
:102E40008F917F916F915F914F913F912F910F9053
:102E50000BBE0F900FBE0F901F9018951F920F92F0
:102E60000FB60F9211240BB60F922F933F934F93EF
:102E70005F936F937F938F939F93AF93BF93EF93E2
:102E8000FF9348EA50E064EA70E083E090E00E943B
:102E90001116FF91EF91BF91AF919F918F917F910B
:102EA0006F915F914F913F912F910F900BBE0F90BB
:102EB0000FBE0F901F9018951F920F920FB60F9292
:102EC00011240BB60F922F933F934F935F936F9301
:102ED0007F938F939F93AF93BF93EF93FF9348E2BA
:102EE00051E064E271E080E090E00E941116FF91F1
:102EF000EF91BF91AF919F918F917F916F915F9172
:102F00004F913F912F910F900BBE0F900FBE0F90DE
:102F10001F9018952091D3032033A0F431E0320F95
:102F20003093D303FC012083822F90E0FC01EE0F4D
:102F3000FF1FE80FF91FE852FC4F88EB9BE09283DC
:102F4000818308952FEFFC0120830895DF92EF9293
:102F5000FF920F931F93CF93DF93EC01D62E7A014C
:102F600089018881803308F068C061E08D2D0E945E
:102F70008B238881A82FB0E0FD01EE0FFF1FEA0F21
:102F8000FB1FE852FC4F2D2D2F739081907C922BCC
:102F9000908360E272E06E197F0977FF02C06D5F77
:102FA0007F4F7595679575956795698340E659E0FC
:102FB000401B510B57FF02C04D5F5F4F5595479522
:102FC000559547954A836CE00E94432B9CE0899F6E
:102FD000B001112420E030E0A901460F571FFA018B
:102FE000EE0FFF1FE40FF51FE852FC4F908196FD96
:102FF00018C02F5F3F4F2C30310571F790E08130C2
:10300000910521F51092800082E08093810010925A
:10301000850010928400B19A80916F008260809345
:103020006F00888190E0FC01EE0FFF1FE80FF91F91
:10303000E852FC4F8081806480838881DF91CF914A
:103040001F910F91FF90EF90DF90089582309105CE
:1030500069F41092900082E08093910010929500A4
:103060001092940088BB80937100DBCF8330910570
:1030700069F41092A00082E08093A1001092A50054
:103080001092A40089BB80937200CBCF892B49F6A4
:103090001092200182E0809321011092250110926C
:1030A00024018ABB80937300BCCF20E639E040E264
:1030B00052E00C94A617CF93CFB7F8948091680490
:1030C000811127C0E2E1F4E08491ECECF3E094910B
:1030D000E82FF0E0EE0FFF1FE95AFB4FA591B491E6
:1030E0008C91892321F461E085E30E94C42361E08F
:1030F00085E30E948B238CB580618CBD8CB5806488
:103100008CBD61E084E30E948B2361E083E30E9435
:103110008B23809168048F5F80936804CFBFCF9129
:103120000895FB0120813181FC01318320830895C2
:10313000FC01613051F028F0623061F0633079F0C9
:103140000895808191818F730DC0808191818F77E7
:10315000806408C0808191818F7B806803C08081FA
:103160009181806C918380830895FC01808191819D
:1031700062FF02C0806201C08F7D91838083808165
:10318000918161FF02C0806101C08F7E9183808345
:103190008081918160FF02C0886001C0877F918338
:1031A00080830895FC018081918162FF02C0846068
:1031B00001C08B7F918380838081918161FF02C0F8
:1031C000826001C08D7F918380838081918160FFC7
:1031D00002C0816001C08E7F918380830895FC01CD
:1031E00080819181662311F0916001C09E7F91835F
:1031F00080830895EF92FF920F93CF93DF9300D0D7
:10320000CDB7DEB77C01FC01118210822A8349838D
:103210000E9498184981642FC7010E94B5182A811D
:10322000622FC7010E94D218602FC7010F900F9024
:10323000DF91CF910F91FF90EF900C94EF180F93C7
:1032400000E020E040E061E00E94FA180F9108954C
:10325000AC01405C5F4FFC019F01285F3F4F119222
:10326000E217F307E1F7E417F507B1F720E030E0E4
:1032700040E050E0BC01620F731FFB01E40FF51F3B
:1032800010824F5F5F4F48305105B9F7285F3F4FBD
:103290002034310569F708951F93CF93DF93AC0174
:1032A000405C5F4FFC019F01285F3F4F1192E21786
:1032B000F307E1F7E417F507B1F720E030E0FB0191
:1032C000E20FF31F40E050E0DC01A21BB30B1191B1
:1032D000ED01C40FD51F18AF4F5F5F4F4830510548
:1032E000B1F7285F3F4F2034310549F7DF91CF9187
:1032F0001F9108958091990490E020919A04821B77
:103300009109089520919A0480919904281750F406
:10331000E22FF0E0E556FB4F808190E02F5F209395
:103320009A0408958FEF9FEF0895E0919A04809199
:103330009904E81730F4F0E0E556FB4F808190E007
:1033400008958FEF9FEF08950895CF92DF92EF9247
:10335000FF920F931F93CF93DF937C01CB018A01E0
:1033600020917504222389F0EB016B01C40ED51E58
:10337000CC15DD0569F06991D701ED91FC910190C3
:10338000F081E02DC7010995F3CF642F0E94041B43
:10339000C801DF91CF911F910F91FF90EF90DF90C7
:1033A000CF900895CF93DF931F92CDB7DEB7698397
:1033B000209175042223D1F020917604203240F030
:1033C00021E030E0FC013383228380E090E015C0EF
:1033D00080917704E82FF0E0E858FB4F99819083C3
:1033E0008F5F809377048093760405C061E0CE01FF
:1033F00001960E94041B81E090E00F90DF91CF9135
:103400000895FC011382128248EE53E060E070E000
:10341000448355836683778389E793E09183808330
:10342000089510929A0410929904109277041092C1
:1034300076040C944F1A862F413208F040E26BE973
:1034400074E00E946D1A10929A0480939904089572
:1034500021E00C941B1A81E080937504609398041A
:10346000109277041092760408950F93062F21E0AE
:103470004091760468E774E0809198040E94B11A44
:103480001092770410927604109275040F910895AB
:1034900061E00C94351A89E694E00C94011A1092BC
:1034A000280581E0809326051092250561E084E1DE
:1034B0000E94C42361E085E10E94C423E9EBF0E0AF
:1034C00080818E7F808380818D7F808388E480935C
:1034D000B80085E48093BC000895413208F03FC0F5
:1034E000909128059111FCCF91E0909328052093AD
:1034F00026052FEF2093BB0410920005240F209384
:10350000FF049093270590912705880F892B8093BE
:10351000270580912505813041F410922505809181
:1035200027058093BB0085EC01C085EE8093BC002D
:10353000809128058130E1F380910005841710F413
:103540004091000521E035E0FB01D9018A2F821B63
:10355000841718F48D918193F9CF842F089580E01A
:1035600008950F93413208F046C0909128059111BB
:10357000FCCF92E090932805009326059FEF90934F
:10358000BB04109200054093FF04FB0161E075E06D
:10359000DB019A2F961B941718F491919D93F9CF04
:1035A0001092270590912705880F892B8093270576
:1035B00080912505813041F41092250580912705E1
:1035C0008093BB0085EC01C085EE8093BC00222374
:1035D00021F0809128058230E1F38091BB048F3F78
:1035E00061F08091BB04803251F08091BB04803344
:1035F00041F483E007C081E005C080E003C082E0C1
:1036000001C084E00F910895613298F4209128055B
:10361000243089F46093DD04FC018FED94E0DC013B
:103620002A2F281B261718F421912D93F9CF80E01B
:10363000089581E0089582E0089585ED8093BC00AF
:103640008091BC0084FDFCCF10922805089585EC84
:103650008093BC001092280508951F920F920FB618
:103660000F9211240BB60F922F933F934F935F93BA
:103670006F937F938F939F93AF93BF93EF93FF933A
:103680008091B900887F803609F49CC068F5883243
:1036900009F45BC090F4803109F454C038F48823F5
:1036A00009F4F5C0883009F44DC0F5C0883109F43B
:1036B0004CC0803209F45DC0EEC0803409F468C0AB
:1036C00048F4803309F455C0883309F0E4C080938E
:1036D000BB04A8C0803509F44FC0883509F45DC02B
:1036E000883409F0D8C0D5C0883909F4C6C0A8F418
:1036F000883709F467C038F4883609F463C0803726
:1037000009F460C0C8C0883809F4B7C0803909F42A
:103710005FC0803809F0BFC05BC0803B09F485C042
:1037200038F4803A09F466C0883A09F47EC0B3C020
:10373000803C09F4A6C0883C09F4A3C0883B09F486
:1037400089C0A9C08091270510C090910005809183
:10375000FF04981770F5E091000581E08E0F8093CB
:103760000005F0E0EF5FFA4F80818093BB0085ECAD
:1037700085C08093BB048DC0E091000581E08E0F71
:10378000809300058091BB00F0E0EF5FFA4F8083EB
:10379000909100058091FF046DC0E091000581E0EB
:1037A0008E0F809300058091BB00F0E0EF5FFA4F31
:1037B00080838091260581116CC081E0809325056E
:1037C00084EA60C083E0809328051092BC04CFCFC8
:1037D0008091BC04803208F050C0E091BC0481E0CC
:1037E0008E0F8093BC048091BB00F0E0E354FB4F4C
:1037F0008083BDCF8091BC04803230F4E091BC0462
:10380000F0E0E354FB4F10820E941D1B6091BC044A
:1038100070E0E0912105F09122058DEB94E009958F
:103820001092BC040E94271B36C084E080932805B8
:103830001092DE041092DD04E0912305F09124053E
:1038400009958091DD04811105C081E08093DD043C
:103850001092DF04E091DE0481E08E0F8093DE049D
:10386000F0E0E152FB4F80818093BB009091DE0439
:103870008091DD04981708F47ACF85E88093BC0026
:103880000AC085EC8093BC001092280504C01092F9
:10389000BB040E941D1BFF91EF91BF91AF919F91BF
:1038A0008F917F916F915F914F913F912F910F90E9
:1038B0000BBE0F900FBE0F901F90189580912B0597
:1038C00090912C050C9449102F923F924F925F9249
:1038D0006F927F928F929F92AF92BF92CF92DF9220
:1038E000EF92FF920F931F93CF93DF93CDB7DEB785
:1038F000C351D1400FB6F894DEBF0FBECDBF80914B
:10390000350590913605C05FDE4F99838883C0519D
:10391000D14060902F057090300580902D059090DB
:103920002E0580912B0590912C05C25FDE4F998367
:103930008883CE50D140209033053090340580915B
:10394000310590913205CE5EDE4F99838883C25156
:10395000D14080E5EAE1F2E0DE01AF5ABF4F0190CD
:103960000D928A95E1F78AE0EAE6F2E0DE01A551E0
:10397000BF4F01900D928A95E1F788E0E4E7F2E00D
:10398000DE01AB5FBE4F01900D928A95E1F78AE1AF
:10399000ECE7F2E0DE01A554BF4F01900D928A954D
:1039A000E1F726E040E855E260E070E080E595E070
:1039B0000E94352580910C0290E0FC013197EF3098
:1039C000F105C0F4EF57FF4F0C94992B9CE122C0F6
:1039D0008CE127C099E11EC081E023C094E01AC0A9
:1039E00084E01FC09EE316C08EE31BC09BE312C0A1
:1039F0008BE317C061E373E080E595E00E949426B5
:103A00004AE050E060910C0280E595E00E949A2720
:103A1000FFCF9FE3C35FDE4F9883CD50D14006C0F8
:103A200088E0C35FDE4F8883CD50D140C35FDE4F57
:103A30008881CD50D140807209F475C0C350DF4FEA
:103A400079826882CD5FD040C150DF4F99828882F1
:103A5000CF5FD040CF5FDE4F39822882C150D14046
:103A6000C25FDE4F88819981CE50D140CD5FDE4F5D
:103A700099838883C350D14080E5FE01EF5AFF4F00
:103A8000DE01119601900D928A95E1F78FE590E0A5
:103A90000E9454262C018DB79EB7805591090FB610
:103AA000F8949EBF0FBE8DBFADB7BEB7119680E52F
:103AB000FE01319601900D928A95E1F7C350DF4FD8
:103AC0000881CD5FD040C250DF4F1881CE5FD0401B
:103AD000C150DF4F2881CF5FD040C050DF4F3881C9
:103AE000C050D140CF5FDE4F4881C150D140CE5F42
:103AF000DE4F5881C250D140CD5FDE4F6881C35048
:103B0000D140CC5FDE4F7881C450D140C2010E94C9
:103B1000860250923605409235050FB6F894DEBF06
:103B20000FBECDBF04C01092360510923505C35F9D
:103B3000DE4F9881CD50D14094FF51C08AE0FE0104
:103B4000E551FF4FDE01AF51BF4F01900D928A95B5
:103B5000E1F78DE290E00E9454262C01A0903105FF
:103B6000B0903205C0902B05D0902C05CF51DF4F7F
:103B7000E880C15ED040CE51DF4FF880C25ED040B9
:103B8000CD51DF4F0881C35ED040CC51DF4F18814B
:103B9000C45ED040CB51DF4F2881C55ED040CA51B2
:103BA000DF4F3881C65ED040C951DF4F4881C75EC4
:103BB000D040C851DF4F5881C85ED040C751DF4F59
:103BC0006881C95ED040C651DF4F7881CA5ED0405F
:103BD0000E94F806509234054092330504C01092BA
:103BE000340510923305C35FDE4F8881CD50D1403C
:103BF00083FF3FC088E0FE01EB5FFE4FDE01AB506C
:103C0000BF4F01900D928A95E1F788E090E00E9405
:103C100054262C01CB50DF4F0881C55FD040CA50DD
:103C2000DF4F1881C65FD040C950DF4F2881C75F82
:103C3000D040C850DF4F3881C85FD040C750DF4FF9
:103C40004881C95FD040C650DF4F5881CA5FD0401D
:103C5000C550DF4F6881CB5FD040C450DF4F7881C3
:103C6000CC5FD0400E941806509232054092310538
:103C700004C01092320510923105C35FDE4F988167
:103C8000CD50D14090FF30C08AE1FE01E554FF4F96
:103C9000DE01AF55BF4F01900D928A95E1F78CE898
:103CA00090E00E9454262C018DB79EB74A970FB61C
:103CB000F8949EBF0FBE8DBFADB7BEB711968AE117
:103CC000FE01EF55FF4F01900D928A95E1F7C20179
:103CD0000E94800D5092300540922F050FB6F89447
:103CE000DEBF0FBECDBF04C01092300510922F056D
:103CF000C35FDE4F9881CD50D14091FF10C084E06A
:103D000090E00E9454262C0141E052E063E074E010
:103D10000E94A41350922E0540922D0504C01092CB
:103D20002E0510922D05C35FDE4F8881CD50D14006
:103D300082FF13C086E290E00E9454262C010E946C
:103D4000260F50922C0540922B0543E050E06EE583
:103D50007CE180E00E94511F04C010922C0510925B
:103D60002B05C05FDE4F88819981C051D140CB5275
:103D7000DF4F99838883C55DD040C952DF4F798278
:103D80006882C75DD040C752DF4F99828882C95D83
:103D9000D040C25FDE4F88819981CE50D140C5525C
:103DA000DF4F99838883CB5DD040C352DF4F398288
:103DB0002882CD5DD040CE5EDE4F88819981C25190
:103DC000D140C152DF4F99838883CF5DD0408FE0CF
:103DD00090E00E9454263C01CB52DF4F8880C55DA5
:103DE000D040CA52DF4F9880C65DD040C952DF4FE5
:103DF000A880C75DD040C852DF4FB880C85DD040B2
:103E0000C752DF4FC880C95DD040C652DF4FD8804F
:103E1000CA5DD040C552DF4FE880CB5DD040C45270
:103E2000DF4FF880CC5DD040C352DF4F0881CD5DBD
:103E3000D040C252DF4F1881CE5DD040C152DF4F1B
:103E40002881CF5DD040C052DF4F3881C05ED04066
:103E500045E460910C020E94640A70922A05609207
:103E60002905CD5EDE4F0FB6F894DEBF0FBECDBF85
:103E7000DF91CF911F910F91FF90EF90DF90CF9046
:103E8000BF90AF909F908F907F906F905F904F907A
:103E90003F902F9008958091290590912A050C94C8
:103EA000BE0C883008F06DC0E82FF0E0EE0FFF1F69
:103EB000E95CFA4F7183608390E0FC013197E73051
:103EC000F10590F5E057FF4F0C94992B8091690014
:103ED0008C7F842B80936900E89A08958091690013
:103EE000440F551F440F551F837F842B8093690017
:103EF000E99A08958091690074E0440F551F7A95FE
:103F0000E1F78F7C842B80936900EA9A0895809171
:103F1000690066E0440F551F6A95E1F78F73842BA3
:103F200080936900EB9A089580916A008C7F842BBE
:103F300080936A00EC9A089580916A00440F551F9F
:103F4000440F551F837F842B80936A00ED9A089558
:103F500080916A0024E0440F551F2A95E1F78F7C79
:103F6000842B80936A00EE9A089580916A0096E00F
:103F7000440F551F9A95E1F78F73842B80936A0045
:103F8000EF9A08951F920F920FB60F9211240BB65D
:103F90000F922F933F934F935F936F937F938F93E2
:103FA0009F93AF93BF93EF93FF9380913B059091C5
:103FB0003C05892B29F0E0913B05F0913C050995E2
:103FC000FF91EF91BF91AF919F918F917F916F91F1
:103FD0005F914F913F912F910F900BBE0F900FBEAD
:103FE0000F901F9018951F920F920FB60F921124E9
:103FF0000BB60F922F933F934F935F936F937F93E3
:104000008F939F93AF93BF93EF93FF9380913D0561
:1040100090913E05892B29F0E0913D05F0913E05F8
:104020000995FF91EF91BF91AF919F918F917F91F2
:104030006F915F914F913F912F910F900BBE0F9019
:104040000FBE0F901F9018951F920F920FB60F92F0
:1040500011240BB60F922F933F934F935F936F935F
:104060007F938F939F93AF93BF93EF93FF93809131
:104070003F0590914005892B29F0E0913F05F09193
:1040800040050995FF91EF91BF91AF919F918F915D
:104090007F916F915F914F913F912F910F900BBE48
:1040A0000F900FBE0F901F9018951F920F920FB692
:1040B0000F9211240BB60F922F933F934F935F9360
:1040C0006F937F938F939F93AF93BF93EF93FF93E0
:1040D0008091410590914205892B29F0E09141059D
:1040E000F09142050995FF91EF91BF91AF919F919A
:1040F0008F917F916F915F914F913F912F910F9091
:104100000BBE0F900FBE0F901F9018951F920F922D
:104110000FB60F9211240BB60F922F933F934F932C
:104120005F936F937F938F939F93AF93BF93EF931F
:10413000FF938091370590913805892B29F0E09104
:104140003705F09138050995FF91EF91BF91AF9137
:104150009F918F917F916F915F914F913F912F919F
:104160000F900BBE0F900FBE0F901F9018951F92CF
:104170000F920FB60F9211240BB60F922F933F930D
:104180004F935F936F937F938F939F93AF93BF935F
:10419000EF93FF938091390590913A05892B29F08F
:1041A000E0913905F0913A050995FF91EF91BF91A2
:1041B000AF919F918F917F916F915F914F913F91BF
:1041C0002F910F900BBE0F900FBE0F901F90189560
:1041D0001F920F920FB60F9211240BB60F922F93CE
:1041E0003F934F935F936F937F938F939F93AF937F
:1041F000BF93EF93FF938091430590914405892BE2
:1042000029F0E0914305F09144050995FF91EF9164
:10421000BF91AF919F918F917F916F915F914F91DE
:104220003F912F910F900BBE0F900FBE0F901F90DC
:1042300018951F920F920FB60F9211240BB60F9282
:104240002F933F934F935F936F937F938F939F939E
:10425000AF93BF93EF93FF938091450590914605EF
:10426000892B29F0E0914505F09146050995FF91CC
:10427000EF91BF91AF919F918F917F916F915F91DE
:104280004F913F912F910F900BBE0F900FBE0F904B
:104290001F9018951F920F920FB60F9211242F9313
:1042A0003F938F939F93AF93BF93809148059091D5
:1042B0004905A0914A05B0914B053091470523E08F
:1042C000230F2D3720F40196A11DB11D05C026E84E
:1042D000230F0296A11DB11D209347058093480529
:1042E00090934905A0934A05B0934B0580914C05E6
:1042F00090914D05A0914E05B0914F050196A11DDD
:10430000B11D80934C0590934D05A0934E05B0933D
:104310004F05BF91AF919F918F913F912F910F903A
:104320000FBE0F901F9018953FB7F89480914C05E1
:1043300090914D05A0914E05B0914F0526B5A89BD3
:1043400005C02F3F19F00196A11DB11D3FBF662783
:10435000782F892F9A2F620F711D811D911D42E0C8
:10436000660F771F881F991F4A95D1F70895CF923E
:10437000DF92EF92FF92CF93DF936B017C010E945B
:104380009421EB01C114D104E104F10489F00E94ED
:10439000CC280E9494216C1B7D0B683E734090F3E7
:1043A00081E0C81AD108E108F108C851DC4FEACF12
:1043B000DF91CF91FF90EF90DF90CF900895823002
:1043C000910538F0880F991F880F991F059701975D
:1043D000F1F70895789484B5826084BD84B58160D6
:1043E00084BD85B5826085BD85B5816085BDEEE6FD
:1043F000F0E0808181608083E1E8F0E010828081DC
:1044000082608083808181608083E0E8F0E0808149
:1044100081608083E1EBF0E0808184608083E0EB69
:10442000F0E0808181608083E1E9F0E0808182605A
:104430008083808181608083E0E9F0E08081816019
:104440008083E1EAF0E08081826080838081816006
:104450008083E0EAF0E0808181608083E1E2F1E046
:10446000808182608083808181608083E0E2F1E0EE
:10447000808181608083EAE7F0E0808184608083CE
:104480008081826080838081816080838081806878
:1044900080831092C1000895863308F086532091DE
:1044A0007B00982F9870277F922B90937B008770CA
:1044B00020910D0290E4299F90011124822B80937A
:1044C0007C0080917A00806480937A0080917A00E9
:1044D00086FDFCCF809178002091790090E0922BAE
:1044E00008951F93CF93DF93182FEB0161E00E9493
:1044F0008B23209711F460E004C0CF3FD10539F43D
:1045000061E0812FDF91CF911F910C94C423E12FA3
:10451000F0E0EF5AFC4F449150E0FA013197E2315C
:10452000F10508F09BC0E956FF4F0C94992B84B518
:10453000806884BDC7BD97C084B5806284BDC8BD96
:1045400092C080918000806880938000D093890021
:10455000C093880088C08091800080628093800032
:10456000D0938B00C0938A007EC0809180008860C9
:1045700080938000D0938D00C0938C0074C0809194
:10458000B00080688093B000C093B3006CC080918D
:10459000B00080628093B000C093B40064C080918A
:1045A0009000806880939000D0939900C093980009
:1045B0005AC080919000806280939000D0939B00BD
:1045C000C0939A0050C080919000886080939000C2
:1045D000D0939D00C0939C0046C08091A00080684D
:1045E0008093A0008091A0008F7B8093A000D09347
:1045F000A900C093A80037C08091A000806280937A
:10460000A000D093AB00C093AA002DC08091A00061
:1046100088608093A000D093AD00C093AC0023C00D
:1046200080912001806880932001D0932901C0935C
:10463000280119C080912001806280932001D093CD
:104640002B01C0932A010FC08091200188608093C4
:104650002001D0932D01C0932C0105C0C038D10595
:104660000CF04ECF48CFDF91CF911F91089590E08D
:10467000FC013197E231F10508F04CC0E755FF4FDE
:104680000C94992B809180008F7703C080918000DB
:104690008F7D80938000089580918000877FF9CF7F
:1046A00084B58F7702C084B58F7D84BD08958091D5
:1046B000B0008F7703C08091B0008F7D8093B000F1
:1046C0000895809190008F7707C0809190008F7D32
:1046D00003C080919000877F80939000089580911F
:1046E000A0008F7707C08091A0008F7D03C08091CC
:1046F000A000877F8093A0000895809120018F778C
:1047000007C0809120018F7D03C080912001877FA9
:10471000809320010895CF93DF9390E0FC01E95648
:10472000FC4F2491FC01E352FC4F8491882349F112
:1047300090E0880F991FFC01E95AFB4FA591B491B5
:10474000835C9B4FFC01C591D4919FB7611108C058
:10475000F8948C91209582238C93888182230AC0BF
:10476000623051F4F8948C91322F309583238C93DE
:104770008881822B888304C0F8948C91822B8C933F
:104780009FBFDF91CF9108950F931F93CF93DF9336
:104790001F92CDB7DEB7282F30E0F901EF5AFC4F5A
:1047A0008491F901E956FC4F1491F901E352FC4F51
:1047B00004910023C9F0882321F069830E943723E4
:1047C0006981E02FF0E0EE0FFF1FE35CFB4FA59146
:1047D000B4919FB7F8948C91611103C01095812317
:1047E00001C0812B8C939FBF0F90DF91CF911F91C0
:1047F0000F910895CF93DF93282F30E0F901EF5AFE
:10480000FC4F8491F901E956FC4FD491F901E35230
:10481000FC4FC491CC2391F081110E943723EC2FDF
:10482000F0E0EE0FFF1FED5DFB4FA591B4912C91D1
:104830002D2381E090E021F480E002C080E090E050
:10484000DF91CF910895FC01818D228D90E0805CF5
:104850009F4F821B91098F7399270895FC01918DB9
:10486000828D981731F0828DE80FF11D858D90E0D3
:1048700008958FEF9FEF0895FC01918D828D981719
:1048800061F0828DDF01A80FB11D5D968C91928D34
:104890009F5F9F73928F90E008958FEF9FEF089531
:1048A00087EF95E2892B41F080E090E0892B21F0A1
:1048B0000E94F725811125C080E090E0892B41F00E
:1048C00080E090E0892B21F00E94000081111CC043
:1048D00080E090E0892B41F080E090E0892B21F08E
:1048E0000E940000811113C080E090E0892BA1F0AC
:1048F00080E090E0892B81F00E94000081110AC0C5
:1049000008950E940000D8CF0E940000E1CF0E94CD
:104910000000EACF0C9400000895FC01848DDF01B3
:10492000A80FB11DA35ABF4F2C91848D90E0019622
:104930008F739927848FA689B7892C93A089B18911
:104940008C9180648C93938D848D981306C002881B
:10495000F389E02D80818F7D80830895CF93DF934D
:10496000EC01888D8823C9F0EA89FB89808185FD67
:1049700005C0A889B9898C9186FD0FC00FB607FCC8
:10498000F5CF808185FFF2CFA889B9898C9185FF09
:10499000EDCFCE010E948D24E7CFDF91CF91089516
:1049A000CF92DF92FF920F931F93CF93DF931F92CB
:1049B000CDB7DEB76C0181E0D60158968C9358973D
:1049C0005B969C915B975C968C915C97981307C063
:1049D0005096ED91FC915197808185FD2EC0F60196
:1049E000038D10E00F5F1F4F0F731127F02EF6019C
:1049F000848DF81211C00FB607FCF9CFD60150967E
:104A0000ED91FC915197808185FFF1CFC6016983BB
:104A10000E948D246981EBCF838DE80FF11DE35A4D
:104A2000FF4F6083D6015B960C935B975296ED9196
:104A3000FC915397808180620CC0D6015696ED910F
:104A4000FC91579760835096ED91FC91519780812E
:104A50008064808381E090E00F90DF91CF911F917F
:104A60000F91FF90DF90CF900895BF92CF92DF9289
:104A7000EF92FF92CF93DF93EC016A017B01B22E9C
:104A8000E889F98982E08083411581EE5807610544
:104A90007105A1F060E079E08DE390E0A701960157
:104AA0000E94772B215031094109510956954795AC
:104AB00037952795211580E1380798F0E889F9891D
:104AC000108260E874E88EE190E0A70196010E94F0
:104AD000772B215031094109510956954795379552
:104AE0002795EC85FD853083EE85FF852083188E24
:104AF000EC89FD89B082EA89FB89808180618083AD
:104B0000EA89FB89808188608083EA89FB898081CA
:104B100080688083EA89FB8980818F7D8083DF9133
:104B2000CF91FF90EF90DF90CF90BF9008951F92AC
:104B30000F920FB60F9211240BB60F922F938F93F3
:104B40009F93EF93FF93E0916005F0916105808161
:104B5000E0916605F091670582FD12C09081809119
:104B600069058F5F8F7320916A05821751F0E0917C
:104B70006905F0E0E05BFA4F958F8093690501C00D
:104B80008081FF91EF919F918F912F910F900BBE9C
:104B90000F900FBE0F901F9018951F920F920FB697
:104BA0000F9211240BB60F922F933F934F935F9365
:104BB0006F937F938F939F93AF93BF93EF93FF93E5
:104BC00080E595E00E948D24FF91EF91BF91AF9118
:104BD0009F918F917F916F915F914F913F912F9115
:104BE0000F900BBE0F900FBE0F901F90189580E591
:104BF00095E00E94232421E0892B09F420E0822FF4
:104C00000895109253051092520588EE93E0A0E0AB
:104C1000B0E08093540590935505A0935605B0934A
:104C2000570589E893E0909351058093500585ECF2
:104C300090E090935D0580935C0584EC90E0909308
:104C40005F0580935E0580EC90E090936105809312
:104C5000600581EC90E0909363058093620582EC9F
:104C600090E0909365058093640586EC90E09093C6
:104C70006705809366051092690510926A05109287
:104C80006B0510926C05089508950E94EA210E9418
:104C900044260E94641CC0E5D4E20E944B1F20976A
:104CA000E1F30E945024F9CF0C94A32BCF92DF9212
:104CB000EF92FF920F931F93CF93DF936C017A01D2
:104CC000EB01E60EF71E00E010E0CE15DF0561F007
:104CD0006991D601ED91FC910190F081E02DC60122
:104CE0000995080F191FF1CFC801DF91CF911F91CE
:104CF0000F91FF90EF90DF90CF90089561157105AF
:104D000081F0DB010D900020E9F7AD014150510920
:104D1000461B570BDC01ED91FC910280F381E02DE5
:104D2000099480E090E00895EF92FF920F931F9313
:104D3000CF93DF938C01FB01C0E0D0E064917F0151
:104D40008FEFE81AF80A662361F0D801ED91FC9123
:104D50000190F081E02DC8010995C80FD91FF70116
:104D6000EDCFCE01DF91CF911F910F91FF90EF908A
:104D700008950C947E26DC01ED91FC910190F08168
:104D8000E02D099465E973E00C947E260F931F9340
:104D9000CF93DF93EC010E9494268C01CE010E94F8
:104DA000C226800F911FDF91CF911F910F9108951F
:104DB0000F931F93CF93DF93EC010E947E268C010B
:104DC000CE010E94C226800F911FDF91CF911F91CB
:104DD0000F9108958F929F92AF92BF92CF92DF92E0
:104DE000EF92FF920F931F93CF93DF93CDB7DEB770
:104DF000A1970FB6F894DEBF0FBECDBF7C01C42EC5
:104E0000E52FCB01D22E19A221E02D1510F02AE0BA
:104E1000D22E8E010F5D1F4F8D2C912CA12CB12C09
:104E20006C2D7E2FA50194010E94772B8C2DD29E94
:104E300080191124015011098A3014F4805D01C0D9
:104E4000895CF8018083211531054105510521F068
:104E5000C22EE32FCA01E4CFB801C7010E947E260B
:104E6000A1960FB6F894DEBF0FBECDBFDF91CF91F4
:104E70001F910F91FF90EF90DF90CF90BF90AF9078
:104E80009F908F900895CF92DF92EF92FF920F93B1
:104E90001F93CF93DF93EC016A017B01211531054C
:104EA00079F4E881F9810190F081E02D642FDF91A0
:104EB000CF911F910F91FF90EF90DF90CF900994C9
:104EC0002A303105E9F477FF1AC06DE20E94BB2653
:104ED0008C0144275527BA014C195D096E097F09D9
:104EE0002AE0CE010E94EA26800F911FDF91CF9128
:104EF0001F910F91FF90EF90DF90CF9008952AE0DF
:104F0000B701A601CE01DF91CF911F910F91FF90C4
:104F1000EF90DF90CF900C94EA262115310541F4F3
:104F2000DC01ED91FC910190F081E02D642F09945A
:104F30000C94EA260F931F93CF93DF93EC019A0111
:104F4000462F50E060E070E00E948D278C01CE017A
:104F50000E94C226800F911FDF91CF911F910F9168
:104F600008959A01AB0160E070E00C948D270F93D7
:104F70001F93CF93DF93EC019A01AB0160E070E0E7
:104F80000E948D278C01CE010E94C226800F911FA6
:104F9000DF91CF911F910F9108954F925F926F9281
:104FA0007F928F929F92AF92BF92CF92DF92EF92B9
:104FB000FF920F931F93CF93DF93EC016A017B0164
:104FC000B22E9A01AB01C701B6010E942A2B882399
:104FD00019F068E973E027C026013701E89477F8F3
:104FE0002FEF3FEF4FE75FE7C301B2010E942A2B8B
:104FF00081110DC02FEF3FEF4FE75FE7C301B20113
:105000000E94322918161CF46CE973E00CC02FEFD3
:105010003FEF4FE75FE4C701B6010E94812A1816EF
:10502000ACF460EA73E0CE01DF91CF911F910F9154
:10503000FF90EF90DF90CF90BF90AF909F908F90B8
:105040007F906F905F904F900C947E262FEF3FEFF4
:105050004FE75FECC701B6010E94322987FDE1CF1F
:1050600020E030E0A901C701B6010E94322987FF84
:105070000AC06DE2CE010E94BB268C01F7FAF094C3
:10508000F7F8F09402C000E010E0A12C60E070E0BE
:1050900080E09FE3AB1441F020E030E040E251E4D7
:1050A0000E943629A394F6CF9B01AC01C701B6013B
:1050B0000E94CE286B017C010E94A3292B013C0198
:1050C0000E94CF299B01AC01C701B6010E94CD28E7
:1050D0006B017C012AE0B301A201CE010E94EA2605
:1050E000080F191FBB2039F06FE573E0CE010E9455
:1050F0007E26080F191F7B2C772041F120E030E03D
:1051000040E251E4C701B6010E94852A6B017C018F
:105110000E949E294B01AA2497FCA094BA2C2AE055
:1051200030E0B501A401CE010E944327080F191FEA
:10513000C501B4010E94D1299B01AC01C701B60190
:105140000E94CD286B017C017A94D6CFC801DF91F3
:10515000CF911F910F91FF90EF90DF90CF90BF9074
:10516000AF909F908F907F906F905F904F90089539
:105170000C94CD270F931F93CF93DF93EC010E94E4
:10518000CD278C01CE010E94C226800F911FDF9196
:10519000CF911F910F91089508955058BB27AA27CA
:1051A0000ED075C166D130F06BD120F031F49F3F45
:1051B00011F41EF45BC10EF4E095E7FB51C1E92F39
:1051C00077D180F3BA17620773078407950718F041
:1051D00071F49EF58FC10EF4E0950B2EBA2FA02D21
:1051E0000B01B90190010C01CA01A0011124FF2794
:1051F000591B99F0593F50F4503E68F11A16F0408F
:10520000A22F232F342F4427585FF3CF469537958D
:105210002795A795F0405395C9F77EF41F16BA0B52
:10522000620B730B840BBAF09150A1F0FF0FBB1F00
:10523000661F771F881FC2F70EC0BA0F621F731F49
:10524000841F48F4879577956795B795F7959E3FA6
:1052500008F0B3CF9395880F08F09927EE0F979534
:1052600087950895D9D008F481E008950CD00FC136
:1052700007D140F0FED030F021F45F3F19F0F0C0CC
:10528000511139C1F3C014D198F39923C9F35523AF
:10529000B1F3951B550BBB27AA2762177307840729
:1052A00038F09F5F5F4F220F331F441FAA1FA9F3DF
:1052B00033D00E2E3AF0E0E830D091505040E695D1
:1052C000001CCAF729D0FE2F27D0660F771F881F32
:1052D000BB1F261737074807AB07B0E809F0BB0B21
:1052E000802DBF01FF2793585F4F2AF09E3F510545
:1052F00068F0B6C000C15F3FECF3983EDCF38695E2
:1053000077956795B795F7959F5FC9F7880F911DBA
:105310009695879597F90895E1E0660F771F881FA6
:10532000BB1F621773078407BA0720F0621B730B59
:10533000840BBA0BEE1F88F7E095089504D06894AB
:10534000B111D9C00895BCD088F09F5790F0B92F03
:105350009927B751A0F0D1F0660F771F881F991FCA
:105360001AF0BA95C9F712C0B13081F0C3D0B1E0DC
:105370000895C0C0672F782F8827B85F39F0B93FEC
:10538000CCF3869577956795B395D9F73EF49095CC
:105390008095709561957F4F8F4F9F4F0895E8944A
:1053A00009C097FB3EF490958095709561957F4F6D
:1053B0008F4F9F4F9923A9F0F92F96E9BB2793951B
:1053C000F695879577956795B795F111F8CFFAF42B
:1053D000BB0F11F460FF1BC06F5F7F4F8F4F9F4F5C
:1053E00016C0882311F096E911C0772321F09EE8BA
:1053F000872F762F05C0662371F096E8862F70E020
:1054000060E02AF09A95660F771F881FDAF7880FF9
:105410009695879597F90895990F0008550FAA0B4F
:10542000E0E8FEEF16161706E807F907C0F01216B7
:105430001306E407F50798F0621B730B840B950BBA
:1054400039F40A2661F0232B242B252B21F408950F
:105450000A2609F4A140A6958FEF811D811D0895AC
:1054600097F99F6780E870E060E008959FEF80EC17
:10547000089500240A9416161706180609060895BA
:1054800000240A9412161306140605060895092E20
:105490000394000C11F4882352F0BB0F40F4BF2B8F
:1054A00011F460FF04C06F5F7F4F8F4F9F4F0895CF
:1054B00057FD9058440F551F59F05F3F71F04795C5
:1054C000880F97FB991F61F09F3F79F087950895AA
:1054D000121613061406551FF2CF4695F1DF08C0C9
:1054E000161617061806991FF1CF869571056105E6
:1054F00008940895E894BB2766277727CB0197F98E
:1055000008958ADF08F48FEF08950BD0C0CFB1DF84
:1055100028F0B6DF18F0952309F0A2CFA7CF112409
:10552000EACFC6DFA0F3959FD1F3950F50E0551F4A
:10553000629FF001729FBB27F00DB11D639FAA27E8
:10554000F00DB11DAA1F649F6627B00DA11D661F37
:10555000829F2227B00DA11D621F739FB00DA11D58
:10556000621F839FA00D611D221F749F3327A00D12
:10557000611D231F849F600D211D822F762F6A2FAE
:1055800011249F5750408AF0E1F088234AF0EE0F33
:10559000FF1FBB1F661F771F881F91505040A9F740
:1055A0009E3F510570F05CCFA6CF5F3FECF3983E75
:1055B000DCF3869577956795B795F795E7959F5FA7
:1055C000C1F7FE2B880F911D9695879597F9089541
:1055D00011F40EF44BCF42C073DFD0F39923D9F30B
:1055E000CEF39F57550B87FF47D00024A0E640EA33
:1055F000900180585695979528F4805C660F771F28
:10560000881F20F026173707480730F4621B730BFA
:10561000840B202931294A2BA6951794079420251D
:1056200031254A2758F7660F771F881F20F0261765
:105630003707480730F4620B730B840B200D311DC4
:10564000411DA09581F7B901842F9158880F969537
:1056500087950895E1DE880B990B08959F3F31F0FF
:10566000915020F4879577956795B795880F911D90
:105670009695879597F9089591505040660F771F3A
:10568000881FD2F70895991B79E004C0991F9617D7
:1056900008F0961B881F7A95C9F780950895AA1B74
:1056A000BB1B51E107C0AA1FBB1FA617B70710F00D
:1056B000A61BB70B881F991F5A95A9F7809590953F
:1056C000BC01CD01089597FB072E16F4009407D076
:1056D00077FD09D00E944F2B07FC05D03EF4909532
:1056E00081959F4F0895709561957F4F0895A1E230
:1056F0001A2EAA1BBB1BFD010DC0AA1FBB1FEE1F4C
:10570000FF1FA217B307E407F50720F0A21BB30B96
:10571000E40BF50B661F771F881F991F1A9469F712
:1057200060957095809590959B01AC01BD01CF016E
:105730000895EE0FFF1F0590F491E02D0994079056
:10574000F691E02D0994CF93DF938230910510F408
:1057500082E090E0E091EF05F091F00520E030E08C
:10576000A0E0B0E0309739F14081518148175907E6
:10577000B8F04817590771F482819381109729F086
:1057800013969C938E9312972CC09093F005809360
:10579000EF0527C02115310531F04217530718F0E6
:1057A000A901DB0101C0EF019A01BD01DF01028007
:1057B000F381E02DD7CF21153105F9F0281B390BE6
:1057C0002430310580F48A819B816115710521F0B7
:1057D000FB019383828304C09093F0058093EF05CF
:1057E000FE01329644C0FE01E20FF31F81939193B4
:1057F00022503109398328833AC02091ED05309138
:10580000EE05232B41F420910202309103023093E4
:10581000EE052093ED052091000230910102211543
:10582000310541F42DB73EB7409104025091050275
:10583000241B350BE091ED05F091EE05E217F3071F
:10584000A0F42E1B3F0B2817390778F0AC014E5FF0
:105850005F4F2417350748F04E0F5F1F5093EE053A
:105860004093ED058193919302C0E0E0F0E0CF0119
:10587000DF91CF910895CF93DF93009709F487C00C
:10588000FC01329713821282C091EF05D091F0058E
:10589000209781F420813181280F391F8091ED05F7
:1058A0009091EE058217930779F5F093EE05E0935A
:1058B000ED056DC0DE0120E030E0AE17BF0750F40B
:1058C00012964D915C9113979D014115510509F177
:1058D000DA01F3CFB383A28340815181840F951FF6
:1058E0008A179B0771F48D919C911197840F951FD6
:1058F00002969183808312968D919C911397938346
:1059000082832115310529F4F093F005E093EF052A
:105910003EC0D9011396FC93EE9312974D915D9181
:10592000A40FB51FEA17FB0779F480819181840FDA
:10593000951F0296D90111969C938E938281938133
:1059400013969C938E931297E0E0F0E08A819B81FE
:10595000009719F0FE01EC01F9CFCE0102962881E3
:105960003981820F931F2091ED053091EE052817A4
:10597000390769F4309729F41092F0051092EF0579
:1059800002C013821282D093EE05C093ED05DF9121
:10599000CF9108956F927F928F929F92AF92BF9214
:1059A000CF92DF92EF92FF920F931F93CF93DF93EB
:1059B000EC01CB01209781F4DF91CF911F910F91E2
:1059C000FF90EF90DF90CF90BF90AF909F908F901F
:1059D0007F906F900C94A32BFE01E60FF71F9E01A2
:1059E00022503109E217F30708F4ACC0D9010D9138
:1059F0001C91119706171707B8F00530110508F428
:105A00009FC0A801445051094617570708F498C091
:105A100002501109061B170B019311936D937C9390
:105A2000CF010E943B2C8CC05B01A01AB10A4E0131
:105A3000800E911EA091EF05B091F005612C712CA4
:105A400060E070E0109709F449C0A815B905C9F5E0
:105A5000ED90FC901197670142E0C40ED11CCA146E
:105A6000DB0478F147018A189B08640142E0C40E08
:105A7000D11C1296BC9012971396AC91B5E0CB1640
:105A8000D10440F0B282A38391828082D9018D93A8
:105A90009C9309C00E5F1F4F0E0D1F1DF90111834E
:105AA0000083EB2DFA2F6115710531F0DB011396A0
:105AB000FC93EE93129744C0F093F005E093EF054A
:105AC0003FC06D917C9111976616770608F43B01F3
:105AD000BD0112960D90BC91A02DB4CF6091ED0543
