:100000000C9459020C9488020C9488020C94880277
:100010000C9488020C9488020C9488020C94880238
:100020000C9488020C9488020C9488020C94880228
:100030000C9488020C9488020C9488020C94880218
:100040000C9488020C944B290C9488020C9488021E
:100050000C9488020C9488020C9488020C942F3320
:100060000C9488020C948A370C94C0370C94880244
:100070000C9488020C9488020C9488020C948802D8
:100080000C9479290C9488020C9488020C948802B0
:100090000C9488020C9488020C9488020C942B2FE8
:1000A0000C9488020C9488020C94A7290C94880262
:1000B0000C9488020C9488020C9488020C94D52924
:1000C0000C9488020C9488020C9488020C94880288
:1000D0000C9488020C9488020C9488020C94880278
:1000E0000C948802A5227022742278227C2280221D
:1000F000842288228C228E22932295229A229C226C
:10010000A122A52208310B31E530E530E830EB3093
:10011000EE30EE30F430F430F130F130F430F430D1
:100120000831F73088348D3492349C34A6341F352E
:10013000B034B834C034CA34D434DE34ED34F73497
:100140001F3501350B3515354135443533353735D8
:100150003D357B3548354C35523556355A35603549
:10016000643568357B356E35723576354572726F1C
:10017000723A20476F546F4C6F636174696F6E20E1
:1001800072657475726E656420736F6D65746869ED
:100190006E67206E6F742065787065637465642087
:1001A000666F722074686973207465737420727549
:1001B0006E2E000953746F726564203D20007363D6
:1001C000616C65466163746F725A203D200009536B
:1001D000746F726564203D20007369676D615A20F9
:1001E0003D20000953746F726564203D2000426910
:1001F00061735A203D20005072696E74696E6720E9
:1002000063616C63756C6174656420616E642073F6
:10021000746F7265642076616C7565732E2E2E0086
:100220005363616C6520466163746F72203D2000EA
:100230004D617820416E676C65203D2000446F6EF3
:10024000652100526F74617465206261636B207474
:100250006F207374617274696E6720706F73697454
:10026000696F6E2E005A3D20005369676D613A0038
:100270005A3D20004176657261676520426961736D
:100280003A00476574426C6F636B2829207265746D
:1002900075726E6564204241445F424C4F434B2E61
:1002A000005269676874204D6F746F7220637572B5
:1002B00072656E743A20004C656674204D6F746FE1
:1002C000722063757272656E743A20006D6F746F80
:1002D0007220647269766572206661756C7400457F
:1002E00052524F522D20496E76616C6964207072B3
:1002F0006F6772616D2063686F6963653A200009FA
:100300005363616C6520466163746F723A20000923
:100310005369676D613A2000426961733A20004673
:1003200061696C656420746F206175746F646574B5
:10033000656374206779726F207479706521000994
:10034000546F74616C203D200009426F74204C6929
:100350006E65203D20000943656E746572203D2066
:10036000000959203D2000536967203D2000455277
:10037000524F522D20496E76616C69642070726F05
:100380006772616D2063686F6963653A20000000E1
:100390000A0B02090C0D0E080703040100000000FF
:1003A000000000000000000000000000000000004D
:1003B000000000000000000000001211100000000A
:1003C000000000000000000000000000000000002D
:1003D000000000000102102020080810204010201A
:1003E00040800201020108040201010204081020F9
:1003F00040808040201008040201800402018040F7
:10040000201008040201080402010102040810205F
:1004100040800102040810204080050505050705FD
:1004200008080808020202020A0A08080404040470
:10043000010101010101010103030303030303039C
:10044000040707070C0C0C0C0C0C0C0C020202022B
:1004500006060606060606060B0B0B0B0B0B0B0B14
:10046000000020002300260029002C002F0032006D
:10047000000100000301060109010000220025001F
:1004800028002B002E00310034000201000005017D
:1004900008010B0100002100240027002A002D0084
:1004A0003000330001010000040107010A01492E58
:1004B000F43711241FBECFEFD1E2DEBFCDBF13E072
:1004C000A0E0B2E0E6E6F5E800E00BBF02C007906E
:1004D0000D92A43CB107D9F726E0A4ECB3E001C02B
:1004E0001D92A431B207E1F714E0C2EBD4E000E0C2
:1004F00006C022970109FE010BBF0E94973DCE3A2C
:10050000D10780E00807A9F70E943B380C94B1425C
:100510000C940000FC011182108213821282158259
:10052000148281E0808708950F931F93CF93DF9308
:10053000EC01088119818A819B810817190739F01C
:10054000F801819191918F010E944C38F4CF8881FC
:1005500099812C813D81281B390B35952795232BBB
:1005600031F0DF91CF911F910F910C94333EDF91C9
:10057000CF911F910F910895FC0181E04681578131
:10058000228133814217530709F080E00895FC016E
:10059000268137812E5F3F4F378326830895DC0104
:1005A0001696ED91FC911797808191810895CF93D4
:1005B000DF93EB01BC0182E090E00E945C30288177
:1005C0003981FC0131832083DF91CF910895CF934E
:1005D000DF93EC01CE010E949B3D009761F4E09116
:1005E000C403F091C503309721F480E090E00E94AD
:1005F000B1420995EFCFDF91CF9108950F931F93EB
:10060000CF93DF93EB018A01C81BD90BCE7FAE01DC
:10061000BC01C8010E94B93FC8018C0F9D1FDF912A
:10062000CF911F910F9108958F929F92AF92BF9299
:10063000CF92DF92EF92FF920F931F93CF93DF93AE
:1006400000D0CDB7DEB78C017A836983FC01E280EC
:10065000F38084819581E816F90669F0BE016F5F29
:100660007F4FC7010E94D702F801828193810296D1
:10067000938382834FC0F801808191816701C81AFA
:10068000D90AD594C794C114D10439F0FAE0CF0E39
:10069000D11CC114D10421F40AC0CC24C394D12CA0
:1006A000C601880F991F0E94E7025C0104C0C12C9B
:1006B000D12CA12CB12CA501B701F8018081918129
:1006C0000E94FE024C01BE016F5F7F4F0E94D70265
:1006D000A4014E5F5F4FF80162817381C7010E94E0
:1006E000FE027C01F8018081918124813581281BE3
:1006F000390B35952795232B11F00E94333EF801D5
:10070000B182A082F382E282CC0CDD1CCA0CDB1C1D
:10071000D582C482F8018085882329F010868081E3
:100720009181978386830F900F90DF91CF911F91D6
:100730000F91FF90EF90DF90CF90BF90AF909F9080
:100740008F900895AF92BF92CF92DF92EF92FF9277
:100750000F931F93CF93DF9300D0CDB7DEB75C012B
:100760008B016817790709F47CC0DB0112966D9143
:100770007C911397ED90FC90FB01EE19FF09F59524
:10078000E795DC014D915C91119714968D919C91A8
:100790001597841B950B959587956F01CC0CDD1CE7
:1007A0008E179F0748F5EF2B49F0C60169837A83BE
:1007B0000E94E7028C0169817A8102C000E010E0AA
:1007C000A801C7010E94FE02F50180819181248168
:1007D0003581281B390B35952795232B11F00E9465
:1007E000333ED50111961C930E930C0D1D1D1596CD
:1007F0001C930E9314972BC0D50112962D913C910A
:100800001397241B350B359527952E173F0710F0AE
:10081000C7011BC0B901660F771F6E0D7F1DC70191
:100820000E94FE02F50142815381D80112966D911A
:100830007C91139780819181FA01E81BF90BCF011C
:100840008E7F2D913C91820F931F0E94FE02D50155
:100850008D919C9111978C0D9D1D13969C938E9359
:100860001297C5010F900F90DF91CF911F910F91BB
:10087000FF90EF90DF90CF90BF90AF900895CF930F
:10088000DF93EC018617970751F0FB01808588877D
:10089000868197819F838E83CE010E94A203CE0121
:1008A000DF91CF910895833019F480E090E00895AE
:1008B00088E090E00895833019F481E090E0089595
:1008C00089E090E00895DF92EF92FF920F931F93DB
:1008D000CF93DF9300D0CDB7DEB77C01162FD42E97
:1008E0000E94AB2B00E02D2D412F682FCE010196E9
:1008F0000E947D2B4D2D612FCE010C960E94552C10
:10090000882329F061E0CE0101960E94722B81E0DC
:10091000F7014081518129813A814217530709F03B
:1009200080E00F900F90DF91CF911F910F91FF907A
:10093000EF90DF9008950F931F93CF93DF93EC0117
:100940008B010E94142BF801828193819B838A83FF
:1009500084818C83CE01DF91CF911F910F910895F7
:10096000BF92CF92DF92EF92FF920F931F93CF939C
:10097000DF9300D000D01F92CDB7DEB77C01DC0141
:1009800014962D913C911597862F992787FD909568
:1009900012960D90BC91A02D442321F0D62EF90182
:1009A000C08003C0DC90C62ED9012C91821B910916
:1009B00097FF03C0919581959109B82E4C2D6D2D0F
:1009C000F701808591850E94622C182F811102C049
:1009D00011E09EC01B1484F4D7011E96ED91FC918A
:1009E0001F9720814C2D6D2D18968D919C911997F4
:1009F0000E94372C8111ECCFD7011696ED91FC9116
:100A0000179720814C2D6D2D18968D919C911997DB
:100A10000E94372C811178C0BB2009F478C0D7011F
:100A20001696ED91FC9117978081813091F028F016
:100A30008230E1F0833039F16AC0B6E0BC150CF4C5
:100A400066C0D7011E96ED91FC911F97208141E071
:100A500017C0B6E0BD150CF45AC0D7011E96ED9133
:100A6000FC911F9720814C2D61E018C01C140CF0E4
:100A70004EC0D7011E96ED91FC911F9720814FEF3C
:100A80004C0D6D2D0CC01D140CF041C0D7011E96ED
:100A9000ED91FC911F9720814C2D6FEF6D0D1896F5
:100AA0008D919C9119970E94372C882381F1D70151
:100AB000ED91FC9100E02C2D4D2D6081CE01019631
:100AC0000E947D2BD7011A96ED91FC911B97808196
:100AD0000E945B049C838B836B2D772767FD709549
:100AE000872F972F0E94C93B9B01AC010E947D3C40
:100AF0000E949B3B6D83BE016F5F7F4FF701848532
:100B000095850E949B0404C0BB2011F0D0CF10E05B
:100B1000812F0F900F900F900F900F90DF91CF913A
:100B20001F910F91FF90EF90DF90CF90BF900895AD
:100B3000BF92CF92DF92EF92FF920F931F93CF93CA
:100B4000DF9300D000D01F92CDB7DEB77C01DC016F
:100B500014962D913C911597862F992787FD909596
:100B600012960D90BC91A02D442321F0D62EF901B0
:100B7000B08003C0DC90B62ED9012C91821B910964
:100B800097FF03C0919581959109182F4B2D6D2DDD
:100B9000F701808591850E94622CC82ED701189696
:100BA0008D919C9119974B2D6D2DC1102AC00E94DB
:100BB000552C882309F49DC0D701ED91FC9100E0EC
:100BC0002B2D4D2D6081CE0101960E947D2BD701EA
:100BD0001A96ED91FC911B978081833019F422E8DD
:100BE00030E002C02AE830E03C832B831F5F1D8386
:100BF000BE016F5F7F4FF701848595850E949B043E
:100C000078C00E94552CD701ED91FC918823B1F05A
:100C100000E02B2D4D2D6081CE0101960E947D2B91
:100C2000D7011A96ED91FC911B978081833019F4BE
:100C300022E830E051C02AE830E04EC020814B2D40
:100C40006D2DD70118968D919C9119970E94372C84
:100C5000D7018823C1F0ED91FC9100E02B2D4D2DA3
:100C60006081CE0101960E947D2BD7011A96ED91ED
:100C7000FC911B978081833019F422E030E02CC076
:100C80002AE030E029C01696ED91FC91179720815B
:100C90004B2D6D2D18968D919C9119970E94372C94
:100CA00081112AC0112349F1D701ED91FC9100E097
:100CB0002B2D4D2D6081CE0101960E947D2BD701F9
:100CC0001A96ED91FC911B978081833019F422E4F0
:100CD00030E002C02AE430E03C832B831F5F1D8399
:100CE000BE016F5F7F4FF701848595850E949B044D
:100CF00004C0CC24C39401C0C12C8C2D0F900F9044
:100D00000F900F900F90DF91CF911F910F91FF9057
:100D1000EF90DF90CF90BF900895CF92DF92EF9247
:100D2000FF920F931F93CF93DF9300D000D000D09A
:100D3000CDB7DEB77C01142F69010E94AB2B082FC1
:100D4000C7010E94BD2B482FC7014E830E94CF2BA5
:100D50004E81133039F4002319F06FEF600F05C096
:100D600063E003C061E0600F63709E012F5F3F4F3F
:100D7000790195E0F90111929A95E9F791E09D8347
:100D800000E0282FC7010E947D2B812F0E94530471
:100D90009C838B83B701C6010E949B0481E0269649
:100DA0000FB6F894DEBF0FBECDBFDF91CF911F917C
:100DB0000F91FF90EF90DF90CF9008958F929F92C8
:100DC000AF92BF92CF92DF92EF92FF920F931F9359
:100DD000CF93DF9300D000D01F92CDB7DEB78C0148
:100DE0007B016A010E94AB2B882EC8010E94BD2B9B
:100DF000A82EC8010E94CF2B982E482F6A2DC7011C
:100E00000E94552CB82E882329F0C8010E94E12B9E
:100E1000882311F0B12C17C0CE0101967C0185E02A
:100E2000F70111928A95E9F701E0292D4A2D682DE5
:100E3000C7010E947D2B23E030E03C832B83B70168
:100E4000C6010E949B048B2D0F900F900F900F9066
:100E50000F90DF91CF911F910F91FF90EF90DF9056
:100E6000CF90BF90AF909F908F9008950F931F9356
:100E7000CF93DF93EC018B010E940A2BF801828152
:100E800093819B838A8384818C83DF91CF911F918F
:100E90000F910895CF92DF92EF92FF920F931F93DD
:100EA000CF93DF93CDB7DEB76B970FB6F894DEBF65
:100EB0000FBECDBF7C016B014B8F89010E94AB2B14
:100EC0008A8FC7010E94BD2B898FC7010E94CF2B3B
:100ED000888F9B8D8A8D933031F4882311F0815057
:100EE00004C083E002C08F5F83708F8B913019F450
:100EF0008F5F837005C0882311F0815001C083E0AB
:100F00008E8BCE014A969A83898301979C838B832B
:100F100001979E838D83019798878F83DA86C98690
:100F200004969C878B871E870D870597988B8F87E4
:100F3000B80105970E9436078A8D8130A9F030F0FC
:100F4000823001F18330B1F5F98C32C0F88C87E042
:100F50008F1584F140E06F2DCE0101960E94B00400
:100F6000811128C0F394F3CFF98CE7E0EF1514F169
:100F700041E06F2DCE0101960E94B00481111AC08C
:100F8000F394F3CFF88CF7FC15C040E06F2DCE0141
:100F900001960E94B00481110DC0FA94F4CF41E093
:100FA0006F2DCE0101960E94B004811103C0FA9406
:100FB000F7FEF5CF81E0F8014081518129893A8916
:100FC0004217530709F480E06B960FB6F894DEBF22
:100FD0000FBECDBFDF91CF911F910F91FF90EF908A
:100FE000DF90CF900895CF92DF92EF92FF920F9310
:100FF0001F93CF93DF93CDB7DEB768970FB6F89402
:10100000DEBF0FBECDBF7C016B01488F89010E94FE
:10101000AB2B8F8BC7010E94BD2B8E8BC7010E940B
:10102000CF2B8D8B988D8F89933031F4882311F0DD
:10103000815004C083E002C08F5F83708C8BCE012F
:1010400047969A83898301979C838B8301979E831C
:101050008D83019798878F83DA86C98604969C874B
:101060008B871E870D87B80109970E9436078F89E5
:101070008130A9F030F0823001F18330B1F5FE8883
:1010800032C0FD8887E08F1584F140E06F2DCE01DE
:1010900001960E949805811128C0F394F3CFFE8831
:1010A000E7E0EF1514F141E06F2DCE0101960E94AB
:1010B000980581111AC0F394F3CFFD88F7FC15C091
:1010C00040E06F2DCE0101960E94980581110DC060
:1010D000FA94F4CF41E06F2DCE0101960E9498055D
:1010E000811103C0FA94F7FEF5CF81E0F801408149
:1010F00051812F8538894217530709F480E068969B
:101100000FB6F894DEBF0FBECDBFDF91CF911F9118
:101110000F91FF90EF90DF90CF900895EF92FF92A4
:101120000F931F93CF93DF93CDB7DEB7E82EF62E44
:101130008A01CA010E94BD2B2E2D30E0281B3109E7
:10114000C8011216130624F40E94BD2BE81A04C02D
:101150000E94BD2B8E19E82EC8010E94CF2B2F2D87
:1011600030E0281B3109C801121613062CF40E9426
:10117000CF2BF81A8F2D03C00E94CF2B8F198E0D05
:10118000DF91CF911F910F91FF90EF900895FC0197
:101190008081918124813581281B390B35952795D4
:1011A000232B11F00C94333E0895CF93DF93EB0182
:1011B000BC0185E090E00E945C30BE01DF91CF91E0
:1011C0000C943607CF93DF93EB01BC0182E090E0F3
:1011D0000E945C3028813981FC0131832083DF91BA
:1011E000CF910895009721F0880F991F0C94E70282
:1011F00080E090E008956F927F928F929F92AF92DD
:10120000BF92CF92DF92EF92FF920F931F93CF93F3
:10121000DF93EC016817790709F47AC0FB01A2801B
:10122000B380008111817501E01AF10AF594E79409
:101230006701E881F9818C819D818E1B9F0B9595BB
:1012400087958E159F0538F5C7010E94F2084C015D
:101250003C010A151B0551F0B801C3010E94E208C8
:101260000E5F1F4FF2E06F0E711CF3CF88819981E2
:101270002C813D81281B390B35952795232B11F0A7
:101280000E94333E99828882CC0CDD1CC80CD91C8C
:10129000DD82CC8235C08A809B80C4018E1B9F0B6F
:1012A000959587958E159F0560F0D8011C141D0437
:1012B0003CF58D919D918193919381E0C81AD1085D
:1012C000F5CF880F991F6801C80ED91E959587958F
:1012D000D8011816190634F42D913D9121933193BC
:1012E0000197F7CFCA14DB0459F0B601C4010E947C
:1012F000E208E2E0CE0ED11CF2E08F0E911CF2CF9C
:10130000EE0CFF1C888199818E0D9F1D9B838A8323
:10131000CE01DF91CF911F910F91FF90EF90DF9061
:10132000CF90BF90AF909F908F907F906F900895D7
:10133000CF92DF92EF92FF920F93CF93DF9300D083
:101340001F92CDB7DEB76C017A012B8369837A8354
:101350000E94A22BF6011382128215821482178238
:10136000168269817A81C6010E94142BB701C601D9
:1013700002960E94FB082B81F6012087200F21870F
:101380000F900F900F90DF91CF910F91FF90EF9002
:10139000DF90CF9008950F931F93CF93DF93EC01CD
:1013A0008B010E94142BB8016E5F7F4FCE01029615
:1013B0000E94FB08F8018085888781858987CE0196
:1013C000DF91CF911F910F910895BF92CF92DF923D
:1013D000EF92FF920F931F93CF93DF938C017A01CB
:1013E0006901EB012197D7FDEB01D595C7955AE02F
:1013F000B52EE616F706A4F02AE0269FC001279F27
:10140000900D1124B601800F911FDF91CF911F9194
:101410000F91FF90EF90DF90CF90BF900C94CB098D
:10142000BC9ED001BD9EB00D1124A00FB11F199616
:101430009C911997F60181858917F0F6B69EC00137
:10144000B79E900D1124BD01800F911F0E94CB0902
:10145000CE01019797FDCE01BE01EC01D595C79550
:10146000C8CFAF92BF92CF92DF92EF92FF920F93CD
:101470001F93CF93DF93EC016B01FB01E280F380BC
:1014800080819181E81AF90AF594E794198218820B
:101490001B821A821D821C82C7010E94F2088C01E5
:1014A000998388839B838A83EE0CFF1CE80EF91EC8
:1014B000FD82EC82F601A280B380E080F180EA1424
:1014C000FB0451F0B701C8010E94E208F2E0EF0E00
:1014D000F11C0E5F1F4FF3CF1B830A83DF91CF9167
:1014E0001F910F91FF90EF90DF90CF90BF90AF9042
:1014F00008950F931F93CF93DF93EC018B010E940C
:101500000A2BB8016E5F7F4FCE0102960E94310A0E
:10151000F8018085888781858987DF91CF911F9128
:101520000F910895CF93DF93EB01BC018AE090E027
:101530000E945C30BE01DF91CF910C94790A2F920A
:101540003F924F925F926F927F928F929F92AF9253
:10155000BF92CF92DF92EF92FF920F931F93CF93A0
:10156000DF93CDB7DEB727970FB6F894DEBF0FBE77
:10157000CDBF8C017B014A01FC01828193812481D2
:10158000358182179307C1F1BC01655071090E9432
:10159000D508F80182819381059693838283B401F3
:1015A000CE0101960E943607F801828193818C0159
:1015B000055011090A978E199F092DEC3CEC829F6A
:1015C0006001839FD00C929FD00C11241C141D0429
:1015D00064F4B8016A50710905501109C8010E94EC
:1015E0009B04F1E0CF1AD108F1CFBE016F5F7F4FAE
:1015F000C7010E949B0486C0F80120813181821BB3
:10160000930B2DEC3CEC829F5001839FB00C929F7A
:10161000B00C1124A114B10439F0FAE0AF0EB11CE2
:10162000A114B10421F40EC0AA24A394B12C85E026
:10163000282F2A9DC0012B9D900D11240E94E702A6
:101640006C0104C0A12CB12CC12CD12CF80120803C
:101650003180260131016E147F0459F0B301C201BB
:101660000E94D508F5E06F0E711C25E0420E511C5A
:10167000F2CFFF82EE822701421853084C0C5D1C0A
:10168000B401C2010E94D50885E0480E511CF80142
:10169000628073804201E614F70459F0B701C40177
:1016A0000E94D508F5E0EF0EF11C25E0820E911C9A
:1016B000F2CF8E819F81E81AF90AE40CF51CF8013B
:1016C0008081918124813581281B390B6DEC7CEC64
:1016D000269FA001279F500D369F500D1124452BAA
:1016E00011F00E94333EF801D182C082F382E2827F
:1016F00025E02A9DC0012B9D900D11248C0D9D1D70
:101700009583848327960FB6F894DEBF0FBECDBFB6
:10171000DF91CF911F910F91FF90EF90DF90CF90CD
:10172000BF90AF909F908F907F906F905F904F9001
:101730003F902F900895CF93DF93EC018A819B8196
:101740002C813D818217930751F00E94D5088A8130
:101750009B8105969B838A83DF91CF910895AB018E
:10176000BC01CE01DF91CF910C949F0AEF92FF92C2
:101770000F931F93CF93DF9300D000D01F92CDB76C
:10178000DEB78C017B01FC01118210821382128270
:1017900015821482CE0101960E94A22B1C821B820C
:1017A000C7010E94E12B811178C0AE014F5F5F4FEE
:1017B000BE01625F7F4FC7010E94DE06882339F0B9
:1017C000BE016F5F7F4FC8010E949B0B66C09E01E8
:1017D0002F5F3F4F41E0BE01625F7F4FC7010E9414
:1017E0008D06882331F0BE016F5F7F4FC8010E94D4
:1017F0009B0B9E012F5F3F4F43E0BE01625F7F4F17
:10180000C7010E948D06882331F0BE016F5F7F4FB4
:10181000C8010E949B0B9E012F5F3F4F41E0BE011C
:10182000625F7F4FC7010E94F307882331F0BE013A
:101830006F5F7F4FC8010E949B0B9E012F5F3F4F40
:1018400043E0BE01625F7F4FC7010E94F307882318
:1018500031F0BE016F5F7F4FC8010E949B0B9E015C
:101860002F5F3F4F41E0BE01625F7F4FC7010E9483
:101870004A07882331F0BE016F5F7F4FC8010E9485
:101880009B0B9E012F5F3F4F43E0BE01625F7F4F86
:10189000C7010E944A07811193CFC8010F900F9092
:1018A0000F900F900F90DF91CF911F910F91FF90AC
:1018B000EF9008954F925F926F927F928F929F92D6
:1018C000AF92BF92CF92DF92EF92FF920F931F934E
:1018D000CF93DF93CDB7DEB72A970FB6F894DEBF6C
:1018E0000FBECDBF8C017B014A01FC018281938137
:1018F000248135818217930709F43FC0BC016A50E7
:1019000071090E94920AF801828193810A96938359
:101910008283B401CE0101960E94790AF8012281E6
:10192000338189010A501109245131092E193F09C7
:10193000359527958DEC9CEC289F6001299FD00C54
:10194000389FD00C11241C141D0464F4B801645198
:1019500071090A501109C8010E94CB09F1E0CF1AA0
:10196000D108F1CFBE016F5F7F4FC7010E94CB0945
:10197000CE0103960E94C70888C0F80120813181FA
:10198000821B930B959587952DEC3CEC829F300143
:10199000839F700C929F700C11246114710439F0B4
:1019A000FAE06F0E711C6114710421F40EC06624FC
:1019B0006394712C8AE0282F269DC001279D900DED
:1019C00011240E94E7026C0104C0612C712CC12C0F
:1019D000D12CF80140805180C6019C01265F3F4F09
:1019E00059014E145F0441F0B2010E94920AFAE0DC
:1019F0004F0E511CC501F1CFB4010E94920AF801AB
:101A000082809380E814F90459F0B701C5010E945F
:101A1000920AFAE0EF0EF11C2AE0A20EB11CF2CFFE
:101A2000F80182809380E080F180E814F90441F0AD
:101A3000C70102960E94C708FAE0EF0EF11CF5CF2D
:101A4000F8018081918124813581281B390B3595DE
:101A500027956DEC7CEC269FA001279F500D369FAB
:101A6000500D1124452B11F00E94333EF801D18214
:101A7000C082B382A2822AE0269DC001279D900DDC
:101A800011248C0D9D1D958384832A960FB6F8949E
:101A9000DEBF0FBECDBFDF91CF911F910F91FF90A1
:101AA000EF90DF90CF90BF90AF909F908F907F90FE
:101AB0006F905F904F900895EF92FF920F931F9356
:101AC000CF93DF93CDB7DEB72A970FB6F894DEBF7A
:101AD0000FBECDBF8C01FC018281938124813581B1
:101AE0008217930749F00E94920AF801828193813C
:101AF0000A969383828305C0AB01BC01C8010E9492
:101B00005A0CF801E280F38000811181B7016A501C
:101B10007109CE0101960E94790A9701201B310BB1
:101B2000359527958DEC9CEC289FB001299F700D71
:101B3000389F700D1124615071099E012F5F3F4F36
:101B400040E050E0C8010E94E509CE0103960E94E2
:101B5000C7082A960FB6F894DEBF0FBECDBFDF913F
:101B6000CF911F910F91FF90EF9008952F923F9288
:101B70004F925F926F927F928F929F92AF92BF929D
:101B8000CF92DF92EF92FF920F931F93CF93DF9349
:101B9000CDB7DEB7C255D1090FB6F894DEBF0FBE80
:101BA000CDBF7C012E966FAF2E972F964FAF2F97FC
:101BB0008901CE01805C9F4F0E946F2C1CAA1BAA3A
:101BC0001EAA1DAA18AE1FAA1A8219821C821B8285
:101BD0001E821D82B801CE010B960E940A2B00E0E6
:101BE00020E0AE014F5F5F4FBE01655F7F4FCE01CA
:101BF00089960E949809CE0101960E94C708BE01ED
:101C0000675D7F4FCE01C3960E945C0D96E4292E3E
:101C1000312C2C0E3D1E22E0220E311C6BA97CA91A
:101C20008DA99EA96817790709F407C2CE014F96BE
:101C30000E94790ACBA8DCA80DA91EA90A50110997
:101C4000B801CE0145960E94790AB601C8010E94EA
:101C5000CB09BE016B5E7F4FCE010B960E94790AC5
:101C60000C191D09159507958DEC9CEC089F4001FA
:101C7000099F900C189F900C112402E010E0A12CF9
:101C8000B12C8AE0782E081519053CF5709EF001FC
:101C9000719EF00D1124EC0DFD1DDF011A97918549
:101CA00019968C91891710F401501109709EB0019A
:101CB000719E700D11246C0D7D1D7A9CC0017B9C62
:101CC000900D11248C0D9D1D0E94CB09C801019619
:101CD00058018C01000F111FD6CF08151905B9F452
:101CE0002AE0209FB001219F700D11246A507109D4
:101CF0006C0D7D1D2A9DC0012B9D900D11248C0D16
:101D00009D1D0E94CB09580131E0A31AB108BE0104
:101D1000655F7F4FCE0101960E94790A9E012F5F79
:101D20003F4F40E050E0B501C6010E94E5098E0139
:101D30000D5F1F4FC8010E94C708CE010D960E947B
:101D4000C708CE0147960E94C7088DA99EA99C018D
:101D50002A5031093EAB2DAB08970E94C708BE013F
:101D6000615E7F4FCE0101960E940A2B8DB79EB710
:101D7000805491090FB6F8949EBF0FBE8DBFADB7CA
:101D8000BEB7119680E4FE01E959FF4F01900D9214
:101D90008A95E1F72F964FAD2F972E966FAD2E9720
:101DA000CE0101960E9463040FB6F894DEBF0FBE09
:101DB000CDBFBE01882351F06F5D7F4FC7010E94E8
:101DC000310ACE0181960E94C7083EC1615E7F4FF5
:101DD000CE01805C9F4F0E94512D882309F428C1B9
:101DE000BE01615E7F4FCE0101960E940A2B2DB786
:101DF0003EB7205431090FB6F8943EBF0FBE2DBF39
:101E0000ADB7BEB7119680E4FE01E959FF4F0190CE
:101E10000D928A95E1F7BE016F5F7F4FCE01CA96A2
:101E20000E94B60B4AAC5BAC8CAD9DAD61969FAF8A
:101E30008EAF61970FB6F894DEBF0FBECDBF62962E
:101E40000FAF629763961FAF639761968EAD9FAD9C
:101E500061974816590609F4D8C0B201CE018A5BD1
:101E60009F4F0E943607BE016F5D7F4FCE014596A2
:101E70000E94310A0F89188D898D9A8D08171907CC
:101E800051F0B101C8010E94E2088F89988D029635
:101E9000988F8F8B52C08D899E896801C81AD90A84
:101EA000D594C794C114D10421F0FAE0CF0ED11C0F
:101EB00003C0CC24C394D12CC6010E94F2084C016B
:101EC0006D887E885C016016710659F0B301C5010A
:101ED0000E94E20822E0620E711C32E0A30EB11CE7
:101EE000F2CFB101C5010E94E20882E0A80EB11C48
:101EF0006F88788C0615170551F0B801C5010E944E
:101F0000E2080E5F1F4F92E0A90EB11CF3CF8D893E
:101F10009E89298D3A8D281B390B35952795232BC2
:101F200011F00E94333E9E8A8D8AB88EAF8ACC0C07
:101F3000DD1CC80CD91CDA8EC98E8FA12B96CFACB4
:101F40002B97D12CC80ED11CBE016A5B7F4FCE01EE
:101F500001960E940A2BEDB7FEB7E054F1090FB6C7
:101F6000F894FEBF0FBEEDBFADB7BEB71196FE0130
:101F7000E959FF4F80E401900D928A95E1F7AE0197
:101F80004F5F5F4F2F966FAD2F972E968FAD2E9789
:101F90000E948E08082F0FB6F894DEBF0FBECDBF8B
:101FA000BE016B5E7F4FCE010B960E94310ABE01CF
:101FB0006A5B7F4FCE01855B9F4F0E940A2B2C2DC1
:101FC000AE01455F5F4FBE01655B7F4FCE0101965D
:101FD0000E949809CE010B960E94C708BE016F5F50
:101FE0007F4FCE01C3960E945C0D62968FAD6297C3
:101FF00063969FAD63970E94C708CE0145960E94E5
:10200000C70835E0430E511C20CF8AAD9BAD2EADE5
:102010003FAD281B390B6DEC7CEC269FA001279F60
:10202000500D369F500D1124452B11F00E94333E68
:10203000CE0181960E94C708F1CDF701118210826E
:102040001382128215821482CE018B960E94C708D9
:10205000CDA8DEA80BA91CA90C151D0539F0C801D7
:1020600002960E94C708065F1F4FF6CF8BA99CA956
:102070002FA938AD281B390B359527956DEC7CECD5
:10208000269FA001279F500D369F500D1124452BF0
:1020900011F00E94333E22968EAD9FAD2297269678
:1020A0002EAD3FAD2697281B390B35952795232B51
:1020B00011F00E94333EC701CE5ADF4F0FB6F8949D
:1020C000DEBF0FBECDBFDF91CF911F910F91FF906B
:1020D000EF90DF90CF90BF90AF909F908F907F90C8
:1020E0006F905F904F903F902F900895CF93DF9324
:1020F000EC01E881F981EA5BFF4F808191810E94C8
:10210000EF1A88819981FC01E95AFF4F10823196BC
:1021100021E02083359611821082DF91CF910895BE
:1021200086EC93E00C9494022F923F924F925F9230
:102130006F927F928F929F92AF92BF92CF92DF92D7
:10214000EF92FF920F931F93CF93DF93CDB7DEB73C
:102150002D970FB6F894DEBF0FBECDBF4C015B01CB
:102160007A010E948A02F7010280F381E02DFD8747
:10217000EC87F701208031803501F2E06F0E711C91
:102180004C855D852416350609F4CFC0F101E19038
:10219000F1901F01E2FACC24C0F8D12CCC0CDD1C4C
:1021A000E1FAFF27F0F9FE831F824E815F81C40EA2
:1021B000D51ECC0CDD1CC70181709927C80ED91E15
:1021C000E3FE02C011E001C013E0CE0101960E94BF
:1021D000A22B1C821B82C114D104B9F49E012F5F73
:1021E0003F4F412FB301C5010E948D06882341F264
:1021F00087E090E00E944A387C01212FAE014F5FBA
:102200005F4FB5010E94CC168BC051E0C516D104BA
:10221000C1F49E012F5F3F4F412FB301C5010E94C2
:102220004A07882309F4ACCF87E090E00E944A383F
:102230007C01212FAE014F5F5F4FB5010E94A816B0
:102240006FC082E0C816D10409F050C09E012F5F14
:102250003F4F412FB301C5010E94F307882309F4C2
:102260008FCF89E090E00E944A382C019701232FFC
:1022700033272695269522703327C701892F992762
:102280008695869581709927280F391F220F331F55
:10229000C701892F9927869581709927280F391FA3
:1022A0008F2D992781709927880F991FE7FAEE27BC
:1022B000E0F9E887198648855985840F951F880FAE
:1022C000991FE6FA552750F95A871B86EA85FB8540
:1022D0008E0F9F1FE22E082F212FAE014F5F5F4F01
:1022E000B501C2010E948A16B2011BC0F3E0CF16ED
:1022F000D10409F045CFAE014F5F5F4FB301C50177
:102300000E94DE06882309F43BCF86E090E00E941D
:102310004A387C01AE014F5F5F4FB5010E94C01685
:10232000B701C4010E9414032BCFC4012D960FB630
:10233000F894DEBF0FBECDBFDF91CF911F910F91FB
:10234000FF90EF90DF90CF90BF90AF909F908F90D5
:102350007F906F905F904F903F902F9008958F9255
:102360009F92AF92BF92CF92DF92EF92FF920F9324
:102370001F93CF93DF93CDB7DEB7C854D1090FB603
:10238000F894DEBF0FBECDBF7C016E0181E4C80EA4
:10239000D11CD6010C9323961FAF239724962FAF01
:1023A000249725963FAF259726964FAF26972796D9
:1023B0005FAF279728966FAF289729967FAF299709
:1023C000C7010E94A22B5701B2E0AB0EB11CC501A0
:1023D0000E94E52BF701E65BFF4F6B968CAD9DAD40
:1023E000AEADBFAD6B9780839183A283B3833496E8
:1023F0006F968CAD9DADAEADBFAD6F978083918371
:10240000A283B3833496A3964CAD5DAD6EAD7FAD24
:10241000A39740835183628373833496A4968FADD0
:10242000A49780837497D6018D919C91918380832A
:10243000329625968EAD9FAD2597918380833296F7
:1024400027968EAD9FAD27979183808332962996EC
:102450008EAD9FAD2997918380833F9610823196F0
:1024600081E080833196108211821282138200E013
:10247000A7962FADA797A6964FADA697A5966FAD39
:10248000A597FE0131964F01CF010E947D2BB4012B
:10249000C7010E94142BBE0169597F4FC4010E94DD
:1024A000092C982D892DE92FF82FCF010896D501F9
:1024B00021912D93E817F907D9F788E0A80EB11CF0
:1024C000EC15FD0519F09E2F8F2FEDCFC85BDF4F68
:1024D0000FB6F894DEBF0FBECDBFDF91CF911F9135
:1024E0000F91FF90EF90DF90CF90BF90AF909F90B3
:1024F0008F9008952F923F924F925F926F927F92AA
:102500008F929F92AF92BF92CF92DF92EF92FF9203
:102510000F931F93CF93DF93CDB7DEB72F970FB6EF
:10252000F894DEBF0FBECDBF4C016F87142F9C0106
:102530002C5B3F4F7901633061F460E070E0F9019A
:10254000808191810E9423262B013C0162E070E092
:102550000BC061E070E0F901808191810E94232627
:102560002B013C0163E070E0F701808191810E94C2
:1025700023266B017C019E868D86F12FF4703F2E01
:1025800012FF12C0F401EE5BFF4F808191810E9427
:102590008D24F401EE5AFF4F208131814281538115
:1025A0000E942A3B87FD6AC0212F2170322E10FF26
:1025B00034C0540137E5A30EB11CF50180818111AF
:1025C0001BC03D972081318142815381C301B201FB
:1025D0000E94793C181684F4F501308231963082DD
:1025E0007097808191810E943825F401E75AFF4F4E
:1025F0006083718382839383F5018081882369F0EE
:10260000F401E65BFF4F2081318142815381C70194
:10261000B6010E94793C18168CF1F12FF2703F2E12
:1026200011FF33C0540122E4A20EB11CF5016081F8
:102630007181CE0101960E949927C980DA80EB80D2
:10264000FC800D811E812F81388549855A856B85D7
:102650007C85F501808191810E949A23F401E35ADF
:10266000FF4F882381F0808191810196918380833F
:102670003797208130E0821793073CF0CE010D960A
:102680000E9476105FC0118210828401085A1F4F89
:10269000F801808194012A5B3F4F1901882339F0AA
:1026A000F901808191810E94BC19F8011082F40126
:1026B000E95AFF4F8081882371F032964081518121
:1026C0006281738100E010E09801F10180819181C5
:1026D0000E94BA1B36C0F401E25BFF4F2F85213008
:1026E000A1F440815181628173811F921F921F92D8
:1026F0001F92812C912C5401C12CD12C90E8E92EF1
:102700009FE3F92E9301820113C000811181228180
:1027100033811F921F921F921F92812C912C540182
:10272000C12CD12C80E8E82E8FE3F82EB301A20152
:10273000F101808191810E94D0190F900F900F902C
:102740000F90312C832D2F960FB6F894DEBF0FBE5D
:10275000CDBFDF91CF911F910F91FF90EF90DF9050
:10276000CF90BF90AF909F908F907F906F905F9031
:102770004F903F902F9008952F923F925F926F92CB
:102780007F928F929F92AF92BF92CF92DF92EF9201
:10279000FF920F931F93CF93DF93CDB7DEB7609770
:1027A0000FB6F894DEBF0FBECDBF5C011C0188E5FB
:1027B000280E311CF1018081882339F072978081C5
:1027C00091810E94BC19F10110823501F2E46F0E73
:1027D000711CF30160817181CE0101960E949927DD
:1027E000C980DA80EB80FC800D811E812F813885C5
:1027F00049855A856B857C85F301808191810E9492
:102800009A23582E811102C0512C3EC06B817C81CD
:1028100080E090E00E94C73B6D877E878F87988B12
:10282000F301808191810E94BB24BC01882777FD40
:102830008095982F0E94C93BAB01BC01F501EA5B72
:10284000FF4F1F921F921F921F92812C912C5401B7
:10285000C12CD12C20E8E22E2FE3F22E0D851E850F
:102860002F853889808191810E94D019F301808160
:1028700091810E94AF240F900F900F900F908823AA
:1028800019F281E0F1018083852D60960FB6F894EE
:10289000DEBF0FBECDBFDF91CF911F910F91FF9093
:1028A000EF90DF90CF90BF90AF909F908F907F90F0
:1028B0006F905F903F902F9008954F925F926F922C
:1028C0007F928F929F92AF92BF92CF92DF92EF92C0
:1028D000FF920F931F93CF93DF93EC018C010C5B5E
:1028E0001F4F633061F460E070E0F80180819181F6
:1028F0000E9423262B013C0162E070E00BC061E0E6
:1029000070E0F801808191810E9423262B013C0117
:1029100063E070E0F801808191810E9423264B01E1
:102920005C018E01085A1F4FF8018081882361F0F5
:102930007097808191810E943825FE01E75AFF4FF0
:1029400060837183828393837E01F7E5EF0EF11C30
:10295000F701808181110EC03D9720813181428134
:102960005381C301B2010E942A3B87FF03C081E06B
:10297000F7018083F7017080CE018A5B9F4F6C0165
:102980007720C1F0FE01E65BFF4F2081318142815B
:102990005381C501B4010E942A3B87FF0BC0F60199
:1029A000808191810E94EF1AF701108281E0F80185
:1029B00080831AC0F8018081882339F0F601808174
:1029C00091810E94BC19F8011082C75ADF4F4881DB
:1029D00059816A817B8100E010E09801F6018081D5
:1029E00091810E94BA1B712C872DDF91CF911F918D
:1029F0000F91FF90EF90DF90CF90BF90AF909F909E
:102A00008F907F906F905F904F9008958A5B9F4F5B
:102A1000FC01808191810C94F81AAF92BF92CF9201
:102A2000DF92EF92FF920F931F93CF93DF93CDB777
:102A3000DEB766970FB6F894DEBF0FBECDBF7C0140
:102A4000162F8091CF0381110DC086EC93E04E8B41
:102A50000E948A0281E08093CF0380E990E10E9486
:102A600037384E8980910A02882309F49AC0B70149
:102A7000CE0101964E8B0E940A2B8DB79EB78054D3
:102A800091090FB6F8949EBF0FBE8DBFADB7BEB70C
:102A9000119680E4F701329601900D928A95E1F744
:102AA0009E012F5F3F4F4E89612FCE0140960E94BD
:102AB000B60D2A893B8988899989281B390B359558
:102AC00027951B861A861D861C861F861E860FB6B6
:102AD000F894DEBF0FBECDBF6901CC0CDD1C232BEB
:102AE00091F0C6010E949B3D8C01009771F4E0912A
:102AF000C403F091C503309721F480E090E00E9478
:102B0000B1420995EECF00E010E01B870A871D87D0
:102B10000C87C00ED11EDF86CE86AA88BB88C888E7
:102B2000D988CA14DB0479F0B80182E090E00E94F1
:102B30005C30F601219131916F01FC0131832083DA
:102B40000E5F1F4FEECF1D870C87AE01465F5F4FB4
:102B5000B701CE0101960E949410BE016F5F7F4FB6
:102B600086EC93E00E943F04CE0101960E949402FD
:102B7000CE010A960E94C70810920A0286EC93E0E2
:102B80000E94BC02882349F081E080930A02CE01B2
:102B900040960E94C70888E024C0CE0140960E945B
:102BA000C70886EC93E00E94BC02882329F081E0EC
:102BB00080930A0280E115C086EC93E00E94CF0268
:102BC0000E946E16009761F08031910529F486EC21
:102BD00093E00E94C70204C021E020930A0202C0D1
:102BE00080E090E066960FB6F894DEBF0FBECDBFD2
:102BF000DF91CF911F910F91FF90EF90DF90CF90D9
:102C0000BF90AF900895CF93DF93EC014F818885FB
:102C1000482B6E818C819D810E947A12882351F00D
:102C20009885982319F0282F30E009C09F819823B8
:102C300021F406C020E030E002C020E130E0C9010C
:102C4000DF91CF910895FC016681848195810E9476
:102C50005D14882319F080E190E0089580E090E011
:102C60000895FC01848195810E94BC13882319F08A
:102C700080E190E0089580E090E00895FC01668195
:102C8000848195810E940615882319F080E190E0E7
:102C9000089580E090E00895CF92DF92EF92FF9246
:102CA0000F931F93CF93DF938C016B017A01EC019B
:102CB0008BE992E089939993CE010E94A22BF801AF
:102CC000D582C482B701CE01DF91CF911F910F91C0
:102CD000FF90EF90DF90CF900C94142B0F931F93E5
:102CE000CF93DF93EC01E881F9810190F081E02D31
:102CF00009958C018031910539F4BE016E5F7F4FDB
:102D00008C819D810E94142BC801DF91CF911F916E
:102D10000F910895CF92DF92EF920F93CF93DF93AD
:102D20001F92CDB7DEB76C0129830E944C1681EA51
:102D300092E0F60191838083298126830783E086D0
:102D40000F90DF91CF910F91EF90DF90CF9008958A
:102D50000F931F93CF93DF931F92CDB7DEB78C01F4
:102D600029830E944C1687EA92E0F80191838083C0
:102D7000298126830F90DF91CF911F910F910895A4
:102D8000CF93DF93EC010E944C168DEA92E0998379
:102D90008883DF91CF9108950F931F93CF93DF9393
:102DA0001F92CDB7DEB78C0129830E944C1683EBAE
:102DB00092E0F80191838083298126830F90DF912F
:102DC000CF911F910F910895FC0183E090E09087CF
:102DD00087831386128614860895EF92FF921F93BD
:102DE000CF93DF931F92CDB7DEB77C01162FFC0186
:102DF00061858CE994E049830E94292E612F8CE93A
:102E000094E00E94D02D4981642F8CE994E00E94C7
:102E1000D02D8CE994E00E94462EF70186830F9016
:102E2000DF91CF911F91FF90EF900895CF93DF93A3
:102E3000EC018F819885029729F440E069E3CE0187
:102E40000E94ED1640E063E2CE010E94ED164FE6CF
:102E500060E2CE01DF91CF910C94ED169F92AF927C
:102E6000BF92CF92DF92EF92FF920F931F93CF9377
:102E7000DF93EC0169858CE994E00E94292EE091B2
:102E80009C04F0919D040190F081E02D68EA8CE9AA
:102E900094E009958CE994E00E94462E46E069850D
:102EA0008CE994E00E94262E0E9479337B018CE904
:102EB00094E00E94782D069784F48A859B85892B5F
:102EC000B1F30E9479336E197F098A859B85861735
:102ED000970768F781E08C872CC08CE994E00E940A
:102EE000802DA82E8CE994E00E94802D982E8CE9EC
:102EF00094E00E94802DE82E8CE994E00E94802DC1
:102F0000B82E8CE994E00E94802DF82E8CE994E094
:102F10000E94802DD92CC12CCA28D982C8821B2D91
:102F200000E00E291B830A83982F88278F299D8311
:102F30008C83DF91CF911F910F91FF90EF90DF90E5
:102F4000CF90BF90AF909F9008951F93CF93DF9342
:102F50001F92CDB7DEB7162F8CE994E049830E940B
:102F6000292E4981642F8CE994E00E94D02D8CE9B0
:102F700094E00E94462E811114C041E0612F8CE93B
:102F800094E00E94262E8CE994E00E94782D892BF3
:102F900041F08CE994E00F90DF91CF911F910C9458
:102FA000802D8FEF9FEF0F90DF91CF911F910895AC
:102FB000EF92FF920F931F93CF93DF937C01EB016E
:102FC0008A016330710521F04230510509F051C08A
:102FD000CE010197039758F50115110581F04FE0D7
:102FE00050E06BE6C7010E94A5178F3F2FEF9207B5
:102FF00019F001E010E013C00130110551F04FE06D
:1030000050E06AE6C7010E94A5178F3FEFEF9E07C9
:1030100021F4C330D10569F027C000E010E0C330CF
:10302000D10529F4873D9105F1F5C2E0D0E0209764
:10303000D9F40115110561F04FE050E069E6C701D0
:103040000E94A517833D910589F10130110549F0D2
:103050004FE050E068E6C7010E94A517833D910547
:1030600041F1C330D10519F00230110511F480E0AF
:1030700025C0F701D087C783209759F0D7FD11C02D
:1030800023977CF40130110511F48BE608C08AE621
:1030900006C00130110511F489E601C088E6F70188
:1030A000818781E00BC0C1E0D0E0C1CF01E010E03A
:1030B00002C000E010E0C0E0D0E0D6CFDF91CF91B9
:1030C0001F910F91FF90EF900895EF92FF920F9351
:1030D0001F93CF93DF93CDB7DEB728970FB6F89441
:1030E000DEBF0FBECDBF7C01FC0160837183802FEA
:1030F00002831383248335834683578360E00E94D1
:103100007C3560E0F70183810E947C3560E0F70147
:1031100084810E947C3560E0F70185810E947C35C6
:1031200060E0F70186810E947C3560E0F7018781CD
:103130000E947C3561E0F70180810E947C3560E06F
:10314000F70181810E947C3561E0F701808128963A
:103150000FB6F894DEBF0FBECDBFDF91CF911F91A8
:103160000F91FF90EF900C94B5350F931F93CF9371
:10317000DF93EC0177FF05C071956195710981E0DE
:1031800001C080E08B016F3F710519F014F00FEF63
:1031900010E0811107C0B8018A810E94623460E0AA
:1031A00070E006C060E070E08A810E946234B8017D
:1031B0008B81DF91CF911F910F910C9462340F930B
:1031C0001F93CF93DF93EC0177FF05C07195619555
:1031D000710981E001C080E08B016F3F710519F03A
:1031E00014F00FEF10E0811107C0B8018D810E942B
:1031F000623460E070E006C060E070E08D810E94A3
:103200006234B8018E81DF91CF911F910F910C94A0
:1032100062340F931F93CF93DF93EC018A010E94D6
:10322000B518B801CE01DF91CF911F910F910C9489
:10323000DF18FC0184810E943D3429E0AC01249F09
:10324000C001259F900D11240895FC0187810E94E3
:103250003D3429E0AC01249FC001259F900D11242D
:103260000895FC0181810E94EB3521E0892B09F052
:1032700020E0822F08958F929F92AF92BF92CF92BB
:10328000DF92EF92FF920F931F93CF93DF93CDB70F
:10329000DEB72A970FB6F894DEBF0FBECDBF4C0144
:1032A000E982FA820B831C832D833E834F835887E8
:1032B00069877A87FC01148215821682178210862C
:1032C0001186128613861486158616861786108A2E
:1032D000118A128A138A148A158A168A178A108EFE
:1032E0007C01F7E2EF0EF11CC7010E94032A840162
:1032F000065D1F4FC8010E94032AF401B182A0821B
:10330000D382C2828981818F8A81828F6B8170E0B2
:10331000C7010E94CE2A6C8170E0C8010E94CE2AAB
:103320008D81F401838F8E81848F8F81858F888535
:10333000868F898590E0A0E0B0E0878F90A3A1A35D
:10334000B2A38A8590E0A0E0B0E083A394A3A5A3F4
:10335000B6A32A960FB6F894DEBF0FBECDBFDF919D
:10336000CF911F910F91FF90EF90DF90CF90BF9082
:10337000AF909F908F900895CF93DF93EC01198ABF
:103380001A8A1B8A1C8A1D861E861F86188A0E941E
:10339000853369877A878B879C87DF91CF910895E2
:1033A0002F923F924F925F926F927F928F929F9255
:1033B000AF92BF92CF92DF92EF92FF920F931F9343
:1033C000CF93DF93CDB7DEB764970FB6F894DEBF27
:1033D0000FBECDBF1C0149835A836B837C83098B4D
:1033E0001A8B2B8B3C8B49A45AA46BA47CA44986D2
:1033F0005A866B867C860E948533D10119962D9161
:103400003D914D915C911C972B013C01421A530A4E
:10341000640A750A4D825E826F82788619966D9372
:103420007D938D939C931C97411451046104710406
:1034300009F4A9C029893A894B895C8969817A8113
:103440008B819C810E94C53A69837A838B839C839C
:10345000C301B2010E94C93B6D837E838F8398872D
:1034600020E034E244E759E40E942E3B9B01AC018A
:1034700069817A818B819C810E947D3CF101218947
:103480003289438954890E94C63A2B013C01D101FB
:1034900051966D937D938D939C93549729813A8196
:1034A0004B815C81C701B6010E947D3C6B017C01B0
:1034B000A3019201C501B4010E947D3C9B01AC01B6
:1034C000C701B6010E94C63A4B015C01F101258596
:1034D00036854785508969817A818B819C810E94DC
:1034E000C53A2B013C012D813E814F81588560E01A
:1034F00074E284E799E40E942E3B9B01AC01C30176
:10350000B2010E947D3C9B01AC0169857A858B8567
:103510009C850E947D3C9B01AC01C501B4010E94C9
:10352000C63A0E94963B49805A806B807C80D101CC
:103530001D964D925D926D927C9250975A962C9169
:103540005A9730E0A901461B570B620F731F8D91EC
:103550009C9164960FB6F894DEBF0FBECDBFDF918D
:10356000CF911F910F91FF90EF90DF90CF90BF9080
:10357000AF909F908F907F906F905F904F903F9013
:103580002F900C94091964960FB6F894DEBF0FBE05
:10359000CDBFDF91CF911F910F91FF90EF90DF9002
:1035A000CF90BF90AF909F908F907F906F905F90E3
:1035B0004F903F902F90089570E0FC0180819181A1
:1035C000413029F444275527461B570B06C02227B4
:1035D0003327261B370BAB01B9010C94091940E0C6
:1035E00050E060E070E0FC01808191810C94091949
:1035F0008F929F92AF92BF92CF92DF92EF92FF9203
:103600001F93CF93DF93EC01162F8A819B810E9439
:1036100038254B015C018C8181113BC0113029F4AC
:1036200020E030E044EB52E404C020E030E044EB22
:1036300052ECC501B4010E94C63A6B017C0120E046
:1036400030E044EB53E40E94793C87FD09C020E060
:1036500030E044EB53E4C701B6010E94C53A15C0FF
:10366000CD82DE82EF82F88620E030E0A901C7013A
:10367000B6010E942A3B87FF0CC020E030E044EBFB
:1036800053E4C701B6010E94C63A6D837E838F83DF
:103690009887A50194016D817E818F8198850E9414
:1036A000C53A6B017C0120E030E044E353E40E9422
:1036B000793C18164CF420E030E044EB53E4C701A9
:1036C000B6010E94C53A12C020E030E044E353EC5A
:1036D000C701B6010E942A3B87FF0AC020E030E004
:1036E00044EB53E4C701B6010E94C63A6B017C016A
:1036F00020E030E0A901C701B6010E94793C4601F3
:103700005701181624F0B7FAB094B7F8B094698D41
:1037100070E080E090E00E94C93B9B01AC01C501D4
:10372000B4010E942A3B87FF06C0CE010E94EF1A17
:103730001C8281E013C020E030E0A901C701B6017E
:103740000E94793C181614F441E001C043E06A8DF0
:10375000CE010E94DC1A81E08C8380E0DF91CF9162
:103760001F91FF90EF90DF90CF90BF90AF909F9010
:103770008F9008958F929F92AF92BF92CF92DF92D7
:10378000EF92FF920F931F93CF93DF93EC014A01C7
:103790005B0168017901011511052105310519F158
:1037A0008D899E89AF89B88D892B8A2B8B2B31F41B
:1037B0000E9485336D8B7E8B8F8B988F0E94853313
:1037C0000D891E892F89388D601B710B820B930B1D
:1037D000C616D706E806F90630F41D8A1E8A1F8A27
:1037E000188E81E04BC08A819B810E9438259B0105
:1037F000AC01C501B4010E94C53A6B017C0120E017
:1038000030E044E353E40E94793C18164CF420E085
:1038100030E044EB53E4C701B6010E94C53A12C040
:1038200020E030E044E353ECC701B6010E942A3B9C
:1038300087FF0AC020E030E044EB53E4C701B60143
:103840000E94C63A6B017C019701860130581F9295
:103850001F921F921F92812C912C5401C12CD12CAC
:1038600080E8E82E8FE3F82EB501A401CE010E9476
:10387000D0190F900F900F900F9080E0DF91CF91B3
:103880001F910F91FF90EF90DF90CF90BF90AF907E
:103890009F908F900895FF920F931F93CF93DF9384
:1038A000EC018B01F42EE881F981848595850E94D5
:1038B0003119882339F06CEC72E083E795E00E94BF
:1038C000BE38FFCFEC81FD81B80184859585FF204E
:1038D00019F00E94B51802C00E94DF18C80117FF36
:1038E00003C091958195910962E370E00E945B3D70
:1038F000892B39F5FF2069F067EB72E083E795E0EB
:103900000E948C38EA81FB81848595850E94191973
:103910000CC061EA72E083E795E00E948C38EA818E
:10392000FB81848595850E9425194AE050E0BC0101
:1039300083E795E0DF91CF911F910F91FF900C9459
:10394000AF39DF91CF911F910F91FF9008956F9242
:103950007F928F929F92AF92BF92CF92DF92EF921F
:10396000FF920F931F93CF93DF93CDB7DEB72C97C2
:103970000FB6F894DEBF0FBECDBF3C01842F898205
:103980009A82AB82BC82CD82DE82EF82F886098782
:103990001A872B873C8729813A81F301338322835D
:1039A0002B813C81358324832D813E81378326837F
:1039B0002F8138853187208729853A85338722876B
:1039C0002B853C85358724874083668762E00E948B
:1039D0007C35F30111822C960FB6F894DEBF0FBE32
:1039E000CDBFDF91CF911F910F91FF90EF90DF90AE
:1039F000CF90BF90AF909F908F907F906F900895E1
:103A00000F931F93CF93DF9300D000D000D0CDB79A
:103A1000DEB79A8389839C838B839E838D8300E0AA
:103A200010E041E0B801CE0101960E944B1C6FE00E
:103A300070E080E090E00E94A8330F5F1F4F0115F7
:103A400081E0180771F70FEF10E041E0B801CE01F7
:103A500001960E944B1C6FE070E080E090E00E94B5
:103A6000A8330150110901158FEF180771F701E014
:103A70001FEF41E0B801CE0101960E944B1C6FE0A0
:103A800070E080E090E00E94A8330F5F1F4F01308C
:103A9000110579F700E010E040E0B801CE01019691
:103AA0000E944B1C6FE070E080E090E00E94A83321
:103AB0000F5F1F4F011581E0180771F70FEF10E03E
:103AC00040E0B801CE0101960E944B1C6FE070E00F
:103AD00080E090E00E94A8330150110901158FEF9A
:103AE000180771F701E01FEF40E0B801CE01019621
:103AF0000E944B1C6FE070E080E090E00E94A833D1
:103B00000F5F1F4F0130110579F780E026960FB641
:103B1000F894DEBF0FBECDBFDF91CF911F910F9103
:103B2000089560910C02FC01828593850E94F81A29
:103B3000882329F08091FD038F5F8093FD0380919E
:103B4000FD03843059F41092FD0380910C02813002
:103B500011F483E001C081E080930C0280E00895BD
:103B60000F931F93CF93DF93EC018091FE0381119C
:103B70000FC0888599850E9438256093F90370935A
:103B8000FA038093FB039093FC0381E08093FE0390
:103B900080910B02882331F08A859B850E94BC1995
:103BA00010920B024091F9035091FA036091FB03CC
:103BB0007091FC0300E41BE42CE430E08A859B85D3
:103BC0000E94BA1B882321F081E080930B0201C080
:103BD00080E0DF91CF911F910F910895FC018281C8
:103BE00093810C94BC13AF92BF92CF92DF92EF926D
:103BF000FF920F931F93CF93DF93CDB7DEB7C259D8
:103C0000D1090FB6F894DEBF0FBECDBF8C01FC0109
:103C100064817581CE018F579F4F0E949927CD57A0
:103C2000DF4FA881C358D040CC57DF4FB881C4586C
:103C3000D040CB57DF4FF880C558D040CA57DF4F30
:103C4000E880C658D040C957DF4FD880C758D04009
:103C5000C857DF4FC880C858D040C757DF4FB8801B
:103C6000C958D040C657DF4FA880CA58D040CF5758
:103C7000DF4F28813981C158D040F8018481958176
:103C8000FC01828D938D2817390739F462E872E0C0
:103C900083E795E00E94BE386EC02830310508F4F5
:103CA0004AC080E090E0E0E04CE050E0B901042E32
:103CB00002C0769567950A94E2F7677011F4EE23D7
:103CC00051F0EDE8F0E0EC0FFD1FE80FF91F605D2B
:103CD00060830196E1E0435051094D3FFFEF5F07DC
:103CE00029F7AE0143575F4FFA01E80FF91F108221
:103CF000C457DF4F8881CC58D0408F93C557DF4FD2
:103D00008881CB58D0408F93AF92BF92CF92DF92F1
:103D1000EF92FF92BF93AF933F932F935F934F9395
:103D200085EB92E09F938F93CE0101969F938F93A3
:103D30000E94CB3F14C0AF92BF92CF92DF92EF921E
:103D4000FF92BF93AF933F932F938FEF92E09F9398
:103D50008F93CE0101969F938F930E94CB3F0FB616
:103D6000F894DEBF0FBECDBFBE016F5F7F4F83E70C
:103D700095E00E94B13880E0CE56DF4F0FB6F89440
:103D8000DEBF0FBECDBFDF91CF911F910F91FF908E
:103D9000EF90DF90CF90BF90AF9008954F925F92D9
:103DA0006F927F928F929F92AF92BF92CF92DF924B
:103DB000EF92FF920F931F93CF93DF93CDB7DEB7B0
:103DC00069970FB6F894DEBF0FBECDBF7C010E948D
:103DD00085332091F7033091F8032130310509F440
:103DE00037C12230310509F4E9C0232B09F0FAC2AA
:103DF0008090F3039090F403A090F503B090F60345
:103E000089288A288B2841F46093F3037093F40384
:103E10008093F5039093F6038090F3039090F4035E
:103E2000A090F503B090F603DC01CB018819990945
:103E3000AA09BB09A090F103B090F203883893411E
:103E4000A105B10508F05EC085010F5F1F4F1093FB
:103E5000F2030093F103D7011896ED91FC911997A5
:103E600060857185882777FD8095982F0E94C93BD2
:103E70002B013C018090ED039090EE03A090EF03A6
:103E8000B090F003A50194010E94C53A6B017C013A
:103E9000B80180E090E00E94C73B9B01AC01C701E4
:103EA000B6010E942E3B9B01AC01C501B4010E94EA
:103EB000C63A9B01AC016093ED037093EE038093CF
:103EC000EF039093F003C301B2010E94C53A9B0136
:103ED000AC01C701B6010E947D3C9B01AC01609121
:103EE000E9037091EA038091EB039091EC030E9447
:103EF000C63A6093E9037093EA038093EB039093CF
:103F0000EC0370C2B5016150710980E090E00E943D
:103F1000C73B9B01AC016091E9037091EA0380917A
:103F2000EB039091EC030E942E3B0E94E43C6093D3
:103F3000E5037093E6038093E7039093E80364E757
:103F400072E083E795E00E94BE3860E772E083E7A5
:103F500095E00E948C384091ED035091EE03609102
:103F6000EF037091F00322E030E083E795E00E94D8
:103F7000B23A69E672E083E795E00E94BE3865E6F2
:103F800072E083E795E00E948C384091E503509100
:103F9000E6036091E7037091E80322E030E083E7F5
:103FA00095E00E94B23A1092F3031092F40310923B
:103FB000F5031092F60382E090E045C069E273E0F9
:103FC00083E795E00E94B13822E030E040E050E025
:103FD00064EB73E483E795E00E94B03A62E573E036
:103FE00083E795E00E94D03861E773E083E795E0CE
:103FF0000E94D0386CE271E080E090E00E94A8332B
:1040000066E773E083E795E00E94D0386CE271E0E8
:1040100080E090E00E94A8336BE773E083E795E0CF
:104020000E94D0386CE271E080E090E00E94A833FA
:1040300060E873E083E795E00E94D03881E08093E8
:10404000E40381E090E09093F8038093F703CAC102
:104050008090F3039090F403A090F503B090F603E2
:1040600089288A288B2841F46093F3037093F40322
:104070008093F5039093F6038090F3039090F403FC
:10408000A090F503B090F6032B013C0148185908A5
:104090006A087B08D7011896ED91FC911997608505
:1040A0007185882777FD8095982F0E94C93B2091C4
:1040B000ED033091EE034091EF035091F0030E9425
:1040C000C53A29E23CE54FE05CE30E947D3C6B0190
:1040D0007C01C301B2010E94C73B9B01AC01C70137
:1040E000B6010E947D3C20E034E244E759E40E949E
:1040F0002E3B2091E0033091E1034091E203509187
:10410000E3030E94C63A4B015C016093E0037093A5
:10411000E1038093E2039093E3032091DC03309169
:10412000DD034091DE035091DF030E94793C1816B5
:1041300044F48092DC039092DD03A092DE03B092FF
:10414000DF03B8EB4B16BBE05B066104710408F4B7
:1041500049C120E030E0A901C701B6010E94793CC5
:1041600018165CF42DEC3CEC4CEC5DE3C701B60199
:104170000E942A3B87FF36C10BC02DEC3CEC4CEC77
:104180005DEBC701B6010E94793C18160CF02AC1FC
:104190008091DB03811112C063E472E083E795E054
:1041A0000E94BE381092F3031092F4031092F503AC
:1041B0001092F60381E08093DB0314C12091DC03AD
:1041C0003091DD034091DE035091DF0360E070E049
:1041D00084EB93E40E942E3B29E23CE54FE05CE354
:1041E0000E947D3C6093D7037093D8038093D903DA
:1041F0009093DA036DE372E083E795E00E94BE38A6
:1042000060E372E083E795E00E948C384091DC0324
:104210005091DD036091DE037091DF0322E030E016
:1042200083E795E00E94B23A60E272E083E795E0AE
:104230000E948C384091D7035091D8036091D903E4
:104240007091DA0322E030E083E795E00E94B23A11
:104250008091ED039091EE03A091EF03B091F003F4
:104260008D879E87AF87B88B8091D7039091D803B5
:10427000A091D903B091DA038D8B9E8BAF8BB88F51
:104280008091E5039091E603A091E703B091E803E4
:10429000898B9A8BAB8BBC8B6E01EDE0CE0ED11C63
:1042A000E12CF12CD6016D916D01C701698F0E943F
:1042B000F541698D681719F0C7010E94FD41BFEFF4
:1042C000EB1AFB0AECE0EE16F10461F78E010F5FCA
:1042D0001F4FE12CF12CC7010E94F541D8018D93AD
:1042E0008D01BFEFEB1AFB0AECE0EE16F10499F733
:1042F00049805A806B807C808D809E80AF80B8849E
:10430000C984DA84EB84FC8467EF71E083E795E08D
:104310000E94BE386EEE71E083E795E00E948C3813
:104320004091ED035091EE036091EF037091F00323
:1043300022E030E083E795E00E94B03A63EE71E05E
:1043400083E795E00E948C3822E030E0B301A201BF
:1043500083E795E00E94B23A69ED71E083E795E06A
:104360000E948C384091E5035091E6036091E70389
:104370007091E80322E030E083E795E00E94B03AD4
:104380006EEC71E083E795E00E948C3822E030E02B
:10439000B501A40183E795E00E94B23A6EEB71E0AB
:1043A00083E795E00E948C384091D7035091D80361
:1043B0006091D9037091DA0322E030E083E795E061
:1043C0000E94B03A63EB71E083E795E00E948C387D
:1043D00022E030E0B701A60183E795E00E94B23AFF
:1043E00081E001C080E069960FB6F894DEBF0FBE91
:1043F000CDBFDF91CF911F910F91FF90EF90DF9094
:10440000CF90BF90AF909F908F907F906F905F9074
:104410004F900895FC01808591850E943825AB015D
:10442000BC0122E030E083E795E00E94B23A80E0F0
:10443000089544E0FC01828193810E947A1291E008
:10444000843009F090E0892F089541E0FC018281D9
:1044500093810E947A1291E0813009F090E0892FD7
:10446000089542E0FC01828193810E947A1291E0DA
:10447000823009F090E0892F089541E063E0FC016B
:10448000828193810E940D15009749F0409749F071
:104490006CE671E083E795E00E94BE3802C080E0E0
:1044A000089581E00895CF93DF93EC0188810E9405
:1044B000EB35892B09F45AC08981811157C0888551
:1044C0009985009711F00E9475254E8550E0FA01FC
:1044D0003197E031F105D8F5EE58FF4F0C94913D3E
:1044E000CE010E94001D41C0CE010E94911D3DC021
:1044F000CE010E94B01D39C0CE010E94EE1D35C014
:10450000CE010E94F31D31C0CE010E94CE1E2DC0EF
:10451000CE010E940A2229C063E001C061E0CE0101
:104520000E94192222C063E001C061E0CE010E9416
:1045300025221BC063E001C061E0CE010E94312250
:1045400014C0CE010E943D2210C019820FC06FED31
:1045500072E083E795E00E948C384AE050E06E8577
:1045600083E795E00E94923981E089838981DF9118
:10457000CF9108958EBD00000DB407FEFDCF8EB51E
:1045800008951F93CF93DF93FC0123A92223A1F069
:1045900085A991E0980F95ABDF01A80FB11DA80F79
:1045A000B11D53964C91539754963C91215023AB97
:1045B000903199F415AA11C080898823F9F02289D5
:1045C00091E0920F928BDF01A20FB11D1C918150DF
:1045D000808B903129F4128A03C0842F932F15C049
:1045E0008BE50E94BA22282F30E0D22FCC27812FD2
:1045F0000E94BA229E01282BC90107C08AE50E94A9
:10460000BA22282F30E010E0F0CFDF91CF911F9138
:1046100008950F931F93CF93DF93CDB7DEB78C012F
:104620008CE0EFE0F2E0D8015A9601900D928A9565
:10463000E1F7F80111AE12AE13AEE45AFF4F10824B
:104640003196108231961082319610823396118203
:10465000108232968EE190E09183808388E691E02B
:104660000E949B3DF80190A787A3E358FF4F10825B
:104670001182128213823496118210823296118234
:1046800010827D97118210823296118210828F8162
:10469000F80186A3E559FF4F88859985918380832A
:1046A00032968A859B85AC85BD8580839183A28364
:1046B000B38334968E859F85A889B9898083918339
:1046C000A283B38334968A899B89AC89BD89808310
:1046D0009183A283B38334964E895F89688D798DE7
:1046E00040835183628373830E94D42A8CB58C7F6C
:1046F00081608CBD8DB58E7F8DBDF801E659FF4F71
:1047000081E080837B968A8D9B8D91838083329616
:104710004C8D5D8D6E8D7F8D40835183628373835D
:1047200088A13496808360E0DF91CF911F910F9133
:104730000C947C35CF92DF92EF92FF920F931F93F0
:10474000CF93DF93CDB7DEB72C970FB6F894DEBFCB
:104750000FBECDBFC982DA8229813A812150310949
:1047600081E02230310508F080E02C960FB6F894F5
:10477000DEBF0FBECDBFDF91CF911F910F91FF9094
:10478000EF90DF90CF9008953F924F925F926F929B
:104790007F928F929F92AF92BF92CF92DF92EF92D1
:1047A000FF920F931F93CF93DF93CDB7DEB72C9774
:1047B0000FB6F894DEBF0FBECDBF4C01C982DA82BE
:1047C000EB82FC820D831E8349875A873A2C0D8128
:1047D0001E817C018DE6E80EF11CF401E559FF4FC6
:1047E000608171818B819C81681B790B77FF03C08D
:1047F000719561957109882777FD8095982F0E94A2
:10480000C93BF70120813181428153810E947D3C67
:104810002B013C01F1E78F0E911C89859A8597FD4C
:104820000196BC0175956795600F711F882777FD0C
:104830008095982F0E94C93BF401208131814281EB
:1048400053810E947D3C4B015C01A30192010E94B7
:10485000C53A6B017C01332009F445C067E673E07B
:1048600083E795E00E948C3869817A814AE050E0C4
:1048700083E795E00E94A93961E673E083E795E05C
:104880000E948C384AE050E0B80183E795E00E942E
:10489000A93966E573E083E795E00E948C3822E051
:1048A00030E0B301A20183E795E00E94B03A69E4E9
:1048B00073E083E795E00E948C3822E030E0B50198
:1048C000A40183E795E00E94B03A6FE373E083E7C9
:1048D00095E00E948C3822E030E0B701A60183E722
:1048E00095E00E94B23AC701B6012C960FB6F89433
:1048F000DEBF0FBECDBFDF91CF911F910F91FF9013
:10490000EF90DF90CF90BF90AF909F908F907F906F
:104910006F905F904F903F900895FC0186A10E9498
:104920003D3483319105B4F0BC01882777FD809533
:10493000982F0E94C93B2FED3FE443E951E40E94C8
:10494000C53A9B01AC016AE979EA86E195E40E94E7
:104950002E3B089560E070EC89E794E40895855754
:104960009F4FFC0180810E94EB3521E0892B09F4E7
:1049700020E0822F089585599F4FFC01808191810D
:104980000895EF92FF920F931F93CF93DF93EC0163
:104990008C010C5F1F4FC8010E94E4168CE994E063
:1049A0000E940F2E42E050E063E070E0C8010E94D8
:1049B000D817811107C06FE173E083E795E00E948B
:1049C000BE38FFCFC8010E9416171D8A1E8A1F8A93
:1049D000188E198A1A8A1B8A1C8A188219821A82CE
:1049E0001B827E0189E1E80EF11C00E010E0C801A5
:1049F0000E94F541F70181937F010F5F1F4F0C303B
:104A00001105A9F768E173E083E795E00E948C380F
:104A1000498D5A8D6B8D7C8D22E030E083E795E0E7
:104A20000E94B03A6FE073E083E795E00E948C3813
:104A30004D8D5E8D6F8D78A122E030E083E795E0AB
:104A40000E94B03A6FEF72E083E795E00E948C38E5
:104A500049A15AA16BA17CA122E030E083E795E057
:104A6000DF91CF911F910F91FF90EF900C94B23A8C
:104A7000CF92DF92EF92FF92FC012081318142813F
:104A8000538161897289838994890E94C63A6B0136
:104A90007C0120E030E044EB53E40E94793C18169E
:104AA00054F420E030E044EB53E4C701B6010E9427
:104AB000C53A6B017C0120E030E0A901C701B601D5
:104AC0000E942A3B87FF0AC020E030E044EB53E419
:104AD000C701B6010E94C63A6B017C01C701B6014D
:104AE000FF90EF90DF90CF9008954F925F926F927A
:104AF0007F928F929F92AF92BF92CF92DF92EF926E
:104B0000FF92CF93DF93EC0104960E942E170E9430
:104B10008533CD88DE88EF88F88C2B013C014C185A
:104B20005D086E087F086D8B7E8B8F8B988F6885F4
:104B30007985882777FD8095982F0E94C93B298D1C
:104B40003A8D4B8D5C8D0E94C53A6B017C0120E053
:104B500030E0A9010E94793C46015701181624F063
:104B6000B7FAB094B7F8B09420E030E040E450E4F5
:104B70006D8D7E8D8F8D98A10E947D3C9B01AC0137
:104B8000C501B4010E942A3B87FF03C0C12CD12C70
:104B90007601C301B2010E94C73B9B01AC01C70172
:104BA000B6010E947D3C20E034E244E759E40E94D3
:104BB0002E3B29A13AA14BA15CA10E947D3C2989F1
:104BC0003A894B895C890E94C63A6B017C0120E0DE
:104BD00030E0A9010E942A3B20E030E044EB53E49E
:104BE00087FF05C0C701B6010E94C63A13C0C701BE
:104BF000B6010E94793C87FF05C0C98ADA8AEB8A30
:104C0000FC8A0CC020E030E044EB53E4C701B6015D
:104C10000E94C53A698B7A8B8B8B9C8BDF91CF91ED
:104C2000FF90EF90DF90CF90BF90AF909F908F90CC
:104C30007F906F905F904F900895FC014083518367
:104C4000628373830895CF92DF92EF92FF92FC010B
:104C50006130710569F024F4672BC9F480810BC0C1
:104C60006230710539F06330710589F4838103C0C6
:104C7000818101C082810E943D34BC01882777FD7B
:104C80008095982F0E94C93B6B017C0103C0C12C09
:104C9000D12C760120E030E048E951E4C701B601AB
:104CA0000E942A3B87FD11C02FED3FE443E951E408
:104CB000C701B6010E94C53A9B01AC016AE979EAD5
:104CC00086E195E40E942E3B04C060E070EC89E729
:104CD00094E4FF90EF90DF90CF9008953F924F9231
:104CE0005F926F927F928F929F92AF92BF92CF927C
:104CF000DF92EF92FF920F931F93CF93DF9300D039
:104D00001F92CDB7DEB7AC015B01FC0180AD811114
:104D10004AC0EE24EA94FE2C6A01F2E0CF0ED11CC8
:104D2000C6014A835B830E94C1228C014A815B8158
:104D3000009759F4EF2811F07801F2CF8AE090E063
:104D40000E94D03380E090E0DFC085352AEA9207E8
:104D500049F485E5E8168AEAF80671F7FA0112AE19
:104D600011AE23C08635FAEA9F0759F425E5E2160D
:104D70002AEAF20609F781E090E0FA0192AF81AFEA
:104D800014C08A3AF5E59F07B9F663E873E083E754
:104D900095E04A835B830E94D03880E00E94BA226B
:104DA0004A815B81C9CFFA0110AEFA0114AE13AE8D
:104DB0006A01F2E0CF0ED11C6CE0362E8824839479
:104DC000912CFA0183AD94AD8A159B0508F09CC027
:104DD0008238910508F098C0C6014A835B830E941F
:104DE000C1228C014A815B81FA0123AD34AD853546
:104DF000FAEA9F0731F481E0FA0180AF12AE11AEFA
:104E00000BC08635FAEA9F0749F481E0FA0180AFCA
:104E100081E090E092AF81AFC90176C00097E1F3E5
:104E2000FA0185AD96AD8217930798F44E9696AF2A
:104E300085AF389EB001399E700D1124808191811B
:104E40004A835B830E94C23E4A815B81FA0191835F
:104E50008083FA0123AD34AD329EC001339E900DA4
:104E60001124E080F180E80EF91E3701412C512C0D
:104E700020E0FA0181AD92AD892B31F4253021F487
:104E8000F7011386128612C0C60129834A835B8309
:104E90000E94C122480E591EF301819391933F0154
:104EA00029812F5F4A815B81263019F7041515058A
:104EB00039F4FA0183AD94AD019694AF83AF0AC083
:104EC0006BE873E083E795E04A835B830E94D03808
:104ED0005B814A81C6014A835B830E94C1224A8169
:104EE0005B818535FAEA9F0721F4FA0112AE11AE13
:104EF00068CF86359A4A21F4FA0192AE81AE61CF2D
:104F0000FA0183AD94AD00C00F900F900F90DF9128
:104F1000CF911F910F91FF90EF90DF90CF90BF90B6
:104F2000AF909F908F907F906F905F904F903F9049
:104F300008952F923F924F925F926F927F928F923D
:104F40009F92AF92BF92CF92DF92EF92FF920F9318
:104F50001F93CF93DF93CDB7DEB763970FB6F89467
:104F6000DEBF0FBECDBF3C014B018CE0FB017A964A
:104F7000D30101900D928A95E1F78B01095D1F4FD6
:104F800068EE73E0C8010E946E262C0168EE73E0A3
:104F9000C8010E946E26480E591E1E861D86212CB1
:104FA000312C20EF2F8733E2388BA4E7BA2E89EC1F
:104FB000898BF401E758FF4FFB8BEA8BF401241433
:104FC00035040CF065C087A190A52D853E85820F24
:104FD000931FFC01DE0111962CE001900D922A95A1
:104FE000E1F7FC01E080F18006811781C084D18463
:104FF000C7010197029708F041C00C9DB0010D9DBB
:10500000700D1C9D700D112480E090E00E94C73B44
:10501000EA89FB8920813181428153810E94793C58
:10502000181664F5FA82E982202F18870F834C2D19
:10503000DA86C986A12CCE2CDA80EB80FC800D812B
:105040001E8138855A856B857C85C4010E94C423E6
:105050007B018C012F8538894B2D59890E94793C21
:1050600087FD0CC0FE013196D3018CE001900D92BA
:105070008A95E1F7EF86F88AB02E198BFFEF2F1A89
:105080003F0A2D853E85245F3F4F3E872D8796CF73
:10509000EB58FF4F20813181428153816F857889A0
:1050A0008B2D99890E94793C181694F4F301808124
:1050B00091810197880F991F880D991DFC01EA596C
:1050C000FF4F208131812F5F3F4F3183208308C004
:1050D0008CE0F4017A96D30101900D928A95E1F764
:1050E000C30163960FB6F894DEBF0FBECDBFDF914C
:1050F000CF911F910F91FF90EF90DF90CF90BF90D5
:10510000AF909F908F907F906F905F904F903F9067
:105110002F900895CF92DF92EF92FF920F931F93FB
:10512000CF93DF936C018B017A01EC01C95FDB4FF8
:10513000888187FF04C0FB011182108223C02CE00C
:105140002C9DC0012D9D900D11242881AC01420F92
:10515000511D27FD5A952091060430E04217530750
:105160008CF42881AC01420F511D27FD5A959A01FC
:10517000FA01EE0FFF1FE20FF31FE55FFB4F2081E7
:1051800026FD19C088818F5F88838CE08C9D9001FB
:105190008D9D300D11248881A901480F511D87FD77
:1051A0005A958091060490E048175907B4F4888115
:1051B0008C303CF112C02881820F911D27FD9A95F9
:1051C000FC01EE0FFF1FE80FF91FE55FFB4F808129
:1051D00060E08F730E94B535D5CFF8018081918151
:1051E000049680349C4918F480E49CE904C0F801DA
:1051F000808191810496F701918380838FEF88836A
:1052000041C0F801808191814881B901640F711D0D
:1052100047FD7A95AB01FB01EE0FFF1FE40FF51F71
:10522000E55FFB4F41815281840F951FF701918308
:1052300080838881A901480F511D87FD5A95FA0185
:10524000EE0FFF1FE40FF51FE55FFB4F808186FF28
:1052500019C08881280F311D87FD3A95F901EE0F9D
:10526000FF1FE20FF31FE55FFB4F808161E08F734B
:10527000DF91CF911F910F91FF90EF90DF90CF9032
:105280000C94B535DF91CF911F910F91FF90EF9066
:10529000DF90CF9008951F920F920FB60F921124B6
:1052A0000BB60F922F933F934F935F936F937F9320
:1052B0008F939F93AF93BF93EF93FF9348E850E092
:1052C00064E870E081E090E00E948A28FF91EF910D
:1052D000BF91AF919F918F917F916F915F914F910E
:1052E0003F912F910F900BBE0F900FBE0F901F900C
:1052F00018951F920F920FB60F9211240BB60F92B2
:105300002F933F934F935F936F937F938F939F93CD
:10531000AF93BF93EF93FF9348E950E064E970E0E7
:1053200082E090E00E948A28FF91EF91BF91AF91B7
:105330009F918F917F916F915F914F913F912F91AD
:105340000F900BBE0F900FBE0F901F9018951F92DD
:105350000F920FB60F9211240BB60F922F933F931B
:105360004F935F936F937F938F939F93AF93BF936D
:10537000EF93FF9348EA50E064EA70E083E090E046
:105380000E948A28FF91EF91BF91AF919F918F91D9
:105390007F916F915F914F913F912F910F900BBE35
:1053A0000F900FBE0F901F9018951F920F920FB67F
:1053B0000F9211240BB60F922F933F934F935F934D
:1053C0006F937F938F939F93AF93BF93EF93FF93CD
:1053D00048E251E064E271E080E090E00E948A28B7
:1053E000FF91EF91BF91AF919F918F917F916F91BD
:1053F0005F914F913F912F910F900BBE0F900FBE79
:105400000F901F901895209106042033A0F431E0EE
:10541000320F30930604FC012083822F90E0FC01C0
:10542000EE0FFF1FE80FF91FE55FFB4F88EB9BE0D6
:105430009283818308952FEFFC0120830895DF92EA
:10544000EF92FF920F931F93CF93DF93EC01D62E31
:105450007A0189018881803308F068C061E08D2D70
:105460000E947C358881A82FB0E0FD01EE0FFF1F60
:10547000EA0FFB1FE55FFB4F2D2D2F739081907C72
:10548000922B908360E272E06E197F0977FF02C071
:105490006D5F7F4F7595679575956795698340E654
:1054A00059E0401B510B57FF02C04D5F5F4F5595B0
:1054B0004795559547954A836CE00E943B3D9CE09B
:1054C000899FB001112420E030E0A901460F571F49
:1054D000FA01EE0FFF1FE40FF51FE55FFB4F908110
:1054E00096FD18C02F5F3F4F2C30310571F790E0CB
:1054F0008130910521F51092800082E08093810037
:105500001092850010928400B19A80916F008260A1
:1055100080936F00888190E0FC01EE0FFF1FE80F81
:10552000F91FE55FFB4F8081806480838881DF9174
:10553000CF911F910F91FF90EF90DF9008958230EF
:10554000910569F41092900082E08093910010928E
:1055500095001092940088BB80937100DBCF83305C
:10556000910569F41092A00082E08093A10010924E
:10557000A5001092A40089BB80937200CBCF892B29
:1055800049F61092200182E08093210110922501BA
:10559000109224018ABB80937300BCCF20E639E0CF
:1055A00040E252E00C941F2ACF93CFB7F894809139
:1055B0009B04811127C0EFE4F4E08491E9E0F4E07A
:1055C0009491E82FF0E0EE0FFF1FEC56FB4FA591F2
:1055D000B4918C91892321F461E085E30E94B53573
:1055E00061E085E30E947C358CB580618CBD8CB513
:1055F00080648CBD61E084E30E947C3561E083E3DC
:105600000E947C3580919B048F5F80939B04CFBF69
:10561000CF910895FC0111821082FB01208131811C
:10562000FC01318320830895FB0120813181FC013D
:10563000318320830895FC01613051F028F06230FD
:1056400061F0633079F00895808191818F730DC08E
:10565000808191818F77806408C0808191818F7B68
:10566000806803C080819181806C918380830895DC
:10567000FC018081918162FF02C0806201C08F7D48
:10568000918380838081918161FF02C0806101C02C
:105690008F7E918380838081918160FF02C08860CA
:1056A00001C0877F918380830895FC01808191816F
:1056B00062FF02C0846001C08B7F91838083808100
:1056C000918161FF02C0826001C08D7F91838083E0
:1056D0008081918160FF02C0816001C08E7F9183D3
:1056E00080830895FC0180819181662311F091608F
:1056F00001C09E7F918380830895EF92FF920F9364
:10570000CF93DF9300D0CDB7DEB77C01FC011182CF
:1057100010822A8349830E941B2B4981642FC70171
:105720000E94382B2A81622FC7010E94552B602FBF
:10573000C7010F900F90DF91CF910F91FF90EF90E5
:105740000C94722B0F9300E020E040E061E00E9497
:105750007D2B0F910895FC018081918187FF04C00A
:1057600086FF09C083E0089526E0969587952A95DF
:10577000E1F78170089582E00895FC01908195FB26
:10578000222720F994FB882780F9F2E02F9F800DD3
:105790001124880F93FB992790F9890F0895FC0134
:1057A0002081318122FB992790F921FB882780F9FC
:1057B000F2E09F9F800D1124880F21703327820F04
:1057C0000895FC01818181700895AC01405C5F4FB8
:1057D000FC019F01285F3F4F1192E217F307E1F7A9
:1057E000E417F507B1F720E030E040E050E0BC01FD
:1057F000620F731FFB01E40FF51F10824F5F5F4FB5
:1058000048305105B9F7285F3F4F2034310569F71B
:1058100008951F93CF93DF93AC01405C5F4FFC0171
:105820009F01285F3F4F1192E217F307E1F7E4175A
:10583000F507B1F720E030E0FB01E20FF31F40E095
:1058400050E0DC01A21BB30B1191ED01C40FD51F79
:1058500018AF4F5F5F4F48305105B1F7285F3F4F9A
:105860002034310549F7DF91CF911F91089521111F
:1058700002C057E001C056E021E030E002C0220F34
:10588000331F5A95E2F758E0659FF0011124E40FA9
:10589000F11DE80FF91F808190E02823392381E072
:1058A000121613060CF080E0089528E0629FF001C4
:1058B0001124E40FF11DE80FF91F908181E091FFA1
:1058C00080E0089528E0629FF0011124E40FF11DAB
:1058D000E80FF91F908181E090FF80E00895FC01BE
:1058E0001182108213821282158214820895DC01C3
:1058F00012962D913C9113978D919C91FC018217EA
:10590000930761F002960190F081E02DDB014D914B
:105910005C91E417F50791F781E0089580E0089520
:10592000CF93DF93EB01BC0182E090E00E945C30FA
:10593000FC01118210822881398131832083DF911B
:10594000CF9108956F927F928F929F92AF92BF9264
:10595000CF92DF92EF92FF920F931F93CF93DF933B
:10596000EC018B014A018A819B812C813D81821748
:10597000930711F1BC01625071090E94902CEA81D9
:10598000FB81CF0102969B838A83D4012D913C91A8
:10599000DF011297CD01801B910B95958795181605
:1059A000190634F45E914E91529342930197F7CFCA
:1059B000F8013183208366C0288139816C01C21AC5
:1059C000D30AD594C794C114D10439F0FAE0CF0EAC
:1059D000D11CC114D10421F418C0CC24C394D12CFF
:1059E0005601AA0CBB1CC5010E949B3D7C0100977F
:1059F00081F4E091C403F091C503309721F480E075
:105A000090E00E94B1420995EECFC12CD12CE12C3F
:105A1000F12C68807980C701DC0112965D01601667
:105A2000710641F0B3010E94902C22E0620E711CBD
:105A3000C501F2CFB4010E94902C8A809B8008158A
:105A4000190551F0B801C5010E94902C0E5F1F4F3F
:105A5000B2E0AB0EB11CF3CF888199812C813D81DE
:105A6000281B390B35952795232B11F00E94333EC7
:105A7000F982E882BB82AA82CC0CDD1CCE0CDF1C32
:105A8000DD82CC82DF91CF911F910F91FF90EF903B
:105A9000DF90CF90BF90AF909F908F907F906F904E
:105AA00008950F931F93CF93DF93EC018B010E9416
:105AB000772C811117C08A819B812C813D818217AF
:105AC000930749F0B8010E94902C8A819B8102962D
:105AD0009B838A8305C0A801BC01CE010E94A22C31
