:100000000C9434020C9463020C9463020C9463020B
:100010000C9463020C9463020C9463020C946302CC
:100020000C9463020C9463020C9463020C946302BC
:100030000C9463020C9463020C9463020C946302AC
:100040000C9463020C9463020C9463020C9463029C
:100050000C9463020C9463020C9463020C94D01E03
:100060000C9463020C9429230C945F230C94630278
:100070000C9463020C9463020C9463020C9463026C
:100080000C9463020C9463020C9463020C9463025C
:100090000C9463020C9463020C9463020C944B194D
:1000A0000C9463020C9463020C9463020C9463023C
:1000B0000C9463020C9463020C9463020C9463022C
:1000C0000C9463020C9463020C9463020C9463021C
:1000D0000C9463020C9463020C9463020C9463020C
:1000E0000C946302D90FAC0FB00FB40FD90FB80F37
:1000F000BC0FC00FC40FC60FCB0FCD0FD20FD40F44
:10010000D90F351B371BF51AF71AF91AFB1AFD1A06
:10011000FF1A011B081B0A1B111B181B1F1B351B79
:1001200029202E2033203D204720C0205120592057
:1001300061206B2075207F208E209820C020A22077
:10014000AC20B620E220E520D420D820DE201C21DF
:10015000E920ED20F320F720FB20012105210921D2
:100160001C210F21132117210953746F726564201C
:100170003D20007363616C65466163746F725A2041
:100180003D20000953746F726564203D200073693F
:10019000676D615A203D20000953746F72656420B9
:1001A0003D2000426961735A203D20005072696E03
:1001B00074696E672063616C63756C61746564203B
:1001C000616E642073746F7265642076616C75650E
:1001D000732E2E2E005363616C6520466163746F2D
:1001E00072203D20004D617820416E676C65203D96
:1001F0002000446F6E652100526F74617465206247
:1002000061636B20746F207374617274696E672010
:10021000706F736974696F6E2E005A3D20005369C8
:10022000676D613A005A3D200041766572616765ED
:1002300020426961733A00476574426C6F636B28B2
:10024000292072657475726E6564204241445F4274
:100250004C4F434B2E005269676874204D6F746F8A
:10026000722063757272656E743A20004C65667414
:10027000204D6F746F722063757272656E743A20D0
:10028000006D6F746F7220647269766572206661AA
:10029000756C74004552524F522D20496E76616C38
:1002A00069642070726F6772616D2063686F696343
:1002B000653A2000095363616C6520466163746F81
:1002C000723A2000095369676D613A200042696102
:1002D000733A20004661696C656420746F20617513
:1002E000746F646574656374206779726F207479C4
:1002F0007065210009546F74616C203D2000094233
:100300006F74204C696E65203D20000943656E7452
:100310006572203D20000959203D20005369672067
:100320003D20004552524F522D20496E76616C6936
:10033000642070726F6772616D2063686F696365B6
:100340003A200000000A0B02090C0D0E08070304F6
:10035000010000000000000000000000000000009C
:10036000000000000000000000000000000000127B
:10037000111000000000000000000000000000005C
:10038000000000000000000000010210202008080A
:1003900010204010204080020102010804020101E7
:1003A00002040810204080804020100804020180D0
:1003B0000402018040201008040201080402010127
:1003C000020408102040800102040810204080052B
:1003D000050505070508080808020202020A0A08BE
:1003E00008040404040101010101010101030303E4
:1003F0000303030303040707070C0C0C0C0C0C0C81
:100400000C0202020206060606060606060B0B0B87
:100410000B0B0B0B0B000020002300260029002CE7
:10042000002F003200000100000301060109010055
:10043000002200250028002B002E0031003400028D
:10044000010000050108010B010000210024002724
:10045000002A002D003000330001010000040107D4
:10046000010A01006918932311241FBECFEFD1E2C6
:10047000DEBFCDBF13E0A0E0B2E0E4E5FCE500E0C4
:100480000BBF02C007900D92A034B107D9F724E04A
:10049000A0E4B3E001C01D92A83EB207E1F714E06A
:1004A000C8E6D4E000E006C022970109FE010BBFB8
:1004B0000E941129C436D10780E00807A9F70E94DD
:1004C000D7230C94282E0C940000CF93DF93EC01DB
:1004D000E881F981E85FFE4F808191810E944608A2
:1004E00088819981FC01E75EFE4F1082319621E000
:1004F0002083359611821082DF91CF910895CF929B
:10050000DF92EF92FF920F931F93CF93DF93CDB7BC
:10051000DEB7C850D1400FB6F894DEBF0FBECDBFD6
:100520007C01CF5FDE4F0883C150D140CE5FDE4FEC
:100530001883C250D140CD5FDE4F2883C350D140D5
:10054000CC5FDE4F3883C450D140CB5FDE4F488351
:10055000C550D140CA5FDE4F5883C650D140C95FF5
:10056000DE4F6883C750D140C85FDE4F7883C850E4
:10057000D1400E948F17670184E0C80ED11CC601CC
:100580000E94BB15F701E45FFE4FCD5EDE4F888110
:100590009981AA81BB81C351D14080839183A28379
:1005A000B3833496C95EDE4F88819981AA81BB816D
:1005B000C751D14080839183A283B3833496C55EB3
:1005C000DE4F488159816A817B81CB51D140408384
:1005D0005183628373833496C15EDE4F8881CF512D
:1005E000D14080837497CF5FDE4F88819981C1505D
:1005F000D140918380833296CD5FDE4F888199818F
:10060000C350D140918380833296CB5FDE4F888187
:100610009981C550D140918380833296C95FDE4F66
:1006200088819981C750D140918380833F96108201
:10063000319681E08083319610821182128213827A
:1006400000E0CE5DDE4F2881C252D140CF5DDE4F4B
:100650004881C152D140C05EDE4F6881C052D14056
:10066000CE0101960E946817BE016F5F7F4FC701E0
:100670000E94B015BE016D5D7E4FCE0101960E94B5
:10068000E51580E0FE013196D60101900D928A9524
:10069000E1F7C85FDE4F0FB6F894DEBF0FBECDBFE7
:1006A000DF91CF911F910F91FF90EF90DF90CF904E
:1006B00008952F923F924F925F926F927F928F9206
:1006C0009F92AF92BF92CF92DF92EF92FF920F93E1
:1006D0001F93CF93DF93CDB7DEB72F970FB6F89464
:1006E000DEBF0FBECDBF4C016F87142F9C012A5F68
:1006F0003E4F7901633061F460E070E0F901808180
:1007000091810E94F9122B013C0162E070E00BC064
:1007100061E070E0F901808191810E94F9122B0162
:100720003C0163E070E0F701808191810E94F91241
:100730006B017C019E868D86F12FF4703F2E12FF97
:1007400012C0F401EC5FFE4F808191810E9475110F
:10075000F401EC5EFE4F20813181428153810E9481
:10076000C42687FD6CC0212F2170322E10FF35C0AA
:10077000540137EEA31A3EEFB30AF50180818111CF
:100780001BC03D972081318142815381C301B20159
:100790000E941328181684F4F501308231963082B5
:1007A0007097808191810E940E12F401E55EFE4FE8
:1007B0006083718382839383F5018081882369F04C
:1007C000F401E45FFE4F2081318142815381C701F2
:1007D000B6010E941328181694F1F12FF2703F2EE3
:1007E00011FF34C054012CEFA21A2EEFB20AF5010A
:1007F00060817181CE0101960E946F14C980DA80F8
:10080000EB80FC800D811E812F81388549855A85BA
:100810006B857C85F501808191810E948B10F401AC
:10082000E15EFE4F882381F0808191810196918362
:1008300080833797208130E0821793073CF0CE0108
:100840000D960E9465025FC0118210828401065ECF
:100850001E4FF80180819401285F3E4F19018823C3
:1008600039F0F901808191810E941107F80110820D
:10087000F401E75EFE4F8081882371F0329640815B
:1008800051816281738100E010E09801F101808163
:1008900091810E94110936C0F401E05FFE4F2F855F
:1008A0002130A1F440815181628173811F921F9296
:1008B0001F921F92812C912C5401C12CD12C90E8B5
:1008C000E92E9FE3F92E9301820113C0008111816B
:1008D000228133811F921F921F921F92812C912C93
:1008E0005401C12CD12C80E8E82E8FE3F82EB301FF
:1008F000A201F101808191810E9425070F900F9044
:100900000F900F90312C832D2F960FB6F894DEBFE9
:100910000FBECDBFDF91CF911F910F91FF90EF9050
:10092000DF90CF90BF90AF909F908F907F906F900F
:100930005F904F903F902F900895FC0183E090E0EE
:10094000908787831386128614860895EF92FF920C
:100950001F93CF93DF931F92CDB7DEB77C01162F85
:10096000FC01618580E793E049830E944918612F6B
:1009700080E793E00E94F0174981642F80E793E0BD
:100980000E94F01780E793E00E946618F7018683C3
:100990000F90DF91CF911F91FF90EF900895CF932B
:1009A000DF93EC018F819885029729F440E069E399
:1009B000CE010E94A60440E063E2CE010E94A6049C
:1009C0004FE660E2CE01DF91CF910C94A6049F9296
:1009D000AF92BF92CF92DF92EF92FF920F931F934D
:1009E000CF93DF93EC01698580E793E00E9449187B
:1009F000E0917003F09171030190F081E02D68EABD
:100A000080E793E0099580E793E00E94661846E04E
:100A1000698580E793E00E9446180E941A1F7B01B7
:100A200080E793E00E949817069784F48A859B8557
:100A3000892BB1F30E941A1F6E197F098A859B8545
:100A40008617970768F781E08C872CC080E793E0D2
:100A50000E94A017A82E80E793E00E94A017982E6E
:100A600080E793E00E94A017E82E80E793E00E94C1
:100A7000A017B82E80E793E00E94A017F82E80E719
:100A800093E00E94A017D92CC12CCA28D982C88211
:100A90001B2D00E00E291B830A83982F88278F299E
:100AA0009D838C83DF91CF911F910F91FF90EF90E9
:100AB000DF90CF90BF90AF909F9008951F93CF93FA
:100AC000DF931F92CDB7DEB7162F80E793E04983FF
:100AD0000E9449184981642F80E793E00E94F01733
:100AE00080E793E00E946618811114C041E0612FF5
:100AF00080E793E00E94461880E793E00E949817F1
:100B0000892B41F080E793E00F90DF91CF911F9107
:100B10000C94A0178FEF9FEF0F90DF91CF911F9153
:100B20000895EF92FF920F931F93CF93DF937C0171
:100B3000EB018A016330710521F04230510509F063
:100B400051C0CE010197039758F50115110581F0A9
:100B50004FE050E06BE6C7010E945E058F3F2FEF2C
:100B6000920719F001E010E013C00130110551F0B7
:100B70004FE050E06AE6C7010E945E058F3FEFEF4D
:100B80009E0721F4C330D10569F027C000E010E0D2
:100B9000C330D10529F4873D9105F1F5C2E0D0E0DD
:100BA0002097D9F40115110561F04FE050E069E696
:100BB000C7010E945E05833D910589F10130110551
:100BC00049F04FE050E068E6C7010E945E05833DB2
:100BD000910541F1C330D10519F00230110511F42E
:100BE00080E025C0F701D087C783209759F0D7FD53
:100BF00011C023977CF40130110511F48BE608C075
:100C00008AE606C00130110511F489E601C088E6C4
:100C1000F701818781E00BC0C1E0D0E0C1CF01E0E6
:100C200010E002C000E010E0C0E0D0E0D6CFDF91DD
:100C3000CF911F910F91FF90EF900895EF92FF9247
:100C40000F931F93CF93DF93CDB7DEB728970FB6DF
:100C5000F894DEBF0FBECDBF7C01FC0160837183C1
:100C6000802F02831383248335834683578360E078
:100C70000E941D2160E0F70183810E941D2160E038
:100C8000F70184810E941D2160E0F70185810E94A7
:100C90001D2160E0F70186810E941D2160E0F701BF
:100CA00087810E941D2161E0F70180810E941D2142
:100CB00060E0F70181810E941D2161E0F7018081E0
:100CC00028960FB6F894DEBF0FBECDBFDF91CF914F
:100CD0001F910F91FF90EF900C9456210F931F934B
:100CE000CF93DF93EC0177FF05C071956195710992
:100CF00081E001C080E08B016F3F710519F014F0B5
:100D00000FEF10E0811107C0B8018A810E94032013
:100D100060E070E006C060E070E08A810E9403201D
:100D2000B8018B81DF91CF911F910F910C9403201B
:100D30000F931F93CF93DF93EC0177FF05C071955D
:100D40006195710981E001C080E08B016F3F710501
:100D500019F014F00FEF10E0811107C0B8018D8178
:100D60000E94032060E070E006C060E070E08D81CA
:100D70000E940320B8018E81DF91CF911F910F91C6
:100D80000C9403200F931F93CF93DF93EC018A0100
:100D90000E946E06B801CE01DF91CF911F910F9195
:100DA0000C949806FC0184810E94DE1F29E0AC01AE
:100DB000249FC001259F900D11240895FC01878177
:100DC0000E94DE1F29E0AC01249FC001259F900DE9
:100DD00011240895FC0181810E948C2121E0892B3E
:100DE00009F020E0822F0895FC01168217821086F8
:100DF0001186128613861486158616861786108A23
:100E0000118A128A138A148A158A168A178A108EF2
:100E1000118E128E718360833383228355834483C2
:100E20000895CF93DF93EC011B8A1C8A1D8A1E8ACA
:100E30001F86188A198A1A8A0E94261F6B877C8748
:100E40008D879E87DF91CF9108952F923F924F9289
:100E50005F926F927F928F929F92AF92BF92CF924A
:100E6000DF92EF92FF920F931F93CF93DF93CDB753
:100E7000DEB764970FB6F894DEBF0FBECDBF1C017E
:100E800049835A836B837C83098B1A8B2B8B3C8B16
:100E900049A45AA46BA47CA449865A866B867C8696
:100EA0000E94261FD1011B962D913D914D915C9181
:100EB0001E972B013C01421A530A640A750A4D829F
:100EC0005E826F8278861B966D937D938D939C9343
:100ED0001E97411451046104710409F4ABC02989BF
:100EE0003A894B895C8969817A818B819C810E94D6
:100EF0005F2669837A838B839C83C301B2010E943E
:100F000063276D837E838F83988720E034E244E7F4
:100F100059E40E94C8269B01AC0169817A818B81CA
:100F20009C810E941728F1012389348945895689BB
:100F30000E9460262B013C01D10153966D937D9355
:100F40008D939C93569729813A814B815C81C7018F
:100F5000B6010E9417286B017C01A3019201C50113
:100F6000B4010E9417289B01AC01C701B6010E9481
:100F700060264B015C01F101278530894189528946
:100F800069817A818B819C810E945F262B013C01C3
:100F90002D813E814F81588560E074E284E799E4B9
:100FA0000E94C8269B01AC01C301B2010E94172810
:100FB0009B01AC0169857A858B859C850E941728E9
:100FC0009B01AC01C501B4010E9460260E9430273C
:100FD00049805A806B807C80D1011F964D925D9232
:100FE0006D927C92529711962C91119730E0A90145
:100FF000461B570B620F731F12968D919C9113978E
:1010000064960FB6F894DEBF0FBECDBFDF91CF91CF
:101010001F910F91FF90EF90DF90CF90BF90AF9016
:101020009F908F907F906F905F904F903F902F9008
:101030000C94C20664960FB6F894DEBF0FBECDBF07
:10104000DF91CF911F910F91FF90EF90DF90CF90A4
:10105000BF90AF909F908F907F906F905F904F90D8
:101060003F902F90089570E0FC0182819381413080
:1010700029F444275527461B570B06C02227332740
:10108000261B370BAB01B9010C94C20640E050E0BF
:1010900060E070E0FC01828193810C94C2068F9223
:1010A0009F92AF92BF92CF92DF92EF92FF921F93E7
:1010B000CF93DF93EC01162F8C819D810E940E123D
:1010C0004B015C018E8181113BC0113029F420E07D
:1010D00030E044EB52E404C020E030E044EB52EC5A
:1010E000C501B4010E9460266B017C0120E030E064
:1010F00044EB53E40E94132887FD09C020E030E050
:1011000044EB53E4C701B6010E945F2615C0CF82AD
:10111000D886E986FA8620E030E0A901C701B60149
:101120000E94C42687FF0CC020E030E044EB53E46B
:10113000C701B6010E9460266F83788789879A87E6
:10114000A50194016F81788589859A850E945F2623
:101150006B017C0120E030E044E353E40E9413285B
:1011600018164CF420E030E044EB53E4C701B6011C
:101170000E945F2612C020E030E044E353ECC70138
:10118000B6010E94C42687FF0AC020E030E044EB8D
:1011900053E4C701B6010E9460266B017C0120E088
:1011A00030E0A901C701B6010E941328460157018A
:1011B000181624F0B7FAB094B7F8B094688170E0CC
:1011C00080E090E00E9463279B01AC01C501B4015F
:1011D0000E94C42687FF06C0CE010E9446081E82D8
:1011E00081E013C020E030E0A901C701B6010E94F0
:1011F0001328181614F441E001C043E06981CE01C0
:101200000E94330881E08E8380E0DF91CF911F91AF
:10121000FF90EF90DF90CF90BF90AF909F908F9016
:1012200008958F929F92AF92BF92CF92DF92EF92EA
:10123000FF920F931F93CF93DF93EC014A015B0161
:1012400068017901011511052105310519F18F8911
:10125000988DA98DBA8D892B8A2B8B2B31F40E9406
:10126000261F6F8B788F898F9A8F0E94261F0F8978
:10127000188D298D3A8D601B710B820B930BC6164E
:10128000D706E806F90630F41F8A188E198E1A8ED2
:1012900081E04BC08C819D810E940E129B01AC01AC
:1012A000C501B4010E945F266B017C0120E030E0A3
:1012B00044E353E40E94132818164CF420E030E075
:1012C00044EB53E4C701B6010E945F2612C020E040
:1012D00030E044E353ECC701B6010E94C42687FF07
:1012E0000AC020E030E044EB53E4C701B6010E949D
:1012F00060266B017C019701860130581F921F9276
:101300001F921F92812C912C5401C12CD12C80E86A
:10131000E82E8FE3F82EB501A401CE010E94250727
:101320000F900F900F900F9080E0DF91CF911F9161
:101330000F91FF90EF90DF90CF90BF90AF909F9074
:101340008F900895FF920F931F93CF93DF93EC013B
:101350008B01F42EE881F981848595850E94EA0647
:10136000882339F061E872E087E494E00E94582411
:10137000FFCFEC81FD81B80184859585FF2019F0B0
:101380000E946E0602C00E949806C80117FF03C0A3
:1013900091958195910962E370E00E94D528892B8F
:1013A00039F5FF2069F06CE672E087E494E00E9472
:1013B0002624EA81FB81848595850E94D2060CC093
:1013C00066E572E087E494E00E942624EA81FB81CE
:1013D000848595850E94DE064AE050E0BC0187E4E2
:1013E00094E0DF91CF911F910F91FF900C944925CC
:1013F000DF91CF911F910F91FF9008956F927F928F
:101400008F929F92AF92BF92CF92DF92EF92FF9214
:101410000F931F93CF93DF93CDB7DEB72C970FB603
:10142000F894DEBF0FBECDBF3C01842F89829A8223
:10143000AB82BC82CD82DE82EF82F88609871A8772
:101440002B873C8729813A81F301338322832B81C7
:101450003C81358324832D813E81378326832F81F0
:1014600038853187208729853A85338722872B85E0
:101470003C85358724874083668762E00E941D2172
:10148000F30111822C960FB6F894DEBF0FBECDBFCC
:10149000DF91CF911F910F91FF90EF90DF90CF9050
:1014A000BF90AF909F908F907F906F9008950F9313
:1014B0001F93CF93DF9300D000D000D0CDB7DEB71D
:1014C0009A8389839C838B839E838D8300E010E0C5
:1014D00041E0B801CE0101960E94A2096FE070E0E0
:1014E00080E090E00E94491F0F5F1F4F011581E0CF
:1014F000180771F70FEF10E041E0B801CE01019637
:101500000E94A2096FE070E080E090E00E94491F15
:101510000150110901158FEF180771F701E01FEF56
:1015200041E0B801CE0101960E94A2096FE070E08F
:1015300080E090E00E94491F0F5F1F4F01301105AE
:1015400079F700E010E040E0B801CE0101960E947A
:10155000A2096FE070E080E090E00E94491F0F5FF9
:101560001F4F011581E0180771F70FEF10E040E001
:10157000B801CE0101960E94A2096FE070E080E000
:1015800090E00E94491F0150110901158FEF1807C3
:1015900071F701E01FEF40E0B801CE0101960E9413
:1015A000A2096FE070E080E090E00E94491F0F5FA9
:1015B0001F4F0130110579F780E026960FB6F89499
:1015C000DEBF0FBECDBFDF91CF911F910F91089568
:1015D00060910702FC01828593850E944F08882351
:1015E00029F0809166038F5F809366038091660384
:1015F000843059F41092660380910702813011F40F
:1016000083E001C081E08093070280E008950F939A
:101610001F93CF93DF93EC018091670381110FC07B
:10162000888599850E940E1260936203709363030C
:10163000809364039093650381E0809367038091B6
:101640000602882331F08A859B850E94110710923B
:1016500006024091620350916303609164037091AC
:10166000650300E41BE42CE430E08A859B850E943E
:101670001109882321F081E08093060201C080E0F7
:10168000DF91CF911F910F910895AF92BF92CF92AA
:10169000DF92EF92FF920F931F93CF93DF93CDB71B
:1016A000DEB7C259D1090FB6F894DEBF0FBECDBF69
:1016B0008C01FC0164817581CE018F579F4F0E9480
:1016C0006F14CD57DF4FA881C358D040CC57DF4FA0
:1016D000B881C458D040CB57DF4FF880C558D040B0
:1016E000CA57DF4FE880C658D040C957DF4FD8806F
:1016F000C758D040C857DF4FC880C858D040C757D8
:10170000DF4FB880C958D040C657DF4FA880CA58AD
:10171000D040CF57DF4F28813981C158D040F801E0
:1017200084819581FC01838994892817390739F4CC
:1017300067E372E087E494E00E9458246EC028308A
:10174000310508F44AC080E090E0E0E04CE050E071
:10175000B901042E02C0769567950A94E2F7677086
:1017600011F4EE2351F0EDE8F0E0EC0FFD1FE80F6F
:10177000F91F605D60830196E1E0435051094D3FE0
:10178000FFEF5F0729F7AE0143575F4FFA01E80FFC
:10179000F91F1082C457DF4F8881CC58D0408F93F7
:1017A000C557DF4F8881CB58D0408F93AF92BF92FF
:1017B000CF92DF92EF92FF92BF93AF933F932F931D
:1017C0005F934F9381E392E09F938F93CE010196B5
:1017D0009F938F930E94422B14C0AF92BF92CF92DF
:1017E000DF92EF92FF92BF93AF933F932F938BE7DC
:1017F00092E09F938F93CE0101969F938F930E94C7
:10180000422B0FB6F894DEBF0FBECDBFBE016F5F97
:101810007F4F87E494E00E944B2480E0CE56DF4F58
:101820000FB6F894DEBF0FBECDBFDF91CF911F91F1
:101830000F91FF90EF90DF90CF90BF90AF90089501
:101840004F925F926F927F928F929F92AF92BF92D0
:10185000CF92DF92EF92FF920F931F93CF93DF937C
:10186000CDB7DEB769970FB6F894DEBF0FBECDBF18
:101870007C010E94261F209160033091610321307A
:10188000310509F437C12230310509F4E9C0232BB1
:1018900009F0FAC280905C0390905D03A0905E0313
:1018A000B0905F0389288A288B2841F460935C03F9
:1018B00070935D0380935E0390935F0380905C035D
:1018C00090905D03A0905E03B0905F03DC01CB01BC
:1018D00088199909AA09BB09A0905A03B0905B0323
:1018E00088389341A105B10508F05EC085010F5FFE
:1018F0001F4F10935B0300935A03D7011896ED9185
:10190000FC91199760857185882777FD8095982FC0
:101910000E9463272B013C0180905603909057034F
:10192000A0905803B0905903A50194010E945F262E
:101930006B017C01B80180E090E00E9461279B016F
:10194000AC01C701B6010E94C8269B01AC01C501CC
:10195000B4010E9460269B01AC0160935603709312
:1019600057038093580390935903C301B2010E9417
:101970005F269B01AC01C701B6010E9417289B019D
:10198000AC01609152037091530380915403909184
:1019900055030E9460266093520370935303809313
:1019A00054039093550370C2B5016150710980E0F2
:1019B00090E00E9461279B01AC01609152037091FD
:1019C000530380915403909155030E94C8260E94AE
:1019D0007E2860934E0370934F038093500390933F
:1019E000510369E272E087E494E00E94582465E2C2
:1019F00072E087E494E00E942624409156035091BF
:101A00005703609158037091590322E030E087E456
:101A100094E00E944C266EE172E087E494E00E941C
:101A200058246AE172E087E494E00E942624409101
:101A30004E0350914F03609150037091510322E087
:101A400030E087E494E00E944C2610925C031092F0
:101A50005D0310925E0310925F0382E090E045C048
:101A600065EA72E087E494E00E944B2422E030E0D3
:101A700040E050E064EB73E487E494E00E944A267F
:101A80006EEC72E087E494E00E946A246DEE72E0EE
:101A900087E494E00E946A246CE271E080E090E0C8
:101AA0000E94491F62EF72E087E494E00E946A247A
:101AB0006CE271E080E090E00E94491F67EF72E005
:101AC00087E494E00E946A246CE271E080E090E098
:101AD0000E94491F6CEF72E087E494E00E946A2440
:101AE00081E080934D0381E090E0909361038093C7
:101AF0006003CAC180905C0390905D03A0905E0378
:101B0000B0905F0389288A288B2841F460935C0396
:101B100070935D0380935E0390935F0380905C03FA
:101B200090905D03A0905E03B0905F032B013C0199
:101B3000481859086A087B08D7011896ED91FC915E
:101B4000199760857185882777FD8095982F0E9469
:101B500063272091560330915703409158035091C9
:101B600059030E945F2629E23CE54FE05CE30E94B6
:101B700017286B017C01C301B2010E9461279B0100
:101B8000AC01C701B6010E94172820E034E244E707
:101B900059E40E94C8262091490330914A0340919C
:101BA0004B0350914C030E9460264B015C016093F3
:101BB000490370934A0380934B0390934C03209105
:101BC00045033091460340914703509148030E94DA
:101BD0001328181644F48092450390924603A0926D
:101BE0004703B0924803B8EB4B16BBE05B066104B9
:101BF000710408F449C120E030E0A901C701B60131
:101C00000E94132818165CF42DEC3CEC4CEC5DE3C0
:101C1000C701B6010E94C42687FF36C10BC02DEC58
:101C20003CEC4CEC5DEBC701B6010E941328181682
:101C30000CF02AC180914403811112C068EF71E059
:101C400087E494E00E94582410925C0310925D0394
:101C500010925E0310925F0381E08093440314C1ED
:101C6000209145033091460340914703509148032A
:101C700060E070E084EB93E40E94C82629E23CE532
:101C80004FE05CE30E941728609340037093410388
:101C9000809342039093430362EF71E087E494E002
:101CA0000E94582465EE71E087E494E00E942624A7
:101CB000409145035091460360914703709148035A
:101CC00022E030E087E494E00E944C2665ED71E06C
:101CD00087E494E00E942624409140035091410300
:101CE000609142037091430322E030E087E494E086
:101CF0000E944C268091560390915703A09158035F
:101D0000B09159038D879E87AF87B88B8091400330
:101D100090914103A0914203B09143038D8B9E8B20
:101D2000AF8BB88F80914E0390914F03A0915003D9
:101D3000B0915103898B9A8BAB8BBC8B6E01EDE01C
:101D4000CE0ED11CE12CF12CD6016D916D01C70195
:101D5000698F0E946C2D698D681719F0C7010E9468
:101D6000742DBFEFEB1AFB0AECE0EE16F10461F7FD
:101D70008E010F5F1F4FE12CF12CC7010E946C2DCB
:101D8000D8018D938D01BFEFEB1AFB0AECE0EE1644
:101D9000F10499F749805A806B807C808D809E8009
:101DA000AF80B884C984DA84EB84FC846CEA71E087
:101DB00087E494E00E94582463EA71E087E494E0A9
:101DC0000E94262440915603509157036091580376
:101DD0007091590322E030E087E494E00E944A26A3
:101DE00068E971E087E494E00E94262422E030E074
:101DF000B301A20187E494E00E944C266EE871E0F2
:101E000087E494E00E94262440914E0350914F03B2
:101E1000609150037091510322E030E087E494E038
:101E20000E944A2663E871E087E494E00E94262439
:101E300022E030E0B501A40187E494E00E944C2642
:101E400063E771E087E494E00E9426244091400318
:101E500050914103609142037091430322E030E0CE
:101E600087E494E00E944A2668E671E087E494E003
:101E70000E94262422E030E0B701A60187E494E026
:101E80000E944C2681E001C080E069960FB6F8946C
:101E9000DEBF0FBECDBFDF91CF911F910F91FF909D
:101EA000EF90DF90CF90BF90AF909F908F907F90FA
:101EB0006F905F904F900895FC01808591850E94FE
:101EC0000E12AB01BC0122E030E087E494E00E94F6
:101ED0004C2680E0089544E0FC01828193810E94B9
:101EE000590391E0843009F090E0892F089541E092
:101EF000FC01828193810E94590391E0813009F0B5
:101F000090E0892F089542E0FC01828193810E9434
:101F1000590391E0823009F090E0892F0895CF9322
:101F2000DF93EC0188810E948C21892B09F452C037
:101F3000898181114FC088859985009711F00E9491
:101F40004B124E8550E0FA013197EF30F10598F5CC
:101F5000EE58FF4F0C940B29CE010E94570A39C04E
:101F6000CE010E94E80A35C0CE010E94070B31C0A5
:101F7000CE010E94450B2DC0CE010E94200C29C02D
:101F8000CE010E945C0F25C063E001C061E0CE017C
:101F90000E946B0F1EC063E001C061E0CE010E9491
:101FA000770F17C063E001C061E0CE010E94830F8C
:101FB00010C019820FC064E972E087E494E00E94C7
:101FC00026244AE050E06E8587E494E00E942C25A8
:101FD00081E089838981DF91CF9108958EBD0000D2
:101FE0000DB407FEFDCF8EB508951F93CF93DF93F9
:101FF000FC0123A92223A1F085A991E0980F95ABBC
:10200000DF01A80FB11DA80FB11D53964C91539736
:1020100054963C91215023AB903199F415AA11C0EC
:1020200080898823F9F0228991E0920F928BDF0159
:10203000A20FB11D1C918150808B903129F4128A1E
:1020400003C0842F932F15C08BE50E94EE0F282F1D
:1020500030E0D22FCC27812F0E94EE0F9E01282B3B
:10206000C90107C08AE50E94EE0F282F30E010E07A
:10207000F0CFDF91CF911F9108950F931F93CF93CE
:10208000DF93CDB7DEB78C018CE0EAE0F2E0D80157
:10209000539601900D928A95E1F7F80111AA12AAC0
:1020A00013AAEC5AFF4F108231961082319610829B
:1020B0003196108233961182108232968EE190E032
:1020C0009183808388E691E00E942929F80190A3FA
:1020D000878FE25AFF4F118210823296118210824E
:1020E00083E1FE013796D80101900D928A95E1F7C0
:1020F0000E9458158CB58C7F81608CBD8DB58E7F0C
:102100008DBDF801EE59FF4F81E08083DF91CF91C3
:102110001F910F910895CF92DF92EF92FF920F934C
:102120001F93CF93DF93CDB7DEB72C970FB6F894FC
:10213000DEBF0FBECDBFC982DA8229813A8121502C
:10214000310981E02230310508F080E02C960FB68D
:10215000F894DEBF0FBECDBFDF91CF911F910F91DD
:10216000FF90EF90DF90CF9008953F924F925F9253
:102170006F927F928F929F92AF92BF92CF92DF9297
:10218000EF92FF920F931F93CF93DF93CDB7DEB7FC
:102190002C970FB6F894DEBF0FBECDBF4C01C9829D
:1021A000DA82EB82FC820D831E8349875A873A2CA0
:1021B0000D811E81FC01618172818B819C81681B74
:1021C000790B77FF03C0719561957109882777FDB9
:1021D0008095982F0E946327F401238134814581E3
:1021E00056810E9417282B013C0189859A8597FD0D
:1021F0000196BC0175956795600F711F882777FD63
:102200008095982F0E946327F401278130854185AE
:1022100052850E9417284B015C01A30192010E9484
:102220005F266B017C01332009F445C06CE173E04B
:1022300087E494E00E94262469817A814AE050E094
:1022400087E494E00E94432566E173E087E494E02C
:102250000E9426244AE050E0B80187E494E00E94FE
:1022600043256BE073E087E494E00E94262422E09B
:1022700030E0B301A20187E494E00E944A266EEFA9
:1022800072E087E494E00E94262422E030E0B50169
:10229000A40187E494E00E944A2664EF72E087E498
:1022A00094E00E94262422E030E0B701A60187E4F2
:1022B00094E00E944C26C701B6012C960FB6F89404
:1022C000DEBF0FBECDBFDF91CF911F910F91FF9069
:1022D000EF90DF90CF90BF90AF909F908F907F90C6
:1022E0006F905F904F903F900895FC0180810E9415
:1022F000DE1F83319105B4F0BC01882777FD8095FE
:10230000982F0E9463272FED3FE443E951E40E9498
:102310005F269B01AC016AE979EA86E195E40E94B7
:10232000C826089560E070EC89E794E40895EF9280
:10233000FF920F931F93CF93DF93EC018C010C5FFF
:102340001F4FC8010E949D0480E793E00E942F1850
:1023500042E050E063E070E0C8010E949105811105
:1023600007C064ED72E087E494E00E945824FFCF38
:10237000C8010E94CF041D8A1E8A1F8A188E198ADE
:102380001A8A1B8A1C8A188219821A821B827E0171
:1023900089E1E80EF11C00E010E0C8010E946C2DFC
:1023A000F70181937F010F5F1F4F0C301105A9F7D3
:1023B0006DEC72E087E494E00E942624498D5A8DEA
:1023C0006B8D7C8D22E030E087E494E00E944A2609
:1023D00064EC72E087E494E00E9426244D8D5E8DCB
:1023E0006F8D78A122E030E087E494E00E944A26D5
:1023F00064EB72E087E494E00E94262449A15AA18C
:102400006BA17CA122E030E087E494E0DF91CF91E2
:102410001F910F91FF90EF900C944C26CF92DF927A
:10242000EF92FF92FC0120813181428153816189C9
:102430007289838994890E9460266B017C0120E067
:1024400030E044EB53E40E941328181654F420E0C3
:1024500030E044EB53E4C701B6010E945F266B01F4
:102460007C0120E030E0A901C701B6010E94C4262A
:1024700087FF0AC020E030E044EB53E4C701B60117
:102480000E9460266B017C01C701B601FF90EF90AE
:10249000DF90CF9008954F925F926F927F928F92CC
:1024A0009F92AF92BF92CF92DF92EF92FF92CF9323
:1024B000DF93EC0104960E94E7040E94261FCD885A
:1024C000DE88EF88F88C2B013C014C185D086E0803
:1024D0007F086D8B7E8B8F8B988F68857985882799
:1024E00077FD8095982F0E946327298D3A8D4B8D1B
:1024F0005C8D0E945F266B017C0120E030E0A90129
:102500000E94132846015701181624F0B7FAB09418
:10251000B7F8B09420E030E040E450E46D8D7E8D5B
:102520008F8D98A10E9417289B01AC01C501B401B1
:102530000E94C42687FF03C0C12CD12C7601C301A1
:10254000B2010E9461279B01AC01C701B6010E9444
:10255000172820E034E244E759E40E94C82629A164
:102560003AA14BA15CA10E94172829893A894B897D
:102570005C890E9460266B017C0120E030E0A901AB
:102580000E94C42620E030E044EB53E487FF05C0FE
:10259000C701B6010E94602613C0C701B6010E94A0
:1025A000132887FF05C0C98ADA8AEB8AFC8A0CC027
:1025B00020E030E044EB53E4C701B6010E945F26FF
:1025C000698B7A8B8B8B9C8BDF91CF91FF90EF90F7
:1025D000DF90CF90BF90AF909F908F907F906F9043
:1025E0005F904F900895FC01408351836283738311
:1025F0000895CF92DF92EF92FF92FC016130710556
:1026000069F024F4672BC9F480810BC06230710536
:1026100039F06330710589F4838103C0818101C081
:1026200082810E94DE1FBC01882777FD8095982F4C
:102630000E9463276B017C0103C0C12CD12C760161
:1026400020E030E048E951E4C701B6010E94C42609
:1026500087FD11C02FED3FE443E951E4C701B60106
:102660000E945F269B01AC016AE979EA86E195E464
:102670000E94C82604C060E070EC89E794E4FF90F3
:10268000EF90DF90CF9008953F924F925F926F92BC
:102690007F928F929F92AF92BF92CF92DF92EF92F2
:1026A000FF920F931F93CF93DF9300D01F92CDB76C
:1026B000DEB7AC015B01FC0180AD81114AC0EE24A4
:1026C000EA94FE2C6A01F2E0CF0ED11CC6014A83C7
:1026D0005B830E94F50F8C014A815B81009759F45E
:1026E000EF2811F07801F2CF8AE090E00E94711F8C
:1026F00080E090E0DFC085352AEA920749F485E55D
:10270000E8168AEAF80671F7FA0112AE11AE23C094
:102710008635FAEA9F0759F425E5E2162AEAF20619
:1027200009F781E090E0FA0192AF81AF14C08A3AD4
:10273000F5E59F07B9F66FEF72E087E494E04A830E
:102740005B830E946A2480E00E94EE0F4A815B81D5
:10275000C9CFFA0110AEFA0114AE13AE6A01F2E06D
:10276000CF0ED11C6CE0362E88248394912CFA0174
:1027700083AD94AD8A159B0508F09CC08238910505
:1027800008F098C0C6014A835B830E94F50F8C0154
:102790004A815B81FA0123AD34AD8535FAEA9F07A2
:1027A00031F481E0FA0180AF12AE11AE0BC0863574
:1027B000FAEA9F0749F481E0FA0180AF81E090E0F6
:1027C00092AF81AFC90176C00097E1F3FA0185AD00
:1027D00096AD8217930798F44E9696AF85AF389EC4
:1027E000B001399E700D1124808191814A835B83F1
:1027F0000E94502A4A815B81FA0191838083FA0109
:1028000023AD34AD329EC001339E900D1124E08083
:10281000F180E80EF91E3701412C512C20E0FA011D
:1028200081AD92AD892B31F4253021F4F701138667
:10283000128612C0C60129834A835B830E94F50F6A
:10284000480E591EF301819391933F0129812F5F17
:102850004A815B81263019F70415150539F4FA0110
:1028600083AD94AD019694AF83AF0AC067E073E087
:1028700087E494E04A835B830E946A245B814A81F7
:10288000C6014A835B830E94F50F4A815B818535CF
:10289000FAEA9F0721F4FA0112AE11AE68CF86352D
:1028A0009A4A21F4FA0192AE81AE61CFFA0183AD6A
:1028B00094AD00C00F900F900F90DF91CF911F91BA
:1028C0000F91FF90EF90DF90CF90BF90AF909F90CF
:1028D0008F907F906F905F904F903F9008952F92D0
:1028E0003F924F925F926F927F928F929F92AF92A0
:1028F000BF92CF92DF92EF92FF920F931F93CF93ED
:10290000DF93CDB7DEB762970FB6F894DEBF0FBE88
:10291000CDBF3C014B018CE0FB017396D3010190CC
:102920000D928A95E1F78B01015E1F4F68EE73E00F
:10293000C8010E9444132C0168EE73E0C8010E9494
:102940004413480E591E212C312C1E861D8680EF03
:102950008F8793E2988BE4E7E98BF9ECFA8BED85AE
:10296000FE85E415F5050CF062C0F401878D90A199
:10297000820D931DFC01DE0111962CE001900D9259
:102980002A95E1F7FC01E080F18006811781A0849F
:10299000B184C7010197029708F040C00A9DB001B9
:1029A0000B9D700D1A9D700D112480E090E00E9427
:1029B0006127F40127853089418952890E941328B3
:1029C000181664F5CE2CFA82E982202F18870F831F
:1029D0004A2DBA86A986A12CDA80EB80FC800D8175
:1029E0001E8138855A856B857C85C4010E94B5108F
:1029F0007B018C012F85388949895A890E941328C7
:102A000087FD0CC0FE013196D3018CE001900D9240
:102A10008A95E1F7EF86F88A098B1A8B8D859E855A
:102A200001969E878D879CE0290E311C98CFF4017A
:102A300023853485458556856F85788989899A8966
:102A40000E941328181694F4F30180819181019754
:102A5000880F991F880D991DFC01E25AFF4F2081B4
:102A600031812F5F3F4F3183208308C08CE0F40118
:102A70007396D30101900D928A95E1F7C301629696
:102A80000FB6F894DEBF0FBECDBFDF91CF911F917F
:102A90000F91FF90EF90DF90CF90BF90AF909F90FD
:102AA0008F907F906F905F904F903F902F90089500
:102AB000CF93CFB7F89480916F03811127C0E4E0E2
:102AC000F4E08491EEEBF3E09491E82FF0E0EE0F68
:102AD000FF1FE75BFB4FA591B4918C91892321F4F3
:102AE00061E085E30E94562161E085E30E941D219B
:102AF0008CB580618CBD8CB580648CBD61E084E355
:102B00000E941D2161E083E30E941D2180916F03DB
:102B10008F5F80936F03CFBFCF910895DC01ED915C
:102B2000FC91119712968D919C9113978F71992713
:102B300041E050E060E070E004C0440F551F661FA4
:102B4000771F8A95D2F780819181A281B381842BEE
:102B5000952BA62BB72B80839183A283B3830895F3
:102B6000FB014081518162817381FC01408351836B
:102B7000628373830895AC015395FC019F01205E2D
:102B80003F4F1192119211921192E217F307C9F778
:102B9000E417F50799F720E030E040E050E0BC0191
:102BA000620F731FFB01E40FF51F10821182128266
:102BB00013824C5F5F4F40325105A1F7205E3F4FBB
:102BC000211541E0340749F70895CF92DF92EF9243
:102BD000FF920F931F93CF93DF93EB01AC015395BB
:102BE000FC019F01205E3F4F1192119211921192B0
:102BF000E217F307C9F7E417F50799F720E030E08B
:102C0000E0E0F0E08C01021B130B6E01C20ED31E3C
:102C10007801EE0EFF1E40EEE40EF11CA6014E0FF1
:102C20005F1FDA014D915D916D917C91D7014D93BC
:102C30005D936D937C9313973496E032F10541F7E1
:102C4000205E3F4F2115B1E03B07D1F6DF91CF91D8
:102C50001F910F91FF90EF90DF90CF9008950F9309
:102C60001F93CF93DF93EC01662319F00E948E151A
:102C700021C0E881F9818A819B818F71992741E088
:102C800050E060E070E004C0440F551F661F771FDE
:102C90008A95D2F740955095609570950081118185
:102CA00022813381042315232623372300831183B4
:102CB00022833383CE01DF91CF911F910F9108952D
:102CC0000F931F93CF93DF9300D000D0CDB7DEB723
:102CD0008C016130E9F080F0623031F1633009F04D
:102CE00043C09A83898387E090E09C838B83CE01E5
:102CF00001960E948E152EC09A83898387E090E00A
:102D00009C838B8360E0CE0101960E942F1616C033
:102D10009A83898387E090E09C838B8360E0CE0177
:102D200001960E942F1616C09A83898387E090E04F
:102D30009C838B83CE0101960E948E151A83098392
:102D400086E090E09C838B8360E0CE0101960E9438
:102D50002F160AC01A83098386E090E09C838B8338
:102D6000CE0101960E948E150F900F900F900F903C
:102D7000DF91CF911F910F910895FF920F931F93B1
:102D8000CF93DF9300D000D0CDB7DEB78C01F62E05
:102D90009A83898385E090E09C838B8362FF05C0E2
:102DA000CE0101960E948E1505C060E0CE0101960D
:102DB0000E942F161A83098384E090E09C838B8302
:102DC000F1FE05C0CE0101960E948E1505C060E09F
:102DD000CE0101960E942F161A83098383E090E0AA
:102DE0009C838B83F0FE05C0CE0101960E948E1558
:102DF00005C060E0CE0101960E942F160F900F9043
:102E00000F900F90DF91CF911F910F91FF90089538
:102E1000FF920F931F93CF93DF9300D000D0CDB7D5
:102E2000DEB78C01F62E9A83898382E090E09C8342
:102E30008B8362FF05C0CE0101960E948E1505C0EE
:102E400060E0CE0101960E942F161A83098381E06B
:102E500090E09C838B83F1FE05C0CE0101960E9419
:102E60008E1505C060E0CE0101960E942F161A83D0
:102E700009831C821B82F0FE05C0CE0101960E94D0
:102E80008E1505C060E0CE0101960E942F160F90AE
:102E90000F900F900F90DF91CF911F910F91FF90A6
:102EA0000895CF93DF9300D000D0CDB7DEB79A83DB
:102EB000898388E090E09C838B83CE0101960E94F9
:102EC0002F160F900F900F900F90DF91CF910895D4
:102ED000EF92FF920F93CF93DF9300D0CDB7DEB781
:102EE0007C01FC0110821182128213822A834983A1
:102EF0000E9460164981642FC7010E94BD162A8175
:102F0000622FC7010E940817602FC7010F900F9012
:102F1000DF91CF910F91FF90EF900C9451170F9389
:102F200000E020E040E061E00E9468170F91089502
:102F30008091A00390E02091A103821B9109089544
:102F40002091A1038091A003281750F4E22FF0E014
:102F5000EE55FC4F808190E02F5F2093A1030895F0
:102F60008FEF9FEF0895E091A1038091A003E817F0
:102F700030F4F0E0EE55FC4F808190E008958FEF43
:102F80009FEF08950895CF92DF92EF92FF920F93F3
:102F90001F93CF93DF937C01CB018A0120917C03A7
:102FA000222389F0EB016B01C40ED51ECC15DD0583
:102FB00069F06991D701ED91FC910190F081E02DCC
:102FC000C7010995F3CF642F0E942219C801DF9130
:102FD000CF911F910F91FF90EF90DF90CF900895C8
:102FE000CF93DF931F92CDB7DEB7698320917C0327
:102FF0002223D1F020917D03203240F021E030E007
:10300000FC013383228380E090E015C080917E0331
:10301000E82FF0E0E158FC4F998190838F5F809317
:103020007E0380937D0305C061E0CE0101960E947E
:10303000221981E090E00F90DF91CF910895FC017B
:103040001382128248EE53E060E070E044835583BF
:103050006683778384E193E091838083089510925F
:10306000A1031092A00310927E0310927D030C9492
:103070006D18862F413208F040E262EA73E00E9448
:103080008B181092A1038093A003089521E00C9463
:10309000391881E080937C0360939F0310927E0334
:1030A00010927D0308950F93062F21E040917D0338
:1030B0006FE773E080919F030E94CF1810927E0308
:1030C00010927D0310927C030F91089561E00C949F
:1030D000531880E793E00C941F1810922F0481E09E
:1030E00080932D0410922C0461E084E10E9456210B
:1030F00061E085E10E945621E9EBF0E080818E7F5E
:10310000808380818D7F808388E48093B80085E40C
:103110008093BC000895413208F03FC090912F0485
:103120009111FCCF91E090932F0420932D042FEF69
:103130002093C20310920704240F20930604909357
:103140002E0490912E04880F892B80932E04809159
:103150002C04813041F410922C0480912E04809331
:10316000BB0085EC01C085EE8093BC0080912F04EC
:103170008130E1F380910704841710F44091070433
:1031800028E034E0FB01D9018A2F821B841718F450
:103190008D918193F9CF842F089580E008950F9346
:1031A000413208F046C090912F049111FCCF92E07B
:1031B00090932F0400932D049FEF9093C2031092DD
:1031C000070440930604FB0168E074E0DB019A2FDA
:1031D000961B941718F491919D93F9CF10922E0499
:1031E00090912E04880F892B80932E0480912C04BB
:1031F000813041F410922C0480912E048093BB0006
:1032000085EC01C085EE8093BC00222321F08091E3
:103210002F048230E1F38091C2038F3F61F08091EF
:10322000C203803251F08091C203803341F483E0C5
:1032300007C081E005C080E003C082E001C084E0F7
:103240000F910895613298F420912F04243089F46D
:103250006093E403FC0186EE93E0DC012A2F281B37
:10326000261718F421912D93F9CF80E0089581E07D
:10327000089582E0089585ED8093BC008091BC00A4
:1032800084FDFCCF10922F04089585EC8093BC0040
:1032900010922F0408951F920F920FB60F921124CF
:1032A0000BB60F922F933F934F935F936F937F9340
:1032B0008F939F93AF93BF93EF93FF938091B90048
:1032C000887F803609F49CC068F5883209F45BC0B9
:1032D00090F4803109F454C038F4882309F4F5C01F
:1032E000883009F44DC0F5C0883109F44CC08032F3
:1032F00009F45DC0EEC0803409F468C048F480333E
:1033000009F455C0883309F0E4C08093C203A8C013
:10331000803509F44FC0883509F45DC0883409F060
:10332000D8C0D5C0883909F4C6C0A8F4883709F4D4
:1033300067C038F4883609F463C0803709F460C088
:10334000C8C0883809F4B7C0803909F45FC0803834
:1033500009F0BFC05BC0803B09F485C038F4803AF7
:1033600009F466C0883A09F47EC0B3C0803C09F411
:10337000A6C0883C09F4A3C0883B09F489C0A9C051
:1033800080912E0410C09091070480910604981734
:1033900070F5E091070481E08E0F80930704F0E060
:1033A000E85FFB4F80818093BB0085EC85C08093F4
:1033B000C2038DC0E091070481E08E0F8093070463
:1033C0008091BB00F0E0E85FFB4F808390910704A1
:1033D000809106046DC0E091070481E08E0F809318
:1033E00007048091BB00F0E0E85FFB4F8083809191
:1033F0002D0481116CC081E080932C0484EA60C0AC
:1034000083E080932F041092C303CFCF8091C30336
:10341000803208F050C0E091C30381E08E0F8093AA
:10342000C3038091BB00F0E0EC53FC4F8083BDCF21
:103430008091C303803230F4E091C303F0E0EC5399
:10344000FC4F10820E943B196091C30370E0E09131
:103450002804F091290484EC93E009951092C303A9
:103460000E94451936C084E080932F041092E50332
:103470001092E403E0912A04F0912B0409958091C5
:10348000E403811105C081E08093E4031092E60318
:10349000E091E50381E08E0F8093E503F0E0EA51CF
:1034A000FC4F80818093BB009091E5038091E40301
:1034B000981708F47ACF85E88093BC000AC085ECA1
:1034C0008093BC0010922F0404C01092C2030E948B
:1034D0003B19FF91EF91BF91AF919F918F917F9198
:1034E0006F915F914F913F912F910F900BBE0F9075
:1034F0000FBE0F901F9018952F923F924F925F92A0
:103500006F927F928F929F92AF92BF92CF92DF92F3
:10351000EF92FF920F931F93CF93DF93CDB7DEB758
:10352000C157D2400FB6F894DEBF0FBECDBF80901A
:103530003C0490903D04C559DD4F99828882CB565A
:10354000D240A0903604B0903704C059DD4FB98204
:10355000A882C057D240C0903404D0903504E09087
:103560003204F090330420903A0430903B04809071
:10357000380490903904C359DD4F99828882CD5622
:10358000D2408E010F5E1E4F80E191E0F8019C0158
:10359000119221503040E1F788E0E6E1F2E0DE01EF
:1035A000AD59BD4F01900D928A95E1F783E1EEE1AF
:1035B000F2E0DE01AC5CBD4F01900D928A95E1F71F
:1035C00026E040E855E260E070E087E494E00E9485
:1035D000C7228091080290E0FC013197EF30F1059D
:1035E000A8F5EF57FF4F0C940B293CE10BC08CE181
:1035F0003FC099E110C0E1E015C0F4E01AC024E03A
:103600001FC03BE3C159DD4F3883CF56D24035C090
:103610008BE32EC09EE3C159DD4F9883CF56D24035
:103620002CC0EEE3C159DD4FE883CF56D24025C010
:10363000FBE3C159DD4FF883CF56D2401EC02BE3C8
:10364000C159DD4F2883CF56D24017C063E273E0E3
:1036500087E494E00E9426244AE050E0609108024A
:1036600087E494E00E942C25FFCF3FE3CBCF88E096
:10367000C159DD4F8883CF56D240C159DD4F888173
:10368000CF56D240807209F40EC2C059DD4F8880F7
:103690009980C057D240C55ADD4F99828882CB5558
:1036A000D240C35ADD4FD982C882CD55D240C15ACB
:1036B000DD4F39822882CF55D240CF59DD4FF98274
:1036C000E882C156D24080E090E0A0E2B1E4F80187
:1036D00080839183A283B38380E090E0A0EAB0E48A
:1036E00084839583A683B78380E090E0A0E4B0E470
:1036F00080879187A287B3878AE0848781E0858766
:1037000081E990E0A0E0B0E0808B918BA28BB38B3D
:1037100081E8482E512C612C712C448A558A668A86
:10372000778A408E518E628E738E448E558E668E51
:10373000778E40A251A262A273A28BE890E0A0E033
:10374000B0E084A395A3A6A3B7A340A651A662A602
:1037500073A681EC90E0A0E0B0E084A795A7A6A7AF
:10376000B7A781E090E0A0E0B0E080AB91ABA2AB66
:10377000B3ABC35ADE4F88839983AA83BB83CD55ED
:10378000D14049E050E060E070E0CF59DE4F48831F
:1037900059836A837B83C156D140C358DE4F488327
:1037A00059836A837B83CD57D140C356DE4F8883CC
:1037B0009983AA83BB83CD59D140CF55DE4F48832F
:1037C00059836A837B83C15AD140CB55DE4F8883AE
:1037D0009983AA83BB83C55AD140C755DE4F8883DE
:1037E0009983AA83BB83C95AD140C355DE4F8883CE
:1037F0009983AA83BB83CD5AD140CF54DE4F8883AF
:103800009983AA83BB83C15BD140CB54DE4F8883AD
:103810009983AA83BB83C55BD140C754DE4F88839D
:103820009983AA83BB83C95BD140C354DE4F88838D
:103830009983AA83BB83CD5BD1404AE350E060E02B
:1038400070E0CF53DE4F488359836A837B83C15C2A
:10385000D14041E250E060E070E0CB53DE4F48835E
:1038600059836A837B83C55CD140C753DE4F48834D
:1038700059836A837B83C95CD140C353DE4F8883FD
:103880009983AA83BB83CD5CD140CF52DE4F88831E
:103890009983AA83BB83C15DD140CB52DE4F88831D
:1038A0009983AA83BB83C55DD140C752DE4F88830D
:1038B0009983AA83BB83C95DD14021E6822E912CD6
:1038C000A12CB12CC352DE4F88829982AA82BB827E
:1038D000CD5DD14035E9832E912CA12CB12CCF5157
:1038E000DE4F88829982AA82BB82C15ED140CB51D1
:1038F000DE4F488259826A827B82C55ED140C751C1
:10390000DE4F488359836A837B83C95ED140C351AC
:10391000DE4F88839983AA83BB83CD5ED140CF508D
:10392000DE4F488359836A837B83C15FD140CB508C
:10393000DE4F488359836A837B83C55FD140C7507C
:10394000DE4F88839983AA83BB83C95FD1401AE67F
:10395000412E512C612C712CC350DE4F488259826C
:103960006A827B82CD5FD14001E3402E512C612CD5
:10397000712CCF5FDD4F488259826A827B82C150B1
:10398000D240CB5FDD4F88839983AA83BB83C55028
:10399000D240C75FDD4F488359836A837B83C95018
:1039A000D240C35FDD4F488359836A837B83CD5008
:1039B000D240CF5EDD4F488359836A837B83C151F8
:1039C000D240CB5EDD4F488359836A837B83C551E8
:1039D000D240C75EDD4F488359836A837B83C951D8
:1039E000D24089E490E0A0E0B0E0C35EDD4F888380
:1039F0009983AA83BB83CD51D24080E191E0DE015F
:103A0000119601900D920197E1F781E291E00E94F9
:103A1000E6233C012DB73EB7205131400FB6F89454
:103A20003EBF0FBE2DBFADB7BEB7119680E191E08E
:103A3000FE01319601900D920197E1F7C55ADD4FD5
:103A40000881CB55D240C45ADD4F1881CC55D240A5
:103A5000C35ADD4F2881CD55D240C25ADD4F38813F
:103A6000CE55D240C15ADD4F4881CF55D240C05AC1
:103A7000DD4F5881C056D240CF59DD4F6881C156C5
:103A8000D240CE59DD4F7881C256D240C3010E9448
:103A90007F0270923D0460923C040FB6F894DEBF42
:103AA0000FBECDBF04C010923D0410923C04C1591A
:103AB000DD4F8880CF56D24084FE16C08BE190E067
:103AC0000E94E6238C012091380430913904409102
:103AD00032045091330465E074E60E94F4061093BA
:103AE0003B0400933A0404C010923B0410923A0441
:103AF000C159DD4F9880CF56D24093FE3FC088E039
:103B0000FE01ED59FD4FDE01AD5ABD4F01900D9202
:103B10008A95E1F788E090E00E94E6233C01CD5AC7
:103B2000DD4F0881C355D240CC5ADD4F1881C455B2
:103B3000D240CB5ADD4F2881C555D240CA5ADD4FFD
:103B40003881C655D240C95ADD4F4881C755D24049
:103B5000C85ADD4F5881C855D240C75ADD4F6881D9
:103B6000C955D240C65ADD4F7881CA55D2400E940D
:103B70001E06709239046092380404C01092390411
:103B800010923804C159DD4FA880CF56D240A0FE14
:103B900031C083E1FE01EC5CFD4FDE01AF5DBD4F46
:103BA00001900D928A95E1F783E690E00E94E6236A
:103BB0008C012DB73EB7235131090FB6F8943EBFA3
:103BC0000FBE2DBFADB7BEB7119683E1FE01EF5D0D
:103BD000FD4F01900D928A95E1F7C8010E943D10BA
:103BE00010933704009336040FB6F894DEBF0FBE6F
:103BF000CDBF04C01092370410923604C159DD4F76
:103C00008880CF56D24081FE10C084E090E00E94B0
:103C1000E6238C0141E052E063E074E00E94F3127D
:103C2000109335040093340404C0109235041092AC
:103C30003404C159DD4F9880CF56D24092FE0CC05B
:103C400085E290E00E94E6238C010E949711109378
:103C500033040093320404C01092330410923204EF
:103C6000C559DD4FA880B980CB56D240C95BDD4F26
:103C7000B982A882C754D240C059DD4F888099804C
:103C8000C057D240C75BDD4F99828882C954D24069
:103C9000C55BDD4FD982C882CB54D240C35BDD4FB8
:103CA000F982E882CD54D240C15BDD4F398228824F
:103CB000CF54D240C359DD4FA880B980CD56D240F1
:103CC000CF5ADD4FB982A882C155D2408FE090E033
:103CD0000E94E6233C01C95BDD4F8880C754D24077
:103CE000C85BDD4F9880C854D240C75BDD4FA880C9
:103CF000C954D240C65BDD4FB880CA54D240C55BC0
:103D0000DD4FC880CB54D240C45BDD4FD880CC544B
:103D1000D240C35BDD4FE880CD54D240C25BDD4F63
:103D2000F880CE54D240C15BDD4F0881CF54D240E1
:103D3000C05BDD4F1881C055D240CF5ADD4F28817E
:103D4000C155D240CE5ADD4F3881C255D24045E4EC
:103D5000609108020E94FE09709231046092300462
:103D6000CF58DD4F0FB6F894DEBF0FBECDBFDF9149
:103D7000CF911F910F91FF90EF90DF90CF90BF9068
:103D8000AF909F908F907F906F905F904F903F90FB
:103D90002F90089580913004909131040C948F0FEE
:103DA0001F920F920FB60F9211242F933F938F9370
:103DB0009F93AF93BF9380913F0490914004A09153
:103DC0004104B091420430913E0423E0230F2D378B
:103DD00020F40196A11DB11D05C026E8230F02960F
:103DE000A11DB11D20933E0480933F049093400495
:103DF000A0934104B0934204809143049091440401
:103E0000A0914504B09146040196A11DB11D809377
:103E1000430490934404A0934504B0934604BF9197
:103E2000AF919F918F913F912F910F900FBE0F9067
:103E30001F9018952FB7F89460913F04709140043B
:103E400080914104909142042FBF08953FB7F894A8
:103E50008091430490914404A0914504B09146049C
:103E600026B5A89B05C02F3F19F00196A11DB11DD5
:103E70003FBF6627782F892F9A2F620F711D811DF2
:103E8000911D42E0660F771F881F991F4A95D1F751
:103E90000895CF92DF92EF92FF92CF93DF936B0161
:103EA0007C010E94261FEB01C114D104E104F1043E
:103EB00089F00E945E260E94261F6C1B7D0B683EC7
:103EC000734090F381E0C81AD108E108F108C851A5
:103ED000DC4FEACFDF91CF91FF90EF90DF90CF9052
:103EE00008958230910538F0880F991F880F991F27
:103EF00005970197F1F70895789484B5826084BDA1
:103F000084B5816084BD85B5826085BD85B58160DD
:103F100085BDEEE6F0E0808181608083E1E8F0E03D
:103F20001082808182608083808181608083E0E86C
:103F3000F0E0808181608083E1EBF0E0808184604B
:103F40008083E0EBF0E0808181608083E1E9F0E054
:103F5000808182608083808181608083E0E9F0E0FD
:103F6000808181608083E1EAF0E0808182608083EB
:103F7000808181608083E0EAF0E0808181608083DD
:103F8000E1E2F1E0808182608083808181608083D2
:103F9000E0E2F1E0808181608083EAE7F0E0808107
:103FA000846080838081826080838081816080835F
:103FB0008081806880831092C1000895863308F064
:103FC000865320917B00982F9870277F922B909397
:103FD0007B0087702091090290E4299F90011124B1
:103FE000822B80937C0080917A00806480937A0099
:103FF00080917A0086FDFCCF809178002091790035
:1040000090E0922B08951F93CF93DF93182FEB012D
:1040100061E00E941D21209711F460E004C0CF3FB1
:10402000D10539F461E0812FDF91CF911F910C947C
:104030005621E12FF0E0ED5BFC4F449150E0FA0196
:104040003197E231F10508F09BC0E057FF4F0C9427
:104050000B2984B5806884BDC7BD97C084B58062D4
:1040600084BDC8BD92C0809180008068809380002C
:10407000D0938900C093880088C0809180008062BE
:1040800080938000D0938B00C0938A007EC0809183
:104090008000886080938000D0938D00C0938C0056
:1040A00074C08091B00080688093B000C093B3006A
:1040B0006CC08091B00080628093B000C093B40067
:1040C00064C080919000806880939000D0939900A4
:1040D000C09398005AC080919000806280939000B5
:1040E000D0939B00C0939A0050C08091900088604C
:1040F00080939000D0939D00C0939C0046C0809117
:10410000A00080688093A0008091A0008F7B8093A6
:10411000A000D093A900C093A80037C08091A00050
:1041200080628093A000D093AB00C093AA002DC002
:104130008091A00088608093A000D093AD00C093D0
:10414000AC0023C080912001806880932001D0932F
:104150002901C093280119C08091200180628093B9
:104160002001D0932B01C0932A010FC08091200120
:10417000886080932001D0932D01C0932C0105C04D
:10418000C038D1050CF04ECF48CFDF91CF911F91B1
:10419000089590E0FC013197E231F10508F04CC040
:1041A000EE55FF4F0C940B29809180008F7703C050
:1041B000809180008F7D80938000089580918000A1
:1041C000877FF9CF84B58F7702C084B58F7D84BD9A
:1041D00008958091B0008F7703C08091B0008F7DEB
:1041E0008093B0000895809190008F7707C08091F0
:1041F00090008F7D03C080919000877F8093900016
:1042000008958091A0008F7707C08091A0008F7DD6
:1042100003C08091A000877F8093A00008958091C3
:1042200020018F7707C0809120018F7D03C080918E
:104230002001877F809320010895CF93DF9390E042
:10424000FC01E757FC4F2491FC01E153FC4F8491A2
:10425000882349F190E0880F991FFC01E75BFB4F31
:10426000A591B491815D9B4FFC01C591D4919FB7FD
:10427000611108C0F8948C91209582238C938881D9
:1042800082230AC0623051F4F8948C91322F309519
:1042900083238C938881822B888304C0F8948C912B
:1042A000822B8C939FBFDF91CF9108950F931F9323
:1042B000CF93DF931F92CDB7DEB7282F30E0F901FF
:1042C000ED5BFC4F8491F901E757FC4F1491F90124
:1042D000E153FC4F04910023C9F0882321F0698346
:1042E0000E94C9206981E02FF0E0EE0FFF1FE15D21
:1042F000FB4FA591B4919FB7F8948C91611103C0C5
:104300001095812301C0812B8C939FBF0F90DF916B
:10431000CF911F910F910895CF93DF93282F30E015
:10432000F901ED5BFC4F8491F901E757FC4FD49103
:10433000F901E153FC4FC491CC2391F081110E940B
:10434000C920EC2FF0E0EE0FFF1FEB5EFB4FA591B5
:10435000B4912C912D2381E090E021F480E002C003
:1043600080E090E0DF91CF910895FC01818D228D56
:1043700090E0805C9F4F821B91098F73992708956D
:10438000FC01918D828D981731F0828DE80FF11D1F
:10439000858D90E008958FEF9FEF0895FC01918D3A
:1043A000828D981761F0828DDF01A80FB11D5D9697
:1043B0008C91928D9F5F9F73928F90E008958FEF05
:1043C0009FEF089589E893E2892B41F080E090E027
:1043D000892B21F00E948923811125C080E090E083
:1043E000892B41F080E090E0892B21F00E940000B1
:1043F00081111CC080E090E0892B41F080E090E0CA
:10440000892B21F00E940000811113C080E090E010
:10441000892BA1F080E090E0892B81F00E940000C0
:1044200081110AC008950E940000D8CF0E940000A8
:10443000E1CF0E940000EACF0C9400000895FC0137
:10444000848DDF01A80FB11DA35ABF4F2C91848D1D
:1044500090E001968F739927848FA689B7892C9352
:10446000A089B1898C9180648C93938D848D9813ED
:1044700006C00288F389E02D80818F7D80830895B6
:10448000CF93DF93EC01888D8823C9F0EA89FB89FB
:10449000808185FD05C0A889B9898C9186FD0FC0F2
:1044A0000FB607FCF5CF808185FFF2CFA889B989C7
:1044B0008C9185FFEDCFCE010E941F22E7CFDF91C7
:1044C000CF910895CF92DF92FF920F931F93CF93D6
:1044D000DF931F92CDB7DEB76C0181E0D60158960D
:1044E0008C9358975B969C915B975C968C915C97AC
:1044F000981307C05096ED91FC915197808185FDEE
:104500002EC0F601038D10E00F5F1F4F0F731127B0
:10451000F02EF601848DF81211C00FB607FCF9CF0A
:10452000D6015096ED91FC915197808185FFF1CF96
:10453000C60169830E941F226981EBCF838DE80F3A
:10454000F11DE35AFF4F6083D6015B960C935B9796
:104550005296ED91FC915397808180620CC0D601F8
:104560005696ED91FC91579760835096ED91FC9192
:10457000519780818064808381E090E00F90DF918B
:10458000CF911F910F91FF90DF90CF900895BF9230
:10459000CF92DF92EF92FF92CF93DF93EC016A010B
:1045A0007B01B22EE889F98982E08083411581EE92
:1045B000580761057105A1F060E079E08DE390E0B6
:1045C000A70196010E94E9282150310941095109AA
:1045D0005695479537952795211580E1380798F02E
:1045E000E889F989108260E874E88EE190E0A7011B
:1045F00096010E94E9282150310941095109569537
:10460000479537952795EC85FD853083EE85FF85A9
:104610002083188EEC89FD89B082EA89FB8980812C
:1046200080618083EA89FB89808188608083EA8950
:10463000FB89808180688083EA89FB8980818F7D06
:104640008083DF91CF91FF90EF90DF90CF90BF906C
:1046500008951F920F920FB60F9211240BB60F926E
:104660002F938F939F93EF93FF93E0915704F091D3
:1046700058048081E0915D04F0915E0482FD12C0D7
:104680009081809160048F5F8F7320916104821705
:1046900051F0E0916004F0E0E95BFB4F958F80936F
:1046A000600401C08081FF91EF919F918F912F91C4
:1046B0000F900BBE0F900FBE0F901F9018951F927A
:1046C0000F920FB60F9211240BB60F922F933F93B8
:1046D0004F935F936F937F938F939F93AF93BF930A
:1046E000EF93FF9387E494E00E941F22FF91EF91E4
:1046F000BF91AF919F918F917F916F915F914F91FA
:104700003F912F910F900BBE0F900FBE0F901F90F7
:10471000189587E494E00E94B52121E0892B09F4E3
:1047200020E0822F089510924A041092490488EEE6
:1047300093E0A0E0B0E080934B0490934C04A093EE
:104740004D04B0934E0484E293E090934804809328
:10475000470485EC90E0909354048093530484ECD8
:1047600090E0909356048093550480EC90E09093F1
:1047700058048093570481EC90E090935A048093FE
:10478000590482EC90E090935C0480935B0486EC87
:1047900090E090935E0480935D0410926004109208
:1047A00061041092620410926304089508950E94B7
:1047B0007C1F0E94D6230E947C1AC2EED1E20E9486
:1047C000CA1E2097E1F30E94E221F9CF0C94292917
:1047D000CF92DF92EF92FF920F931F93CF93DF93CD
:1047E0006C017A01EB01E60EF71E00E010E0CE1539
:1047F000DF0561F06991D601ED91FC910190F081A6
:10480000E02DC6010995080F191FF1CFC801DF91EE
:10481000CF911F910F91FF90EF90DF90CF9008956F
:104820006115710581F0DB010D900020E9F7AD0104
:1048300041505109461B570BDC01ED91FC91028060
:10484000F381E02D099480E090E00895EF92FF92CB
:104850000F931F93CF93DF938C01FB01C0E0D0E057
:1048600064917F018FEFE81AF80A662361F0D8019E
:10487000ED91FC910190F081E02DC8010995C80FE0
:10488000D91FF701EDCFCE01DF91CF911F910F918D
:10489000FF90EF9008950C941024DC01ED91FC91B1
:1048A0000190F081E02D099460E373E00C941024F2
:1048B0000F931F93CF93DF93EC010E9426248C016A
:1048C000CE010E945424800F911FDF91CF911F9140
:1048D0000F9108950F931F93CF93DF93EC010E94E4
:1048E00010248C01CE010E945424800F911FDF916F
:1048F000CF911F910F9108958F929F92AF92BF9287
:10490000CF92DF92EF92FF920F931F93CF93DF939B
:10491000CDB7DEB7A1970FB6F894DEBF0FBECDBFFF
:104920007C01C42EE52FCB01D22E19A221E02D153A
:1049300010F02AE0D22E8E010F5D1F4F8D2C912C8E
:10494000A12CB12C6C2D7E2FA50194010E94E92889
:104950008C2DD29E80191124015011098A3014F433
:10496000805D01C0895CF801808321153105410516
:10497000510521F0C22EE32FCA01E4CFB801C701CF
:104980000E941024A1960FB6F894DEBF0FBECDBFD3
:10499000DF91CF911F910F91FF90EF90DF90CF901B
:1049A000BF90AF909F908F900895CF92DF92EF923B
:1049B000FF920F931F93CF93DF93EC016A017B016A
:1049C0002115310579F4E881F9810190F081E02D1C
:1049D000642FDF91CF911F910F91FF90EF90DF90A7
:1049E000CF9009942A303105E9F477FF1AC06DE2BF
:1049F0000E944D248C0144275527BA014C195D09AA
:104A00006E097F092AE0CE010E947C24800F911F4D
:104A1000DF91CF911F910F91FF90EF90DF90CF909A
:104A200008952AE0B701A601CE01DF91CF911F9131
:104A30000F91FF90EF90DF90CF900C947C24211584
:104A4000310541F4DC01ED91FC910190F081E02D04
:104A5000642F09940C947C240F931F93CF93DF93BE
:104A6000EC019A01462F50E060E070E00E941F25A3
:104A70008C01CE010E945424800F911FDF91CF91B1
:104A80001F910F9108959A01AB0160E070E00C94C2
:104A90001F250F931F93CF93DF93EC019A01AB0176
:104AA00060E070E00E941F258C01CE010E9454241A
:104AB000800F911FDF91CF911F910F9108954F9219
:104AC0005F926F927F928F929F92AF92BF92CF929E
:104AD000DF92EF92FF920F931F93CF93DF93EC013E
:104AE0006A017B01B22E9A01AB01C701B6010E9497
:104AF000BC28882319F063E373E027C0260137013F
:104B0000E89477F82FEF3FEF4FE75FE7C301B2017B
:104B10000E94BC2881110DC02FEF3FEF4FE75FE7E8
:104B2000C301B2010E94C42618161CF467E373E0A7
:104B30000CC02FEF3FEF4FE75FE4C701B6010E94C3
:104B400013281816ACF46BE373E0CE01DF91CF911C
:104B50001F910F91FF90EF90DF90CF90BF90AF909B
:104B60009F908F907F906F905F904F900C94102447
:104B70002FEF3FEF4FE75FECC701B6010E94C4265D
:104B800087FDE1CF20E030E0A901C701B6010E9416
:104B9000C42687FF0AC06DE2CE010E944D248C011D
:104BA000F7FAF094F7F8F09402C000E010E0A12CBE
:104BB00060E070E080E09FE3AB1441F020E030E083
:104BC00040E251E40E94C826A394F6CF9B01AC01B9
:104BD000C701B6010E9460266B017C010E94352747
:104BE0002B013C010E9461279B01AC01C701B6016A
:104BF0000E945F266B017C012AE0B301A201CE0175
:104C00000E947C24080F191FBB2039F06AEF72E064
:104C1000CE010E941024080F191F7B2C772041F130
:104C200020E030E040E251E4C701B6010E941728BD
:104C30006B017C010E9430274B01AA2497FCA094B1
:104C4000BA2C2AE030E0B501A401CE010E94D5249F
:104C5000080F191FC501B4010E9463279B01AC0115
:104C6000C701B6010E945F266B017C017A94D6CF02
:104C7000C801DF91CF911F910F91FF90EF90DF90CE
:104C8000CF90BF90AF909F908F907F906F905F90EC
:104C90004F9008950C945F250F931F93CF93DF934C
:104CA000EC010E945F258C01CE010E945424800FEC
:104CB000911FDF91CF911F910F9108950895505842
:104CC000BB27AA270ED075C166D130F06BD120F07A
:104CD00031F49F3F11F41EF45BC10EF4E095E7FB45
:104CE00051C1E92F77D180F3BA17620773078407A0
:104CF000950718F071F49EF58FC10EF4E0950B2E18
:104D0000BA2FA02D0B01B90190010C01CA01A0011D
:104D10001124FF27591B99F0593F50F4503E68F178
:104D20001A16F040A22F232F342F4427585FF3CFB9
:104D3000469537952795A795F0405395C9F77EF48A
:104D40001F16BA0B620B730B840BBAF09150A1F0D3
:104D5000FF0FBB1F661F771F881FC2F70EC0BA0F59
:104D6000621F731F841F48F4879577956795B795E1
:104D7000F7959E3F08F0B3CF9395880F08F09927D9
:104D8000EE0F979587950895D9D008F481E008959E
:104D90000CD00FC107D140F0FED030F021F45F3FBE
:104DA00019F0F0C0511139C1F3C014D198F399230F
:104DB000C9F35523B1F3951B550BBB27AA276217DF
:104DC0007307840738F09F5F5F4F220F331F441F24
:104DD000AA1FA9F333D00E2E3AF0E0E830D091505C
:104DE0005040E695001CCAF729D0FE2F27D0660F49
:104DF000771F881FBB1F261737074807AB07B0E888
:104E000009F0BB0B802DBF01FF2793585F4F2AF09D
:104E10009E3F510568F0B6C000C15F3FECF3983E7D
:104E2000DCF3869577956795B795F7959F5FC9F7FA
:104E3000880F911D9695879597F90895E1E0660F83
:104E4000771F881FBB1F621773078407BA0720F0FC
:104E5000621B730B840BBA0BEE1F88F7E095089565
:104E600004D06894B111D9C00895BCD088F09F5780
:104E700090F0B92F9927B751A0F0D1F0660F771FA6
:104E8000881F991F1AF0BA95C9F712C0B13081F086
:104E9000C3D0B1E00895C0C0672F782F8827B85FCE
:104EA00039F0B93FCCF3869577956795B395D9F7E7
:104EB0003EF490958095709561957F4F8F4F9F4FF1
:104EC0000895E89409C097FB3EF4909580957095FD
:104ED00061957F4F8F4F9F4F9923A9F0F92F96E946
:104EE000BB279395F695879577956795B795F111BB
:104EF000F8CFFAF4BB0F11F460FF1BC06F5F7F4F58
:104F00008F4F9F4F16C0882311F096E911C0772369
:104F100021F09EE8872F762F05C0662371F096E872
:104F2000862F70E060E02AF09A95660F771F881F41
:104F3000DAF7880F9695879597F90895990F0008E5
:104F4000550FAA0BE0E8FEEF16161706E807F9075B
:104F5000C0F012161306E407F50798F0621B730BF6
:104F6000840B950B39F40A2661F0232B242B252B77
:104F700021F408950A2609F4A140A6958FEF811D1A
:104F8000811D089597F99F6780E870E060E00895BB
:104F90009FEF80EC089500240A9416161706180651
:104FA0000906089500240A9412161306140605062D
:104FB0000895092E0394000C11F4882352F0BB0FBE
:104FC00040F4BF2B11F460FF04C06F5F7F4F8F4F21
:104FD0009F4F089557FD9058440F551F59F05F3F5C
:104FE00071F04795880F97FB991F61F09F3F79F00B
:104FF00087950895121613061406551FF2CF46958D
:10500000F1DF08C0161617061806991FF1CF86950E
:105010007105610508940895E894BB2766277727F2
:10502000CB0197F908958ADF08F48FEF08950BD02C
:10503000C0CFB1DF28F0B6DF18F0952309F0A2CF7A
:10504000A7CF1124EACFC6DFA0F3959FD1F3950F28
:1050500050E0551F629FF001729FBB27F00DB11DFC
:10506000639FAA27F00DB11DAA1F649F6627B00D8C
:10507000A11D661F829F2227B00DA11D621F739F75
:10508000B00DA11D621F839FA00D611D221F749F83
:105090003327A00D611D231F849F600D211D822FCA
:1050A000762F6A2F11249F5750408AF0E1F0882311
:1050B0004AF0EE0FFF1FBB1F661F771F881F91501E
:1050C0005040A9F79E3F510570F05CCFA6CF5F3FDF
:1050D000ECF3983EDCF3869577956795B795F79551
:1050E000E7959F5FC1F7FE2B880F911D96958795D9
:1050F00097F9089511F40EF44BCF42C073DFD0F34B
:105100009923D9F3CEF39F57550B87FF47D000243F
:10511000A0E640EA900180585695979528F4805C67
:10512000660F771F881F20F026173707480730F4CF
:10513000621B730B840B202931294A2BA6951794E7
:105140000794202531254A2758F7660F771F881FB7
:1051500020F026173707480730F4620B730B840BD7
:10516000200D311D411DA09581F7B901842F915863
:10517000880F969587950895E1DE880B990B089521
:105180009F3F31F0915020F4879577956795B795BB
:10519000880F911D9695879597F9089591505040E5
:1051A000660F771F881FD2F7089597FB072E16F416
:1051B000009407D077FD09D00E94152907FC05D07F
:1051C0003EF4909581959F4F0895709561957F4F1E
:1051D0000895A1E21A2EAA1BBB1BFD010DC0AA1F38
:1051E000BB1FEE1FFF1FA217B307E407F50720F050
:1051F000A21BB30BE40BF50B661F771F881F991FCB
:105200001A9469F760957095809590959B01AC0113
:10521000BD01CF010895EE0FFF1F0590F491E02D21
:1052200009940790F691E02D0994AA1BBB1B51E14C
:1052300007C0AA1FBB1FA617B70710F0A61BB70B06
:10524000881F991F5A95A9F780959095BC01CD01AB
:105250000895CF93DF938230910510F482E090E0BF
:10526000E091E604F091E70420E030E0A0E0B0E057
:10527000309739F14081518148175907B8F04817E4
:10528000590771F482819381109729F013969C93AA
:105290008E9312972CC09093E7048093E60427C066
:1052A0002115310531F04217530718F0A901DB0130
:1052B00001C0EF019A01BD01DF010280F381E02D01
:1052C000D7CF21153105F9F0281B390B24303105D2
:1052D00080F48A819B816115710521F0FB01938324
:1052E000828304C09093E7048093E604FE01329623
:1052F00044C0FE01E20FF31F8193919322503109C4
:10530000398328833AC02091E4043091E504232BAB
:1053100041F420910202309103023093E50420937E
:10532000E40420910002309101022115310541F47D
:105330002DB73EB74091040250910502241B350B56
:10534000E091E404F091E504E217F307A0F42E1BCA
:105350003F0B2817390778F0AC014E5F5F4F2417D9
:10536000350748F04E0F5F1F5093E5044093E40467
:105370008193919302C0E0E0F0E0CF01DF91CF9103
:105380000895CF93DF93009709F487C0FC0132970B
:1053900013821282C091E604D091E704209781F431
:1053A00020813181280F391F8091E4049091E50418
:1053B0008217930779F5F093E504E093E4046DC058
:1053C000DE0120E030E0AE17BF0750F412964D9199
:1053D0005C9113979D014115510509F1DA01F3CF55
:1053E000B383A28340815181840F951F8A179B0745
:1053F00071F48D919C911197840F951F0296918362
:10540000808312968D919C911397938382832115AB
:10541000310529F4F093E704E093E6043EC0D90196
:105420001396FC93EE9312974D915D91A40FB51FC7
:10543000EA17FB0779F480819181840F951F02960A
:10544000D90111969C938E938281938113969C939C
:105450008E931297E0E0F0E08A819B81009719F02B
:10546000FE01EC01F9CFCE01029628813981820F2D
:10547000931F2091E4043091E5042817390769F45B
:10548000309729F41092E7041092E60402C01382C8
:105490001282D093E504C093E404DF91CF91089584
:1054A0006F927F928F929F92AF92BF92CF92DF9234
:1054B000EF92FF920F931F93CF93DF93EC01CB01F9
:1054C000209781F4DF91CF911F910F91FF90EF9082
:1054D000DF90CF90BF90AF909F908F907F906F9014
:1054E0000C942929FE01E60FF71F9E012250310975
:1054F000E217F30708F4ACC0D9010D911C91119784
:1055000006171707B8F00530110508F49FC0A80169
:10551000445051094617570708F498C00250110922
:10552000061B170B019311936D937C93CF010E947F
:10553000C1298CC05B01A01AB10A4E01800E911ED8
:10554000A091E604B091E704612C712C60E070E05A
:10555000109709F449C0A815B905C9F5ED90FC905C
:105560001197670142E0C40ED11CCA14DB0478F124
:1055700047018A189B08640142E0C40ED11C1296B0
:10558000BC9012971396AC91B5E0CB16D10440F0C5
:10559000B282A38391828082D9018D939C9309C0AA
:1055A0000E5F1F4F0E0D1F1DF90111830083EB2DA0
:1055B000FA2F6115710531F0DB011396FC93EE9320
:1055C000129744C0F093E704E093E6043FC06D9166
:1055D0007C9111976616770608F43B01BD0112967F
:1055E0000D90BC91A02DB4CF6091E4047091E504BE
:1055F00068157905E9F468167906D0F4409100023F
:10560000509101024115510541F44DB75EB76091CB
:10561000040270910502461B570BE417F507C0F40E
:10562000F093E504E093E404F901918380830EC0D4
:105630000E9429297C01009759F0A801BE010E940F
:10564000392BCE010E94C129C70104C0CE0102C07E
:1056500080E090E0DF91CF911F910F91FF90EF904C
:10566000DF90CF90BF90AF909F908F907F906F9082
:105670000895FB01DC0102C001900D9241505040A1
:10568000D8F708950F931F93CF93DF93CDB7DEB76D
:105690002E970FB6F894DEBF0FBECDBF0D891E89C1
:1056A00086E08C831A8309838FEF9FE79E838D8327
:1056B000AE01475E5F4F6F89788DCE0101960E94E3
:1056C000712BEF81F885E00FF11F10822E960FB637
:1056D000F894DEBF0FBECDBFDF91CF911F910F9128
:1056E00008952F923F924F925F926F927F928F9286
:1056F0009F92AF92BF92CF92DF92EF92FF920F9361
:105700001F93CF93DF93CDB7DEB72C970FB6F894E6
:10571000DEBF0FBECDBF7C016B018A01FC01178289
:105720001682838181FFBDC1CE0101964C01F70134
:105730009381F60193FD859193FF81916F018823F9
:1057400009F4ABC1853239F493FD859193FF8191C2
:105750006F01853229F4B70190E00E94982DE7CFC0
:10576000512C312C20E02032A0F48B3269F030F43F
:10577000803259F0833269F420612CC08D3239F0C7
:10578000803339F4216026C02260246023C0286061
:1057900021C027FD27C030ED380F3A3078F426FFBE
:1057A00006C0FAE05F9E300D1124532E13C08AE02C
:1057B000389E300D1124332E20620CC08E3221F41D
:1057C00026FD6BC1206406C08C3611F4206802C02F
:1057D000883641F4F60193FD859193FF81916F0125
:1057E0008111C1CF982F9F7D9554933028F40C5F81
:1057F0001F4FFFE3F9830DC0833631F0833771F01B
:10580000833509F05BC022C0F801808189830E5F77
:105810001F4F44244394512C540115C03801F2E029
:105820006F0E711CF801A080B18026FF03C0652DAA
:1058300070E002C06FEF7FEFC5012C870E948D2DB5
:105840002C0183012C852F77222E17C03801F2E01E
:105850006F0E711CF801A080B18026FF03C0652D7A
:1058600070E002C06FEF7FEFC5012C870E94822D90
:105870002C012C852068222E830123FC1BC0832D44
:1058800090E048165906B0F4B70180E290E00E941B
:10589000982D3A94F4CFF50127FC859127FE81914C
:1058A0005F01B70190E00E94982D31103A94F1E029
:1058B0004F1A51084114510471F7E5C0843611F0B4
:1058C000893639F5F80127FF07C06081718182812F
:1058D00093810C5F1F4F08C060817181882777FD1D
:1058E0008095982F0E5F1F4F2F76B22E97FF09C01D
:1058F00090958095709561957F4F8F4F9F4F206851
:10590000B22E2AE030E0A4010E94CA2DA82EA818C9
:1059100044C0853729F42F7EB22E2AE030E025C01E
:10592000F22FF97FBF2E8F36C1F018F4883579F049
:10593000B4C0803719F0883721F0AFC02F2F206115
:10594000B22EB4FE0DC08B2D8460B82E09C024FF8A
:105950000AC09F2F9660B92E06C028E030E005C02F
:1059600020E130E002C020E132E0F801B7FE07C0DC
:1059700060817181828193810C5F1F4F06C06081BD
:10598000718180E090E00E5F1F4FA4010E94CA2D3C
:10599000A82EA818FB2DFF77BF2EB6FE0BC02B2D0F
:1059A0002E7FA51450F4B4FE0AC0B2FC08C02B2D03
:1059B0002E7E05C07A2C2B2D03C07A2C01C0752CAD
:1059C00024FF0DC0FE01EA0DF11D8081803311F42A
:1059D000297E09C022FF06C07394739404C0822FED
:1059E000867809F0739423FD13C020FF06C05A2C5B
:1059F000731418F4530C5718732C731468F4B7010C
:105A000080E290E02C870E94982D73942C85F5CF2E
:105A1000731410F4371801C0312C24FF12C0B701E1
:105A200080E390E02C870E94982D2C8522FF17C0E0
:105A300021FF03C088E590E002C088E790E0B7014D
:105A40000CC0822F867859F021FD02C080E201C08F
:105A50008BE227FD8DE2B70190E00E94982DA514FE
:105A600038F4B70180E390E00E94982D5A94F7CF64
:105A7000AA94F401EA0DF11D8081B70190E00E9423
:105A8000982DA110F5CF332009F451CEB70180E253
:105A900090E00E94982D3A94F6CFF7018681978185
:105AA00002C08FEF9FEF2C960FB6F894DEBF0FBEAB
:105AB000CDBFDF91CF911F910F91FF90EF90DF90BD
:105AC000CF90BF90AF909F908F907F906F905F909E
:105AD0004F903F902F900895F999FECF92BD81BDD0
