:100000000C9434020C9463020C9463020C9463020B
:100010000C9463020C9463020C9463020C946302CC
:100020000C9463020C9463020C9463020C946302BC
:100030000C9463020C9463020C9463020C946302AC
:100040000C9463020C9463020C9463020C9463029C
:100050000C9463020C9463020C9463020C94622D62
:100060000C9463020C94BB310C94F1310C94630238
:100070000C9463020C9463020C9463020C9463026C
:100080000C9463020C9463020C9463020C9463025C
:100090000C9463020C9463020C9463020C94D529B3
:1000A0000C9463020C9463020C9463020C9463023C
:1000B0000C9463020C9463020C9463020C9463022C
:1000C0000C9463020C9463020C9463020C9463021C
:1000D0000C9463020C9463020C9463020C9463020C
:1000E0000C946302FF1FD21FD61FDA1FFF1FDE1FF3
:1000F000E21FE61FEA1FEC1FF11FF31FF81FFA1F94
:10010000FF1F942B972B732B732B762B792B7C2B28
:100110007C2B822B822B7F2B7F2B822B822B942B71
:10012000BB2EC02EC52ECF2ED92E522FE32EEB2E56
:10013000F32EFD2E072F112F202F2A2F522F342F71
:100140003E2F482F742F772F662F6A2F702FAE2FD8
:100150007B2F7F2F852F892F8D2F932F972F9B2FCD
:10016000AE2FA12FA52FA92F0953746F726564209C
:100170003D20007363616C65466163746F725A2041
:100180003D20000953746F726564203D200073693F
:10019000676D615A203D20000953746F72656420B9
:1001A0003D2000426961735A203D20005072696E03
:1001B00074696E672063616C63756C61746564203B
:1001C000616E642073746F7265642076616C75650E
:1001D000732E2E2E005363616C6520466163746F2D
:1001E00072203D20004D617820416E676C65203D96
:1001F0002000446F6E652100526F74617465206247
:1002000061636B20746F207374617274696E672010
:10021000706F736974696F6E2E005A3D20005369C8
:10022000676D613A005A3D200041766572616765ED
:1002300020426961733A00476574426C6F636B28B2
:10024000292072657475726E6564204241445F4274
:100250004C4F434B2E005269676874204D6F746F8A
:10026000722063757272656E743A20004C65667414
:10027000204D6F746F722063757272656E743A20D0
:10028000006D6F746F7220647269766572206661AA
:10029000756C74004552524F522D20496E76616C38
:1002A00069642070726F6772616D2063686F696343
:1002B000653A2000095363616C6520466163746F81
:1002C000723A2000095369676D613A200042696102
:1002D000733A20004661696C656420746F20617513
:1002E000746F646574656374206779726F207479C4
:1002F0007065210009546F74616C203D2000094233
:100300006F74204C696E65203D20000943656E7452
:100310006572203D20000959203D20005369672067
:100320003D20004552524F522D20496E76616C6936
:10033000642070726F6772616D2063686F696365B6
:100340003A200000000A0B02090C0D0E08070304F6
:10035000010000000000000000000000000000009C
:10036000000000000000000000000000000000127B
:10037000111000000000000000000000000000005C
:10038000000000000000000000010210202008080A
:1003900010204010204080020102010804020101E7
:1003A00002040810204080804020100804020180D0
:1003B0000402018040201008040201080402010127
:1003C000020408102040800102040810204080052B
:1003D000050505070508080808020202020A0A08BE
:1003E00008040404040101010101010101030303E4
:1003F0000303030303040707070C0C0C0C0C0C0C81
:100400000C0202020206060606060606060B0B0B87
:100410000B0B0B0B0B000020002300260029002CE7
:10042000002F003200000100000301060109010055
:10043000002200250028002B002E0031003400028D
:10044000010000050108010B010000210024002724
:10045000002A002D003000330001010000040107D4
:10046000010A0100F328253211241FBECFEFD1E28B
:10047000DEBFCDBF13E0A0E0B2E0E2EAF9E700E0C2
:100480000BBF02C007900D92A83AB107D9F725E03B
:10049000A8EAB3E001C01D92A336B207E1F714E069
:1004A000C8E6D4E000E006C022970109FE010BBFB8
:1004B0000E94A637C436D10780E00807A9F70E943A
:1004C0006C320C94CF3C0C940000FC011182108221
:1004D000138212821582148281E080870895FC01C4
:1004E00081E046815781228133814217530709F009
:1004F00080E00895FC01268137812E5F3F4F3783CE
:1005000026830895DC011696ED91FC911797808162
:1005100091810895CF93DF93EB01BC0182E090E0DD
:100520000E94062B28813981FC0131832083DF91D1
:10053000CF910895CF93DF93EC01CE010E94BE3797
:10054000009761F4E091A803F091A903309721F49A
:1005500080E090E00E94CF3C0995EFCFDF91CF91F2
:1005600008950F931F93CF93DF93EB018A01C81B6C
:10057000D90BCE7FAE01BC01C8010E94D739C8019A
:100580008C0F9D1FDF91CF911F910F9108958F9236
:100590009F92AF92BF92CF92DF92EF92FF920F9312
:1005A0001F93CF93DF9300D0CDB7DEB78C017A8352
:1005B0006983FC01E280F38084819581E816F90665
:1005C00069F0BE016F5F7F4FC7010E948A02F80188
:1005D000828193810296938382834FC0F801808148
:1005E00091816701C81AD90AD594C794C114D1045E
:1005F00039F0FAE0CF0ED11CC114D10421F40AC0A5
:10060000CC24C394D12CC601880F991F0E949A0252
:100610005C0104C0C12CD12CA12CB12CA501B701C7
:10062000F801808191810E94B1024C01BE016F5F8F
:100630007F4F0E948A02A4014E5F5F4FF8016281E2
:100640007381C7010E94B1027C01F8018081918110
:1006500024813581281B390B35952795232B11F0E3
:100660000E945638F801B182A082F382E282CC0C5B
:10067000DD1CCA0CDB1CD582C482F801808588236E
:1006800029F0108680819181978386830F900F9047
:10069000DF91CF911F910F91FF90EF90DF90CF905E
:1006A000BF90AF909F908F900895AF92BF92CF92DE
:1006B000DF92EF92FF920F931F93CF93DF9300D0BF
:1006C000CDB7DEB75C018B016817790709F47CC0F0
:1006D000DB0112966D917C911397ED90FC90FB01DC
:1006E000EE19FF09F595E795D5014D915C911197AC
:1006F00014968D919C911597841B950B95958795D4
:100700006F01CC0CDD1C8E179F0748F5EF2B49F0CD
:10071000C60169837A830E949A028C0169817A8179
:1007200002C000E010E0A801C7010E94B102F5017B
:100730008081918124813581281B390B359527953E
:10074000232B11F00E945638D50111961C930E935D
:100750000C0D1D1D15961C930E9314972BC0D501DF
:1007600012962D913C911397241B350B35952795A7
:100770002E173F0710F0C7011BC0B901660F771F86
:100780006E0D7F1DC7010E94B102F50142815381A8
:10079000D80112966D917C91139780819181FA0115
:1007A000E81BF90BCF018E7F2D913C91820F931F97
:1007B0000E94B102D5018D919C9111978C0D9D1DC8
:1007C00013969C938E931297C5010F900F90DF9113
:1007D000CF911F910F91FF90EF90DF90CF90BF903E
:1007E000AF900895CF93DF93EC018617970751F0F0
:1007F000FB0180858887868197819F838E83CE01C8
:100800000E945503CE01DF91CF910895833019F4F2
:1008100081E090E0089589E090E00895DF92EF9202
:10082000FF920F931F93CF93DF9300D0CDB7DEB726
:100830007C01162FD42E0E94552600E02D2D412F2D
:10084000682FCE0101960E9427264D2D612FCE01E3
:100850000C960E94FF26882329F061E0CE010196C4
:100860000E941C2681E0F7014081518129813A8153
:100870004217530709F080E00F900F90DF91CF915E
:100880001F910F91FF90EF90DF900895EF92FF92EC
:100890000F931F93CF93DF93CDB7DEB7E82EF62EDD
:1008A0008A01CA010E9467262E2D30E0281B3109DB
:1008B000C8011216130624F40E946726E81A04C021
:1008C0000E9467268E19E82EC8010E9479262F2DD6
:1008D00030E0281B3109C801121613062CF40E94BF
:1008E0007926F81A8F2D03C00E9479268F198E0D54
:1008F000DF91CF911F910F91FF90EF900895FC0130
:100900008081918124813581281B390B359527956C
:10091000232B11F00C94563808950F931F93CF9307
:10092000DF93EB01BC0185E090E00E94062B8C0177
:10093000BE010E94B4258A819B81F8019383828342
:100940008C818483DF91CF911F910F910895CF9374
:10095000DF93EB01BC0182E090E00E94062B28812E
:100960003981FC0131832083DF91CF910895009775
:1009700021F0880F991F0C949A0280E090E008956E
:100980006F927F928F929F92AF92BF92CF92DF929F
:10099000EF92FF920F931F93CF93DF93EC016817B1
:1009A000790709F47AC0FB01A280B380008111812C
:1009B0007501E01AF10AF594E7946701E881F9817D
:1009C0008C819D818E1B9F0B959587958E159F051C
:1009D00038F5C7010E94B7044C013C010A151B05FC
:1009E00051F0B801C3010E94A7040E5F1F4FF2E04F
:1009F0006F0E711CF3CF888199812C813D81281B5A
:100A0000390B35952795232B11F00E945638998282
:100A10008882CC0CDD1CC80CD91CDD82CC8235C090
:100A20008A809B80C4018E1B9F0B959587958E15A0
:100A30009F0560F0D8011C141D043CF58D919D911B
:100A40008193919381E0C81AD108F5CF880F991F3F
:100A50006801C80ED91E95958795D80118161906F4
:100A600034F42D913D91219331930197F7CFCA141E
:100A7000DB0459F0B601C4010E94A704E2E0CE0EE7
:100A8000D11CF2E08F0E911CF2CFEE0CFF1C88817E
:100A900099818E0D9F1D9B838A83CE01DF91CF911B
:100AA0001F910F91FF90EF90DF90CF90BF90AF908C
:100AB0009F908F907F906F900895CF92DF92EF92EA
:100AC000FF920F93CF93DF9300D01F92CDB7DEB785
:100AD0006C017A012B8369837A830E944C26F6018C
:100AE00013821282158214821782168269817A819A
:100AF000C6010E94BE25B701C60102960E94C0042D
:100B00002B81F6012087200F21870F900F900F90E7
:100B1000DF91CF910F91FF90EF90DF90CF900895EC
:100B20000F931F93CF93DF93EC018B010E94BE259F
:100B3000B8016E5F7F4FCE0102960E94C004F8019B
:100B40008085888781858987CE01DF91CF911F912C
:100B50000F910895BF92CF92DF92EF92FF920F9381
:100B60001F93CF93DF938C017A016901EB012197E9
:100B7000D7FDEB01D595C7955AE0B52EE616F706D9
:100B8000A4F02AE0269FC001279F900D1124B601F2
:100B9000800F911FDF91CF911F910F91FF90EF90E8
:100BA000DF90CF90BF900C949005BC9ED001BD9E6D
:100BB000B00D1124A00FB11F19969C911997F60141
:100BC00081858917F0F6B69EC001B79E900D11245D
:100BD000BD01800F911F0E949005CE01019797FDE6
:100BE000CE01BE01EC01D595C795C8CFAF92BF929B
:100BF000CF92DF92EF92FF920F931F93CF93DF93E9
:100C0000EC016B01FB01E280F38080819181E81AA5
:100C1000F90AF594E794198218821B821A821D82C0
:100C20001C82C7010E94B7048C01998388839B832F
:100C30008A83EE0CFF1CE80EF91EFD82EC82F601A1
:100C4000A280B380E080F180EA14FB0451F0B70188
:100C5000C8010E94A704F2E0EF0EF11C0E5F1F4FC7
:100C6000F3CF1B830A83DF91CF911F910F91FF90E8
:100C7000EF90DF90CF90BF90AF9008950F931F93A8
:100C8000CF93DF93EC018B010E94B425B8016E5F16
:100C90007F4FCE0102960E94F605F8018085888775
:100CA00081858987DF91CF911F910F910895CF930F
:100CB000DF93EB01BC018AE090E00E94062BBE01AD
:100CC000DF91CF910C943E062F923F924F925F920C
:100CD0006F927F928F929F92AF92BF92CF92DF924C
:100CE000EF92FF920F931F93CF93DF93CDB7DEB7B1
:100CF00027970FB6F894DEBF0FBECDBF8C017B01E6
:100D00004A01FC01828193812481358182179307F6
:100D100009F461C0BC01655071090E948D04F8019D
:100D200082819381059693838283B401CE010196DB
:100D30000E94B425F401828193819C838B838481FA
:100D40008D83F801C280D380860105501109C60148
:100D50000A978E199F092DEC3CEC829F5001839FCE
:100D6000B00C929FB00C11244601FDE08F1A91083F
:100D7000360128E0621A71081A141B04F4F40550B5
:100D80001109B80165507109C8010E94BE25C8014A
:100D90008C199D09FC01E80DF91D22853385FC01A4
:100DA000E60DF71D33872287F80131978081F8011E
:100DB0008483F1E0AF1AB108DFCFBE016F5F7F4FD0
:100DC000C7010E94BE258B819C81F701938382839A
:100DD0008D81848386C0F80120813181821B930B31
:100DE0002DEC3CEC829F5001839FB00C929FB00C85
:100DF0001124A114B10439F0FAE0AF0EB11CA11412
:100E0000B10421F40EC0AA24A394B12C85E0282FAC
:100E10002A9DC0012B9D900D11240E949A026C0105
:100E200004C0A12CB12CC12CD12CF8012080318020
:100E3000260131016E147F0459F0B301C2010E94F2
:100E40008D04F5E06F0E711C25E0420E511CF2CFAF
:100E5000FF82EE822701421853084C0C5D1CB4013E
:100E6000C2010E948D0485E0480E511CF801628089
:100E700073804201E614F70459F0B701C4010E94DF
:100E80008D04F5E0EF0EF11C25E0820E911CF2CFEF
:100E90008E819F81E81AF90AE40CF51CF801808123
:100EA000918124813581281B390B6DEC7CEC269FC8
:100EB000A001279F500D369F500D1124452B11F096
:100EC0000E945638F801D182C082F382E28225E086
:100ED0002A9DC0012B9D900D11248C0D9D1D958385
:100EE000848327960FB6F894DEBF0FBECDBFDF9187
:100EF000CF911F910F91FF90EF90DF90CF90BF9017
:100F0000AF909F908F907F906F905F904F903F90A9
:100F10002F900895CF93DF93EC018A819B812C81E0
:100F20003D818217930751F00E948D048A819B8135
:100F300005969B838A83DF91CF910895AB01BC0115
:100F4000CE01DF91CF910C9464065F926F927F92F5
:100F50008F929F92AF92BF92CF92DF92EF92FF92C9
:100F60000F931F93CF93DF9300D000D01F92CDB784
:100F7000DEB75C01722E780183E0281304C0D5012E
:100F800014966C9009C0F5016380F1E02F1304C042
:100F900001E0060D037006C0662019F00FEF060D84
:100FA00001C003E0D50112968C911297E62FFF271E
:100FB000E7FDF09511969C91442329F0962E882EFA
:100FC000E91BF10904C0992E862EE81BF109F7FFF1
:100FD00003C0F195E195F1095E2E6501B5E0CB0EF8
:100FE000D11C482D692DC6010E940C27182F811194
:100FF00002C011E06AC0151444F4202F482D692D59
:10100000C6010E94E1268111F4CF262D482D692DBD
:10101000C6010E94E126811154C0552009F454C034
:10102000E1E06E1681F06E1638F0F2E06F1699F07E
:1010300083E06816B9F048C0A6E0A8150CF444C0D7
:10104000202F41E00CC0B6E0B9150CF43DC0202FB4
:10105000482D61E00CC01814BCF5202F4FEF480D4F
:10106000692D06C0191484F5202F482D6FEF690DE6
:10107000C6010E94E126882339F100E0282D492D80
:10108000F5016081CE0101960E942726872D0E94DE
:1010900006049C838B83652D772767FD7095872FCA
:1010A000972F0E94F8359B01AC010E94AC360E943C
:1010B000CA356D83BE016F5F7F4FC7010E948A07EB
:1010C00004C0552011F0D9CF10E0812F0F900F9060
:1010D0000F900F900F90DF91CF911F910F91FF9084
:1010E000EF90DF90CF90BF90AF909F908F907F90C8
:1010F0006F905F9008956F927F928F929F92AF92C0
:10110000BF92CF92DF92EF92FF920F931F93CF93F4
:10111000DF9300D000D01F92CDB7DEB77C01922EB6
:10112000580183E0F701281302C0048101C0038144
:10113000F7012281862F992787FD909531814423DD
:1011400029F0762E622E831B910904C0732E662E21
:10115000821B910997FF03C0919581959109182FE2
:101160006701F5E0CF0ED11C462D672DC6010E9408
:101170000C27882E462D672DC601811021C00E94A4
:10118000FF26882309F473C000E0262D472DF701C0
:101190006081CE0101960E942726F3E09F1203C0D2
:1011A00022E830E002C02AE830E03C832B831F5F56
:1011B0001D83BE016F5F7F4FC5010E948A0757C024
:1011C0000E94FF26882391F000E0262D472DF7018D
:1011D0006081CE0101960E942726F3E09F1203C092
:1011E00022E830E039C02AE830E036C0F70120813B
:1011F000462D672DC6010E94E126882391F000E06C
:10120000262D472DF7016081CE0101960E942726E9
:10121000F3E09F1203C022E030E01EC02AE030E07D
:101220001BC0202F462D672DC6010E94E12681118B
:1012300021C0112301F100E0262D472DF701608127
:10124000CE0101960E942726F3E09F1203C022E4FC
:1012500030E002C02AE430E03C832B831F5F1D8313
:10126000BE016F5F7F4FC5010E948A0704C08824BA
:10127000839401C0812C882D0F900F900F900F90B8
:101280000F90DF91CF911F910F91FF90EF90DF9022
:10129000CF90BF90AF909F908F907F906F90089568
:1012A0004F925F926F927F928F929F92AF92BF9276
:1012B000CF92DF92EF92FF920F931F93CF93DF9322
:1012C000CDB7DEB7C459D1090FB6F894DEBF0FBE53
:1012D000CDBF7C016B01FC0111821082138212824E
:1012E00015821482CB010E945526682EC6010E94E9
:1012F0006726182FC6010E947926782EC6010E9403
:101300008B268111CDC1472D612FCE0189559F4F6D
:101310000E94FF268823E9F0C6010E948B268111D6
:1013200018C0CE0101966C0185E0F60111928A95F4
:10133000E9F701E0272D412F662DC6010E942726DF
:1013400083E090E09C838B83B601C7010E948A07EB
:10135000A7C1662021F055245A94560C02C0A3E080
:101360005A2EC62CD12CFFEFCF1ADF0A83E0C822F9
:10137000DD245E0190E9A90EB11CF5E04F2EF501C8
:10138000842D11928A95E9F7DD24D394F501D48256
:1013900000E0272D412F6C2DC5010E94272628E053
:1013A00030E0F50133832283B501C7010E948A072B
:1013B0004E01FBE88F0E911CF40111924A94E9F75B
:1013C000F401D482272D412F652DC4010E942726C8
:1013D000F40113821282B501C7010E948A07279681
:1013E0006FAE279728961FAF289729967FAE29972B
:1013F0002A96CFAE2A972B965FAE2B9780E4FE01FC
:10140000E955FF4FA6E4B0E0AC0FBD1F1596019063
:101410000D928A95E1F769821A837B82CC825D8284
:1014200080E4FE01E955FF4FDE01169601900D9212
:101430008A95E1F76D1409F45CC06D1488F0F2E050
:101440006F1609F4A0C083E068122AC1D12E992436
:101450009394AA24A394BB24B394CC24C394E5C04E
:10146000AA24A394BB24B394CC24C394DD24D394A2
:1014700097E097150CF414C1DD2051F0870123E0AB
:1014800040E0672DCE0101960E94A5078111D12C65
:10149000CC2051F0870121E040E0672DCE0101967C
:1014A0000E94A5078111C12CBB2059F0870123E0C0
:1014B00040E0672DCE018A5B9F4F0E947B0881111F
:1014C000B12CAA2059F0870121E040E0672DCE0120
:1014D0008A5B9F4F0E947B088111A12CD11007C00D
:1014E000C11005C0B11003C0AA2009F4D9C073947B
:1014F000BFCFD12E99249394AA24A394BB24B39450
:10150000CC24C394E7E0ED150CF4CAC0CC2051F014
:10151000870123E041E06D2DCE0101960E94A507D1
:101520008111C12CBB2051F0870121E041E06D2DDC
:10153000CE0101960E94A5078111B12CAA2059F075
:10154000870123E041E06D2DCE018A5B9F4F0E9411
:101550007B088111A12C992059F0870121E041E0FD
:101560006D2DCE018A5B9F4F0E947B088111912CCB
:10157000C11007C0B11005C0A11003C0992009F423
:101580008FC0D394BFCFAA24A394BB24B394CC24FC
:10159000C394DD24D39477FC83C0DD2051F0870110
:1015A00023E040E0672DCE0101960E94A50781113E
:1015B000D12CCC2051F0870121E040E0672DCE01F5
:1015C00001960E94A5078111C12CBB2059F087010B
:1015D00023E040E0672DCE018A5B9F4F0E947B088D
:1015E0008111B12CAA2059F0870121E040E0672D3C
:1015F000CE018A5B9F4F0E947B088111A12CD110E4
:1016000007C0C11005C0B11003C0AA2009F448C02A
:101610007A94C1CFC1100CC0B11016C0A11020C067
:1016200091102BC0CC20B1F1DA94D7FEF3CF38C0A3
:10163000870123E041E06D2DCE0101960E94A507B0
:10164000882351F3C12CE8CF870121E041E06D2DC3
:10165000CE0101960E94A507882301F3B12CDECFAD
:10166000870123E041E06D2DCE018A5B9F4F0E94F0
:101670007B088823A9F2A12CD3CF870121E041E088
:101680006D2DCE018A5B9F4F0E947B08882351F20B
:10169000912CC8CFB110C8CFA110C6CF9110C4CF24
:1016A000C701CC56DF4F0FB6F894DEBF0FBECDBFDB
:1016B000DF91CF911F910F91FF90EF90DF90CF902E
:1016C000BF90AF909F908F907F906F905F904F9062
:1016D00008954F925F926F927F928F929F92AF92F6
:1016E000BF92CF92DF92EF92FF920F931F93CF930F
:1016F000DF93CDB7DEB72A970FB6F894DEBF0FBEE3
:10170000CDBF8C017B014A01FC0182819381248140
:1017100035818217930709F43FC0BC016A507109F3
:101720000E945706F801828193810A9693838283EF
:10173000B401CE0101960E943E06F8012281338158
:1017400089010A501109245131092E193F09359593
:1017500027958DEC9CEC289F6001299FD00C389F29
:10176000D00C11241C141D0464F4B80164517109D7
:101770000A501109C8010E949005F1E0CF1AD10862
:10178000F1CFBE016F5F7F4FC7010E949005CE0170
:1017900003960E947F0488C0F80120813181821B5A
:1017A000930B959587952DEC3CEC829F3001839FA0
:1017B000700C929F700C11246114710439F0FAE0DE
:1017C0006F0E711C6114710421F40EC066246394C1
:1017D000712C8AE0282F269DC001279D900D112491
:1017E0000E949A026C0104C0612C712CC12CD12C76
:1017F000F80140805180C6019C01265F3F4F59018E
:101800004E145F0441F0B2010E945706FAE04F0EF9
:10181000511CC501F1CFB4010E945706F801828026
:101820009380E814F90459F0B701C5010E945706E6
:10183000FAE0EF0EF11C2AE0A20EB11CF2CFF80183
:1018400082809380E080F180E814F90441F0C701C0
:1018500002960E947F04FAE0EF0EF11CF5CFF8012A
:101860008081918124813581281B390B35952795FD
:101870006DEC7CEC269FA001279F500D369F500DEC
:101880001124452B11F00E945638F801D182C082F4
:10189000B382A2822AE0269DC001279D900D1124CB
:1018A0008C0D9D1D958384832A960FB6F894DEBF18
:1018B0000FBECDBFDF91CF911F910F91FF90EF90A1
:1018C000DF90CF90BF90AF909F908F907F906F9060
:1018D0005F904F900895EF92FF920F931F93CF93D5
:1018E000DF93CDB7DEB72A970FB6F894DEBF0FBEF1
:1018F000CDBF8C01FC0182819381248135818217C7
:10190000930749F00E945706F801828193810A9655
:101910009383828305C0AB01BC01C8010E94690B9F
:10192000F801E280F38000811181B7016A507109EA
:10193000CE0101960E943E069701201B310B359582
:1019400027958DEC9CEC289FB001299F700D389F46
:10195000700D1124615071099E012F5F3F4F40E0CF
:1019600050E0C8010E94AA05CE0103960E947F04A0
:101970002A960FB6F894DEBF0FBECDBFDF91CF9190
:101980001F910F91FF90EF9008952F923F924F92E9
:101990005F926F927F928F929F92AF92BF92CF92FF
:1019A000DF92EF92FF920F931F93CF93DF93CDB708
:1019B000DEB7C255D1090FB6F894DEBF0FBECDBF5A
:1019C0006C012E966FAF2E972F964FAF2F978901F0
:1019D000CE01805C9F4F0E9419271CAA1BAA1EAA39
:1019E0001DAA18AE1FAA1A8219821C821B821E828F
:1019F0001D82B801CE010B960E94B42500E020E0C4
:101A0000AE014F5F5F4FBE01655F7F4FCE0189968C
:101A10000E945D05CE0101960E947F04BE01675DB4
:101A20007F4FCE01C3960E946B0C36E4232E312CDF
:101A30002C0E3D1E22E0220E311C6BA97CA98DA923
:101A40009EA96817790709F412C2CE014F960E9429
:101A50003E06EBA8FCA80DA91EA90A501109B80161
:101A6000CE0145960E943E06B701C8010E9490052E
:101A7000BE016B5E7F4FCE010B960E943E060E1993
:101A80001F09159507958DEC9CEC089F4001099F57
:101A9000900C189F900C112402E010E0A12CB12CA6
:101AA0002AE0722E081519053CF5709EF001719E12
:101AB000F00D1124EE0DFF1DDF011A979185199687
:101AC0008C91891710F401501109709EB001719E1C
:101AD000700D11246E0D7F1D7A9CC0017B9C900DB2
:101AE00011248E0D9F1D0E949005C801019658017A
:101AF0008C01000F111FD6CF08151905B9F42AE083
:101B0000209FB001219F700D11246A5071096E0D44
:101B10007F1D2A9DC0012B9D900D11248E0D9F1DB0
:101B20000E949005580131E0A31AB108BE01655F1B
:101B30007F4FCE0101960E943E069E012F5F3F4FD0
:101B400040E050E0B501C7010E94AA058E010D5F7B
:101B50001F4FC8010E947F04CE010D960E947F0492
:101B6000CE0147960E947F048DA99EA99C012A5010
:101B700031093EAB2DAB08970E947F04BE01615E28
:101B80007F4FCE0101960E94B4258DB79EB7805439
:101B900091090FB6F8949EBF0FBE8DBFADB7BEB70B
:101BA000119680E4FE01E959FF4F01900D928A954C
:101BB000E1F72F964FAD2F972E966FAD2E97CE0152
:101BC00001960E940E040FB6F894DEBF0FBECDBF83
:101BD000BE01882351F06F5D7F4FC6010E94F6055C
:101BE000CE0181960E947F0449C1615E7F4FCE0184
:101BF000805C9F4F0E94FB27882309F433C1BE01FC
:101C0000615E7F4FCE0101960E94B4252DB73EB78D
:101C1000205431090FB6F8943EBF0FBE2DBFADB7AB
:101C2000BEB7119680E4FE01E959FF4F01900D9275
:101C30008A95E1F7BE016F5F7F4FCE01CA960E9481
:101C40005009EAACFBAC8CAD9DAD61969FAF8EAFF9
:101C500061970FB6F894DEBF0FBECDBF62960FAF8F
:101C6000629763961FAF639761968EAD9FAD619744
:101C7000E816F90609F4E3C0B701CE018A5B9F4F6D
:101C80000E94B425F701828193812A969FAF8EAF7F
:101C90002A9784812B968FAF2B97BE016F5D7F4F64
:101CA000CE0145960E94F6050F89188D898D9A8D73
:101CB0000817190751F0B101C8010E94A7048F89C4
:101CC000988D0296988F8F8B52C08D899E8958016E
:101CD000A81AB90AB594A794A114B10421F0FAE0A6
:101CE000AF0EB11C03C0AA24A394B12CC5010E945D
:101CF000B7042C016D887E884C016016710659F07E
:101D0000B301C4010E94A70422E0620E711C32E0FC
:101D1000830E911CF2CFB101C4010E94A70482E09E
:101D2000880E911C6F88788C0615170551F0B80144
:101D3000C4010E94A7040E5F1F4F92E0890E911C00
:101D4000F3CF8D899E89298D3A8D281B390B3595C6
:101D50002795232B11F00E9456385E8A4D8A988E63
:101D60008F8AAA0CBB1CA40CB51CBA8EA98E8FA19D
:101D70002B96AFAC2B97B12CA80EB11CBE016A5BA1
:101D80007F4FCE0101960E94B425EDB7FEB7E05417
:101D9000F1090FB6F894FEBF0FBEEDBFADB7BEB7E9
:101DA0001196FE01E959FF4F80E401900D928A954A
:101DB000E1F7AE014F5F5F4F2F966FAD2F972E96D5
:101DC0008FAD2E970E944604082F0FB6F894DEBF01
:101DD0000FBECDBFBE016B5E7F4FCE010B960E9442
:101DE000F605BE016A5B7F4FCE01855B9F4F0E9467
:101DF000B4252A2DAE01455F5F4FBE01655B7F4F65
:101E0000CE0101960E945D05CE010B960E947F04D3
:101E1000BE016F5F7F4FCE01C3960E946B0C62962E
:101E20008FAD629763969FAD63970E947F04CE014A
:101E300045960E947F0435E0E30EF11C15CF8AAD74
:101E40009BAD2EAD3FAD281B390B6DEC7CEC269F76
:101E5000A001279F500D369F500D1124452B11F0E6
:101E60000E945638CE0181960E947F04E6CDF6018D
:101E7000118210821382128215821482CE018B96F7
:101E80000E947F04EDA8FEA80BA91CA90E151F0532
:101E900039F0C80102960E947F04065F1F4FF6CFFB
:101EA0008BA99CA92FA938AD281B390B35952795EF
:101EB0006DEC7CEC269FA001279F500D369F500DA6
:101EC0001124452B11F00E94563822968EAD9FADFD
:101ED000229726962EAD3FAD2697281B390B3595B8
:101EE0002795232B11F00E945638C601CE5ADF4F9A
:101EF0000FB6F894DEBF0FBECDBFDF91CF911F911B
:101F00000F91FF90EF90DF90CF90BF90AF909F9098
:101F10008F907F906F905F904F903F902F9008959B
:101F2000CF93DF93EC01E881F981EA5BFF4F808179
:101F300091810E946C1888819981FC01E95AFF4FB8
:101F40001082319621E02083359611821082DF9134
:101F5000CF9108952F923F924F925F926F927F920E
:101F60008F929F92AF92BF92CF92DF92EF92FF92A9
:101F70000F931F93CF93DF9300D000D01F92CDB764
:101F8000DEB77C016B018A010E946502F8010280C4
:101F9000F381E02DFA83E983F801A080B180E98123
:101FA000FA81AE16BF0609F492C0F50101911191B4
:101FB0005F0102FBFF27F0F9FC831D822C813D812C
:101FC000220F331F01FB222420F8312C220D331D58
:101FD000220F331FC80181709927280F391F3D83B5
:101FE0002C8303FF02C041E001C043E08C819D814E
:101FF000892B59F485E090E04B830E947B323C01B1
:102000004B81B6010E94BA144EC0EC81FD8131971C
:1020100059F485E090E04B830E947B323C014B8178
:10202000B6010E94A9143FC02C813D8122303105A8
:10203000E1F587E090E04B830E947B323C01C801D0
:10204000892F992786958695827099279801232F45
:1020500033272695269521703327820F931F880FEB
:10206000991F9801232F3327269521703327820F3C
:10207000931F212F332721703327220F331F07FB94
:10208000442440F8512C240D351D220F331F06FB2C
:10209000882480F8912C280D391D082F4B81B6011A
:1020A000C3010E949C14B3010EC08C819D810397D3
:1020B00009F075CF84E090E00E947B328C01B6017C
:1020C0000E94B214B801C7010E94C70268CFC701BD
:1020D0000F900F900F900F900F90DF91CF911F9165
:1020E0000F91FF90EF90DF90CF90BF90AF909F90B7
:1020F0008F907F906F905F904F903F902F900895BA
:102100002F923F924F925F926F927F928F929F9207
:10211000AF92BF92CF92DF92EF92FF920F931F93F5
:10212000CF93DF93CDB7DEB72F970FB6F894DEBF0E
:102130000FBECDBF4C016F87142F9C012C5B3F4F0E
:102140007901633061F460E070E0F9018081918190
:102150000E941F232B013C0162E070E00BC061E094
:1021600070E0F901808191810E941F232B013C01C5
:1021700063E070E0F701808191810E941F236B0171
:102180007C019E868D86F12FF4703F2E12FF12C0C7
:10219000F401EE5BFF4F808191810E949B21F4014D
:1021A000EE5AFF4F20813181428153810E9459357F
:1021B00087FD6AC0212F2170322E10FF34C05401D8
:1021C00037E5A30EB11CF501808181111BC03D973D
:1021D0002081318142815381C301B2010E94A8361E
:1021E000181684F4F5013082319630827097808120
:1021F00091810E943422F401E75AFF4F608371837A
:1022000082839383F5018081882369F0F401E65B82
:10221000FF4F2081318142815381C701B6010E9465
:10222000A83618168CF1F12FF2703F2E11FF33C033
:10223000540122E4A20EB11CF50160817181CE012E
:1022400001960E949524C980DA80EB80FC800D8184
:102250001E812F81388549855A856B857C85F501DE
:10226000808191810E94B120F401E35AFF4F8823BD
:1022700081F08081918101969183808337972081BD
:1022800030E0821793073CF0CE010D960E94900F2C
:102290005FC0118210828401085A1F4FF8018081AB
:1022A00094012A5B3F4F1901882339F0F90180819D
:1022B00091810E943717F8011082F401E95AFF4F0B
:1022C0008081882371F032964081518162817381CF
:1022D00000E010E09801F101808191810E9437199E
:1022E00036C0F401E25BFF4F2F852130A1F440811D
:1022F0005181628173811F921F921F921F92812CC4
:10230000912C5401C12CD12C90E8E92E9FE3F92E99
:102310009301820113C000811181228133811F92B8
:102320001F921F921F92812C912C5401C12CD12CF1
:1023300080E8E82E8FE3F82EB301A201F10180813D
:1023400091810E944B170F900F900F900F90312C9E
:10235000832D2F960FB6F894DEBF0FBECDBFDF9151
:10236000CF911F910F91FF90EF90DF90CF90BF9092
:10237000AF909F908F907F906F905F904F903F9025
:102380002F90089580E008954F925F926F927F9210
:102390008F929F92AF92BF92CF92DF92EF92FF9275
:1023A0000F931F93CF93DF93EC018C010C5B1F4FB6
:1023B000633061F460E070E0F801808191810E94F7
:1023C0001F232B013C0162E070E00BC061E070E074
:1023D000F801808191810E941F232B013C0163E061
:1023E00070E0F801808191810E941F234B015C0104
:1023F0008E01085A1F4FF8018081882361F0709781
:10240000808191810E943422FE01E75AFF4F608350
:102410007183828393837E01F7E5EF0EF11CF70150
:10242000808181110EC03D9720813181428153818D
:10243000C301B2010E94593587FF03C081E0F70153
:102440008083F7017080CE018A5B9F4F6C017720FB
:10245000C1F0FE01E65BFF4F208131814281538153
:10246000C501B4010E94593587FF0BC0F601808178
:1024700091810E946C18F701108281E0F80180833D
:102480001AC0F8018081882339F0F601808191819A
:102490000E943717F8011082C75ADF4F48815981CF
:1024A0006A817B8100E010E09801F60180819181D2
:1024B0000E943719712C872DDF91CF911F910F91B9
:1024C000FF90EF90DF90CF90BF90AF909F908F9054
:1024D0007F906F905F904F9008958A5B9F4FFC01B3
:1024E000808191810C947518FC01808191812481F7
:1024F0003581281B390B35952795232B11F00C942A
:10250000563808958AEA93E00C947412AF92BF9201
:10251000CF92DF92EF92FF920F931F93CF93DF93AF
:10252000CDB7DEB766970FB6F894DEBF0FBECDBF4E
:102530007C01162F8091B30381110DC08AEA93E0CC
:102540004E8B0E94650281E08093B30382E892E1A2
:102550000E9468324E8980910602882309F49AC04D
:10256000B701CE0101964E8B0E94B4258DB79EB760
:10257000805491090FB6F8949EBF0FBE8DBFADB7C2
:10258000BEB7119680E4F701329601900D928A95BC
:10259000E1F79E012F5F3F4F4E89612FCE0140969C
:1025A0000E94C50C2A893B8988899989281B390B87
:1025B000359527951B861A861D861C861F861E86C6
:1025C0000FB6F894DEBF0FBECDBF6901CC0CDD1C89
:1025D000232B91F0C6010E94BE378C01009771F445
:1025E000E091A803F091A903309721F480E090E0F6
:1025F0000E94CF3C0995EECF00E010E01B870A87D0
:102600001D870C87C00ED11EDF86CE86AA88BB88A8
:10261000C888D988CA14DB0479F0B80182E090E058
:102620000E94062BF601219131916F01FC0131834B
:1026300020830E5F1F4FEECF1D870C87AE01465FD4
:102640005F4FB701CE0101960E94AA0FBE016F5FD6
:102650007F4F8AEA93E00E94F203CE0101960E9426
:102660007412CE010A960E947F04109206028AEA32
:1026700093E00E946F02882349F081E08093060274
:10268000CE0140960E947F0488E024C0CE0140968F
:102690000E947F048AEA93E00E946F02882329F057
:1026A00081E08093060280E115C08AEA93E00E94EF
:1026B00082020E949514009761F08031910529F4FF
:1026C0008AEA93E00E947A0204C021E02093060285
:1026D00002C080E090E066960FB6F894DEBF0FBEB1
:1026E000CDBFDF91CF911F910F91FF90EF90DF90C1
:1026F000CF90BF90AF9008958F929F92AF92BF926C
:10270000CF92DF92EF92FF920F931F93CF93DF93BD
:10271000CDB7DEB7C854D1090FB6F894DEBF0FBEEF
:10272000CDBF7C016E0181E4C80ED11CD6010C9393
:1027300023961FAF239724962FAF249725963FAF5C
:10274000259726964FAF269727965FAF279728960F
:102750006FAF289729967FAF2997C7010E944C2613
:102760005701B2E0AB0EB11CC5010E948F26F701E4
:10277000E65BFF4F6B968CAD9DADAEADBFAD6B977D
:1027800080839183A283B38334966F968CAD9DAD85
:10279000AEADBFAD6F9780839183A283B383349630
:1027A000A3964CAD5DAD6EAD7FADA39740835183D5
:1027B000628373833496A4968FADA49780837497B5
:1027C000D6018D919C9191838083329625968EAD12
:1027D0009FAD259791838083329627968EAD9FADCE
:1027E000279791838083329629968EAD9FAD299746
:1027F000918380833F961082319681E08083319669
:10280000108211821282138200E0A7962FADA79743
:10281000A6964FADA697A5966FADA597FE013196EA
:102820004F01CF010E942726B401C7010E94BE2597
:10283000BE0169597F4FC4010E94B326982D892D8E
:10284000E92FF82FCF010896D50121912D93E81794
:10285000F907D9F788E0A80EB11CEC15FD0519F0B1
:102860009E2F8F2FEDCF41E061E0C7010E948612BD
:10287000C85BDF4F0FB6F894DEBF0FBECDBFDF9150
:10288000CF911F910F91FF90EF90DF90CF90BF906D
:10289000AF909F908F900895CF93DF93EC014D817F
:1028A0008E81482B6C818A819B810E9480108823B5
:1028B00051F09E81982319F0282F30E009C09D81A6
:1028C000982321F406C020E030E002C020E130E08F
:1028D000C901DF91CF910895FC01648182819381C8
:1028E0000E94C411882319F080E190E0089580E0EF
:1028F00090E00895FC01828193810E94C211882397
:1029000019F080E190E0089580E090E00895FC01E6
:102910006481828193810E946D12882319F080E185
:1029200090E0089580E090E00895DC01ED91FC9145
:102930000190F081E02D09940F93FC017383628371
:1029400086E892E0918380834483258306830F91F8
:102950000895FC01738362838CE892E09183808305
:1029600044830895FC017383628322E932E031835A
:1029700020830895FC017383628388E992E0918348
:10298000808344830895FC0183E090E090878783EF
:102990001386128614860895EF92FF921F93CF93A9
:1029A000DF931F92CDB7DEB77C01162FFC01618546
:1029B0008BEE93E049830E94D328612F8BEE93E046
:1029C0000E947A284981642F8BEE93E00E947A2836
:1029D0008BEE93E00E94F028F70186830F90DF9141
:1029E000CF911F91FF90EF900895CF93DF93EC016B
:1029F0008F819885029729F440E069E3CE010E9417
:102A0000CC1440E063E2CE010E94CC144FE660E2B9
:102A1000CE01DF91CF910C94CC149F92AF92BF92D4
:102A2000CF92DF92EF92FF920F931F93CF93DF939A
:102A3000EC0169858BEE93E00E94D328E091EB03D3
:102A4000F091EC030190F081E02D68EA8BEE93E0C9
:102A500009958BEE93E00E94F02846E069858BEEA5
:102A600093E00E94D0280E94AC2D7B018BEE93E076
:102A70000E942228069784F48A859B85892BB1F3CE
:102A80000E94AC2D6E197F098A859B858617970752
:102A900068F781E08C872CC08BEE93E00E942A2897
:102AA000A82E8BEE93E00E942A28982E8BEE93E0BE
:102AB0000E942A28E82E8BEE93E00E942A28B82E46
:102AC0008BEE93E00E942A28F82E8BEE93E00E9472
:102AD0002A28D92CC12CCA28D982C8821B2D00E0F3
:102AE0000E291B830A83982F88278F299D838C8327
:102AF000DF91CF911F910F91FF90EF90DF90CF90DA
:102B0000BF90AF909F9008951F93CF93DF931F9234
:102B1000CDB7DEB7162F8BEE93E049830E94D32802
:102B20004981642F8BEE93E00E947A288BEE93E02C
:102B30000E94F028811114C041E0612F8BEE93E0D8
:102B40000E94D0288BEE93E00E942228892B41F02E
:102B50008BEE93E00F90DF91CF911F910C942A2878
:102B60008FEF9FEF0F90DF91CF911F910895EF921C
:102B7000FF920F931F93CF93DF937C01EB018A01A8
:102B80006330710521F04230510509F051C0CE018A
:102B90000197039758F50115110581F04FE050E0BA
:102BA0006BE6C7010E9484158F3F2FEF920719F043
:102BB00001E010E013C00130110551F04FE050E08A
:102BC0006AE6C7010E9484158F3FEFEF9E0721F44C
:102BD000C330D10569F027C000E010E0C330D10553
:102BE00029F4873D9105F1F5C2E0D0E02097D9F4B2
:102BF0000115110561F04FE050E069E6C7010E9440
:102C00008415833D910589F10130110549F04FE0AC
:102C100050E068E6C7010E948415833D910541F1AB
:102C2000C330D10519F00230110511F480E025C040
:102C3000F701D087C783209759F0D7FD11C023979C
:102C40007CF40130110511F48BE608C08AE606C059
:102C50000130110511F489E601C088E6F70181878A
:102C600081E00BC0C1E0D0E0C1CF01E010E002C0C4
:102C700000E010E0C0E0D0E0D6CFDF91CF911F910F
:102C80000F91FF90EF900895EF92FF920F931F9393
:102C9000CF93DF93CDB7DEB728970FB6F894DEBF9A
:102CA0000FBECDBF7C01FC0160837183802F028346
:102CB0001383248335834683578360E00E94AF2FBC
:102CC00060E0F70183810E94AF2F60E0F70184810B
:102CD0000E94AF2F60E0F70185810E94AF2F60E076
:102CE000F70186810E94AF2F60E0F70187810E9483
:102CF000AF2F61E0F70180810E94AF2F60E0F70104
:102D000081810E94AF2F61E0F701808128960FB684
:102D1000F894DEBF0FBECDBFDF91CF911F910F9111
:102D2000FF90EF900C94E82F0F931F93CF93DF93B6
:102D3000EC0177FF05C071956195710981E001C0D3
:102D400080E08B016F3F710519F014F00FEF10E078
:102D5000811107C0B8018A810E94952E60E070E061
:102D600006C060E070E08A810E94952EB8018B81D8
:102D7000DF91CF911F910F910C94952E0F931F937C
:102D8000CF93DF93EC0177FF05C0719561957109D1
:102D900081E001C080E08B016F3F710519F014F0F4
:102DA0000FEF10E0811107C0B8018D810E94952EB0
:102DB00060E070E006C060E070E08D810E94952EBA
:102DC000B8018E81DF91CF911F910F910C94952EB8
:102DD0000F931F93CF93DF93EC018A010E94941607
:102DE000B801CE01DF91CF911F910F910C94BE16C7
:102DF000FC0184810E94702E29E0AC01249FC00157
:102E0000259F900D11240895FC0187810E94702E4A
:102E100029E0AC01249FC001259F900D1124089545
:102E2000FC0181810E941E3021E0892B09F020E005
:102E3000822F0895FC011682178210861186128651
:102E400013861486158616861786108A118A128AAA
:102E5000138A148A158A168A178A108E118E128E7A
:102E60007183608333832283558344830895CF9392
:102E7000DF93EC011B8A1C8A1D8A1E8A1F86188A12
:102E8000198A1A8A0E94B82D6B877C878D879E8746
:102E9000DF91CF9108952F923F924F925F926F9260
:102EA0007F928F929F92AF92BF92CF92DF92EF92DA
:102EB000FF920F931F93CF93DF93CDB7DEB7649745
:102EC0000FB6F894DEBF0FBECDBF1C0149835A83F5
:102ED0006B837C83098B1A8B2B8B3C8B49A45AA464
:102EE0006BA47CA449865A866B867C860E94B82D8A
:102EF000D1011B962D913D914D915C911E972B0117
:102F00003C01421A530A640A750A4D825E826F823E
:102F100078861B966D937D938D939C931E97411499
:102F200051046104710409F4ABC029893A894B89C1
:102F30005C8969817A818B819C810E94F4346983E8
:102F40007A838B839C83C301B2010E94F8356D8321
:102F50007E838F83988720E034E244E759E40E941F
:102F60005D359B01AC0169817A818B819C810E94D6
:102F7000AC36F10123893489458956890E94F5349C
:102F80002B013C01D10153966D937D938D939C93BE
:102F9000569729813A814B815C81C701B6010E9415
:102FA000AC366B017C01A3019201C501B4010E9402
:102FB000AC369B01AC01C701B6010E94F5344B0150
:102FC0005C01F101278530894189528969817A81C3
:102FD0008B819C810E94F4342B013C012D813E8128
:102FE0004F81588560E074E284E799E40E945D3582
:102FF0009B01AC01C301B2010E94AC369B01AC0144
:1030000069857A858B859C850E94AC369B01AC01D5
:10301000C501B4010E94F5340E94C53549805A802B
:103020006B807C80D1011F964D925D926D927C9257
:10303000529711962C91119730E0A901461B570B1E
:10304000620F731F12968D919C91139764960FB621
:10305000F894DEBF0FBECDBFDF91CF911F910F91CE
:10306000FF90EF90DF90CF90BF90AF909F908F90A8
:103070007F906F905F904F903F902F900C94E81648
:1030800064960FB6F894DEBF0FBECDBFDF91CF912F
:103090001F910F91FF90EF90DF90CF90BF90AF9076
:1030A0009F908F907F906F905F904F903F902F9068
:1030B000089570E0FC0182819381413029F4442716
:1030C0005527461B570B06C022273327261B370BD5
:1030D000AB01B9010C94E81640E050E060E070E00C
:1030E000FC01828193810C94E8168F929F92AF929B
:1030F000BF92CF92DF92EF92FF921F93CF93DF9315
:10310000EC01162F8C819D810E9434224B015C01C1
:103110008E8181113BC0113029F420E030E044EB76
:1031200052E404C020E030E044EB52ECC501B401AD
:103130000E94F5346B017C0120E030E044EB53E465
:103140000E94A83687FD09C020E030E044EB53E43C
:10315000C701B6010E94F43415C0CF82D886E98633
:10316000FA8620E030E0A901C701B6010E94593576
:1031700087FF0CC020E030E044EB53E4C701B60108
:103180000E94F5346F83788789879A87A501940117
:103190006F81788589859A850E94F4346B017C0162
:1031A00020E030E044E353E40E94A83618164CF4C3
:1031B00020E030E044EB53E4C701B6010E94F43450
:1031C00012C020E030E044E353ECC701B6010E9496
:1031D000593587FF0AC020E030E044EB53E4C701D3
:1031E000B6010E94F5346B017C0120E030E0A901BA
:1031F000C701B6010E94A83646015701181624F0EF
:10320000B7FAB094B7F8B094688170E080E090E0CD
:103210000E94F8359B01AC01C501B4010E945935EB
:1032200087FF06C0CE010E946C181E8281E013C089
:1032300020E030E0A901C701B6010E94A8361816A7
:1032400014F441E001C043E06981CE010E945918A5
:1032500081E08E8380E0DF91CF911F91FF90EF900E
:10326000DF90CF90BF90AF909F908F9008958F92F6
:103270009F92AF92BF92CF92DF92EF92FF920F9305
:103280001F93CF93DF93EC014A015B016801790141
:10329000011511052105310519F18F89988DA98D29
:1032A000BA8D892B8A2B8B2B31F40E94B82D6F8B12
:1032B000788F898F9A8F0E94B82D0F89188D298D4C
:1032C0003A8D601B710B820B930BC616D706E8066E
:1032D000F90630F41F8A188E198E1A8E81E04BC0C1
:1032E0008C819D810E9434229B01AC01C501B401F7
:1032F0000E94F4346B017C0120E030E044E353E4AD
:103300000E94A83618164CF420E030E044EB53E459
:10331000C701B6010E94F43412C020E030E044E35B
:1033200053ECC701B6010E94593587FF0AC020E05F
:1033300030E044EB53E4C701B6010E94F5346B0161
:103340007C019701860130581F921F921F921F9295
:10335000812C912C5401C12CD12C80E8E82E8FE3D4
:10336000F82EB501A401CE010E944B170F900F90CB
:103370000F900F9080E0DF91CF911F910F91FF9000
:10338000EF90DF90CF90BF90AF909F908F90089577
:10339000FF920F931F93CF93DF93EC018B01F42ED9
:1033A000E881F981848595850E941017882339F07A
:1033B00061E872E082EC94E00E94ED32FFCFEC8194
:1033C000FD81B80184859585FF2019F00E9494162F
:1033D00002C00E94BE16C80117FF03C091958195D7
:1033E000910962E370E00E946A37892B39F5FF206A
:1033F00069F06CE672E082EC94E00E94BB32EA81F4
:10340000FB81848595850E94F8160CC066E572E004
:1034100082EC94E00E94BB32EA81FB818485958531
:103420000E9404174AE050E0BC0182EC94E0DF9176
:10343000CF911F910F91FF900C94DE33DF91CF91CC
:103440001F910F91FF9008956F927F928F929F929C
:10345000AF92BF92CF92DF92EF92FF920F931F93A2
:10346000CF93DF93CDB7DEB72C970FB6F894DEBFBE
:103470000FBECDBF3C01842F89829A82AB82BC8271
:10348000CD82DE82EF82F88609871A872B873C87F8
:1034900029813A81F301338322832B813C81358357
:1034A00024832D813E81378326832F813885318780
:1034B000208729853A85338722872B853C85358768
:1034C00024874083668762E00E94AF2FF301118258
:1034D0002C960FB6F894DEBF0FBECDBFDF91CF9113
:1034E0001F910F91FF90EF90DF90CF90BF90AF9022
:1034F0009F908F907F906F9008950F931F93CF931D
:10350000DF9300D000D000D0CDB7DEB79A83898397
:103510009C838B839E838D8300E010E041E0B801A3
:10352000CE0101960E94C8196FE070E080E090E043
:103530000E94DB2D0F5F1F4F011581E0180771F707
:103540000FEF10E041E0B801CE0101960E94C819CA
:103550006FE070E080E090E00E94DB2D01501109E7
:1035600001158FEF180771F701E01FEF41E0B80177
:10357000CE0101960E94C8196FE070E080E090E0F3
:103580000E94DB2D0F5F1F4F0130110579F700E01E
:1035900010E040E0B801CE0101960E94C8196FE02A
:1035A00070E080E090E00E94DB2D0F5F1F4F01155F
:1035B00081E0180771F70FEF10E040E0B801CE018D
:1035C00001960E94C8196FE070E080E090E00E94D0
:1035D000DB2D0150110901158FEF180771F701E07C
:1035E0001FEF40E0B801CE0101960E94C8196FE0BC
:1035F00070E080E090E00E94DB2D0F5F1F4F0130F4
:10360000110579F780E026960FB6F894DEBF0FBE5D
:10361000CDBFDF91CF911F910F9108956091080266
:10362000FC01828593850E947518882329F080917A
:10363000E1038F5F8093E1038091E103843059F4CB
:103640001092E10380910802813011F483E001C0FF
:1036500081E08093080280E008950F931F93CF9339
:10366000DF93EC018091E20381110FC08885998579
:103670000E9434226093DD037093DE038093DF03A6
:103680009093E00381E08093E20380910702882316
:1036900031F08A859B850E9437171092070240916E
:1036A000DD035091DE036091DF037091E00300E4DD
:1036B0001BE42CE430E08A859B850E94371988231F
:1036C00021F081E08093070201C080E0DF91CF917B
:1036D0001F910F910895AF92BF92CF92DF92EF9218
:1036E000FF920F931F93CF93DF93CDB7DEB7C259ED
:1036F000D1090FB6F894DEBF0FBECDBF8C01FC011F
:1037000064817581CE018F579F4F0E949524CD57BC
:10371000DF4FA881C358D040CC57DF4FB881C45881
:10372000D040CB57DF4FF880C558D040CA57DF4F45
:10373000E880C658D040C957DF4FD880C758D0401E
:10374000C857DF4FC880C858D040C757DF4FB88030
:10375000C958D040C657DF4FA880CA58D040CF576D
:10376000DF4F28813981C158D040F801848195818B
:10377000FC01838994892817390739F467E372E0DB
:1037800082EC94E00E94ED326EC02830310508F4DE
:103790004AC080E090E0E0E04CE050E0B901042E47
:1037A00002C0769567950A94E2F7677011F4EE23EC
:1037B00051F0EDE8F0E0EC0FFD1FE80FF91F605D40
:1037C00060830196E1E0435051094D3FFFEF5F07F1
:1037D00029F7AE0143575F4FFA01E80FF91F108236
:1037E000C457DF4F8881CC58D0408F93C557DF4FE7
:1037F0008881CB58D0408F93AF92BF92CF92DF9207
:10380000EF92FF92BF93AF933F932F935F934F93AA
:103810008AE992E09F938F93CE0101969F938F93B5
:103820000E94E93914C0AF92BF92CF92DF92EF921B
:10383000FF92BF93AF933F932F9384EE92E09F93B9
:103840008F93CE0101969F938F930E94E9390FB613
:10385000F894DEBF0FBECDBFBE016F5F7F4F82EC1D
:1038600094E00E94E03280E0CE56DF4F0FB6F8942D
:10387000DEBF0FBECDBFDF91CF911F910F91FF90A3
:10388000EF90DF90CF90BF90AF9008954F925F92EE
:103890006F927F928F929F92AF92BF92CF92DF9260
:1038A000EF92FF920F931F93CF93DF93CDB7DEB7C5
:1038B00069970FB6F894DEBF0FBECDBF7C010E94A2
:1038C000B82D2091DB033091DC032130310509F460
:1038D00037C12230310509F4E9C0232B09F0FAC2BF
:1038E0008090D7039090D803A090D903B090DA03CA
:1038F00089288A288B2841F46093D7037093D803D2
:103900008093D9039093DA038090D7039090D803E3
:10391000A090D903B090DA03DC01CB018819990992
:10392000AA09BB09A090D503B090D603883893416B
:10393000A105B10508F05EC085010F5F1F4F109310
:10394000D6030093D503D7011896ED91FC911997F2
:1039500060857185882777FD8095982F0E94F835BE
:103960002B013C018090D1039090D203A090D3030F
:10397000B090D403A50194010E94F4346B017C0142
:10398000B80180E090E00E94F6359B01AC01C701D0
:10399000B6010E945D359B01AC01C501B4010E94D6
:1039A000F5349B01AC016093D1037093D2038093F3
:1039B000D3039093D403C301B2010E94F4349B015A
:1039C000AC01C701B6010E94AC369B01AC0160910D
:1039D000CD037091CE038091CF039091D0030E94CC
:1039E000F5346093CD037093CE038093CF0390930F
:1039F000D00370C2B5016150710980E090E00E946F
:103A0000F6359B01AC016091CD037091CE0380919E
:103A1000CF039091D0030E945D350E9413376093CD
:103A2000C9037093CA038093CB039093CC0369E2DC
:103A300072E082EC94E00E94ED3265E272E082EC8A
:103A400094E00E94BB324091D1035091D203609127
:103A5000D3037091D40322E030E082EC94E00E9422
:103A6000E1346EE172E082EC94E00E94ED326AE1B2
:103A700072E082EC94E00E94BB324091C903509105
:103A8000CA036091CB037091CC0322E030E082EC5A
:103A900094E00E94E1341092D7031092D803109260
:103AA000D9031092DA0382E090E045C06EE073E043
:103AB00082EC94E00E94E03222E030E040E050E00E
:103AC00064EB73E482EC94E00E94DF3467E373E01C
:103AD00082EC94E00E94FF3266E573E082EC94E0B1
:103AE0000E94FF326CE271E080E090E00E94DB2DEA
:103AF0006BE573E082EC94E00E94FF326CE271E0CF
:103B000080E090E00E94DB2D60E673E082EC94E0C0
:103B10000E94FF326CE271E080E090E00E94DB2DB9
:103B200065E673E082EC94E00E94FF3281E08093CE
:103B3000C80381E090E09093DC038093DB03CAC16B
:103B40008090D7039090D803A090D903B090DA0367
:103B500089288A288B2841F46093D7037093D8036F
:103B60008093D9039093DA038090D7039090D80381
:103B7000A090D903B090DA032B013C0148185908F2
:103B80006A087B08D7011896ED91FC91199760851A
:103B90007185882777FD8095982F0E94F8352091B0
:103BA000D1033091D2034091D3035091D4030E94AA
:103BB000F43429E23CE54FE05CE30E94AC366B0153
:103BC0007C01C301B2010E94F6359B01AC01C70123
:103BD000B6010E94AC3620E034E244E759E40E948A
:103BE0005D352091C4033091C5034091C6035091C7
:103BF000C7030E94F5344B015C016093C4037093CA
:103C0000C5038093C6039093C7032091C0033091EE
:103C1000C1034091C2035091C3030E94A8361816F5
:103C200044F48092C0039092C103A092C203B09268
:103C3000C303B8EB4B16BBE05B066104710408F4E8
:103C400049C120E030E0A901C701B6010E94A836B1
:103C500018165CF42DEC3CEC4CEC5DE3C701B601AE
:103C60000E94593587FF36C10BC02DEC3CEC4CEC63
:103C70005DEBC701B6010E94A83618160CF02AC1E8
:103C80008091BF03811112C068EF71E082EC94E073
:103C90000E94ED321092D7031092D8031092D903EC
:103CA0001092DA0381E08093BF0314C12091C00316
:103CB0003091C1034091C2035091C30360E070E0B2
:103CC00084EB93E40E945D3529E23CE54FE05CE340
:103CD0000E94AC366093BB037093BC038093BD031A
:103CE0009093BE0362EF71E082EC94E00E94ED32AB
:103CF00065EE71E082EC94E00E94BB324091C0031B
:103D00005091C1036091C2037091C30322E030E07F
:103D100082EC94E00E94E13465ED71E082EC94E085
:103D20000E94BB324091BB035091BC036091BD0324
:103D30007091BE0322E030E082EC94E00E94E13416
:103D40008091D1039091D203A091D303B091D40379
:103D50008D879E87AF87B88B8091BB039091BC0302
:103D6000A091BD03B091BE038D8B9E8BAF8BB88F9E
:103D70008091C9039091CA03A091CB03B091CC0369
:103D8000898B9A8BAB8BBC8B6E01EDE0CE0ED11C78
:103D9000E12CF12CD6016D916D01C701698F0E9454
:103DA000133C698D681719F0C7010E941B3CBFEFD7
:103DB000EB1AFB0AECE0EE16F10461F78E010F5FDF
:103DC0001F4FE12CF12CC7010E94133CD8018D93A9
:103DD0008D01BFEFEB1AFB0AECE0EE16F10499F748
:103DE00049805A806B807C808D809E80AF80B884B3
:103DF000C984DA84EB84FC846CEA71E082EC94E0A0
:103E00000E94ED3263EA71E082EC94E00E94BB32E2
:103E10004091D1035091D2036091D3037091D403A8
:103E200022E030E082EC94E00E94DF3468E971E047
:103E300082EC94E00E94BB3222E030E0B301A201A8
:103E400082EC94E00E94E1346EE871E082EC94E050
:103E50000E94BB324091C9035091CA036091CB03C9
:103E60007091CC0322E030E082EC94E00E94DF34D9
:103E700063E871E082EC94E00E94BB3222E030E023
:103E8000B501A40182EC94E00E94E13463E771E0A3
:103E900082EC94E00E94BB324091BB035091BC0382
:103EA0006091BD037091BE0322E030E082EC94E0AB
:103EB0000E94DF3468E671E082EC94E00E94BB323D
:103EC00022E030E0B701A60182EC94E00E94E134E8
:103ED00081E001C080E069960FB6F894DEBF0FBEA6
:103EE000CDBFDF91CF911F910F91FF90EF90DF90A9
:103EF000CF90BF90AF909F908F907F906F905F908A
:103F00004F900895FC01808591850E943422AB0179
:103F1000BC0122E030E082EC94E00E94E13480E0D9
:103F2000089544E0FC01828193810E94801091E019
:103F3000843009F090E0892F089541E0FC018281EE
:103F400093810E94801091E0813009F090E0892FE8
:103F5000089542E0FC01828193810E94801091E0EB
:103F6000823009F090E0892F0895CF93DF93EC0120
:103F700088810E941E30892B09F452C089818111E9
:103F80004FC088859985009711F00E9471224E8557
:103F900050E0FA013197EF30F10598F5EE58FF4FF8
:103FA0000C94A037CE010E947D1A39C0CE010E9428
:103FB0000E1B35C0CE010E942D1B31C0CE010E94C8
:103FC0006B1B2DC0CE010E94461C29C0CE010E9451
:103FD000821F25C063E001C061E0CE010E94911FF5
:103FE0001EC063E001C061E0CE010E949D1F17C0AA
:103FF00063E001C061E0CE010E94A91F10C01982D8
:104000000FC064E972E082EC94E00E94BB324AE0A7
:1040100050E06E8582EC94E00E94C13381E0898398
:104020008981DF91CF9108958EBD00000DB407FE08
:10403000FDCF8EB508951F93CF93DF93FC0123A985
:104040002223A1F085A991E0980F95ABDF01A80F7D
:10405000B11DA80FB11D53964C91539754963C91A6
:10406000215023AB903199F415AA11C0808988237F
:10407000F9F0228991E0920F928BDF01A20FB11D1E
:104080001C918150808B903129F4128A03C0842FB7
:10409000932F15C08BE50E941420282F30E0D22FDB
:1040A000CC27812F0E9414209E01282BC90107C014
:1040B0008AE50E941420282F30E010E0F0CFDF9135
:1040C000CF911F9108950F931F93CF93DF93CDB797
:1040D000DEB78C018CE0EBE0F2E0D8015396019062
:1040E0000D928A95E1F7F80111AA12AA13AAEC5AC7
:1040F000FF4F1082319610823196108231961082D5
:1041000033961182108232968EE190E09183808303
:1041100088E691E00E94BE37F80190A3878FE25AAB
:10412000FF4F1182108232961182108283E1FE01CC
:104130003796D80101900D928A95E1F70E947E256D
:104140008CB58C7F81608CBD8DB58E7F8DBDF80167
:10415000EE59FF4F81E08083DF91CF911F910F9146
:104160000895CF92DF92EF92FF920F931F93CF9318
:10417000DF93CDB7DEB72C970FB6F894DEBF0FBE36
:10418000CDBFC982DA8229813A812150310981E08B
:104190002230310508F080E02C960FB6F894DEBF8F
:1041A0000FBECDBFDF91CF911F910F91FF90EF9088
:1041B000DF90CF9008953F924F925F926F927F92DF
:1041C0008F929F92AF92BF92CF92DF92EF92FF9227
:1041D0000F931F93CF93DF93CDB7DEB72C970FB616
:1041E000F894DEBF0FBECDBF4C01C982DA82EB82EC
:1041F000FC820D831E8349875A873A2C0D811E81CC
:10420000FC01618172818B819C81681B790B77FF36
:1042100003C0719561957109882777FD8095982F66
:104220000E94F835F40123813481458156810E9432
:10423000AC362B013C0189859A8597FD0196BC011E
:1042400075956795600F711F882777FD8095982F6A
:104250000E94F835F40127813085418552850E94FE
:10426000AC364B015C01A30192010E94F4346B0156
:104270007C01332009F445C06CE173E082EC94E0EA
:104280000E94BB3269817A814AE050E082EC94E07E
:104290000E94D83366E173E082EC94E00E94BB3266
:1042A0004AE050E0B80182EC94E00E94D8336BE021
:1042B00073E082EC94E00E94BB3222E030E0B30174
:1042C000A20182EC94E00E94DF346EEF72E082EC97
:1042D00094E00E94BB3222E030E0B501A40182EC00
:1042E00094E00E94DF3464EF72E082EC94E00E947C
:1042F000BB3222E030E0B701A60182EC94E00E94DC
:10430000E134C701B6012C960FB6F894DEBF0FBE9C
:10431000CDBFDF91CF911F910F91FF90EF90DF9074
:10432000CF90BF90AF909F908F907F906F905F9055
:104330004F903F900895FC0180810E94702E833140
:104340009105B4F0BC01882777FD8095982F0E94D5
:10435000F8352FED3FE443E951E40E94F4349B012A
:10436000AC016AE979EA86E195E40E945D35089539
:1043700060E070EC89E794E40895EF92FF920F9368
:104380001F93CF93DF93EC018C010C5F1F4FC8018B
:104390000E94C3148BEE93E00E94B92842E050E0E3
:1043A00063E070E0C8010E94B715811107C064ED99
:1043B00072E082EC94E00E94ED32FFCFC8010E94CF
:1043C000F5141D8A1E8A1F8A188E198A1A8A1B8A5A
:1043D0001C8A188219821A821B827E0189E1E80EEA
:1043E000F11C00E010E0C8010E94133CF70181932A
:1043F0007F010F5F1F4F0C301105A9F76DEC72E0C4
:1044000082EC94E00E94BB32498D5A8D6B8D7C8D7D
:1044100022E030E082EC94E00E94DF3464EC72E051
:1044200082EC94E00E94BB324D8D5E8D6F8D78A141
:1044300022E030E082EC94E00E94DF3464EB72E032
:1044400082EC94E00E94BB3249A15AA16BA17CA1ED
:1044500022E030E082EC94E0DF91CF911F910F9148
:10446000FF90EF900C94E134CF92DF92EF92FF92A5
:10447000FC01208131814281538161897289838964
:1044800094890E94F5346B017C0120E030E044EB1C
:1044900053E40E94A836181654F420E030E044EBB0
:1044A00053E4C701B6010E94F4346B017C0120E0A3
:1044B00030E0A901C701B6010E94593587FF0AC043
:1044C00020E030E044EB53E4C701B6010E94F5342C
:1044D0006B017C01C701B601FF90EF90DF90CF9098
:1044E00008954F925F926F927F928F929F92AF92B8
:1044F000BF92CF92DF92EF92FF92CF93DF93EC01C6
:1045000004960E940D150E94B82DCD88DE88EF8894
:10451000F88C2B013C014C185D086E087F086D8BF0
:104520007E8B8F8B988F68857985882777FD80951E
:10453000982F0E94F835298D3A8D4B8D5C8D0E9405
:10454000F4346B017C0120E030E0A9010E94A83620
:1045500046015701181624F0B7FAB094B7F8B09492
:1045600020E030E040E450E46D8D7E8D8F8D98A189
:104570000E94AC369B01AC01C501B4010E945935C3
:1045800087FF03C0C12CD12C7601C301B2010E9468
:10459000F6359B01AC01C701B6010E94AC3620E0A4
:1045A00034E244E759E40E945D3529A13AA14BA1C8
:1045B0005CA10E94AC3629893A894B895C890E94AA
:1045C000F5346B017C0120E030E0A9010E945935EF
:1045D00020E030E044EB53E487FF05C0C701B6019B
:1045E0000E94F53413C0C701B6010E94A83687FFA8
:1045F00005C0C98ADA8AEB8AFC8A0CC020E030E068
:1046000044EB53E4C701B6010E94F434698B7A8B02
:104610008B8B9C8BDF91CF91FF90EF90DF90CF90B1
:10462000BF90AF909F908F907F906F905F904F90D2
:104630000895FC0140835183628373830895CF9270
:10464000DF92EF92FF92FC016130710569F024F472
:10465000672BC9F480810BC06230710539F063307B
:10466000710589F4838103C0818101C082810E9428
:10467000702EBC01882777FD8095982F0E94F83511
:104680006B017C0103C0C12CD12C760120E030E00D
:1046900048E951E4C701B6010E94593587FD11C0B0
:1046A0002FED3FE443E951E4C701B6010E94F43421
:1046B0009B01AC016AE979EA86E195E40E945D35E7
:1046C00004C060E070EC89E794E4FF90EF90DF9025
:1046D000CF9008953F924F925F926F927F928F9208
:1046E0009F92AF92BF92CF92DF92EF92FF920F9381
:1046F0001F93CF93DF9300D01F92CDB7DEB7AC01ED
:104700005B01FC0180AD81114AC0EE24EA94FE2CCD
:104710006A01F2E0CF0ED11CC6014A835B830E947E
:104720001B208C014A815B81009759F4EF2811F01E
:104730007801F2CF8AE090E00E94032E80E090E0C2
:10474000DFC085352AEA920749F485E5E8168AEA4A
:10475000F80671F7FA0112AE11AE23C08635FAEAF7
:104760009F0759F425E5E2162AEAF20609F781E0E7
:1047700090E0FA0192AF81AF14C08A3AF5E59F0745
:10478000B9F668E673E082EC94E04A835B830E94AA
:10479000FF3280E00E9414204A815B81C9CFFA0178
:1047A00010AEFA0114AE13AE6A01F2E0CF0ED11CC6
:1047B0006CE0362E88248394912CFA0183AD94AD5D
:1047C0008A159B0508F09CC08238910508F098C0B6
:1047D000C6014A835B830E941B208C014A815B8156
:1047E000FA0123AD34AD8535FAEA9F0731F481E053
:1047F000FA0180AF12AE11AE0BC08635FAEA9F0700
:1048000049F481E0FA0180AF81E090E092AF81AF9E
:10481000C90176C00097E1F3FA0185AD96AD821724
:10482000930798F44E9696AF85AF389EB001399EA7
:10483000700D1124808191814A835B830E94E53849
:104840004A815B81FA0191838083FA0123AD34AD03
:10485000329EC001339E900D1124E080F180E80E5D
:10486000F91E3701412C512C20E0FA0181AD92ADA7
:10487000892B31F4253021F4F7011386128612C0FA
:10488000C60129834A835B830E941B20480E591E60
:10489000F301819391933F0129812F5F4A815B81CD
:1048A000263019F70415150539F4FA0183AD94ADD6
:1048B000019694AF83AF0AC060E773E082EC94E0A6
:1048C0004A835B830E94FF325B814A81C6014A832F
:1048D0005B830E941B204A815B818535FAEA9F0732
:1048E00021F4FA0112AE11AE68CF86359A4A21F44E
:1048F000FA0192AE81AE61CFFA0183AD94AD00C0F2
:104900000F900F900F90DF91CF911F910F91FF901B
:10491000EF90DF90CF90BF90AF909F908F907F905F
:104920006F905F904F903F9008952F923F924F92DB
:104930005F926F927F928F929F92AF92BF92CF922F
:10494000DF92EF92FF920F931F93CF93DF93CDB738
:10495000DEB762970FB6F894DEBF0FBECDBF3C0145
:104960004B018CE0FB017396D30101900D928A9567
:10497000E1F78B01015E1F4F68EE73E0C8010E94F2
:104980006A232C0168EE73E0C8010E946A23480E76
:10499000591E212C312C1E861D8680EF8F8793E2B5
:1049A000988BE4E7E98BF9ECFA8BED85FE85E4154D
:1049B000F5050CF062C0F401878D90A1820D931D66
:1049C000FC01DE0111962CE001900D922A95E1F791
:1049D000FC01E080F18006811781A084B184C701C9
:1049E0000197029708F040C00A9DB0010B9D700D21
:1049F0001A9D700D112480E090E00E94F635F401BC
:104A000027853089418952890E94A836181664F595
:104A1000CE2CFA82E982202F18870F834A2DBA867E
:104A2000A986A12CDA80EB80FC800D811E8138855F
:104A30005A856B857C85C4010E94DB207B018C013B
:104A40002F85388949895A890E94A83687FD0CC06C
:104A5000FE013196D3018CE001900D928A95E1F729
:104A6000EF86F88A098B1A8B8D859E8501969E8725
:104A70008D879CE0290E311C98CFF4012385348565
:104A8000458556856F85788989899A890E94A836D7
:104A9000181694F4F301808191810197880F991F72
:104AA000880D991DFC01E25AFF4F208131812F5F53
:104AB0003F4F3183208308C08CE0F4017396D3010B
:104AC00001900D928A95E1F7C30162960FB6F894B2
:104AD000DEBF0FBECDBFDF91CF911F910F91FF9031
:104AE000EF90DF90CF90BF90AF909F908F907F908E
:104AF0006F905F904F903F902F900895CF93CFB7D6
:104B0000F8948091EA03811127C0E4E0F4E08491F5
:104B1000EEEBF3E09491E82FF0E0EE0FFF1FE75B80
:104B2000FB4FA591B4918C91892321F461E085E339
:104B30000E94E82F61E085E30E94AF2F8CB5806171
:104B40008CBD8CB580648CBD61E084E30E94AF2F86
:104B500061E083E30E94AF2F8091EA038F5F80932F
:104B6000EA03CFBFCF910895FC0111821082FB01AF
:104B700020813181FC01318320830895FB01208154
:104B80003181FC01318320830895FC01613051F0B3
:104B900028F0623061F0633079F00895808191816E
:104BA0008F730DC0808191818F77806408C0808170
:104BB00091818F7B806803C080819181806C91831B
:104BC00080830895FC018081918162FF02C0806230
:104BD00001C08F7D918380838081918161FF02C0BC
:104BE000806101C08F7E918380838081918160FF8D
:104BF00002C0886001C0877F918380830895FC0193
:104C00008081918162FF02C0846001C08B7F9183AB
:104C100080838081918161FF02C0826001C08D7FAD
:104C2000918380838081918160FF02C0816001C097
:104C30008E7F918380830895FC018081918166231A
:104C400011F0916001C09E7F918380830895EF925F
:104C5000FF920F93CF93DF9300D0CDB7DEB77C01E7
:104C6000FC01118210822A8349830E94C525498153
:104C7000642FC7010E94E2252A81622FC7010E948A
:104C8000FF25602FC7010F900F90DF91CF910F91FB
:104C9000FF90EF900C941C260F9300E020E040E082
:104CA00061E00E9427260F910895FC018081918187
:104CB00087FF04C086FF09C083E0089526E096952B
:104CC00087952A95E1F78170089582E00895FC01A7
:104CD000908195FB222720F994FB882780F9F2E048
:104CE0002F9F800D1124880F93FB992790F9890F2E
:104CF0000895FC012081318122FB992790F921FB45
:104D0000882780F9F2E09F9F800D1124880F217081
:104D10003327820F0895FC01818181700895AC01D1
:104D2000405C5F4FFC019F01285F3F4F1192E217EB
:104D3000F307E1F7E417F507B1F720E030E040E0D2
:104D400050E0BC01620F731FFB01E40FF51F1082DE
:104D50004F5F5F4F48305105B9F7285F3F4F203410
:104D6000310569F708951F93CF93DF93AC01405C41
:104D70005F4FFC019F01285F3F4F1192E217F3073D
:104D8000E1F7E417F507B1F720E030E0FB01E20FAF
:104D9000F31F40E050E0DC01A21BB30B1191ED01C9
:104DA000C40FD51F18AF4F5F5F4F48305105B1F7A3
:104DB000285F3F4F2034310549F7DF91CF911F9194
:104DC0000895211102C057E001C056E021E030E013
:104DD00002C0220F331F5A95E2F758E0659FF00199
:104DE0001124E40FF11DE80FF91F808190E02823C2
:104DF000392381E0121613060CF080E0089528E0B4
:104E0000629FF0011124E40FF11DE80FF91F90815A
:104E100081E091FF80E0089528E0629FF001112475
:104E2000E40FF11DE80FF91F908181E090FF80E011
:104E30000895FC011182108213821282158214825D
:104E40000895DC0112962D913C9113978D919C91C0
:104E5000FC018217930761F002960190F081E02D2A
:104E6000DB014D915C91E417F50791F781E008951E
:104E700080E00895CF93DF93EB01BC0182E090E0E6
:104E80000E94062BFC011182108228813981318316
:104E90002083DF91CF9108956F927F928F929F929E
:104EA000AF92BF92CF92DF92EF92FF920F931F9338
:104EB000CF93DF93EC018B014A018A819B812C8186
:104EC0003D818217930711F1BC01625071090E9464
:104ED0003A27EA81FB81CF0102969B838A83D40122
:104EE0002D913C91DF011297CD01801B910B95957F
:104EF00087951816190634F45E914E915293429399
:104F00000197F7CFF8013183208366C0288139816A
:104F10006C01C21AD30AD594C794C114D10439F0D4
:104F2000FAE0CF0ED11CC114D10421F418C0CC2456
:104F3000C394D12C5601AA0CBB1CC5010E94BE37DC
:104F40007C01009781F4E091A803F091A9033097C8
:104F500021F480E090E00E94CF3C0995EECFC12C77
:104F6000D12CE12CF12C68807980C701DC011296EC
:104F70005D016016710641F0B3010E943A2722E0FC
:104F8000620E711CC501F2CFB4010E943A278A80DB
:104F90009B800815190551F0B801C5010E943A27F8
:104FA0000E5F1F4FB2E0AB0EB11CF3CF8881998129
:104FB0002C813D81281B390B35952795232B11F02A
:104FC0000E945638F982E882BB82AA82CC0CDD1C92
:104FD000CE0CDF1CDD82CC82DF91CF911F910F912F
:104FE000FF90EF90DF90CF90BF90AF909F908F9009
:104FF0007F906F9008950F931F93CF93DF93EC01F1
:105000008B010E942127811117C08A819B812C81ED
:105010003D818217930749F0B8010E943A278A819F
:105020009B8102969B838A8305C0A801BC01CE01A7
:105030000E944C2781E001C080E0DF91CF911F9159
:105040000F91089580911B0490E020911C04821B15
:105050009109089520911C0480911B04281750F495
:10506000E22FF0E0E35EFB4F808190E02F5F209322
:105070001C0408958FEF9FEF0895E0911C04809128
:105080001B04E81730F4F0E0E35EFB4F808190E012
:1050900008958FEF9FEF08950895CF92DF92EF92DA
:1050A000FF920F931F93CF93DF937C01CB018A0173
:1050B0002091F703222389F0EB016B01C40ED51E6A
:1050C000CC15DD0569F06991D701ED91FC91019056
:1050D000F081E02DC7010995F3CF642F0E94AC2920
:1050E000C801DF91CF911F910F91FF90EF90DF905A
:1050F000CF900895CF93DF931F92CDB7DEB769832A
:105100002091F7032223D1F02091F803203240F0C0
:1051100021E030E0FC013383228380E090E015C081
:105120008091F903E82FF0E0E650FC4F99819083DD
:105130008F5F8093F9038093F80305C061E0CE018F
:1051400001960E94AC2981E090E00F90DF91CF9111
:105150000895FC011382128248EE53E060E070E093
:1051600044835583668377838DE793E091838083BF
:10517000089510921C0410921B041092F9031092CF
:10518000F8030C94F728862F413208F040E26DE1D5
:1051900074E00E94152910921C0480931B0408954A
:1051A00021E00C94C32881E08093F70360931A04F4
:1051B0001092F9031092F80308950F93062F21E03F
:1051C0004091F8036AEF73E080911A040E94592914
:1051D0001092F9031092F8031092F7030F910895BB
:1051E00061E00C94DD288BEE93E00C94A9281092DA
:1051F000AA0481E08093A8041092A70461E084E1EE
:105200000E94E82F61E085E10E94E82FE9EBF0E0E1
:1052100080818E7F808380818D7F808388E48093EE
:10522000B80085E48093BC000895413208F03FC087
:105230009091AA049111FCCF91E09093AA0420933D
:10524000A8042FEF20933D0410928204240F209392
:1052500081049093A9049091A904880F892B8093CD
:10526000A9048091A704813041F41092A704809191
:10527000A9048093BB0085EC01C085EE8093BC003F
:105280008091AA048130E1F380918204841710F4A4
:105290004091820423E834E0FB01D9018A2F821B6C
:1052A000841718F48D918193F9CF842F089580E0AD
:1052B00008950F93413208F046C09091AA049111CD
:1052C000FCCF92E09093AA040093A8049FEF9093E0
:1052D0003D041092820440938104FB0163E874E072
:1052E000DB019A2F961B941718F491919D93F9CF97
:1052F0001092A9049091A904880F892B8093A90486
:105300008091A704813041F41092A7048091A904F0
:105310008093BB0085EC01C085EE8093BC00222306
:1053200021F08091AA048230E1F380913D048F3F07
:1053300061F080913D04803251F080913D048033D2
:1053400041F483E007C081E005C080E003C082E053
:1053500001C084E00F910895613298F42091AA046D
:10536000243089F460935F04FC0181E694E0DC0161
:105370002A2F281B261718F421912D93F9CF80E0AE
:10538000089581E0089582E0089585ED8093BC0042
:105390008091BC0084FDFCCF1092AA04089585EC96
:1053A0008093BC001092AA0408951F920F920FB62A
:1053B0000F9211240BB60F922F933F934F935F934D
:1053C0006F937F938F939F93AF93BF93EF93FF93CD
:1053D0008091B900887F803609F49CC068F58832D6
:1053E00009F45BC090F4803109F454C038F4882388
:1053F00009F4F5C0883009F44DC0F5C0883109F4CE
:105400004CC0803209F45DC0EEC0803409F468C03D
:1054100048F4803309F455C0883309F0E4C0809320
:105420003D04A8C0803509F44FC0883509F45DC03B
:10543000883409F0D8C0D5C0883909F4C6C0A8F4AA
:10544000883709F467C038F4883609F463C08037B8
:1054500009F460C0C8C0883809F4B7C0803909F4BD
:105460005FC0803809F0BFC05BC0803B09F485C0D5
:1054700038F4803A09F466C0883A09F47EC0B3C0B3
:10548000803C09F4A6C0883C09F4A3C0883B09F419
:1054900089C0A9C08091A90410C090918204809114
:1054A0008104981770F5E091820481E08E0F80935B
:1054B0008204F0E0ED57FB4F80818093BB0085ECC8
:1054C00085C080933D048DC0E091820481E08E0F01
:1054D000809382048091BB00F0E0ED57FB4F808306
:1054E00090918204809181046DC0E091820481E0FA
:1054F0008E0F809382048091BB00F0E0ED57FB4F4C
:1055000080838091A80481116CC081E08093A704FE
:1055100084EA60C083E08093AA0410923E04CFCF57
:1055200080913E04803208F050C0E0913E0481E05A
:105530008E0F80933E048091BB00F0E0E15CFB4F56
:105540008083BDCF80913E04803230F4E0913E04F0
:10555000F0E0E15CFB4F10820E94C52960913E049F
:1055600070E0E091A304F091A4048FE394E0099526
:1055700010923E040E94CF2936C084E08093AA0492
:105580001092600410925F04E091A504F091A604CB
:10559000099580915F04811105C081E080935F04CB
:1055A00010926104E091600481E08E0F80936004AA
:1055B000F0E0EF59FB4F80818093BB009091600435
:1055C00080915F04981708F47ACF85E88093BC0037
:1055D0000AC085EC8093BC001092AA0404C010920B
:1055E0003D040E94C529FF91EF91BF91AF919F911A
:1055F0008F917F916F915F914F913F912F910F907C
:105600000BBE0F900FBE0F901F901895CB01089501
:105610002F923F925F926F927F928F929F92AF9262
:10562000BF92CF92DF92EF92FF920F931F93CF938F
:10563000DF93CDB7DEB7CC5ED1090FB6F894DEBFED
:105640000FBECDBF2090B7043090B8048090B10455
:105650009090B204A090AF04B090B004C090AD049C
:10566000D090AE04E090B504F090B6048091B304FD
:105670009091B404C551DF4F99838883CB5ED040AD
:1056800080E5E7E1F2E0DE01AF5ABF4F01900D92F5
:105690008A95E1F788E0E7E6F2E0DE01AD51BF4F21
:1056A00001900D928A95E1F783E1EFE6F2E0DE01E9
:1056B000AC54BF4F01900D928A95E1F726E040E887
:1056C00055E260E070E082EC94E00E9459318091F4
:1056D000090290E0FC013197EF30F105B0F4EF578B
:1056E000FF4F0C94A0376CE1562E23C059E1552E84
:1056F00020C0552453941DC044E0542E1AC03EE3EC
:10570000532E17C02BE3522E14C063E273E082ECD9
:1057100094E00E94BB324AE050E06091090282ECC2
:1057200094E00E94C133FFCF9FE3592E02C088E06E
:10573000582E852D807209F46FC0C552DF4F9982B3
:105740008882CB5DD040C352DF4FB982A882CD5D45
:10575000D040C152DF4FF982E882CF5DD040CF51B7
:10576000DF4FD982C882C15ED04080E5FE01EF5A8A
:10577000FF4FDE01119601900D928A95E1F78FE5BA
:1057800090E00E947B323C018DB79EB78055910915
:105790000FB6F8949EBF0FBE8DBFADB7BEB71196C2
:1057A00080E5FE01319601900D928A95E1F7C55290
:1057B000DF4F0881CB5DD040C452DF4F1881CC5DF4
:1057C000D040C352DF4F2881CD5DD040C252DF4F61
:1057D0003881CE5DD040C152DF4F4881CF5DD0408F
:1057E000C052DF4F5881C05ED040CF51DF4F68813B
:1057F000C15ED040CE51DF4F7881C25ED040C30140
:105800000E947C137092B8046092B7040FB6F894AB
:10581000DEBF0FBECDBF04C01092B8041092B70413
:1058200054FE16C08BE190E00E947B323C01209137
:10583000B3043091B4044091AD045091AE0465E0DE
:1058400074E60E941A177092B6046092B50404C000
:105850001092B6041092B50453FE3FC088E0FE01DA
:10586000ED51FF4FDE01AD52BF4F01900D928A9571
:10587000E1F788E090E00E947B323C01CD52DF4F9F
:105880000881C35DD040CC52DF4F1881C45DD04049
:10589000CB52DF4F2881C55DD040CA52DF4F3881DF
:1058A000C65DD040C952DF4F4881C75DD040C85265
:1058B000DF4F5881C85DD040C752DF4F6881C95D56
:1058C000D040C652DF4F7881CA5DD0400E94441656
:1058D0007092B4046092B30404C01092B4041092A5
:1058E000B30450FE30C083E1FE01EC54FF4FDE01F3
:1058F000AF55BF4F01900D928A95E1F783E690E096
:105900000E947B323C018DB79EB743970FB6F89447
:105910009EBF0FBE8DBFADB7BEB7119683E1FE012E
:10592000EF55FF4F01900D928A95E1F7C3010E9458
:1059300063207092B2046092B1040FB6F894DEBF97
:105940000FBECDBF04C01092B2041092B10451FE3C
:1059500010C084E090E00E947B323C0141E052E0C4
:1059600063E074E00E9419237092B0046092AF0467
:1059700004C01092B0041092AF0452FE0CC085E235
:1059800090E00E947B323C010E94BD217092AE04E7
:105990006092AD0404C01092AE041092AD04C953DD
:1059A000DF4F39822882C75CD040C753DF4F9982CE
:1059B0008882C95CD040C553DF4FB982A882CB5CD6
:1059C000D040C353DF4FD982C882CD5CD040C15391
:1059D000DF4FF982E882CF5CD040C551DF4F88812C
:1059E0009981CB5ED040CF52DF4F99838883C15DD0
:1059F000D0408FE090E00E947B323C01C953DF4FE2
:105A00008880C75CD040C853DF4F9880C85CD040C6
:105A1000C753DF4FA880C95CD040C653DF4FB88062
:105A2000CA5CD040C553DF4FC880CB5CD040C45364
:105A3000DF4FD880CC5CD040C353DF4FE880CD5CD3
:105A4000D040C253DF4FF880CE5CD040C153DF4F0F
:105A50000881CF5CD040C053DF4F1881C05DD0407B
:105A6000CF52DF4F2881C15DD040CE52DF4F388109
:105A7000C25DD04045E4609109020E94241A7092F0
:105A8000AC046092AB04C451DF4F0FB6F894DEBF94
:105A90000FBECDBFDF91CF911F910F91FF90EF907F
:105AA000DF90CF90BF90AF909F908F907F906F903E
:105AB0005F903F902F9008958091AB049091AC043B
:105AC0000C94B51F1F920F920FB60F9211242F93B3
:105AD0003F938F939F93AF93BF938091BA0490911C
