:100000000C9434020C9463020C9463020C9463020B
:100010000C9463020C9463020C9463020C946302CC
:100020000C9463020C9463020C9463020C946302BC
:100030000C9463020C9463020C9463020C946302AC
:100040000C9463020C94BE160C9463020C9463022D
:100050000C9463020C9463020C9463020C94301FA2
:100060000C9463020C9489230C94BF230C946302B8
:100070000C9463020C9463020C9463020C9463026C
:100080000C94EC160C9463020C9463020C946302BF
:100090000C9463020C9463020C9463020C94191B7D
:1000A0000C9463020C9463020C941A170C94630270
:1000B0000C9463020C9463020C9463020C94481732
:1000C0000C9463020C9463020C9463020C9463021C
:1000D0000C9463020C9463020C9463020C9463020C
:1000E0000C9463022A10FD0F011005102A1009104C
:1000F0000D101110151017101C101E1023102510B4
:100100002A10EF1CF61CCC1CCE1CD01CD21CD41CFC
:10011000D61CDC1CDE1CD81CDA1CDC1CDE1CEF1C14
:1001200089208E2093209D20A7202021B120B92056
:10013000C120CB20D520DF20EE20F8202021022175
:100140000C21162142214521342138213E217C21D8
:1001500049214D21532157215B21612165216921CD
:100160007C216F21732177210953746F726564209C
:100170003D20007363616C65466163746F725A2041
:100180003D20000953746F726564203D200073693F
:10019000676D615A203D20000953746F72656420B9
:1001A0003D2000426961735A203D20005072696E03
:1001B00074696E672063616C63756C61746564203B
:1001C000616E642073746F7265642076616C75650E
:1001D000732E2E2E005363616C6520466163746F2D
:1001E00072203D20004D617820416E676C65203D96
:1001F0002000446F6E652100526F74617465206247
:1002000061636B20746F207374617274696E672010
:10021000706F736974696F6E2E005A3D20005369C8
:10022000676D613A005A3D200041766572616765ED
:1002300020426961733A00476574426C6F636B28B2
:10024000292072657475726E6564204241445F4274
:100250004C4F434B2E005269676874204D6F746F8A
:10026000722063757272656E743A20004C65667414
:10027000204D6F746F722063757272656E743A20D0
:10028000006D6F746F7220647269766572206661AA
:10029000756C74004552524F522D20496E76616C38
:1002A00069642070726F6772616D2063686F696343
:1002B000653A2000095363616C6520466163746F81
:1002C000723A2000095369676D613A200042696102
:1002D000733A20004661696C656420746F20617513
:1002E000746F646574656374206779726F207479C4
:1002F0007065210009546F74616C203D2000094233
:100300006F74204C696E65203D20000943656E7452
:100310006572203D20000959203D20005369672067
:100320003D20004552524F522D20496E76616C6936
:10033000642070726F6772616D2063686F696365B6
:100340003A200000000A0B02090C0D0E08070304F6
:10035000010000000000000000000000000000009C
:10036000000000000000000000000000000000127B
:10037000111000000000000000000000000000005C
:10038000000000000000000000010210202008080A
:1003900010204010204080020102010804020101E7
:1003A00002040810204080804020100804020180D0
:1003B0000402018040201008040201080402010127
:1003C000020408102040800102040810204080052B
:1003D000050505070508080808020202020A0A08BE
:1003E00008040404040101010101010101030303E4
:1003F0000303030303040707070C0C0C0C0C0C0C81
:100400000C0202020206060606060606060B0B0B87
:100410000B0B0B0B0B000020002300260029002CE7
:10042000002F003200000100000301060109010055
:10043000002200250028002B002E0031003400028D
:10044000010000050108010B010000210024002724
:10045000002A002D003000330001010000040107D4
:10046000010A0100371AF32311241FBECFEFD1E296
:10047000DEBFCDBF13E0A0E0B2E0ECE2FDE500E0BE
:100480000BBF02C007900D92A43AB107D9F725E03F
:10049000A4EAB3E001C01D92A13EB207E1F714E067
:1004A000C8E6D4E000E006C022970109FE010BBFB8
:1004B0000E949129C436D10780E00807A9F70E945D
:1004C00037240C94942E0C940000CF93DF93EC010E
:1004D000E881F981EA5BFF4F808191810E94970852
:1004E00088819981FC01E95AFF4F1082319621E001
:1004F0002083359611821082DF91CF9108958F92DB
:100500009F92AF92BF92CF92DF92EF92FF920F93A2
:100510001F93CF93DF93CDB7DEB7C854D1090FB681
:10052000F894DEBF0FBECDBF7C016E0181E4C80E22
:10053000D11CD6010C9323961FAF239724962FAF7F
:10054000249725963FAF259726964FAF2697279657
:100550005FAF279728966FAF289729967FAF299787
:10056000C7010E940B195701B2E0AB0EB11CC501C7
:100570000E941419F701E65BFF4F6B968CAD9DADA1
:10058000AEADBFAD6B9780839183A283B383349666
:100590006F968CAD9DADAEADBFAD6F9780839183EF
:1005A000A283B3833496A3964CAD5DAD6EAD7FADA3
:1005B000A39740835183628373833496A4968FAD4F
:1005C000A49780837497D6018D919C9191838083A9
:1005D000329625968EAD9FAD259791838083329676
:1005E00027968EAD9FAD279791838083329629966B
:1005F0008EAD9FAD2997918380833F96108231966F
:1006000081E080833196108211821282138200E091
:10061000A7962FADA797A6964FADA697A5966FADB7
:10062000A597FE0131964F01CF010E94E618B40153
:10063000C7010E947D18BE0169597F4FC4010E9405
:100640003819982D892DE92FF82FCF010896D5015B
:1006500021912D93E817F907D9F788E0A80EB11C6E
:10066000EC15FD0519F09E2F8F2FEDCFC85BDF4FE6
:100670000FB6F894DEBF0FBECDBFDF91CF911F91B3
:100680000F91FF90EF90DF90CF90BF90AF909F9031
:100690008F9008952F923F924F925F926F927F9228
:1006A0008F929F92AF92BF92CF92DF92EF92FF9282
:1006B0000F931F93CF93DF93CDB7DEB72F970FB66E
:1006C000F894DEBF0FBECDBF4C016F87142F9C0185
:1006D0002C5B3F4F7901633061F460E070E0F90119
:1006E000808191810E9496132B013C0162E070E0B1
:1006F0000BC061E070E0F901808191810E94961346
:100700002B013C0163E070E0F701808191810E9440
:1007100096136B017C019E868D86F12FF4703F2E1F
:1007200012FF12C0F401EE5BFF4F808191810E94A5
:100730001212F401EE5AFF4F208131814281538120
:100740000E94242787FD6AC0212F2170322E10FFBE
:1007500034C0540137E5A30EB11CF501808181112D
:100760001BC03D972081318142815381C301B20179
:100770000E947328181684F4F50130823196308275
:100780007097808191810E94AB12F401E75AFF4F6C
:100790006083718382839383F5018081882369F06C
:1007A000F401E65BFF4F2081318142815381C70113
:1007B000B6010E94732818168CF1F12FF2703F2EAB
:1007C00011FF33C0540122E4A20EB11CF501608177
:1007D0007181CE0101960E940C15C980DA80EB80F0
:1007E000FC800D811E812F81388549855A856B8556
:1007F0007C85F501808191810E941F11F401E35AEB
:10080000FF4F882381F080819181019691838083BD
:100810003797208130E0821793073CF0CE010D9688
:100820000E9465025FC0118210828401085A1F4F26
:10083000F801808194012A5B3F4F1901882339F028
:10084000F901808191810E946407F8011082F4010E
:10085000E95AFF4F8081882371F03296408151819F
:100860006281738100E010E09801F1018081918143
:100870000E94620936C0F401E25BFF4F2F852130F0
:10088000A1F440815181628173811F921F921F9256
:100890001F92812C912C5401C12CD12C90E8E92E6F
:1008A0009FE3F92E9301820113C0008111812281FF
:1008B00033811F921F921F921F92812C912C540101
:1008C000C12CD12C80E8E82E8FE3F82EB301A201D1
:1008D000F101808191810E9478070F900F900F9015
:1008E0000F90312C832D2F960FB6F894DEBF0FBEDC
:1008F000CDBFDF91CF911F910F91FF90EF90DF90CF
:10090000CF90BF90AF909F908F907F906F905F90AF
:100910004F903F902F900895FC0183E090E09087E6
:1009200087831386128614860895EF92FF921F9391
:10093000CF93DF931F92CDB7DEB77C01162FFC015A
:10094000618589E694E049830E94171A612F89E640
:1009500094E00E94BE194981642F89E694E00E94C8
:10096000BE1989E694E00E94341AF70186830F903D
:10097000DF91CF911F91FF90EF900895CF93DF9378
:10098000EC018F819885029729F440E069E3CE015C
:100990000E94950440E063E2CE010E9495044FE678
:1009A00060E2CE01DF91CF910C9495049F92AF92BB
:1009B000BF92CF92DF92EF92FF920F931F93CF934C
:1009C000DF93EC01698589E694E00E94171AE091B3
:1009D0006904F0916A040190F081E02D68EA89E6EB
:1009E00094E0099589E694E00E94341A46E069850E
:1009F00089E694E00E94141A0E947A1F7B0189E61E
:100A000094E00E946619069784F48A859B85892B59
:100A1000B1F30E947A1F6E197F098A859B8586171C
:100A2000970768F781E08C872CC089E694E00E94E4
:100A30006E19A82E89E694E00E946E19982E89E618
:100A400094E00E946E19E82E89E694E00E946E19E7
:100A5000B82E89E694E00E946E19F82E89E694E09B
:100A60000E946E19D92CC12CCA28D982C8821B2D8C
:100A700000E00E291B830A83982F88278F299D83E6
:100A80008C83DF91CF911F910F91FF90EF90DF90BA
:100A9000CF90BF90AF909F9008951F93CF93DF9317
:100AA0001F92CDB7DEB7162F89E694E049830E94E6
:100AB000171A4981642F89E694E00E94BE1989E6DD
:100AC00094E00E94341A811114C041E0612F89E63C
:100AD00094E00E94141A89E694E00E946619892B1A
:100AE00041F089E694E00F90DF91CF911F910C9433
:100AF0006E198FEF9FEF0F90DF91CF911F910895A7
:100B0000EF92FF920F931F93CF93DF937C01EB0142
:100B10008A016330710521F04230510509F051C05E
:100B2000CE010197039758F50115110581F04FE0AB
:100B300050E06BE6C7010E944D058F3F2FEF9207F3
:100B400019F001E010E013C00130110551F04FE041
:100B500050E06AE6C7010E944D058F3FEFEF9E0708
:100B600021F4C330D10569F027C000E010E0C330A4
:100B7000D10529F4873D9105F1F5C2E0D0E0209739
:100B8000D9F40115110561F04FE050E069E6C701A5
:100B90000E944D05833D910589F10130110549F011
:100BA0004FE050E068E6C7010E944D05833D910586
:100BB00041F1C330D10519F00230110511F480E084
:100BC00025C0F701D087C783209759F0D7FD11C002
:100BD00023977CF40130110511F48BE608C08AE6F6
:100BE00006C00130110511F489E601C088E6F7015D
:100BF000818781E00BC0C1E0D0E0C1CF01E010E00F
:100C000002C000E010E0C0E0D0E0D6CFDF91CF918D
:100C10001F910F91FF90EF900895EF92FF920F9325
:100C20001F93CF93DF93CDB7DEB728970FB6F89415
:100C3000DEBF0FBECDBF7C01FC0160837183802FBE
:100C400002831383248335834683578360E00E94A5
:100C50007D2160E0F70183810E947D2160E0F70142
:100C600084810E947D2160E0F70185810E947D21C1
:100C700060E0F70186810E947D2160E0F7018781B5
:100C80000E947D2161E0F70180810E947D2160E06A
:100C9000F70181810E947D2161E0F7018081289622
:100CA0000FB6F894DEBF0FBECDBFDF91CF911F917D
:100CB0000F91FF90EF900C94B6210F931F93CF9359
:100CC000DF93EC0177FF05C071956195710981E0B3
:100CD00001C080E08B016F3F710519F014F00FEF38
:100CE00010E0811107C0B8018A810E94632060E092
:100CF00070E006C060E070E08A810E946320B80165
:100D00008B81DF91CF911F910F910C9463200F93F2
:100D10001F93CF93DF93EC0177FF05C07195619529
:100D2000710981E001C080E08B016F3F710519F00E
:100D300014F00FEF10E0811107C0B8018D810E94FF
:100D4000632060E070E006C060E070E08D810E948A
:100D50006320B8018E81DF91CF911F910F910C9488
:100D600063200F931F93CF93DF93EC018A010E94BE
:100D70005D06B801CE01DF91CF911F910F910C94C8
:100D80008706FC0184810E943E2029E0AC01249F5B
:100D9000C001259F900D11240895FC0187810E94B8
:100DA0003E2029E0AC01249FC001259F900D112415
:100DB0000895FC0181810E94EC2121E0892B09F03A
:100DC00020E0822F08958F929F92AF92BF92CF9290
:100DD000DF92EF92FF920F931F93CF93DF93CDB7E4
:100DE000DEB72A970FB6F894DEBF0FBECDBF4C0119
:100DF000E982FA820B831C832D833E834F835887BD
:100E000069877A87FC011482158216821782108600
:100E10001186128613861486158616861786108A02
:100E2000118A128A138A148A158A168A178A108ED2
:100E30007C01F7E2EF0EF11CC7010E9476178401D6
:100E4000065D1F4FC8010E947617F401B182A0828F
:100E5000D382C2828981818F8A81828F6B8170E087
:100E6000C7010E9441186C8170E0C8010E944118BE
:100E70008D81F401838F8E81848F8F81858F88850A
:100E8000868F898590E0A0E0B0E0878F90A3A1A332
:100E9000B2A38A8590E0A0E0B0E083A394A3A5A3C9
:100EA000B6A32A960FB6F894DEBF0FBECDBFDF9172
:100EB000CF911F910F91FF90EF90DF90CF90BF9057
:100EC000AF909F908F900895CF93DF93EC01198A94
:100ED0001A8A1B8A1C8A1D861E861F86188A0E94F3
:100EE000861F69877A878B879C87DF91CF910895CA
:100EF0002F923F924F925F926F927F928F929F922A
:100F0000AF92BF92CF92DF92EF92FF920F931F9317
:100F1000CF93DF93CDB7DEB764970FB6F894DEBFFB
:100F20000FBECDBF1C0149835A836B837C83098B21
:100F30001A8B2B8B3C8B49A45AA46BA47CA44986A6
:100F40005A866B867C860E94861FD10119962D9148
:100F50003D914D915C911C972B013C01421A530A23
:100F6000640A750A4D825E826F82788619966D9347
:100F70007D938D939C931C974114510461047104DB
:100F800009F4A9C029893A894B895C8969817A81E8
:100F90008B819C810E94BF2669837A838B839C838B
:100FA000C301B2010E94C3276D837E838F8398871C
:100FB00020E034E244E759E40E9428279B01AC0179
:100FC00069817A818B819C810E947728F101218936
:100FD0003289438954890E94C0262B013C01D101EA
:100FE00051966D937D938D939C93549729813A816B
:100FF0004B815C81C701B6010E9477286B017C019F
:10100000A3019201C501B4010E9477289B01AC01A4
:10101000C701B6010E94C0264B015C01F101258584
:1010200036854785508969817A818B819C810E94B0
:10103000BF262B013C012D813E814F81588560E008
:1010400074E284E799E40E9428279B01AC01C30164
:10105000B2010E9477289B01AC0169857A858B8556
:101060009C850E9477289B01AC01C501B4010E94B8
:10107000C0260E94902749805A806B807C80D101D5
:101080001D964D925D926D927C9250975A962C913E
:101090005A9730E0A901461B570B620F731F8D91C1
:1010A0009C9164960FB6F894DEBF0FBECDBFDF9162
:1010B000CF911F910F91FF90EF90DF90CF90BF9055
:1010C000AF909F908F907F906F905F904F903F90E8
:1010D0002F900C94B10664960FB6F894DEBF0FBE45
:1010E000CDBFDF91CF911F910F91FF90EF90DF90D7
:1010F000CF90BF90AF909F908F907F906F905F90B8
:101100004F903F902F90089570E0FC018081918175
:10111000413029F444275527461B570B06C0222788
:101120003327261B370BAB01B9010C94B10640E005
:1011300050E060E070E0FC01808191810C94B10688
:101140008F929F92AF92BF92CF92DF92EF92FF92D7
:101150001F93CF93DF93EC01162F8A819B810E940E
:10116000AB124B015C018C8181113BC0113029F421
:1011700020E030E044EB52E404C020E030E044EBF7
:1011800052ECC501B4010E94C0266B017C0120E035
:1011900030E044EB53E40E94732887FD09C020E04F
:1011A00030E044EB53E4C701B6010E94BF2615C0EE
:1011B000CD82DE82EF82F88620E030E0A901C7010F
:1011C000B6010E94242787FF0CC020E030E044EBEA
:1011D00053E4C701B6010E94C0266D837E838F83CE
:1011E0009887A50194016D817E818F8198850E94E9
:1011F000BF266B017C0120E030E044E353E40E9411
:10120000732818164CF420E030E044EB53E4C70197
:10121000B6010E94BF2612C020E030E044E353EC48
:10122000C701B6010E94242787FF0AC020E030E0F2
:1012300044EB53E4C701B6010E94C0266B017C0158
:1012400020E030E0A901C701B6010E9473284601E1
:101250005701181624F0B7FAB094B7F8B094698D16
:1012600070E080E090E00E94C3279B01AC01C501C3
:10127000B4010E94242787FF06C0CE010E94970870
:101280001C8281E013C020E030E0A901C701B60153
:101290000E947328181614F441E001C043E06A8DDF
:1012A000CE010E94840881E08C8380E0DF91CF91A1
:1012B0001F91FF90EF90DF90CF90BF90AF909F90E5
:1012C0008F9008958F929F92AF92BF92CF92DF92AC
:1012D000EF92FF920F931F93CF93DF93EC014A019C
:1012E0005B0168017901011511052105310519F12D
:1012F0008D899E89AF89B88D892B8A2B8B2B31F4F0
:101300000E94861F6D8B7E8B8F8B988F0E94861F0D
:101310000D891E892F89388D601B710B820B930BF1
:10132000C616D706E806F90630F41D8A1E8A1F8AFB
:10133000188E81E04BC08A819B810E94AB129B0179
:10134000AC01C501B4010E94BF266B017C0120E005
:1013500030E044E353E40E94732818164CF420E074
:1013600030E044EB53E4C701B6010E94BF2612C02F
:1013700020E030E044E353ECC701B6010E9424278B
:1013800087FF0AC020E030E044EB53E4C701B60118
:101390000E94C0266B017C019701860130581F9284
:1013A0001F921F921F92812C912C5401C12CD12C81
:1013B00080E8E82E8FE3F82EB501A401CE010E944B
:1013C00078070F900F900F900F9080E0DF91CF91F2
:1013D0001F910F91FF90EF90DF90CF90BF90AF9053
:1013E0009F908F900895FF920F931F93CF93DF9359
:1013F000EC018B01F42EE881F981848595850E94AA
:10140000D906882339F061E872E080E495E00E9413
:10141000B824FFCFEC81FD81B80184859585FF203C
:1014200019F00E945D0602C00E948706C80117FFDE
:1014300003C091958195910962E370E00E9455295E
:10144000892B39F5FF2069F06CE672E080E495E0C5
:101450000E948624EA81FB81848595850E94C106CD
:101460000CC066E572E080E495E00E948624EA8183
:10147000FB81848595850E94CD064AE050E0BC0141
:1014800080E495E0DF91CF911F910F91FF900C9434
:10149000A925DF91CF911F910F91FF9008956F9231
:1014A0007F928F929F92AF92BF92CF92DF92EF92F4
:1014B000FF920F931F93CF93DF93CDB7DEB72C9797
:1014C0000FB6F894DEBF0FBECDBF3C01842F8982DA
:1014D0009A82AB82BC82CD82DE82EF82F886098757
:1014E0001A872B873C8729813A81F3013383228332
:1014F0002B813C81358324832D813E813783268354
:101500002F8138853187208729853A85338722873F
:101510002B853C85358724874083668762E00E945F
:101520007D21F30111822C960FB6F894DEBF0FBE19
:10153000CDBFDF91CF911F910F91FF90EF90DF9082
:10154000CF90BF90AF909F908F907F906F900895B5
:101550000F931F93CF93DF9300D000D000D0CDB76F
:10156000DEB79A8389839C838B839E838D8300E07F
:1015700010E041E0B801CE0101960E94F3096FE04E
:1015800070E080E090E00E94A91F0F5F1F4F0115DF
:1015900081E0180771F70FEF10E041E0B801CE01CC
:1015A00001960E94F3096FE070E080E090E00E94F5
:1015B000A91F0150110901158FEF180771F701E0FC
:1015C0001FEF41E0B801CE0101960E94F3096FE0E0
:1015D00070E080E090E00E94A91F0F5F1F4F013074
:1015E000110579F700E010E040E0B801CE01019666
:1015F0000E94F3096FE070E080E090E00E94A91F74
:101600000F5F1F4F011581E0180771F70FEF10E012
:1016100040E0B801CE0101960E94F3096FE070E04E
:1016200080E090E00E94A91F0150110901158FEF81
:10163000180771F701E01FEF40E0B801CE010196F5
:101640000E94F3096FE070E080E090E00E94A91F23
:101650000F5F1F4F0130110579F780E026960FB616
:10166000F894DEBF0FBECDBFDF91CF911F910F91D8
:10167000089560910B02FC01828593850E94A00869
:10168000882329F08091CA038F5F8093CA038091D9
:10169000CA03843059F41092CA0380910B0281303E
:1016A00011F483E001C081E080930B0280E0089593
:1016B0000F931F93CF93DF93EC018091CB038111A4
:1016C0000FC0888599850E94AB126093C603709302
:1016D000C7038093C8039093C90381E08093CB0331
:1016E00080910A02882331F08A859B850E946407D5
:1016F00010920A024091C6035091C7036091C8033B
:101700007091C90300E41BE42CE430E08A859B85DA
:101710000E946209882321F081E080930A0201C0BF
:1017200080E0DF91CF911F910F910895AF92BF920A
:10173000CF92DF92EF92FF920F931F93CF93DF939D
:10174000CDB7DEB7C259D1090FB6F894DEBF0FBED0
:10175000CDBF8C01FC0164817581CE018F579F4FF5
:101760000E940C15CD57DF4FA881C358D040CC57ED
:10177000DF4FB881C458D040CB57DF4FF880C558F1
:10178000D040CA57DF4FE880C658D040C957DF4F16
:10179000D880C758D040C857DF4FC880C858D040FD
:1017A000C757DF4FB880C958D040C657DF4FA88011
:1017B000CA58D040CF57DF4F28813981C158D04017
:1017C000F80184819581FC01828D938D281739075A
:1017D00039F467E372E080E495E00E94B8246EC0BB
:1017E0002830310508F44AC080E090E0E0E04CE0A9
:1017F00050E0B901042E02C0769567950A94E2F78D
:10180000677011F4EE2351F0EDE8F0E0EC0FFD1FEE
:10181000E80FF91F605D60830196E1E043505109D4
:101820004D3FFFEF5F0729F7AE0143575F4FFA01C6
:10183000E80FF91F1082C457DF4F8881CC58D04081
:101840008F93C557DF4F8881CB58D0408F93AF928D
:10185000BF92CF92DF92EF92FF92BF93AF933F93ED
:101860002F935F934F9386E992E09F938F93CE01DE
:1018700001969F938F930E94AE2B14C0AF92BF929C
:10188000CF92DF92EF92FF92BF93AF933F932F934C
:1018900080EE92E09F938F93CE0101969F938F935A
:1018A0000E94AE2B0FB6F894DEBF0FBECDBFBE01B7
:1018B0006F5F7F4F80E495E00E94AB2480E0CE56BE
:1018C000DF4F0FB6F894DEBF0FBECDBFDF91CF91D3
:1018D0001F910F91FF90EF90DF90CF90BF90AF904E
:1018E00008954F925F926F927F928F929F92AF92E4
:1018F000BF92CF92DF92EF92FF920F931F93CF93FD
:10190000DF93CDB7DEB769970FB6F894DEBF0FBE91
:10191000CDBF7C010E94861F2091C4033091C50376
:101920002130310509F437C12230310509F4E9C00D
:10193000232B09F0FAC28090C0039090C103A090BD
:10194000C203B090C30389288A288B2841F460938E
:10195000C0037093C1038093C2039093C30380902C
:10196000C0039090C103A090C203B090C303DC01F8
:10197000CB0188199909AA09BB09A090BE03B090B0
:10198000BF0388389341A105B10508F05EC0850109
:101990000F5F1F4F1093BF030093BE03D70118962C
:1019A000ED91FC91199760857185882777FD809569
:1019B000982F0E94C3272B013C018090BA0390907E
:1019C000BB03A090BC03B090BD03A50194010E948D
:1019D000BF266B017C01B80180E090E00E94C12726
:1019E0009B01AC01C701B6010E9428279B01AC01F5
:1019F000C501B4010E94C0269B01AC016093BA03EB
:101A00007093BB038093BC039093BD03C301B201E9
:101A10000E94BF269B01AC01C701B6010E94772836
:101A20009B01AC016091B6037091B7038091B8033C
:101A30009091B9030E94C0266093B6037093B703D8
:101A40008093B8039093B90370C2B50161507109D6
:101A500080E090E00E94C1279B01AC016091B60339
:101A60007091B7038091B8039091B9030E94282721
:101A70000E94DE286093B2037093B3038093B40393
:101A80009093B50369E272E080E495E00E94B82487
:101A900065E272E080E495E00E9486244091BA03FA
:101AA0005091BB036091BC037091BD0322E030E014
:101AB00080E495E00E94AC266EE172E080E495E05F
:101AC0000E94B8246AE172E080E495E00E948624D6
:101AD0004091B2035091B3036091B4037091B50388
:101AE00022E030E080E495E00E94AC261092C00332
:101AF0001092C1031092C2031092C30382E090E0DF
:101B000045C06AE073E080E495E00E94AB2422E0E7
:101B100030E040E050E064EB73E480E495E00E9444
:101B2000AA2663E373E080E495E00E94CA2462E59C
:101B300073E080E495E00E94CA246CE271E080E0EA
:101B400090E00E94A91F67E573E080E495E00E94A1
:101B5000CA246CE271E080E090E00E94A91F6CE56D
:101B600073E080E495E00E94CA246CE271E080E0BA
:101B700090E00E94A91F61E673E080E495E00E9476
:101B8000CA2481E08093B10381E090E09093C50383
:101B90008093C403CAC18090C0039090C103A090F9
:101BA000C203B090C30389288A288B2841F460932C
:101BB000C0037093C1038093C2039093C3038090CA
:101BC000C0039090C103A090C203B090C3032B0147
:101BD0003C01481859086A087B08D7011896ED910E
:101BE000FC91199760857185882777FD8095982FDE
:101BF0000E94C3272091BA033091BB034091BC03DC
:101C00005091BD030E94BF2629E23CE54FE05CE312
:101C10000E9477286B017C01C301B2010E94C12799
:101C20009B01AC01C701B6010E94772820E034E295
:101C300044E759E40E9428272091AD033091AE0378
:101C40004091AF035091B0030E94C0264B015C014C
:101C50006093AD037093AE038093AF039093B00392
:101C60002091A9033091AA034091AB035091AC039A
:101C70000E947328181644F48092A9039092AA0334
:101C8000A092AB03B092AC03B8EB4B16BBE05B0683
:101C90006104710408F449C120E030E0A901C701E2
:101CA000B6010E94732818165CF42DEC3CEC4CEC49
:101CB0005DE3C701B6010E94242787FF36C10BC030
:101CC0002DEC3CEC4CEC5DEBC701B6010E94732897
:101CD00018160CF02AC18091A803811112C068EF78
:101CE00071E080E495E00E94B8241092C003109245
:101CF000C1031092C2031092C30381E08093A80332
:101D000014C12091A9033091AA034091AB035091D3
:101D1000AC0360E070E084EB93E40E94282729E2A2
:101D20003CE54FE05CE30E9477286093A403709346
:101D3000A5038093A6039093A70362EF71E080E46C
:101D400095E00E94B82465EE71E080E495E00E9481
:101D500086244091A9035091AA036091AB0370912E
:101D6000AC0322E030E080E495E00E94AC2665ED13
:101D700071E080E495E00E9486244091A403509194
:101D8000A5036091A6037091A70322E030E080E4F0
:101D900095E00E94AC268091BA039091BB03A0917C
:101DA000BC03B091BD038D879E87AF87B88B8091B0
:101DB000A4039091A503A091A603B091A7038D8BD6
:101DC0009E8BAF8BB88F8091B2039091B303A0919B
:101DD000B403B091B503898B9A8BAB8BBC8B6E012E
:101DE000EDE0CE0ED11CE12CF12CD6016D916D01F0
:101DF000C701698F0E94D82D698D681719F0C70136
:101E00000E94E02DBFEFEB1AFB0AECE0EE16F104A6
:101E100061F78E010F5F1F4FE12CF12CC7010E946B
:101E2000D82DD8018D938D01BFEFEB1AFB0AECE0A2
:101E3000EE16F10499F749805A806B807C808D8082
:101E40009E80AF80B884C984DA84EB84FC846CEA19
:101E500071E080E495E00E94B82463EA71E080E4D8
:101E600095E00E9486244091BA035091BB03609193
:101E7000BC037091BD0322E030E080E495E00E9455
:101E8000AA2668E971E080E495E00E94862422E0B9
:101E900030E0B301A20180E495E00E94AC266EE838
:101EA00071E080E495E00E9486244091B203509155
:101EB000B3036091B4037091B50322E030E080E495
:101EC00095E00E94AA2663E871E080E495E00E9414
:101ED000862422E030E0B501A40180E495E00E9470
:101EE000AC2663E771E080E495E00E94862440918F
:101EF000A4035091A5036091A6037091A70322E06B
:101F000030E080E495E00E94AA2668E671E080E473
:101F100095E00E94862422E030E0B701A60180E42B
:101F200095E00E94AC2681E001C080E069960FB682
:101F3000F894DEBF0FBECDBFDF91CF911F910F91FF
:101F4000FF90EF90DF90CF90BF90AF909F908F90D9
:101F50007F906F905F904F900895FC0180859185F0
:101F60000E94AB12AB01BC0122E030E080E495E0BE
:101F70000E94AC2680E0089544E0FC0182819381B8
:101F80000E944A0391E0843009F090E0892F08957F
:101F900041E0FC01828193810E944A0391E08130FB
:101FA00009F090E0892F089542E0FC01828193813D
:101FB0000E944A0391E0823009F090E0892F089551
:101FC000CF93DF93EC0188810E94EC21892B09F4E7
:101FD00052C0898181114FC088859985009711F081
:101FE0000E94E8124E8550E0FA013197EF30F1057A
:101FF00098F5EE58FF4F0C948B29CE010E94A80A49
:1020000039C0CE010E94390B35C0CE010E94580B59
:1020100031C0CE010E94960B2DC0CE010E94710CE2
:1020200029C0CE010E94AD0F25C063E001C061E070
:10203000CE010E94BC0F1EC063E001C061E0CE0172
:102040000E94C80F17C063E001C061E0CE010E948A
:10205000D40F10C019820FC064E972E080E495E0EB
:102060000E9486244AE050E06E8580E495E00E945C
:102070008C2581E089838981DF91CF9108958EBD80
:1020800000000DB407FEFDCF8EB508951F93CF93CA
:10209000DF93FC0123A92223A1F085A991E0980FE9
:1020A00095ABDF01A80FB11DA80FB11D53964C9140
:1020B000539754963C91215023AB903199F415AA33
:1020C00011C080898823F9F0228991E0920F928BC8
:1020D000DF01A20FB11D1C918150808B903129F43A
:1020E000128A03C0842F932F15C08BE50E943F10E6
:1020F000282F30E0D22FCC27812F0E943F109E0145
:10210000282BC90107C08AE50E943F10282F30E024
:1021100010E0F0CFDF91CF911F9108950F931F939F
:10212000CF93DF93CDB7DEB78C018CE0EEE0F2E029
:10213000D8015A9601900D928A95E1F7F80111AEF7
:1021400012AE13AEE45AFF4F1082319610823196D0
:1021500010823196108233961182108232968EE16F
:1021600090E09183808388E691E00E949529F801B0
:1021700090A787A3E358FF4F108211821282138227
:102180003496118210823296118210827D971182CC
:1021900010823296118210828F81F80186A3E55950
:1021A000FF4F888599859183808332968A859B85A8
:1021B000AC85BD8580839183A283B38334968E855D
:1021C0009F85A889B98980839183A283B38334963C
:1021D0008A899B89AC89BD8980839183A283B383DB
:1021E00034964E895F89688D798D408351836283EF
:1021F00073830E9447188CB58C7F81608CBD8DB530
:102200008E7F8DBDF801E659FF4F81E080837B967C
:102210008A8D9B8D9183808332964C8D5D8D6E8DE2
:102220007F8D408351836283738388A1349680833A
:1022300060E0DF91CF911F910F910C947D21CF929F
:10224000DF92EF92FF920F931F93CF93DF93CDB75F
:10225000DEB72C970FB6F894DEBF0FBECDBFC98294
:10226000DA8229813A812150310981E02230310519
:1022700008F080E02C960FB6F894DEBF0FBECDBFFD
:10228000DF91CF911F910F91FF90EF90DF90CF9052
:1022900008953F924F925F926F927F928F929F929A
:1022A000AF92BF92CF92DF92EF92FF920F931F9364
:1022B000CF93DF93CDB7DEB72C970FB6F894DEBF80
:1022C0000FBECDBF4C01C982DA82EB82FC820D8346
:1022D0001E8349875A873A2C0D811E817C018DE629
:1022E000E80EF11CF401E559FF4F608171818B818B
:1022F0009C81681B790B77FF03C07195619571090B
:10230000882777FD8095982F0E94C327F7012081A9
:102310003181428153810E9477282B013C01F1E7F2
:102320008F0E911C89859A8597FD0196BC01759544
:102330006795600F711F882777FD8095982F0E9401
:10234000C327F40120813181428153810E94772883
:102350004B015C01A30192010E94BF266B017C012D
:10236000332009F445C06CE173E080E495E00E94FD
:10237000862469817A814AE050E080E495E00E94F9
:10238000A32566E173E080E495E00E9486244AE09C
:1023900050E0B80180E495E00E94A3256BE073E073
:1023A00080E495E00E94862422E030E0B301A2019F
:1023B00080E495E00E94AA266EEF72E080E495E04A
:1023C0000E94862422E030E0B501A40180E495E07B
:1023D0000E94AA2664EF72E080E495E00E948624C1
:1023E00022E030E0B701A60180E495E00E94AC262F
:1023F000C701B6012C960FB6F894DEBF0FBECDBF55
:10240000DF91CF911F910F91FF90EF90DF90CF90D0
:10241000BF90AF909F908F907F906F905F904F9004
:102420003F900895FC0186A10E943E2083319105D2
:10243000B4F0BC01882777FD8095982F0E94C327B0
:102440002FED3FE443E951E40E94BF269B01AC011C
:102450006AE979EA86E195E40E942827089560E018
:1024600070EC89E794E40895EF92FF920F931F9325
:10247000CF93DF93EC018C010C5F1F4FC8010E94CA
:102480008C0489E694E00E94FD1942E050E063E08C
:1024900070E0C8010E948005811107C064ED72E000
:1024A00080E495E00E94B824FFCFC8010E94BE04DA
:1024B0001D8A1E8A1F8A188E198A1A8A1B8A1C8AEC
:1024C000188219821A821B827E0189E1E80EF11CB2
:1024D00000E010E0C8010E94D82DF70181937F0130
:1024E0000F5F1F4F0C301105A9F76DEC72E080E40F
:1024F00095E00E948624498D5A8D6B8D7C8D22E05B
:1025000030E080E495E00E94AA2664EC72E080E46A
:1025100095E00E9486244D8D5E8D6F8D78A122E01E
:1025200030E080E495E00E94AA2664EB72E080E44B
:1025300095E00E94862449A15AA16BA17CA122E0CA
:1025400030E080E495E0DF91CF911F910F91FF90F3
:10255000EF900C94AC26CF92DF92EF92FF92FC01A9
:102560002081318142815381618972898389948973
:102570000E94C0266B017C0120E030E044EB53E474
:102580000E947328181654F420E030E044EB53E422
:10259000C701B6010E94BF266B017C0120E030E03C
:1025A000A901C701B6010E94242787FF0AC020E0C5
:1025B00030E044EB53E4C701B6010E94C0266B0132
:1025C0007C01C701B601FF90EF90DF90CF90089596
:1025D0004F925F926F927F928F929F92AF92BF9233
:1025E000CF92DF92EF92FF92CF93DF93EC010496AC
:1025F0000E94D6040E94861FCD88DE88EF88F88C62
:102600002B013C014C185D086E087F086D8B7E8B9A
:102610008F8B988F68857985882777FD8095982F8F
:102620000E94C327298D3A8D4B8D5C8D0E94BF2659
:102630006B017C0120E030E0A9010E947328460173
:102640005701181624F0B7FAB094B7F8B09420E008
:1026500030E040E450E46D8D7E8D8F8D98A10E9416
:1026600077289B01AC01C501B4010E94242787FF94
:1026700003C0C12CD12C7601C301B2010E94C12735
:102680009B01AC01C701B6010E94772820E034E22B
:1026900044E759E40E94282729A13AA14BA15CA153
:1026A0000E94772829893A894B895C890E94C02633
:1026B0006B017C0120E030E0A9010E94242720E08A
:1026C00030E044EB53E487FF05C0C701B6010E9428
:1026D000C02613C0C701B6010E94732887FF05C03A
:1026E000C98ADA8AEB8AFC8A0CC020E030E044EB2D
:1026F00053E4C701B6010E94BF26698B7A8B8B8B8E
:102700009C8BDF91CF91FF90EF90DF90CF90BF90A7
:10271000AF909F908F907F906F905F904F900895B3
:10272000FC0140835183628373830895CF92DF92CB
:10273000EF92FF92FC016130710569F024F4672B80
:10274000C9F480810BC06230710539F063307105C6
:1027500089F4838103C0818101C082810E943E206F
:10276000BC01882777FD8095982F0E94C3276B01B5
:102770007C0103C0C12CD12C760120E030E048E977
:1027800051E4C701B6010E94242787FD11C02FED37
:102790003FE443E951E4C701B6010E94BF269B0113
:1027A000AC016AE979EA86E195E40E94282704C031
:1027B00060E070EC89E794E4FF90EF90DF90CF90B9
:1027C00008953F924F925F926F927F928F929F9265
:1027D000AF92BF92CF92DF92EF92FF920F931F932F
:1027E000CF93DF9300D01F92CDB7DEB7AC015B0172
:1027F000FC0180AD81114AC0EE24EA94FE2C6A01EE
:10280000F2E0CF0ED11CC6014A835B830E944610C2
:102810008C014A815B81009759F4EF2811F078010F
:10282000F2CF8AE090E00E94D11F80E090E0DFC00C
:1028300085352AEA920749F485E5E8168AEAF8061A
:1028400071F7FA0112AE11AE23C08635FAEA9F077E
:1028500059F425E5E2162AEAF20609F781E090E04C
:10286000FA0192AF81AF14C08A3AF5E59F07B9F635
:1028700064E673E080E495E04A835B830E94CA24A7
:1028800080E00E943F104A815B81C9CFFA0110AEFF
:10289000FA0114AE13AE6A01F2E0CF0ED11C6CE067
:1028A000362E88248394912CFA0183AD94AD8A1539
:1028B0009B0508F09CC08238910508F098C0C601BD
:1028C0004A835B830E9446108C014A815B81FA0136
:1028D00023AD34AD8535FAEA9F0731F481E0FA0182
:1028E00080AF12AE11AE0BC08635FAEA9F0749F4ED
:1028F00081E0FA0180AF81E090E092AF81AFC90141
:1029000076C00097E1F3FA0185AD96AD8217930783
:1029100098F44E9696AF85AF389EB001399E700DF3
:102920001124808191814A835B830E94BC2A4A8161
:102930005B81FA0191838083FA0123AD34AD329E2D
:10294000C001339E900D1124E080F180E80EF91E45
:102950003701412C512C20E0FA0181AD92AD892B39
:1029600031F4253021F4F7011386128612C0C60116
:1029700029834A835B830E944610480E591EF30147
:10298000819391933F0129812F5F4A815B8126309A
:1029900019F70415150539F4FA0183AD94AD0196C4
:1029A00094AF83AF0AC06CE673E080E495E04A839D
:1029B0005B830E94CA245B814A81C6014A835B8390
:1029C0000E9446104A815B818535FAEA9F0721F40F
:1029D000FA0112AE11AE68CF86359A4A21F4FA0197
:1029E00092AE81AE61CFFA0183AD94AD00C00F907D
:1029F0000F900F90DF91CF911F910F91FF90EF906B
:102A0000DF90CF90BF90AF909F908F907F906F900E
:102A10005F904F903F9008952F923F924F925F9218
:102A20006F927F928F929F92AF92BF92CF92DF92DE
:102A3000EF92FF920F931F93CF93DF93CDB7DEB743
:102A400063970FB6F894DEBF0FBECDBF3C014B01BC
:102A50008CE0FB017A96D30101900D928A95E1F703
:102A60008B01095D1F4F68EE73E0C8010E94E113FE
:102A70002C0168EE73E0C8010E94E113480E591E54
:102A80001E861D86212C312C20EF2F8733E2388BB8
:102A9000A4E7BA2E89EC898BF401E758FF4FFB8B32
:102AA000EA8BF401241435040CF065C087A190A5CD
:102AB0002D853E85820F931FFC01DE0111962CE0CF
:102AC00001900D922A95E1F7FC01E080F1800681EA
:102AD0001781C084D184C7010197029708F041C0D3
:102AE0000C9DB0010D9D700D1C9D700D112480E09A
:102AF00090E00E94C127EA89FB89208131814281CF
:102B000053810E947328181664F5FA82E982202FF7
:102B100018870F834C2DDA86C986A12CCE2CDA803B
:102B2000EB80FC800D811E8138855A856B857C8504
:102B3000C4010E9449117B018C012F8538894B2DDE
:102B400059890E94732887FD0CC0FE013196D3017C
:102B50008CE001900D928A95E1F7EF86F88AB02E0D
:102B6000198BFFEF2F1A3F0A2D853E85245F3F4FBB
:102B70003E872D8796CFEB58FF4F208131814281D0
:102B800053816F8578898B2D99890E947328181637
:102B900094F4F301808191810197880F991F880D2A
:102BA000991DFC01EA59FF4F208131812F5F3F4F72
:102BB0003183208308C08CE0F4017A96D301019020
:102BC0000D928A95E1F7C30163960FB6F894DEBFC4
:102BD0000FBECDBFDF91CF911F910F91FF90EF906E
:102BE000DF90CF90BF90AF909F908F907F906F902D
:102BF0005F904F903F902F900895CF92DF92EF9289
:102C0000FF920F931F93CF93DF936C018B017A0197
:102C1000EC01CC52DC4F888187FF04C0FB0111829C
:102C2000108223C02CE02C9DC0012D9D900D1124FD
:102C30002881AC01420F511D27FD5A952091D303E5
:102C400030E0421753078CF42881AC01420F511D2C
:102C500027FD5A959A01FA01EE0FFF1FE20FF31FAD
:102C6000E852FC4F208126FD19C088818F5F888340
:102C70008CE08C9D90018D9D300D11248881A901DF
:102C8000480F511D87FD5A958091D30390E0481756
:102C90005907B4F488818C303CF112C02881820F2E
:102CA000911D27FD9A95FC01EE0FFF1FE80FF91FFC
:102CB000E852FC4F808160E08F730E94B621D5CF2F
:102CC000F80180819181049680349C4918F480E455
:102CD0009CE904C0F801808191810496F7019183F9
:102CE00080838FEF888341C0F80180819181488182
:102CF000B901640F711D47FD7A95AB01FB01EE0F21
:102D0000FF1FE40FF51FE852FC4F41815281840FF1
:102D1000951FF701918380838881A901480F511D78
:102D200087FD5A95FA01EE0FFF1FE40FF51FE852D9
:102D3000FC4F808186FF19C08881280F311D87FDD7
:102D40003A95F901EE0FFF1FE20FF31FE852FC4F17
:102D5000808161E08F73DF91CF911F910F91FF9080
:102D6000EF90DF90CF900C94B621DF91CF911F911F
:102D70000F91FF90EF90DF90CF9008951F920F92E8
:102D80000FB60F9211240BB60F922F933F934F93D0
:102D90005F936F937F938F939F93AF93BF93EF93C3
:102DA000FF9348E850E064E870E081E090E00E9422
:102DB000FD15FF91EF91BF91AF919F918F917F9101
:102DC0006F915F914F913F912F910F900BBE0F909C
:102DD0000FBE0F901F9018951F920F920FB60F9273
:102DE00011240BB60F922F933F934F935F936F93E2
:102DF0007F938F939F93AF93BF93EF93FF9348E994
:102E000050E064E970E082E090E00E94FD15FF91DF
:102E1000EF91BF91AF919F918F917F916F915F9152
:102E20004F913F912F910F900BBE0F900FBE0F90BF
:102E30001F9018951F920F920FB60F9211240BB688
:102E40000F922F933F934F935F936F937F938F9343
:102E50009F93AF93BF93EF93FF9348EA50E064EAE8
:102E600070E083E090E00E94FD15FF91EF91BF912B
:102E7000AF919F918F917F916F915F914F913F9112
:102E80002F910F900BBE0F900FBE0F901F901895B3
:102E90001F920F920FB60F9211240BB60F922F9321
:102EA0003F934F935F936F937F938F939F93AF93D2
:102EB000BF93EF93FF9348E251E064E271E080E05A
:102EC00090E00E94FD15FF91EF91BF91AF919F910E
:102ED0008F917F916F915F914F913F912F910F90C3
:102EE0000BBE0F900FBE0F901F9018952091D3032B
:102EF0002033A0F431E0320F3093D303FC01208360
:102F0000822F90E0FC01EE0FFF1FE80FF91FE8523F
:102F1000FC4F88EB9BE09283818308952FEFFC01A7
:102F200020830895DF92EF92FF920F931F93CF9328
:102F3000DF93EC01D62E7A0189018881803308F075
:102F400068C061E08D2D0E947D218881A82FB0E0AE
:102F5000FD01EE0FFF1FEA0FFB1FE852FC4F2D2D66
:102F60002F739081907C922B908360E272E06E19B7
:102F70007F0977FF02C06D5F7F4F759567957595E7
:102F80006795698340E659E0401B510B57FF02C02B
:102F90004D5F5F4F55954795559547954A836CE032
:102FA0000E9435299CE0899FB001112420E030E087
:102FB000A901460F571FFA01EE0FFF1FE40FF51F7F
:102FC000E852FC4F908196FD18C02F5F3F4F2C3088
:102FD000310571F790E08130910521F51092800064
:102FE00082E0809381001092850010928400B19A53
:102FF00080916F00826080936F00888190E0FC0177
:10300000EE0FFF1FE80FF91FE852FC4F808180642C
:1030100080838881DF91CF911F910F91FF90EF9076
:10302000DF9008958230910569F41092900082E05B
:1030300080939100109295001092940088BB809329
:103040007100DBCF8330910569F41092A00082E01B
:103050008093A1001092A5001092A40089BB8093D8
:103060007200CBCF892B49F61092200182E0809329
:10307000210110922501109224018ABB80937300D4
:10308000BCCF20E639E040E252E00C949217CF9397
:10309000CFB7F89480916804811127C0E4E0F4E090
:1030A0008491EEEBF3E09491E82FF0E0EE0FFF1F38
:1030B000E75BFB4FA591B4918C91892321F461E0EA
:1030C00085E30E94B62161E085E30E947D218CB5F5
:1030D00080618CBD8CB580648CBD61E084E30E940E
:1030E0007D2161E083E30E947D21809168048F5FF0
:1030F00080936804CFBFCF910895FB012081318177
:10310000FC01318320830895FC01613051F028F0E7
:10311000623061F0633079F00895808191818F731E
:103120000DC0808191818F77806408C080819181FA
:103130008F7B806803C080819181806C91838083C4
:103140000895FC018081918162FF02C0806201C00C
:103150008F7D918380838081918161FF02C0806136
:1031600001C08F7E918380838081918160FF02C046
:10317000886001C0877F918380830895FC018081EE
:10318000918162FF02C0846001C08B7F9183808344
:103190008081918161FF02C0826001C08D7F918337
:1031A00080838081918160FF02C0816001C08E7F39
:1031B000918380830895FC0180819181662311F0C1
:1031C000916001C09E7F918380830895EF92FF926A
:1031D0000F93CF93DF9300D0CDB7DEB77C01FC0116
:1031E000118210822A8349830E9484184981642FA6
:1031F000C7010E94A1182A81622FC7010E94BE1830
:10320000602FC7010F900F90DF91CF910F91FF902A
:10321000EF900C94DB180F9300E020E040E061E0B9
:103220000E94E6180F910895AC01405C5F4FFC01CD
:103230009F01285F3F4F1192E217F307E1F7E41770
:10324000F507B1F720E030E040E050E0BC01620F4C
:10325000731FFB01E40FF51F10824F5F5F4F483073
:103260005105B9F7285F3F4F2034310569F70895BC
:103270001F93CF93DF93AC01405C5F4FFC019F0134
:10328000285F3F4F1192E217F307E1F7E417F507C4
:10329000B1F720E030E0FB01E20FF31F40E050E027
:1032A000DC01A21BB30B1191ED01C40FD51F18AFA8
:1032B0004F5F5F4F48305105B1F7285F3F4F2034D3
:1032C000310549F7DF91CF911F91089580919904BD
:1032D00090E020919A04821B9109089520919A040C
:1032E00080919904281750F4E22FF0E0E556FB4F47
:1032F000808190E02F5F20939A0408958FEF9FEFD5
:103300000895E0919A0480919904E81730F4F0E070
:10331000E556FB4F808190E008958FEF9FEF089571
:103320000895CF92DF92EF92FF920F931F93CF9366
:10333000DF937C01CB018A0120917504222389F05F
:10334000EB016B01C40ED51ECC15DD0569F069914A
:10335000D701ED91FC910190F081E02DC701099515
:10336000F3CF642F0E94F01AC801DF91CF911F9113
:103370000F91FF90EF90DF90CF900895CF93DF9360
:103380001F92CDB7DEB76983209175042223D1F057
:1033900020917604203240F021E030E0FC013383BC
:1033A000228380E090E015C080917704E82FF0E060
:1033B000E858FB4F998190838F5F809377048093C7
:1033C000760405C061E0CE0101960E94F01A81E00A
:1033D00090E00F90DF91CF910895FC01138212824B
:1033E00048EE53E060E070E0448355836683778362
:1033F00089E793E091838083089510929A04109254
:10340000990410927704109276040C943B1A862F3C
:10341000413208F040E26BE974E00E94591A1092C0
:103420009A0480939904089521E00C94071A81E08E
:103430008093750460939804109277041092760438
:1034400008950F93062F21E04091760468E774E019
:10345000809198040E949D1A10927704109276042D
:10346000109275040F91089561E00C94211A89E679
:1034700094E00C94ED191092280581E080932605C4
:103480001092250561E084E10E94B62161E085E1AA
:103490000E94B621E9EBF0E080818E7F80838081FD
:1034A0008D7F808388E48093B80085E48093BC009E
:1034B0000895413208F03FC0909128059111FCCF4A
:1034C00091E090932805209326052FEF2093BB04CD
:1034D00010920005240F2093FF04909327059091EC
:1034E0002705880F892B809327058091250581303A
:1034F00041F410922505809127058093BB0085EC4F
:1035000001C085EE8093BC00809128058130E1F3F5
:1035100080910005841710F44091000521E035E00A
:10352000FB01D9018A2F821B841718F48D91819396
:10353000F9CF842F089580E008950F93413208F069
:1035400046C0909128059111FCCF92E090932805F8
:10355000009326059FEF9093BB04109200054093C3
:10356000FF04FB0161E075E0DB019A2F961B9417C5
:1035700018F491919D93F9CF10922705909127050A
:10358000880F892B8093270580912505813041F490
:1035900010922505809127058093BB0085EC01C022
:1035A00085EE8093BC00222321F080912805823093
:1035B000E1F38091BB048F3F61F08091BB048032C6
:1035C00051F08091BB04803341F483E007C081E077
:1035D00005C080E003C082E001C084E00F9108953F
:1035E000613298F420912805243089F46093DD0439
:1035F000FC018FED94E0DC012A2F281B261718F41C
:1036000021912D93F9CF80E0089581E0089582E023
:10361000089585ED8093BC008091BC0084FDFCCFB3
:1036200010922805089585EC8093BC00109228051F
:1036300008951F920F920FB60F9211240BB60F929E
:103640002F933F934F935F936F937F938F939F93AA
:10365000AF93BF93EF93FF938091B900887F80363B
:1036600009F49CC068F5883209F45BC090F480319D
:1036700009F454C038F4882309F4F5C0883009F4FB
:103680004DC0F5C0883109F44CC0803209F45DC0EA
:10369000EEC0803409F468C048F4803309F455C0A2
:1036A000883309F0E4C08093BB04A8C0803509F4D6
:1036B0004FC0883509F45DC0883409F0D8C0D5C042
:1036C000883909F4C6C0A8F4883709F467C038F40B
:1036D000883609F463C0803709F460C0C8C08838F0
:1036E00009F4B7C0803909F45FC0803809F0BFC061
:1036F0005BC0803B09F485C038F4803A09F466C0A9
:10370000883A09F47EC0B3C0803C09F4A6C0883C66
:1037100009F4A3C0883B09F489C0A9C0809127059A
:1037200010C0909100058091FF04981770F5E0910A
:10373000000581E08E0F80930005F0E0EF5FFA4F07
:1037400080818093BB0085EC85C08093BB048DC0D5
:10375000E091000581E08E0F809300058091BB0011
:10376000F0E0EF5FFA4F8083909100058091FF04B5
:103770006DC0E091000581E08E0F8093000580917F
:10378000BB00F0E0EF5FFA4F808380912605811146
:103790006CC081E08093250584EA60C083E080935B
:1037A00028051092BC04CFCF8091BC04803208F071
:1037B00050C0E091BC0481E08E0F8093BC048091E6
:1037C000BB00F0E0E354FB4F8083BDCF8091BC048D
:1037D000803230F4E091BC04F0E0E354FB4F1082FF
:1037E0000E94091B6091BC0470E0E0912105F091FA
:1037F00022058DEB94E009951092BC040E94131BE6
:1038000036C084E0809328051092DE041092DD0417
:10381000E0912305F091240509958091DD04811143
:1038200005C081E08093DD041092DF04E091DE04A6
:1038300081E08E0F8093DE04F0E0E152FB4F808147
:103840008093BB009091DE048091DD04981708F40A
:103850007ACF85E88093BC000AC085EC8093BC00D9
:103860001092280504C01092BB040E94091BFF910E
:10387000EF91BF91AF919F918F917F916F915F91E8
:103880004F913F912F910F900BBE0F900FBE0F9055
:103890001F9018952F923F924F925F926F927F9256
:1038A0008F929F92AF92BF92CF92DF92EF92FF9250
:1038B0000F931F93CF93DF93CDB7DEB7C351D140A2
:1038C0000FB6F894DEBF0FBECDBF80913505909145
:1038D0003605C05FDE4F99838883C051D140609028
:1038E0002F057090300580902D0590902E058091C9
:1038F0002B0590912C05C25FDE4F99838883CE50B3
:10390000D14020903305309034058091310590915D
:103910003205CE5EDE4F99838883C251D14080E567
:10392000EAE1F2E0DE01AF5ABF4F01900D928A95B5
:10393000E1F78AE0EAE6F2E0DE01A551BF4F01902F
:103940000D928A95E1F788E0E4E7F2E0DE01AB5FF3
:10395000BE4F01900D928A95E1F78AE1ECE7F2E023
:10396000DE01A554BF4F01900D928A95E1F726E044
:1039700040E855E260E070E080E495E00E94272393
:1039800080910C0290E0FC013197EF30F105C0F41A
:10399000EF57FF4F0C948B299CE122C08CE127C08C
:1039A00099E11EC081E023C094E01AC084E01FC0EA
:1039B0009EE316C08EE31BC09BE312C08BE317C0CF
:1039C00063E273E080E495E00E9486244AE050E0E0
:1039D00060910C0280E495E00E948C25FFCF9FE36C
:1039E000C35FDE4F9883CD50D14006C088E0C35FEF
:1039F000DE4F8883CD50D140C35FDE4F8881CD50EC
:103A0000D140807209F475C0C350DF4F798268825B
:103A1000CD5FD040C150DF4F99828882CF5FD040C8
:103A2000CF5FDE4F39822882C150D140C25FDE4F66
:103A300088819981CE50D140CD5FDE4F99838883B4
:103A4000C350D14080E5FE01EF5AFF4FDE011196D1
:103A500001900D928A95E1F78FE590E00E9446244F
:103A60002C018DB79EB7805591090FB6F8949EBF73
:103A70000FBE8DBFADB7BEB7119680E5FE01319682
:103A800001900D928A95E1F7C350DF4F0881CD5F19
:103A9000D040C250DF4F1881CE5FD040C150DF4FC1
:103AA0002881CF5FD040C050DF4F3881C050D14017
:103AB000CF5FDE4F4881C150D140CE5FDE4F58818D
:103AC000C250D140CD5FDE4F6881C350D140CC5F42
:103AD000DE4F7881C450D140C2010E947F025092D3
:103AE0003605409235050FB6F894DEBF0FBECDBF48
:103AF00004C01092360510923505C35FDE4F9881E1
:103B0000CD50D14094FF51C08AE0FE01E551FF4FF6
:103B1000DE01AF51BF4F01900D928A95E1F78DE222
:103B200090E00E9446242C01A0903105B09032050F
:103B3000C0902B05D0902C05CF51DF4FE880C15E9F
:103B4000D040CE51DF4FF880C25ED040CD51DF4F24
:103B50000881C35ED040CC51DF4F1881C45ED04095
:103B6000CB51DF4F2881C55ED040CA51DF4F38812D
:103B7000C65ED040C951DF4F4881C75ED040C851B2
:103B8000DF4F5881C85ED040C751DF4F6881C95EA2
:103B9000D040C651DF4F7881CA5ED0400E94E30614
:103BA000509234054092330504C0109234051092AF
:103BB0003305C35FDE4F8881CD50D14083FF3FC0C6
:103BC00088E0FE01EB5FFE4FDE01AB50BF4F01907E
:103BD0000D928A95E1F788E090E00E9446242C013E
:103BE000CB50DF4F0881C55FD040CA50DF4F1881EE
:103BF000C65FD040C950DF4F2881C75FD040C85052
:103C0000DF4F3881C85FD040C750DF4F4881C95F60
:103C1000D040C650DF4F5881CA5FD040C550DF4FFB
:103C20006881CB5FD040C450DF4F7881CC5FD040FB
:103C30000E940D06509232054092310504C0109248
:103C4000320510923105C35FDE4F9881CD50D140CF
:103C500090FF30C08AE1FE01E554FF4FDE01AF5511
:103C6000BF4F01900D928A95E1F78CE890E00E9499
:103C700046242C018DB79EB74A970FB6F8949EBF85
:103C80000FBE8DBFADB7BEB711968AE1FE01EF55ED
:103C9000FF4F01900D928A95E1F7C2010E948E10AC
:103CA0005092300540922F050FB6F894DEBF0FBE3C
:103CB000CDBF04C01092300510922F05C35FDE4FB8
:103CC0009881CD50D14091FF10C084E090E00E94D7
:103CD00046242C0141E052E063E074E00E9490131E
:103CE00050922E0540922D0504C010922E05109280
:103CF0002D05C35FDE4F8881CD50D14082FF0CC0BF
:103D000085E290E00E9446242C010E9434125092D9
:103D10002C0540922B0504C010922C0510922B0507
:103D2000C05FDE4F88819981C051D140CB52DF4FB7
:103D300099838883C55DD040C952DF4F79826882FC
:103D4000C75DD040C752DF4F99828882C95DD0409D
:103D5000C25FDE4F88819981CE50D140C552DF4F7E
:103D600099838883CB5DD040C352DF4F398228824C
:103D7000CD5DD040CE5EDE4F88819981C251D14069
:103D8000C152DF4F99838883CF5DD0408FE090E0B0
:103D90000E9446243C01CB52DF4F8880C55DD04055
:103DA000CA52DF4F9880C65DD040C952DF4FA8800D
:103DB000C75DD040C852DF4FB880C85DD040C75201
:103DC000DF4FC880C95DD040C652DF4FD880CA5D82
:103DD000D040C552DF4FE880CB5DD040C452DF4FAA
:103DE000F880CC5DD040C352DF4F0881CD5DD0401C
:103DF000C252DF4F1881CE5DD040C152DF4F2881C3
:103E0000CF5DD040C052DF4F3881C05ED04045E426
:103E100060910C020E944F0A70922A056092290557
:103E2000CD5EDE4F0FB6F894DEBF0FBECDBFDF9183
:103E3000CF911F910F91FF90EF90DF90CF90BF90A7
:103E4000AF909F908F907F906F905F904F903F903A
:103E50002F9008958091290590912A050C94E00FE8
:103E60001F920F920FB60F9211242F933F938F93AF
:103E70009F93AF93BF938091380590913905A0919E
:103E80003A05B0913B053091370523E0230F2D37DC
:103E900020F40196A11DB11D05C026E8230F02964E
:103EA000A11DB11D209337058093380590933905E6
:103EB000A0933A05B0933B0580913C0590913D0558
:103EC000A0913E05B0913F050196A11DB11D8093C3
:103ED0003C0590933D05A0933E05B0933F05BF91EF
:103EE000AF919F918F913F912F910F900FBE0F90A7
:103EF0001F9018952FB7F894609138057091390587
:103F000080913A0590913B052FBF08953FB7F894F3
:103F100080913C0590913D05A0913E05B0913F05F3
:103F200026B5A89B05C02F3F19F00196A11DB11D14
:103F30003FBF6627782F892F9A2F620F711D811D31
:103F4000911D42E0660F771F881F991F4A95D1F790
:103F50000895CF92DF92EF92FF92CF93DF936B01A0
:103F60007C010E94861FEB01C114D104E104F1041D
:103F700089F00E94BE260E94861F6C1B7D0B683E46
:103F8000734090F381E0C81AD108E108F108C851E4
:103F9000DC4FEACFDF91CF91FF90EF90DF90CF9091
:103FA00008958230910538F0880F991F880F991F66
:103FB00005970197F1F70895789484B5826084BDE0
:103FC00084B5816084BD85B5826085BD85B581601D
:103FD00085BDEEE6F0E0808181608083E1E8F0E07D
:103FE0001082808182608083808181608083E0E8AC
:103FF000F0E0808181608083E1EBF0E0808184608B
:104000008083E0EBF0E0808181608083E1E9F0E093
:10401000808182608083808181608083E0E9F0E03C
:10402000808181608083E1EAF0E08081826080832A
:10403000808181608083E0EAF0E08081816080831C
:10404000E1E2F1E080818260808380818160808311
:10405000E0E2F1E0808181608083EAE7F0E0808146
:10406000846080838081826080838081816080839E
:104070008081806880831092C1000895863308F0A3
:10408000865320917B00982F9870277F922B9093D6
:104090007B00877020910D0290E4299F90011124EC
:1040A000822B80937C0080917A00806480937A00D8
:1040B00080917A0086FDFCCF809178002091790074
:1040C00090E0922B08951F93CF93DF93182FEB016D
:1040D00061E00E947D21209711F460E004C0CF3F91
:1040E000D10539F461E0812FDF91CF911F910C94BC
:1040F000B621E12FF0E0ED5BFC4F449150E0FA0176
:104100003197E231F10508F09BC0E057FF4F0C9466
:104110008B2984B5806884BDC7BD97C084B5806293
:1041200084BDC8BD92C0809180008068809380006B
:10413000D0938900C093880088C0809180008062FD
:1041400080938000D0938B00C0938A007EC08091C2
:104150008000886080938000D0938D00C0938C0095
:1041600074C08091B00080688093B000C093B300A9
:104170006CC08091B00080628093B000C093B400A6
:1041800064C080919000806880939000D0939900E3
:10419000C09398005AC080919000806280939000F4
:1041A000D0939B00C0939A0050C08091900088608B
:1041B00080939000D0939D00C0939C0046C0809156
:1041C000A00080688093A0008091A0008F7B8093E6
:1041D000A000D093A900C093A80037C08091A00090
:1041E00080628093A000D093AB00C093AA002DC042
:1041F0008091A00088608093A000D093AD00C09310
:10420000AC0023C080912001806880932001D0936E
:104210002901C093280119C08091200180628093F8
:104220002001D0932B01C0932A010FC0809120015F
:10423000886080932001D0932D01C0932C0105C08C
:10424000C038D1050CF04ECF48CFDF91CF911F91F0
:10425000089590E0FC013197E231F10508F04CC07F
:10426000EE55FF4F0C948B29809180008F7703C00F
:10427000809180008F7D80938000089580918000E0
:10428000877FF9CF84B58F7702C084B58F7D84BDD9
:1042900008958091B0008F7703C08091B0008F7D2A
:1042A0008093B0000895809190008F7707C080912F
:1042B00090008F7D03C080919000877F8093900055
:1042C00008958091A0008F7707C08091A0008F7D16
:1042D00003C08091A000877F8093A0000895809103
:1042E00020018F7707C0809120018F7D03C08091CE
:1042F0002001877F809320010895CF93DF9390E082
:10430000FC01E757FC4F2491FC01E153FC4F8491E1
:10431000882349F190E0880F991FFC01E75BFB4F70
:10432000A591B491815D9B4FFC01C591D4919FB73C
:10433000611108C0F8948C91209582238C93888118
:1043400082230AC0623051F4F8948C91322F309558
:1043500083238C938881822B888304C0F8948C916A
:10436000822B8C939FBFDF91CF9108950F931F9362
:10437000CF93DF931F92CDB7DEB7282F30E0F9013E
:10438000ED5BFC4F8491F901E757FC4F1491F90163
:10439000E153FC4F04910023C9F0882321F0698385
:1043A0000E9429216981E02FF0E0EE0FFF1FE15DFF
:1043B000FB4FA591B4919FB7F8948C91611103C004
:1043C0001095812301C0812B8C939FBF0F90DF91AB
:1043D000CF911F910F910895CF93DF93282F30E055
:1043E000F901ED5BFC4F8491F901E757FC4FD49143
:1043F000F901E153FC4FC491CC2391F081110E944B
:104400002921EC2FF0E0EE0FFF1FEB5EFB4FA59193
:10441000B4912C912D2381E090E021F480E002C042
:1044200080E090E0DF91CF910895FC01818D228D95
:1044300090E0805C9F4F821B91098F7399270895AC
:10444000FC01918D828D981731F0828DE80FF11D5E
:10445000858D90E008958FEF9FEF0895FC01918D79
:10446000828D981761F0828DDF01A80FB11D5D96D6
:104470008C91928D9F5F9F73928F90E008958FEF44
:104480009FEF089589EE93E2892B41F080E090E060
:10449000892B21F00E94E923811125C080E090E062
:1044A000892B41F080E090E0892B21F00E940000F0
:1044B00081111CC080E090E0892B41F080E090E009
:1044C000892B21F00E940000811113C080E090E050
:1044D000892BA1F080E090E0892B81F00E94000000
:1044E00081110AC008950E940000D8CF0E940000E8
:1044F000E1CF0E940000EACF0C9400000895FC0177
:10450000848DDF01A80FB11DA35ABF4F2C91848D5C
:1045100090E001968F739927848FA689B7892C9391
:10452000A089B1898C9180648C93938D848D98132C
:1045300006C00288F389E02D80818F7D80830895F5
:10454000CF93DF93EC01888D8823C9F0EA89FB893A
:10455000808185FD05C0A889B9898C9186FD0FC031
:104560000FB607FCF5CF808185FFF2CFA889B98906
:104570008C9185FFEDCFCE010E947F22E7CFDF91A6
:10458000CF910895CF92DF92FF920F931F93CF9315
:10459000DF931F92CDB7DEB76C0181E0D60158964C
:1045A0008C9358975B969C915B975C968C915C97EB
:1045B000981307C05096ED91FC915197808185FD2D
:1045C0002EC0F601038D10E00F5F1F4F0F731127F0
:1045D000F02EF601848DF81211C00FB607FCF9CF4A
:1045E000D6015096ED91FC915197808185FFF1CFD6
:1045F000C60169830E947F226981EBCF838DE80F1A
:10460000F11DE35AFF4F6083D6015B960C935B97D5
:104610005296ED91FC915397808180620CC0D60137
:104620005696ED91FC91579760835096ED91FC91D1
:10463000519780818064808381E090E00F90DF91CA
:10464000CF911F910F91FF90DF90CF900895BF926F
:10465000CF92DF92EF92FF92CF93DF93EC016A014A
:104660007B01B22EE889F98982E08083411581EED1
:10467000580761057105A1F060E079E08DE390E0F5
:10468000A70196010E946929215031094109510968
:104690005695479537952795211580E1380798F06D
:1046A000E889F989108260E874E88EE190E0A7015A
:1046B00096010E94692921503109410951095695F5
:1046C000479537952795EC85FD853083EE85FF85E9
:1046D0002083188EEC89FD89B082EA89FB8980816C
:1046E00080618083EA89FB89808188608083EA8990
:1046F000FB89808180688083EA89FB8980818F7D46
:104700008083DF91CF91FF90EF90DF90CF90BF90AB
:1047100008951F920F920FB60F9211240BB60F92AD
:104720002F938F939F93EF93FF93E0915005F09118
:1047300051058081E0915605F091570582FD12C028
:104740009081809159058F5F8F7320915A05821750
:1047500051F0E0915905F0E0E05CFA4F958F8093BD
:10476000590501C08081FF91EF919F918F912F9109
:104770000F900BBE0F900FBE0F901F9018951F92B9
:104780000F920FB60F9211240BB60F922F933F93F7
:104790004F935F936F937F938F939F93AF93BF9349
:1047A000EF93FF9380E495E00E947F22FF91EF91C9
:1047B000BF91AF919F918F917F916F915F914F9139
:1047C0003F912F910F900BBE0F900FBE0F901F9037
:1047D000189580E495E00E94152221E0892B09F4C8
:1047E00020E0822F0895109243051092420588EE32
:1047F00093E0A0E0B0E08093440590934505A0933A
:104800004605B093470589E893E09093410580936E
:10481000400585EC90E090934D0580934C0584EC29
:1048200090E090934F0580934E0580EC90E090933C
:1048300051058093500581EC90E09093530580934F
:10484000520582EC90E0909355058093540586ECD8
:1048500090E0909357058093560510925905109259
:104860005A0510925B0510925C05089508950E9408
:10487000DC1F0E9436240E944A1CC2E4D2E20E943D
:104880002A1F2097E1F30E944222F9CF0C94952928
:10489000CF92DF92EF92FF920F931F93CF93DF930C
:1048A0006C017A01EB01E60EF71E00E010E0CE1578
:1048B000DF0561F06991D601ED91FC910190F081E5
:1048C000E02DC6010995080F191FF1CFC801DF912E
:1048D000CF911F910F91FF90EF90DF90CF900895AF
:1048E0006115710581F0DB010D900020E9F7AD0144
:1048F00041505109461B570BDC01ED91FC910280A0
:10490000F381E02D099480E090E00895EF92FF920A
:104910000F931F93CF93DF938C01FB01C0E0D0E096
:1049200064917F018FEFE81AF80A662361F0D801DD
:10493000ED91FC910190F081E02DC8010995C80F1F
:10494000D91FF701EDCFCE01DF91CF911F910F91CC
:10495000FF90EF9008950C947024DC01ED91FC9190
:104960000190F081E02D099465E973E00C947024C6
:104970000F931F93CF93DF93EC010E9486248C0149
:10498000CE010E94B424800F911FDF91CF911F911F
:104990000F9108950F931F93CF93DF93EC010E9423
:1049A00070248C01CE010E94B424800F911FDF91EE
:1049B000CF911F910F9108958F929F92AF92BF92C6
:1049C000CF92DF92EF92FF920F931F93CF93DF93DB
:1049D000CDB7DEB7A1970FB6F894DEBF0FBECDBF3F
:1049E0007C01C42EE52FCB01D22E19A221E02D157A
:1049F00010F02AE0D22E8E010F5D1F4F8D2C912CCE
:104A0000A12CB12C6C2D7E2FA50194010E94692947
:104A10008C2DD29E80191124015011098A3014F472
:104A2000805D01C0895CF801808321153105410555
:104A3000510521F0C22EE32FCA01E4CFB801C7010E
:104A40000E947024A1960FB6F894DEBF0FBECDBFB2
:104A5000DF91CF911F910F91FF90EF90DF90CF905A
:104A6000BF90AF909F908F900895CF92DF92EF927A
:104A7000FF920F931F93CF93DF93EC016A017B01A9
:104A80002115310579F4E881F9810190F081E02D5B
:104A9000642FDF91CF911F910F91FF90EF90DF90E6
:104AA000CF9009942A303105E9F477FF1AC06DE2FE
:104AB0000E94AD248C0144275527BA014C195D0989
:104AC0006E097F092AE0CE010E94DC24800F911F2D
:104AD000DF91CF911F910F91FF90EF90DF90CF90DA
:104AE00008952AE0B701A601CE01DF91CF911F9171
:104AF0000F91FF90EF90DF90CF900C94DC24211564
:104B0000310541F4DC01ED91FC910190F081E02D43
:104B1000642F09940C94DC240F931F93CF93DF939D
:104B2000EC019A01462F50E060E070E00E947F2582
:104B30008C01CE010E94B424800F911FDF91CF9190
:104B40001F910F9108959A01AB0160E070E00C9401
:104B50007F250F931F93CF93DF93EC019A01AB0155
:104B600060E070E00E947F258C01CE010E94B42499
:104B7000800F911FDF91CF911F910F9108954F9258
:104B80005F926F927F928F929F92AF92BF92CF92DD
:104B9000DF92EF92FF920F931F93CF93DF93EC017D
:104BA0006A017B01B22E9A01AB01C701B6010E94D6
:104BB0001C29882319F068E973E027C02601370112
:104BC000E89477F82FEF3FEF4FE75FE7C301B201BB
:104BD0000E941C2981110DC02FEF3FEF4FE75FE7C7
:104BE000C301B2010E94242718161CF46CE973E07B
:104BF0000CC02FEF3FEF4FE75FE4C701B6010E9403
:104C000073281816ACF460EA73E0CE01DF91CF91FF
:104C10001F910F91FF90EF90DF90CF90BF90AF90DA
:104C20009F908F907F906F905F904F900C94702426
:104C30002FEF3FEF4FE75FECC701B6010E9424273B
:104C400087FDE1CF20E030E0A901C701B6010E9455
:104C5000242787FF0AC06DE2CE010E94AD248C019B
:104C6000F7FAF094F7F8F09402C000E010E0A12CFD
:104C700060E070E080E09FE3AB1441F020E030E0C2
:104C800040E251E40E942827A394F6CF9B01AC0197
:104C9000C701B6010E94C0266B017C010E949527C6
:104CA0002B013C010E94C1279B01AC01C701B60149
:104CB0000E94BF266B017C012AE0B301A201CE0154
:104CC0000E94DC24080F191FBB2039F06FE573E048
:104CD000CE010E947024080F191F7B2C772041F110
:104CE00020E030E040E251E4C701B6010E9477289D
:104CF0006B017C010E9490274B01AA2497FCA09491
:104D0000BA2C2AE030E0B501A401CE010E9435257D
:104D1000080F191FC501B4010E94C3279B01AC01F4
:104D2000C701B6010E94BF266B017C017A94D6CFE1
:104D3000C801DF91CF911F910F91FF90EF90DF900D
:104D4000CF90BF90AF909F908F907F906F905F902B
:104D50004F9008950C94BF250F931F93CF93DF932B
:104D6000EC010E94BF258C01CE010E94B424800F6B
:104D7000911FDF91CF911F910F9108950895505881
:104D8000BB27AA270ED075C166D130F06BD120F0B9
:104D900031F49F3F11F41EF45BC10EF4E095E7FB84
:104DA00051C1E92F77D180F3BA17620773078407DF
:104DB000950718F071F49EF58FC10EF4E0950B2E57
:104DC000BA2FA02D0B01B90190010C01CA01A0015D
:104DD0001124FF27591B99F0593F50F4503E68F1B8
:104DE0001A16F040A22F232F342F4427585FF3CFF9
:104DF000469537952795A795F0405395C9F77EF4CA
:104E00001F16BA0B620B730B840BBAF09150A1F012
:104E1000FF0FBB1F661F771F881FC2F70EC0BA0F98
:104E2000621F731F841F48F4879577956795B79520
:104E3000F7959E3F08F0B3CF9395880F08F0992718
:104E4000EE0F979587950895D9D008F481E00895DD
:104E50000CD00FC107D140F0FED030F021F45F3FFD
:104E600019F0F0C0511139C1F3C014D198F399234E
:104E7000C9F35523B1F3951B550BBB27AA2762171E
:104E80007307840738F09F5F5F4F220F331F441F63
:104E9000AA1FA9F333D00E2E3AF0E0E830D091509B
:104EA0005040E695001CCAF729D0FE2F27D0660F88
:104EB000771F881FBB1F261737074807AB07B0E8C7
:104EC00009F0BB0B802DBF01FF2793585F4F2AF0DD
:104ED0009E3F510568F0B6C000C15F3FECF3983EBD
:104EE000DCF3869577956795B795F7959F5FC9F73A
:104EF000880F911D9695879597F90895E1E0660FC3
:104F0000771F881FBB1F621773078407BA0720F03B
:104F1000621B730B840BBA0BEE1F88F7E0950895A4
:104F200004D06894B111D9C00895BCD088F09F57BF
:104F300090F0B92F9927B751A0F0D1F0660F771FE5
:104F4000881F991F1AF0BA95C9F712C0B13081F0C5
:104F5000C3D0B1E00895C0C0672F782F8827B85F0D
:104F600039F0B93FCCF3869577956795B395D9F726
:104F70003EF490958095709561957F4F8F4F9F4F30
:104F80000895E89409C097FB3EF49095809570953C
:104F900061957F4F8F4F9F4F9923A9F0F92F96E985
:104FA000BB279395F695879577956795B795F111FA
:104FB000F8CFFAF4BB0F11F460FF1BC06F5F7F4F97
:104FC0008F4F9F4F16C0882311F096E911C07723A9
:104FD00021F09EE8872F762F05C0662371F096E8B2
:104FE000862F70E060E02AF09A95660F771F881F81
:104FF000DAF7880F9695879597F90895990F000825
:10500000550FAA0BE0E8FEEF16161706E807F9079A
:10501000C0F012161306E407F50798F0621B730B35
:10502000840B950B39F40A2661F0232B242B252BB6
:1050300021F408950A2609F4A140A6958FEF811D59
:10504000811D089597F99F6780E870E060E00895FA
:105050009FEF80EC089500240A9416161706180690
:105060000906089500240A9412161306140605066C
:105070000895092E0394000C11F4882352F0BB0FFD
:1050800040F4BF2B11F460FF04C06F5F7F4F8F4F60
:105090009F4F089557FD9058440F551F59F05F3F9B
:1050A00071F04795880F97FB991F61F09F3F79F04A
:1050B00087950895121613061406551FF2CF4695CC
:1050C000F1DF08C0161617061806991FF1CF86954E
:1050D0007105610508940895E894BB276627772732
:1050E000CB0197F908958ADF08F48FEF08950BD06C
:1050F000C0CFB1DF28F0B6DF18F0952309F0A2CFBA
:10510000A7CF1124EACFC6DFA0F3959FD1F3950F67
:1051100050E0551F629FF001729FBB27F00DB11D3B
:10512000639FAA27F00DB11DAA1F649F6627B00DCB
:10513000A11D661F829F2227B00DA11D621F739FB4
:10514000B00DA11D621F839FA00D611D221F749FC2
:105150003327A00D611D231F849F600D211D822F09
:10516000762F6A2F11249F5750408AF0E1F0882350
:105170004AF0EE0FFF1FBB1F661F771F881F91505D
:105180005040A9F79E3F510570F05CCFA6CF5F3F1E
:10519000ECF3983EDCF3869577956795B795F79590
:1051A000E7959F5FC1F7FE2B880F911D9695879518
:1051B00097F9089511F40EF44BCF42C073DFD0F38A
:1051C0009923D9F3CEF39F57550B87FF47D000247F
:1051D000A0E640EA900180585695979528F4805CA7
:1051E000660F771F881F20F026173707480730F40F
:1051F000621B730B840B202931294A2BA695179427
:105200000794202531254A2758F7660F771F881FF6
:1052100020F026173707480730F4620B730B840B16
:10522000200D311D411DA09581F7B901842F9158A2
:10523000880F969587950895E1DE880B990B089560
:105240009F3F31F0915020F4879577956795B795FA
:10525000880F911D9695879597F908959150504024
:10526000660F771F881FD2F70895991B79E004C055
:10527000991F961708F0961B881F7A95C9F7809595
:105280000895AA1BBB1B51E107C0AA1FBB1FA6178D
:10529000B70710F0A61BB70B881F991F5A95A9F7DF
:1052A00080959095BC01CD01089597FB072E16F4CB
:1052B000009407D077FD09D00E94412907FC05D052
:1052C0003EF4909581959F4F0895709561957F4F1D
:1052D0000895A1E21A2EAA1BBB1BFD010DC0AA1F37
:1052E000BB1FEE1FFF1FA217B307E407F50720F04F
:1052F000A21BB30BE40BF50B661F771F881F991FCA
:105300001A9469F760957095809590959B01AC0112
:10531000BD01CF010895EE0FFF1F0590F491E02D20
:1053200009940790F691E02D0994CF93DF93823092
:10533000910510F482E090E0E091DF05F091E00546
:1053400020E030E0A0E0B0E0309739F140815181B9
:1053500048175907B8F04817590771F482819381AB
:10536000109729F013969C938E9312972CC09093CC
:10537000E0058093DF0527C02115310531F0421784
:10538000530718F0A901DB0101C0EF019A01BD012B
:10539000DF010280F381E02DD7CF21153105F9F02F
:1053A000281B390B2430310580F48A819B816115DB
:1053B000710521F0FB019383828304C09093E00583
:1053C0008093DF05FE01329644C0FE01E20FF31F19
:1053D0008193919322503109398328833AC02091D7
:1053E000DD053091DE05232B41F42091020230913E
:1053F00003023093DE052093DD05209100023091F9
:1054000001022115310541F42DB73EB74091040248
:1054100050910502241B350BE091DD05F091DE056E
:10542000E217F307A0F42E1B3F0B2817390778F07B
:10543000AC014E5F5F4F2417350748F04E0F5F1FDA
:105440005093DE054093DD058193919302C0E0E027
:10545000F0E0CF01DF91CF910895CF93DF930097D4
:1054600009F487C0FC01329713821282C091DF05D4
:10547000D091E005209781F420813181280F391FD8
:105480008091DD059091DE058217930779F5F09301
:10549000DE05E093DD056DC0DE0120E030E0AE17F3
:1054A000BF0750F412964D915C9113979D014115E1
:1054B000510509F1DA01F3CFB383A2834081518111
:1054C000840F951F8A179B0771F48D919C911197FA
:1054D000840F951F02969183808312968D919C91E3
:1054E0001397938382832115310529F4F093E00506
:1054F000E093DF053EC0D9011396FC93EE9312971B
:105500004D915D91A40FB51FEA17FB0779F48081D7
:105510009181840F951F0296D90111969C938E93C9
:105520008281938113969C938E931297E0E0F0E032
:105530008A819B81009719F0FE01EC01F9CFCE0121
:10554000029628813981820F931F2091DD053091C9
:10555000DE052817390769F4309729F41092E00521
:105560001092DF0502C013821282D093DE05C09331
:10557000DD05DF91CF9108956F927F928F929F9278
:10558000AF92BF92CF92DF92EF92FF920F931F9351
:10559000CF93DF93EC01CB01209781F4DF91CF9182
:1055A0001F910F91FF90EF90DF90CF90BF90AF9041
:1055B0009F908F907F906F900C949529FE01E60F3D
:1055C000F71F9E0122503109E217F30708F4ACC01F
:1055D000D9010D911C91119706171707B8F00530E6
:1055E000110508F49FC0A8014450510946175707F8
:1055F00008F498C002501109061B170B0193119370
:105600006D937C93CF010E942D2A8CC05B01A01A60
:10561000B10A4E01800E911EA091DF05B091E00508
:10562000612C712C60E070E0109709F449C0A81556
:10563000B905C9F5ED90FC901197670142E0C40EE1
:10564000D11CCA14DB0478F147018A189B08640155
:1056500042E0C40ED11C1296BC9012971396AC91E6
:10566000B5E0CB16D10440F0B282A3839182808250
:10567000D9018D939C9309C00E5F1F4F0E0D1F1D06
:10568000F90111830083EB2DFA2F6115710531F0BB
:10569000DB011396FC93EE93129744C0F093E00560
:1056A000E093DF053FC06D917C91119766167706F8
:1056B00008F43B01BD0112960D90BC91A02DB4CF12
:1056C0006091DD057091DE0568157905E9F46816CD
:1056D0007906D0F440910002509101024115510524
:1056E00041F44DB75EB76091040270910502461B0C
:1056F000570BE417F507C0F4F093DE05E093DD05E2
:10570000F901918380830EC00E9495297C01009746
:1057100059F0A801BE010E94A52BCE010E942D2A9E
:10572000C70104C0CE0102C080E090E0DF91CF91BC
:105730001F910F91FF90EF90DF90CF90BF90AF90AF
:105740009F908F907F906F900895FB01DC0102C0C5
:1057500001900D9241505040D8F708950F931F9338
:10576000CF93DF93CDB7DEB72E970FB6F894DEBF99
:105770000FBECDBF0D891E8986E08C831A830983F5
:105780008FEF9FE79E838D83AE01475E5F4F6F89EA
:10579000788DCE0101960E94DD2BEF81F885E00F18
:1057A000F11F10822E960FB6F894DEBF0FBECDBF4C
:1057B000DF91CF911F910F9108952F923F924F92B9
:1057C0005F926F927F928F929F92AF92BF92CF9291
:1057D000DF92EF92FF920F931F93CF93DF93CDB79A
:1057E000DEB72C970FB6F894DEBF0FBECDBF7C019D
:1057F0006B018A01FC0117821682838181FFBDC182
:10580000CE0101964C01F7019381F60193FD85913C
:1058100093FF81916F01882309F4ABC1853239F47C
:1058200093FD859193FF81916F01853229F4B70132
:1058300090E00E94042EE7CF512C312C20E0203242
:10584000A0F48B3269F030F4803259F0833269F47D
:1058500020612CC08D3239F0803339F4216026C0AC
:105860002260246023C0286021C027FD27C030EDBE
:10587000380F3A3078F426FF06C0FAE05F9E300D0C
:105880001124532E13C08AE0389E300D1124332E7C
:1058900020620CC08E3221F426FD6BC1206406C04C
:1058A0008C3611F4206802C0883641F4F60193FD6D
:1058B000859193FF81916F018111C1CF982F9F7DB9
:1058C0009554933028F40C5F1F4FFFE3F9830DC00C
:1058D000833631F0833771F0833509F05BC022C025
:1058E000F801808189830E5F1F4F44244394512C1B
:1058F000540115C03801F2E06F0E711CF801A08050
:10590000B18026FF03C0652D70E002C06FEF7FEF0E
:10591000C5012C870E94F92D2C0183012C852F773E
:10592000222E17C03801F2E06F0E711CF801A08022
:10593000B18026FF03C0652D70E002C06FEF7FEFDE
:10594000C5012C870E94EE2D2C012C852068222E6B
:10595000830123FC1BC0832D90E048165906B0F448
:10596000B70180E290E00E94042E3A94F4CFF50152
:1059700027FC859127FE81915F01B70190E00E948D
:10598000042E31103A94F1E04F1A51084114510499
:1059900071F7E5C0843611F0893639F5F80127FF33
:1059A00007C060817181828193810C5F1F4F08C0A5
:1059B00060817181882777FD8095982F0E5F1F4F3A
:1059C0002F76B22E97FF09C09095809570956195BE
:1059D0007F4F8F4F9F4F2068B22E2AE030E0A40106
:1059E0000E94362EA82EA81844C0853729F42F7E91
:1059F000B22E2AE030E025C0F22FF97FBF2E8F367D
:105A0000C1F018F4883579F0B4C0803719F08837C0
:105A100021F0AFC02F2F2061B22EB4FE0DC08B2D10
:105A20008460B82E09C024FF0AC09F2F9660B92E4B
:105A300006C028E030E005C020E130E002C020E1EF
:105A400032E0F801B7FE07C06081718182819381E5
:105A50000C5F1F4F06C06081718180E090E00E5F97
:105A60001F4FA4010E94362EA82EA818FB2DFF77E9
:105A7000BF2EB6FE0BC02B2D2E7FA51450F4B4FE06
:105A80000AC0B2FC08C02B2D2E7E05C07A2C2B2D0F
:105A900003C07A2C01C0752C24FF0DC0FE01EA0D55
:105AA000F11D8081803311F4297E09C022FF06C0D8
:105AB0007394739404C0822F867809F0739423FD45
:105AC00013C020FF06C05A2C731418F4530C571837
:105AD000732C731468F4B70180E290E02C870E9465
