:100000000C9434020C9463020C9463020C9463020B
:100010000C9463020C9463020C9463020C946302CC
:100020000C9463020C9463020C9463020C946302BC
:100030000C9463020C9463020C9463020C946302AC
:100040000C9463020C946A160C9463020C94630281
:100050000C9463020C9463020C9463020C94DC1EF7
:100060000C9463020C9435230C946B230C94630260
:100070000C9463020C9463020C9463020C9463026C
:100080000C9498160C9463020C9463020C94630213
:100090000C9463020C9463020C9463020C94C51AD2
:1000A0000C9463020C9463020C94C6160C946302C5
:1000B0000C9463020C9463020C9463020C94F41687
:1000C0000C9463020C9463020C9463020C9463021C
:1000D0000C9463020C9463020C9463020C9463020C
:1000E0000C9463022A10FD0F011005102A1009104C
:1000F0000D101110151017101C101E1023102510B4
:100100002A109B1CA21C781C7A1C7C1C7E1C801C48
:10011000821C881C8A1C841C861C881C8A1C9B1CB4
:1001200035203A203F2049205320CC205D206520F7
:100130006D20772081208B209A20A420CC20AE2017
:10014000B820C220EE20F120E020E420EA2028217F
:10015000F520F920FF20032107210D211121152170
:1001600028211B211F2123210953746F72656420EC
:100170003D20007363616C65466163746F725A2041
:100180003D20000953746F726564203D200073693F
:10019000676D615A203D20000953746F72656420B9
:1001A0003D2000426961735A203D20005072696E03
:1001B00074696E672063616C63756C61746564203B
:1001C000616E642073746F7265642076616C75650E
:1001D000732E2E2E005363616C6520466163746F2D
:1001E00072203D20004D617820416E676C65203D96
:1001F0002000446F6E652100526F74617465206247
:1002000061636B20746F207374617274696E672010
:10021000706F736974696F6E2E005A3D20005369C8
:10022000676D613A005A3D200041766572616765ED
:1002300020426961733A00476574426C6F636B28B2
:10024000292072657475726E6564204241445F4274
:100250004C4F434B2E005269676874204D6F746F8A
:10026000722063757272656E743A20004C65667414
:10027000204D6F746F722063757272656E743A20D0
:10028000006D6F746F7220647269766572206661AA
:10029000756C74004552524F522D20496E76616C38
:1002A00069642070726F6772616D2063686F696343
:1002B000653A2000095363616C6520466163746F81
:1002C000723A2000095369676D613A200042696102
:1002D000733A20004661696C656420746F20617513
:1002E000746F646574656374206779726F207479C4
:1002F0007065210009546F74616C203D2000094233
:100300006F74204C696E65203D20000943656E7452
:100310006572203D20000959203D20005369672067
:100320003D20004552524F522D20496E76616C6936
:10033000642070726F6772616D2063686F696365B6
:100340003A200000000A0B02090C0D0E08070304F6
:10035000010000000000000000000000000000009C
:10036000000000000000000000000000000000127B
:10037000111000000000000000000000000000005C
:10038000000000000000000000010210202008080A
:1003900010204010204080020102010804020101E7
:1003A00002040810204080804020100804020180D0
:1003B0000402018040201008040201080402010127
:1003C000020408102040800102040810204080052B
:1003D000050505070508080808020202020A0A08BE
:1003E00008040404040101010101010101030303E4
:1003F0000303030303040707070C0C0C0C0C0C0C81
:100400000C0202020206060606060606060B0B0B87
:100410000B0B0B0B0B000020002300260029002CE7
:10042000002F003200000100000301060109010055
:10043000002200250028002B002E0031003400028D
:10044000010000050108010B010000210024002724
:10045000002A002D003000330001010000040107D4
:10046000010A0100E3199F2311241FBECFEFD1E23F
:10047000DEBFCDBF13E0A0E0B2E0E4E8FCE500E0C1
:100480000BBF02C007900D92AE39B107D9F725E036
:10049000AEE9B3E001C01D92AB3DB207E1F714E055
:1004A000C8E6D4E000E006C022970109FE010BBFB8
:1004B0000E942929C436D10780E00807A9F70E94C5
:1004C000E3230C94402E0C940000CF93DF93EC01B7
:1004D000E881F981EA5BFF4F808191810E94970852
:1004E00088819981FC01E95AFF4F1082319621E001
:1004F0002083359611821082DF91CF9108958F92DB
:100500009F92AF92BF92CF92DF92EF92FF920F93A2
:100510001F93CF93DF93CDB7DEB7C854D1090FB681
:10052000F894DEBF0FBECDBF7C016E0181E4C80E22
:10053000D11CD6010C9323961FAF239724962FAF7F
:10054000249725963FAF259726964FAF2697279657
:100550005FAF279728966FAF289729967FAF299787
:10056000C7010E94B7185701B2E0AB0EB11CC5011C
:100570000E94C018F701E65BFF4F6B968CAD9DADF6
:10058000AEADBFAD6B9780839183A283B383349666
:100590006F968CAD9DADAEADBFAD6F9780839183EF
:1005A000A283B3833496A3964CAD5DAD6EAD7FADA3
:1005B000A39740835183628373833496A4968FAD4F
:1005C000A49780837497D6018D919C9191838083A9
:1005D000329625968EAD9FAD259791838083329676
:1005E00027968EAD9FAD279791838083329629966B
:1005F0008EAD9FAD2997918380833F96108231966F
:1006000081E080833196108211821282138200E091
:10061000A7962FADA797A6964FADA697A5966FADB7
:10062000A597FE0131964F01CF010E949218B401A7
:10063000C7010E942918BE0169597F4FC4010E9459
:10064000E418982D892DE92FF82FCF010896D501B0
:1006500021912D93E817F907D9F788E0A80EB11C6E
:10066000EC15FD0519F09E2F8F2FEDCFC85BDF4FE6
:100670000FB6F894DEBF0FBECDBFDF91CF911F91B3
:100680000F91FF90EF90DF90CF90BF90AF909F9031
:100690008F9008952F923F924F925F926F927F9228
:1006A0008F929F92AF92BF92CF92DF92EF92FF9282
:1006B0000F931F93CF93DF93CDB7DEB72F970FB66E
:1006C000F894DEBF0FBECDBF4C016F87142F9C0185
:1006D0002C5B3F4F7901633061F460E070E0F90119
:1006E000808191810E944A132B013C0162E070E0FD
:1006F0000BC061E070E0F901808191810E944A1392
:100700002B013C0163E070E0F701808191810E9440
:100710004A136B017C019E868D86F12FF4703F2E6B
:1007200012FF12C0F401EE5BFF4F808191810E94A5
:10073000C611F401EE5AFF4F20813181428153816D
:100740000E94D02687FD6AC0212F2170322E10FF13
:1007500034C0540137E5A30EB11CF501808181112D
:100760001BC03D972081318142815381C301B20179
:100770000E941F28181684F4F501308231963082C9
:100780007097808191810E945F12F401E75AFF4FB8
:100790006083718382839383F5018081882369F06C
:1007A000F401E65BFF4F2081318142815381C70113
:1007B000B6010E941F2818168CF1F12FF2703F2EFF
:1007C00011FF33C0540122E4A20EB11CF501608177
:1007D0007181CE0101960E94C014C980DA80EB803D
:1007E000FC800D811E812F81388549855A856B8556
:1007F0007C85F501808191810E94DC10F401E35A2F
:10080000FF4F882381F080819181019691838083BD
:100810003797208130E0821793073CF0CE010D9688
:100820000E9465025FC0118210828401085A1F4F26
:10083000F801808194012A5B3F4F1901882339F028
:10084000F901808191810E946407F8011082F4010E
:10085000E95AFF4F8081882371F03296408151819F
:100860006281738100E010E09801F1018081918143
:100870000E94620936C0F401E25BFF4F2F852130F0
:10088000A1F440815181628173811F921F921F9256
:100890001F92812C912C5401C12CD12C90E8E92E6F
:1008A0009FE3F92E9301820113C0008111812281FF
:1008B00033811F921F921F921F92812C912C540101
:1008C000C12CD12C80E8E82E8FE3F82EB301A201D1
:1008D000F101808191810E9478070F900F900F9015
:1008E0000F90312C832D2F960FB6F894DEBF0FBEDC
:1008F000CDBFDF91CF911F910F91FF90EF90DF90CF
:10090000CF90BF90AF909F908F907F906F905F90AF
:100910004F903F902F900895FC0183E090E09087E6
:1009200087831386128614860895EF92FF921F9391
:10093000CF93DF931F92CDB7DEB77C01162FFC015A
:10094000618583E694E049830E94C319612F83E6A1
:1009500094E00E946A194981642F83E694E00E9422
:100960006A1983E694E00E94E019F70186830F90EC
:10097000DF91CF911F91FF90EF900895CF93DF9378
:10098000EC018F819885029729F440E069E3CE015C
:100990000E94950440E063E2CE010E9495044FE678
:1009A00060E2CE01DF91CF910C9495049F92AF92BB
:1009B000BF92CF92DF92EF92FF920F931F93CF934C
:1009C000DF93EC01698583E694E00E94C319E0910E
:1009D0006304F09164040190F081E02D68EA83E6FD
:1009E00094E0099583E694E00E94E01946E0698569
:1009F00083E694E00E94C0190E94261F7B0183E6D3
:100A000094E00E941219069784F48A859B85892BAD
:100A1000B1F30E94261F6E197F098A859B85861770
:100A2000970768F781E08C872CC083E694E00E94EA
:100A30001A19A82E83E694E00E941A19982E83E6CC
:100A400094E00E941A19E82E83E694E00E941A1995
:100A5000B82E83E694E00E941A19F82E83E694E0FB
:100A60000E941A19D92CC12CCA28D982C8821B2DE0
:100A700000E00E291B830A83982F88278F299D83E6
:100A80008C83DF91CF911F910F91FF90EF90DF90BA
:100A9000CF90BF90AF909F9008951F93CF93DF9317
:100AA0001F92CDB7DEB7162F83E694E049830E94EC
:100AB000C3194981642F83E694E00E946A1983E692
:100AC00094E00E94E019811114C041E0612F83E697
:100AD00094E00E94C01983E694E00E941219892BC9
:100AE00041F083E694E00F90DF91CF911F910C9439
:100AF0001A198FEF9FEF0F90DF91CF911F910895FB
:100B0000EF92FF920F931F93CF93DF937C01EB0142
:100B10008A016330710521F04230510509F051C05E
:100B2000CE010197039758F50115110581F04FE0AB
:100B300050E06BE6C7010E944D058F3F2FEF9207F3
:100B400019F001E010E013C00130110551F04FE041
:100B500050E06AE6C7010E944D058F3FEFEF9E0708
:100B600021F4C330D10569F027C000E010E0C330A4
:100B7000D10529F4873D9105F1F5C2E0D0E0209739
:100B8000D9F40115110561F04FE050E069E6C701A5
:100B90000E944D05833D910589F10130110549F011
:100BA0004FE050E068E6C7010E944D05833D910586
:100BB00041F1C330D10519F00230110511F480E084
:100BC00025C0F701D087C783209759F0D7FD11C002
:100BD00023977CF40130110511F48BE608C08AE6F6
:100BE00006C00130110511F489E601C088E6F7015D
:100BF000818781E00BC0C1E0D0E0C1CF01E010E00F
:100C000002C000E010E0C0E0D0E0D6CFDF91CF918D
:100C10001F910F91FF90EF900895EF92FF920F9325
:100C20001F93CF93DF93CDB7DEB728970FB6F89415
:100C3000DEBF0FBECDBF7C01FC0160837183802FBE
:100C400002831383248335834683578360E00E94A5
:100C5000292160E0F70183810E94292160E0F701EA
:100C600084810E94292160E0F70185810E94292169
:100C700060E0F70186810E94292160E0F701878109
:100C80000E94292161E0F70180810E94292160E012
:100C9000F70181810E94292161E0F7018081289676
:100CA0000FB6F894DEBF0FBECDBFDF91CF911F917D
:100CB0000F91FF90EF900C9462210F931F93CF93AD
:100CC000DF93EC0177FF05C071956195710981E0B3
:100CD00001C080E08B016F3F710519F014F00FEF38
:100CE00010E0811107C0B8018A810E940F2060E0E6
:100CF00070E006C060E070E08A810E940F20B801B9
:100D00008B81DF91CF911F910F910C940F200F9346
:100D10001F93CF93DF93EC0177FF05C07195619529
:100D2000710981E001C080E08B016F3F710519F00E
:100D300014F00FEF10E0811107C0B8018D810E94FF
:100D40000F2060E070E006C060E070E08D810E94DE
:100D50000F20B8018E81DF91CF911F910F910C94DC
:100D60000F200F931F93CF93DF93EC018A010E9412
:100D70005D06B801CE01DF91CF911F910F910C94C8
:100D80008706FC0184810E94EA1F29E0AC01249FB0
:100D9000C001259F900D11240895FC0187810E94B8
:100DA000EA1F29E0AC01249FC001259F900D11246A
:100DB0000895FC0181810E94982121E0892B09F08E
:100DC00020E0822F08958F929F92AF92BF92CF9290
:100DD000DF92EF92FF920F931F93CF93DF93CDB7E4
:100DE000DEB72A970FB6F894DEBF0FBECDBF4C0119
:100DF000E982FA820B831C832D833E834F835887BD
:100E000069877A87FC011482158216821782108600
:100E10001186128613861486158616861786108A02
:100E2000118A128A138A148A158A168A178A108ED2
:100E30007C01F7E2EF0EF11CC7010E94221784012A
:100E4000065D1F4FC8010E942217F401B182A082E3
:100E5000D382C2828981818F8A81828F6B8170E087
:100E6000C7010E94ED176C8170E0C8010E94ED1768
:100E70008D81F401838F8E81848F8F81858F88850A
:100E8000868F898590E0A0E0B0E0878F90A3A1A332
:100E9000B2A38A8590E0A0E0B0E083A394A3A5A3C9
:100EA000B6A32A960FB6F894DEBF0FBECDBFDF9172
:100EB000CF911F910F91FF90EF90DF90CF90BF9057
:100EC000AF909F908F900895CF93DF93EC01198A94
:100ED0001A8A1B8A1C8A1D861E861F86188A0E94F3
:100EE000321F69877A878B879C87DF91CF9108951E
:100EF0002F923F924F925F926F927F928F929F922A
:100F0000AF92BF92CF92DF92EF92FF920F931F9317
:100F1000CF93DF93CDB7DEB764970FB6F894DEBFFB
:100F20000FBECDBF1C0149835A836B837C83098B21
:100F30001A8B2B8B3C8B49A45AA46BA47CA44986A6
:100F40005A866B867C860E94321FD10119962D919C
:100F50003D914D915C911C972B013C01421A530A23
:100F6000640A750A4D825E826F82788619966D9347
:100F70007D938D939C931C974114510461047104DB
:100F800009F4A9C029893A894B895C8969817A81E8
:100F90008B819C810E946B2669837A838B839C83DF
:100FA000C301B2010E946F276D837E838F83988770
:100FB00020E034E244E759E40E94D4269B01AC01CE
:100FC00069817A818B819C810E942328F10121898A
:100FD0003289438954890E946C262B013C01D1013E
:100FE00051966D937D938D939C93549729813A816B
:100FF0004B815C81C701B6010E9423286B017C01F3
:10100000A3019201C501B4010E9423289B01AC01F8
:10101000C701B6010E946C264B015C01F1012585D8
:1010200036854785508969817A818B819C810E94B0
:101030006B262B013C012D813E814F81588560E05C
:1010400074E284E799E40E94D4269B01AC01C301B9
:10105000B2010E9423289B01AC0169857A858B85AA
:101060009C850E9423289B01AC01C501B4010E940C
:101070006C260E943C2749805A806B807C80D1017D
:101080001D964D925D926D927C9250975A962C913E
:101090005A9730E0A901461B570B620F731F8D91C1
:1010A0009C9164960FB6F894DEBF0FBECDBFDF9162
:1010B000CF911F910F91FF90EF90DF90CF90BF9055
:1010C000AF909F908F907F906F905F904F903F90E8
:1010D0002F900C94B10664960FB6F894DEBF0FBE45
:1010E000CDBFDF91CF911F910F91FF90EF90DF90D7
:1010F000CF90BF90AF909F908F907F906F905F90B8
:101100004F903F902F90089570E0FC018081918175
:10111000413029F444275527461B570B06C0222788
:101120003327261B370BAB01B9010C94B10640E005
:1011300050E060E070E0FC01808191810C94B10688
:101140008F929F92AF92BF92CF92DF92EF92FF92D7
:101150001F93CF93DF93EC01162F8A819B810E940E
:101160005F124B015C018C8181113BC0113029F46D
:1011700020E030E044EB52E404C020E030E044EBF7
:1011800052ECC501B4010E946C266B017C0120E089
:1011900030E044EB53E40E941F2887FD09C020E0A3
:1011A00030E044EB53E4C701B6010E946B2615C042
:1011B000CD82DE82EF82F88620E030E0A901C7010F
:1011C000B6010E94D02687FF0CC020E030E044EB3F
:1011D00053E4C701B6010E946C266D837E838F8322
:1011E0009887A50194016D817E818F8198850E94E9
:1011F0006B266B017C0120E030E044E353E40E9465
:101200001F2818164CF420E030E044EB53E4C701EB
:10121000B6010E946B2612C020E030E044E353EC9C
:10122000C701B6010E94D02687FF0AC020E030E047
:1012300044EB53E4C701B6010E946C266B017C01AC
:1012400020E030E0A901C701B6010E941F28460135
:101250005701181624F0B7FAB094B7F8B094698D16
:1012600070E080E090E00E946F279B01AC01C50117
:10127000B4010E94D02687FF06C0CE010E949708C5
:101280001C8281E013C020E030E0A901C701B60153
:101290000E941F28181614F441E001C043E06A8D33
:1012A000CE010E94840881E08C8380E0DF91CF91A1
:1012B0001F91FF90EF90DF90CF90BF90AF909F90E5
:1012C0008F9008958F929F92AF92BF92CF92DF92AC
:1012D000EF92FF920F931F93CF93DF93EC014A019C
:1012E0005B0168017901011511052105310519F12D
:1012F0008D899E89AF89B88D892B8A2B8B2B31F4F0
:101300000E94321F6D8B7E8B8F8B988F0E94321FB5
:101310000D891E892F89388D601B710B820B930BF1
:10132000C616D706E806F90630F41D8A1E8A1F8AFB
:10133000188E81E04BC08A819B810E945F129B01C5
:10134000AC01C501B4010E946B266B017C0120E059
:1013500030E044E353E40E941F2818164CF420E0C8
:1013600030E044EB53E4C701B6010E946B2612C083
:1013700020E030E044E353ECC701B6010E94D026E0
:1013800087FF0AC020E030E044EB53E4C701B60118
:101390000E946C266B017C019701860130581F92D8
:1013A0001F921F921F92812C912C5401C12CD12C81
:1013B00080E8E82E8FE3F82EB501A401CE010E944B
:1013C00078070F900F900F900F9080E0DF91CF91F2
:1013D0001F910F91FF90EF90DF90CF90BF90AF9053
:1013E0009F908F900895FF920F931F93CF93DF9359
:1013F000EC018B01F42EE881F981848595850E94AA
:10140000D906882339F061E872E08AE395E00E940A
:101410006424FFCFEC81FD81B80184859585FF2090
:1014200019F00E945D0602C00E948706C80117FFDE
:1014300003C091958195910962E370E00E94ED28C7
:10144000892B39F5FF2069F06CE672E08AE395E0BC
:101450000E943224EA81FB81848595850E94C10621
:101460000CC066E572E08AE395E00E943224EA81CE
:10147000FB81848595850E94CD064AE050E0BC0141
:101480008AE395E0DF91CF911F910F91FF900C942B
:101490005525DF91CF911F910F91FF9008956F9285
:1014A0007F928F929F92AF92BF92CF92DF92EF92F4
:1014B000FF920F931F93CF93DF93CDB7DEB72C9797
:1014C0000FB6F894DEBF0FBECDBF3C01842F8982DA
:1014D0009A82AB82BC82CD82DE82EF82F886098757
:1014E0001A872B873C8729813A81F3013383228332
:1014F0002B813C81358324832D813E813783268354
:101500002F8138853187208729853A85338722873F
:101510002B853C85358724874083668762E00E945F
:101520002921F30111822C960FB6F894DEBF0FBE6D
:10153000CDBFDF91CF911F910F91FF90EF90DF9082
:10154000CF90BF90AF909F908F907F906F900895B5
:101550000F931F93CF93DF9300D000D000D0CDB76F
:10156000DEB79A8389839C838B839E838D8300E07F
:1015700010E041E0B801CE0101960E94F3096FE04E
:1015800070E080E090E00E94551F0F5F1F4F011533
:1015900081E0180771F70FEF10E041E0B801CE01CC
:1015A00001960E94F3096FE070E080E090E00E94F5
:1015B000551F0150110901158FEF180771F701E050
:1015C0001FEF41E0B801CE0101960E94F3096FE0E0
:1015D00070E080E090E00E94551F0F5F1F4F0130C8
:1015E000110579F700E010E040E0B801CE01019666
:1015F0000E94F3096FE070E080E090E00E94551FC8
:101600000F5F1F4F011581E0180771F70FEF10E012
:1016100040E0B801CE0101960E94F3096FE070E04E
:1016200080E090E00E94551F0150110901158FEFD5
:10163000180771F701E01FEF40E0B801CE010196F5
:101640000E94F3096FE070E080E090E00E94551F77
:101650000F5F1F4F0130110579F780E026960FB616
:10166000F894DEBF0FBECDBFDF91CF911F910F91D8
:10167000089560910B02FC01828593850E94A00869
:10168000882329F08091C4038F5F8093C4038091E5
:10169000C403843059F41092C40380910B0281304A
:1016A00011F483E001C081E080930B0280E0089593
:1016B0000F931F93CF93DF93EC018091C5038111AA
:1016C0000FC0888599850E945F126093C003709354
:1016D000C1038093C2039093C30381E08093C50349
:1016E00080910A02882331F08A859B850E946407D5
:1016F00010920A024091C0035091C1036091C2034D
:101700007091C30300E41BE42CE430E08A859B85E0
:101710000E946209882321F081E080930A0201C0BF
:1017200080E0DF91CF911F910F910895AF92BF920A
:10173000CF92DF92EF92FF920F931F93CF93DF939D
:10174000CDB7DEB7C259D1090FB6F894DEBF0FBED0
:10175000CDBF8C01FC0164817581CE018F579F4FF5
:101760000E94C014CD57DF4FA881C358D040CC573A
:10177000DF4FB881C458D040CB57DF4FF880C558F1
:10178000D040CA57DF4FE880C658D040C957DF4F16
:10179000D880C758D040C857DF4FC880C858D040FD
:1017A000C757DF4FB880C958D040C657DF4FA88011
:1017B000CA58D040CF57DF4F28813981C158D04017
:1017C000F80184819581FC01838994892817390760
:1017D00039F467E372E08AE395E00E9464246EC006
:1017E0002830310508F44AC080E090E0E0E04CE0A9
:1017F00050E0B901042E02C0769567950A94E2F78D
:10180000677011F4EE2351F0EDE8F0E0EC0FFD1FEE
:10181000E80FF91F605D60830196E1E043505109D4
:101820004D3FFFEF5F0729F7AE0143575F4FFA01C6
:10183000E80FF91F1082C457DF4F8881CC58D04081
:101840008F93C557DF4F8881CB58D0408F93AF928D
:10185000BF92CF92DF92EF92FF92BF93AF933F93ED
:101860002F935F934F938FE892E09F938F93CE01D6
:1018700001969F938F930E945A2B14C0AF92BF92F0
:10188000CF92DF92EF92FF92BF93AF933F932F934C
:1018900089ED92E09F938F93CE0101969F938F9352
:1018A0000E945A2B0FB6F894DEBF0FBECDBFBE010B
:1018B0006F5F7F4F8AE395E00E94572480E0CE5609
:1018C000DF4F0FB6F894DEBF0FBECDBFDF91CF91D3
:1018D0001F910F91FF90EF90DF90CF90BF90AF904E
:1018E00008954F925F926F927F928F929F92AF92E4
:1018F000BF92CF92DF92EF92FF920F931F93CF93FD
:10190000DF93CDB7DEB769970FB6F894DEBF0FBE91
:10191000CDBF7C010E94321F2091BE033091BF03D6
:101920002130310509F437C12230310509F4E9C00D
:10193000232B09F0FAC28090BA039090BB03A090C9
:10194000BC03B090BD0389288A288B2841F460939A
:10195000BA037093BB038093BC039093BD03809044
:10196000BA039090BB03A090BC03B090BD03DC0110
:10197000CB0188199909AA09BB09A090B803B090B6
:10198000B90388389341A105B10508F05EC085010F
:101990000F5F1F4F1093B9030093B803D701189638
:1019A000ED91FC91199760857185882777FD809569
:1019B000982F0E946F272B013C018090B4039090D8
:1019C000B503A090B603B090B703A50194010E949F
:1019D0006B266B017C01B80180E090E00E946D27CE
:1019E0009B01AC01C701B6010E94D4269B01AC014A
:1019F000C501B4010E946C269B01AC016093B40345
:101A00007093B5038093B6039093B703C301B201FB
:101A10000E946B269B01AC01C701B6010E942328DE
:101A20009B01AC016091B0037091B1038091B2034E
:101A30009091B3030E946C266093B0037093B1033E
:101A40008093B2039093B30370C2B50161507109E2
:101A500080E090E00E946D279B01AC016091B00393
:101A60007091B1038091B2039091B3030E94D42688
:101A70000E948A286093AC037093AD038093AE03F9
:101A80009093AF0369E272E08AE395E00E946424D8
:101A900065E272E08AE395E00E9432244091B4034B
:101AA0005091B5036091B6037091B70322E030E026
:101AB0008AE395E00E9458266EE172E08AE395E0A1
:101AC0000E9464246AE172E08AE395E00E94322475
:101AD0004091AC035091AD036091AE037091AF03A0
:101AE00022E030E08AE395E00E9458261092BA0383
:101AF0001092BB031092BC031092BD0382E090E0F1
:101B000045C063E073E08AE395E00E94572422E039
:101B100030E040E050E064EB73E48AE395E00E943B
:101B200056266CE273E08AE395E00E9476246BE42B
:101B300073E08AE395E00E9476246CE271E080E035
:101B400090E00E94551F60E573E08AE395E00E94F3
:101B500076246CE271E080E090E00E94551F65E51C
:101B600073E08AE395E00E9476246CE271E080E005
:101B700090E00E94551F6AE573E08AE395E00E94B9
:101B8000762481E08093AB0381E090E09093BF03E3
:101B90008093BE03CAC18090BA039090BB03A0900B
:101BA000BC03B090BD0389288A288B2841F4609338
:101BB000BA037093BB038093BC039093BD038090E2
:101BC000BA039090BB03A090BC03B090BD032B015F
:101BD0003C01481859086A087B08D7011896ED910E
:101BE000FC91199760857185882777FD8095982FDE
:101BF0000E946F272091B4033091B5034091B60342
:101C00005091B7030E946B2629E23CE54FE05CE36C
:101C10000E9423286B017C01C301B2010E946D2741
:101C20009B01AC01C701B6010E94232820E034E2E9
:101C300044E759E40E94D4262091A7033091A803D9
:101C40004091A9035091AA030E946C264B015C01AC
:101C50006093A7037093A8038093A9039093AA03AA
:101C60002091A3033091A4034091A5035091A603B2
:101C70000E941F28181644F48092A3039092A40394
:101C8000A092A503B092A603B8EB4B16BBE05B068F
:101C90006104710408F449C120E030E0A901C701E2
:101CA000B6010E941F2818165CF42DEC3CEC4CEC9D
:101CB0005DE3C701B6010E94D02687FF36C10BC085
:101CC0002DEC3CEC4CEC5DEBC701B6010E941F28EB
:101CD00018160CF02AC18091A203811112C068EF7E
:101CE00071E08AE395E00E9464241092BA03109296
:101CF000BB031092BC031092BD0381E08093A2034A
:101D000014C12091A3033091A4034091A5035091E5
:101D1000A60360E070E084EB93E40E94D42629E2FD
:101D20003CE54FE05CE30E94232860939E037093A0
:101D30009F038093A0039093A10362EF71E08AE375
:101D400095E00E94642465EE71E08AE395E00E94CC
:101D500032244091A3035091A4036091A503709194
:101D6000A60322E030E08AE395E00E94582665ED64
:101D700071E08AE395E00E94322440919E035091E5
:101D80009F036091A0037091A10322E030E08AE3F9
:101D900095E00E9458268091B4039091B503A091DC
:101DA000B603B091B7038D879E87AF87B88B8091BC
:101DB0009E0390919F03A091A003B091A1038D8BEE
:101DC0009E8BAF8BB88F8091AC039091AD03A091A7
:101DD000AE03B091AF03898B9A8BAB8BBC8B6E013A
:101DE000EDE0CE0ED11CE12CF12CD6016D916D01F0
:101DF000C701698F0E94842D698D681719F0C7018A
:101E00000E948C2DBFEFEB1AFB0AECE0EE16F104FA
:101E100061F78E010F5F1F4FE12CF12CC7010E946B
:101E2000842DD8018D938D01BFEFEB1AFB0AECE0F6
:101E3000EE16F10499F749805A806B807C808D8082
:101E40009E80AF80B884C984DA84EB84FC846CEA19
:101E500071E08AE395E00E94642463EA71E08AE31A
:101E600095E00E9432244091B4035091B5036091F3
:101E7000B6037091B70322E030E08AE395E00E9458
:101E8000562668E971E08AE395E00E94322422E058
:101E900030E0B301A2018AE395E00E9458266EE883
:101EA00071E08AE395E00E9432244091AC035091A6
:101EB000AD036091AE037091AF0322E030E08AE39E
:101EC00095E00E94562663E871E08AE395E00E945F
:101ED000322422E030E0B501A4018AE395E00E94BB
:101EE000582663E771E08AE395E00E94322440912E
:101EF0009E0350919F036091A0037091A10322E083
:101F000030E08AE395E00E94562668E671E08AE3B5
:101F100095E00E94322422E030E0B701A6018AE376
:101F200095E00E94582681E001C080E069960FB6D6
:101F3000F894DEBF0FBECDBFDF91CF911F910F91FF
:101F4000FF90EF90DF90CF90BF90AF909F908F90D9
:101F50007F906F905F904F900895FC0180859185F0
:101F60000E945F12AB01BC0122E030E08AE395E001
:101F70000E94582680E0089544E0FC01828193810C
:101F80000E944A0391E0843009F090E0892F08957F
:101F900041E0FC01828193810E944A0391E08130FB
:101FA00009F090E0892F089542E0FC01828193813D
:101FB0000E944A0391E0823009F090E0892F089551
:101FC000CF93DF93EC0188810E949821892B09F43B
:101FD00052C0898181114FC088859985009711F081
:101FE0000E949C124E8550E0FA013197EF30F105C6
:101FF00098F5EE58FF4F0C942329CE010E94A80AB1
:1020000039C0CE010E94390B35C0CE010E94580B59
:1020100031C0CE010E94960B2DC0CE010E94710CE2
:1020200029C0CE010E94AD0F25C063E001C061E070
:10203000CE010E94BC0F1EC063E001C061E0CE0172
:102040000E94C80F17C063E001C061E0CE010E948A
:10205000D40F10C019820FC064E972E08AE395E0E2
:102060000E9432244AE050E06E858AE395E00E94A7
:10207000382581E089838981DF91CF9108958EBDD4
:1020800000000DB407FEFDCF8EB508951F93CF93CA
:10209000DF93FC0123A92223A1F085A991E0980FE9
:1020A00095ABDF01A80FB11DA80FB11D53964C9140
:1020B000539754963C91215023AB903199F415AA33
:1020C00011C080898823F9F0228991E0920F928BC8
:1020D000DF01A20FB11D1C918150808B903129F43A
:1020E000128A03C0842F932F15C08BE50E943F10E6
:1020F000282F30E0D22FCC27812F0E943F109E0145
:10210000282BC90107C08AE50E943F10282F30E024
:1021100010E0F0CFDF91CF911F9108950F931F939F
:10212000CF93DF93CDB7DEB78C018CE0EEE0F2E029
:10213000D801539601900D928A95E1F7F80111AA02
:1021400012AA13AAEC5AFF4F1082319610823196D0
:1021500010823196108233961182108232968EE16F
:1021600090E09183808388E691E00E944129F80104
:1021700090A3878FE25AFF4F11821082329611820C
:10218000108283E1FE013796D80101900D928A9565
:10219000E1F70E94F3178CB58C7F81608CBD8DB503
:1021A0008E7F8DBDF801EE59FF4F81E08083DF9176
:1021B000CF911F910F910895CF92DF92EF92FF92EE
:1021C0000F931F93CF93DF93CDB7DEB72C970FB646
:1021D000F894DEBF0FBECDBFC982DA8229813A8171
:1021E0002150310981E02230310508F080E02C9641
:1021F0000FB6F894DEBF0FBECDBFDF91CF911F9118
:102200000F91FF90EF90DF90CF9008953F924F9203
:102210005F926F927F928F929F92AF92BF92CF9276
:10222000DF92EF92FF920F931F93CF93DF93CDB77F
:10223000DEB72C970FB6F894DEBF0FBECDBF4C01B2
:10224000C982DA82EB82FC820D831E8349875A871A
:102250003A2C0D811E81FC01618172818B819C81F0
:10226000681B790B77FF03C0719561957109882709
:1022700077FD8095982F0E946F27F4012381348188
:10228000458156810E9423282B013C0189859A852E
:1022900097FD0196BC0175956795600F711F8827A2
:1022A00077FD8095982F0E946F27F4012781308554
:1022B000418552850E9423284B015C01A3019201B4
:1022C0000E946B266B017C01332009F445C06CE150
:1022D00073E08AE395E00E94322469817A814AE0C2
:1022E00050E08AE395E00E944F2566E173E08AE3BF
:1022F00095E00E9432244AE050E0B8018AE395E07C
:102300000E944F256BE073E08AE395E00E9432243F
:1023100022E030E0B301A2018AE395E00E94562654
:102320006EEF72E08AE395E00E94322422E030E012
:10233000B501A4018AE395E00E94562664EF72E09D
:102340008AE395E00E94322422E030E0B701A60142
:102350008AE395E00E945826C701B6012C960FB675
:10236000F894DEBF0FBECDBFDF91CF911F910F91CB
:10237000FF90EF90DF90CF90BF90AF909F908F90A5
:102380007F906F905F904F903F900895FC01808107
:102390000E94EA1F83319105B4F0BC01882777FDC4
:1023A0008095982F0E946F272FED3FE443E951E479
:1023B0000E946B269B01AC016AE979EA86E195E40B
:1023C0000E94D426089560E070EC89E794E40895B3
:1023D000EF92FF920F931F93CF93DF93EC018C0149
:1023E0000C5F1F4FC8010E948C0483E694E00E949A
:1023F000A91942E050E063E070E0C8010E94800546
:10240000811107C064ED72E08AE395E00E946424C4
:10241000FFCFC8010E94BE041D8A1E8A1F8A188E23
:10242000198A1A8A1B8A1C8A188219821A821B82AC
:102430007E0189E1E80EF11C00E010E0C8010E9475
:10244000842DF70181937F010F5F1F4F0C30110521
:10245000A9F76DEC72E08AE395E00E943224498D81
:102460005A8D6B8D7C8D22E030E08AE395E00E94EE
:10247000562664EC72E08AE395E00E9432244D8D8A
:102480005E8D6F8D78A122E030E08AE395E00E94B6
:10249000562664EB72E08AE395E00E94322449A15B
:1024A0005AA16BA17CA122E030E08AE395E0DF91A4
:1024B000CF911F910F91FF90EF900C945826CF92DF
:1024C000DF92EF92FF92FC012081318142815381A2
:1024D00061897289838994890E946C266B017C01D1
:1024E00020E030E044EB53E40E941F28181654F417
:1024F00020E030E044EB53E4C701B6010E946B26B4
:102500006B017C0120E030E0A901C701B6010E9407
:10251000D02687FF0AC020E030E044EB53E4C70137
:10252000B6010E946C266B017C01C701B601FF90C9
:10253000EF90DF90CF9008954F925F926F927F92CD
:102540008F929F92AF92BF92CF92DF92EF92FF92C3
:10255000CF93DF93EC0104960E94D6040E94321FB1
:10256000CD88DE88EF88F88C2B013C014C185D0883
:102570006E087F086D8B7E8B8F8B988F6885798531
:10258000882777FD8095982F0E946F27298D3A8D97
:102590004B8D5C8D0E946B266B017C0120E030E04E
:1025A000A9010E941F2846015701181624F0B7FA06
:1025B000B094B7F8B09420E030E040E450E46D8D82
:1025C0007E8D8F8D98A10E9423289B01AC01C501AF
:1025D000B4010E94D02687FF03C0C12CD12C760104
:1025E000C301B2010E946D279B01AC01C701B60176
:1025F0000E94232820E034E244E759E40E94D426D4
:1026000029A13AA14BA15CA10E94232829893A89DA
:102610004B895C890E946C266B017C0120E030E0D4
:10262000A9010E94D02620E030E044EB53E487FF6C
:1026300005C0C701B6010E946C2613C0C701B601D0
:102640000E941F2887FF05C0C98ADA8AEB8AFC8AA4
:102650000CC020E030E044EB53E4C701B6010E9417
:102660006B26698B7A8B8B8B9C8BDF91CF91FF9044
:10267000EF90DF90CF90BF90AF909F908F907F9022
:102680006F905F904F900895FC0140835183628367
:1026900073830895CF92DF92EF92FF92FC01613035
:1026A000710569F024F4672BC9F480810BC0623096
:1026B000710539F06330710589F4838103C081812C
:1026C00001C082810E94EA1FBC01882777FD8095A6
:1026D000982F0E946F276B017C0103C0C12CD12C65
:1026E000760120E030E048E951E4C701B6010E94DC
:1026F000D02687FD11C02FED3FE443E951E4C70127
:10270000B6010E946B269B01AC016AE979EA86E179
:1027100095E40E94D42604C060E070EC89E794E45C
:10272000FF90EF90DF90CF9008953F924F925F928D
:102730006F927F928F929F92AF92BF92CF92DF92D1
:10274000EF92FF920F931F93CF93DF9300D01F92CE
:10275000CDB7DEB7AC015B01FC0180AD81114AC091
:10276000EE24EA94FE2C6A01F2E0CF0ED11CC601E1
:102770004A835B830E9446108C014A815B810097EB
:1027800059F4EF2811F07801F2CF8AE090E00E942E
:102790007D1F80E090E0DFC085352AEA920749F48A
:1027A00085E5E8168AEAF80671F7FA0112AE11AE6D
:1027B00023C08635FAEA9F0759F425E5E2162AEA8E
:1027C000F20609F781E090E0FA0192AF81AF14C000
:1027D0008A3AF5E59F07B9F66DE573E08AE395E07F
:1027E0004A835B830E94762480E00E943F104A81E6
:1027F0005B81C9CFFA0110AEFA0114AE13AE6A01C3
:10280000F2E0CF0ED11C6CE0362E88248394912CFC
:10281000FA0183AD94AD8A159B0508F09CC08238FF
:10282000910508F098C0C6014A835B830E94461058
:102830008C014A815B81FA0123AD34AD8535FAEA1A
:102840009F0731F481E0FA0180AF12AE11AE0BC0E8
:102850008635FAEA9F0749F481E0FA0180AF81E00A
:1028600090E092AF81AFC90176C00097E1F3FA0121
:1028700085AD96AD8217930798F44E9696AF85AFC7
:10288000389EB001399E700D1124808191814A8358
:102890005B830E94682A4A815B81FA01918380836D
:1028A000FA0123AD34AD329EC001339E900D112448
:1028B000E080F180E80EF91E3701412C512C20E018
:1028C000FA0181AD92AD892B31F4253021F4F70165
:1028D0001386128612C0C60129834A835B830E9435
:1028E0004610480E591EF301819391933F012981AF
:1028F0002F5F4A815B81263019F70415150539F4DD
:10290000FA0183AD94AD019694AF83AF0AC065E63A
:1029100073E08AE395E04A835B830E9476245B81BF
:102920004A81C6014A835B830E9446104A815B81CB
:102930008535FAEA9F0721F4FA0112AE11AE68CF8D
:1029400086359A4A21F4FA0192AE81AE61CFFA013E
:1029500083AD94AD00C00F900F900F90DF91CF9199
:102960001F910F91FF90EF90DF90CF90BF90AF90AD
:102970009F908F907F906F905F904F903F900895C1
:102980002F923F924F925F926F927F928F929F927F
:10299000AF92BF92CF92DF92EF92FF920F931F936D
:1029A000CF93DF93CDB7DEB762970FB6F894DEBF53
:1029B0000FBECDBF3C014B018CE0FB017396D301F0
:1029C00001900D928A95E1F78B01015E1F4F68EE31
:1029D00073E0C8010E9495132C0168EE73E0C801F2
:1029E0000E949513480E591E212C312C1E861D86DF
:1029F00080EF8F8793E2988BE4E7E98BF9ECFA8B11
:102A0000ED85FE85E415F5050CF062C0F401878DB7
:102A100090A1820D931DFC01DE0111962CE0019026
:102A20000D922A95E1F7FC01E080F1800681178183
:102A3000A084B184C7010197029708F040C00A9DA5
:102A4000B0010B9D700D1A9D700D112480E090E077
:102A50000E946D27F40127853089418952890E949F
:102A60001F28181664F5CE2CFA82E982202F1887C9
:102A70000F834A2DBA86A986A12CDA80EB80FC80D0
:102A80000D811E8138855A856B857C85C4010E9425
:102A900006117B018C012F85388949895A890E944A
:102AA0001F2887FD0CC0FE013196D3018CE00190F8
:102AB0000D928A95E1F7EF86F88A098B1A8B8D853E
:102AC0009E8501969E878D879CE0290E311C98CFAC
:102AD000F40123853485458556856F8578898989F4
:102AE0009A890E941F28181694F4F301808191811D
:102AF0000197880F991F880D991DFC01E25AFF4F1D
:102B0000208131812F5F3F4F3183208308C08CE0CB
:102B1000F4017396D30101900D928A95E1F7C301F8
:102B200062960FB6F894DEBF0FBECDBFDF91CF9196
:102B30001F910F91FF90EF90DF90CF90BF90AF90DB
:102B40009F908F907F906F905F904F903F902F90CD
:102B50000895CF92DF92EF92FF920F931F93CF933E
:102B6000DF936C018B017A01EC01C253DC4F888149
:102B700087FF04C0FB011182108223C02CE02C9D32
:102B8000C0012D9D900D11242881AC01420F511DD3
:102B900027FD5A952091CD0330E0421753078CF45E
:102BA0002881AC01420F511D27FD5A959A01FA0167
:102BB000EE0FFF1FE20FF31FEE52FC4F208126FDA8
:102BC00019C088818F5F88838CE08C9D90018D9DDA
:102BD000300D11248881A901480F511D87FD5A9598
:102BE0008091CD0390E048175907B4F488818C3068
:102BF0003CF112C02881820F911D27FD9A95FC019E
:102C0000EE0FFF1FE80FF91FEE52FC4F808160E0CE
:102C10008F730E946221D5CFF80180819181049643
:102C200080349C4918F480E49CE904C0F801808158
:102C300091810496F701918380838FEF888341C04F
:102C4000F801808191814881B901640F711D47FDB0
:102C50007A95AB01FB01EE0FFF1FE40FF51FEE525B
:102C6000FC4F41815281840F951FF701918380832E
:102C70008881A901480F511D87FD5A95FA01EE0F71
:102C8000FF1FE40FF51FEE52FC4F808186FF19C035
:102C90008881280F311D87FD3A95F901EE0FFF1F3E
:102CA000E20FF31FEE52FC4F808161E08F73DF91E2
:102CB000CF911F910F91FF90EF90DF90CF900C94E8
:102CC0006221DF91CF911F910F91FF90EF90DF90E4
:102CD000CF9008951F920F920FB60F9211240BB64A
:102CE0000F922F933F934F935F936F937F938F93A5
:102CF0009F93AF93BF93EF93FF9348E850E064E84E
:102D000070E081E090E00E94A915FF91EF91BF91E2
:102D1000AF919F918F917F916F915F914F913F9173
:102D20002F910F900BBE0F900FBE0F901F90189514
:102D30001F920F920FB60F9211240BB60F922F9382
:102D40003F934F935F936F937F938F939F93AF9333
:102D5000BF93EF93FF9348E950E064E970E082E0AD
:102D600090E00E94A915FF91EF91BF91AF919F91C3
:102D70008F917F916F915F914F913F912F910F9024
:102D80000BBE0F900FBE0F901F9018951F920F92C1
:102D90000FB60F9211240BB60F922F933F934F93C0
:102DA0005F936F937F938F939F93AF93BF93EF93B3
:102DB000FF9348EA50E064EA70E083E090E00E940C
:102DC000A915FF91EF91BF91AF919F918F917F9145
:102DD0006F915F914F913F912F910F900BBE0F908C
:102DE0000FBE0F901F9018951F920F920FB60F9263
:102DF00011240BB60F922F933F934F935F936F93D2
:102E00007F938F939F93AF93BF93EF93FF9348E28A
:102E100051E064E271E080E090E00E94A915FF912A
:102E2000EF91BF91AF919F918F917F916F915F9142
:102E30004F913F912F910F900BBE0F900FBE0F90AF
:102E40001F9018952091CD032033A0F431E0320F6C
:102E50003093CD03FC012083822F90E0FC01EE0F24
:102E6000FF1FE80FF91FEE52FC4F88EB9BE09283A7
:102E7000818308952FEFFC0120830895DF92EF9264
:102E8000FF920F931F93CF93DF93EC01D62E7A011D
:102E900089018881803308F068C061E08D2D0E942F
:102EA00029218881A82FB0E0FD01EE0FFF1FEA0F56
:102EB000FB1FEE52FC4F2D2D2F739081907C922B97
:102EC000908360E272E06E197F0977FF02C06D5F48
:102ED0007F4F7595679575956795698340E659E0CD
:102EE000401B510B57FF02C04D5F5F4F55954795F3
:102EF000559547954A836CE00E94E1289CE0899FA4
:102F0000B001112420E030E0A901460F571FFA015B
:102F1000EE0FFF1FE40FF51FEE52FC4F908196FD60
:102F200018C02F5F3F4F2C30310571F790E0813092
:102F3000910521F51092800082E08093810010922B
:102F4000850010928400B19A80916F008260809316
:102F50006F00888190E0FC01EE0FFF1FE80FF91F62
:102F6000EE52FC4F8081806480838881DF91CF9115
:102F70001F910F91FF90EF90DF900895823091059F
:102F800069F41092900082E0809391001092950075
:102F90001092940088BB80937100DBCF8330910541
:102FA00069F41092A00082E08093A1001092A50025
:102FB0001092A40089BB80937200CBCF892B49F675
:102FC0001092200182E0809321011092250110923D
:102FD00024018ABB80937300BCCF20E639E040E235
:102FE00052E00C943E17CF93CFB7F89480916204CF
:102FF000811127C0E4E0F4E08491EEEBF3E09491DA
:10300000E82FF0E0EE0FFF1FE75BFB4FA591B491B7
:103010008C91892321F461E085E30E94622161E0C3
:1030200085E30E9429218CB580618CBD8CB58064BC
:103030008CBD61E084E30E94292161E083E30E946A
:103040002921809162048F5F80936204CFBFCF916A
:103050000895FB0120813181FC0131832083089593
:10306000FC01613051F028F0623061F0633079F09A
:103070000895808191818F730DC0808191818F77B8
:10308000806408C0808191818F7B806803C08081CB
:103090009181806C918380830895FC01808191816E
:1030A00062FF02C0806201C08F7D91838083808136
:1030B000918161FF02C0806101C08F7E9183808316
:1030C0008081918160FF02C0886001C0877F918309
:1030D00080830895FC018081918162FF02C0846039
:1030E00001C08B7F918380838081918161FF02C0C9
:1030F000826001C08D7F918380838081918160FF98
:1031000002C0816001C08E7F918380830895FC019D
:1031100080819181662311F0916001C09E7F91832F
:1031200080830895EF92FF920F93CF93DF9300D0A7
:10313000CDB7DEB77C01FC01118210822A8349835E
:103140000E9430184981642FC7010E944D182A81BE
:10315000622FC7010E946A18602FC7010F900F905D
:10316000DF91CF910F91FF90EF900C9487180F9300
:1031700000E020E040E061E00E9492180F91089585
:10318000AC01405C5F4FFC019F01285F3F4F1192F3
:10319000E217F307E1F7E417F507B1F720E030E0B5
:1031A00040E050E0BC01620F731FFB01E40FF51F0C
:1031B00010824F5F5F4F48305105B9F7285F3F4F8E
:1031C0002034310569F708951F93CF93DF93AC0145
:1031D000405C5F4FFC019F01285F3F4F1192E21757
:1031E000F307E1F7E417F507B1F720E030E0FB0162
:1031F000E20FF31F40E050E0DC01A21BB30B119182
:10320000ED01C40FD51F18AF4F5F5F4F4830510518
:10321000B1F7285F3F4F2034310549F7DF91CF9157
:103220001F9108958091930490E020919404821B53
:10323000910908952091940480919304281750F4E3
:10324000E22FF0E0EB56FB4F808190E02F5F209360
:10325000940408958FEF9FEF0895E0919404809176
:103260009304E81730F4F0E0EB56FB4F808190E0D8
:1032700008958FEF9FEF08950895CF92DF92EF9218
:10328000FF920F931F93CF93DF937C01CB018A01B1
:1032900020916F04222389F0EB016B01C40ED51E2F
:1032A000CC15DD0569F06991D701ED91FC91019094
:1032B000F081E02DC7010995F3CF642F0E949C1A7D
:1032C000C801DF91CF911F910F91FF90EF90DF9098
:1032D000CF900895CF93DF931F92CDB7DEB7698368
:1032E00020916F042223D1F020917004203240F00D
:1032F00021E030E0FC013383228380E090E015C0C0
:1033000080917104E82FF0E0EE58FB4F9981908393
:103310008F5F809371048093700405C061E0CE01DB
:1033200001960E949C1A81E090E00F90DF91CF916E
:103330000895FC011382128248EE53E060E070E0D1
:10334000448355836683778382E793E09183808308
:1033500008951092940410929304109271041092A4
:1033600070040C94E719862F413208F040E265E9B9
:1033700074E00E94051A10929404809393040895B7
:1033800021E00C94B31981E080936F046093920460
:10339000109271041092700408950F93062F21E08B
:1033A0004091700462E774E0809192040E94491A8F
:1033B000109271041092700410926F040F9108958E
:1033C00061E00C94CD1983E694E00C949919109265
:1033D000220581E08093200510921F0561E084E1C1
:1033E0000E94622161E085E10E946221E9EBF0E048
:1033F00080818E7F808380818D7F808388E480932D
:10340000B80085E48093BC000895413208F03FC0C5
:10341000909122059111FCCF91E090932205209389
:1034200020052FEF2093B5041092FA04240F209367
:10343000F9049093210590912105880F892B8093A1
:10344000210580911F05813041F410921F05809164
:1034500021058093BB0085EC01C085EE8093BC0004
:10346000809122058130E1F38091FA04841710F4F1
:103470004091FA042BEF34E0FB01D9018A2F821B23
:10348000841718F48D918193F9CF842F089580E0EB
:1034900008950F93413208F046C090912205911192
:1034A000FCCF92E090932205009320059FEF90932C
:1034B000B5041092FA044093F904FB016BEF74E039
:1034C000DB019A2F961B941718F491919D93F9CFD5
:1034D0001092210590912105880F892B8093210559
:1034E00080911F05813041F410921F0580912105C4
:1034F0008093BB0085EC01C085EE8093BC00222345
:1035000021F0809122058230E1F38091B5048F3F54
:1035100061F08091B504803251F08091B504803320
:1035200041F483E007C081E005C080E003C082E091
:1035300001C084E00F910895613298F42091220532
:10354000243089F46093D704FC0189ED94E0DC0118
:103550002A2F281B261718F421912D93F9CF80E0EC
:10356000089581E0089582E0089585ED8093BC0080
:103570008091BC0084FDFCCF10922205089585EC5B
:103580008093BC001092220508951F920F920FB6EF
:103590000F9211240BB60F922F933F934F935F938B
:1035A0006F937F938F939F93AF93BF93EF93FF930B
:1035B0008091B900887F803609F49CC068F5883214
:1035C00009F45BC090F4803109F454C038F48823C6
:1035D00009F4F5C0883009F44DC0F5C0883109F40C
:1035E0004CC0803209F45DC0EEC0803409F468C07C
:1035F00048F4803309F455C0883309F0E4C080935F
:10360000B504A8C0803509F44FC0883509F45DC001
:10361000883409F0D8C0D5C0883909F4C6C0A8F4E8
:10362000883709F467C038F4883609F463C08037F6
:1036300009F460C0C8C0883809F4B7C0803909F4FB
:103640005FC0803809F0BFC05BC0803B09F485C013
:1036500038F4803A09F466C0883A09F47EC0B3C0F1
:10366000803C09F4A6C0883C09F4A3C0883B09F457
:1036700089C0A9C08091210510C09091FA04809161
:10368000F904981770F5E091FA0481E08E0F8093A9
:10369000FA04F0E0E550FB4F80818093BB0085EC9D
:1036A00085C08093B5048DC0E091FA0481E08E0F4F
:1036B0008093FA048091BB00F0E0E550FB4F8083DB
:1036C0009091FA048091F9046DC0E091FA0481E0D0
:1036D0008E0F8093FA048091BB00F0E0E550FB4F21
:1036E00080838091200581116CC081E080931F054B
:1036F00084EA60C083E0809322051092B604CFCFA5
:103700008091B604803208F050C0E091B60481E0A8
:103710008E0F8093B6048091BB00F0E0E954FB4F1C
:103720008083BDCF8091B604803230F4E091B6043E
:10373000F0E0E954FB4F10820E94B51A6091B60484
:1037400070E0E0911B05F0911C0587EB94E0099572
:103750001092B6040E94BF1A36C084E080932205FE
:103760001092D8041092D704E0911D05F0911E0527
:1037700009958091D704811105C081E08093D70419
:103780001092D904E091D80481E08E0F8093D80480
:10379000F0E0E752FB4F80818093BB009091D8040A
:1037A0008091D704981708F47ACF85E88093BC00FD
:1037B0000AC085EC8093BC001092220504C01092D0
:1037C000B5040E94B51AFF91EF91BF91AF919F91FF
:1037D0008F917F916F915F914F913F912F910F90BA
:1037E0000BBE0F900FBE0F901F9018952F923F9217
:1037F0004F925F926F927F928F929F92AF92BF9201
:10380000CF92DF92EF92FF920F931F93CF93DF93AC
:10381000CDB7DEB7C550D1400FB6F894DEBF0FBEAE
:10382000CDBF80912F0590913005CE5FDE4F9983FB
:103830008883C250D1406090290570902A058090FD
:103840002705909028058091250590912605C05068
:10385000DF4F99838883C050D14020902D05309050
:103860002E0580912B0590912C05CC5FDE4F99831E
:103870008883C450D14080E5EAE1F2E0DE01AF5A2E
:10388000BF4F01900D928A95E1F78AE0EAE6F2E0F7
:10389000DE01A352BF4F01900D928A95E1F788E0B7
:1038A000E4E7F2E0DE01A950BF4F01900D928A9546
:1038B000E1F783E1ECE7F2E0DE01AC54BF4F0190A9
:1038C0000D928A95E1F726E040E855E260E070E06D
:1038D0008AE395E00E94D32280910C0290E0FC01E3
:1038E0003197EF30F105C0F4EF57FF4F0C942329C7
:1038F0009CE122C08CE127C099E11EC081E023C079
:1039000094E01AC084E01FC09EE316C08EE31BC083
:103910009BE312C08BE317C063E273E08AE395E098
:103920000E9432244AE050E060910C028AE395E064
:103930000E943825FFCF9FE3C150DF4F9883CF5FB0
:10394000D04006C088E0C150DF4F8883CF5FD040B1
:10395000C150DF4F8881CF5FD040807209F475C0BD
:10396000C151DF4F79826882CF5ED040CF50DF4FA8
:1039700099828882C15FD040CD50DF4F3982288242
:10398000C35FD040C050DF4F88819981C050D14083
:10399000CB50DF4F99838883C55FD04080E5FE011F
:1039A000EF5AFF4FDE01119601900D928A95E1F7D3
:1039B0008FE590E00E94F2232C018DB79EB78055D1
:1039C00091090FB6F8949EBF0FBE8DBFADB7BEB7BD
:1039D000119680E5FE01319601900D928A95E1F7EE
:1039E000C151DF4F0881CF5ED040C051DF4F1881F9
:1039F000C05FD040CF50DF4F2881C15FD040CE5054
:103A0000DF4F3881C25FD040CD50DF4F4881C35F68
:103A1000D040CC50DF4F5881C45FD040CB50DF4FF7
:103A20006881C55FD040CA50DF4F7881C65FD04003
:103A3000C2010E947F025092300540922F050FB6BE
:103A4000F894DEBF0FBECDBF04C0109230051092B7
:103A50002F05C150DF4F9881CF5FD04094FF51C0F8
:103A60008AE0FE01E352FF4FDE01AD52BF4F0190ED
:103A70000D928A95E1F78DE290E00E94F2232C01ED
:103A8000A0902B05B0902C05C0902505D090260560
:103A9000CD52DF4FE880C35DD040CC52DF4FF8807D
:103AA000C45DD040CB52DF4F0881C55DD040CA52C3
:103AB000DF4F1881C65DD040C952DF4F2881C75DF6
:103AC000D040C852DF4F3881C85DD040C752DF4F69
:103AD0004881C95DD040C652DF4F5881CA5DD04091
:103AE000C552DF4F6881CB5DD040C452DF4F788133
:103AF000CC5DD0400E94E30650922E0540922D05E9
:103B000004C010922E0510922D05C150DF4F888100
:103B1000CF5FD04083FF3FC088E0FE01E950FF4FF8
:103B2000DE01A951BF4F01900D928A95E1F788E01F
:103B300090E00E94F2232C01C951DF4F0881C75E3B
:103B4000D040C851DF4F1881C85ED040C751DF4F09
:103B50002881C95ED040C651DF4F3881CA5ED0404F
:103B6000C551DF4F4881CB5ED040C451DF4F5881F3
:103B7000CC5ED040C351DF4F6881CD5ED040C25192
:103B8000DF4F7881CE5ED0400E940D0650922C050A
:103B900040922B0504C010922C0510922B05C150A9
:103BA000DF4F9881CF5FD04090FF30C083E1FE01AE
:103BB000EC54FF4FDE01AF55BF4F01900D928A9537
:103BC000E1F783E690E00E94F2232C018DB79EB7C7
:103BD00043970FB6F8949EBF0FBE8DBFADB7BEB76B
:103BE000119683E1FE01EF55FF4F01900D928A95EA
:103BF000E1F7C2010E948E1050922A0540922905D9
:103C00000FB6F894DEBF0FBECDBF04C010922A05D8
:103C100010922905C150DF4F9881CF5FD04091FFAE
:103C200010C084E090E00E94F2232C0141E052E0B9
:103C300063E074E00E9444135092280540922705E7
:103C400004C01092280510922705C150DF4F8881CB
:103C5000CF5FD04082FF0CC085E290E00E94F2234B
:103C60002C010E94E811509226054092250504C0BF
:103C70001092260510922505CE5FDE4F888199812E
:103C8000C250D140C953DF4F99838883C75CD0406D
:103C9000C753DF4F79826882C95CD040C553DF4F7C
:103CA00099828882CB5CD040C050DF4F8881998157
:103CB000C050D140C353DF4F99838883CD5CD0403F
:103CC000C153DF4F39822882CF5CD040CC5FDE4FBA
:103CD00088819981C450D140CF52DF4F9983888326
:103CE000C15DD0408FE090E00E94F2233C01C953B7
:103CF000DF4F8880C75CD040C853DF4F9880C85CD6
:103D0000D040C753DF4FA880C95CD040C653DF4FB7
:103D1000B880CA5CD040C553DF4FC880CB5CD04070
:103D2000C453DF4FD880CC5CD040C353DF4FE88012
:103D3000CD5CD040C253DF4FF880CE5CD040C15341
:103D4000DF4F0881CF5CD040C053DF4F1881C05D8A
:103D5000D040CF52DF4F2881C15DD040CE52DF4FDF
:103D60003881C25DD04045E460910C020E944F0A48
:103D70007092240560922305CB5FDE4F0FB6F89456
:103D8000DEBF0FBECDBFDF91CF911F910F91FF908E
:103D9000EF90DF90CF90BF90AF909F908F907F90EB
:103DA0006F905F904F903F902F90089580912305E2
:103DB000909124050C94E00F1F920F920FB60F9272
:103DC00011242F933F938F939F93AF93BF93809131
:103DD000320590913305A0913405B09135053091AD
:103DE000310523E0230F2D3720F40196A11DB11DCD
:103DF00005C026E8230F0296A11DB11D20933105B1
:103E00008093320590933305A0933405B093350524
:103E10008091360590913705A0913805B09139050C
:103E20000196A11DB11D8093360590933705A0938F
:103E30003805B0933905BF91AF919F918F913F9114
:103E40002F910F900FBE0F901F9018952FB7F894D9
:103E5000609132057091330580913405909135055C
:103E60002FBF08953FB7F89480913605909137059C
:103E7000A0913805B091390526B5A89B05C02F3F04
:103E800019F00196A11DB11D3FBF6627782F892F1C
:103E90009A2F620F711D811D911D42E0660F771FE1
:103EA000881F991F4A95D1F70895CF92DF92EF921C
:103EB000FF92CF93DF936B017C010E94321FEB01D5
:103EC000C114D104E104F10489F00E946A260E9421
:103ED000321F6C1B7D0B683E734090F381E0C81A63
:103EE000D108E108F108C851DC4FEACFDF91CF914A
:103EF000FF90EF90DF90CF9008958230910538F0D9
:103F0000880F991F880F991F05970197F1F708955A
:103F1000789484B5826084BD84B5816084BD85B5A4
:103F2000826085BD85B5816085BDEEE6F0E080816B
:103F300081608083E1E8F0E010828081826080838C
:103F4000808181608083E0E8F0E08081816080830F
:103F5000E1EBF0E0808184608083E0EBF0E0808141
:103F600081608083E1E9F0E08081826080838081EC
:103F700081608083E0E9F0E0808181608083E1EA14
:103F8000F0E0808182608083808181608083E0EACC
:103F9000F0E0808181608083E1E2F1E080818260F5
:103FA0008083808181608083E0E2F1E080818160B4
:103FB0008083EAE7F0E08081846080838081826092
:103FC000808380818160808380818068808310927B
:103FD000C1000895863308F0865320917B00982F06
:103FE0009870277F922B90937B00877020910D0211
:103FF00090E4299F90011124822B80937C00809172
:104000007A00806480937A0080917A0086FDFCCFEC
:10401000809178002091790090E0922B08951F9371
:10402000CF93DF93182FEB0161E00E9429212097A5
:1040300011F460E004C0CF3FD10539F461E0812F75
:10404000DF91CF911F910C946221E12FF0E0ED5BA5
:10405000FC4F449150E0FA013197E231F10508F04C
:104060009BC0E057FF4F0C94232984B5806884BD22
:10407000C7BD97C084B5806284BDC8BD92C0809121
:104080008000806880938000D0938900C09388006E
:1040900088C080918000806280938000D0938B00E4
:1040A000C0938A007EC080918000886080938000E9
:1040B000D0938D00C0938C0074C08091B000806854
:1040C0008093B000C093B3006CC08091B000806258
:1040D0008093B000C093B40064C080919000806869
:1040E00080939000D0939900C09398005AC080911B
:1040F0009000806280939000D0939B00C0939A00C0
:1041000050C080919000886080939000D0939D0073
:10411000C0939C0046C08091A00080688093A0005E
:104120008091A0008F7B8093A000D093A900C093C2
:10413000A80037C08091A00080628093A000D09337
:10414000AB00C093AA002DC08091A000886080932E
:10415000A000D093AD00C093AC0023C0809120019B
:10416000806880932001D0932901C093280119C051
:1041700080912001806280932001D0932B01C09315
:104180002A010FC080912001886080932001D09384
:104190002D01C0932C0105C0C038D1050CF04ECFC5
:1041A00048CFDF91CF911F91089590E0FC013197A6
:1041B000E231F10508F04CC0EE55FF4F0C94232975
:1041C000809180008F7703C0809180008F7D8093E5
:1041D0008000089580918000877FF9CF84B58F7724
:1041E00002C084B58F7D84BD08958091B0008F7723
:1041F00003C08091B0008F7D8093B00008958091BE
:1042000090008F7707C0809190008F7D03C08091D0
:104210009000877F8093900008958091A0008F7711
:1042200007C08091A0008F7D03C08091A000877F90
:104230008093A0000895809120018F7707C080911E
:1042400020018F7D03C080912001877F8093200112
:104250000895CF93DF9390E0FC01E757FC4F249142
:10426000FC01E153FC4F8491882349F190E0880FD1
:10427000991FFC01E75BFB4FA591B491815D9B4FBA
:10428000FC01C591D4919FB7611108C0F8948C913D
:10429000209582238C93888182230AC0623051F456
:1042A000F8948C91322F309583238C938881822BC4
:1042B000888304C0F8948C91822B8C939FBFDF91EC
:1042C000CF9108950F931F93CF93DF931F92CDB794
:1042D000DEB7282F30E0F901ED5BFC4F8491F90146
:1042E000E757FC4F1491F901E153FC4F049100236F
:1042F000C9F0882321F069830E94D5206981E02FCD
:10430000F0E0EE0FFF1FE15DFB4FA591B4919FB769
:10431000F8948C91611103C01095812301C0812B09
:104320008C939FBF0F90DF91CF911F910F910895B4
:10433000CF93DF93282F30E0F901ED5BFC4F8491A0
:10434000F901E757FC4FD491F901E153FC4FC491B7
:10435000CC2391F081110E94D520EC2FF0E0EE0FDC
:10436000FF1FEB5EFB4FA591B4912C912D2381E0B3
:1043700090E021F480E002C080E090E0DF91CF91F6
:104380000895FC01818D228D90E0805C9F4F821BFF
:1043900091098F7399270895FC01918D828D98174B
:1043A00031F0828DE80FF11D858D90E008958FEF3B
:1043B0009FEF0895FC01918D828D981761F0828D99
:1043C000DF01A80FB11D5D968C91928D9F5F9F7349
:1043D000928F90E008958FEF9FEF089585E993E223
:1043E000892B41F080E090E0892B21F00E949523F9
:1043F000811125C080E090E0892B41F080E090E0C1
:10440000892B21F00E94000081111CC080E090E007
:10441000892B41F080E090E0892B21F00E94000080
:10442000811113C080E090E0892BA1F080E090E042
:10443000892B81F00E94000081110AC008950E941A
:104440000000D8CF0E940000E1CF0E940000EACF18
:104450000C9400000895FC01848DDF01A80FB11DAC
:10446000A35ABF4F2C91848D90E001968F739927AA
:10447000848FA689B7892C93A089B1898C91806497
:104480008C93938D848D981306C00288F389E02D58
:1044900080818F7D80830895CF93DF93EC01888D99
:1044A0008823C9F0EA89FB89808185FD05C0A88938
:1044B000B9898C9186FD0FC00FB607FCF5CF8081BE
:1044C00085FFF2CFA889B9898C9185FFEDCFCE0108
:1044D0000E942B22E7CFDF91CF910895CF92DF92F8
:1044E000FF920F931F93CF93DF931F92CDB7DEB749
:1044F0006C0181E0D60158968C9358975B969C91FD
:104500005B975C968C915C97981307C05096ED91E1
:10451000FC915197808185FD2EC0F601038D10E03E
:104520000F5F1F4F0F731127F02EF601848DF812C5
:1045300011C00FB607FCF9CFD6015096ED91FC9152
:104540005197808185FFF1CFC60169830E942B229C
:104550006981EBCF838DE80FF11DE35AFF4F608334
:10456000D6015B960C935B975296ED91FC91539715
:10457000808180620CC0D6015696ED91FC915797D0
:1045800060835096ED91FC91519780818064808387
:1045900081E090E00F90DF91CF911F910F91FF90FC
:1045A000DF90CF900895BF92CF92DF92EF92FF926B
:1045B000CF93DF93EC016A017B01B22EE889F98980
:1045C00082E08083411581EE580761057105A1F0F5
:1045D00060E079E08DE390E0A70196010E94012957
:1045E000215031094109510956954795379527952D
:1045F000211580E1380798F0E889F989108260E890
:1046000074E88EE190E0A70196010E9401292150F3
:104610003109410951095695479537952795EC85FC
:10462000FD853083EE85FF852083188EEC89FD891A
:10463000B082EA89FB89808180618083EA89FB8975
:10464000808188608083EA89FB898081806880839B
:10465000EA89FB8980818F7D8083DF91CF91FF90F4
:10466000EF90DF90CF90BF9008951F920F920FB6FA
:104670000F9211240BB60F922F938F939F93EF936A
:10468000FF93E0914A05F0914B058081E091500540
:10469000F091510582FD12C09081809153058F5F8A
:1046A0008F7320915405821751F0E0915305F0E08B
:1046B000E65CFA4F958F8093530501C08081FF918E
:1046C000EF919F918F912F910F900BBE0F900FBE86
:1046D0000F901F9018951F920F920FB60F921124F2
:1046E0000BB60F922F933F934F935F936F937F93EC
:1046F0008F939F93AF93BF93EF93FF938AE395E0DC
:104700000E942B22FF91EF91BF91AF919F918F91CA
:104710007F916F915F914F913F912F910F900BBEC1
:104720000F900FBE0F901F9018958AE395E00E949E
:10473000C12121E0892B09F420E0822F08951092F5
:104740003D0510923C0588EE93E0A0E0B0E0809338
:104750003E0590933F05A0934005B093410582E844
:1047600093E090933B0580933A0585EC90E090931D
:1047700047058093460584EC90E09093490580932B
:10478000480580EC90E090934B0580934A0581ECBE
:1047900090E090934D0580934C0582EC90E09093CF
:1047A0004F0580934E0586EC90E0909351058093E1
:1047B0005005109253051092540510925505109211
:1047C0005605089508950E94881F0E94E2230E94C2
:1047D000F61BCEEED1E20E94D61E2097E1F30E9496
:1047E000EE21F9CF0C944129CF92DF92EF92FF9204
:1047F0000F931F93CF93DF936C017A01EB01E60EC9
:10480000F71E00E010E0CE15DF0561F06991D601DA
:10481000ED91FC910190F081E02DC6010995080F02
:10482000191FF1CFC801DF91CF911F910F91FF9018
:10483000EF90DF90CF9008956115710581F0DB0155
:104840000D900020E9F7AD0141505109461B570B6F
:10485000DC01ED91FC910280F381E02D099480E070
:1048600090E00895EF92FF920F931F93CF93DF9301
:104870008C01FB01C0E0D0E064917F018FEFE81A6A
:10488000F80A662361F0D801ED91FC910190F08166
:10489000E02DC8010995C80FD91FF701EDCFCE0152
:1048A000DF91CF911F910F91FF90EF9008950C949D
:1048B0001C24DC01ED91FC910190F081E02D099424
:1048C0006EE873E00C941C240F931F93CF93DF9337
:1048D000EC010E9432248C01CE010E946024800FE2
:1048E000911FDF91CF911F910F9108950F931F9307
:1048F000CF93DF93EC010E941C248C01CE010E9417
:104900006024800F911FDF91CF911F910F91089527
:104910008F929F92AF92BF92CF92DF92EF92FF92CF
:104920000F931F93CF93DF93CDB7DEB7A1970FB649
:10493000F894DEBF0FBECDBF7C01C42EE52FCB01A6
:10494000D22E19A221E02D1510F02AE0D22E8E01D0
:104950000F5D1F4F8D2C912CA12CB12C6C2D7E2F17
:10496000A50194010E9401298C2DD29E8019112449
:10497000015011098A3014F4805D01C0895CF8018E
:104980008083211531054105510521F0C22EE32F09
:10499000CA01E4CFB801C7010E941C24A1960FB63A
:1049A000F894DEBF0FBECDBFDF91CF911F910F9165
:1049B000FF90EF90DF90CF90BF90AF909F908F903F
:1049C0000895CF92DF92EF92FF920F931F93CF93B0
:1049D000DF93EC016A017B012115310579F4E8814F
:1049E000F9810190F081E02D642FDF91CF911F912B
:1049F0000F91FF90EF90DF90CF9009942A3031050E
:104A0000E9F477FF1AC06DE20E9459248C01442713
:104A10005527BA014C195D096E097F092AE0CE01BC
:104A20000E948824800F911FDF91CF911F910F91D9
:104A3000FF90EF90DF90CF9008952AE0B701A60194
:104A4000CE01DF91CF911F910F91FF90EF90DF90FA
:104A5000CF900C9488242115310541F4DC01ED91AF
:104A6000FC910190F081E02D642F09940C9488242E
:104A70000F931F93CF93DF93EC019A01462F50E0E1
:104A800060E070E00E942B258C01CE010E94602422
:104A9000800F911FDF91CF911F910F9108959A017F
:104AA000AB0160E070E00C942B250F931F93CF9324
:104AB000DF93EC019A01AB0160E070E00E942B25CE
:104AC0008C01CE010E946024800F911FDF91CF9155
:104AD0001F910F9108954F925F926F927F928F92E4
:104AE0009F92AF92BF92CF92DF92EF92FF920F937D
:104AF0001F93CF93DF93EC016A017B01B22E9A01E1
:104B0000AB01C701B6010E94C828882319F061E9EA
:104B100073E027C026013701E89477F82FEF3FEFC5
:104B20004FE75FE7C301B2010E94C82881110DC0A1
:104B30002FEF3FEF4FE75FE7C301B2010E94D0269E
:104B400018161CF465E973E00CC02FEF3FEF4FE738
:104B50005FE4C701B6010E941F281816ACF469E98A
:104B600073E0CE01DF91CF911F910F91FF90EF90F5
:104B7000DF90CF90BF90AF909F908F907F906F907D
:104B80005F904F900C941C242FEF3FEF4FE75FECAA
:104B9000C701B6010E94D02687FDE1CF20E030E0BA
:104BA000A901C701B6010E94D02687FF0AC06DE2A5
:104BB000CE010E9459248C01F7FAF094F7F8F09492
:104BC00002C000E010E0A12C60E070E080E09FE314
:104BD000AB1441F020E030E040E251E40E94D426E2
:104BE000A394F6CF9B01AC01C701B6010E946C26CD
:104BF0006B017C010E9441272B013C010E946D2723
:104C00009B01AC01C701B6010E946B266B017C01C0
:104C10002AE0B301A201CE010E948824080F191FC7
:104C2000BB2039F068E573E0CE010E941C24080F18
:104C3000191F7B2C772041F120E030E040E251E465
:104C4000C701B6010E9423286B017C010E943C270A
:104C50004B01AA2497FCA094BA2C2AE030E0B501BD
:104C6000A401CE010E94E124080F191FC501B4015F
:104C70000E946F279B01AC01C701B6010E946B2601
:104C80006B017C017A94D6CFC801DF91CF911F913F
:104C90000F91FF90EF90DF90CF90BF90AF909F90DB
:104CA0008F907F906F905F904F9008950C946B253C
:104CB0000F931F93CF93DF93EC010E946B258C0120
:104CC000CE010E946024800F911FDF91CF911F9130
:104CD0000F91089508955058BB27AA270ED075C18B
:104CE00066D130F06BD120F031F49F3F11F41EF407
:104CF0005BC10EF4E095E7FB51C1E92F77D180F35A
:104D0000BA17620773078407950718F071F49EF5C8
:104D10008FC10EF4E0950B2EBA2FA02D0B01B90117
:104D200090010C01CA01A0011124FF27591B99F021
:104D3000593F50F4503E68F11A16F040A22F232F2D
:104D4000342F4427585FF3CF469537952795A7957D
:104D5000F0405395C9F77EF41F16BA0B620B730B24
:104D6000840BBAF09150A1F0FF0FBB1F661F771F95
:104D7000881FC2F70EC0BA0F621F731F841F48F44A
:104D8000879577956795B795F7959E3F08F0B3CFD0
:104D90009395880F08F09927EE0F979587950895BA
:104DA000D9D008F481E008950CD00FC107D140F0AC
:104DB000FED030F021F45F3F19F0F0C0511139C13D
:104DC000F3C014D198F39923C9F35523B1F3951B7C
:104DD000550BBB27AA2762177307840738F09F5F1C
:104DE0005F4F220F331F441FAA1FA9F333D00E2E8B
:104DF0003AF0E0E830D091505040E695001CCAF7F8
:104E000029D0FE2F27D0660F771F881FBB1F2617BC
:104E100037074807AB07B0E809F0BB0B802DBF018F
:104E2000FF2793585F4F2AF09E3F510568F0B6C0A8
:104E300000C15F3FECF3983EDCF38695779567956C
:104E4000B795F7959F5FC9F7880F911D9695879540
:104E500097F90895E1E0660F771F881FBB1F62175F
:104E600073078407BA0720F0621B730B840BBA0B1D
:104E7000EE1F88F7E095089504D06894B111D9C069
:104E80000895BCD088F09F5790F0B92F9927B7515B
:104E9000A0F0D1F0660F771F881F991F1AF0BA95FE
:104EA000C9F712C0B13081F0C3D0B1E00895C0C0DD
:104EB000672F782F8827B85F39F0B93FCCF38695F4
:104EC00077956795B395D9F73EF490958095709551
:104ED00061957F4F8F4F9F4F0895E89409C097FBCE
:104EE0003EF490958095709561957F4F8F4F9F4FC1
:104EF0009923A9F0F92F96E9BB279395F695879505
:104F000077956795B795F111F8CFFAF4BB0F11F4C7
:104F100060FF1BC06F5F7F4F8F4F9F4F16C088236E
:104F200011F096E911C0772321F09EE8872F762FA4
:104F300005C0662371F096E8862F70E060E02AF0E5
:104F40009A95660F771F881FDAF7880F96958795D1
:104F500097F90895990F0008550FAA0BE0E8FEEFA6
:104F600016161706E807F907C0F012161306E4072D
:104F7000F50798F0621B730B840B950B39F40A2626
:104F800061F0232B242B252B21F408950A2609F404
:104F9000A140A6958FEF811D811D089597F99F6708
:104FA00080E870E060E008959FEF80EC08950024B1
:104FB0000A941616170618060906089500240A947E
:104FC00012161306140605060895092E0394000C04
:104FD00011F4882352F0BB0F40F4BF2B11F460FF93
:104FE00004C06F5F7F4F8F4F9F4F089557FD9058BC
:104FF000440F551F59F05F3F71F04795880F97FB9D
:10500000991F61F09F3F79F0879508951216130656
:105010001406551FF2CF4695F1DF08C01616170685
:105020001806991FF1CF86957105610508940895BA
:10503000E894BB2766277727CB0197F908958ADF85
:1050400008F48FEF08950BD0C0CFB1DF28F0B6DFA2
:1050500018F0952309F0A2CFA7CF1124EACFC6DF1D
:10506000A0F3959FD1F3950F50E0551F629FF0017B
:10507000729FBB27F00DB11D639FAA27F00DB11DD4
:10508000AA1F649F6627B00DA11D661F829F22275D
:10509000B00DA11D621F739FB00DA11D621F839FE4
:1050A000A00D611D221F749F3327A00D611D231FBA
:1050B000849F600D211D822F762F6A2F11249F5708
:1050C00050408AF0E1F088234AF0EE0FFF1FBB1F2B
:1050D000661F771F881F91505040A9F79E3F5105CA
:1050E00070F05CCFA6CF5F3FECF3983EDCF3869583
:1050F00077956795B795F795E7959F5FC1F7FE2B75
:10510000880F911D9695879597F9089511F40EF4DF
:105110004BCF42C073DFD0F39923D9F3CEF39F571F
:10512000550B87FF47D00024A0E640EA9001805845
:105130005695979528F4805C660F771F881F20F09E
:1051400026173707480730F4621B730B840B20299E
:1051500031294A2BA69517940794202531254A27F3
:1051600058F7660F771F881F20F026173707480764
:1051700030F4620B730B840B200D311D411DA09583
:1051800081F7B901842F9158880F969587950895D6
:10519000E1DE880B990B08959F3F31F0915020F488
:1051A000879577956795B795880F911D9695879503
:1051B00097F9089591505040660F771F881FD2F7D6
:1051C0000895991B79E004C0991F961708F0961B63
:1051D000881F7A95C9F78095089597FB072E16F4D6
:1051E000009407D077FD09D00E942D2907FC05D037
:1051F0003EF4909581959F4F0895709561957F4FEE
:105200000895A1E21A2EAA1BBB1BFD010DC0AA1F07
:10521000BB1FEE1FFF1FA217B307E407F50720F01F
:10522000A21BB30BE40BF50B661F771F881F991F9A
:105230001A9469F760957095809590959B01AC01E3
:10524000BD01CF010895EE0FFF1F0590F491E02DF1
:1052500009940790F691E02D0994AA1BBB1B51E11C
:1052600007C0AA1FBB1FA617B70710F0A61BB70BD6
:10527000881F991F5A95A9F780959095BC01CD017B
:105280000895CF93DF938230910510F482E090E08F
:10529000E091D905F091DA0520E030E0A0E0B0E03F
:1052A000309739F14081518148175907B8F04817B4
:1052B000590771F482819381109729F013969C937A
:1052C0008E9312972CC09093DA058093D90527C04E
:1052D0002115310531F04217530718F0A901DB0100
:1052E00001C0EF019A01BD01DF010280F381E02DD1
:1052F000D7CF21153105F9F0281B390B24303105A2
:1053000080F48A819B816115710521F0FB019383F3
:10531000828304C09093DA058093D905FE0132960A
:1053200044C0FE01E20FF31F819391932250310993
:10533000398328833AC02091D7053091D805232B93
:1053400041F420910202309103023093D80520935A
:10535000D70520910002309101022115310541F459
:105360002DB73EB74091040250910502241B350B26
:10537000E091D705F091D805E217F307A0F42E1BB2
:105380003F0B2817390778F0AC014E5F5F4F2417A9
:10539000350748F04E0F5F1F5093D8054093D7054F
:1053A0008193919302C0E0E0F0E0CF01DF91CF91D3
:1053B0000895CF93DF93009709F487C0FC013297DB
:1053C00013821282C091D905D091DA05209781F419
:1053D00020813181280F391F8091D7059091D80500
:1053E0008217930779F5F093D805E093D7056DC040
:1053F000DE0120E030E0AE17BF0750F412964D9169
:105400005C9113979D014115510509F1DA01F3CF24
:10541000B383A28340815181840F951F8A179B0714
:1054200071F48D919C911197840F951F0296918331
:10543000808312968D919C9113979383828321157B
:10544000310529F4F093DA05E093D9053EC0D9017E
:105450001396FC93EE9312974D915D91A40FB51F97
:10546000EA17FB0779F480819181840F951F0296DA
:10547000D90111969C938E938281938113969C936C
:105480008E931297E0E0F0E08A819B81009719F0FB
:10549000FE01EC01F9CFCE01029628813981820FFD
:1054A000931F2091D7053091D8052817390769F443
:1054B000309729F41092DA051092D90502C01382B0
:1054C0001282D093D805C093D705DF91CF9108956C
:1054D0006F927F928F929F92AF92BF92CF92DF9204
:1054E000EF92FF920F931F93CF93DF93EC01CB01C9
:1054F000209781F4DF91CF911F910F91FF90EF9052
:10550000DF90CF90BF90AF909F908F907F906F90E3
:105510000C944129FE01E60FF71F9E01225031092C
:10552000E217F30708F4ACC0D9010D911C91119753
:1055300006171707B8F00530110508F49FC0A80139
:10554000445051094617570708F498C002501109F2
:10555000061B170B019311936D937C93CF010E944F
:10556000D9298CC05B01A01AB10A4E01800E911E90
:10557000A091D905B091DA05612C712C60E070E042
:10558000109709F449C0A815B905C9F5ED90FC902C
:105590001197670142E0C40ED11CCA14DB0478F1F4
:1055A00047018A189B08640142E0C40ED11C129680
:1055B000BC9012971396AC91B5E0CB16D10440F095
:1055C000B282A38391828082D9018D939C9309C07A
:1055D0000E5F1F4F0E0D1F1DF90111830083EB2D70
:1055E000FA2F6115710531F0DB011396FC93EE93F0
:1055F000129744C0F093DA05E093D9053FC06D914E
:105600007C9111976616770608F43B01BD0112964E
:105610000D90BC91A02DB4CF6091D7057091D805A5
:1056200068157905E9F468167906D0F4409100020E
:10563000509101024115510541F44DB75EB760919B
:10564000040270910502461B570BE417F507C0F4DE
:10565000F093D805E093D705F901918380830EC0BC
:105660000E9441297C01009759F0A801BE010E94C7
:10567000512BCE010E94D929C70104C0CE0102C01E
:1056800080E090E0DF91CF911F910F91FF90EF901C
:10569000DF90CF90BF90AF909F908F907F906F9052
:1056A0000895FB01DC0102C001900D924150504071
:1056B000D8F708950F931F93CF93DF93CDB7DEB73D
:1056C0002E970FB6F894DEBF0FBECDBF0D891E8991
:1056D00086E08C831A8309838FEF9FE79E838D83F7
:1056E000AE01475E5F4F6F89788DCE0101960E94B3
:1056F000892BEF81F885E00FF11F10822E960FB6EF
:10570000F894DEBF0FBECDBFDF91CF911F910F91F7
:1057100008952F923F924F925F926F927F928F9255
:105720009F92AF92BF92CF92DF92EF92FF920F9330
:105730001F93CF93DF93CDB7DEB72C970FB6F894B6
:10574000DEBF0FBECDBF7C016B018A01FC01178259
:105750001682838181FFBDC1CE0101964C01F70104
:105760009381F60193FD859193FF81916F018823C9
:1057700009F4ABC1853239F493FD859193FF819192
:105780006F01853229F4B70190E00E94B02DE7CF78
:10579000512C312C20E02032A0F48B3269F030F40F
:1057A000803259F0833269F420612CC08D3239F097
:1057B000803339F4216026C02260246023C0286031
:1057C00021C027FD27C030ED380F3A3078F426FF8E
:1057D00006C0FAE05F9E300D1124532E13C08AE0FC
:1057E000389E300D1124332E20620CC08E3221F4ED
:1057F00026FD6BC1206406C08C3611F4206802C0FF
:10580000883641F4F60193FD859193FF81916F01F4
:105810008111C1CF982F9F7D9554933028F40C5F50
:105820001F4FFFE3F9830DC0833631F0833771F0EA
:10583000833509F05BC022C0F801808189830E5F47
:105840001F4F44244394512C540115C03801F2E0F9
:105850006F0E711CF801A080B18026FF03C0652D7A
:1058600070E002C06FEF7FEFC5012C870E94A52D6D
:105870002C0183012C852F77222E17C03801F2E0EE
:105880006F0E711CF801A080B18026FF03C0652D4A
:1058900070E002C06FEF7FEFC5012C870E949A2D48
:1058A0002C012C852068222E830123FC1BC0832D14
:1058B00090E048165906B0F4B70180E290E00E94EB
:1058C000B02D3A94F4CFF50127FC859127FE819104
:1058D0005F01B70190E00E94B02D31103A94F1E0E1
:1058E0004F1A51084114510471F7E5C0843611F084
:1058F000893639F5F80127FF07C0608171818281FF
:1059000093810C5F1F4F08C060817181882777FDEC
:105910008095982F0E5F1F4F2F76B22E97FF09C0EC
:1059200090958095709561957F4F8F4F9F4F206820
:10593000B22E2AE030E0A4010E94E22DA82EA81881
:1059400044C0853729F42F7EB22E2AE030E025C0EE
:10595000F22FF97FBF2E8F36C1F018F4883579F019
:10596000B4C0803719F0883721F0AFC02F2F2061E5
:10597000B22EB4FE0DC08B2D8460B82E09C024FF5A
:105980000AC09F2F9660B92E06C028E030E005C0FF
:1059900020E130E002C020E132E0F801B7FE07C0AC
:1059A00060817181828193810C5F1F4F06C060818D
:1059B000718180E090E00E5F1F4FA4010E94E22DF4
:1059C000A82EA818FB2DFF77BF2EB6FE0BC02B2DDF
:1059D0002E7FA51450F4B4FE0AC0B2FC08C02B2DD3
:1059E0002E7E05C07A2C2B2D03C07A2C01C0752C7D
:1059F00024FF0DC0FE01EA0DF11D8081803311F4FA
:105A0000297E09C022FF06C07394739404C0822FBC
:105A1000867809F0739423FD13C020FF06C05A2C2A
:105A2000731418F4530C5718732C731468F4B701DB
:105A300080E290E02C870E94B02D73942C85F5CFE6
:105A4000731410F4371801C0312C24FF12C0B701B1
:105A500080E390E02C870E94B02D2C8522FF17C098
:105A600021FF03C088E590E002C088E790E0B7011D
:105A70000CC0822F867859F021FD02C080E201C05F
:105A80008BE227FD8DE2B70190E00E94B02DA514B6
:105A900038F4B70180E390E00E94B02D5A94F7CF1C
:105AA000AA94F401EA0DF11D8081B70190E00E94F3
:105AB000B02DA110F5CF332009F451CEB70180E20B
:105AC00090E00E94B02D3A94F6CFF701868197813D
:105AD00002C08FEF9FEF2C960FB6F894DEBF0FBE7B
