:100000000C9476020C94A5020C94A5020C94A50203
:100010000C94A5020C94A5020C94A5020C94A502C4
:100020000C94A5020C94A5020C94A5020C94A502B4
:100030000C94A5020C94A5020C94A5020C94A502A4
:100040000C94A5020C94082E0C94A5020C94A50205
:100050000C94A5020C94A5020C94A5020C94D6381D
:100060000C94A5020C94313D0C94673D0C94A502B0
:100070000C94A5020C94A5020C94A5020C94A50264
:100080000C94362E0C94A5020C94A5020C94A50297
:100090000C94A5020C94A5020C94A5020C94BB34FC
:1000A0000C94A5020C94A5020C94642E0C94A50249
:1000B0000C94A5020C94A5020C94A5020C94922E0B
:1000C0000C94A5020C94A5020C94A5020C94A50214
:1000D0000C94A5020C94A5020C94A5020C94A50204
:1000E0000C94A5028F26932697269B269F26A3264F
:1000F000A726AB26AF26B126B626B826BD26BF2634
:10010000C426C82695369C367036723674367636D6
:1001100078367A36803682367C367E36803682363F
:10012000953684362F3A343A393A433A4D3AC63AFC
:10013000573A5F3A673A713A7B3A853A943A9E3A2F
:10014000C63AA83AB23ABC3AE83AEB3ADA3ADE3A78
:10015000E43A223BEF3AF33AF93AFD3A013B073BE6
:100160000B3B0F3B223B153B193B1D3B474F20549C
:100170004F2056494354494D00545057204C454652
:10018000540054505720524947485400524F54414C
:100190005445204C45465400524F5441544520523A
:1001A00049474854004572726F723A20476F546F46
:1001B0004C6F636174696F6E2072657475726E65E1
:1001C0006420736F6D657468696E67206E6F74204C
:1001D000657870656374656420666F722074686901
:1001E0007320746573742072756E2E000953746FDA
:1001F000726564203D20007363616C6546616374C1
:100200006F725A203D20000953746F726564203D5F
:1002100020007369676D615A203D20000953746F97
:10022000726564203D2000426961735A203D2000C0
:100230005072696E74696E672063616C63756C617E
:1002400074656420616E642073746F7265642076D7
:10025000616C7565732E2E2E005363616C652046AC
:100260006163746F72203D20004D617820416E679C
:100270006C65203D2000446F6E652100526F7461F3
:100280007465206261636B20746F20737461727493
:10029000696E6720706F736974696F6E2E005A3DC6
:1002A00020005369676D613A005A3D200041766530
:1002B0007261676520426961733A00476574426CF8
:1002C0006F636B28292072657475726E65642042B5
:1002D00041445F424C4F434B2E0052696768742083
:1002E0004D6F746F722063757272656E743A200080
:1002F0004C656674204D6F746F7220637572726501
:100300006E743A20006D6F746F7220647269766546
:1003100072206661756C74004552524F522D20490F
:100320006E76616C69642070726F6772616D2063B4
:10033000686F6963653A2000095363616C65204604
:100340006163746F723A2000095369676D613A20E6
:1003500000426961733A20004661696C65642074EB
:100360006F206175746F646574656374206779725A
:100370006F2074797065210009546F74616C203DA1
:10038000200009426F74204C696E65203D200009F1
:1003900043656E746572203D20000959203D2000A0
:1003A000536967203D20004552524F522D20496E1F
:1003B00076616C69642070726F6772616D2063682A
:1003C0006F6963653A200000000A0B02090C0D0EEC
:1003D0000807030401000000000000000000000006
:1003E000000000000000000000000000000000000D
:1003F00000000012111000000000000000000000CA
:1004000000000000000000000000000000010210D9
:10041000202008081020401020408002010201081E
:1004200004020101020408102040808040201008CE
:100430000402018004020180402010080402010827
:100440000402010102040810204080010204081087
:100450002040800505050507050808080802020276
:10046000020A0A080804040404010101010101014F
:10047000010303030303030303040707070C0C0C26
:100480000C0C0C0C0C0202020206060606060606FE
:10049000060B0B0B0B0B0B0B0B0000200023002695
:1004A0000029002C002F003200000100000301068B
:1004B00001090100002200250028002B002E003138
:1004C00000340002010000050108010B01000021B9
:1004D00000240027002A002D003000330001010015
:1004E00000040107010A0100D9339B3D11241FBEFE
:1004F000CFEFD1E2DEBFCDBF14E0A0E0B2E0E2EE8C
:10050000F1E900E00BBF02C007900D92A631B107E0
:10051000D9F726E0A6E1B4E001C01D92A736B207E4
:10052000E1F714E0CCEED4E000E006C02297010928
:10053000FE010BBF0E94BF43C83ED10780E0080701
:10054000A9F70E94E23D0C94EF480C940000FC01D6
:1005500011821082138212821582148281E08087B8
:1005600008950F931F93CF93DF93EC0108811981B6
:100570008A819B810817190739F0F80181919191BF
:100580008F010E94F33DF4CF888199812C813D81B8
:10059000281B390B35952795232B31F0DF91CF910F
:1005A0001F910F910C946A44DF91CF911F910F918D
:1005B0000895FC0181E046815781228133814217F1
:1005C000530709F080E00895FC01268137812E5FF2
:1005D0003F4F378326830895DC011696ED91FC91F9
:1005E0001797808191810895CF93DF93EB01BC0130
:1005F00082E090E00E94EC3528813981FC01318352
:100600002083DF91CF910895CF93DF93EC01CE014A
:100610000E94D243009761F4E0911604F091170410
:10062000309721F480E090E00E94EF480995EFCFE9
:10063000DF91CF9108950F931F93CF93DF93EB0139
:100640008A01C81BD90BCE7FAE01BC01C8010E9434
:10065000F045C8018C0F9D1FDF91CF911F910F9125
:1006600008958F929F92AF92BF92CF92DF92EF92B6
:10067000FF920F931F93CF93DF9300D0CDB7DEB7D8
:100680008C017A836983FC01E280F3808481958107
:10069000E816F90669F0BE016F5F7F4FC7010E943F
:1006A000F402F801828193810296938382834FC082
:1006B000F801808191816701C81AD90AD594C7943D
:1006C000C114D10439F0FAE0CF0ED11CC114D10409
:1006D00021F40AC0CC24C394D12CC601880F991FE1
:1006E0000E9404035C0104C0C12CD12CA12CB12CAC
:1006F000A501B701F801808191810E941B034C0183
:10070000BE016F5F7F4F0E94F402A4014E5F5F4FF6
:10071000F80162817381C7010E941B037C01F8010B
:100720008081918124813581281B390B359527954E
:10073000232B11F00E946A44F801B182A082F38257
:10074000E282CC0CDD1CCA0CDB1CD582C482F80111
:100750008085882329F01086808191819783868304
:100760000F900F90DF91CF911F910F91FF90EF901D
:10077000DF90CF90BF90AF909F908F900895AF92F1
:10078000BF92CF92DF92EF92FF920F931F93CF937E
:10079000DF9300D0CDB7DEB75C018B016817790716
:1007A00009F47CC0DB0112966D917C911397ED905A
:1007B000FC90FB01EE19FF09F595E795DC014D91E1
:1007C0005C91119714968D919C911597841B950BB4
:1007D000959587956F01CC0CDD1C8E179F0748F50A
:1007E000EF2B49F0C60169837A830E9404038C01D0
:1007F00069817A8102C000E010E0A801C7010E946F
:100800001B03F5018081918124813581281B390BDF
:1008100035952795232B11F00E946A44D501119636
:100820001C930E930C0D1D1D15961C930E9314977F
:100830002BC0D50112962D913C911397241B350B9B
:10084000359527952E173F0710F0C7011BC0B9013A
:10085000660F771F6E0D7F1DC7010E941B03F501F8
:1008600042815381D80112966D917C9113978081BA
:100870009181FA01E81BF90BCF018E7F2D913C91FC
:10088000820F931F0E941B03D5018D919C9111979C
:100890008C0D9D1D13969C938E931297C5010F90FE
:1008A0000F90DF91CF911F910F91FF90EF90DF900C
:1008B000CF90BF90AF900895CF93DF93EC01861750
:1008C000970751F0FB0180858887868197819F83F8
:1008D0008E83CE010E94BF03CE01DF91CF91089598
:1008E0008F929F92AF92BF92CF92DF92EF92FF9240
:1008F0000F931F93CF93DF93CDB7DEB7C054D109C9
:100900000FB6F894DEBF0FBECDBF6C0182FB22276D
:1009100020F930E0220F331F81FB442740F950E0DB
:10092000240F351F220F331F81709927280F391F7D
:100930002115310541F4C3FE03C068E971E0D6C05A
:100940006CE871E0D3C02130310541F4C3FE03C02F
:1009500062E871E0CBC069E771E0C8C022303105C0
:1009600009F0BFC068E972E0CE0101960E9402461C
:100970007601EF2CFF24E694E69422E0E222FF24A5
:10098000C601892F99278695869581709927E80E4B
:10099000F91EEE0CFF1CC601892F992786958170E0
:1009A0009927E80EF91E0D2D112701701127000F50
:1009B000111FC7FA882480F8912C080D191D000F0B
:1009C000111FC6FAAA24A0F8B12C0A0D1B1DC3FEE4
:1009D00008C060EA72E0CE0108960E9402468CE0F0
:1009E00007C066EA72E0CE0108960E9402468BE0DC
:1009F000C82ED12C6BEA72E081E090E08C0F9D1F35
:100A00008C0D9D1D0E940246C6010A960115110516
:100A100019F466EB72E023C00130110561F46CEB50
:100A200072E021E030E02C0F3D1F820F931F0E94E7
:100A300002468EE01DC00430110561F461EC72E0E5
:100A400021E030E02C0F3D1F820F931F0E940246D1
:100A500080E10EC00230110561F468EC72E021E023
:100A600030E02C0F3D1F820F931F0E9402468FE043
:100A70008C0DC82ED12C6EEC72E081E090E08C0FD2
:100A80009D1F8C0D9D1D0E940246C6010696E11415
:100A9000F10419F465ED72E014C031E0E316F104DD
:100AA00019F46AED72E00DC034E0E316F10419F4B4
:100AB0006EED72E006C032E0E316F10451F464EE2C
:100AC00072E021E030E02C0F3D1F820F931F0E9447
:100AD0000246BE016F5F7F4F86EC95E00E94583E54
:100AE00009C02330310531F46CE671E086EC95E005
:100AF0000E94653EC05CDF4F0FB6F894DEBF0FBEAC
:100B0000CDBFDF91CF911F910F91FF90EF90DF90BC
:100B1000CF90BF90AF909F908F900895833019F43D
:100B200080E090E0089588E090E00895833019F423
:100B300081E090E0089589E090E00895DF92EF92DF
:100B4000FF920F931F93CF93DF9300D0CDB7DEB703
:100B50007C01162FD42E2E96EEADFFAD2E97EF3FD3
:100B60008FEFF80721F4C7010E94003101C08E2FDA
:100B700000E02D2D412F682FCE0101960E94D2302A
:100B80004D2D612FCE010C960E94AA31882329F0A9
:100B900061E0CE0101960E94C73081E0F7014081FB
:100BA000518129813A814217530709F080E00F9063
:100BB0000F90DF91CF911F910F91FF90EF90DF90F9
:100BC00008950F931F93CF93DF93EC018B010E9445
:100BD0006930F801828193819B838A8384818C832D
:100BE000CE01DF91CF911F910F910895BF92CF92C7
:100BF000DF92EF92FF920F931F93CF93DF9300D07A
:100C000000D01F92CDB7DEB77C01DC0114962D9188
:100C10003C911597862F992787FD909512960D90F8
:100C2000BC91A02D442321F0D62EF901C08003C031
:100C3000DC90C62ED9012C91821B910997FF03C02D
:100C4000919581959109B82E4C2D6D2DF7018085D8
:100C500091850E94B731182F811102C011E09EC00A
:100C60001B1484F4D7011E96ED91FC911F972081EF
:100C70004C2D6D2D18968D919C9119970E948C3159
:100C80008111ECCFD7011696ED91FC911797208139
:100C90004C2D6D2D18968D919C9119970E948C3139
:100CA000811178C0BB2009F478C0D7011696ED9168
:100CB000FC9117978081813091F028F08230E1F02B
:100CC000833039F16AC0B6E0BC150CF466C0D701B8
:100CD0001E96ED91FC911F97208141E017C0B6E070
:100CE000BD150CF45AC0D7011E96ED91FC911F97CB
:100CF00020814C2D61E018C01C140CF04EC0D701AF
:100D00001E96ED91FC911F9720814FEF4C0D6D2D9C
:100D10000CC01D140CF041C0D7011E96ED91FC9142
:100D20001F9720814C2D6FEF6D0D18968D919C9122
:100D300019970E948C31882381F1D701ED91FC91A4
:100D400000E02C2D4D2D6081CE0101960E94D23005
:100D5000D7011A96ED91FC911B9780810E94960510
:100D60009C838B836B2D772767FD7095872F972F3B
:100D70000E94B7419B01AC010E946B420E948941D5
:100D80006D83BE016F5F7F4FF701848595850E945B
:100D9000E10504C0BB2011F0D0CF10E0812F0F90EF
:100DA0000F900F900F900F90DF91CF911F910F91A7
:100DB000FF90EF90DF90CF90BF900895BF92CF92B9
:100DC000DF92EF92FF920F931F93CF93DF9300D0A8
:100DD00000D01F92CDB7DEB77C01DC0114962D91B7
:100DE0003C911597862F992787FD909512960D9027
:100DF000BC91A02D442321F0D62EF901B08003C070
:100E0000DC90B62ED9012C91821B910997FF03C06B
:100E1000919581959109182F4B2D6D2DF7018085A6
:100E200091850E94B731C82ED70118968D919C915B
:100E300019974B2D6D2DC1102AC00E94AA3188230D
:100E400009F49DC0D701ED91FC9100E02B2D4D2DB3
:100E50006081CE0101960E94D230D7011A96ED91A1
:100E6000FC911B978081833019F422E830E002C0A6
:100E70002AE830E03C832B831F5F1D83BE016F5F38
:100E80007F4FF701848595850E94E10578C00E9417
:100E9000AA31D701ED91FC918823B1F000E02B2D10
:100EA0004D2D6081CE0101960E94D230D7011A9655
:100EB000ED91FC911B978081833019F422E830E09A
:100EC00051C02AE830E04EC020814B2D6D2DD70156
:100ED00018968D919C9119970E948C31D701882387
:100EE000C1F0ED91FC9100E02B2D4D2D6081CE01E4
:100EF00001960E94D230D7011A96ED91FC911B9772
:100F00008081833019F422E030E02CC02AE030E008
:100F100029C01696ED91FC91179720814B2D6D2DD0
:100F200018968D919C9119970E948C3181112AC03D
:100F3000112349F1D701ED91FC9100E02B2D4D2DAE
:100F40006081CE0101960E94D230D7011A96ED91B0
:100F5000FC911B978081833019F422E430E002C0B9
:100F60002AE430E03C832B831F5F1D83BE016F5F4B
:100F70007F4FF701848595850E94E10504C0CC244C
:100F8000C39401C0C12C8C2D0F900F900F900F9027
:100F90000F90DF91CF911F910F91FF90EF90DF9015
:100FA000CF90BF900895CF92DF92EF92FF920F9370
:100FB0001F93CF93DF9300D000D000D0CDB7DEB722
:100FC0007C01142F69010E940031082FC7010E9483
:100FD0001231482FC7014E830E9424314E811330B5
:100FE00039F4002319F06FEF600F05C063E003C010
:100FF00061E0600F63709E012F5F3F4F790195E0C4
:10100000F90111929A95E9F791E09D8300E0282F6C
:10101000C7010E94D230812F0E948E059C838B8352
:10102000B701C6010E94E10581E026960FB6F8944B
:10103000DEBF0FBECDBFDF91CF911F910F91FF900B
:10104000EF90DF90CF9008958F929F92AF92BF92D2
:10105000CF92DF92EF92FF920F931F93CF93DF9384
:1010600000D000D01F92CDB7DEB78C017B016A01A2
:101070000E940031882EC8010E941231A82EC8019A
:101080000E942431982E482F6A2DC7010E94AA3150
:10109000B82E882329F0C8010E943631882311F028
:1010A000B12C17C0CE0101967C0185E0F7011192A9
:1010B0008A95E9F701E0292D4A2D682DC7010E9484
:1010C000D23023E030E03C832B83B701C6010E947D
:1010D000E1058B2D0F900F900F900F900F90DF91E7
:1010E000CF911F910F91FF90EF90DF90CF90BF9025
:1010F000AF909F908F9008950F931F93CF93DF939E
:10110000EC018B010E945F30F801828193819B8307
:101110008A8384818C83DF91CF911F910F910895F1
:10112000CF92DF92EF92FF920F931F93CF93DF93B3
:10113000CDB7DEB76B970FB6F894DEBF0FBECDBF4D
:101140007C016B014B8F89010E9400318A8FC7019E
:101150000E941231898FC7010E942431888F9B8D94
:101160008A8D933031F4882311F0815004C083E0DC
:1011700002C08F5F83708F8B913019F48F5F837003
:1011800005C0882311F0815001C083E08E8BCE0111
:101190004A969A83898301979C838B8301979E83C8
:1011A0008D83019798878F83DA86C98604969C87FA
:1011B0008B871E870D870597988B8F87B8010597BA
:1011C0000E947C088A8D8130A9F030F0823001F1D4
:1011D0008330B1F5F98C32C0F88C87E08F1584F13B
:1011E00040E06F2DCE0101960E94F605811128C0C6
:1011F000F394F3CFF98CE7E0EF1514F141E06F2D94
:10120000CE0101960E94F60581111AC0F394F3CF26
:10121000F88CF7FC15C040E06F2DCE0101960E94BE
:10122000F60581110DC0FA94F4CF41E06F2DCE0187
:1012300001960E94F605811103C0FA94F7FEF5CFDE
:1012400081E0F8014081518129893A894217530789
:1012500009F480E06B960FB6F894DEBF0FBECDBFE9
:10126000DF91CF911F910F91FF90EF90DF90CF9082
:101270000895CF92DF92EF92FF920F931F93CF9337
:10128000DF93CDB7DEB768970FB6F894DEBF0FBE19
:10129000CDBF7C016B01488F89010E9400318F8B8B
:1012A000C7010E9412318E8BC7010E9424318D8BA1
:1012B000988D8F89933031F4882311F0815004C0C8
:1012C00083E002C08F5F83708C8BCE0147969A8338
:1012D000898301979C838B8301979E838D830197DC
:1012E00098878F83DA86C98604969C878B871E87AA
:1012F0000D87B80109970E947C088F898130A9F079
:1013000030F0823001F18330B1F5FE8832C0FD88C3
:1013100087E08F1584F140E06F2DCE0101960E9489
:10132000DE06811128C0F394F3CFFE88E7E0EF15C5
:1013300014F141E06F2DCE0101960E94DE0681116D
:101340001AC0F394F3CFFD88F7FC15C040E06F2D71
:10135000CE0101960E94DE0681110DC0FA94F4CFF1
:1013600041E06F2DCE0101960E94DE06811103C07F
:10137000FA94F7FEF5CF81E0F801408151812F8585
:1013800038894217530709F480E068960FB6F8943D
:10139000DEBF0FBECDBFDF91CF911F910F91FF90A8
:1013A000EF90DF90CF900895EF92FF920F931F93ED
:1013B000CF93DF93CDB7DEB7E82EF62E8A01CA01B0
:1013C0000E9412312E2D30E0281B3109C80112165F
:1013D000130624F40E941231E81A04C00E9412314C
:1013E0008E19E82EC8010E9424312F2D30E0281BD1
:1013F0003109C801121613062CF40E942431F81A80
:101400008F2D03C00E9424318F198E0DDF91CF9153
:101410001F910F91FF90EF900895FC0180819181C1
:1014200024813581281B390B35952795232B11F005
:101430000C946A440895CF93DF93EB01BC0185E0DF
:1014400090E00E94EC35BE01DF91CF910C947C08B6
:10145000CF93DF93EB01BC0182E090E00E94EC357A
:1014600028813981FC0131832083DF91CF91089558
:10147000009721F0880F991F0C94040380E090E0FE
:1014800008956F927F928F929F92AF92BF92CF9268
:10149000DF92EF92FF920F931F93CF93DF93EC01B4
:1014A0006817790709F47AC0FB01A280B380008134
:1014B00011817501E01AF10AF594E7946701E8815A
:1014C000F9818C819D818E1B9F0B959587958E153B
:1014D0009F0538F5C7010E94380A4C013C010A15E6
:1014E0001B0551F0B801C3010E94280A0E5F1F4F6F
:1014F000F2E06F0E711CF3CF888199812C813D81C0
:10150000281B390B35952795232B11F00E946A442F
:1015100099828882CC0CDD1CC80CD91CDD82CC825F
:1015200035C08A809B80C4018E1B9F0B9595879543
:101530008E159F0560F0D8011C141D043CF58D919B
:101540009D918193919381E0C81AD108F5CF880FBE
:10155000991F6801C80ED91E95958795D801181650
:10156000190634F42D913D91219331930197F7CFD2
:10157000CA14DB0459F0B601C4010E94280AE2E053
:10158000CE0ED11CF2E08F0E911CF2CFEE0CFF1CA0
:10159000888199818E0D9F1D9B838A83CE01DF9167
:1015A000CF911F910F91FF90EF90DF90CF90BF9060
:1015B000AF909F908F907F906F900895CF92DF9221
:1015C000EF92FF920F93CF93DF9300D01F92CDB78E
:1015D000DEB76C017A012B8369837A830E94F7302E
:1015E000F601138212821582148217821682698193
:1015F0007A81C6010E946930B701C60102960E9435
:10160000410A2B81F6012087200F21870F900F9030
:101610000F90DF91CF910F91FF90EF90DF90CF90DF
:1016200008950F931F93CF93DF93EC018B010E94DA
:101630006930B8016E5F7F4FCE0102960E94410A69
:10164000F8018085888781858987CE01DF91CF91D8
:101650001F910F910895BF92CF92DF92EF92FF9268
:101660000F931F93CF93DF938C017A016901EB01F4
:101670002197D7FDEB01D595C7959AE0B92EE616CF
:10168000F706A4F02AE0269FC001279F900D1124A1
:10169000B601800F911FDF91CF911F910F91FF90A5
:1016A000EF90DF90CF90BF900C94110BBC9ED001B7
:1016B000BD9EB00D1124A00FB11F19969C911997D2
:1016C000F60181858917F0F6B69EC001B79E900D90
:1016D0001124BD01800F911F0E94110BCE010197B3
:1016E00097FDCE01BE01EC01D595C795C8CFAF924D
:1016F000BF92CF92DF92EF92FF920F931F93CF93FF
:10170000DF93EC016B01FB01E280F380808191812A
:10171000E81AF90AF594E794198218821B821A8252
:101720001D821C82C7010E94380A8C01998388831C
:101730009B838A83EE0CFF1CE80EF91EFD82EC826F
:10174000F601A280B380E080F180EA14FB0451F03E
:10175000B701C8010E94280AF2E0EF0EF11C0E5FEB
:101760001F4FF3CF1B830A83DF91CF911F910F91FE
:10177000FF90EF90DF90CF90BF90AF9008950F93C0
:101780001F93CF93DF93EC018B010E945F30B80170
:101790006E5F7F4FCE0102960E94770BF801808525
:1017A000888781858987DF91CF911F910F91089557
:1017B000CF93DF93EB01BC018AE090E00E94EC350F
:1017C000BE01DF91CF910C94BF0B2F923F924F92AD
:1017D0005F926F927F928F929F92AF92BF92CF92C1
:1017E000DF92EF92FF920F931F93CF93DF93CDB7CA
:1017F000DEB727970FB6F894DEBF0FBECDBF8C01C2
:101800007B014A01FC018281938124813581821709
:101810009307C1F1BC01655071090E941B0AF801D0
:1018200082819381059693838283B401CE010196D0
:101830000E947C08F801828193818C010550110976
:101840000A978E199F092DEC3CEC829F6001839FC3
:10185000D00C929FD00C11241C141D0464F4B80108
:101860006A50710905501109C8010E94E105F1E0B3
:10187000CF1AD108F1CFBE016F5F7F4FC7010E9421
:10188000E10586C0F80120813181821B930B2DEC8C
:101890003CEC829F5001839FB00C929FB00C1124AE
:1018A000A114B10439F0FAE0AF0EB11CA114B104D7
:1018B00021F40EC0AA24A394B12C85E0282F2A9DE0
:1018C000C0012B9D900D11240E9404036C0104C0E3
:1018D000A12CB12CC12CD12CF80120803180260103
:1018E00031016E147F0459F0B301C2010E941B0A3A
:1018F000F5E06F0E711C25E0420E511CF2CFFF8205
:10190000EE822701421853084C0C5D1CB401C20141
:101910000E941B0A85E0480E511CF801628073800A
:101920004201E614F70459F0B701C4010E941B0AF2
:10193000F5E0EF0EF11C25E0820E911CF2CF8E81B6
:101940009F81E81AF90AE40CF51CF8018081918165
:1019500024813581281B390B6DEC7CEC269FA0017E
:10196000279F500D369F500D1124452B11F00E94DA
:101970006A44F801D182C082F382E28225E02A9D86
:10198000C0012B9D900D11248C0D9D1D958384838A
:1019900027960FB6F894DEBF0FBECDBFDF91CF9173
:1019A0001F910F91FF90EF90DF90CF90BF90AF907D
:1019B0009F908F907F906F905F904F903F902F906F
:1019C0000895CF93DF93EC018A819B812C813D8127
:1019D0008217930751F00E941B0A8A819B8105960A
:1019E0009B838A83DF91CF910895AB01BC01CE0127
:1019F000DF91CF910C94E50BEF92FF920F931F9321
:101A0000CF93DF9300D000D01F92CDB7DEB78C010B
:101A10007B01FC01118210821382128215821482D2
:101A2000CE0101960E94F7301C821B82C7010E94E2
:101A30003631811178C0AE014F5F5F4FBE01625FEA
:101A40007F4FC7010E942408882339F0BE016F5FD1
:101A50007F4FC8010E94E10C66C09E012F5F3F4F7F
:101A600041E0BE01625F7F4FC7010E94D307882318
:101A700031F0BE016F5F7F4FC8010E94E10C9E01F3
:101A80002F5F3F4F43E0BE01625F7F4FC7010E945F
:101A9000D307882331F0BE016F5F7F4FC8010E94DA
:101AA000E10C9E012F5F3F4F41E0BE01625F7F4F1F
:101AB000C7010E943909882331F0BE016F5F7F4F53
:101AC000C8010E94E10C9E012F5F3F4F43E0BE0121
:101AD000625F7F4FC7010E943909882331F0BE0140
:101AE0006F5F7F4FC8010E94E10C9E012F5F3F4F47
:101AF00041E0BE01625F7F4FC7010E9490088823CA
:101B000031F0BE016F5F7F4FC8010E94E10C9E0162
:101B10002F5F3F4F43E0BE01625F7F4FC7010E94CE
:101B20009008811193CFC8010F900F900F900F90E4
:101B30000F90DF91CF911F910F91FF90EF9008953B
:101B40004F925F926F927F928F929F92AF92BF92CD
:101B5000CF92DF92EF92FF920F931F93CF93DF9379
:101B6000CDB7DEB72A970FB6F894DEBF0FBECDBF54
:101B70008C017B014A01FC018281938124813581A2
:101B80008217930709F43FC0BC016A5071090E9493
:101B9000D80BF801828193810A9693838283B401E2
:101BA000CE0101960E94BF0BF80122813381890189
:101BB0000A501109245131092E193F0935952795ED
:101BC0008DEC9CEC289F6001299FD00C389FD00C95
:101BD00011241C141D0464F4B801645171090A50E5
:101BE0001109C8010E94110BF1E0CF1AD108F1CF01
:101BF000BE016F5F7F4FC7010E94110BCE0103969C
:101C00000E940D0A88C0F80120813181821B930B4C
:101C1000959587952DEC3CEC829F3001839F700C4D
:101C2000929F700C11246114710439F0FAE06F0E68
:101C3000711C6114710421F40EC066246394712C2C
:101C40008AE0282F269DC001279D900D11240E9417
:101C500004036C0104C0612C712CC12CD12CF8013F
:101C600040805180C6019C01265F3F4F59014E14B0
:101C70005F0441F0B2010E94D80BFAE04F0E511CF4
:101C8000C501F1CFB4010E94D80BF8018280938086
:101C9000E814F90459F0B701C5010E94D80BFAE025
:101CA000EF0EF11C2AE0A20EB11CF2CFF8018280E7
:101CB0009380E080F180E814F90441F0C7010296B6
:101CC0000E940D0AFAE0EF0EF11CF5CFF8018081B9
:101CD000918124813581281B390B359527956DEC31
:101CE0007CEC269FA001279F500D369F500D11249C
:101CF000452B11F00E946A44F801D182C082B38260
:101D0000A2822AE0269DC001279D900D11248C0DF2
:101D10009D1D958384832A960FB6F894DEBF0FBE6F
:101D2000CDBFDF91CF911F910F91FF90EF90DF908A
:101D3000CF90BF90AF909F908F907F906F905F906B
:101D40004F900895EF92FF920F931F93CF93DF93DD
:101D5000CDB7DEB72A970FB6F894DEBF0FBECDBF62
:101D60008C01FC0182819381248135818217930744
:101D700049F00E94D80BF801828193810A969383DF
:101D8000828305C0AB01BC01C8010E94A00DF8010F
:101D9000E280F38000811181B7016A507109CE01A0
:101DA00001960E94BF0B9701201B310B359527959B
:101DB0008DEC9CEC289FB001299F700D389F700D11
:101DC0001124615071099E012F5F3F4F40E050E0A8
:101DD000C8010E942B0BCE0103960E940D0A2A9681
:101DE0000FB6F894DEBF0FBECDBFDF91CF911F912C
:101DF0000F91FF90EF9008952F923F924F925F9234
:101E00006F927F928F929F92AF92BF92CF92DF920A
:101E1000EF92FF920F931F93CF93DF93CDB7DEB76F
:101E2000C455D1090FB6F894DEBF0FBECDBF7C01FB
:101E30002E966FAF2E972F964FAF2F978901C755CC
:101E4000DF4F2881C95AD04062962FAF6297C6559E
:101E5000DF4F3881CA5AD04063963FAF6397CE01B7
:101E6000805C9F4F0E94FF311CAA1BAA1EAA1DAABC
:101E700018AE1FAA1A8219821C821B821E821D8222
:101E8000B801CE010B960E945F3000E020E0AE0169
:101E90004F5F5F4FBE01655F7F4FCE0189960E9405
:101EA000DE0ACE0101960E940D0ABE01675D7F4FDA
:101EB000CE01C3960E94A20E56E4252E312C2C0E84
:101EC0003D1E82E0280E311C6BA97CA98DA99EA91C
:101ED0006817790709F40FC2CE014F960E94BF0B15
:101EE000CBA8DCA80DA91EA90A501109B801CE0182
:101EF00045960E94BF0BB601C8010E94110BBE019E
:101F00006B5E7F4FCE010B960E94BF0B0C191D0913
:101F1000159507958DEC9CEC089F4001099F900C4E
:101F2000189F900C112402E010E0A12CB12C4AE083
:101F3000742E081519053CF5709EF001719EF00D88
:101F40001124EC0DFD1DDF011A97918519968C91D6
:101F5000891710F401501109709EB001719E700D27
:101F600011246C0D7D1D7A9CC0017B9C900D112469
:101F70008C0D9D1D0E94110BC801019658018C010A
:101F8000000F111FD6CF08151905B9F42AE0209FBC
:101F9000B001219F700D11246A5071096C0D7D1DD7
:101FA0002A9DC0012B9D900D11248C0D9D1D0E941A
:101FB000110B580191E0A91AB108BE01655F7F4F6E
:101FC000CE0101960E94BF0B9E012F5F3F4F40E064
:101FD00050E0B501C6010E942B0B8E010D5F1F4F13
:101FE000C8010E940D0ACE010D960E940D0ACE0175
:101FF00047960E940D0A8DA99EA99C012A5031097D
:102000003EAB2DAB08970E940D0ABE01615E7F4F6B
:10201000CE0101960E945F306396EFAD6397EF9318
:102020006296FFAD6297FF932DB73EB720543109FA
:102030000FB6F8943EBF0FBE2DBFADB7BEB7119619
:1020400080E4FE01E759FF4F01900D928A95E1F778
:102050002F964FAD2F972E966FAD2E97CE010196EE
:102060000E949E050FB6F894DEBF0FBECDBFBE0125
:10207000882351F06F5D7F4FC7010E94770BCE011F
:1020800081960E940D0A3EC1615E7F4FCE01805C49
:102090009F4F0E94E132882309F428C1BE01615E8E
:1020A0007F4FCE0101960E945F302DB73EB720547E
:1020B00031090FB6F8943EBF0FBE2DBFADB7BEB706
:1020C000119680E4FE01E759FF4F01900D928A9529
:1020D000E1F7BE016F5F7F4FCE01CA960E94FC0CF4
:1020E0004AAC5BAC8CAD9DAD61969FAF8EAF6197F6
:1020F0000FB6F894DEBF0FBECDBF64960FAF6497E6
:1021000065961FAF659761968EAD9FAD6197481636
:10211000590609F4D8C0B201CE018A5B9F4F0E94D4
:102120007C08BE016F5D7F4FCE0145960E94770B04
:102130000F89188D898D9A8D0817190751F0B101F3
:10214000C8010E94280A8F89988D0296988F8F8BDC
:1021500052C08D899E896801C81AD90AD594C7943E
:10216000C114D10421F0FAE0CF0ED11C03C0CC245D
:10217000C394D12CC6010E94380A4C016D887E8818
:102180005C016016710659F0B301C5010E94280A6E
:1021900022E0620E711C32E0A30EB11CF2CFB1013D
:1021A000C5010E94280A82E0A80EB11C6F88788CB5
:1021B0000615170551F0B801C5010E94280A0E5FE7
:1021C0001F4F92E0A90EB11CF3CF8D899E89298DF6
:1021D0003A8D281B390B35952795232B11F00E943A
:1021E0006A449E8A8D8AB88EAF8ACC0CDD1CC80CDE
:1021F000D91CDA8EC98E8FA12B96CFAC2B97D12C00
:10220000C80ED11CBE016A5B7F4FCE0101960E94B1
:102210005F30EDB7FEB7E054F1090FB6F894FEBF9A
:102220000FBEEDBFADB7BEB71196FE01E759FF4F28
:1022300080E401900D928A95E1F7AE014F5F5F4F08
:102240002F966FAD2F972E968FAD2E970E94D409A3
:10225000082F0FB6F894DEBF0FBECDBFBE016B5E78
:102260007F4FCE010B960E94770BBE016A5B7F4FBA
:10227000CE01855B9F4F0E945F302C2DAE01455FE4
:102280005F4FBE01655B7F4FCE0101960E94DE0A63
:10229000CE010B960E940D0ABE016F5F7F4FCE01EB
:1022A000C3960E94A20E64968FAD649765969FAD0B
:1022B00065970E940D0ACE0145960E940D0A35E0F1
:1022C000430E511C20CF8AAD9BAD2EAD3FAD281BD8
:1022D000390B6DEC7CEC269FA001279F500D369F9B
:1022E000500D1124452B11F00E946A44CE018196B5
:1022F0000E940D0AE9CDF701118210821382128229
:1023000015821482CE018B960E940D0ACDA8DEA8FC
:102310000BA91CA90C151D0539F0C80102960E94D5
:102320000D0A065F1F4FF6CF8BA99CA92FA938ADC8
:10233000281B390B359527956DEC7CEC269FA00169
:10234000279F500D369F500D1124452B11F00E94F0
:102350006A4422968EAD9FAD229726962EAD3FAD54
:102360002697281B390B35952795232B11F00E94B2
:102370006A44C701CC5ADF4F0FB6F894DEBF0FBED8
:10238000CDBFDF91CF911F910F91FF90EF90DF9024
:10239000CF90BF90AF909F908F907F906F905F9005
:1023A0004F903F902F900895CF93DF93EC01E881F9
:1023B000F981E65BFF4F808191810E94651C8881D5
:1023C0009981FC01E55AFF4F1082319621E020836C
:1023D000359611821082DF91CF91089588E194E0C3
:1023E0000C94B1022F923F924F925F926F927F9224
:1023F0008F929F92AF92BF92CF92DF92EF92FF9215
:102400000F931F93CF93DF93CDB7DEB72D970FB602
:10241000F894DEBF0FBECDBF4C015B017A010E9474
:10242000A702F7010280F381E02DFD87EC87F70119
:10243000208031803501F2E06F0E711C4C855D8586
:102440002416350609F4CFC0F101E190F1901F0187
:10245000E2FACC24C0F8D12CCC0CDD1CE1FAFF2729
:10246000F0F9FE831F824E815F81C40ED51ECC0C15
:10247000DD1CC70181709927C80ED91EE3FE02C07A
:1024800011E001C013E0CE0101960E94F7301C82DA
:102490001B82C114D104B9F49E012F5F3F4F412F1D
:1024A000B301C5010E94D307882341F287E090E081
:1024B0000E94F13D7C01212FAE014F5F5F4FB501BE
:1024C0000E9442188BC051E0C516D104C1F49E0190
:1024D0002F5F3F4F412FB301C5010E949008882311
:1024E00009F4ACCF87E090E00E94F13D7C01212F00
:1024F000AE014F5F5F4FB5010E941E186FC082E0B2
:10250000C816D10409F050C09E012F5F3F4F412FE4
:10251000B301C5010E943909882309F48FCF89E0EE
:1025200090E00E94F13D2C019701232F332726953F
:10253000269522703327C701892F9927869586957E
:1025400081709927280F391F220F331FC701892F48
:102550009927869581709927280F391F8F2D9927E4
:1025600081709927880F991FE7FAEE27E0F9E8872D
:10257000198648855985840F951F880F991FE6FA9B
:10258000552750F95A871B86EA85FB858E0F9F1FBA
:10259000E22E082F212FAE014F5F5F4FB501C20120
:1025A0000E940018B2011BC0F3E0CF16D10409F05D
:1025B00045CFAE014F5F5F4FB301C5010E942408B4
:1025C000882309F43BCF86E090E00E94F13D7C0136
:1025D000AE014F5F5F4FB5010E943618B701C401CD
:1025E0000E9431032BCFC4012D960FB6F894DEBFA5
:1025F0000FBECDBFDF91CF911F910F91FF90EF9054
:10260000DF90CF90BF90AF909F908F907F906F9012
:102610005F904F903F902F9008958F929F92AF922E
:10262000BF92CF92DF92EF92FF920F931F93CF93BF
:10263000DF93CDB7DEB7C854D1090FB6F894DEBF2B
:102640000FBECDBF7C016E0181E4C80ED11CD60146
:102650000C9323961FAF239724962FAF249725968C
:102660003FAF259726964FAF269727965FAF2797C0
:1026700028966FAF289729967FAF2997C7010E94A8
:10268000F7305701B2E0AB0EB11CC5010E943A31E0
:10269000F701E25BFF4F6B968CAD9DADAEADBFAD6C
:1026A0006B9780839183A283B38334966F968CADAE
:1026B0009DADAEADBFAD6F9780839183A283B38391
:1026C0003496A3964CAD5DAD6EAD7FADA3974083C0
:1026D0005183628373833496A4968FADA4978083CD
:1026E0007497D6018D919C91918380833296259623
:1026F0008EAD9FAD259791838083329627968EADC0
:102700009FAD279791838083329629968EAD9FAD9A
:102710002997918380833F961082319681E0808350
:102720003196108211821282138279971082329729
:102730001082319610823296108200E0A7962FAD5B
:10274000A797A6964FADA697A5966FADA597FE0144
:1027500031964F01CF010E94D230B401C7010E94CF
:102760006930BE0169597F4FC4010E945E31982DC6
:10277000892DE92FF82FCF010896D50121912D93AE
:10278000E817F907D9F788E0A80EB11CEC15FD058C
:1027900019F09E2F8F2FEDCFC85BDF4F0FB6F89447
:1027A000DEBF0FBECDBFDF91CF911F910F91FF9084
:1027B000EF90DF90CF90BF90AF909F908F90089553
:1027C0002F923F924F925F926F927F928F929F9241
:1027D000AF92BF92CF92DF92EF92FF920F931F932F
:1027E000CF93DF93CDB7DEB72F970FB6F894DEBF48
:1027F0000FBECDBF4C016F87142F9C01285B3F4F4C
:102800007901633061F460E070E0F90180819181C9
:102810000E94622A2B013C0162E070E00BC061E083
:1028200070E0F901808191810E94622A2B013C01B4
:1028300063E070E0F701808191810E94622A6B0160
:102840007C019E868D86F12FF4703F2E12FF12C000
:10285000F401EA5BFF4F808191810E94CC28F40152
:10286000EA5AFF4F20813181428153810E941841F1
:1028700087FD6AC0212F2170322E10FF34C0540111
:102880003BE5A30EB11CF501808181111BC03D9772
:102890002081318142815381C301B2010E9467428C
:1028A000181684F4F5013082319630827097808159
:1028B00091810E947729F401E35AFF4F608371836D
:1028C00082839383F5018081882369F0F401E25BC0
:1028D000FF4F2081318142815381C701B6010E949F
:1028E000674218168CF1F12FF2703F2E11FF33C0A2
:1028F000540126E4A20EB11CF50160817181CE0164
:1029000001960E94D82BC980DA80EB80FC800D8173
:102910001E812F81388549855A856B857C85F50117
:10292000808191810E94BC27F401EF59FF4F8823D9
:1029300081F08081918101969183808337972081F6
:1029400030E0821793073CF0CE010D960E94D4111F
:102950005FC0118210828401045A1F4FF8018081E8
:102960009401265B3F4F1901882339F0F9018081DA
:1029700091810E94321BF8011082F401E55AFF4F49
:102980008081882371F03296408151816281738108
:1029900000E010E09801F101808191810E94301DDA
:1029A00036C0F401EE5AFF4F2F852130A1F440814B
:1029B0005181628173811F921F921F921F92812CFD
:1029C000912C5401C12CD12C90E8E92E9FE3F92ED3
:1029D0009301820113C000811181228133811F92F2
:1029E0001F921F921F92812C912C5401C12CD12C2B
:1029F00080E8E82E8FE3F82EB301A201F101808177
:102A000091810E94461B0F900F900F900F90312CD8
:102A1000832D2F960FB6F894DEBF0FBECDBFDF918A
:102A2000CF911F910F91FF90EF90DF90CF90BF90CB
:102A3000AF909F908F907F906F905F904F903F905E
:102A40002F9008952F923F924F925F926F927F92B4
:102A50008F929F92AF92BF92CF92DF92EF92FF92AE
:102A60000F931F93CF93DF93CDB7DEB761970FB668
:102A7000F894DEBF0FBECDBF3C011C018CE5280ED3
:102A8000311CF1018081882339F072978081918116
:102A90000E94321BF10110822301F6E44F0E511CFB
:102AA000F20160817181CE0101960E94D82BC9800C
:102AB000DA80EB80FC800D811E812F81388549856D
:102AC0005A856B857C85F201808191810E94BC27AB
:102AD0008D87811102C01D8648C06B817C8180E09A
:102AE00090E00E94B5416E877F87888B998BF201B9
:102AF000808191810E94FA28BC01882777FD80950A
:102B0000982F0E94B741AB01BC011F921F921F92E8
:102B10001F92812C912C5401C12CD12C20E8E22E43
:102B20002FE3F22E0E851F8528893989F301E65B94
:102B3000FF4F808191810E94461BF201808191812B
:102B40000E94EE280F900F900F900F90882319F29B
:102B500061E0F201808191810E94AF28F301EB5B7B
:102B6000FF4F808381E0F10180838D8561960FB6F0
:102B7000F894DEBF0FBECDBFDF91CF911F910F91B3
:102B8000FF90EF90DF90CF90BF90AF909F908F908D
:102B90007F906F905F904F903F902F9008954F924D
:102BA0005F926F927F928F929F92AF92BF92CF92DD
:102BB000DF92EF92FF920F931F93CF93DF93EC017D
:102BC0008C01085B1F4F633061F460E070E0F80136
:102BD000808191810E94622A2B013C0162E070E0B9
:102BE0000BC061E070E0F801808191810E94622A4F
:102BF0002B013C0163E070E0F801808191810E942B
:102C0000622A4B015C018E01045A1F4FF80180813A
:102C1000882361F07097808191810E947729FE015D
:102C2000E35AFF4F60837183828393837E01FBE5C8
:102C3000EF0EF11CF701808181110EC03D972081BC
:102C4000318142815381C301B2010E94184187FF43
:102C500003C081E0F7018083F7017080CE01865BBD
:102C60009F4F6C017720C1F0FE01E25BFF4F208196
:102C7000318142815381C501B4010E94184187FF0F
:102C80000BC0F601808191810E94651CF7011082C2
:102C900081E0F80180831AC0F8018081882339F02F
:102CA000F601808191810E94321BF8011082C35A83
:102CB000DF4F488159816A817B8100E010E09801F3
:102CC000F601808191810E94301D712C872DDF914A
:102CD000CF911F910F91FF90EF90DF90CF90BF9019
:102CE000AF909F908F907F906F905F904F900895DE
:102CF000865B9F4FFC01808191810C946E1CAF928A
:102D0000BF92CF92DF92EF92FF920F931F93CF93D8
:102D1000DF93CDB7DEB766970FB6F894DEBF0FBE70
:102D2000CDBF7C01162F022FD32E8091210481115B
:102D30000DC088E194E04E8B0E94A70281E0809351
:102D400021048EEE91E10E94DE3D4E8980910A02BF
:102D5000882309F49CC0B701CE0101964E8B0E94D6
:102D60005F30DF920F938DB79EB7805491090FB6F5
:102D7000F8949EBF0FBE8DBFADB7BEB7119680E46D
:102D8000F701329601900D928A95E1F79E012F5F2F
:102D90003F4F4E89612FCE0140960E94FC0E2A893A
:102DA0003B8988899989281B390B359527951B867E
:102DB0001A861D861C861F861E860FB6F894DEBFF7
:102DC0000FBECDBF6901CC0CDD1C232B91F0C601D9
:102DD0000E94D2438C01009771F4E0911604F091A7
:102DE0001704309721F480E090E00E94EF480995A5
:102DF000EECF00E010E01B870A871D870C87C00E0E
:102E0000D11EDF86CE86AA88BB88C888D988CA1416
:102E1000DB0479F0B80182E090E00E94EC35F60125
:102E2000219131916F01FC01318320830E5F1F4F8F
:102E3000EECF1D870C87AE01465F5F4FB701CE0115
:102E400001960E94F211BE016F5F7F4F88E194E00E
:102E50000E945C04CE0101960E94B102CE010A9646
:102E60000E940D0A10920A0288E194E00E94D902A1
:102E7000882349F081E080930A02CE0140960E94A7
:102E80000D0A88E024C0CE0140960E940D0A88E118
:102E900094E00E94D902882329F081E080930A02FD
:102EA00080E115C088E194E00E94EC020E94E417E2
:102EB000009761F08031910529F488E194E00E9447
:102EC000E40204C021E020930A0202C080E090E006
:102ED00066960FB6F894DEBF0FBECDBFDF91CF91DF
:102EE0001F910F91FF90EF90DF90CF90BF90AF9028
:102EF0000895CF93DF93EC014F818885482B6E8135
:102F00008C819D810E94E013882351F0988598233D
:102F100019F0282F30E009C09F81982321F406C0C2
:102F200020E030E002C020E130E0C901DF91CF9124
:102F30000895FC016681848195810E94CF158823C4
:102F400019F080E190E0089580E090E00895FC01A0
:102F5000848195810E942215882319F080E190E0F8
:102F6000089580E090E00895FC0166818481958158
:102F70000E947816882319F080E190E0089580E09F
:102F800090E00895CF92DF92EF92FF920F931F93FC
:102F9000CF93DF938C016B017A01EC018DEE92E00F
:102FA00089939993CE010E94F730F801D582C482AB
:102FB000B701CE01DF91CF911F910F91FF90EF905C
:102FC000DF90CF900C9469300F931F93CF93DF93D2
:102FD000EC01E881F9810190F081E02D09958C01E7
:102FE0008031910539F4BE016E5F7F4F8C819D81E8
:102FF0000E946930C801DF91CF911F910F91089510
:10300000CF92DF92EF920F93CF93DF931F92CDB7C2
:10301000DEB76C0129830E94C21783EF92E0F601AC
:1030200091838083298126830783E0860F90DF9137
:10303000CF910F91EF90DF90CF9008950F931F9352
:10304000CF93DF931F92CDB7DEB78C0129830E9407
:10305000C21789EF92E0F80191838083298126834A
:103060000F90DF91CF911F910F910895CF93DF9330
:10307000EC010E94C2178FEF92E099838883DF9161
:10308000CF9108950F931F93CF93DF931F92CDB7E6
:10309000DEB78C0129830E94C21785E093E0F80116
:1030A00091838083298126830F90DF91CF911F9197
:1030B0000F910895FC0183E090E090878783138649
:1030C000128614860895EF92FF921F93CF93DF9399
:1030D0001F92CDB7DEB77C01162FFC0161858FEE04
:1030E00094E049830E94B933612F8FEE94E00E94EF
:1030F00060334981642F8FEE94E00E9460338FEE3D
:1031000094E00E94D633F70186830F90DF91CF9130
:103110001F91FF90EF900895CF93DF93EC018F8183
:103120009885029729F440E069E3CE010E94631874
:1031300040E063E2CE010E9463184FE660E2CE01F8
:10314000DF91CF910C9463189F92AF92BF92CF9270
:10315000DF92EF92FF920F931F93CF93DF93EC01D7
:1031600069858FEE94E00E94B933E091EF04F0910D
:10317000F0040190F081E02D68EA8FEE94E009956B
:103180008FEE94E00E94D63346E069858FEE94E09E
:103190000E94B6330E9420397B018FEE94E00E949A
:1031A0000833069784F48A859B85892BB1F30E94A6
:1031B00020396E197F098A859B858617970768F7DE
:1031C00081E08C872CC08FEE94E00E941033A82EF3
:1031D0008FEE94E00E941033982E8FEE94E00E94C0
:1031E0001033E82E8FEE94E00E941033B82E8FEE4D
:1031F00094E00E941033F82E8FEE94E00E9410337A
:10320000D92CC12CCA28D982C8821B2D00E00E29D6
:103210001B830A83982F88278F299D838C83DF91B6
:10322000CF911F910F91FF90EF90DF90CF90BF90C3
:10323000AF909F9008951F93CF93DF931F92CDB7C8
:10324000DEB7162F8FEE94E049830E94B93349818F
:10325000642F8FEE94E00E9460338FEE94E00E9422
:10326000D633811114C041E0612F8FEE94E00E94AB
:10327000B6338FEE94E00E940833892B41F08FEE35
:1032800094E00F90DF91CF911F910C9410338FEF4A
:103290009FEF0F90DF91CF911F910895EF92FF92D2
:1032A0000F931F93CF93DF937C01EB018A0163306F
:1032B000710521F04230510509F051C0CE0101974E
:1032C000039758F50115110581F04FE050E06BE6CA
:1032D000C7010E941B198F3F2FEF920719F001E0E1
:1032E00010E013C00130110551F04FE050E06AE6E4
:1032F000C7010E941B198F3FEFEF9E0721F4C330D7
:10330000D10569F027C000E010E0C330D10529F4F1
:10331000873D9105F1F5C2E0D0E02097D9F4011581
:10332000110561F04FE050E069E6C7010E941B19EA
:10333000833D910589F10130110549F04FE050E0DE
:1033400068E6C7010E941B19833D910541F1C33016
:10335000D10519F00230110511F480E025C0F70104
:10336000D087C783209759F0D7FD11C023977CF4ED
:103370000130110511F48BE608C08AE606C0013061
:10338000110511F489E601C088E6F701818781E023
:103390000BC0C1E0D0E0C1CF01E010E002C000E00E
:1033A00010E0C0E0D0E0D6CFDF91CF911F910F9118
:1033B000FF90EF900895EF92FF920F931F93CF939A
:1033C000DF93CDB7DEB728970FB6F894DEBF0FBEF8
:1033D000CDBF7C01FC0160837183802F0283138346
:1033E000248335834683578360E00E94233B60E05B
:1033F000F70183810E94233B60E0F70184810E94F2
:10340000233B60E0F70185810E94233B60E0F701E8
:1034100086810E94233B60E0F70187810E94233B65
:1034200061E0F70180810E94233B60E0F701818128
:103430000E94233B61E0F701808128960FB6F89443
:10344000DEBF0FBECDBFDF91CF911F910F91FF90D7
:10345000EF900C945C3B0F931F93CF93DF93EC01A1
:1034600077FF05C071956195710981E001C080E029
:103470008B016F3F710519F014F00FEF10E081110F
:1034800007C0B8018A810E94093A60E070E006C076
:1034900060E070E08A810E94093AB8018B81DF9177
:1034A000CF911F910F910C94093A0F931F93CF93D3
:1034B000DF93EC0177FF05C071956195710981E09B
:1034C00001C080E08B016F3F710519F014F00FEF20
:1034D00010E0811107C0B8018D810E94093A60E0B7
:1034E00070E006C060E070E08D810E94093AB8018A
:1034F0008E81DF91CF911F910F910C94093A0F9318
:103500001F93CF93DF93EC018A010E942B1AB8011D
:10351000CE01DF91CF911F910F910C94551AFC01B0
:1035200084810E94E43929E0AC01249FC001259FD9
:10353000900D11240895FC0187810E94E43929E04F
:10354000AC01249FC001259F900D11240895FC011A
:1035500081810E94923B21E0892B09F020E0822F9B
:1035600008958F929F92AF92BF92CF92DF92EF9287
:10357000FF920F931F93CF93DF93CDB7DEB72A97B8
:103580000FB6F894DEBF0FBECDBF4C01E982FA82C0
:103590000B831C832D833E834F83588769877A87EB
:1035A000FC011482158216821782108611861286FB
:1035B00013861486158616861786108A118A128A33
:1035C000138A148A158A168A178A108E7C01F7E2EC
:1035D000EF0EF11CC7010E94C02E8401065D1F4F33
:1035E000C8010E94C02EF401B182A082D382C2829F
:1035F0008981818F8A81828F6B8170E0C7010E94EF
:103600008B2F6C8170E0C8010E948B2F8D81F4019B
:10361000838F8E81848F8F81858F8885868F898522
:1036200090E0A0E0B0E0878F90A3A1A3B2A38A8529
:1036300090E0A0E0B0E083A394A3A5A3B6A32A964C
:103640000FB6F894DEBF0FBECDBFDF91CF911F91B3
:103650000F91FF90EF90DF90CF90BF90AF909F9031
:103660008F900895CF93DF93EC01198A1A8A1B8AF1
:103670001C8A1D861E861F86188A0E942C3969871F
:103680007A878B879C87DF91CF9108952F923F9205
:103690004F925F926F927F928F929F92AF92BF9262
:1036A000CF92DF92EF92FF920F931F93CF93DF930E
:1036B000CDB7DEB764970FB6F894DEBF0FBECDBFAF
:1036C0001C0149835A836B837C83098B1A8B2B8B58
:1036D0003C8B49A45AA46BA47CA449865A866B8669
:1036E0007C860E942C39D10119962D913D914D91E6
:1036F0005C911C972B013C01421A530A640A750A1B
:103700004D825E826F82788619966D937D938D933C
:103710009C931C97411451046104710409F4A9C0DD
:1037200029893A894B895C8969817A818B819C815D
:103730000E94B34069837A838B839C83C301B20167
:103740000E94B7416D837E838F83988720E034E2A7
:1037500044E759E40E941C419B01AC0169817A81D4
:103760008B819C810E946B42F101218932894389BE
:1037700054890E94B4402B013C01D10151966D93B4
:103780007D938D939C93549729813A814B815C81E1
:10379000C701B6010E946B426B017C01A30192013B
:1037A000C501B4010E946B429B01AC01C701B60187
:1037B0000E94B4404B015C01F101258536854785A7
:1037C000508969817A818B819C810E94B3402B0151
:1037D0003C012D813E814F81588560E074E284E791
:1037E00099E40E941C419B01AC01C301B2010E94FB
:1037F0006B429B01AC0169857A858B859C850E9413
:103800006B429B01AC01C501B4010E94B4400E940F
:10381000844149805A806B807C80D1011D964D92F5
:103820005D926D927C9250975A962C915A9730E007
:10383000A901461B570B620F731F8D919C916496D3
:103840000FB6F894DEBF0FBECDBFDF91CF911F91B1
:103850000F91FF90EF90DF90CF90BF90AF909F902F
:103860008F907F906F905F904F903F902F900C942F
:103870007F1A64960FB6F894DEBF0FBECDBFDF91FE
:10388000CF911F910F91FF90EF90DF90CF90BF905D
:10389000AF909F908F907F906F905F904F903F90F0
:1038A0002F90089570E0FC0180819181413029F4CE
:1038B00044275527461B570B06C022273327261BB4
:1038C000370BAB01B9010C947F1A40E050E060E087
:1038D00070E0FC01808191810C947F1A8F929F92FD
:1038E000AF92BF92CF92DF92EF92FF921F93CF934E
:1038F000DF93EC01162F8A819B810E9477294B016F
:103900005C018C8181113BC0113029F420E030E052
:1039100044EB52E404C020E030E044EB52ECC5013B
:10392000B4010E94B4406B017C0120E030E044EB24
:1039300053E40E94674287FD09C020E030E044EB79
:1039400053E4C701B6010E94B34015C0CD82DE82A8
:10395000EF82F88620E030E0A901C701B6010E949D
:10396000184187FF0CC020E030E044EB53E4C7016E
:10397000B6010E94B4406D837E838F839887A50132
:1039800094016D817E818F8198850E94B3406B0187
:103990007C0120E030E044E353E40E9467421816C3
:1039A0004CF420E030E044EB53E4C701B6010E9440
:1039B000B34012C020E030E044E353ECC701B6014D
:1039C0000E94184187FF0AC020E030E044EB53E436
:1039D000C701B6010E94B4406B017C0120E030E0D9
:1039E000A901C701B6010E94674246015701181696
:1039F00024F0B7FAB094B7F8B094698D70E080E025
:103A000090E00E94B7419B01AC01C501B4010E9446
:103A1000184187FF06C0CE010E94651C1C8281E010
:103A200013C020E030E0A901C701B6010E9467423F
:103A3000181614F441E001C043E06A8DCE010E94E3
:103A4000521C81E08C8380E0DF91CF911F91FF9029
:103A5000EF90DF90CF90BF90AF909F908F900895A0
:103A60008F929F92AF92BF92CF92DF92EF92FF928E
:103A70000F931F93CF93DF93EC014A015B01680121
:103A80007901011511052105310519F18D899E89ED
:103A9000AF89B88D892B8A2B8B2B31F40E942C395E
:103AA0006D8B7E8B8F8B988F0E942C390D891E8990
:103AB0002F89388D601B710B820B930BC616D706AE
:103AC000E806F90630F41D8A1E8A1F8A188E81E0E6
:103AD0004BC08A819B810E9477299B01AC01C50163
:103AE000B4010E94B3406B017C0120E030E044E36C
:103AF00053E40E94674218164CF420E030E044EB97
:103B000053E4C701B6010E94B34012C020E030E088
:103B100044E353ECC701B6010E94184187FF0AC075
:103B200020E030E044EB53E4C701B6010E94B4400A
:103B30006B017C019701860130581F921F921F92E2
:103B40001F92812C912C5401C12CD12C80E8E82E9D
:103B50008FE3F82EB501A401CE010E94461B0F9001
:103B60000F900F900F9080E0DF91CF911F910F91F8
:103B7000FF90EF90DF90CF90BF90AF909F908F908D
:103B80000895CF92DF92EF92FF92CF93DF93EC01F3
:103B90000E942C396B017C014D895E896F89788D7B
:103BA000452B462B472B81F4CD8ADE8AEF8AF88E8F
:103BB0006B8D70E0CE0187960E94C42F6C8D70E0F3
:103BC000CE018A960E94C42F4D895E896F89788DB7
:103BD000C41AD50AE60AF70A4F8D58A169A17AA13D
:103BE0004C155D056E057F0530F41D8A1E8A1F8AFF
:103BF000188E81E001C080E0DF91CF91FF90EF90BF
:103C0000DF90CF900895CF92DF92EF92FF92CF9303
:103C1000DF93EC010E942C396B017C014D895E8998
:103C20006F89788D452B462B472B81F4CD8ADE8A10
:103C3000EF8AF88E6D8D70E0CE0187960E94C42FBA
:103C40006E8D70E0CE018A960E94C42F4D895E89E8
:103C50006F89788DC41AD50AE60AF70A4BA15CA1D0
:103C60006DA17EA14C155D056E057F0530F41D8AA2
:103C70001E8A1F8A188E81E001C080E0DF91CF91FB
:103C8000FF90EF90DF90CF900895DC01ED91FC91D3
:103C900082819381FC01EB5BFF4F2081213029F46D
:103CA0002FEF3FEF41E060E004C02FEF3FEF40E037
:103CB00067E00E947F16892B11F480E0089581E06F
:103CC0000895FF920F931F93CF93DF93EC018B0125
:103CD000F42EE881F981848595850E94A71A8823AE
:103CE00039F065E073E086EC95E00E94653EFFCF19
:103CF000EC81FD81B80184859585FF2019F00E9433
:103D00002B1A02C00E94551AC80117FF03C09195D3
:103D10008195910962E370E00E945943892B39F53E
:103D2000FF2069F060EF72E086EC95E00E94333E80
:103D3000EA81FB81848595850E948F1A0CC06AED0B
:103D400072E086EC95E00E94333EEA81FB81848537
:103D500095850E949B1A4AE050E0BC0186EC95E0F4
:103D6000DF91CF911F910F91FF900C94563FDF91FF
:103D7000CF911F910F91FF9008956F927F928F9234
:103D80009F92AF92BF92CF92DF92EF92FF920F93EA
:103D90001F93CF93DF93CDB7DEB72C970FB6F89470
:103DA000DEBF0FBECDBF3C01842F89829A82AB82D9
:103DB000BC82CD82DE82EF82F88609871A872B8744
:103DC0003C8729813A81F301338322832B813C8113
:103DD000358324832D813E81378326832F81388547
:103DE0003187208729853A85338722872B853C8533
:103DF000358724874083668762E00E94233BF30176
:103E000011822C960FB6F894DEBF0FBECDBFDF91A6
:103E1000CF911F910F91FF90EF90DF90CF90BF90C7
:103E2000AF909F908F907F906F900895EF92FF9248
:103E30000F931F93CF93DF9300D000D0CDB7DEB7A1
:103E40007C019C838B83DC0112968D919C9113974E
:103E5000FC01ED5BFF4F0081023009F4A0C028F4A3
:103E6000002351F0013031F178C1033009F4F8C07A
:103E7000043009F468C171C1FC01EE5BFF4F208181
:103E800032961081211136C1111105C02FEF3FEF7D
:103E900041E067E002C1F701828593850E94C11D60
:103EA000882309F45AC1D70112968D919C911397DA
:103EB00041E0D4C020910D02FC01EC5BFF4F2223B6
:103EC00059F11081111105C023E030E043E063E0B7
:103ED00030C0F701848195810E94C92C882341F06C
:103EE000813009F03AC1F7018281938162E006C016
:103EF000D70112968D919C91139760E002960E94D3
:103F0000DB31D7011296ED91FC911397EC5BFF4FDB
:103F1000108210920D0221C1DC01AE5BBF4F2C91CB
:103F2000108121112AC011110CC02FEF3FEF42E088
:103F300060E00E947F16009709F410C1409731F1AC
:103F40000AC1F701828593850E94C11D882309F467
:103F500004C1D70112968D919C91139742E060E0C5
:103F600002960E94F231F70182819381FC01EC5BA1
:103F7000FF4F108232970083F0C01111CDC0CE01E7
:103F800003960E94451E882309F4E7C0D7011296C4
:103F9000ED91FC911397EC5BFF4F0083DFC0FC01B8
:103FA000EE5BFF4F2081329610812111A3C01111C9
:103FB00040C020915004222329F02FEF3FEF47E02B
:103FC00065E004C02FEF3FEF45E067E00E947F16F9
:103FD00082FF1DC000E027E047E060E0CE010196CF
:103FE0000E94D230BE016F5F7F4FF70182819381C3
:103FF0000E946930D70112968D919C91139760E0D1
:1040000002960E94C43181E080935004A7C00097BB
:1040100009F4A4C0409709F09EC08091500481111A
:1040200071C0F7018281938162E002960E94C431DF
:1040300069C0F701828593850E94C11D882309F418
:104040008CC020915004D70112968D919C911397AA
:10405000222319F047E065E03BC045E067E038C047
:10406000FC01EE5BFF4F2081211140C043E060E086
:1040700002960E94AA31082FF70182819381FC01E8
:10408000EC5BFF4F1081111110C02FEF3FEF0023A9
:1040900011F043E001C045E060E00E947F16009708
:1040A00009F45CC0409771F156C0F7018285938591
:1040B0000E94C11D882309F450C0D70112968D912A
:1040C0009C911397002311F043E001C045E060E0AC
:1040D00002960E94F231F70182819381FC01EC5B30
:1040E000FF4F1082329721E0208337C0FC01EC5B48
:1040F000FF4F1081111110C0CE0103960E94451E82
:10410000882359F1D7011296ED91FC911397EC5B3E
:10411000FF4F81E0808322C0F701828593850E9452
:10412000031E8823D1F0D70112968D919C9113978D
:10413000FC01EC5BFF4F1082329710823196808138
:104140008F5F80830AC02FEF3FEF40E060E00E9466
:104150007F16409711F411E001C010E0812F0F90FD
:104160000F900F900F90DF91CF911F910F91FF90C3
:10417000EF9008950F931F93CF93DF9300D000D05B
:1041800000D0CDB7DEB79A8389839C838B839E83CF
:104190008D8300E010E041E0B801CE0101960E945D
:1041A000611E6FE070E080E090E00E944F390F5F89
:1041B0001F4F011581E0180771F70FEF10E041E084
:1041C000B801CE0101960E94611E6FE070E080E0B0
:1041D00090E00E944F390150110901158FEF180727
:1041E00071F701E01FEF41E0B801CE0101960E9496
:1041F000611E6FE070E080E090E00E944F390F5F39
:104200001F4F0130110579F700E010E040E0B801E0
:10421000CE0101960E94611E6FE070E080E090E0A8
:104220000E944F390F5F1F4F011581E0180771F78A
:104230000FEF10E040E0B801CE0101960E94611E30
:104240006FE070E080E090E00E944F39015011096A
:1042500001158FEF180771F701E01FEF40E0B8017B
:10426000CE0101960E94611E6FE070E080E090E058
:104270000E944F390F5F1F4F0130110579F780E021
:1042800026960FB6F894DEBF0FBECDBFDF91CF915B
:104290001F910F91089560910C02FC018285938516
:1042A0000E946E1C882329F080914F048F5F8093B9
:1042B0004F0480914F04843059F410924F04809140
:1042C0000C02813011F483E001C081E080930C0284
:1042D00080E008950F931F93CF93DF93EC018091BB
:1042E000510481110FC0888599850E9477296093B8
:1042F0004B0470934C0480934D0490934E0481E0E2
:104300008093510480910B02882331F08A859B852C
:104310000E94321B10920B0240914B0450914C04AE
:1043200060914D0470914E0400E41BE42CE430E0F5
:104330008A859B850E94301D882321F081E080932F
:104340000B0201C080E0DF91CF911F910F91089582
:10435000FC01828193810C942215AF92BF92CF927F
:10436000DF92EF92FF920F931F93CF93DF93CDB71E
:10437000DEB7C259D1090FB6F894DEBF0FBECDBF6C
:104380008C01FC0164817581CE018F579F4F0E9483
:10439000D82BCD57DF4FA881C358D040CC57DF4F23
:1043A000B881C458D040CB57DF4FF880C558D040B3
:1043B000CA57DF4FE880C658D040C957DF4FD88072
:1043C000C758D040C857DF4FC880C858D040C757DB
:1043D000DF4FB880C958D040C657DF4FA880CA58B1
:1043E000D040CF57DF4F28813981C158D040F801E4
:1043F00084819581FC01828D938D2817390739F4CA
:104400006BEB72E086EC95E00E94653E6EC0283052
:10441000310508F44AC080E090E0E0E04CE050E074
:10442000B901042E02C0769567950A94E2F7677089
:1044300011F4EE2351F0EDE8F0E0EC0FFD1FE80F72
:10444000F91F605D60830196E1E0435051094D3FE3
:10445000FFEF5F0729F7AE0143575F4FFA01E80FFF
:10446000F91F1082C457DF4F8881CC58D0408F93FA
:10447000C557DF4F8881CB58D0408F93AF92BF9202
:10448000CF92DF92EF92FF92BF93AF933F932F9320
:104490005F934F9387E093E09F938F93CE010196B4
:1044A0009F938F930E94094614C0AF92BF92CF9200
:1044B000DF92EF92FF92BF93AF933F932F9381E5EB
:1044C00093E09F938F93CE0101969F938F930E94C9
:1044D00009460FB6F894DEBF0FBECDBFBE016F5FB9
:1044E0007F4F86EC95E00E94583E80E0CE56DF4F2D
:1044F0000FB6F894DEBF0FBECDBFDF91CF911F91F5
:104500000F91FF90EF90DF90CF90BF90AF90089504
:104510004F925F926F927F928F929F92AF92BF92D3
:10452000CF92DF92EF92FF920F931F93CF93DF937F
:10453000CDB7DEB769970FB6F894DEBF0FBECDBF1B
:104540007C010E942C392091490430914A04213089
:10455000310509F437C12230310509F4E9C0232BB4
:1045600009F0FAC28090450490904604A090470458
:10457000B090480489288A288B2841F46093450428
:1045800070934604809347049093480480904504B8
:1045900090904604A0904704B0904804DC01CB0101
:1045A00088199909AA09BB09A0904304B090440452
:1045B00088389341A105B10508F05EC085010F5F01
:1045C0001F4F1093440400934304D7011896ED91B4
:1045D000FC91199760857185882777FD8095982FC4
:1045E0000E94B7412B013C0180903F049090400411
:1045F000A0904104B0904204A50194010E94B340F0
:104600006B017C01B80180E090E00E94B5419B0104
:10461000AC01C701B6010E941C419B01AC01C50160
:10462000B4010E94B4409B01AC0160933F047093BD
:1046300040048093410490934204C301B2010E945C
:10464000B3409B01AC01C701B6010E946B429B01C4
:10465000AC0160913B0470913C0480913D049091C9
:104660003E040E94B44060933B0470933C048093EA
:104670003D0490933E0470C2B5016150710980E021
:1046800090E00E94B5419B01AC0160913B047091A8
:104690003C0480913D0490913E040E941C410E9484
:1046A000D242609337047093380480933904909316
:1046B0003A046DEA72E086EC95E00E94653E69EA94
:1046C00072E086EC95E00E94333E40913F045091A9
:1046D0004004609141047091420422E030E086EC95
:1046E00095E00E94594062EA72E086EC95E00E94F3
:1046F000653E6EE972E086EC95E00E94333E4091A3
:104700003704509138046091390470913A0422E0E2
:1047100030E086EC95E00E945940109245041092DA
:104720004604109247041092480482E090E045C08D
:104730006BE773E086EC95E00E94583E22E030E0A3
:1047400040E050E064EB73E486EC95E00E94574053
:1047500064EA73E086EC95E00E94773E63EC73E0D8
:1047600086EC95E00E94773E6CE271E080E090E09C
:104770000E944F3968EC73E086EC95E00E94773E2A
:104780006CE271E080E090E00E944F396DEC73E0E4
:1047900086EC95E00E94773E6CE271E080E090E06C
:1047A0000E944F3962ED73E086EC95E00E94773EFF
:1047B00081E08093360481E090E090934A048093F6
:1047C0004904CAC18090450490904604A0904704D3
:1047D000B090480489288A288B2841F460934504C6
:1047E0007093460480934704909348048090450456
:1047F00090904604A0904704B09048042B013C01DF
:10480000481859086A087B08D7011896ED91FC9161
:10481000199760857185882777FD8095982F0E946C
:10482000B74120913F0430914004409141045091A0
:1048300042040E94B34029E23CE54FE05CE30E9461
:104840006B426B017C01C301B2010E94B5419B0127
:10485000AC01C701B6010E946B4220E034E244E79C
:1048600059E40E941C41209132043091330440915C
:104870003404509135040E94B4404B015C016093B4
:104880003204709333048093340490933504209160
:104890002E0430912F0440913004509131040E9435
:1048A0006742181644F480922E0490922F04A0922E
:1048B0003004B0923104B8EB4B16BBE05B066104E8
:1048C000710408F449C120E030E0A901C701B60134
:1048D0000E94674218165CF42DEC3CEC4CEC5DE356
:1048E000C701B6010E94184187FF36C10BC02DECED
:1048F0003CEC4CEC5DEBC701B6010E946742181618
:104900000CF02AC180912D04811112C06CE772E075
:1049100086EC95E00E94653E109245041092460494
:10492000109247041092480481E080932D0414C132
:1049300020912E0430912F04409130045091310485
:1049400060E070E084EB93E40E941C4129E23CE5C6
:104950004FE05CE30E946B426093290470932A0449
:1049600080932B0490932C0466E772E086EC95E02C
:104970000E94653E69E672E086EC95E00E94333E57
:1049800040912E0450912F046091300470913104B5
:1049900022E030E086EC95E00E94594069E572E043
:1049A00086EC95E00E94333E4091290450912A0400
:1049B00060912B0470912C0422E030E086EC95E0AD
:1049C0000E94594080913F0490914004A09141047D
:1049D000B09142048D879E87AF87B88B8091290460
:1049E00090912A04A0912B04B0912C048D8B9E8B66
:1049F000AF8BB88F8091370490913804A09139041F
:104A0000B0913A04898B9A8BAB8BBC8B6E01EDE035
:104A1000CE0ED11CE12CF12CD6016D916D01C70198
:104A2000698F0E943348698D681719F0C7010E9489
:104A30003B48BFEFEB1AFB0AECE0EE16F10461F71E
:104A40008E010F5F1F4FE12CF12CC7010E943348EC
:104A5000D8018D938D01BFEFEB1AFB0AECE0EE1647
:104A6000F10499F749805A806B807C808D809E800C
:104A7000AF80B884C984DA84EB84FC8460E372E09C
:104A800086EC95E00E94653E67E272E086EC95E078
:104A90000E94333E40913F04509140046091410494
:104AA0007091420422E030E086EC95E00E9457408D
:104AB0006CE172E086EC95E00E94333E22E030E04B
:104AC000B301A20186EC95E00E94594062E172E0D8
:104AD00086EC95E00E94333E4091370450913804B3
:104AE0006091390470913A0422E030E086EC95E060
:104AF0000E94574067E072E086EC95E00E94333EEA
:104B000022E030E0B501A40186EC95E00E94594016
:104B100067EF71E086EC95E00E94333E40912904F6
:104B200050912A0460912B0470912C0422E030E013
:104B300086EC95E00E9457406CEE71E086EC95E0C3
:104B40000E94333E22E030E0B701A60186EC95E0FA
:104B50000E94594081E001C080E069960FB6F89448
:104B6000DEBF0FBECDBFDF91CF911F910F91FF90A0
:104B7000EF90DF90CF90BF90AF909F908F907F90FD
:104B80006F905F904F900895FC01808591850E9401
:104B90007729AB01BC0122E030E086EC95E00E9471
:104BA000594080E0089544E0FC01828193810E9495
:104BB000E01391E0843009F090E0892F089541E0FE
:104BC000FC01828193810E94E01391E0813009F021
:104BD00090E0892F089542E0FC01828193810E9438
:104BE000E01391E0823009F090E0892F08952FEFD3
:104BF0003FEF41E063E0FC01828193810E947F16D8
:104C0000009749F0409749F065EA71E086EC95E03D
:104C10000E94653E02C080E0089581E00895EF9211
:104C2000FF920F931F93CF93DF93CDB7DEB72897F3
:104C30000FB6F894DEBF0FBECDBFFC010281138119
:104C4000B801CE0107960E945F308FEF8F938F934C
:104C50008DB79EB7805491090FB6F8949EBF0FBED2
:104C60008DBFADB7BEB7119680E4F80132960190C2
:104C70000D928A95E1F79E01295F3F4F41E067E081
:104C8000CE0101960E94FC0E09811A81EB80FC8006
:104C90000FB6F894DEBF0FBECDBF0E151F0539F05D
:104CA000F801819191918F010E947004F6CF898162
:104CB0009A812D813E81281B390B35952795232B11
:104CC00011F00E946A4481E028960FB6F894DEBF86
:104CD0000FBECDBFDF91CF911F910F91FF90EF904D
:104CE0000895CF93DF93EC0188810E94923B892B3A
:104CF00009F461C0898181115EC08885998500971A
:104D000011F00E94B4294E8550E0FA013197E0314C
:104D1000F10508F041C0EE58FF4F0C94AE43CE01B0
:104D20000E94161F47C0CE010E94BA2043C0CE0188
:104D30000E944B213FC0CE010E946A213BC0CE01A0
:104D40000E94A82137C0CE010E94AD2133C0CE0100
:104D50000E9488222FC0CE010E94C4252BC063E090
:104D600001C061E0CE010E94D32524C063E001C0F0
:104D700061E0CE010E94DF251DC063E001C061E05B
:104D8000CE010E94EB2516C0CE010E94F72512C06D
:104D9000CE010E940F260EC068E173E086EC95E01C
:104DA0000E94333E4AE050E06E8586EC95E00E941A
:104DB000393F81E089838981DF91CF9108958EBD4C
:104DC00000000DB407FEFDCF8EB508951F93CF935D
:104DD000DF93FC0123A92223A1F085A991E0980F7C
:104DE00095ABDF01A80FB11DA80FB11D53964C91D3
:104DF000539754963C91215023AB903199F415AAC6
:104E000011C080898823F9F0228991E0920F928B5A
:104E1000DF01A20FB11D1C918150808B903129F4CC
:104E2000128A03C0842F932F15C08BE50E94DF26C2
:104E3000282F30E0D22FCC27812F0E94DF269E0121
:104E4000282BC90107C08AE50E94DF26282F30E001
:104E500010E0F0CFDF91CF911F9108950F931F9332
:104E6000CF93DF93CDB7DEB78C018CE0E0E1F2E0C9
:104E7000D8015A9601900D928A95E1F7F80111AE8A
:104E800012AE13AEE45AFF4F108231961082319663
:104E900010823196108233961182108232968EE102
:104EA00090E09183808388E691E00E94D243F801EC
:104EB00090A787A3E458FF4F1082118212821382B9
:104EC0003496118210823296118210827C97118260
:104ED00010823296118210828F81F80186A3E659E2
:104EE000FF4F888599859183808332968A859B853B
:104EF000AC85BD8580839183A283B38334968E85F0
:104F00009F85A889B98980839183A283B3833496CE
:104F10008A899B89AC89BD8980839183A283B3836D
:104F200034964E895F89688D798D40835183628381
:104F300073830E9429308CB58C7F81608CBD8DB5C8
:104F40008E7F8DBDF801EC57FF4F8A8D9B8D91832D
:104F5000808332964C8D5D8D6E8D7F8D4083518325
:104F60006283738388A13496808360E0DF91CF9160
:104F70001F910F910C94233BCF92DF92EF92FF92FF
:104F80000F931F93CF93DF93CDB7DEB72C970FB658
:104F9000F894DEBF0FBECDBFC982DA8229813A8183
:104FA0002150310981E02230310508F080E02C9653
:104FB0000FB6F894DEBF0FBECDBFDF91CF911F912A
:104FC0000F91FF90EF90DF90CF9008953F924F9216
:104FD0005F926F927F928F929F92AF92BF92CF9289
:104FE000DF92EF92FF920F931F93CF93DF93CDB792
:104FF000DEB72C970FB6F894DEBF0FBECDBF4C01C5
:10500000C982DA82EB82FC820D831E8349875A872C
:105010003A2C0D811E817C018CE6E80EF11CF40116
:10502000E659FF4F608171818B819C81681B790BF0
:1050300077FF03C0719561957109882777FD809589
:10504000982F0E94B741F70120813181428153811D
:105050000E946B422B013C01F0E78F0E911C898569
:105060009A8597FD0196BC0175956795600F711F34
:10507000882777FD8095982F0E94B741F401208101
:105080003181428153810E946B424B015C01A3013B
:1050900092010E94B3406B017C01332009F445C0AA
:1050A00060EA73E086EC95E00E94333E69817A8184
:1050B0004AE050E086EC95E00E94503F6AE973E0D8
:1050C00086EC95E00E94333E4AE050E0B80186EC61
:1050D00095E00E94503F6FE873E086EC95E00E94F7
:1050E000333E22E030E0B301A20186EC95E00E945D
:1050F000574062E873E086EC95E00E94333E22E080
:1051000030E0B501A40186EC95E00E94574068E7C5
:1051100073E086EC95E00E94333E22E030E0B70178
:10512000A60186EC95E00E945940C701B6012C9675
:105130000FB6F894DEBF0FBECDBFDF91CF911F91A8
:105140000F91FF90EF90DF90CF90BF90AF909F9026
:105150008F907F906F905F904F903F900895FC01EB
:10516000EA59FF4F2081318137FF02C020E030E053
:10517000662311F011821082FC01E859FF4F8081F3
:1051800091818217930714F082E001C081E06623C9
:1051900011F0118210820895FC0186A10E94E43969
:1051A00083319105B4F0BC01882777FD8095982F55
:1051B0000E94B7412FED3FE443E951E40E94B34020
:1051C0009B01AC016AE979EA86E195E40E941C4101
:1051D000089560E070EC89E794E4089586579F4F46
:1051E000FC0180810E94923B21E0892B09F420E0A0
:1051F000822F089586599F4FFC01808191810895E7
:10520000EF92FF920F931F93CF93DF93EC018C01EA
:105210000C5F1F4FC8010E945A188FEE94E00E9445
:105220009F3342E050E063E070E0C8010E944E19F5
:10523000811107C068E573E086EC95E00E94653E49
:10524000FFCFC8010E948C181D8A1E8A1F8A188EE3
:10525000198A1A8A1B8A1C8A188219821A821B824E
:105260007E0189E1E80EF11C00E010E0C8010E9417
:105270003348F70181937F010F5F1F4F0C301105F9
:10528000A9F761E573E086EC95E00E94333E498D15
:105290005A8D6B8D7C8D22E030E086EC95E00E948B
:1052A000574068E473E086EC95E00E94333E4D8DF4
:1052B0005E8D6F8D78A122E030E086EC95E00E9453
:1052C000574068E373E086EC95E00E94333E49A1C5
:1052D0005AA16BA17CA122E030E086EC95E0DF9141
:1052E000CF911F910F91FF90EF900C945940CF9266
:1052F000DF92EF92FF92FC01208131814281538144
:1053000061897289838994890E94B4406B017C0110
:1053100020E030E044EB53E40E946742181654F456
:1053200020E030E044EB53E4C701B6010E94B340F3
:105330006B017C0120E030E0A901C701B6010E94A9
:10534000184187FF0AC020E030E044EB53E4C70176
:10535000B6010E94B4406B017C01C701B601FF9009
:10536000EF90DF90CF9008954F925F926F927F926F
:105370008F929F92AF92BF92CF92DF92EF92FF9265
:10538000CF93DF93EC0104960E94A4180E942C395D
:10539000CD88DE88EF88F88C2B013C014C185D0825
:1053A0006E087F086D8B7E8B8F8B988F68857985D3
:1053B000882777FD8095982F0E94B741298D3A8DD7
:1053C0004B8D5C8D0E94B3406B017C0120E030E08E
:1053D000A9010E94674246015701181624F0B7FA46
:1053E000B094B7F8B09420E030E040E450E46D8D24
:1053F0007E8D8F8D98A10E946B429B01AC01C501EF
:10540000B4010E94184187FF03C0C12CD12C760142
:10541000C301B2010E94B5419B01AC01C701B601B5
:105420000E946B4220E034E244E759E40E941C41B0
:1054300029A13AA14BA15CA10E946B4229893A891A
:105440004B895C890E94B4406B017C0120E030E014
:10545000A9010E94184120E030E044EB53E487FFAB
:1054600005C0C701B6010E94B44013C0C701B60110
:105470000E94674287FF05C0C98ADA8AEB8AFC8AE4
:105480000CC020E030E044EB53E4C701B6010E94B9
:10549000B340698B7A8B8B8B9C8BDF91CF91FF9084
:1054A000EF90DF90CF90BF90AF909F908F907F90C4
:1054B0006F905F904F900895FC0140835183628309
:1054C00073830895CF92DF92EF92FF92FC016130D7
:1054D000710569F024F4672BC9F480810BC0623038
:1054E000710539F06330710589F4838103C08181CE
:1054F00001C082810E94E439BC01882777FD809534
:10550000982F0E94B7416B017C0103C0C12CD12CA4
:10551000760120E030E048E951E4C701B6010E947D
:10552000184187FD11C02FED3FE443E951E4C70165
:10553000B6010E94B3409B01AC016AE979EA86E1B9
:1055400095E40E941C4104C060E070EC89E794E49B
:10555000FF90EF90DF90CF9008953F924F925F922F
:105560006F927F928F929F92AF92BF92CF92DF9273
:10557000EF92FF920F931F93CF93DF9300D01F9270
:10558000CDB7DEB7AC015B01FC0180AD81114AC033
:10559000EE24EA94FE2C6A01F2E0CF0ED11CC60183
:1055A0004A835B830E94E6268C014A815B810097D7
:1055B00059F4EF2811F07801F2CF8AE090E00E94D0
:1055C000773980E090E0DFC085352AEA920749F418
:1055D00085E5E8168AEAF80671F7FA0112AE11AE0F
:1055E00023C08635FAEA9F0759F425E5E2162AEA30
:1055F000F20609F781E090E0FA0192AF81AF14C0A2
:105600008A3AF5E59F07B9F665ED73E086EC95E01B
:105610004A835B830E94773E80E00E94DF264A81B6
:105620005B81C9CFFA0110AEFA0114AE13AE6A0164
:10563000F2E0CF0ED11C6CE0362E88248394912C9E
:10564000FA0183AD94AD8A159B0508F09CC08238A1
:10565000910508F098C0C6014A835B830E94E62644
:105660008C014A815B81FA0123AD34AD8535FAEABC
:105670009F0731F481E0FA0180AF12AE11AE0BC08A
:105680008635FAEA9F0749F481E0FA0180AF81E0AC
:1056900090E092AF81AFC90176C00097E1F3FA01C3
:1056A00085AD96AD8217930798F44E9696AF85AF69
:1056B000389EB001399E700D1124808191814A83FA
:1056C0005B830E94F9444A815B81FA019183808364
:1056D000FA0123AD34AD329EC001339E900D1124EA
:1056E000E080F180E80EF91E3701412C512C20E0BA
:1056F000FA0181AD92AD892B31F4253021F4F70107
:105700001386128612C0C60129834A835B830E94D6
:10571000E626480E591EF301819391933F0129819A
:105720002F5F4A815B81263019F70415150539F47E
:10573000FA0183AD94AD019694AF83AF0AC06DEDCD
:1057400073E086EC95E04A835B830E94773E5B8141
:105750004A81C6014A835B830E94E6264A815B81B7
:105760008535FAEA9F0721F4FA0112AE11AE68CF2F
:1057700086359A4A21F4FA0192AE81AE61CFFA01E0
:1057800083AD94AD00C00F900F900F90DF91CF913B
:105790001F910F91FF90EF90DF90CF90BF90AF904F
:1057A0009F908F907F906F905F904F903F90089563
:1057B0002F923F924F925F926F927F928F929F9221
:1057C000AF92BF92CF92DF92EF92FF920F931F930F
:1057D000CF93DF93CDB7DEB763970FB6F894DEBFF4
:1057E0000FBECDBF3C014B018CE0FB017A96D3018B
:1057F00001900D928A95E1F78B01095D1F4F68EECC
:1058000073E0C8010E94AD2A2C0168EE73E0C80164
:105810000E94AD2A480E591E1E861D86212C312C51
:1058200020EF2F8733E2388BA4E7BA2E89EC898BDF
:10583000F401E858FF4FFB8BEA8BF4012414350484
:105840000CF065C087A190A52D853E85820F931F22
:10585000FC01DE0111962CE001900D922A95E1F7F2
:10586000FC01E080F18006811781C084D184C701EA
:105870000197029708F041C00C9DB0010D9D700D7D
:105880001C9D700D112480E090E00E94B541EA89D2
:10589000FB8920813181428153810E946742181621
:1058A00064F5FA82E982202F18870F834C2DDA865F
:1058B000C986A12CCE2CDA80EB80FC800D811E8164
:1058C00038855A856B857C85C4010E94E6277B015B
:1058D0008C012F8538894B2D59890E94674287FD9D
:1058E0000CC0FE013196D3018CE001900D928A9597
:1058F000E1F7EF86F88AB02E198BFFEF2F1A3F0AD7
:105900002D853E85245F3F4F3E872D8796CFEC58EF
:10591000FF4F20813181428153816F8578898B2DA2
:1059200099890E946742181694F4F301808191814D
:105930000197880F991F880D991DFC01EA59FF4FA7
:10594000208131812F5F3F4F3183208308C08CE05D
:10595000F4017A96D30101900D928A95E1F7C30183
:1059600063960FB6F894DEBF0FBECDBFDF91CF9127
:105970001F910F91FF90EF90DF90CF90BF90AF906D
:105980009F908F907F906F905F904F903F902F905F
:105990000895CF92DF92EF92FF920F931F93CF93D0
:1059A000DF93CDB7DEB72C970FB6F894DEBF0FBEEE
:1059B000CDBF8C010E942C39F801E458FF4FC08004
:1059C000D180E280F380CD28CE28CF2821F46083D7
:1059D000718382839383C080D180E280F3809B01B6
:1059E000AC012C193D094E095F0969017A01980142
:1059F0002A573F4FD9014D915D916D917C914C1586
:105A00005D056E057F05F0F410821182128213820B
:105A100026503109F801EE57FF4FD9018D919C9125
:105A2000608171810E944543D9011D921C921182AF
:105A30001082329681E02081318162177307C0F4B1
:105A400080E016C0B801CE0101960E94D82B898152
:105A50009A810197F801029718F4E058FF4F02C0AD
:105A6000EE57FF4F8081918101969183808382E080
:105A70002C960FB6F894DEBF0FBECDBFDF91CF914D
:105A80001F910F91FF90EF90DF90CF900895CF92EC
:105A9000DF92EF92FF920F931F93CF93DF936C01EE
:105AA0008B017A01EC01C65ADB4F888187FF04C065
:105AB000FB011182108223C02CE02C9DC0012D9D82
:105AC000900D11242881AC01420F511D27FD5A95DC
:105AD0002091590430E0421753078CF42881AC011F
