:100000000C9432020C9423200C9454200C948520E0
:100010000C94B6200C94E7200C9418210C944921E0
:100020000C947A210C9461020C9461020C9461028C
:100030000C9461020C9461020C9461020C946102B4
:100040000C9461020C9421170C9461020C946102CF
:100050000C9461020C9461020C9461020C94AB212B
:100060000C9461020C94F8250C942E260C946102D9
:100070000C9461020C9461020C9461020C94610274
:100080000C944F170C9461020C9461020C94610261
:100090000C9461020C9461020C9461020C947C1B20
:1000A0000C9461020C9461020C947D170C94610213
:1000B0000C9461020C9461020C9461020C94AB17D5
:1000C0000C9461020C9461020C9461020C94610224
:1000D0000C9461020C9461020C9461020C94610214
:1000E0000C946102460D0A0D0E0D120D460D160DF3
:1000F0001A0D1E0D220D240D290D2B0D300D320D64
:10010000460D581D5F1D351D371D391D3B1D3D1DFD
:100110003F1D451D471D411D431D451D471D581DC4
:10012000FD1FC71FCF1FDB1FE81F09201620F82265
:10013000FD2202230C2316238F2320232823302380
:100140003A2344234E235D2367238F2371237B238C
:100150008523B123B423A323A723AD23EB23B82303
:10016000BC23C223C623CA23D023D423D823EB2302
:10017000DE23E223E623476574426C6F636B282914
:100180002072657475726E6564204241445F424C12
:100190004F434B2E005269676874204D6F746F7225
:1001A0002063757272656E743A20004C6566742027
:1001B0004D6F746F722063757272656E743A2000B1
:1001C0006D6F746F722064726976657220666175F6
:1001D0006C74004552524F522D20496E76616C6905
:1001E000642070726F6772616D2063686F69636508
:1001F0003A20000953746F726564203D20007363D8
:10020000616C65466163746F725A203D200009532A
:10021000746F726564203D20007369676D615A20B8
:100220003D20000953746F726564203D20004269CF
:1002300061735A203D20005072696E74696E6720A8
:1002400063616C63756C6174656420616E642073B6
:10025000746F7265642076616C7565732E2E2E0046
:100260005363616C6520466163746F72203D2000AA
:100270004D617820416E676C65203D2000446F6EB3
:100280006521005A3D20005369676D613A005A3D6F
:1002900020004176657261676520426961733A00AA
:1002A00043616C63756C6174696E67204269617348
:1002B00000095363616C6520466163746F723A2074
:1002C00000095369676D613A2000426961733A2001
:1002D000004661696C656420746F206175746F6499
:1002E0006574656374206779726F20747970652115
:1002F0000009546F74616C203D200009426F742026
:100300004C696E65203D20000943656E746572205E
:100310003D20000959203D2000536967203D200001
:100320004552524F522D20496E76616C696420709F
:10033000726F6772616D2063686F6963653A200050
:1003400000000A0B02090C0D0E080703040100004F
:10035000000000000000000000000000000000009D
:10036000000000000000000000000000121110005A
:10037000000000000000000000000000000000007D
:10038000000000000000010210202008081020409A
:100390001020408002010201080402010102040849
:1003A00010204080804020100804020180040201D7
:1003B0008040201008040201080402010102040820
:1003C000102040800102040810204080050505052A
:1003D000070508080808020202020A0A08080404BD
:1003E00004040101010101010101030303030303EB
:1003F0000303040707070C0C0C0C0C0C0C0C02027A
:10040000020206060606060606060B0B0B0B0B0B76
:100410000B0B000020002300260029002C002F00D9
:100420003200000100000301060109010000220062
:10043000250028002B002E003100340002010000AE
:10044000050108010B0100002100240027002A00FB
:100450002D003000330001010000040107010A01F2
:100460009A1A622611241FBECFEFD1E2DEBFCDBFA4
:1004700013E0A0E0B2E0EAE0F2E600E00BBF02C069
:1004800007900D92A23BB107D9F726E0A2EBB3E0AB
:1004900001C01D92AE30B207E1F714E0C4E6D4E02B
:1004A00000E006C022970109FE010BBF0E94002C4C
:1004B000C036D10780E00807A9F70E94A6260C9451
:1004C00003310C940000CF93DF93EC01E881F981B4
:1004D000EA5BFF4F808191810E94E10888819981C8
:1004E000FC01E95AFF4F1082319621E020833596B6
:1004F00011821082DF91CF9108958F929F92AF92D7
:10050000BF92CF92DF92EF92FF920F931F93CF9300
:10051000DF93CDB7DEB7C854D1090FB6F894DEBF6C
:100520000FBECDBF7C016E0181E4C80ED11CD60187
:100530000C9323961FAF239724962FAF24972596CD
:100540003FAF259726964FAF269727965FAF279701
:1005500028966FAF289729967FAF2997C7010E94E9
:100560006E195701B2E0AB0EB11CC5010E9477199C
:10057000F701E65BFF4F6B968CAD9DADAEADBFADA9
:100580006B9780839183A283B38334966F968CADEF
:100590009DADAEADBFAD6F9780839183A283B383D2
:1005A0003496A3964CAD5DAD6EAD7FADA397408301
:1005B0005183628373833496A4968FADA49780830E
:1005C0007497D6018D919C91918380833296259664
:1005D0008EAD9FAD259791838083329627968EAD01
:1005E0009FAD279791838083329629968EAD9FADDC
:1005F0002997918380833F961082319681E0808392
:100600003196108211821282138200E0A7962FADDC
:10061000A797A6964FADA697A5966FADA597FE0195
:1006200031964F01CF010E944919B401C7010E94C0
:10063000E018BE0169597F4FC4010E949B19982D93
:10064000892DE92FF82FCF010896D50121912D93FF
:10065000E817F907D9F788E0A80EB11CEC15FD05DD
:1006600019F09E2F8F2FEDCFC85BDF4F0FB6F89498
:10067000DEBF0FBECDBFDF91CF911F910F91FF90D5
:10068000EF90DF90CF90BF90AF909F908F900895A4
:100690002F923F924F925F926F927F928F929F9292
:1006A000AF92BF92CF92DF92EF92FF920F931F9380
:1006B000CF93DF93CDB7DEB72F970FB6F894DEBF99
:1006C0000FBECDBF4C016F87142F9C012C5B3F4F99
:1006D0007901633061F460E070E0F901808191811B
:1006E0000E94F9132B013C0162E070E00BC061E055
:1006F00070E0F901808191810E94F9132B013C0186
:1007000063E070E0F701808191810E94F9136B0131
:100710007C019E868D86F12FF4703F2E12FF12C051
:10072000F401EE5BFF4F808191810E94390FF4014B
:10073000EE5AFF4F20813181428153810E949329DB
:1007400087FD6AC0212F2170322E10FF34C0540162
:1007500037E5A30EB11CF501808181111BC03D97C7
:100760002081318142815381C301B2010E94E22A7A
:10077000181684F4F50130823196308270978081AA
:1007800091810E947D10F401E75AFF4F60837183CD
:1007900082839383F5018081882369F0F401E65B0D
:1007A000FF4F2081318142815381C701B6010E94F0
:1007B000E22A18168CF1F12FF2703F2E11FF33C090
:1007C000540122E4A20EB11CF50160817181CE01B9
:1007D00001960E946F15C980DA80EB80FC800D8144
:1007E0001E812F81388549855A856B857C85F50169
:1007F000808191810E94460EF401E35AFF4F8823C5
:1008000081F0808191810196918380833797208147
:1008100030E0821793073CF0CE010D960E946302F0
:100820005FC0118210828401085A1F4FF801808135
:1008300094012A5B3F4F1901882339F0F901808127
:1008400091810E94AE07F8011082F401E95AFF4F2E
:100850008081882371F03296408151816281738159
:1008600000E010E09801F101808191810E94AC09C3
:1008700036C0F401E25BFF4F2F852130A1F44081A7
:100880005181628173811F921F921F921F92812C4E
:10089000912C5401C12CD12C90E8E92E9FE3F92E24
:1008A0009301820113C000811181228133811F9243
:1008B0001F921F921F92812C912C5401C12CD12C7C
:1008C00080E8E82E8FE3F82EB301A201F1018081C8
:1008D00091810E94C2070F900F900F900F90312CC2
:1008E000832D2F960FB6F894DEBF0FBECDBFDF91DC
:1008F000CF911F910F91FF90EF90DF90CF90BF901D
:10090000AF909F908F907F906F905F904F903F90AF
:100910002F900895FC01148283E090E097838683F2
:100920001286118613860895EF92FF921F93CF933C
:10093000DF931F92CDB7DEB77C01162FFC016085D7
:1009400086E894E049830E947A1A612F86E894E051
:100950000E94211A4981642F86E894E00E94211A9E
:1009600086E894E00E94971AF70185830F90DF9143
:10097000CF911F91FF90EF9008951F93CF93DF9336
:10098000EC01162F8E819F81029729F440E069E3E4
:10099000CE010E949404412F406C6EE2CE010E9471
:1009A000940444E062E2CE010E94940440E464E2D4
:1009B000CE010E94940440E063E2CE010E949404C0
:1009C0004CE660E2CE01DF91CF911F910C9494042C
:1009D0001F93CF93DF93EC01162F688586E894E090
:1009E0000E947A1A612F86E894E00E94211A86E814
:1009F00094E00E94971A8D8341E0688586E894E030
:100A00000E94771A86E894E00E94D119C82F86E8E0
:100A100094E00E94971A8C2FDF91CF911F91089537
:100A2000BF92CF92DF92EF92FF920F931F93CF93DB
:100A3000DF93EC016FE20E94E804082F0F7109F4C4
:100A400061C010E0C12CD12C7601688586E894E065
:100A50000E947A1AE0918604F09187040190F08157
:100A6000E02D6CEA86E894E0099586E894E00E941F
:100A7000971A42E0688586E894E00E94771A8823F6
:100A8000B1F086E894E00E94D119B82E86E894E08F
:100A90000E94D119982F88278B29AC01662757FD12
:100AA0006095762FC40ED51EE61EF71E06C066E9B9
:100AB00072E08DE695E00E9439271F5F1013C5CFC5
:100AC000C701B6010E94322A29E23CE54FE05CE30F
:100AD0000E94E62A6B017C01612F70E080E090E0CB
:100AE0000E94322A9B01AC01C701B6010E949729DE
:100AF000AB01BC017058488359836A837B831C8295
:100B000081E001C080E0DF91CF911F910F91FF90B4
:100B1000EF90DF90CF90BF9008951F93CF93DF9316
:100B20001F92CDB7DEB7162F86E894E049830E9466
:100B30007A1A4981642F86E894E00E94211A86E897
:100B400094E00E94971A811114C041E0612F86E859
:100B500094E00E94771A86E894E00E94C919892BD4
:100B600041F086E894E00F90DF91CF911F910C94B3
:100B7000D1198FEF9FEF0F90DF91CF911F910895C3
:100B8000EF92FF920F931F93CF93DF937C01EB01C2
:100B90008A016330710521F04230510509F051C0DE
:100BA000CE010197039758F50115110581F04FE02B
:100BB00050E06BE6C7010E948D058F3F2FEF920733
:100BC00019F001E010E013C00130110551F04FE0C1
:100BD00050E06AE6C7010E948D058F3FEFEF9E0748
:100BE00021F4C330D10569F027C000E010E0C33024
:100BF000D10529F4873D9105F1F5C2E0D0E02097B9
:100C0000D9F40115110561F04FE050E069E6C70124
:100C10000E948D05833D910589F10130110549F050
:100C20004FE050E068E6C7010E948D05833D9105C5
:100C300041F1C330D10519F00230110511F480E003
:100C400025C0F701D783C683209759F0D7FD11C07F
:100C500023977CF40130110511F48BE608C08AE675
:100C600006C00130110511F489E601C088E6F701DC
:100C7000808781E00BC0C1E0D0E0C1CF01E010E08F
:100C800002C000E010E0C0E0D0E0D6CFDF91CF910D
:100C90001F910F91FF90EF900895EF92FF920F93A5
:100CA0001F93CF93DF93CDB7DEB728970FB6F89495
:100CB000DEBF0FBECDBF7C01FC0160837183802F3E
:100CC00002831383248335834683578360E00E9425
:100CD000EC2360E0F70183810E94EC2360E0F701E0
:100CE00084810E94EC2360E0F70185810E94EC235F
:100CF00060E0F70186810E94EC2360E0F7018781C4
:100D00000E94EC2361E0F70180810E94EC2360E007
:100D1000F70181810E94EC2361E0F7018081289630
:100D20000FB6F894DEBF0FBECDBFDF91CF911F91FC
:100D30000F91FF90EF900C9425240F931F93CF9366
:100D4000DF93EC0177FF05C071956195710981E032
:100D500001C080E08B016F3F710519F014F00FEFB7
:100D600010E0811107C0B8018A810E94D22260E0A0
:100D700070E006C060E070E08A810E94D222B80173
:100D80008B81DF91CF911F910F910C94D2220F9301
:100D90001F93CF93DF93EC0177FF05C071956195A9
:100DA000710981E001C080E08B016F3F710519F08E
:100DB00014F00FEF10E0811107C0B8018D810E947F
:100DC000D22260E070E006C060E070E08D810E9499
:100DD000D222B8018E81DF91CF911F910F910C9497
:100DE000D2220F931F93CF93DF93EC018A010E94CD
:100DF0009D06B801CE01DF91CF911F910F910C9408
:100E0000C706FC0184810E94AD222DE5AC01249F20
:100E1000C001259F900D11246AE070E00E94C42B50
:100E2000CB010895FC0187810E94AD222DE5AC0124
:100E3000249FC001259F900D11246AE070E00E945C
:100E4000C42BCB010895FC0181810E945B2421E029
:100E5000892B09F020E0822F08958F929F92AF9204
:100E6000BF92CF92DF92EF92FF920F931F93CF9397
:100E7000DF93CDB7DEB72A970FB6F894DEBF0FBE6B
:100E8000CDBF4C01E982FA820B831C832D833E8304
:100E90004F83588769877A87FC01148215821682EE
:100EA000178210861186128613861486158616867A
:100EB0001786108A118A128A138A148A158A168A4A
:100EC000178A108E7C01F7E2EF0EF11CC7010E9419
:100ED000D9178401065D1F4FC8010E94D917F4017C
:100EE000B182A082D382C2828981818F8A81828FDE
:100EF0006B8170E0C7010E94A4186C8170E0C8018A
:100F00000E94A4188D81F401838F8E81848F8F813C
:100F1000858F8885868F898590E0A0E0B0E0878FF7
:100F200090A3A1A3B2A38A8590E0A0E0B0E083A340
:100F300094A3A5A3B6A32A960FB6F894DEBF0FBE5E
:100F4000CDBFDF91CF911F910F91FF90EF90DF9078
:100F5000CF90BF90AF909F908F900895CF93DF93E5
:100F6000EC01198A1A8A1B8A1C8A1D861E861F8616
:100F7000188A0E94F52169877A878B879C87DF9181
:100F8000CF9108952F923F924F925F926F927F92EE
:100F90008F929F92AF92BF92CF92DF92EF92FF9289
:100FA0000F931F93CF93DF93CDB7DEB764970FB640
:100FB000F894DEBF0FBECDBF1C0149835A836B83FB
:100FC0007C83098B1A8B2B8B3C8B49A45AA46BA472
:100FD0007CA449865A866B867C860E94F521D101C5
:100FE00019962D913D914D915C911C972B013C01DF
:100FF000421A530A640A750A4D825E826F827886AD
:1010000019966D937D938D939C931C974114510475
:101010006104710409F4A9C029893A894B895C8962
:1010200069817A818B819C810E942E2969837A83D0
:101030008B839C83C301B2010E94322A6D837E831D
:101040008F83988720E034E244E759E40E9497298F
:101050009B01AC0169817A818B819C810E94E62A87
:10106000F10121893289438954890E942F292B015A
:101070003C01D10151966D937D938D939C93549730
:1010800029813A814B815C81C701B6010E94E62A21
:101090006B017C01A3019201C501B4010E94E62A03
:1010A0009B01AC01C701B6010E942F294B015C01D5
:1010B000F101258536854785508969817A818B8143
:1010C0009C810E942E292B013C012D813E814F8164
:1010D000588560E074E284E799E40E9497299B01B7
:1010E000AC01C301B2010E94E62A9B01AC016985F3
:1010F0007A858B859C850E94E62A9B01AC01C501FF
:10110000B4010E942F290E94FF2949805A806B80D8
:101110007C80D1011D964D925D926D927C9250978C
:101120005A962C915A9730E0A901461B570B620F33
:10113000731F8D919C9164960FB6F894DEBF0FBE1D
:10114000CDBFDF91CF911F910F91FF90EF90DF9076
:10115000CF90BF90AF909F908F907F906F905F9057
:101160004F903F902F900C94F10664960FB6F89430
:10117000DEBF0FBECDBFDF91CF911F910F91FF90CA
:10118000EF90DF90CF90BF90AF909F908F907F9027
:101190006F905F904F903F902F90089570E0FC010A
:1011A00080819181413029F444275527461B570BF4
:1011B00006C022273327261B370BAB01B9010C943D
:1011C000F10640E050E060E070E0FC018081918138
:1011D0000C94F1068F929F92AF92BF92CF92DF92C2
:1011E000EF92FF921F93CF93DF93EC01162F8A812A
:1011F0009B810E947D104B015C018C8181113BC061
:10120000113029F420E030E044EB52E404C020E047
:1012100030E044EB52ECC501B4010E942F296B0170
:101220007C0120E030E044EB53E40E94E22A87FD99
:1012300009C020E030E044EB53E4C701B6010E944E
:101240002E2915C0CD82DE82EF82F88620E030E0C4
:10125000A901C701B6010E94932987FF0CC020E0B5
:1012600030E044EB53E4C701B6010E942F296D839F
:101270007E838F839887A50194016D817E818F8104
:1012800098850E942E296B017C0120E030E044E328
:1012900053E40E94E22A18164CF420E030E044EBBC
:1012A00053E4C701B6010E942E2912C020E030E0AD
:1012B00044E353ECC701B6010E94932987FF0AC09B
:1012C00020E030E044EB53E4C701B6010E942F292F
:1012D0006B017C0120E030E0A901C701B6010E944A
:1012E000E22A46015701181624F0B7FAB094B7F86D
:1012F000B094698D70E080E090E00E94322A9B01FA
:10130000AC01C501B4010E94932987FF06C0CE013C
:101310000E94E1081C8281E013C020E030E0A901B6
:10132000C701B6010E94E22A181614F441E001C078
:1013300043E06A8DCE010E94CE0881E08C8380E07C
:10134000DF91CF911F91FF90EF90DF90CF90BF90F2
:10135000AF909F908F9008958F929F92AF92BF927F
:10136000CF92DF92EF92FF920F931F93CF93DF9371
:10137000EC014A015B0168017901011511052105A4
:10138000310519F18D899E89AF89B88D892B8A2BFA
:101390008B2B31F40E94F5216D8B7E8B8F8B988F78
:1013A0000E94F5210D891E892F89388D601B710BD4
:1013B000820B930BC616D706E806F90630F41D8A91
:1013C0001E8A1F8A188E81E04BC08A819B810E94F1
:1013D0007D109B01AC01C501B4010E942E296B0157
:1013E0007C0120E030E044E353E40E94E22A181636
:1013F0004CF420E030E044EB53E4C701B6010E9416
:101400002E2912C020E030E044E353ECC701B601BE
:101410000E94932987FF0AC020E030E044EB53E4A8
:10142000C701B6010E942F296B017C01970186013B
:1014300030581F921F921F921F92812C912C5401A1
:10144000C12CD12C80E8E82E8FE3F82EB501A40141
:10145000CE010E94C2070F900F900F900F9080E076
:10146000DF91CF911F910F91FF90EF90DF90CF9080
:10147000BF90AF909F908F900895FF920F931F930E
:10148000CF93DF93EC018B01F42EE881F981848501
:1014900095850E942307882339F060EC71E08DE682
:1014A00095E00E942727FFCFEC81FD81B80184855C
:1014B0009585FF2019F00E949D0602C00E94C70674
:1014C000C80117FF03C091958195910962E370E00F
:1014D0000E94C42B892B39F5FF2069F06BEA71E07B
:1014E0008DE695E00E94F526EA81FB81848595854D
:1014F0000E9401070CC065E971E08DE695E00E944D
:10150000F526EA81FB81848595850E9412074AE0D1
:1015100050E0BC018DE695E0DF91CF911F910F91D6
:10152000FF900C941828DF91CF911F910F91FF909D
:1015300008956F927F928F929F92AF92BF92CF92B7
:10154000DF92EF92FF920F931F93CF93DF93CDB76C
:10155000DEB72C970FB6F894DEBF0FBECDBF3C01AF
:10156000842F89829A82AB82BC82CD82DE82EF8216
:10157000F88609871A872B873C8729813A81F301EE
:10158000338322832B813C81358324832D813E81CB
:10159000378326832F8138853187208729853A85AF
:1015A000338722872B853C85358724874083668750
:1015B00062E00E94EC23F30111822C960FB6F8949E
:1015C000DEBF0FBECDBFDF91CF911F910F91FF9076
:1015D000EF90DF90CF90BF90AF909F908F907F90D3
:1015E0006F9008950F931F93CF93DF9300D000D097
:1015F00000D0CDB7DEB79A8389839C838B839E838B
:101600008D8300E010E041E0B801CE0101960E9418
:101610003D0A6FE070E080E090E00E9418220F5FCA
:101620001F4F011581E0180771F70FEF10E041E03F
:10163000B801CE0101960E943D0A6FE070E080E0A3
:1016400090E00E9418220150110901158FEF180730
:1016500071F701E01FEF41E0B801CE0101960E9451
:101660003D0A6FE070E080E090E00E9418220F5F7A
:101670001F4F0130110579F700E010E040E0B8019C
:10168000CE0101960E943D0A6FE070E080E090E09C
:101690000E9418220F5F1F4F011581E0180771F794
:1016A0000FEF10E040E0B801CE0101960E943D0A24
:1016B0006FE070E080E090E00E9418220150110974
:1016C00001158FEF180771F701E01FEF40E0B80137
:1016D000CE0101960E943D0A6FE070E080E090E04C
:1016E0000E9418220F5F1F4F0130110579F780E02B
:1016F00026960FB6F894DEBF0FBECDBFDF91CF9117
:101700001F910F91089560910B02FC0182859385D2
:101710000E94EA08882329F08091B6038F5F8093A6
:10172000B6038091B603843059F41092B6038091C9
:101730000B02813011F483E001C081E080930B0241
:1017400080E008950F931F93CF93DF93EC01809176
:10175000B70381110FC0888599850E947D10609321
:10176000B2037093B3038093B4039093B50381E005
:101770008093B70380910A02882331F08A859B8584
:101780000E94AE0710920A024091B2035091B30337
:101790006091B4037091B50300E41BE42CE430E0E5
:1017A0008A859B850E94AC09882321F081E0809383
:1017B0000A0201C080E0DF91CF911F910F9108953F
:1017C000AF92BF92CF92DF92EF92FF920F931F934F
:1017D000CF93DF93CDB7DEB7C259D1090FB6F894D6
:1017E000DEBF0FBECDBF8C01FC0164817581CE01CF
:1017F0008F579F4F0E946F15CD57DF4FA881C35859
:10180000D040CC57DF4FB881C458D040CB57DF4FC2
:10181000F880C558D040CA57DF4FE880C658D0403E
:10182000C957DF4FD880C758D040C857DF4FC8804E
:10183000C858D040C757DF4FB880C958D040C657A6
:10184000DF4FA880CA58D040CF57DF4F2881398159
:10185000C158D040F80184819581FC01828D938D1F
:101860002817390739F466E771E08DE695E00E94A4
:1018700027276EC02830310508F44AC080E090E088
:10188000E0E04CE050E0B901042E02C07695679587
:101890000A94E2F7677011F4EE2351F0EDE8F0E0FE
:1018A000EC0FFD1FE80FF91F605D60830196E1E01A
:1018B000435051094D3FFFEF5F0729F7AE014357F2
:1018C0005F4FFA01E80FF91F1082C457DF4F88817C
:1018D000CC58D0408F93C557DF4F8881CB58D0402C
:1018E0008F93AF92BF92CF92DF92EF92FF92BF930E
:1018F000AF933F932F935F934F9384EA92E09F932C
:101900008F93CE0101969F938F930E941D2E14C03A
:10191000AF92BF92CF92DF92EF92FF92BF93AF93BD
:101920003F932F938EEE92E09F938F93CE0101967B
:101930009F938F930E941D2E0FB6F894DEBF0FBEAB
:10194000CDBFBE016F5F7F4F8DE695E00E941A27E5
:1019500080E0CE56DF4F0FB6F894DEBF0FBECDBF8E
:10196000DF91CF911F910F91FF90EF90DF90CF907B
:10197000BF90AF900895FC01808591850C949110E3
:10198000FC01808591850E947D10AB01BC0122E0A5
:1019900030E08DE695E00E941B2980E0089544E048
:1019A000FC01828193810E94480391E0843009F018
:1019B00090E0892F089541E0FC01828193810E948B
:1019C000480391E0813009F090E0892F089542E0CA
:1019D000FC01828193810E94480391E0823009F0EA
:1019E00090E0892F0895CF93DF93EC0188810E94C6
:1019F0005B24892B09F44AC08981811147C04E8537
:101A000050E0FA013197EF30F10588F5EE58FF4FBD
:101A10000C94FA2BCE010E94F20A37C0CE010E942C
:101A2000830B33C0CE010E94A20B2FC0CE010E94B7
:101A3000E00B2BC0CE010E94BB0C27C0CE010E9440
:101A4000C00C23C063E001C061E0CE010E94CF0C56
:101A50001CC063E001C061E0CE010E94DB0C15C038
:101A600063E001C061E0CE010E94E70C0EC063EDAF
:101A700071E08DE695E00E94F5264AE050E06E8523
:101A80008DE695E00E94FB2781E089838981DF91C3
:101A9000CF910895EF92FF920F931F93CF93DF930F
:101AA0007C01C82FDF2D00E010E0C8010E94473004
:101AB00089930F5F1F4F0C301105B9F7C701DF91F4
:101AC000CF911F910F91FF90EF9008958EBD000070
:101AD0000DB407FEFDCF8EB508951F93CF93DF930E
:101AE000FC0123A92223A1F085A991E0980F95ABD1
:101AF000DF01A80FB11DA80FB11D53964C9153974C
:101B000054963C91215023AB903199F415AA11C001
:101B100080898823F9F0228991E0920F928BDF016E
:101B2000A20FB11D1C918150808B903129F4128A33
:101B300003C0842F932F15C08BE50E94660D282FBC
:101B400030E0D22FCC27812F0E94660D9E01282BDA
:101B5000C90107C08AE50E94660D282F30E010E019
:101B6000F0CFDF91CF911F9108950F931F93CF93E3
:101B7000DF93CDB7DEB78C018CE0EEE0F2E0D80168
:101B80005A9601900D928A95E1F7F80111AE12AEC6
:101B900013AEE45AFF4F10823196108231961082B4
:101BA0003196108233961182108232968EE190E047
:101BB0009183808388E691E00E94042CF80190A72D
:101BC00087A3E358FF4F108211821282138234964A
:101BD000118210823296118210827D9711821082BA
:101BE0003296118210828F81F80186A3E559FF4F4A
:101BF000888599859183808332968A859B85AC857B
:101C0000BD8580839183A283B38334968E859F851F
:101C1000A889B98980839183A283B38334968A8902
:101C20009B89AC89BD8980839183A283B3833496D9
:101C30004E895F89688D798D408351836283738378
:101C40000E94AA188CB58C7F81608CBD8DB58E7F6B
:101C50008DBDF801E659FF4F81E080837B968A8D28
:101C60009B8D9183808332964C8D5D8D6E8D7F8DA3
:101C7000408351836283738388A13496808360E0BC
:101C8000DF91CF911F910F910C94EC23CF92DF92B3
:101C9000EF92FF920F931F93CF93DF93CDB7DEB7F1
:101CA0002C970FB6F894DEBF0FBECDBFC982DA8283
:101CB00029813A812150310981E02230310508F033
:101CC00080E02C960FB6F894DEBF0FBECDBFDF913B
:101CD000CF911F910F91FF90EF90DF90CF900895DB
:101CE0003F924F925F926F927F928F929F92AF92AC
:101CF000BF92CF92DF92EF92FF920F931F93CF93F9
:101D0000DF93CDB7DEB72C970FB6F894DEBF0FBECA
:101D1000CDBF4C01C982DA82EB82FC820D831E8327
:101D200049875A873A2C0D811E817C018DE6E80E89
:101D3000F11CF401E559FF4F608171818B819C8119
:101D4000681B790B77FF03C071956195710988272E
:101D500077FD8095982F0E94322AF70120813181EA
:101D6000428153810E94E62A2B013C01F1E78F0E4C
:101D7000911C89859A8597FD0196BC01759567959B
:101D8000600F711F882777FD8095982F0E94322A57
:101D9000F40120813181428153810E94E62A4B0166
:101DA0005C01A30192010E942E296B017C0133206A
:101DB00009F445C069E173E08DE695E00E94F526DF
:101DC00069817A814AE050E08DE695E00E94122810
:101DD00063E173E08DE695E00E94F5264AE050E06D
:101DE000B8018DE695E00E94122868E073E08DE668
:101DF00095E00E94F52622E030E0B301A2018DE6D5
:101E000095E00E9419296BEF72E08DE695E00E9443
:101E1000F52622E030E0B501A4018DE695E00E94B0
:101E2000192961EF72E08DE695E00E94F52622E027
:101E300030E0B701A6018DE695E00E941B29C7019D
:101E4000B6012C960FB6F894DEBF0FBECDBFDF9162
:101E5000CF911F910F91FF90EF90DF90CF90BF90A7
:101E6000AF909F908F907F906F905F904F903F903A
:101E70000895FC0186A10E94AD2283319105B4F042
:101E8000BC01882777FD8095982F0E94322A2FED7C
:101E90003FE443E951E40E942E299B01AC016AE929
:101EA00079EA86E195E40E949729089560E070EC54
:101EB00089E794E40895FF920F931F93CF93DF93E4
:101EC000EC01F62E8C010C5F1F4FC8010E948A04A2
:101ED00086E894E00E94601A42E050E063E070E01F
:101EE000C8010E94C005811107C061ED72E08DE656
:101EF00095E00E942727FFCF6F2DC8010E94BD04E7
:101F00001C8A1D8A1E8A1F8A188E198E1A8E1B8E95
:101F1000188A198A1A8A1B8A188219821A821B82C5
:101F2000CE014C960E944A0D6AEC72E08DE695E077
:101F30000E94F5264C8D5D8D6E8D7F8D22E030E008
:101F40008DE695E00E94192961EC72E08DE695E03E
:101F50000E94F52648A159A16AA17BA122E030E0A8
:101F60008DE695E00E94192961EB72E08DE695E01F
:101F70000E94F5264CA15DA16EA17FA122E030E078
:101F80008DE695E0DF91CF911F910F91FF900C941A
:101F90001B294F925F926F927F928F929F92AF9286
:101FA000BF92CF92DF92EF92FF92CF93DF93EC013B
:101FB00004960E9410050E94F521CC88DD88EE88E9
:101FC000FF884B015C018C189D08AE08BF08888E05
:101FD000998EAA8EBB8E6C8B7D8B8E8B9F8B2C8D5E
:101FE0003D8D4E8D5F8D6C817D818E819F810E94A4
:101FF0002E296B017C0120E030E0A9010E94E22A39
:1020000026013701181624F077FA709477F8709447
:1020100020E030E040E850E468A179A18AA19BA1CA
:102020000E94E62A9B01AC01C301B2010E949329E0
:1020300087FF03C0C12CD12C7601C501B4010E94D9
:10204000302A20E034E244E759E40E9497299B01BA
:10205000AC01C701B6010E94E62A2CA13DA14EA108
:102060005FA10E94E62A9B01AC01688979898A896F
:102070009B890E942F29688B798B8A8B9B8BC888C0
:10208000D988EA88FB8820E030E0A901C701B601C1
:102090000E94932987FF07C020E030E044EB53E41F
:1020A000C701B601E6CFC888D988EA88FB8820E056
:1020B00030E044EB53E4C701B6010E94E22A87FDF9
:1020C0000DC020E030E044EB53E4C701B6010E94AC
:1020D0002E29688B798B8A8B9B8BE5CFDF91CF91F3
:1020E000FF90EF90DF90CF90BF90AF909F908F9038
:1020F0007F906F905F904F900895CF93DF93EC01A6
:102100008885882319F0CE010E94C90F68897989D2
:102110008A899B89DF91CF91089521E0FC01208776
:1021200008952F923F924F925F926F927F928F927B
:102130009F92AF92BF92CF92DF92EF92FF920F9356
:102140001F93CF93DF93CDB7DEB72D970FB6F894DB
:10215000DEBF0FBECDBF8C010E94F5216B017C015B
:102160008091E80381110BC0C092E403D092E50393
:10217000E092E603F092E70381E08093E803409069
:10218000E4035090E5036090E6037090E703C80114
:1021900004960E941005B82EC092E403D092E50385
:1021A000E092E603F092E7038091E2039091E3036B
:1021B0008130910509F45CC18230910509F404C1B4
:1021C000892B09F0F6C28091DE039091DF03A09184
:1021D000E003B091E103892B8A2B8B2B71F460EA29
:1021E00072E08DE695E00E942727C092DE03D09230
:1021F000DF03E092E003F092E1038091DE0390912F
:10220000DF03A091E003B091E103C81AD90AEA0AFA
:10221000FB0A80E4C8168BE4D8068CE4E806F104D7
:1022200008F05DC0BB2009F4C4C22090DC033090EC
:10223000DD03EFEF2E1A3E0A3092DD032092DC031D
:10224000F80144805580668077808090D803909014
:10225000D903A090DA03B090DB03A5019401C30178
:10226000B2010E942E296B017C01B10180E090E057
:102270000E94302A9B01AC01C701B6010E94972938
:102280009B01AC01C501B4010E942F299B01AC0147
:102290006093D8037093D9038093DA039093DB03A0
:1022A000C301B2010E942E299B01AC01C701B601F6
:1022B0000E94E62A9B01AC016091D4037091D50382
:1022C0008091D6039091D7030E942F296093D40365
:1022D0007093D5038093D6039093D7036AC260911D
:1022E000DC037091DD036150710980E090E00E9491
:1022F000302A9B01AC016091D4037091D503809189
:10230000D6039091D7030E9497290E944D2B60938A
:10231000D0037093D1038093D2039093D30320E032
:1023200030E040E05FE30E94E62AAB01BC0140934D
:10233000CC035093CD036093CE037093CF0322E080
:1023400030E08DE695E00E941B2962E972E08DE69F
:1023500095E00E9427276EE872E08DE695E00E94E6
:10236000F5264091D8035091D9036091DA0370911A
:10237000DB0322E030E08DE695E00E941B2967E850
:1023800072E08DE695E00E94272763E872E08DE613
:1023900095E00E94F5264091D0035091D1036091C1
:1023A000D2037091D30322E030E08DE695E00E94E5
:1023B0001B291092DE031092DF031092E0031092AB
:1023C000E10382E090E04FC068E173E08DE695E0C4
:1023D0000E941A2722E030E040E050E064EB73E412
:1023E0008DE695E00E94192961E473E08DE695E0A1
:1023F0000E94392760E673E08DE695E00E94392758
:102400006CE271E080E090E00E94182265E673E0E3
:102410008DE695E00E9439276CE271E080E090E063
:102420000E9418226AE673E08DE695E00E94392743
:102430006CE271E080E090E00E9418226FE673E0A9
:102440008DE695E00E94392781E08093CB030E94BE
:10245000F5216093E4037093E5038093E603909382
:10246000E70381E090E09093E3038093E203A1C14E
:102470004091DE035091DF036091E0037091E1032E
:10248000452B462B472B41F4C092DE03D092DF034D
:10249000E092E003F092E103BB2009F48AC12091AD
:1024A000D8033091D9034091DA035091DB03F8014E
:1024B00064817581868197810E942E294B015C0180
:1024C000C701B60164197509860997090E94302A67
:1024D00020E034E244E759E40E9497299B01AC01D3
:1024E000C501B4010E94E62A2091C7033091C803B8
:1024F0004091C9035091CA030E942F292B013C012E
:102500006093C7037093C8038093C9039093CA0371
:102510002091C3033091C4034091C5035091C60379
:102520000E94E22A181644F44092C3035092C40356
:102530006092C5037092C6034091C3035091C403D7
:102540006091C5037091C60322E030E08DE695E00E
:102550000E941B298091DE039091DF03A091E0038C
:10256000B091E103C81AD90AEA0AFB0AF0ECCF16C7
:10257000F6ECDF06FDE2EF06F10408F41AC120E0F4
:1025800030E0A901C501B4010E94E22A181624F026
:10259000C501B401905802C0C501B4012091CC031B
:1025A0003091CD034091CE035091CF030E949329E7
:1025B00087FFFFC02091C3033091C4034091C5033E
:1025C0005091C60360E070E084EB93E40E94972989
:1025D0006093BF037093C0038093C1039093C203C1
:1025E0006DE772E08DE695E00E94272760E772E0D4
:1025F0008DE695E00E94F5264091C3035091C403F7
:102600006091C5037091C60322E030E08DE695E04D
:102610000E941B2960E672E08DE695E00E94F52697
:102620004091BF035091C0036091C1037091C203F8
:1026300022E030E08DE695E00E941B298091D803CE
:102640009091D903A091DA03B091DB03F801848F54
:10265000958FA68FB78F8091BF039091C003A091F3
:10266000C103B091C20384A395A3A6A3B7A380918D
:10267000D0039091D103A091D203B091D30380A352
:1026800091A3A2A3B3A3045E1F4FE12CF12CF80188
:1026900061918F01C7016D870E9447306D85681772
:1026A00019F0C7010E944F30FFEFEF1AFF0A8CE0CC
:1026B000E816F10461F7CE0101960E944A0D4980A7
:1026C0005A806B807C808D809E80AF80B884C98466
:1026D000DA84EB84FC8467E372E08DE695E00E9487
:1026E00027276EE272E08DE695E00E94F526409184
:1026F000D8035091D9036091DA037091DB0322E093
:1027000030E08DE695E00E94192963E272E08DE6E3
:1027100095E00E94F52622E030E0B301A2018DE6AB
:1027200095E00E941B2969E172E08DE695E00E9428
:10273000F5264091D0035091D1036091D20370915E
:10274000D30322E030E08DE695E00E9419296EE087
:1027500072E08DE695E00E94F52622E030E0B501BA
:10276000A4018DE695E00E941B296EEF71E08DE6D5
:1027700095E00E94F5264091BF035091C0036091FF
:10278000C1037091C20322E030E08DE695E00E9423
:10279000192963EF71E08DE695E00E94F52622E0AD
:1027A00030E0B701A6018DE695E00E941B2981E08B
:1027B00001C080E02D960FB6F894DEBF0FBECDBFEE
:1027C000DF91CF911F910F91FF90EF90DF90CF900D
:1027D000BF90AF909F908F907F906F905F904F9041
:1027E0003F902F900895FC0140835183628373834F
:1027F0000895CF92DF92EF92FF92FC016130710554
:1028000069F024F4672BC9F480810BC06230710534
:1028100039F06330710589F4838103C0818101C07F
:1028200082810E94AD22BC01882777FD8095982F78
:102830000E94322A6B017C0103C0C12CD12C76018D
:1028400020E030E048E951E4C701B6010E94932935
:1028500087FD11C02FED3FE443E951E4C701B60104
:102860000E942E299B01AC016AE979EA86E195E490
:102870000E94972904C060E070EC89E794E4FF901F
:10288000EF90DF90CF9008953F924F925F926F92BA
:102890007F928F929F92AF92BF92CF92DF92EF92F0
:1028A000FF920F931F93CF93DF9300D01F92CDB76A
:1028B000DEB7AC015B01FC0180AD81114AC0EE24A2
:1028C000EA94FE2C6A01F2E0CF0ED11CC6014A83C5
:1028D0005B830E946D0D8C014A815B81009759F4E6
:1028E000EF2811F07801F2CF8AE090E00E944022B8
:1028F00080E090E0DFC085352AEA920749F485E55B
:10290000E8168AEAF80671F7FA0112AE11AE23C092
:102910008635FAEA9F0759F425E5E2162AEAF20617
:1029200009F781E090E0FA0192AF81AF14C08A3AD2
:10293000F5E59F07B9F662E773E08DE695E04A8317
:102940005B830E94392780E00E94660D4A815B818B
:10295000C9CFFA0110AEFA0114AE13AE6A01F2E06B
:10296000CF0ED11C6CE0362E88248394912CFA0172
:1029700083AD94AD8A159B0508F09CC08238910503
:1029800008F098C0C6014A835B830E946D0D8C01DC
:102990004A815B81FA0123AD34AD8535FAEA9F07A0
:1029A00031F481E0FA0180AF12AE11AE0BC0863572
:1029B000FAEA9F0749F481E0FA0180AF81E090E0F4
:1029C00092AF81AFC90176C00097E1F3FA0185ADFE
:1029D00096AD8217930798F44E9696AF85AF389EC2
:1029E000B001399E700D1124808191814A835B83EF
:1029F0000E942B2D4A815B81FA0191838083FA0129
:102A000023AD34AD329EC001339E900D1124E08081
:102A1000F180E80EF91E3701412C512C20E0FA011B
:102A200081AD92AD892B31F4253021F4F701138665
:102A3000128612C0C60129834A835B830E946D0DF2
:102A4000480E591EF301819391933F0129812F5F15
:102A50004A815B81263019F70415150539F4FA010E
:102A600083AD94AD019694AF83AF0AC06AE773E07B
:102A70008DE695E04A835B830E9439275B814A811A
:102A8000C6014A835B830E946D0D4A815B81853557
:102A9000FAEA9F0721F4FA0112AE11AE68CF86352B
:102AA0009A4A21F4FA0192AE81AE61CFFA0183AD68
:102AB00094AD00C00F900F900F90DF91CF911F91B8
:102AC0000F91FF90EF90DF90CF90BF90AF909F90CD
:102AD0008F907F906F905F904F903F9008952F92CE
:102AE0003F924F925F926F927F928F929F92AF929E
:102AF000BF92CF92DF92EF92FF920F931F93CF93EB
:102B0000DF93CDB7DEB763970FB6F894DEBF0FBE85
:102B1000CDBF3C014B018CE0FB017A96D3010190C3
:102B20000D928A95E1F78B01095D1F4F68EE73E006
:102B3000C8010E9444142C0168EE73E0C8010E9491
:102B40004414480E591E1E861D86212C312C20EF60
:102B50002F8733E2388BA4E7BA2E89EC898BF401F6
:102B6000E758FF4FFB8BEA8BF401241435040CF07B
:102B700065C087A190A52D853E85820F931FFC011E
:102B8000DE0111962CE001900D922A95E1F7FC01EF
:102B9000E080F18006811781C084D184C70101974C
:102BA000029708F041C00C9DB0010D9D700D1C9D59
:102BB000700D112480E090E00E94302AEA89FB89A0
:102BC00020813181428153810E94E22A181664F5E6
:102BD000FA82E982202F18870F834C2DDA86C98666
:102BE000A12CCE2CDA80EB80FC800D811E813885F3
:102BF0005A856B857C85C4010E94700E7B018C0117
:102C00002F8538894B2D59890E94E22A87FD0CC0F7
:102C1000FE013196D3018CE001900D928A95E1F787
:102C2000EF86F88AB02E198BFFEF2F1A3F0A2D85F9
:102C30003E85245F3F4F3E872D8796CFEB58FF4F51
:102C400020813181428153816F8578898B2D9989CB
:102C50000E94E22A181694F4F30180819181019771
:102C6000880F991F880D991DFC01EA59FF4F20819B
:102C700031812F5F3F4F3183208308C08CE0F40106
:102C80007A96D30101900D928A95E1F7C30163967C
:102C90000FB6F894DEBF0FBECDBFDF91CF911F916D
:102CA0000F91FF90EF90DF90CF90BF90AF909F90EB
:102CB0008F907F906F905F904F903F902F900895EE
:102CC000CF92DF92EF92FF920F931F93CF93DF93F8
:102CD0006C018B017A01EC01CF50DC4F888187FFBA
:102CE00004C0FB011182108223C02CE02C9DC00186
:102CF0002D9D900D11242881AC01420F511D27FDFF
:102D00005A952091F00330E0421753078CF4288144
:102D1000AC01420F511D27FD5A959A01FA01EE0FA1
:102D2000FF1FE20FF31FEB50FC4F208126FD19C05F
:102D300088818F5F88838CE08C9D90018D9D300D04
:102D400011248881A901480F511D87FD5A95809152
:102D5000F00390E048175907B4F488818C303CF1B7
:102D600012C02881820F911D27FD9A95FC01EE0F5C
:102D7000FF1FE80FF91FEB50FC4F808160E08F735D
:102D80000E942524D5CFF80180819181049680345A
:102D90009C4918F480E49CE904C0F8018081918189
:102DA0000496F701918380838FEF888341C0F801F7
:102DB000808191814881B901640F711D47FD7A9529
:102DC000AB01FB01EE0FFF1FE40FF51FEB50FC4FB3
:102DD00041815281840F951FF701918380838881FF
:102DE000A901480F511D87FD5A95FA01EE0FFF1FEB
:102DF000E40FF51FEB50FC4F808186FF19C08881DE
:102E0000280F311D87FD3A95F901EE0FFF1FE20FE4
:102E1000F31FEB50FC4F808161E08F73DF91CF9106
:102E20001F910F91FF90EF90DF90CF900C9425248D
:102E3000DF91CF911F910F91FF90EF90DF90CF9096
:102E400008951F920F920FB60F9211240BB60F9296
:102E50002F933F934F935F936F937F938F939F93A2
:102E6000AF93BF93EF93FF9348E850E064E870E0BE
:102E700081E090E00E946016FF91EF91BF91AF91C9
:102E80009F918F917F916F915F914F913F912F9182
:102E90000F900BBE0F900FBE0F901F9018951F92B2
:102EA0000F920FB60F9211240BB60F922F933F93F0
:102EB0004F935F936F937F938F939F93AF93BF9342
:102EC000EF93FF9348E950E064E970E082E090E01E
:102ED0000E946016FF91EF91BF91AF919F918F91EA
:102EE0007F916F915F914F913F912F910F900BBE0A
:102EF0000F900FBE0F901F9018951F920F920FB654
:102F00000F9211240BB60F922F933F934F935F9321
:102F10006F937F938F939F93AF93BF93EF93FF93A1
:102F200048EA50E064EA70E083E090E00E946016B6
:102F3000FF91EF91BF91AF919F918F917F916F9191
:102F40005F914F913F912F910F900BBE0F900FBE4D
:102F50000F901F9018951F920F920FB60F92112489
:102F60000BB60F922F933F934F935F936F937F9383
:102F70008F939F93AF93BF93EF93FF9348E251E0FA
:102F800064E271E080E090E00E946016FF91EF91B2
:102F9000BF91AF919F918F917F916F915F914F9171
:102FA0003F912F910F900BBE0F900FBE0F901F906F
:102FB00018952091F0032033A0F431E0320F3093C4
:102FC000F003FC012083822F90E0FC01EE0FFF1F35
:102FD000E80FF91FEB50FC4F88EB9BE09283818355
:102FE00008952FEFFC0120830895DF92EF92FF9266
:102FF0000F931F93CF93DF93EC01D62E7A018901B3
:103000008881803308F068C061E08D2D0E94EC2338
:103010008881A82FB0E0FD01EE0FFF1FEA0FFB1F14
:10302000EB50FC4F2D2D2F739081907C922B908331
:1030300060E272E06E197F0977FF02C06D5F7F4F1B
:103040007595679575956795698340E659E0401BCE
:10305000510B57FF02C04D5F5F4F559547955595F2
:1030600047954A836CE00E94A42B9CE0899FB001A5
:10307000112420E030E0A901460F571FFA01EE0F9E
:10308000FF1FE40FF51FEB50FC4F908196FD18C019
:103090002F5F3F4F2C30310571F790E08130910563
:1030A00021F51092800082E08093810010928500CB
:1030B00010928400B19A80916F00826080936F00BB
:1030C000888190E0FC01EE0FFF1FE80FF91FEB5025
:1030D000FC4F8081806480838881DF91CF911F9134
:1030E0000F91FF90EF90DF9008958230910569F481
:1030F0001092900082E080939100109295001092BF
:10310000940088BB80937100DBCF8330910569F414
:103110001092A00082E08093A1001092A50010926E
:10312000A40089BB80937200CBCF892B49F6109203
:10313000200182E080932101109225011092240148
:103140008ABB80937300BCCF20E639E040E252E0B6
:103150000C94F517CF93CFB7F89480918504811123
:1031600027C0E1E0F4E08491EBEBF3E09491E82FE9
:10317000F0E0EE0FFF1FEA5BFB4FA591B4918C913D
:10318000892321F461E085E30E94252461E085E341
:103190000E94EC238CB580618CBD8CB580648CBDA5
:1031A00061E084E30E94EC2361E083E30E94EC236E
:1031B000809185048F5F80938504CFBFCF91089560
:1031C000FB0120813181FC01318320830895FC01C2
:1031D000613051F028F0623061F0633079F0089589
:1031E000808191818F730DC0808191818F77806400
:1031F00008C0808191818F7B806803C0808191812C
:10320000806C918380830895FC018081918162FFAD
:1032100002C0806201C08F7D918380838081918113
:1032200061FF02C0806101C08F7E918380838081B5
:10323000918160FF02C0886001C0877F9183808395
:103240000895FC018081918162FF02C0846001C009
:103250008B7F918380838081918161FF02C0826036
:1032600001C08D7F918380838081918160FF02C046
:10327000816001C08E7F918380830895FC018081ED
:103280009181662311F0916001C09E7F91838083BC
:103290000895EF92FF920F93CF93DF9300D0CDB7B5
:1032A000DEB77C01FC01118210822A8349830E94CF
:1032B000E7184981642FC7010E9404192A81622FEF
:1032C000C7010E942119602FC7010F900F90DF9155
:1032D000CF910F91FF90EF900C943E190F9300E067
:1032E00020E040E061E00E9449190F910895AC018F
:1032F000405C5F4FFC019F01285F3F4F1192E21736
:10330000F307E1F7E417F507B1F720E030E040E01C
:1033100050E0BC01620F731FFB01E40FF51F108228
:103320004F5F5F4F48305105B9F7285F3F4F20345A
:10333000310569F708951F93CF93DF93AC01405C8B
:103340005F4FFC019F01285F3F4F1192E217F30787
:10335000E1F7E417F507B1F720E030E0FB01E20FF9
:10336000F31F40E050E0DC01A21BB30B1191ED0113
:10337000C40FD51F18AF4F5F5F4F48305105B1F7ED
:10338000285F3F4F2034310549F7DF91CF911F91DE
:1033900008958091B60490E02091B704821B9109B2
:1033A00008952091B7048091B604281750F4E22FB5
:1033B000F0E0E854FB4F808190E02F5F2093B7044A
:1033C00008958FEF9FEF0895E091B7048091B604C0
:1033D000E81730F4F0E0E854FB4F808190E0089566
:1033E0008FEF9FEF08950895CF92DF92EF92FF92B3
:1033F0000F931F93CF93DF937C01CB018A01209120
:103400009204222389F0EB016B01C40ED51ECC156A
:10341000DD0569F06991D701ED91FC910190F08192
:10342000E02DC7010995F3CF642F0E94531BC801FB
:10343000DF91CF911F910F91FF90EF90DF90CF9090
:103440000895CF93DF931F92CDB7DEB769832091A4
:1034500092042223D1F020919304203240F021E005
:1034600030E0FC013383228380E090E015C080913E
:103470009404E82FF0E0EB56FB4F998190838F5F27
:10348000809394048093930405C061E0CE0101967B
:103490000E94531B81E090E00F90DF91CF9108953F
:1034A000FC011382128248EE53E060E070E0448336
:1034B00055836683778387E893E0918380830895BB
:1034C0001092B7041092B6041092940410929304D0
:1034D0000C949E1A862F413208F040E268EB74E0AB
:1034E0000E94BC1A1092B7048093B604089521E09C
:1034F0000C946A1A81E0809392046093B504109250
:1035000094041092930408950F93062F21E04091A4
:10351000930465E974E08091B5040E94001B109249
:10352000940410929304109292040F91089561E014
:103530000C94841A86E894E00C94501A1092450575
:1035400081E0809343051092420561E084E10E948E
:10355000252461E085E10E942524E9EBF0E08081EB
:103560008E7F808380818D7F808388E48093B80004
:1035700085E48093BC000895413208F03FC09091EB
:1035800045059111FCCF91E09093450520934305AB
:103590002FEF2093D80410921D05240F20931C05B3
:1035A0009093440590914405880F892B809344059E
:1035B00080914205813041F410924205809144058A
:1035C0008093BB0085EC01C085EE8093BC008091A8
:1035D00045058130E1F380911D05841710F4409179
:1035E0001D052EE135E0FB01D9018A2F821B8417CE
:1035F00018F48D918193F9CF842F089580E0089578
:103600000F93413208F046C0909145059111FCCFCF
:1036100092E090934505009343059FEF9093D80463
:1036200010921D0540931C05FB016EE175E0DB0166
:103630009A2F961B941718F491919D93F9CF10929D
:10364000440590914405880F892B8093440580910F
:103650004205813041F410924205809144058093E7
:10366000BB0085EC01C085EE8093BC00222321F0D5
:10367000809145058230E1F38091D8048F3F61F05D
:103680008091D804803251F08091D804803341F485
:1036900083E007C081E005C080E003C082E001C094
:1036A00084E00F910895613298F42091450524300B
:1036B00089F46093FA04FC018CEF94E0DC012A2F7A
:1036C000281B261718F421912D93F9CF80E0089537
:1036D00081E0089582E0089585ED8093BC0080919B
:1036E000BC0084FDFCCF10924505089585EC8093C5
:1036F000BC001092450508951F920F920FB60F92CD
:1037000011240BB60F922F933F934F935F936F93B8
:103710007F938F939F93AF93BF93EF93FF9380918A
:10372000B900887F803609F49CC068F5883209F4B6
:103730005BC090F4803109F454C038F4882309F454
:10374000F5C0883009F44DC0F5C0883109F44CC08B
:10375000803209F45DC0EEC0803409F468C048F4DA
:10376000803309F455C0883309F0E4C08093D8044D
:10377000A8C0803509F44FC0883509F45DC088348D
:1037800009F0D8C0D5C0883909F4C6C0A8F4883774
:1037900009F467C038F4883609F463C0803709F447
:1037A00060C0C8C0883809F4B7C0803909F45FC068
:1037B000803809F0BFC05BC0803B09F485C038F495
:1037C000803A09F466C0883A09F47EC0B3C0803CF0
:1037D00009F4A6C0883C09F4A3C0883B09F489C059
:1037E000A9C08091440510C090911D0580911C05D1
:1037F000981770F5E0911D0581E08E0F80931D05EF
:10380000F0E0E25EFA4F80818093BB0085EC85C0DA
:103810008093D8048DC0E0911D0581E08E0F8093C8
:103820001D058091BB00F0E0E25EFA4F808390912D
:103830001D0580911C056DC0E0911D0581E08E0F76
:1038400080931D058091BB00F0E0E25EFA4F80831B
:103850008091430581116CC081E08093420584EA28
:1038600060C083E0809345051092D904CFCF80914A
:10387000D904803208F050C0E091D90481E08E0F65
:103880008093D9048091BB00F0E0E652FB4F808327
:10389000BDCF8091D904803230F4E091D904F0E0BA
:1038A000E652FB4F10820E946C1B6091D90470E0BD
:1038B000E0913E05F0913F058AED94E00995109264
:1038C000D9040E94761B36C084E08093450510928F
:1038D000FB041092FA04E0914005F091410509952E
:1038E0008091FA04811105C081E08093FA0410925E
:1038F000FC04E091FB0481E08E0F8093FB04F0E078
:10390000E450FB4F80818093BB009091FB04809139
:10391000FA04981708F47ACF85E88093BC000AC0AF
:1039200085EC8093BC001092450504C01092D80429
:103930000E946C1BFF91EF91BF91AF919F918F916E
:103940007F916F915F914F913F912F910F900BBE9F
:103950000F900FBE0F901F90189580914805909181
:1039600049050C948D102F923F924F925F926F9267
:103970007F928F929F92AF92BF92CF92DF92EF92FF
:10398000FF920F931F93CF93DF93CDB7DEB7C35151
:10399000D1400FB6F894DEBF0FBECDBF8091520567
:1039A00090915305C05FDE4F99838883C051D14009
:1039B00060904C0570904D0580904A0590904B05A5
:1039C0008091480590914905C25FDE4F99838883B5
:1039D000CE50D140209050053090510580914E0539
:1039E00090914F05CE5EDE4F99838883C251D140BE
:1039F00080E5EAE1F2E0DE01AF5ABF4F01900D929F
:103A00008A95E1F78AE0EAE6F2E0DE01A551BF4FD0
:103A100001900D928A95E1F788E0E4E7F2E0DE019B
:103A2000AB5FBE4F01900D928A95E1F78AE1ECE71A
:103A3000F2E0DE01A554BF4F01900D928A95E1F7A7
:103A400026E040E855E260E070E08DE695E00E94F7
:103A5000962580910C0290E0FC013197EF30F10542
:103A6000C0F4EF57FF4F0C94FA2B9CE122C08CE17D
:103A700027C099E11EC081E023C094E01AC084E011
:103A80001FC09EE316C08EE31BC09BE312C08BE3F6
:103A900017C060E273E08DE695E00E94F5264AE0EB
:103AA00050E060910C028DE695E00E94FB27FFCF6D
:103AB0009FE3C35FDE4F9883CD50D14006C088E0BE
:103AC000C35FDE4F8883CD50D140C35FDE4F888116
:103AD000CD50D140807209F475C0C350DF4F798258
:103AE0006882CD5FD040C150DF4F99828882CF5F1E
:103AF000D040CF5FDE4F39822882C150D140C25FB3
:103B0000DE4F88819981CE50D140CD5FDE4F9983C1
:103B10008883C350D14080E5FE01EF5AFF4FDE019C
:103B2000119601900D928A95E1F78FE590E00E9441
:103B3000B5262C018DB79EB7805591090FB6F89424
:103B40009EBF0FBE8DBFADB7BEB7119680E5FE011B
:103B5000319601900D928A95E1F7C350DF4F0881AD
:103B6000CD5FD040C250DF4F1881CE5FD040C150F2
:103B7000DF4F2881CF5FD040C050DF4F3881C05029
:103B8000D140CF5FDE4F4881C150D140CE5FDE4F84
:103B90005881C250D140CD5FDE4F6881C350D140C3
:103BA000CC5FDE4F7881C450D140C2010E947D02BB
:103BB00050925305409252050FB6F894DEBF0FBEE7
:103BC000CDBF04C01092530510925205C35FDE4F63
:103BD0009881CD50D14094FF51C08AE0FE01E5515B
:103BE000FF4FDE01AF51BF4F01900D928A95E1F773
:103BF0008DE290E00E94B5262C01A0904E05B09079
:103C00004F05C0904805D0904905CF51DF4FE8805F
:103C1000C15ED040CE51DF4FF880C25ED040CD5162
:103C2000DF4F0881C35ED040CC51DF4F1881C45EA6
:103C3000D040CB51DF4F2881C55ED040CA51DF4F05
:103C40003881C65ED040C951DF4F4881C75ED04041
:103C5000C851DF4F5881C85ED040C751DF4F6881DF
:103C6000C95ED040C651DF4F7881CA5ED0400E9405
:103C70002D07509251054092500504C010925105F5
:103C800010925005C35FDE4F8881CD50D14083FF35
:103C90003FC088E0FE01EB5FFE4FDE01AB50BF4F3F
:103CA00001900D928A95E1F788E090E00E94B52698
:103CB0002C01CB50DF4F0881C55FD040CA50DF4F89
:103CC0001881C65FD040C950DF4F2881C75FD04000
:103CD000C850DF4F3881C85FD040C750DF4F4881A0
:103CE000C95FD040C650DF4F5881CA5FD040C55031
:103CF000DF4F6881CB5FD040C450DF4F7881CC5F0D
:103D0000D0400E944D0650924F0540924E0504C08F
:103D100010924F0510924E05C35FDE4F9881CD5033
:103D2000D14090FF30C08AE1FE01E554FF4FDE0133
:103D3000AF55BF4F01900D928A95E1F78CE890E066
:103D40000E94B5262C018DB79EB74A970FB6F894FE
:103D50009EBF0FBE8DBFADB7BEB711968AE1FE0103
:103D6000EF55FF4F01900D928A95E1F7C2010E9435
:103D7000B50D50924D0540924C050FB6F894DEBF3C
:103D80000FBECDBF04C010924D0510924C05C35F0D
:103D9000DE4F9881CD50D14091FF10C084E090E07B
:103DA0000E94B5262C0141E052E063E074E00E94DD
:103DB000F31350924B0540924A0504C010924B05F4
:103DC00010924A05C35FDE4F8881CD50D14082FFFB
:103DD00025C088E290E00E94B5262C0168E00E9490
:103DE0005B0F509249054092480543E050E06DEA70
:103DF0007CE180E00E94B21F8091480590914905C6
:103E00006FE204960E94E80487FF0CC08091480589
:103E10009091490504960E941005EECF1092490535
:103E200010924805C05FDE4F88819981C051D14012
:103E3000CB52DF4F99838883C55DD040C952DF4F95
:103E400079826882C75DD040C752DF4F99828882ED
:103E5000C95DD040C25FDE4F88819981CE50D1408C
:103E6000C552DF4F99838883CB5DD040C352DF4F6B
:103E700039822882CD5DD040CE5EDE4F8881998127
:103E8000C251D140C152DF4F99838883CF5DD0406A
:103E90008FE090E00E94B5263C01CB52DF4F888036
:103EA000C55DD040CA52DF4F9880C65DD040C95230
:103EB000DF4FA880C75DD040C852DF4FB880C85DD3
:103EC000D040C752DF4FC880C95DD040C652DF4FD7
:103ED000D880CA5DD040C552DF4FE880CB5DD0406E
:103EE000C452DF4FF880CC5DD040C352DF4F088111
:103EF000CD5DD040C252DF4F1881CE5DD040C1525F
:103F0000DF4F2881CF5DD040C052DF4F3881C05E87
:103F1000D04045E460910C020E94990A70924705D6
:103F200060924605CD5EDE4F0FB6F894DEBF0FBE41
:103F3000CDBFDF91CF911F910F91FF90EF90DF9058
:103F4000CF90BF90AF909F908F907F906F905F9039
:103F50004F903F902F90089580914605909147058E
:103F60000C94F30C883008F06DC0E82FF0E0EE0FF1
:103F7000FF1FEC5AFA4F7183608390E0FC01319788
:103F8000E730F10590F5E057FF4F0C94FA2B809144
:103F900069008C7F842B80936900E89A0895809152
:103FA0006900440F551F440F551F837F842B809356
:103FB0006900E99A08958091690074E0440F551FE3
:103FC0007A95E1F78F7C842B80936900EA9A0895B3
:103FD0008091690066E0440F551F6A95E1F78F7381
:103FE000842B80936900EB9A089580916A008C7FFE
:103FF000842B80936A00EC9A089580916A00440FA4
:10400000551F440F551F837F842B80936A00ED9AC0
:10401000089580916A0024E0440F551F2A95E1F726
:104020008F7C842B80936A00EE9A089580916A00B9
:1040300096E0440F551F9A95E1F78F73842B809378
:104040006A00EF9A08951F920F920FB60F921124F3
:104050000BB60F922F933F934F935F936F937F9382
:104060008F939F93AF93BF93EF93FF9380915805E6
:1040700090915905892B29F0E0915805F091590547
:104080000995FF91EF91BF91AF919F918F917F9192
:104090006F915F914F913F912F910F900BBE0F90B9
:1040A0000FBE0F901F9018951F920F920FB60F9290
:1040B00011240BB60F922F933F934F935F936F93FF
:1040C0007F938F939F93AF93BF93EF93FF938091D1
:1040D0005A0590915B05892B29F0E0915A05F091E2
:1040E0005B050995FF91EF91BF91AF919F918F91E2
:1040F0007F916F915F914F913F912F910F900BBEE8
:104100000F900FBE0F901F9018951F920F920FB631
:104110000F9211240BB60F922F933F934F935F93FF
:104120006F937F938F939F93AF93BF93EF93FF937F
:1041300080915C0590915D05892B29F0E0915C05EB
:10414000F0915D050995FF91EF91BF91AF919F911E
:104150008F917F916F915F914F913F912F910F9030
:104160000BBE0F900FBE0F901F9018951F920F92CD
:104170000FB60F9211240BB60F922F933F934F93CC
:104180005F936F937F938F939F93AF93BF93EF93BF
:10419000FF9380915E0590915F05892B29F0E09156
:1041A0005E05F0915F050995FF91EF91BF91AF9189
:1041B0009F918F917F916F915F914F913F912F913F
:1041C0000F900BBE0F900FBE0F901F9018951F926F
:1041D0000F920FB60F9211240BB60F922F933F93AD
:1041E0004F935F936F937F938F939F93AF93BF93FF
:1041F000EF93FF938091540590915505892B29F0F9
:10420000E0915405F09155050995FF91EF91BF910B
:10421000AF919F918F917F916F915F914F913F915E
:104220002F910F900BBE0F900FBE0F901F901895FF
:104230001F920F920FB60F9211240BB60F922F936D
:104240003F934F935F936F937F938F939F93AF931E
:10425000BF93EF93FF938091560590915705892B5B
:1042600029F0E0915605F09157050995FF91EF91DE
:10427000BF91AF919F918F917F916F915F914F917E
:104280003F912F910F900BBE0F900FBE0F901F907C
:1042900018951F920F920FB60F9211240BB60F9222
:1042A0002F933F934F935F936F937F938F939F933E
:1042B000AF93BF93EF93FF93809160059091610559
:1042C000892B29F0E0916005F09161050995FF9136
:1042D000EF91BF91AF919F918F917F916F915F917E
:1042E0004F913F912F910F900BBE0F900FBE0F90EB
:1042F0001F9018951F920F920FB60F9211240BB6B4
:104300000F922F933F934F935F936F937F938F936E
:104310009F93AF93BF93EF93FF938091620590912A
:104320006305892B29F0E0916205F09163050995F9
:10433000FF91EF91BF91AF919F918F917F916F917D
:104340005F914F913F912F910F900BBE0F900FBE39
:104350000F901F9018951F920F920FB60F92112475
:104360002F933F938F939F93AF93BF938091650556
:1043700090916605A0916705B0916805309164053C
:1043800023E0230F2D3720F40196A11DB11D05C098
:1043900026E8230F0296A11DB11D2093640580938A
:1043A000650590936605A0936705B09368058091B5
:1043B000690590916A05A0916B05B0916C05019615
:1043C000A11DB11D8093690590936A05A0936B05AB
:1043D000B0936C05BF91AF919F918F913F912F91B9
:1043E0000F900FBE0F901F9018953FB7F8948091D3
:1043F000690590916A05A0916B05B0916C0526B591
:10440000A89B05C02F3F19F00196A11DB11D3FBF0C
:104410006627782F892F9A2F620F711D811D911D9C
:1044200042E0660F771F881F991F4A95D1F70895BC
:10443000CF92DF92EF92FF92CF93DF936B017C01DB
:104440000E94F521EB01C114D104E104F10489F0CB
:104450000E942D290E94F5216C1B7D0B683E734044
:1044600090F381E0C81AD108E108F108C851DC4F87
:10447000EACFDF91CF91FF90EF90DF90CF9008953A
:104480008230910538F0880F991F880F991F059782
:104490000197F1F70895789484B5826084BD84B55E
:1044A000816084BD85B5826085BD85B5816085BD2F
:1044B000EEE6F0E0808181608083E1E8F0E0108248
:1044C000808182608083808181608083E0E8F0E089
:1044D000808181608083E1EBF0E080818460808373
:1044E000E0EBF0E0808181608083E1E9F0E08081B1
:1044F00082608083808181608083E0E9F0E0808158
:1045000081608083E1EAF0E0808182608083808145
:1045100081608083E0EAF0E0808181608083E1E275
:10452000F1E0808182608083808181608083E0E22D
:10453000F1E0808181608083EAE7F0E0808184603F
:10454000808380818260808380818160808380819C
:10455000806880831092C1000895863308F08653E6
:1045600020917B00982F9870277F922B90937B004F
:10457000877020910D0290E4299F90011124822BD5
:1045800080937C0080917A00806480937A0080918F
:104590007A0086FDFCCF809178002091790090E030
:1045A000922B08951F93CF93DF93182FEB0161E0B7
:1045B0000E94EC23209711F460E004C0CF3FD105A6
:1045C00039F461E0812FDF91CF911F910C94252464
:1045D000E12FF0E0E05CFC4F449150E0FA013197AC
:1045E000E231F10508F09BC0E956FF4F0C94FA2B1D
:1045F00084B5806884BDC7BD97C084B5806284BD22
:10460000C8BD92C080918000806880938000D09364
:104610008900C093880088C0809180008062809368
:104620008000D0938B00C0938A007EC08091800070
:10463000886080938000D0938D00C0938C0074C0FC
:104640008091B00080688093B000C093B3006CC0CC
:104650008091B00080628093B000C093B40064C0C9
:1046600080919000806880939000D0939900C093CF
:1046700098005AC080919000806280939000D093FF
:104680009B00C0939A0050C08091900088608093F6
:104690009000D0939D00C0939C0046C08091A000E4
:1046A00080688093A0008091A0008F7B8093A00001
:1046B000D093A900C093A80037C08091A000806269
:1046C0008093A000D093AB00C093AA002DC080912E
:1046D000A00088608093A000D093AD00C093AC0090
:1046E00023C080912001806880932001D09329010C
:1046F000C093280119C0809120018062809320011D
:10470000D0932B01C0932A010FC0809120018860B3
:1047100080932001D0932D01C0932C0105C0C03897
:10472000D1050CF04ECF48CFDF91CF911F91089566
:1047300090E0FC013197E231F10508F04CC0E755FB
:10474000FF4F0C94FA2B809180008F7703C08091EB
:1047500080008F7D80938000089580918000877F06
:10476000F9CF84B58F7702C084B58F7D84BD08955D
:104770008091B0008F7703C08091B0008F7D8093CF
:10478000B0000895809190008F7707C080919000CD
:104790008F7D03C080919000877F80939000089563
:1047A0008091A0008F7707C08091A0008F7D03C00B
:1047B0008091A000877F8093A000089580912001C0
:1047C0008F7707C0809120018F7D03C080912001E9
:1047D000877F809320010895CF93DF9390E0FC01C1
:1047E000EA57FC4F2491FC01E453FC4F8491882349
:1047F00049F190E0880F991FFC01EA5BFB4FA591FE
:10480000B491845D9B4FFC01C591D4919FB7611118
:1048100008C0F8948C91209582238C938881822300
:104820000AC0623051F4F8948C91322F3095832372
:104830008C938881822B888304C0F8948C91822B7E
:104840008C939FBFDF91CF9108950F931F93CF93C8
:10485000DF931F92CDB7DEB7282F30E0F901E05C7F
:10486000FC4F8491F901EA57FC4F1491F901E4538C
:10487000FC4F04910023C9F0882321F069830E9432
:1048800098236981E02FF0E0EE0FFF1FE45DFB4FFE
:10489000A591B4919FB7F8948C91611103C01095C4
:1048A000812301C0812B8C939FBF0F90DF91CF910B
:1048B0001F910F910895CF93DF93282F30E0F901D6
:1048C000E05CFC4F8491F901EA57FC4FD491F90167
:1048D000E453FC4FC491CC2391F081110E949823A2
:1048E000EC2FF0E0EE0FFF1FEE5EFB4FA591B491B1
:1048F0002C912D2381E090E021F480E002C080E043
:1049000090E0DF91CF910895FC01818D228D90E0A0
:10491000805C9F4F821B91098F7399270895FC013A
:10492000918D828D981731F0828DE80FF11D858D64
:1049300090E008958FEF9FEF0895FC01918D828D97
:10494000981761F0828DDF01A80FB11D5D968C91E3
:10495000928D9F5F9F73928F90E008958FEF9FEFEE
:10496000089588E596E2892B41F080E090E0892B5C
:1049700021F00E945826811125C080E090E0892B0B
:1049800041F080E090E0892B21F00E94000081112D
:104990001CC080E090E0892B41F080E090E0892B02
:1049A00021F00E940000811113C080E090E0892B6B
:1049B000A1F080E090E0892B81F00E94000081113D
:1049C0000AC008950E940000D8CF0E940000E1CFE5
:1049D0000E940000EACF0C9400000895FC01848D31
:1049E000DF01A80FB11DA35ABF4F2C91848D90E019
:1049F00001968F739927848FA689B7892C93A089F4
:104A0000B1898C9180648C93938D848D981306C0AA
:104A10000288F389E02D80818F7D80830895CF9374
:104A2000DF93EC01888D8823C9F0EA89FB898081B6
:104A300085FD05C0A889B9898C9186FD0FC00FB688
:104A400007FCF5CF808185FFF2CFA889B9898C91C9
:104A500085FFEDCFCE010E94EE24E7CFDF91CF910D
:104A60000895CF92DF92FF920F931F93CF93DF931E
:104A70001F92CDB7DEB76C0181E0D60158968C93BA
:104A800058975B969C915B975C968C915C9798137A
:104A900007C05096ED91FC915197808185FD2EC005
:104AA000F601038D10E00F5F1F4F0F731127F02EDB
:104AB000F601848DF81211C00FB607FCF9CFD601AC
:104AC0005096ED91FC915197808185FFF1CFC60101
:104AD00069830E94EE246981EBCF838DE80FF11D7D
:104AE000E35AFF4F6083D6015B960C935B97529617
:104AF000ED91FC915397808180620CC0D60156964F
:104B0000ED91FC91579760835096ED91FC915197F0
:104B100080818064808381E090E00F90DF91CF916D
:104B20001F910F91FF90DF90CF900895BF92CF9289
:104B3000DF92EF92FF92CF93DF93EC016A017B014A
:104B4000B22EE889F98982E08083411581EE580709
:104B500061057105A1F060E079E08DE390E0A701C7
:104B600096010E94D82B21503109410951095695CF
:104B7000479537952795211580E1380798F0E88902
:104B8000F989108260E874E88EE190E0A70196014F
:104B90000E94D82B2150310941095109569547955A
:104BA00037952795EC85FD853083EE85FF8520833D
:104BB000188EEC89FD89B082EA89FB898081806149
:104BC0008083EA89FB89808188608083EA89FB8908
:104BD000808180688083EA89FB8980818F7D8083E2
:104BE000DF91CF91FF90EF90DF90CF90BF9008952D
:104BF0001F920F920FB60F9211240BB60F922F93A4
:104C00008F939F93EF93FF93E0917D05F0917E0545
:104C10008081E0918305F091840582FD12C090812E
:104C2000809186058F5F8F7320918705821751F0E1
:104C3000E0918605F0E0E359FA4F958F8093860561
:104C400001C08081FF91EF919F918F912F910F90E3
:104C50000BBE0F900FBE0F901F9018951F920F92D2
:104C60000FB60F9211240BB60F922F933F934F93D1
:104C70005F936F937F938F939F93AF93BF93EF93C4
:104C8000FF938DE695E00E94EE24FF91EF91BF9196
:104C9000AF919F918F917F916F915F914F913F91D4
:104CA0002F910F900BBE0F900FBE0F901F90189575
:104CB0008DE695E00E94842421E0892B09F420E010
:104CC000822F08951092700510926F0588EE93E080
:104CD000A0E0B0E08093710590937205A0937305F6
:104CE000B093740587E993E090936E0580936D050A
:104CF00085EC90E090937A058093790584EC90E0C0
:104D000090937C0580937B0580EC90E090937E05EA
:104D100080937D0581EC90E09093800580937F05E2
:104D200082EC90E0909382058093810586EC90E080
:104D300090938405809383051092860510928705D1
:104D40001092880510928905089508950E944B22BB
:104D50000E94A5260E94B31CC1EBD4E20E94AC1FA6
:104D60002097E1F30E94B124F9CF0C94042CCF9248
:104D7000DF92EF92FF920F931F93CF93DF936C011B
:104D80007A01EB01E60EF71E00E010E0CE15DF051C
:104D900061F06991D601ED91FC910190F081E02DD7
:104DA000C6010995080F191FF1CFC801DF91CF91F6
:104DB0001F910F91FF90EF90DF90CF9008956115B4
:104DC000710581F0DB010D900020E9F7AD01415044
:104DD0005109461B570BDC01ED91FC910280F381D8
:104DE000E02D099480E090E00895EF92FF920F93F8
:104DF0001F93CF93DF938C01FB01C0E0D0E064915F
:104E00007F018FEFE81AF80A662361F0D801ED916F
:104E1000FC910190F081E02DC8010995C80FD91FC0
:104E2000F701EDCFCE01DF91CF911F910F91FF9050
:104E3000EF9008950C94DF26DC01ED91FC91019038
:104E4000F081E02D099463EA73E00C94DF260F9360
:104E50001F93CF93DF93EC010E94F5268C01CE01C6
:104E60000E942327800F911FDF91CF911F910F91F7
:104E700008950F931F93CF93DF93EC010E94DF26D9
:104E80008C01CE010E942327800F911FDF91CF91CB
:104E90001F910F9108958F929F92AF92BF92CF92E0
:104EA000DF92EF92FF920F931F93CF93DF93CDB7D3
:104EB000DEB7A1970FB6F894DEBF0FBECDBF7C0161
:104EC000C42EE52FCB01D22E19A221E02D1510F012
:104ED0002AE0D22E8E010F5D1F4F8D2C912CA12C1C
:104EE000B12C6C2D7E2FA50194010E94D82B8C2D06
:104EF000D29E80191124015011098A3014F4805D6A
:104F000001C0895CF80180832115310541055105F7
:104F100021F0C22EE32FCA01E4CFB801C7010E94DD
:104F2000DF26A1960FB6F894DEBF0FBECDBFDF918E
:104F3000CF911F910F91FF90EF90DF90CF90BF9096
:104F4000AF909F908F900895CF92DF92EF92FF9253
:104F50000F931F93CF93DF93EC016A017B0121151F
:104F6000310579F4E881F9810190F081E02D642F19
:104F7000DF91CF911F910F91FF90EF90DF90CF9035
:104F800009942A303105E9F477FF1AC06DE20E94D6
:104F90001C278C0144275527BA014C195D096E095D
:104FA0007F092AE0CE010E944B27800F911FDF91DD
:104FB000CF911F910F91FF90EF90DF90CF900895C8
:104FC0002AE0B701A601CE01DF91CF911F910F9189
:104FD000FF90EF90DF90CF900C944B272115310577
:104FE00041F4DC01ED91FC910190F081E02D642F02
:104FF00009940C944B270F931F93CF93DF93EC01ED
:105000009A01462F50E060E070E00E94EE278C018C
:10501000CE010E942327800F911FDF91CF911F9116
:105020000F9108959A01AB0160E070E00C94EE27B7
:105030000F931F93CF93DF93EC019A01AB0160E0D4
:1050400070E00E94EE278C01CE010E942327800F82
:10505000911FDF91CF911F910F9108954F925F9211
:105060006F927F928F929F92AF92BF92CF92DF9278
:10507000EF92FF920F931F93CF93DF93EC016A019E
:105080007B01B22E9A01AB01C701B6010E948B2BA6
:10509000882319F066EA73E027C026013701E894F7
:1050A00077F82FEF3FEF4FE75FE7C301B2010E94B0
:1050B0008B2B81110DC02FEF3FEF4FE75FE7C3014F
:1050C000B2010E94932918161CF46AEA73E00CC01E
:1050D0002FEF3FEF4FE75FE4C701B6010E94E22ADE
:1050E0001816ACF46EEA73E0CE01DF91CF911F91F8
:1050F0000F91FF90EF90DF90CF90BF90AF909F9077
:105100008F907F906F905F904F900C94DF262FEFE1
:105110003FEF4FE75FECC701B6010E94932987FD7F
:10512000E1CF20E030E0A901C701B6010E94932938
:1051300087FF0AC06DE2CE010E941C278C01F7FA9E
:10514000F094F7F8F09402C000E010E0A12C60E0C9
:1051500070E080E09FE3AB1441F020E030E040E2FB
:1051600051E40E949729A394F6CF9B01AC01C7019B
:10517000B6010E942F296B017C010E94042A2B0199
:105180003C010E94302A9B01AC01C701B6010E947C
:105190002E296B017C012AE0B301A201CE010E94FD
:1051A0004B27080F191FBB2039F06DE673E0CE01C5
:1051B0000E94DF26080F191F7B2C772041F120E089
:1051C00030E040E251E4C701B6010E94E62A6B01DB
:1051D0007C010E94FF294B01AA2497FCA094BA2CC1
:1051E0002AE030E0B501A401CE010E94A427080FF7
:1051F000191FC501B4010E94322A9B01AC01C701ED
:10520000B6010E942E296B017C017A94D6CFC80189
:10521000DF91CF911F910F91FF90EF90DF90CF9092
:10522000BF90AF909F908F907F906F905F904F90C6
:1052300008950C942E280F931F93CF93DF93EC01C6
:105240000E942E288C01CE010E942327800F911FDF
:10525000DF91CF911F910F91089508955058BB276A
:10526000AA270ED075C166D130F06BD120F031F491
:105270009F3F11F41EF45BC10EF4E095E7FB51C1B2
:10528000E92F77D180F3BA17620773078407950770
:1052900018F071F49EF58FC10EF4E0950B2EBA2F25
:1052A000A02D0B01B90190010C01CA01A00111242C
:1052B000FF27591B99F0593F50F4503E68F11A16D8
:1052C000F040A22F232F342F4427585FF3CF469569
:1052D00037952795A795F0405395C9F77EF41F168B
:1052E000BA0B620B730B840BBAF09150A1F0FF0F55
:1052F000BB1F661F771F881FC2F70EC0BA0F621F41
:10530000731F841F48F4879577956795B795F79530
:105310009E3F08F0B3CF9395880F08F09927EE0FC2
:10532000979587950895D9D008F481E008950CD019
:105330000FC107D140F0FED030F021F45F3F19F0EB
:10534000F0C0511139C1F3C014D198F39923C9F3B6
:105350005523B1F3951B550BBB27AA27621773077B
:10536000840738F09F5F5F4F220F331F441FAA1F2F
:10537000A9F333D00E2E3AF0E0E830D091505040EF
:10538000E695001CCAF729D0FE2F27D0660F771F9D
:10539000881FBB1F261737074807AB07B0E809F07F
:1053A000BB0B802DBF01FF2793585F4F2AF09E3F14
:1053B000510568F0B6C000C15F3FECF3983EDCF3E6
:1053C000869577956795B795F7959F5FC9F7880F8D
:1053D000911D9695879597F90895E1E0660F771FDF
:1053E000881FBB1F621773078407BA0720F0621B70
:1053F000730B840BBA0BEE1F88F7E095089504D069
:105400006894B111D9C00895BCD088F09F5790F02E
:10541000B92F9927B751A0F0D1F0660F771F881FD9
:10542000991F1AF0BA95C9F712C0B13081F0C3D0F4
:10543000B1E00895C0C0672F782F8827B85F39F092
:10544000B93FCCF3869577956795B395D9F73EF438
:1054500090958095709561957F4F8F4F9F4F0895E0
:10546000E89409C097FB3EF49095809570956195FE
:105470007F4F8F4F9F4F9923A9F0F92F96E9BB27B4
:105480009395F695879577956795B795F111F8CF30
:10549000FAF4BB0F11F460FF1BC06F5F7F4F8F4F9B
:1054A0009F4F16C0882311F096E911C0772321F091
:1054B0009EE8872F762F05C0662371F096E8862F29
:1054C00070E060E02AF09A95660F771F881FDAF780
:1054D000880F9695879597F90895990F0008550FAD
:1054E000AA0BE0E8FEEF16161706E807F907C0F06A
:1054F00012161306E407F50798F0621B730B840B72
:10550000950B39F40A2661F0232B242B252B21F44B
:1055100008950A2609F4A140A6958FEF811D811DEB
:10552000089597F99F6780E870E060E008959FEF25
:1055300080EC089500240A9416161706180609062A
:10554000089500240A9412161306140605060895F9
:10555000092E0394000C11F4882352F0BB0F40F481
:10556000BF2B11F460FF04C06F5F7F4F8F4F9F4FC1
:10557000089557FD9058440F551F59F05F3F71F043
:105580004795880F97FB991F61F09F3F79F08795AA
:105590000895121613061406551FF2CF4695F1DF33
:1055A00008C0161617061806991FF1CF86957105C3
:1055B000610508940895E894BB2766277727CB01F7
:1055C00097F908958ADF08F48FEF08950BD0C0CFC4
:1055D000B1DF28F0B6DF18F0952309F0A2CFA7CFEE
:1055E0001124EACFC6DFA0F3959FD1F3950F50E0C9
:1055F000551F629FF001729FBB27F00DB11D639F85
:10560000AA27F00DB11DAA1F649F6627B00DA11D2A
:10561000661F829F2227B00DA11D621F739FB00DD0
:10562000A11D621F839FA00D611D221F749F332740
:10563000A00D611D231F849F600D211D822F762FD9
:105640006A2F11249F5750408AF0E1F088234AF0D6
:10565000EE0FFF1FBB1F661F771F881F9150504022
:10566000A9F79E3F510570F05CCFA6CF5F3FECF3EA
:10567000983EDCF3869577956795B795F795E7950E
:105680009F5FC1F7FE2B880F911D9695879597F91F
:10569000089511F40EF44BCF42C073DFD0F3992379
:1056A000D9F3CEF39F57550B87FF47D00024A0E6D0
:1056B00040EA900180585695979528F4805C660FD3
:1056C000771F881F20F026173707480730F4621B22
:1056D000730B840B202931294A2BA6951794079424
:1056E000202531254A2758F7660F771F881F20F09D
:1056F00026173707480730F4620B730B840B200D15
:10570000311D411DA09581F7B901842F9158880F53
:10571000969587950895E1DE880B990B08959F3F34
:1057200031F0915020F4879577956795B795880F5C
:10573000911D9695879597F9089591505040660F61
:10574000771F881FD2F70895991B79E004C0991F2D
:10575000961708F0961B881F7A95C9F780950895CB
:10576000AA1BBB1B51E107C0AA1FBB1FA617B70787
:1057700010F0A61BB70B881F991F5A95A9F78095A3
:105780009095BC01CD01089597FB072E16F4009467
:1057900007D077FD09D00E94B02B07FC05D03EF45E
:1057A000909581959F4F0895709561957F4F0895CD
:1057B000A1E21A2EAA1BBB1BFD010DC0AA1FBB1F15
:1057C000EE1FFF1FA217B307E407F50720F0A21B87
:1057D000B30BE40BF50B661F771F881F991F1A94F4
:1057E00069F760957095809590959B01AC01BD011E
:1057F000CF010895EE0FFF1F0590F491E02D09945D
:105800000790F691E02D0994CF93DF9382309105B4
:1058100010F482E090E0E0910C06F0910D0620E09B
:1058200030E0A0E0B0E0309739F140815181481775
:105830005907B8F04817590771F48281938110977E
:1058400029F013969C938E9312972CC090930D067B
:1058500080930C0627C02115310531F042175307FC
:1058600018F0A901DB0101C0EF019A01BD01DF01C0
:105870000280F381E02DD7CF21153105F9F0281BE7
:10588000390B2430310580F48A819B8161157105C3
:1058900021F0FB019383828304C090930D068093D3
:1058A0000C06FE01329644C0FE01E20FF31F819305
:1058B000919322503109398328833AC020910A06F6
:1058C00030910B06232B41F4209102023091030208
:1058D00030930B0620930A062091000230910102BA
:1058E0002115310541F42DB73EB740910402509186
:1058F0000502241B350BE0910A06F0910B06E21716
:10590000F307A0F42E1B3F0B2817390778F0AC01E2
:105910004E5F5F4F2417350748F04E0F5F1F5093BF
:105920000B0640930A068193919302C0E0E0F0E0F9
:10593000CF01DF91CF910895CF93DF93009709F4C2
:1059400087C0FC01329713821282C0910C06D0915D
:105950000D06209781F420813181280F391F809115
:105960000A0690910B068217930779F5F0930B06C0
:10597000E0930A066DC0DE0120E030E0AE17BF07FD
:1059800050F412964D915C9113979D01411551056C
:1059900009F1DA01F3CFB383A28340815181840FEF
:1059A000951F8A179B0771F48D919C911197840F15
:1059B000951F02969183808312968D919C911397E7
:1059C000938382832115310529F4F0930D06E0932A
:1059D0000C063EC0D9011396FC93EE9312974D919D
:1059E0005D91A40FB51FEA17FB0779F480819181BF
:1059F000840F951F0296D90111969C938E938281F4
:105A0000938113969C938E931297E0E0F0E08A8145
:105A10009B81009719F0FE01EC01F9CFCE010296AF
:105A200028813981820F931F20910A0630910B063D
:105A30002817390769F4309729F410920D0610924F
:105A40000C0602C013821282D0930B06C0930A0682
:105A5000DF91CF9108956F927F928F929F92AF9234
:105A6000BF92CF92DF92EF92FF920F931F93CF934B
:105A7000DF93EC01CB01209781F4DF91CF911F914F
:105A80000F91FF90EF90DF90CF90BF90AF909F90DD
:105A90008F907F906F900C94042CFE01E60FF71FFF
:105AA0009E0122503109E217F30708F4ACC0D90176
:105AB0000D911C91119706171707B8F005301105C5
:105AC00008F49FC0A801445051094617570708F42D
:105AD00098C002501109061B170B019311936D9387
